{
  "_format": "hh-sol-artifact-1",
  "contractName": "ZionUtils",
  "sourceName": "contracts/governance/utils/ZionUtils.sol",
  "abi": [
    {
      "inputs": [],
      "name": "getBlockNumber",
      "outputs": [
        {
          "internalType": "uint256",
          "name": "",
          "type": "uint256"
        }
      ],
      "stateMutability": "view",
      "type": "function"
    },
    {
      "inputs": [
        {
          "internalType": "bytes32",
          "name": "hex_",
          "type": "bytes32"
        }
      ],
      "name": "hexToNumber",
      "outputs": [
        {
          "internalType": "uint256",
          "name": "",
          "type": "uint256"
        }
      ],
      "stateMutability": "pure",
      "type": "function"
    },
    {
      "inputs": [
        {
          "internalType": "string",
          "name": "description_",
          "type": "string"
        }
      ],
      "name": "stringToBytes",
      "outputs": [
        {
          "internalType": "bytes",
          "name": "",
          "type": "bytes"
        }
      ],
      "stateMutability": "pure",
      "type": "function"
    }
  ],
  "bytecode": "0x608060405234801561001057600080fd5b506103fd806100206000396000f3fe608060405234801561001057600080fd5b50600436106100415760003560e01c806320773f4b1461004657806342cbb15c14610076578063e106fb4b14610094575b600080fd5b610060600480360381019061005b919061012d565b6100c4565b60405161006d9190610173565b60405180910390f35b61007e6100d1565b60405161008b9190610173565b60405180910390f35b6100ae60048036038101906100a991906102d4565b6100d9565b6040516100bb91906103a5565b60405180910390f35b60008160001c9050919050565b600043905090565b6060819050919050565b6000604051905090565b600080fd5b600080fd5b6000819050919050565b61010a816100f7565b811461011557600080fd5b50565b60008135905061012781610101565b92915050565b600060208284031215610143576101426100ed565b5b600061015184828501610118565b91505092915050565b6000819050919050565b61016d8161015a565b82525050565b60006020820190506101886000830184610164565b92915050565b600080fd5b600080fd5b6000601f19601f8301169050919050565b7f4e487b7100000000000000000000000000000000000000000000000000000000600052604160045260246000fd5b6101e182610198565b810181811067ffffffffffffffff82111715610200576101ff6101a9565b5b80604052505050565b60006102136100e3565b905061021f82826101d8565b919050565b600067ffffffffffffffff82111561023f5761023e6101a9565b5b61024882610198565b9050602081019050919050565b82818337600083830152505050565b600061027761027284610224565b610209565b90508281526020810184848401111561029357610292610193565b5b61029e848285610255565b509392505050565b600082601f8301126102bb576102ba61018e565b5b81356102cb848260208601610264565b91505092915050565b6000602082840312156102ea576102e96100ed565b5b600082013567ffffffffffffffff811115610308576103076100f2565b5b610314848285016102a6565b91505092915050565b600081519050919050565b600082825260208201905092915050565b60005b8381101561035757808201518184015260208101905061033c565b83811115610366576000848401525b50505050565b60006103778261031d565b6103818185610328565b9350610391818560208601610339565b61039a81610198565b840191505092915050565b600060208201905081810360008301526103bf818461036c565b90509291505056fea26469706673582212209c1a73d96c3d25e3827a3958a880ea0a3d4301a67c301bf6ed0e5253f794b38564736f6c63430008090033",
  "linkReferences": {},
  "deployedLinkReferences": {}
}