{
  "_format": "hh-sol-artifact-1",
  "contractName": "GovernorMock",
  "sourceName": "contracts/oz/mocks/GovernorMock.sol",
  "abi": [
    {
      "inputs": [
        {
          "internalType": "string",
          "name": "name_",
          "type": "string"
        },
        {
          "internalType": "contract ERC20Votes",
          "name": "token_",
          "type": "address"
        },
        {
          "internalType": "uint256",
          "name": "votingDelay_",
          "type": "uint256"
        },
        {
          "internalType": "uint256",
          "name": "votingPeriod_",
          "type": "uint256"
        },
        {
          "internalType": "uint256",
          "name": "quorumNumerator_",
          "type": "uint256"
        }
      ],
      "stateMutability": "nonpayable",
      "type": "constructor"
    },
    {
      "anonymous": false,
      "inputs": [
        {
          "indexed": false,
          "internalType": "uint256",
          "name": "proposalId",
          "type": "uint256"
        }
      ],
      "name": "ProposalCanceled",
      "type": "event"
    },
    {
      "anonymous": false,
      "inputs": [
        {
          "indexed": false,
          "internalType": "uint256",
          "name": "proposalId",
          "type": "uint256"
        },
        {
          "indexed": false,
          "internalType": "address",
          "name": "proposer",
          "type": "address"
        },
        {
          "indexed": false,
          "internalType": "address[]",
          "name": "targets",
          "type": "address[]"
        },
        {
          "indexed": false,
          "internalType": "uint256[]",
          "name": "values",
          "type": "uint256[]"
        },
        {
          "indexed": false,
          "internalType": "string[]",
          "name": "signatures",
          "type": "string[]"
        },
        {
          "indexed": false,
          "internalType": "bytes[]",
          "name": "calldatas",
          "type": "bytes[]"
        },
        {
          "indexed": false,
          "internalType": "uint256",
          "name": "startBlock",
          "type": "uint256"
        },
        {
          "indexed": false,
          "internalType": "uint256",
          "name": "endBlock",
          "type": "uint256"
        },
        {
          "indexed": false,
          "internalType": "string",
          "name": "description",
          "type": "string"
        }
      ],
      "name": "ProposalCreated",
      "type": "event"
    },
    {
      "anonymous": false,
      "inputs": [
        {
          "indexed": false,
          "internalType": "uint256",
          "name": "proposalId",
          "type": "uint256"
        }
      ],
      "name": "ProposalExecuted",
      "type": "event"
    },
    {
      "anonymous": false,
      "inputs": [
        {
          "indexed": false,
          "internalType": "uint256",
          "name": "oldProposalThreshold",
          "type": "uint256"
        },
        {
          "indexed": false,
          "internalType": "uint256",
          "name": "newProposalThreshold",
          "type": "uint256"
        }
      ],
      "name": "ProposalThresholdSet",
      "type": "event"
    },
    {
      "anonymous": false,
      "inputs": [
        {
          "indexed": false,
          "internalType": "uint256",
          "name": "oldQuorumNumerator",
          "type": "uint256"
        },
        {
          "indexed": false,
          "internalType": "uint256",
          "name": "newQuorumNumerator",
          "type": "uint256"
        }
      ],
      "name": "QuorumNumeratorUpdated",
      "type": "event"
    },
    {
      "anonymous": false,
      "inputs": [
        {
          "indexed": true,
          "internalType": "address",
          "name": "voter",
          "type": "address"
        },
        {
          "indexed": false,
          "internalType": "uint256",
          "name": "proposalId",
          "type": "uint256"
        },
        {
          "indexed": false,
          "internalType": "uint8",
          "name": "support",
          "type": "uint8"
        },
        {
          "indexed": false,
          "internalType": "uint256",
          "name": "weight",
          "type": "uint256"
        },
        {
          "indexed": false,
          "internalType": "string",
          "name": "reason",
          "type": "string"
        }
      ],
      "name": "VoteCast",
      "type": "event"
    },
    {
      "anonymous": false,
      "inputs": [
        {
          "indexed": false,
          "internalType": "uint256",
          "name": "oldVotingDelay",
          "type": "uint256"
        },
        {
          "indexed": false,
          "internalType": "uint256",
          "name": "newVotingDelay",
          "type": "uint256"
        }
      ],
      "name": "VotingDelaySet",
      "type": "event"
    },
    {
      "anonymous": false,
      "inputs": [
        {
          "indexed": false,
          "internalType": "uint256",
          "name": "oldVotingPeriod",
          "type": "uint256"
        },
        {
          "indexed": false,
          "internalType": "uint256",
          "name": "newVotingPeriod",
          "type": "uint256"
        }
      ],
      "name": "VotingPeriodSet",
      "type": "event"
    },
    {
      "inputs": [],
      "name": "BALLOT_TYPEHASH",
      "outputs": [
        {
          "internalType": "bytes32",
          "name": "",
          "type": "bytes32"
        }
      ],
      "stateMutability": "view",
      "type": "function"
    },
    {
      "inputs": [],
      "name": "COUNTING_MODE",
      "outputs": [
        {
          "internalType": "string",
          "name": "",
          "type": "string"
        }
      ],
      "stateMutability": "pure",
      "type": "function"
    },
    {
      "inputs": [
        {
          "internalType": "address[]",
          "name": "targets",
          "type": "address[]"
        },
        {
          "internalType": "uint256[]",
          "name": "values",
          "type": "uint256[]"
        },
        {
          "internalType": "bytes[]",
          "name": "calldatas",
          "type": "bytes[]"
        },
        {
          "internalType": "bytes32",
          "name": "salt",
          "type": "bytes32"
        }
      ],
      "name": "cancel",
      "outputs": [
        {
          "internalType": "uint256",
          "name": "proposalId",
          "type": "uint256"
        }
      ],
      "stateMutability": "nonpayable",
      "type": "function"
    },
    {
      "inputs": [
        {
          "internalType": "uint256",
          "name": "proposalId",
          "type": "uint256"
        },
        {
          "internalType": "uint8",
          "name": "support",
          "type": "uint8"
        }
      ],
      "name": "castVote",
      "outputs": [
        {
          "internalType": "uint256",
          "name": "",
          "type": "uint256"
        }
      ],
      "stateMutability": "nonpayable",
      "type": "function"
    },
    {
      "inputs": [
        {
          "internalType": "uint256",
          "name": "proposalId",
          "type": "uint256"
        },
        {
          "internalType": "uint8",
          "name": "support",
          "type": "uint8"
        },
        {
          "internalType": "uint8",
          "name": "v",
          "type": "uint8"
        },
        {
          "internalType": "bytes32",
          "name": "r",
          "type": "bytes32"
        },
        {
          "internalType": "bytes32",
          "name": "s",
          "type": "bytes32"
        }
      ],
      "name": "castVoteBySig",
      "outputs": [
        {
          "internalType": "uint256",
          "name": "",
          "type": "uint256"
        }
      ],
      "stateMutability": "nonpayable",
      "type": "function"
    },
    {
      "inputs": [
        {
          "internalType": "uint256",
          "name": "proposalId",
          "type": "uint256"
        },
        {
          "internalType": "uint8",
          "name": "support",
          "type": "uint8"
        },
        {
          "internalType": "string",
          "name": "reason",
          "type": "string"
        }
      ],
      "name": "castVoteWithReason",
      "outputs": [
        {
          "internalType": "uint256",
          "name": "",
          "type": "uint256"
        }
      ],
      "stateMutability": "nonpayable",
      "type": "function"
    },
    {
      "inputs": [
        {
          "internalType": "address[]",
          "name": "targets",
          "type": "address[]"
        },
        {
          "internalType": "uint256[]",
          "name": "values",
          "type": "uint256[]"
        },
        {
          "internalType": "bytes[]",
          "name": "calldatas",
          "type": "bytes[]"
        },
        {
          "internalType": "bytes32",
          "name": "descriptionHash",
          "type": "bytes32"
        }
      ],
      "name": "execute",
      "outputs": [
        {
          "internalType": "uint256",
          "name": "",
          "type": "uint256"
        }
      ],
      "stateMutability": "payable",
      "type": "function"
    },
    {
      "inputs": [
        {
          "internalType": "address",
          "name": "account",
          "type": "address"
        },
        {
          "internalType": "uint256",
          "name": "blockNumber",
          "type": "uint256"
        }
      ],
      "name": "getVotes",
      "outputs": [
        {
          "internalType": "uint256",
          "name": "",
          "type": "uint256"
        }
      ],
      "stateMutability": "view",
      "type": "function"
    },
    {
      "inputs": [
        {
          "internalType": "uint256",
          "name": "proposalId",
          "type": "uint256"
        },
        {
          "internalType": "address",
          "name": "account",
          "type": "address"
        }
      ],
      "name": "hasVoted",
      "outputs": [
        {
          "internalType": "bool",
          "name": "",
          "type": "bool"
        }
      ],
      "stateMutability": "view",
      "type": "function"
    },
    {
      "inputs": [
        {
          "internalType": "address[]",
          "name": "targets",
          "type": "address[]"
        },
        {
          "internalType": "uint256[]",
          "name": "values",
          "type": "uint256[]"
        },
        {
          "internalType": "bytes[]",
          "name": "calldatas",
          "type": "bytes[]"
        },
        {
          "internalType": "bytes32",
          "name": "descriptionHash",
          "type": "bytes32"
        }
      ],
      "name": "hashProposal",
      "outputs": [
        {
          "internalType": "uint256",
          "name": "",
          "type": "uint256"
        }
      ],
      "stateMutability": "pure",
      "type": "function"
    },
    {
      "inputs": [],
      "name": "name",
      "outputs": [
        {
          "internalType": "string",
          "name": "",
          "type": "string"
        }
      ],
      "stateMutability": "view",
      "type": "function"
    },
    {
      "inputs": [
        {
          "internalType": "uint256",
          "name": "proposalId",
          "type": "uint256"
        }
      ],
      "name": "proposalDeadline",
      "outputs": [
        {
          "internalType": "uint256",
          "name": "",
          "type": "uint256"
        }
      ],
      "stateMutability": "view",
      "type": "function"
    },
    {
      "inputs": [
        {
          "internalType": "uint256",
          "name": "proposalId",
          "type": "uint256"
        }
      ],
      "name": "proposalSnapshot",
      "outputs": [
        {
          "internalType": "uint256",
          "name": "",
          "type": "uint256"
        }
      ],
      "stateMutability": "view",
      "type": "function"
    },
    {
      "inputs": [],
      "name": "proposalThreshold",
      "outputs": [
        {
          "internalType": "uint256",
          "name": "",
          "type": "uint256"
        }
      ],
      "stateMutability": "view",
      "type": "function"
    },
    {
      "inputs": [
        {
          "internalType": "uint256",
          "name": "proposalId",
          "type": "uint256"
        }
      ],
      "name": "proposalVotes",
      "outputs": [
        {
          "internalType": "uint256",
          "name": "againstVotes",
          "type": "uint256"
        },
        {
          "internalType": "uint256",
          "name": "forVotes",
          "type": "uint256"
        },
        {
          "internalType": "uint256",
          "name": "abstainVotes",
          "type": "uint256"
        }
      ],
      "stateMutability": "view",
      "type": "function"
    },
    {
      "inputs": [
        {
          "internalType": "address[]",
          "name": "targets",
          "type": "address[]"
        },
        {
          "internalType": "uint256[]",
          "name": "values",
          "type": "uint256[]"
        },
        {
          "internalType": "bytes[]",
          "name": "calldatas",
          "type": "bytes[]"
        },
        {
          "internalType": "string",
          "name": "description",
          "type": "string"
        }
      ],
      "name": "propose",
      "outputs": [
        {
          "internalType": "uint256",
          "name": "",
          "type": "uint256"
        }
      ],
      "stateMutability": "nonpayable",
      "type": "function"
    },
    {
      "inputs": [
        {
          "internalType": "uint256",
          "name": "blockNumber",
          "type": "uint256"
        }
      ],
      "name": "quorum",
      "outputs": [
        {
          "internalType": "uint256",
          "name": "",
          "type": "uint256"
        }
      ],
      "stateMutability": "view",
      "type": "function"
    },
    {
      "inputs": [],
      "name": "quorumDenominator",
      "outputs": [
        {
          "internalType": "uint256",
          "name": "",
          "type": "uint256"
        }
      ],
      "stateMutability": "view",
      "type": "function"
    },
    {
      "inputs": [],
      "name": "quorumNumerator",
      "outputs": [
        {
          "internalType": "uint256",
          "name": "",
          "type": "uint256"
        }
      ],
      "stateMutability": "view",
      "type": "function"
    },
    {
      "inputs": [
        {
          "internalType": "uint256",
          "name": "newProposalThreshold",
          "type": "uint256"
        }
      ],
      "name": "setProposalThreshold",
      "outputs": [],
      "stateMutability": "nonpayable",
      "type": "function"
    },
    {
      "inputs": [
        {
          "internalType": "uint256",
          "name": "newVotingDelay",
          "type": "uint256"
        }
      ],
      "name": "setVotingDelay",
      "outputs": [],
      "stateMutability": "nonpayable",
      "type": "function"
    },
    {
      "inputs": [
        {
          "internalType": "uint256",
          "name": "newVotingPeriod",
          "type": "uint256"
        }
      ],
      "name": "setVotingPeriod",
      "outputs": [],
      "stateMutability": "nonpayable",
      "type": "function"
    },
    {
      "inputs": [
        {
          "internalType": "uint256",
          "name": "proposalId",
          "type": "uint256"
        }
      ],
      "name": "state",
      "outputs": [
        {
          "internalType": "enum IGovernor.ProposalState",
          "name": "",
          "type": "uint8"
        }
      ],
      "stateMutability": "view",
      "type": "function"
    },
    {
      "inputs": [
        {
          "internalType": "bytes4",
          "name": "interfaceId",
          "type": "bytes4"
        }
      ],
      "name": "supportsInterface",
      "outputs": [
        {
          "internalType": "bool",
          "name": "",
          "type": "bool"
        }
      ],
      "stateMutability": "view",
      "type": "function"
    },
    {
      "inputs": [],
      "name": "token",
      "outputs": [
        {
          "internalType": "contract ERC20Votes",
          "name": "",
          "type": "address"
        }
      ],
      "stateMutability": "view",
      "type": "function"
    },
    {
      "inputs": [
        {
          "internalType": "uint256",
          "name": "newQuorumNumerator",
          "type": "uint256"
        }
      ],
      "name": "updateQuorumNumerator",
      "outputs": [],
      "stateMutability": "nonpayable",
      "type": "function"
    },
    {
      "inputs": [],
      "name": "version",
      "outputs": [
        {
          "internalType": "string",
          "name": "",
          "type": "string"
        }
      ],
      "stateMutability": "view",
      "type": "function"
    },
    {
      "inputs": [],
      "name": "votingDelay",
      "outputs": [
        {
          "internalType": "uint256",
          "name": "",
          "type": "uint256"
        }
      ],
      "stateMutability": "view",
      "type": "function"
    },
    {
      "inputs": [],
      "name": "votingPeriod",
      "outputs": [
        {
          "internalType": "uint256",
          "name": "",
          "type": "uint256"
        }
      ],
      "stateMutability": "view",
      "type": "function"
    },
    {
      "stateMutability": "payable",
      "type": "receive"
    }
  ],
  "bytecode": "0x6101606040523480156200001257600080fd5b5060405162005053380380620050538339818101604052810190620000389190620006e5565b808484846000898062000050620001a560201b60201c565b60008280519060200120905060008280519060200120905060007f8b73c3c69bb8fe3d512ecc4cf759cc79239f7b179b0ffacaa9a75d522b39400f90508260e081815250508161010081815250504660a08181525050620000b9818484620001e260201b60201c565b608081815250503073ffffffffffffffffffffffffffffffffffffffff1660c08173ffffffffffffffffffffffffffffffffffffffff1681525050806101208181525050505050505080600090805190602001906200011a929190620003e4565b50506200012d836200021e60201b60201c565b6200013e826200026560201b60201c565b6200014f81620002f260201b60201c565b5050508073ffffffffffffffffffffffffffffffffffffffff166101408173ffffffffffffffffffffffffffffffffffffffff16815250505062000199816200033960201b60201c565b50505050505062000a1f565b60606040518060400160405280600181526020017f3100000000000000000000000000000000000000000000000000000000000000815250905090565b60008383834630604051602001620001ff959493929190620007c9565b6040516020818303038152906040528051906020012090509392505050565b7fc565b045403dc03c2eea82b81a0465edad9e2e7fc4d97e11421c209da93d7a93600254826040516200025392919062000826565b60405180910390a18060028190555050565b60008111620002ab576040517f08c379a0000000000000000000000000000000000000000000000000000000008152600401620002a290620008da565b60405180910390fd5b7f7e3f7f0708a84de9203036abaa450dccc85ad5ff52f78c170f3edb55cf5e882860035482604051620002e092919062000826565b60405180910390a18060038190555050565b7fccb45da8d5717e6c4544694297c4ba5cf151d455c9bb0ed4fc7a38411bc05461600454826040516200032792919062000826565b60405180910390a18060048190555050565b62000349620003db60201b60201c565b8111156200038e576040517f08c379a0000000000000000000000000000000000000000000000000000000008152600401620003859062000998565b60405180910390fd5b60006005549050816005819055507f0553476bf02ef2726e8ce5ced78d63e26e602e4a2257b1f559418e24b46339978183604051620003cf92919062000826565b60405180910390a15050565b60006064905090565b828054620003f290620009e9565b90600052602060002090601f01602090048101928262000416576000855562000462565b82601f106200043157805160ff191683800117855562000462565b8280016001018555821562000462579182015b828111156200046157825182559160200191906001019062000444565b5b50905062000471919062000475565b5090565b5b808211156200049057600081600090555060010162000476565b5090565b6000604051905090565b600080fd5b600080fd5b600080fd5b600080fd5b6000601f19601f8301169050919050565b7f4e487b7100000000000000000000000000000000000000000000000000000000600052604160045260246000fd5b620004fd82620004b2565b810181811067ffffffffffffffff821117156200051f576200051e620004c3565b5b80604052505050565b60006200053462000494565b9050620005428282620004f2565b919050565b600067ffffffffffffffff821115620005655762000564620004c3565b5b6200057082620004b2565b9050602081019050919050565b60005b838110156200059d57808201518184015260208101905062000580565b83811115620005ad576000848401525b50505050565b6000620005ca620005c48462000547565b62000528565b905082815260208101848484011115620005e957620005e8620004ad565b5b620005f68482856200057d565b509392505050565b600082601f830112620006165762000615620004a8565b5b815162000628848260208601620005b3565b91505092915050565b600073ffffffffffffffffffffffffffffffffffffffff82169050919050565b60006200065e8262000631565b9050919050565b6000620006728262000651565b9050919050565b620006848162000665565b81146200069057600080fd5b50565b600081519050620006a48162000679565b92915050565b6000819050919050565b620006bf81620006aa565b8114620006cb57600080fd5b50565b600081519050620006df81620006b4565b92915050565b600080600080600060a086880312156200070457620007036200049e565b5b600086015167ffffffffffffffff811115620007255762000724620004a3565b5b6200073388828901620005fe565b9550506020620007468882890162000693565b94505060406200075988828901620006ce565b93505060606200076c88828901620006ce565b92505060806200077f88828901620006ce565b9150509295509295909350565b6000819050919050565b620007a1816200078c565b82525050565b620007b281620006aa565b82525050565b620007c38162000651565b82525050565b600060a082019050620007e0600083018862000796565b620007ef602083018762000796565b620007fe604083018662000796565b6200080d6060830185620007a7565b6200081c6080830184620007b8565b9695505050505050565b60006040820190506200083d6000830185620007a7565b6200084c6020830184620007a7565b9392505050565b600082825260208201905092915050565b7f476f7665726e6f7253657474696e67733a20766f74696e6720706572696f642060008201527f746f6f206c6f7700000000000000000000000000000000000000000000000000602082015250565b6000620008c260278362000853565b9150620008cf8262000864565b604082019050919050565b60006020820190508181036000830152620008f581620008b3565b9050919050565b7f476f7665726e6f72566f74657351756f72756d4672616374696f6e3a2071756f60008201527f72756d4e756d657261746f72206f7665722071756f72756d44656e6f6d696e6160208201527f746f720000000000000000000000000000000000000000000000000000000000604082015250565b60006200098060438362000853565b91506200098d82620008fc565b606082019050919050565b60006020820190508181036000830152620009b38162000971565b9050919050565b7f4e487b7100000000000000000000000000000000000000000000000000000000600052602260045260246000fd5b6000600282049050600182168062000a0257607f821691505b6020821081141562000a195762000a18620009ba565b5b50919050565b60805160a05160c05160e0516101005161012051610140516145cb62000a8860003960008181611239015281816112fd01526119c601526000611bd101526000611c1301526000611bf201526000611b2701526000611b7d01526000611ba601526145cb6000f3fe6080604052600436106101c65760003560e01c806370b0f660116100f7578063c59057e411610095578063eb9019d411610064578063eb9019d41461071d578063ece40cc11461075a578063f8ce560a14610783578063fc0c546a146107c05761020c565b8063c59057e414610661578063dd4e2ba51461069e578063deaaa7cc146106c9578063ea0217cf146106f45761020c565b806397c3d334116100d157806397c3d334146105a3578063a7713a70146105ce578063b58131b0146105f9578063c01f9e37146106245761020c565b806370b0f660146105005780637b3c71d3146105295780637d5e81e2146105665761020c565b80633bccf4fd11610164578063452115d61161013e578063452115d61461041c578063544ffc9c1461045957806354fd4d501461049857806356781388146104c35761020c565b80633bccf4fd146103655780633e4f49e6146103a257806343859632146103df5761020c565b806306fdde03116101a057806306fdde03146102a25780632656227d146102cd5780632d63f693146102fd5780633932abb11461033a5761020c565b806301ffc9a71461021157806302a251a31461024e57806306f3f9e6146102795761020c565b3661020c573073ffffffffffffffffffffffffffffffffffffffff166101ea6107eb565b73ffffffffffffffffffffffffffffffffffffffff161461020a57600080fd5b005b600080fd5b34801561021d57600080fd5b50610238600480360381019061023391906125b8565b6107f3565b6040516102459190612600565b60405180910390f35b34801561025a57600080fd5b5061026361086d565b6040516102709190612634565b60405180910390f35b34801561028557600080fd5b506102a0600480360381019061029b919061267b565b610877565b005b3480156102ae57600080fd5b506102b76108ff565b6040516102c49190612741565b60405180910390f35b6102e760048036038101906102e29190612b98565b610991565b6040516102f49190612634565b60405180910390f35b34801561030957600080fd5b50610324600480360381019061031f919061267b565b610ac4565b6040516103319190612634565b60405180910390f35b34801561034657600080fd5b5061034f610b32565b60405161035c9190612634565b60405180910390f35b34801561037157600080fd5b5061038c60048036038101906103879190612c8c565b610b3c565b6040516103999190612634565b60405180910390f35b3480156103ae57600080fd5b506103c960048036038101906103c4919061267b565b610bc6565b6040516103d69190612d7e565b60405180910390f35b3480156103eb57600080fd5b5061040660048036038101906104019190612d99565b610da3565b6040516104139190612600565b60405180910390f35b34801561042857600080fd5b50610443600480360381019061043e9190612b98565b610e0e565b6040516104509190612634565b60405180910390f35b34801561046557600080fd5b50610480600480360381019061047b919061267b565b610e26565b60405161048f93929190612dd9565b60405180910390f35b3480156104a457600080fd5b506104ad610e5e565b6040516104ba9190612741565b60405180910390f35b3480156104cf57600080fd5b506104ea60048036038101906104e59190612e10565b610e9b565b6040516104f79190612634565b60405180910390f35b34801561050c57600080fd5b506105276004803603810190610522919061267b565b610ecc565b005b34801561053557600080fd5b50610550600480360381019061054b9190612eab565b610f54565b60405161055d9190612634565b60405180910390f35b34801561057257600080fd5b5061058d60048036038101906105889190612fc0565b610fbc565b60405161059a9190612634565b60405180910390f35b3480156105af57600080fd5b506105b8610fd4565b6040516105c59190612634565b60405180910390f35b3480156105da57600080fd5b506105e3610fdd565b6040516105f09190612634565b60405180910390f35b34801561060557600080fd5b5061060e610fe7565b60405161061b9190612634565b60405180910390f35b34801561063057600080fd5b5061064b6004803603810190610646919061267b565b610ff6565b6040516106589190612634565b60405180910390f35b34801561066d57600080fd5b5061068860048036038101906106839190612b98565b611064565b6040516106959190612634565b60405180910390f35b3480156106aa57600080fd5b506106b36110a0565b6040516106c09190612741565b60405180910390f35b3480156106d557600080fd5b506106de6110dd565b6040516106eb91906130a6565b60405180910390f35b34801561070057600080fd5b5061071b6004803603810190610716919061267b565b611101565b005b34801561072957600080fd5b50610744600480360381019061073f91906130c1565b611189565b6040516107519190612634565b60405180910390f35b34801561076657600080fd5b50610781600480360381019061077c919061267b565b61119d565b005b34801561078f57600080fd5b506107aa60048036038101906107a5919061267b565b611225565b6040516107b79190612634565b60405180910390f35b3480156107cc57600080fd5b506107d56112fb565b6040516107e29190613160565b60405180910390f35b600030905090565b60007fbf26d897000000000000000000000000000000000000000000000000000000007bffffffffffffffffffffffffffffffffffffffffffffffffffffffff1916827bffffffffffffffffffffffffffffffffffffffffffffffffffffffff1916148061086657506108658261131f565b5b9050919050565b6000600354905090565b61087f6107eb565b73ffffffffffffffffffffffffffffffffffffffff1661089d611389565b73ffffffffffffffffffffffffffffffffffffffff16146108f3576040517f08c379a00000000000000000000000000000000000000000000000000000000081526004016108ea906131c7565b60405180910390fd5b6108fc81611391565b50565b60606000805461090e90613216565b80601f016020809104026020016040519081016040528092919081815260200182805461093a90613216565b80156109875780601f1061095c57610100808354040283529160200191610987565b820191906000526020600020905b81548152906001019060200180831161096a57829003601f168201915b5050505050905090565b6000806109a086868686611064565b905060006109ad82610bc6565b9050600460078111156109c3576109c2612d07565b5b8160078111156109d6576109d5612d07565b5b1480610a065750600560078111156109f1576109f0612d07565b5b816007811115610a0457610a03612d07565b5b145b610a45576040517f08c379a0000000000000000000000000000000000000000000000000000000008152600401610a3c906132ba565b60405180910390fd5b600180600084815260200190815260200160002060020160006101000a81548160ff0219169083151502179055507f712ae1383f79ac853f8d882153778e0260ef8f03b504e2866e0593e04d2b291f82604051610aa29190612634565b60405180910390a1610ab78288888888611426565b8192505050949350505050565b6000610b21600160008481526020019081526020016000206000016040518060200160405290816000820160009054906101000a900467ffffffffffffffff1667ffffffffffffffff1667ffffffffffffffff1681525050611535565b67ffffffffffffffff169050919050565b6000600254905090565b600080610b9d610b957f150214d74d59b7d1e90c73fc22ef3d991dd0a76b046543d4d80ab92d2a50328f8989604051602001610b7a939291906132e9565b60405160208183030381529060405280519060200120611543565b86868661155d565b9050610bba87828860405180602001604052806000815250611588565b91505095945050505050565b60008060016000848152602001908152602001600020604051806080016040529081600082016040518060200160405290816000820160009054906101000a900467ffffffffffffffff1667ffffffffffffffff1667ffffffffffffffff16815250508152602001600182016040518060200160405290816000820160009054906101000a900467ffffffffffffffff1667ffffffffffffffff1667ffffffffffffffff168152505081526020016002820160009054906101000a900460ff161515151581526020016002820160019054906101000a900460ff1615151515815250509050806040015115610cbf576007915050610d9e565b806060015115610cd3576002915050610d9e565b43610ce18260000151611535565b67ffffffffffffffff1610610cfa576000915050610d9e565b43610d088260200151611535565b67ffffffffffffffff1610610d21576001915050610d9e565b610d2e81602001516116dc565b15610d6357610d3c83611708565b8015610d4d5750610d4c8361174f565b5b610d58576003610d5b565b60045b915050610d9e565b6040517f08c379a0000000000000000000000000000000000000000000000000000000008152600401610d959061336c565b60405180910390fd5b919050565b60006006600084815260200190815260200160002060030160008373ffffffffffffffffffffffffffffffffffffffff1673ffffffffffffffffffffffffffffffffffffffff16815260200190815260200160002060009054906101000a900460ff16905092915050565b6000610e1c8585858561177a565b9050949350505050565b600080600080600660008681526020019081526020016000209050806000015481600101548260020154935093509350509193909250565b60606040518060400160405280600181526020017f3100000000000000000000000000000000000000000000000000000000000000815250905090565b600080610ea6611389565b9050610ec384828560405180602001604052806000815250611588565b91505092915050565b610ed46107eb565b73ffffffffffffffffffffffffffffffffffffffff16610ef2611389565b73ffffffffffffffffffffffffffffffffffffffff1614610f48576040517f08c379a0000000000000000000000000000000000000000000000000000000008152600401610f3f906131c7565b60405180910390fd5b610f51816118d3565b50565b600080610f5f611389565b9050610fb186828787878080601f016020809104026020016040519081016040528093929190818152602001838380828437600081840152601f19601f82011690508083019250505050505050611588565b915050949350505050565b6000610fca85858585611918565b9050949350505050565b60006064905090565b6000600554905090565b6000610ff1611930565b905090565b6000611053600160008481526020019081526020016000206001016040518060200160405290816000820160009054906101000a900467ffffffffffffffff1667ffffffffffffffff1667ffffffffffffffff1681525050611535565b67ffffffffffffffff169050919050565b60008484848460405160200161107d949392919061361f565b6040516020818303038152906040528051906020012060001c9050949350505050565b60606040518060400160405280602081526020017f737570706f72743d627261766f2671756f72756d3d666f722c6162737461696e815250905090565b7f150214d74d59b7d1e90c73fc22ef3d991dd0a76b046543d4d80ab92d2a50328f81565b6111096107eb565b73ffffffffffffffffffffffffffffffffffffffff16611127611389565b73ffffffffffffffffffffffffffffffffffffffff161461117d576040517f08c379a0000000000000000000000000000000000000000000000000000000008152600401611174906131c7565b60405180910390fd5b6111868161193a565b50565b600061119583836119c2565b905092915050565b6111a56107eb565b73ffffffffffffffffffffffffffffffffffffffff166111c3611389565b73ffffffffffffffffffffffffffffffffffffffff1614611219576040517f08c379a0000000000000000000000000000000000000000000000000000000008152600401611210906131c7565b60405180910390fd5b61122281611a77565b50565b600061122f610fd4565b611237610fdd565b7f000000000000000000000000000000000000000000000000000000000000000073ffffffffffffffffffffffffffffffffffffffff16638e539e8c856040518263ffffffff1660e01b81526004016112909190612634565b60206040518083038186803b1580156112a857600080fd5b505afa1580156112bc573d6000803e3d6000fd5b505050506040513d601f19601f820116820180604052508101906112e0919061368e565b6112ea91906136ea565b6112f49190613773565b9050919050565b7f000000000000000000000000000000000000000000000000000000000000000081565b60007f01ffc9a7000000000000000000000000000000000000000000000000000000007bffffffffffffffffffffffffffffffffffffffffffffffffffffffff1916827bffffffffffffffffffffffffffffffffffffffffffffffffffffffff1916149050919050565b600033905090565b611399610fd4565b8111156113db576040517f08c379a00000000000000000000000000000000000000000000000000000000081526004016113d29061383c565b60405180910390fd5b60006005549050816005819055507f0553476bf02ef2726e8ce5ced78d63e26e602e4a2257b1f559418e24b4633997818360405161141a92919061385c565b60405180910390a15050565b600060405180606001604052806027815260200161456f60279139905060005b855181101561152c5760008087838151811061146557611464613885565b5b602002602001015173ffffffffffffffffffffffffffffffffffffffff1687848151811061149657611495613885565b5b60200260200101518785815181106114b1576114b0613885565b5b60200260200101516040516114c691906138f0565b60006040518083038185875af1925050503d8060008114611503576040519150601f19603f3d011682016040523d82523d6000602084013e611508565b606091505b5091509150611518828286611abc565b5050508061152590613907565b9050611446565b50505050505050565b600081600001519050919050565b6000611556611550611b23565b83611c3d565b9050919050565b600080600061156e87878787611c70565b9150915061157b81611d7d565b8192505050949350505050565b600080600160008781526020019081526020016000209050600160078111156115b4576115b3612d07565b5b6115bd87610bc6565b60078111156115cf576115ce612d07565b5b1461160f576040517f08c379a0000000000000000000000000000000000000000000000000000000008152600401611606906139c2565b60405180910390fd5b600061166d8661165e846000016040518060200160405290816000820160009054906101000a900467ffffffffffffffff1667ffffffffffffffff1667ffffffffffffffff1681525050611535565b67ffffffffffffffff16611189565b905061167b87878784611f52565b8573ffffffffffffffffffffffffffffffffffffffff167fb8e138887d0aa13bab447e82de9d5c1777041ecd21ca36ba824ff1e6c07ddda4888784886040516116c794939291906139e2565b60405180910390a28092505050949350505050565b60006116e782612158565b8015611701575043826000015167ffffffffffffffff1611155b9050919050565b600080600660008481526020019081526020016000209050806002015481600101546117349190613a2e565b61174561174085610ac4565b611225565b1115915050919050565b6000806006600084815260200190815260200160002090508060000154816001015411915050919050565b60008061178986868686611064565b9050600061179682610bc6565b9050600260078111156117ac576117ab612d07565b5b8160078111156117bf576117be612d07565b5b141580156117f25750600660078111156117dc576117db612d07565b5b8160078111156117ef576117ee612d07565b5b14155b8015611822575060078081111561180c5761180b612d07565b5b81600781111561181f5761181e612d07565b5b14155b611861576040517f08c379a000000000000000000000000000000000000000000000000000000000815260040161185890613ad0565b60405180910390fd5b600180600084815260200190815260200160002060020160016101000a81548160ff0219169083151502179055507f789cf55be980739dad1d0699b93b58e806b51c9d96619bfa8fe0a28abaa7b30c826040516118be9190612634565b60405180910390a18192505050949350505050565b7fc565b045403dc03c2eea82b81a0465edad9e2e7fc4d97e11421c209da93d7a936002548260405161190692919061385c565b60405180910390a18060028190555050565b600061192685858585612172565b9050949350505050565b6000600454905090565b6000811161197d576040517f08c379a000000000000000000000000000000000000000000000000000000000815260040161197490613b62565b60405180910390fd5b7f7e3f7f0708a84de9203036abaa450dccc85ad5ff52f78c170f3edb55cf5e8828600354826040516119b092919061385c565b60405180910390a18060038190555050565b60007f000000000000000000000000000000000000000000000000000000000000000073ffffffffffffffffffffffffffffffffffffffff16633a46b1a884846040518363ffffffff1660e01b8152600401611a1f929190613b91565b60206040518083038186803b158015611a3757600080fd5b505afa158015611a4b573d6000803e3d6000fd5b505050506040513d601f19601f82011682018060405250810190611a6f919061368e565b905092915050565b7fccb45da8d5717e6c4544694297c4ba5cf151d455c9bb0ed4fc7a38411bc0546160045482604051611aaa92919061385c565b60405180910390a18060048190555050565b60608315611acc57829050611b1c565b600083511115611adf5782518084602001fd5b816040517f08c379a0000000000000000000000000000000000000000000000000000000008152600401611b139190612741565b60405180910390fd5b9392505050565b60007f000000000000000000000000000000000000000000000000000000000000000073ffffffffffffffffffffffffffffffffffffffff163073ffffffffffffffffffffffffffffffffffffffff16148015611b9f57507f000000000000000000000000000000000000000000000000000000000000000046145b15611bcc577f00000000000000000000000000000000000000000000000000000000000000009050611c3a565b611c377f00000000000000000000000000000000000000000000000000000000000000007f00000000000000000000000000000000000000000000000000000000000000007f0000000000000000000000000000000000000000000000000000000000000000612472565b90505b90565b60008282604051602001611c52929190613c32565b60405160208183030381529060405280519060200120905092915050565b6000807f7fffffffffffffffffffffffffffffff5d576e7357a4501ddfe92f46681b20a08360001c1115611cab576000600391509150611d74565b601b8560ff1614158015611cc35750601c8560ff1614155b15611cd5576000600491509150611d74565b600060018787878760405160008152602001604052604051611cfa9493929190613c69565b6020604051602081039080840390855afa158015611d1c573d6000803e3d6000fd5b505050602060405103519050600073ffffffffffffffffffffffffffffffffffffffff168173ffffffffffffffffffffffffffffffffffffffff161415611d6b57600060019250925050611d74565b80600092509250505b94509492505050565b60006004811115611d9157611d90612d07565b5b816004811115611da457611da3612d07565b5b1415611daf57611f4f565b60016004811115611dc357611dc2612d07565b5b816004811115611dd657611dd5612d07565b5b1415611e17576040517f08c379a0000000000000000000000000000000000000000000000000000000008152600401611e0e90613cfa565b60405180910390fd5b60026004811115611e2b57611e2a612d07565b5b816004811115611e3e57611e3d612d07565b5b1415611e7f576040517f08c379a0000000000000000000000000000000000000000000000000000000008152600401611e7690613d66565b60405180910390fd5b60036004811115611e9357611e92612d07565b5b816004811115611ea657611ea5612d07565b5b1415611ee7576040517f08c379a0000000000000000000000000000000000000000000000000000000008152600401611ede90613df8565b60405180910390fd5b600480811115611efa57611ef9612d07565b5b816004811115611f0d57611f0c612d07565b5b1415611f4e576040517f08c379a0000000000000000000000000000000000000000000000000000000008152600401611f4590613e8a565b60405180910390fd5b5b50565b60006006600086815260200190815260200160002090508060030160008573ffffffffffffffffffffffffffffffffffffffff1673ffffffffffffffffffffffffffffffffffffffff16815260200190815260200160002060009054906101000a900460ff1615611ff8576040517f08c379a0000000000000000000000000000000000000000000000000000000008152600401611fef90613f1c565b60405180910390fd5b60018160030160008673ffffffffffffffffffffffffffffffffffffffff1673ffffffffffffffffffffffffffffffffffffffff16815260200190815260200160002060006101000a81548160ff0219169083151502179055506000600281111561206657612065612d07565b5b60ff168360ff16141561209357818160000160008282546120879190613a2e565b92505081905550612151565b600160028111156120a7576120a6612d07565b5b60ff168360ff1614156120d457818160010160008282546120c89190613a2e565b92505081905550612150565b6002808111156120e7576120e6612d07565b5b60ff168360ff16141561211457818160020160008282546121089190613a2e565b9250508190555061214f565b6040517f08c379a000000000000000000000000000000000000000000000000000000000815260040161214690613fae565b60405180910390fd5b5b5b5050505050565b600080826000015167ffffffffffffffff16119050919050565b600061217c610fe7565b6121923360014361218d9190613fce565b611189565b10156121d3576040517f08c379a00000000000000000000000000000000000000000000000000000000081526004016121ca9061409a565b60405180910390fd5b60006121e88686868680519060200120611064565b9050845186511461222e576040517f08c379a00000000000000000000000000000000000000000000000000000000081526004016122259061412c565b60405180910390fd5b8351865114612272576040517f08c379a00000000000000000000000000000000000000000000000000000000081526004016122699061412c565b60405180910390fd5b60008651116122b6576040517f08c379a00000000000000000000000000000000000000000000000000000000081526004016122ad90614198565b60405180910390fd5b6000600160008381526020019081526020016000209050612316816000016040518060200160405290816000820160009054906101000a900467ffffffffffffffff1667ffffffffffffffff1667ffffffffffffffff16815250506124ac565b612355576040517f08c379a000000000000000000000000000000000000000000000000000000000815260040161234c9061422a565b60405180910390fd5b6000612367612362610b32565b6124c6565b612370436124c6565b61237a919061425e565b9050600061238e61238961086d565b6124c6565b82612399919061425e565b90506123b1828460000161251d90919063ffffffff16565b6123c7818460010161251d90919063ffffffff16565b7f7d84a6263ae0d98d3329bd7b46bb4e8d6f98cd35a7adb45c274c8b7fd5ebd5e0846123f1611389565b8b8b8d5167ffffffffffffffff81111561240e5761240d612768565b5b60405190808252806020026020018201604052801561244157816020015b606081526020019060019003908161242c5790505b508c88888e60405161245b999897969594939291906143d9565b60405180910390a183945050505050949350505050565b6000838383463060405160200161248d959493929190614489565b6040516020818303038152906040528051906020012090509392505050565b600080826000015167ffffffffffffffff16149050919050565b600067ffffffffffffffff8016821115612515576040517f08c379a000000000000000000000000000000000000000000000000000000000815260040161250c9061454e565b60405180910390fd5b819050919050565b808260000160006101000a81548167ffffffffffffffff021916908367ffffffffffffffff1602179055505050565b6000604051905090565b600080fd5b600080fd5b60007fffffffff0000000000000000000000000000000000000000000000000000000082169050919050565b61259581612560565b81146125a057600080fd5b50565b6000813590506125b28161258c565b92915050565b6000602082840312156125ce576125cd612556565b5b60006125dc848285016125a3565b91505092915050565b60008115159050919050565b6125fa816125e5565b82525050565b600060208201905061261560008301846125f1565b92915050565b6000819050919050565b61262e8161261b565b82525050565b60006020820190506126496000830184612625565b92915050565b6126588161261b565b811461266357600080fd5b50565b6000813590506126758161264f565b92915050565b60006020828403121561269157612690612556565b5b600061269f84828501612666565b91505092915050565b600081519050919050565b600082825260208201905092915050565b60005b838110156126e25780820151818401526020810190506126c7565b838111156126f1576000848401525b50505050565b6000601f19601f8301169050919050565b6000612713826126a8565b61271d81856126b3565b935061272d8185602086016126c4565b612736816126f7565b840191505092915050565b6000602082019050818103600083015261275b8184612708565b905092915050565b600080fd5b7f4e487b7100000000000000000000000000000000000000000000000000000000600052604160045260246000fd5b6127a0826126f7565b810181811067ffffffffffffffff821117156127bf576127be612768565b5b80604052505050565b60006127d261254c565b90506127de8282612797565b919050565b600067ffffffffffffffff8211156127fe576127fd612768565b5b602082029050602081019050919050565b600080fd5b600073ffffffffffffffffffffffffffffffffffffffff82169050919050565b600061283f82612814565b9050919050565b61284f81612834565b811461285a57600080fd5b50565b60008135905061286c81612846565b92915050565b6000612885612880846127e3565b6127c8565b905080838252602082019050602084028301858111156128a8576128a761280f565b5b835b818110156128d157806128bd888261285d565b8452602084019350506020810190506128aa565b5050509392505050565b600082601f8301126128f0576128ef612763565b5b8135612900848260208601612872565b91505092915050565b600067ffffffffffffffff82111561292457612923612768565b5b602082029050602081019050919050565b600061294861294384612909565b6127c8565b9050808382526020820190506020840283018581111561296b5761296a61280f565b5b835b8181101561299457806129808882612666565b84526020840193505060208101905061296d565b5050509392505050565b600082601f8301126129b3576129b2612763565b5b81356129c3848260208601612935565b91505092915050565b600067ffffffffffffffff8211156129e7576129e6612768565b5b602082029050602081019050919050565b600080fd5b600067ffffffffffffffff821115612a1857612a17612768565b5b612a21826126f7565b9050602081019050919050565b82818337600083830152505050565b6000612a50612a4b846129fd565b6127c8565b905082815260208101848484011115612a6c57612a6b6129f8565b5b612a77848285612a2e565b509392505050565b600082601f830112612a9457612a93612763565b5b8135612aa4848260208601612a3d565b91505092915050565b6000612ac0612abb846129cc565b6127c8565b90508083825260208201905060208402830185811115612ae357612ae261280f565b5b835b81811015612b2a57803567ffffffffffffffff811115612b0857612b07612763565b5b808601612b158982612a7f565b85526020850194505050602081019050612ae5565b5050509392505050565b600082601f830112612b4957612b48612763565b5b8135612b59848260208601612aad565b91505092915050565b6000819050919050565b612b7581612b62565b8114612b8057600080fd5b50565b600081359050612b9281612b6c565b92915050565b60008060008060808587031215612bb257612bb1612556565b5b600085013567ffffffffffffffff811115612bd057612bcf61255b565b5b612bdc878288016128db565b945050602085013567ffffffffffffffff811115612bfd57612bfc61255b565b5b612c098782880161299e565b935050604085013567ffffffffffffffff811115612c2a57612c2961255b565b5b612c3687828801612b34565b9250506060612c4787828801612b83565b91505092959194509250565b600060ff82169050919050565b612c6981612c53565b8114612c7457600080fd5b50565b600081359050612c8681612c60565b92915050565b600080600080600060a08688031215612ca857612ca7612556565b5b6000612cb688828901612666565b9550506020612cc788828901612c77565b9450506040612cd888828901612c77565b9350506060612ce988828901612b83565b9250506080612cfa88828901612b83565b9150509295509295909350565b7f4e487b7100000000000000000000000000000000000000000000000000000000600052602160045260246000fd5b60088110612d4757612d46612d07565b5b50565b6000819050612d5882612d36565b919050565b6000612d6882612d4a565b9050919050565b612d7881612d5d565b82525050565b6000602082019050612d936000830184612d6f565b92915050565b60008060408385031215612db057612daf612556565b5b6000612dbe85828601612666565b9250506020612dcf8582860161285d565b9150509250929050565b6000606082019050612dee6000830186612625565b612dfb6020830185612625565b612e086040830184612625565b949350505050565b60008060408385031215612e2757612e26612556565b5b6000612e3585828601612666565b9250506020612e4685828601612c77565b9150509250929050565b600080fd5b60008083601f840112612e6b57612e6a612763565b5b8235905067ffffffffffffffff811115612e8857612e87612e50565b5b602083019150836001820283011115612ea457612ea361280f565b5b9250929050565b60008060008060608587031215612ec557612ec4612556565b5b6000612ed387828801612666565b9450506020612ee487828801612c77565b935050604085013567ffffffffffffffff811115612f0557612f0461255b565b5b612f1187828801612e55565b925092505092959194509250565b600067ffffffffffffffff821115612f3a57612f39612768565b5b612f43826126f7565b9050602081019050919050565b6000612f63612f5e84612f1f565b6127c8565b905082815260208101848484011115612f7f57612f7e6129f8565b5b612f8a848285612a2e565b509392505050565b600082601f830112612fa757612fa6612763565b5b8135612fb7848260208601612f50565b91505092915050565b60008060008060808587031215612fda57612fd9612556565b5b600085013567ffffffffffffffff811115612ff857612ff761255b565b5b613004878288016128db565b945050602085013567ffffffffffffffff8111156130255761302461255b565b5b6130318782880161299e565b935050604085013567ffffffffffffffff8111156130525761305161255b565b5b61305e87828801612b34565b925050606085013567ffffffffffffffff81111561307f5761307e61255b565b5b61308b87828801612f92565b91505092959194509250565b6130a081612b62565b82525050565b60006020820190506130bb6000830184613097565b92915050565b600080604083850312156130d8576130d7612556565b5b60006130e68582860161285d565b92505060206130f785828601612666565b9150509250929050565b6000819050919050565b600061312661312161311c84612814565b613101565b612814565b9050919050565b60006131388261310b565b9050919050565b600061314a8261312d565b9050919050565b61315a8161313f565b82525050565b60006020820190506131756000830184613151565b92915050565b7f476f7665726e6f723a206f6e6c79476f7665726e616e63650000000000000000600082015250565b60006131b16018836126b3565b91506131bc8261317b565b602082019050919050565b600060208201905081810360008301526131e0816131a4565b9050919050565b7f4e487b7100000000000000000000000000000000000000000000000000000000600052602260045260246000fd5b6000600282049050600182168061322e57607f821691505b60208210811415613242576132416131e7565b5b50919050565b7f476f7665726e6f723a2070726f706f73616c206e6f742073756363657373667560008201527f6c00000000000000000000000000000000000000000000000000000000000000602082015250565b60006132a46021836126b3565b91506132af82613248565b604082019050919050565b600060208201905081810360008301526132d381613297565b9050919050565b6132e381612c53565b82525050565b60006060820190506132fe6000830186613097565b61330b6020830185612625565b61331860408301846132da565b949350505050565b7f476f7665726e6f723a20756e6b6e6f776e2070726f706f73616c206964000000600082015250565b6000613356601d836126b3565b915061336182613320565b602082019050919050565b6000602082019050818103600083015261338581613349565b9050919050565b600081519050919050565b600082825260208201905092915050565b6000819050602082019050919050565b6133c181612834565b82525050565b60006133d383836133b8565b60208301905092915050565b6000602082019050919050565b60006133f78261338c565b6134018185613397565b935061340c836133a8565b8060005b8381101561343d57815161342488826133c7565b975061342f836133df565b925050600181019050613410565b5085935050505092915050565b600081519050919050565b600082825260208201905092915050565b6000819050602082019050919050565b61347f8161261b565b82525050565b60006134918383613476565b60208301905092915050565b6000602082019050919050565b60006134b58261344a565b6134bf8185613455565b93506134ca83613466565b8060005b838110156134fb5781516134e28882613485565b97506134ed8361349d565b9250506001810190506134ce565b5085935050505092915050565b600081519050919050565b600082825260208201905092915050565b6000819050602082019050919050565b600081519050919050565b600082825260208201905092915050565b600061355b82613534565b613565818561353f565b93506135758185602086016126c4565b61357e816126f7565b840191505092915050565b60006135958383613550565b905092915050565b6000602082019050919050565b60006135b582613508565b6135bf8185613513565b9350836020820285016135d185613524565b8060005b8581101561360d57848403895281516135ee8582613589565b94506135f98361359d565b925060208a019950506001810190506135d5565b50829750879550505050505092915050565b6000608082019050818103600083015261363981876133ec565b9050818103602083015261364d81866134aa565b9050818103604083015261366181856135aa565b90506136706060830184613097565b95945050505050565b6000815190506136888161264f565b92915050565b6000602082840312156136a4576136a3612556565b5b60006136b284828501613679565b91505092915050565b7f4e487b7100000000000000000000000000000000000000000000000000000000600052601160045260246000fd5b60006136f58261261b565b91506137008361261b565b9250817fffffffffffffffffffffffffffffffffffffffffffffffffffffffffffffffff0483118215151615613739576137386136bb565b5b828202905092915050565b7f4e487b7100000000000000000000000000000000000000000000000000000000600052601260045260246000fd5b600061377e8261261b565b91506137898361261b565b92508261379957613798613744565b5b828204905092915050565b7f476f7665726e6f72566f74657351756f72756d4672616374696f6e3a2071756f60008201527f72756d4e756d657261746f72206f7665722071756f72756d44656e6f6d696e6160208201527f746f720000000000000000000000000000000000000000000000000000000000604082015250565b60006138266043836126b3565b9150613831826137a4565b606082019050919050565b6000602082019050818103600083015261385581613819565b9050919050565b60006040820190506138716000830185612625565b61387e6020830184612625565b9392505050565b7f4e487b7100000000000000000000000000000000000000000000000000000000600052603260045260246000fd5b600081905092915050565b60006138ca82613534565b6138d481856138b4565b93506138e48185602086016126c4565b80840191505092915050565b60006138fc82846138bf565b915081905092915050565b60006139128261261b565b91507fffffffffffffffffffffffffffffffffffffffffffffffffffffffffffffffff821415613945576139446136bb565b5b600182019050919050565b7f476f7665726e6f723a20766f7465206e6f742063757272656e746c792061637460008201527f6976650000000000000000000000000000000000000000000000000000000000602082015250565b60006139ac6023836126b3565b91506139b782613950565b604082019050919050565b600060208201905081810360008301526139db8161399f565b9050919050565b60006080820190506139f76000830187612625565b613a0460208301866132da565b613a116040830185612625565b8181036060830152613a238184612708565b905095945050505050565b6000613a398261261b565b9150613a448361261b565b9250827fffffffffffffffffffffffffffffffffffffffffffffffffffffffffffffffff03821115613a7957613a786136bb565b5b828201905092915050565b7f476f7665726e6f723a2070726f706f73616c206e6f7420616374697665000000600082015250565b6000613aba601d836126b3565b9150613ac582613a84565b602082019050919050565b60006020820190508181036000830152613ae981613aad565b9050919050565b7f476f7665726e6f7253657474696e67733a20766f74696e6720706572696f642060008201527f746f6f206c6f7700000000000000000000000000000000000000000000000000602082015250565b6000613b4c6027836126b3565b9150613b5782613af0565b604082019050919050565b60006020820190508181036000830152613b7b81613b3f565b9050919050565b613b8b81612834565b82525050565b6000604082019050613ba66000830185613b82565b613bb36020830184612625565b9392505050565b600081905092915050565b7f1901000000000000000000000000000000000000000000000000000000000000600082015250565b6000613bfb600283613bba565b9150613c0682613bc5565b600282019050919050565b6000819050919050565b613c2c613c2782612b62565b613c11565b82525050565b6000613c3d82613bee565b9150613c498285613c1b565b602082019150613c598284613c1b565b6020820191508190509392505050565b6000608082019050613c7e6000830187613097565b613c8b60208301866132da565b613c986040830185613097565b613ca56060830184613097565b95945050505050565b7f45434453413a20696e76616c6964207369676e61747572650000000000000000600082015250565b6000613ce46018836126b3565b9150613cef82613cae565b602082019050919050565b60006020820190508181036000830152613d1381613cd7565b9050919050565b7f45434453413a20696e76616c6964207369676e6174757265206c656e67746800600082015250565b6000613d50601f836126b3565b9150613d5b82613d1a565b602082019050919050565b60006020820190508181036000830152613d7f81613d43565b9050919050565b7f45434453413a20696e76616c6964207369676e6174757265202773272076616c60008201527f7565000000000000000000000000000000000000000000000000000000000000602082015250565b6000613de26022836126b3565b9150613ded82613d86565b604082019050919050565b60006020820190508181036000830152613e1181613dd5565b9050919050565b7f45434453413a20696e76616c6964207369676e6174757265202776272076616c60008201527f7565000000000000000000000000000000000000000000000000000000000000602082015250565b6000613e746022836126b3565b9150613e7f82613e18565b604082019050919050565b60006020820190508181036000830152613ea381613e67565b9050919050565b7f476f7665726e6f72566f74696e6753696d706c653a20766f746520616c72656160008201527f6479206361737400000000000000000000000000000000000000000000000000602082015250565b6000613f066027836126b3565b9150613f1182613eaa565b604082019050919050565b60006020820190508181036000830152613f3581613ef9565b9050919050565b7f476f7665726e6f72566f74696e6753696d706c653a20696e76616c696420766160008201527f6c756520666f7220656e756d20566f7465547970650000000000000000000000602082015250565b6000613f986035836126b3565b9150613fa382613f3c565b604082019050919050565b60006020820190508181036000830152613fc781613f8b565b9050919050565b6000613fd98261261b565b9150613fe48361261b565b925082821015613ff757613ff66136bb565b5b828203905092915050565b7f476f7665726e6f72436f6d7061746962696c697479427261766f3a2070726f7060008201527f6f73657220766f7465732062656c6f772070726f706f73616c2074687265736860208201527f6f6c640000000000000000000000000000000000000000000000000000000000604082015250565b60006140846043836126b3565b915061408f82614002565b606082019050919050565b600060208201905081810360008301526140b381614077565b9050919050565b7f476f7665726e6f723a20696e76616c69642070726f706f73616c206c656e677460008201527f6800000000000000000000000000000000000000000000000000000000000000602082015250565b60006141166021836126b3565b9150614121826140ba565b604082019050919050565b6000602082019050818103600083015261414581614109565b9050919050565b7f476f7665726e6f723a20656d7074792070726f706f73616c0000000000000000600082015250565b60006141826018836126b3565b915061418d8261414c565b602082019050919050565b600060208201905081810360008301526141b181614175565b9050919050565b7f476f7665726e6f723a2070726f706f73616c20616c726561647920657869737460008201527f7300000000000000000000000000000000000000000000000000000000000000602082015250565b60006142146021836126b3565b915061421f826141b8565b604082019050919050565b6000602082019050818103600083015261424381614207565b9050919050565b600067ffffffffffffffff82169050919050565b60006142698261424a565b91506142748361424a565b92508267ffffffffffffffff03821115614291576142906136bb565b5b828201905092915050565b600081519050919050565b600082825260208201905092915050565b6000819050602082019050919050565b600082825260208201905092915050565b60006142e4826126a8565b6142ee81856142c8565b93506142fe8185602086016126c4565b614307816126f7565b840191505092915050565b600061431e83836142d9565b905092915050565b6000602082019050919050565b600061433e8261429c565b61434881856142a7565b93508360208202850161435a856142b8565b8060005b8581101561439657848403895281516143778582614312565b945061438283614326565b925060208a0199505060018101905061435e565b50829750879550505050505092915050565b60006143c36143be6143b98461424a565b613101565b61261b565b9050919050565b6143d3816143a8565b82525050565b6000610120820190506143ef600083018c612625565b6143fc602083018b613b82565b818103604083015261440e818a6133ec565b9050818103606083015261442281896134aa565b905081810360808301526144368188614333565b905081810360a083015261444a81876135aa565b905061445960c08301866143ca565b61446660e08301856143ca565b8181036101008301526144798184612708565b90509a9950505050505050505050565b600060a08201905061449e6000830188613097565b6144ab6020830187613097565b6144b86040830186613097565b6144c56060830185612625565b6144d26080830184613b82565b9695505050505050565b7f53616665436173743a2076616c756520646f65736e27742066697420696e203660008201527f3420626974730000000000000000000000000000000000000000000000000000602082015250565b60006145386026836126b3565b9150614543826144dc565b604082019050919050565b600060208201905081810360008301526145678161452b565b905091905056fe476f7665726e6f723a2063616c6c20726576657274656420776974686f7574206d657373616765a2646970667358221220f4fd22e27cc480db5c682ca07e81aac60322b08bf97c165cf0966532995337d764736f6c63430008090033",
  "linkReferences": {},
  "deployedLinkReferences": {}
}