{
  "_format": "hh-sol-artifact-1",
  "contractName": "ERC20PermitMock",
  "sourceName": "contracts/oz/mocks/ERC20PermitMock.sol",
  "abi": [
    {
      "inputs": [
        {
          "internalType": "string",
          "name": "name",
          "type": "string"
        },
        {
          "internalType": "string",
          "name": "symbol",
          "type": "string"
        },
        {
          "internalType": "address",
          "name": "initialAccount",
          "type": "address"
        },
        {
          "internalType": "uint256",
          "name": "initialBalance",
          "type": "uint256"
        }
      ],
      "stateMutability": "payable",
      "type": "constructor"
    },
    {
      "anonymous": false,
      "inputs": [
        {
          "indexed": true,
          "internalType": "address",
          "name": "owner",
          "type": "address"
        },
        {
          "indexed": true,
          "internalType": "address",
          "name": "spender",
          "type": "address"
        },
        {
          "indexed": false,
          "internalType": "uint256",
          "name": "value",
          "type": "uint256"
        }
      ],
      "name": "Approval",
      "type": "event"
    },
    {
      "anonymous": false,
      "inputs": [
        {
          "indexed": true,
          "internalType": "address",
          "name": "from",
          "type": "address"
        },
        {
          "indexed": true,
          "internalType": "address",
          "name": "to",
          "type": "address"
        },
        {
          "indexed": false,
          "internalType": "uint256",
          "name": "value",
          "type": "uint256"
        }
      ],
      "name": "Transfer",
      "type": "event"
    },
    {
      "inputs": [],
      "name": "DOMAIN_SEPARATOR",
      "outputs": [
        {
          "internalType": "bytes32",
          "name": "",
          "type": "bytes32"
        }
      ],
      "stateMutability": "view",
      "type": "function"
    },
    {
      "inputs": [
        {
          "internalType": "address",
          "name": "owner",
          "type": "address"
        },
        {
          "internalType": "address",
          "name": "spender",
          "type": "address"
        }
      ],
      "name": "allowance",
      "outputs": [
        {
          "internalType": "uint256",
          "name": "",
          "type": "uint256"
        }
      ],
      "stateMutability": "view",
      "type": "function"
    },
    {
      "inputs": [
        {
          "internalType": "address",
          "name": "spender",
          "type": "address"
        },
        {
          "internalType": "uint256",
          "name": "amount",
          "type": "uint256"
        }
      ],
      "name": "approve",
      "outputs": [
        {
          "internalType": "bool",
          "name": "",
          "type": "bool"
        }
      ],
      "stateMutability": "nonpayable",
      "type": "function"
    },
    {
      "inputs": [
        {
          "internalType": "address",
          "name": "account",
          "type": "address"
        }
      ],
      "name": "balanceOf",
      "outputs": [
        {
          "internalType": "uint256",
          "name": "",
          "type": "uint256"
        }
      ],
      "stateMutability": "view",
      "type": "function"
    },
    {
      "inputs": [],
      "name": "decimals",
      "outputs": [
        {
          "internalType": "uint8",
          "name": "",
          "type": "uint8"
        }
      ],
      "stateMutability": "view",
      "type": "function"
    },
    {
      "inputs": [
        {
          "internalType": "address",
          "name": "spender",
          "type": "address"
        },
        {
          "internalType": "uint256",
          "name": "subtractedValue",
          "type": "uint256"
        }
      ],
      "name": "decreaseAllowance",
      "outputs": [
        {
          "internalType": "bool",
          "name": "",
          "type": "bool"
        }
      ],
      "stateMutability": "nonpayable",
      "type": "function"
    },
    {
      "inputs": [],
      "name": "getChainId",
      "outputs": [
        {
          "internalType": "uint256",
          "name": "",
          "type": "uint256"
        }
      ],
      "stateMutability": "view",
      "type": "function"
    },
    {
      "inputs": [
        {
          "internalType": "address",
          "name": "spender",
          "type": "address"
        },
        {
          "internalType": "uint256",
          "name": "addedValue",
          "type": "uint256"
        }
      ],
      "name": "increaseAllowance",
      "outputs": [
        {
          "internalType": "bool",
          "name": "",
          "type": "bool"
        }
      ],
      "stateMutability": "nonpayable",
      "type": "function"
    },
    {
      "inputs": [],
      "name": "name",
      "outputs": [
        {
          "internalType": "string",
          "name": "",
          "type": "string"
        }
      ],
      "stateMutability": "view",
      "type": "function"
    },
    {
      "inputs": [
        {
          "internalType": "address",
          "name": "owner",
          "type": "address"
        }
      ],
      "name": "nonces",
      "outputs": [
        {
          "internalType": "uint256",
          "name": "",
          "type": "uint256"
        }
      ],
      "stateMutability": "view",
      "type": "function"
    },
    {
      "inputs": [
        {
          "internalType": "address",
          "name": "owner",
          "type": "address"
        },
        {
          "internalType": "address",
          "name": "spender",
          "type": "address"
        },
        {
          "internalType": "uint256",
          "name": "value",
          "type": "uint256"
        },
        {
          "internalType": "uint256",
          "name": "deadline",
          "type": "uint256"
        },
        {
          "internalType": "uint8",
          "name": "v",
          "type": "uint8"
        },
        {
          "internalType": "bytes32",
          "name": "r",
          "type": "bytes32"
        },
        {
          "internalType": "bytes32",
          "name": "s",
          "type": "bytes32"
        }
      ],
      "name": "permit",
      "outputs": [],
      "stateMutability": "nonpayable",
      "type": "function"
    },
    {
      "inputs": [],
      "name": "symbol",
      "outputs": [
        {
          "internalType": "string",
          "name": "",
          "type": "string"
        }
      ],
      "stateMutability": "view",
      "type": "function"
    },
    {
      "inputs": [],
      "name": "totalSupply",
      "outputs": [
        {
          "internalType": "uint256",
          "name": "",
          "type": "uint256"
        }
      ],
      "stateMutability": "view",
      "type": "function"
    },
    {
      "inputs": [
        {
          "internalType": "address",
          "name": "recipient",
          "type": "address"
        },
        {
          "internalType": "uint256",
          "name": "amount",
          "type": "uint256"
        }
      ],
      "name": "transfer",
      "outputs": [
        {
          "internalType": "bool",
          "name": "",
          "type": "bool"
        }
      ],
      "stateMutability": "nonpayable",
      "type": "function"
    },
    {
      "inputs": [
        {
          "internalType": "address",
          "name": "sender",
          "type": "address"
        },
        {
          "internalType": "address",
          "name": "recipient",
          "type": "address"
        },
        {
          "internalType": "uint256",
          "name": "amount",
          "type": "uint256"
        }
      ],
      "name": "transferFrom",
      "outputs": [
        {
          "internalType": "bool",
          "name": "",
          "type": "bool"
        }
      ],
      "stateMutability": "nonpayable",
      "type": "function"
    }
  ],
  "bytecode": "0x6101606040527f6e71edae12b1b97f4d1f60370fef10105fa2faae0126114a169c64845d6126c96101409081525060405162002ab038038062002ab083398181016040528101906200005291906200063b565b83806040518060400160405280600181526020017f310000000000000000000000000000000000000000000000000000000000000081525086868160039080519060200190620000a49291906200034e565b508060049080519060200190620000bd9291906200034e565b50505060008280519060200120905060008280519060200120905060007f8b73c3c69bb8fe3d512ecc4cf759cc79239f7b179b0ffacaa9a75d522b39400f90508260e081815250508161010081815250504660a08181525050620001298184846200018f60201b60201c565b608081815250503073ffffffffffffffffffffffffffffffffffffffff1660c08173ffffffffffffffffffffffffffffffffffffffff1681525050806101208181525050505050505050620001858282620001cb60201b60201c565b5050505062000916565b60008383834630604051602001620001ac95949392919062000728565b6040516020818303038152906040528051906020012090509392505050565b600073ffffffffffffffffffffffffffffffffffffffff168273ffffffffffffffffffffffffffffffffffffffff1614156200023e576040517f08c379a00000000000000000000000000000000000000000000000000000000081526004016200023590620007e6565b60405180910390fd5b62000252600083836200034460201b60201c565b806002600082825462000266919062000837565b92505081905550806000808473ffffffffffffffffffffffffffffffffffffffff1673ffffffffffffffffffffffffffffffffffffffff1681526020019081526020016000206000828254620002bd919062000837565b925050819055508173ffffffffffffffffffffffffffffffffffffffff16600073ffffffffffffffffffffffffffffffffffffffff167fddf252ad1be2c89b69c2b068fc378daa952ba7f163c4a11628f55a4df523b3ef8360405162000324919062000894565b60405180910390a362000340600083836200034960201b60201c565b5050565b505050565b505050565b8280546200035c90620008e0565b90600052602060002090601f016020900481019282620003805760008555620003cc565b82601f106200039b57805160ff1916838001178555620003cc565b82800160010185558215620003cc579182015b82811115620003cb578251825591602001919060010190620003ae565b5b509050620003db9190620003df565b5090565b5b80821115620003fa576000816000905550600101620003e0565b5090565b6000604051905090565b600080fd5b600080fd5b600080fd5b600080fd5b6000601f19601f8301169050919050565b7f4e487b7100000000000000000000000000000000000000000000000000000000600052604160045260246000fd5b62000467826200041c565b810181811067ffffffffffffffff821117156200048957620004886200042d565b5b80604052505050565b60006200049e620003fe565b9050620004ac82826200045c565b919050565b600067ffffffffffffffff821115620004cf57620004ce6200042d565b5b620004da826200041c565b9050602081019050919050565b60005b8381101562000507578082015181840152602081019050620004ea565b8381111562000517576000848401525b50505050565b6000620005346200052e84620004b1565b62000492565b90508281526020810184848401111562000553576200055262000417565b5b62000560848285620004e7565b509392505050565b600082601f83011262000580576200057f62000412565b5b8151620005928482602086016200051d565b91505092915050565b600073ffffffffffffffffffffffffffffffffffffffff82169050919050565b6000620005c8826200059b565b9050919050565b620005da81620005bb565b8114620005e657600080fd5b50565b600081519050620005fa81620005cf565b92915050565b6000819050919050565b620006158162000600565b81146200062157600080fd5b50565b60008151905062000635816200060a565b92915050565b6000806000806080858703121562000658576200065762000408565b5b600085015167ffffffffffffffff8111156200067957620006786200040d565b5b620006878782880162000568565b945050602085015167ffffffffffffffff811115620006ab57620006aa6200040d565b5b620006b98782880162000568565b9350506040620006cc87828801620005e9565b9250506060620006df8782880162000624565b91505092959194509250565b6000819050919050565b6200070081620006eb565b82525050565b620007118162000600565b82525050565b6200072281620005bb565b82525050565b600060a0820190506200073f6000830188620006f5565b6200074e6020830187620006f5565b6200075d6040830186620006f5565b6200076c606083018562000706565b6200077b608083018462000717565b9695505050505050565b600082825260208201905092915050565b7f45524332303a206d696e7420746f20746865207a65726f206164647265737300600082015250565b6000620007ce601f8362000785565b9150620007db8262000796565b602082019050919050565b600060208201905081810360008301526200080181620007bf565b9050919050565b7f4e487b7100000000000000000000000000000000000000000000000000000000600052601160045260246000fd5b6000620008448262000600565b9150620008518362000600565b9250827fffffffffffffffffffffffffffffffffffffffffffffffffffffffffffffffff0382111562000889576200088862000808565b5b828201905092915050565b6000602082019050620008ab600083018462000706565b92915050565b7f4e487b7100000000000000000000000000000000000000000000000000000000600052602260045260246000fd5b60006002820490506001821680620008f957607f821691505b6020821081141562000910576200090f620008b1565b5b50919050565b60805160a05160c05160e05161010051610120516101405161213f62000971600039600061084201526000610ec601526000610f0801526000610ee701526000610e1c01526000610e7201526000610e9b015261213f6000f3fe608060405234801561001057600080fd5b50600436106100f55760003560e01c80633950935111610097578063a457c2d711610066578063a457c2d71461029e578063a9059cbb146102ce578063d505accf146102fe578063dd62ed3e1461031a576100f5565b806339509351146101f057806370a08231146102205780637ecebe001461025057806395d89b4114610280576100f5565b806323b872dd116100d357806323b872dd14610166578063313ce567146101965780633408e470146101b45780633644e515146101d2576100f5565b806306fdde03146100fa578063095ea7b31461011857806318160ddd14610148575b600080fd5b61010261034a565b60405161010f91906113eb565b60405180910390f35b610132600480360381019061012d91906114a6565b6103dc565b60405161013f9190611501565b60405180910390f35b6101506103fa565b60405161015d919061152b565b60405180910390f35b610180600480360381019061017b9190611546565b610404565b60405161018d9190611501565b60405180910390f35b61019e6104fc565b6040516101ab91906115b5565b60405180910390f35b6101bc610505565b6040516101c9919061152b565b60405180910390f35b6101da61050d565b6040516101e791906115e9565b60405180910390f35b61020a600480360381019061020591906114a6565b61051c565b6040516102179190611501565b60405180910390f35b61023a60048036038101906102359190611604565b6105c8565b604051610247919061152b565b60405180910390f35b61026a60048036038101906102659190611604565b610610565b604051610277919061152b565b60405180910390f35b610288610660565b60405161029591906113eb565b60405180910390f35b6102b860048036038101906102b391906114a6565b6106f2565b6040516102c59190611501565b60405180910390f35b6102e860048036038101906102e391906114a6565b6107dd565b6040516102f59190611501565b60405180910390f35b61031860048036038101906103139190611689565b6107fb565b005b610334600480360381019061032f919061172b565b61093d565b604051610341919061152b565b60405180910390f35b6060600380546103599061179a565b80601f01602080910402602001604051908101604052809291908181526020018280546103859061179a565b80156103d25780601f106103a7576101008083540402835291602001916103d2565b820191906000526020600020905b8154815290600101906020018083116103b557829003601f168201915b5050505050905090565b60006103f06103e96109c4565b84846109cc565b6001905092915050565b6000600254905090565b6000610411848484610b97565b6000600160008673ffffffffffffffffffffffffffffffffffffffff1673ffffffffffffffffffffffffffffffffffffffff168152602001908152602001600020600061045c6109c4565b73ffffffffffffffffffffffffffffffffffffffff1673ffffffffffffffffffffffffffffffffffffffff168152602001908152602001600020549050828110156104dc576040517f08c379a00000000000000000000000000000000000000000000000000000000081526004016104d39061183e565b60405180910390fd5b6104f0856104e86109c4565b8584036109cc565b60019150509392505050565b60006012905090565b600046905090565b6000610517610e18565b905090565b60006105be6105296109c4565b8484600160006105376109c4565b73ffffffffffffffffffffffffffffffffffffffff1673ffffffffffffffffffffffffffffffffffffffff16815260200190815260200160002060008873ffffffffffffffffffffffffffffffffffffffff1673ffffffffffffffffffffffffffffffffffffffff168152602001908152602001600020546105b9919061188d565b6109cc565b6001905092915050565b60008060008373ffffffffffffffffffffffffffffffffffffffff1673ffffffffffffffffffffffffffffffffffffffff168152602001908152602001600020549050919050565b6000610659600560008473ffffffffffffffffffffffffffffffffffffffff1673ffffffffffffffffffffffffffffffffffffffff168152602001908152602001600020610f32565b9050919050565b60606004805461066f9061179a565b80601f016020809104026020016040519081016040528092919081815260200182805461069b9061179a565b80156106e85780601f106106bd576101008083540402835291602001916106e8565b820191906000526020600020905b8154815290600101906020018083116106cb57829003601f168201915b5050505050905090565b600080600160006107016109c4565b73ffffffffffffffffffffffffffffffffffffffff1673ffffffffffffffffffffffffffffffffffffffff16815260200190815260200160002060008573ffffffffffffffffffffffffffffffffffffffff1673ffffffffffffffffffffffffffffffffffffffff168152602001908152602001600020549050828110156107be576040517f08c379a00000000000000000000000000000000000000000000000000000000081526004016107b590611955565b60405180910390fd5b6107d26107c96109c4565b858584036109cc565b600191505092915050565b60006107f16107ea6109c4565b8484610b97565b6001905092915050565b8342111561083e576040517f08c379a0000000000000000000000000000000000000000000000000000000008152600401610835906119c1565b60405180910390fd5b60007f000000000000000000000000000000000000000000000000000000000000000088888861086d8c610f40565b89604051602001610883969594939291906119f0565b60405160208183030381529060405280519060200120905060006108a682610f9e565b905060006108b682878787610fb8565b90508973ffffffffffffffffffffffffffffffffffffffff168173ffffffffffffffffffffffffffffffffffffffff1614610926576040517f08c379a000000000000000000000000000000000000000000000000000000000815260040161091d90611a9d565b60405180910390fd5b6109318a8a8a6109cc565b50505050505050505050565b6000600160008473ffffffffffffffffffffffffffffffffffffffff1673ffffffffffffffffffffffffffffffffffffffff16815260200190815260200160002060008373ffffffffffffffffffffffffffffffffffffffff1673ffffffffffffffffffffffffffffffffffffffff16815260200190815260200160002054905092915050565b600033905090565b600073ffffffffffffffffffffffffffffffffffffffff168373ffffffffffffffffffffffffffffffffffffffff161415610a3c576040517f08c379a0000000000000000000000000000000000000000000000000000000008152600401610a3390611b2f565b60405180910390fd5b600073ffffffffffffffffffffffffffffffffffffffff168273ffffffffffffffffffffffffffffffffffffffff161415610aac576040517f08c379a0000000000000000000000000000000000000000000000000000000008152600401610aa390611bc1565b60405180910390fd5b80600160008573ffffffffffffffffffffffffffffffffffffffff1673ffffffffffffffffffffffffffffffffffffffff16815260200190815260200160002060008473ffffffffffffffffffffffffffffffffffffffff1673ffffffffffffffffffffffffffffffffffffffff168152602001908152602001600020819055508173ffffffffffffffffffffffffffffffffffffffff168373ffffffffffffffffffffffffffffffffffffffff167f8c5be1e5ebec7d5bd14f71427d1e84f3dd0314c0f7b2291e5b200ac8c7c3b92583604051610b8a919061152b565b60405180910390a3505050565b600073ffffffffffffffffffffffffffffffffffffffff168373ffffffffffffffffffffffffffffffffffffffff161415610c07576040517f08c379a0000000000000000000000000000000000000000000000000000000008152600401610bfe90611c53565b60405180910390fd5b600073ffffffffffffffffffffffffffffffffffffffff168273ffffffffffffffffffffffffffffffffffffffff161415610c77576040517f08c379a0000000000000000000000000000000000000000000000000000000008152600401610c6e90611ce5565b60405180910390fd5b610c82838383610fe3565b60008060008573ffffffffffffffffffffffffffffffffffffffff1673ffffffffffffffffffffffffffffffffffffffff16815260200190815260200160002054905081811015610d08576040517f08c379a0000000000000000000000000000000000000000000000000000000008152600401610cff90611d77565b60405180910390fd5b8181036000808673ffffffffffffffffffffffffffffffffffffffff1673ffffffffffffffffffffffffffffffffffffffff16815260200190815260200160002081905550816000808573ffffffffffffffffffffffffffffffffffffffff1673ffffffffffffffffffffffffffffffffffffffff1681526020019081526020016000206000828254610d9b919061188d565b925050819055508273ffffffffffffffffffffffffffffffffffffffff168473ffffffffffffffffffffffffffffffffffffffff167fddf252ad1be2c89b69c2b068fc378daa952ba7f163c4a11628f55a4df523b3ef84604051610dff919061152b565b60405180910390a3610e12848484610fe8565b50505050565b60007f000000000000000000000000000000000000000000000000000000000000000073ffffffffffffffffffffffffffffffffffffffff163073ffffffffffffffffffffffffffffffffffffffff16148015610e9457507f000000000000000000000000000000000000000000000000000000000000000046145b15610ec1577f00000000000000000000000000000000000000000000000000000000000000009050610f2f565b610f2c7f00000000000000000000000000000000000000000000000000000000000000007f00000000000000000000000000000000000000000000000000000000000000007f0000000000000000000000000000000000000000000000000000000000000000610fed565b90505b90565b600081600001549050919050565b600080600560008473ffffffffffffffffffffffffffffffffffffffff1673ffffffffffffffffffffffffffffffffffffffff1681526020019081526020016000209050610f8d81610f32565b9150610f9881611027565b50919050565b6000610fb1610fab610e18565b8361103d565b9050919050565b6000806000610fc987878787611070565b91509150610fd68161117d565b8192505050949350505050565b505050565b505050565b60008383834630604051602001611008959493929190611d97565b6040516020818303038152906040528051906020012090509392505050565b6001816000016000828254019250508190555050565b60008282604051602001611052929190611e62565b60405160208183030381529060405280519060200120905092915050565b6000807f7fffffffffffffffffffffffffffffff5d576e7357a4501ddfe92f46681b20a08360001c11156110ab576000600391509150611174565b601b8560ff16141580156110c35750601c8560ff1614155b156110d5576000600491509150611174565b6000600187878787604051600081526020016040526040516110fa9493929190611e99565b6020604051602081039080840390855afa15801561111c573d6000803e3d6000fd5b505050602060405103519050600073ffffffffffffffffffffffffffffffffffffffff168173ffffffffffffffffffffffffffffffffffffffff16141561116b57600060019250925050611174565b80600092509250505b94509492505050565b6000600481111561119157611190611ede565b5b8160048111156111a4576111a3611ede565b5b14156111af5761134f565b600160048111156111c3576111c2611ede565b5b8160048111156111d6576111d5611ede565b5b1415611217576040517f08c379a000000000000000000000000000000000000000000000000000000000815260040161120e90611f59565b60405180910390fd5b6002600481111561122b5761122a611ede565b5b81600481111561123e5761123d611ede565b5b141561127f576040517f08c379a000000000000000000000000000000000000000000000000000000000815260040161127690611fc5565b60405180910390fd5b6003600481111561129357611292611ede565b5b8160048111156112a6576112a5611ede565b5b14156112e7576040517f08c379a00000000000000000000000000000000000000000000000000000000081526004016112de90612057565b60405180910390fd5b6004808111156112fa576112f9611ede565b5b81600481111561130d5761130c611ede565b5b141561134e576040517f08c379a0000000000000000000000000000000000000000000000000000000008152600401611345906120e9565b60405180910390fd5b5b50565b600081519050919050565b600082825260208201905092915050565b60005b8381101561138c578082015181840152602081019050611371565b8381111561139b576000848401525b50505050565b6000601f19601f8301169050919050565b60006113bd82611352565b6113c7818561135d565b93506113d781856020860161136e565b6113e0816113a1565b840191505092915050565b6000602082019050818103600083015261140581846113b2565b905092915050565b600080fd5b600073ffffffffffffffffffffffffffffffffffffffff82169050919050565b600061143d82611412565b9050919050565b61144d81611432565b811461145857600080fd5b50565b60008135905061146a81611444565b92915050565b6000819050919050565b61148381611470565b811461148e57600080fd5b50565b6000813590506114a08161147a565b92915050565b600080604083850312156114bd576114bc61140d565b5b60006114cb8582860161145b565b92505060206114dc85828601611491565b9150509250929050565b60008115159050919050565b6114fb816114e6565b82525050565b600060208201905061151660008301846114f2565b92915050565b61152581611470565b82525050565b6000602082019050611540600083018461151c565b92915050565b60008060006060848603121561155f5761155e61140d565b5b600061156d8682870161145b565b935050602061157e8682870161145b565b925050604061158f86828701611491565b9150509250925092565b600060ff82169050919050565b6115af81611599565b82525050565b60006020820190506115ca60008301846115a6565b92915050565b6000819050919050565b6115e3816115d0565b82525050565b60006020820190506115fe60008301846115da565b92915050565b60006020828403121561161a5761161961140d565b5b60006116288482850161145b565b91505092915050565b61163a81611599565b811461164557600080fd5b50565b60008135905061165781611631565b92915050565b611666816115d0565b811461167157600080fd5b50565b6000813590506116838161165d565b92915050565b600080600080600080600060e0888a0312156116a8576116a761140d565b5b60006116b68a828b0161145b565b97505060206116c78a828b0161145b565b96505060406116d88a828b01611491565b95505060606116e98a828b01611491565b94505060806116fa8a828b01611648565b93505060a061170b8a828b01611674565b92505060c061171c8a828b01611674565b91505092959891949750929550565b600080604083850312156117425761174161140d565b5b60006117508582860161145b565b92505060206117618582860161145b565b9150509250929050565b7f4e487b7100000000000000000000000000000000000000000000000000000000600052602260045260246000fd5b600060028204905060018216806117b257607f821691505b602082108114156117c6576117c561176b565b5b50919050565b7f45524332303a207472616e7366657220616d6f756e742065786365656473206160008201527f6c6c6f77616e6365000000000000000000000000000000000000000000000000602082015250565b600061182860288361135d565b9150611833826117cc565b604082019050919050565b600060208201905081810360008301526118578161181b565b9050919050565b7f4e487b7100000000000000000000000000000000000000000000000000000000600052601160045260246000fd5b600061189882611470565b91506118a383611470565b9250827fffffffffffffffffffffffffffffffffffffffffffffffffffffffffffffffff038211156118d8576118d761185e565b5b828201905092915050565b7f45524332303a2064656372656173656420616c6c6f77616e63652062656c6f7760008201527f207a65726f000000000000000000000000000000000000000000000000000000602082015250565b600061193f60258361135d565b915061194a826118e3565b604082019050919050565b6000602082019050818103600083015261196e81611932565b9050919050565b7f45524332305065726d69743a206578706972656420646561646c696e65000000600082015250565b60006119ab601d8361135d565b91506119b682611975565b602082019050919050565b600060208201905081810360008301526119da8161199e565b9050919050565b6119ea81611432565b82525050565b600060c082019050611a0560008301896115da565b611a1260208301886119e1565b611a1f60408301876119e1565b611a2c606083018661151c565b611a39608083018561151c565b611a4660a083018461151c565b979650505050505050565b7f45524332305065726d69743a20696e76616c6964207369676e61747572650000600082015250565b6000611a87601e8361135d565b9150611a9282611a51565b602082019050919050565b60006020820190508181036000830152611ab681611a7a565b9050919050565b7f45524332303a20617070726f76652066726f6d20746865207a65726f2061646460008201527f7265737300000000000000000000000000000000000000000000000000000000602082015250565b6000611b1960248361135d565b9150611b2482611abd565b604082019050919050565b60006020820190508181036000830152611b4881611b0c565b9050919050565b7f45524332303a20617070726f766520746f20746865207a65726f20616464726560008201527f7373000000000000000000000000000000000000000000000000000000000000602082015250565b6000611bab60228361135d565b9150611bb682611b4f565b604082019050919050565b60006020820190508181036000830152611bda81611b9e565b9050919050565b7f45524332303a207472616e736665722066726f6d20746865207a65726f20616460008201527f6472657373000000000000000000000000000000000000000000000000000000602082015250565b6000611c3d60258361135d565b9150611c4882611be1565b604082019050919050565b60006020820190508181036000830152611c6c81611c30565b9050919050565b7f45524332303a207472616e7366657220746f20746865207a65726f206164647260008201527f6573730000000000000000000000000000000000000000000000000000000000602082015250565b6000611ccf60238361135d565b9150611cda82611c73565b604082019050919050565b60006020820190508181036000830152611cfe81611cc2565b9050919050565b7f45524332303a207472616e7366657220616d6f756e742065786365656473206260008201527f616c616e63650000000000000000000000000000000000000000000000000000602082015250565b6000611d6160268361135d565b9150611d6c82611d05565b604082019050919050565b60006020820190508181036000830152611d9081611d54565b9050919050565b600060a082019050611dac60008301886115da565b611db960208301876115da565b611dc660408301866115da565b611dd3606083018561151c565b611de060808301846119e1565b9695505050505050565b600081905092915050565b7f1901000000000000000000000000000000000000000000000000000000000000600082015250565b6000611e2b600283611dea565b9150611e3682611df5565b600282019050919050565b6000819050919050565b611e5c611e57826115d0565b611e41565b82525050565b6000611e6d82611e1e565b9150611e798285611e4b565b602082019150611e898284611e4b565b6020820191508190509392505050565b6000608082019050611eae60008301876115da565b611ebb60208301866115a6565b611ec860408301856115da565b611ed560608301846115da565b95945050505050565b7f4e487b7100000000000000000000000000000000000000000000000000000000600052602160045260246000fd5b7f45434453413a20696e76616c6964207369676e61747572650000000000000000600082015250565b6000611f4360188361135d565b9150611f4e82611f0d565b602082019050919050565b60006020820190508181036000830152611f7281611f36565b9050919050565b7f45434453413a20696e76616c6964207369676e6174757265206c656e67746800600082015250565b6000611faf601f8361135d565b9150611fba82611f79565b602082019050919050565b60006020820190508181036000830152611fde81611fa2565b9050919050565b7f45434453413a20696e76616c6964207369676e6174757265202773272076616c60008201527f7565000000000000000000000000000000000000000000000000000000000000602082015250565b600061204160228361135d565b915061204c82611fe5565b604082019050919050565b6000602082019050818103600083015261207081612034565b9050919050565b7f45434453413a20696e76616c6964207369676e6174757265202776272076616c60008201527f7565000000000000000000000000000000000000000000000000000000000000602082015250565b60006120d360228361135d565b91506120de82612077565b604082019050919050565b60006020820190508181036000830152612102816120c6565b905091905056fea264697066735822122008668d41cc1ca2fd269b79fbd5f71fca803ee54f9cc9aea7499fd7cfafa9599f64736f6c63430008090033",
  "linkReferences": {},
  "deployedLinkReferences": {}
}