{
  "_format": "hh-sol-artifact-1",
  "contractName": "Greeter",
  "sourceName": "contracts/Greeter.sol",
  "abi": [
    {
      "inputs": [
        {
          "internalType": "string",
          "name": "_greeting",
          "type": "string"
        }
      ],
      "stateMutability": "nonpayable",
      "type": "constructor"
    },
    {
      "inputs": [],
      "name": "getGiacomo",
      "outputs": [
        {
          "internalType": "bytes32",
          "name": "",
          "type": "bytes32"
        }
      ],
      "stateMutability": "view",
      "type": "function"
    },
    {
      "inputs": [],
      "name": "giacomo",
      "outputs": [
        {
          "internalType": "bytes32",
          "name": "",
          "type": "bytes32"
        }
      ],
      "stateMutability": "view",
      "type": "function"
    },
    {
      "inputs": [],
      "name": "greet",
      "outputs": [
        {
          "internalType": "string",
          "name": "",
          "type": "string"
        }
      ],
      "stateMutability": "view",
      "type": "function"
    },
    {
      "inputs": [],
      "name": "owner",
      "outputs": [
        {
          "internalType": "address",
          "name": "",
          "type": "address"
        }
      ],
      "stateMutability": "view",
      "type": "function"
    },
    {
      "inputs": [
        {
          "internalType": "string",
          "name": "_greeting",
          "type": "string"
        }
      ],
      "name": "setGreeting",
      "outputs": [],
      "stateMutability": "nonpayable",
      "type": "function"
    }
  ],
  "bytecode": "0x60806040527f04e4120ae1c3db9e9ec09835dad49f3459adb90b909bc56b55b056581332b4596002553480156200003557600080fd5b5060405162000aaf38038062000aaf83398181016040528101906200005b919062000308565b806001908051906020019062000073929190620000bb565b50336000806101000a81548173ffffffffffffffffffffffffffffffffffffffff021916908373ffffffffffffffffffffffffffffffffffffffff16021790555050620003be565b828054620000c99062000388565b90600052602060002090601f016020900481019282620000ed576000855562000139565b82601f106200010857805160ff191683800117855562000139565b8280016001018555821562000139579182015b82811115620001385782518255916020019190600101906200011b565b5b5090506200014891906200014c565b5090565b5b80821115620001675760008160009055506001016200014d565b5090565b6000604051905090565b600080fd5b600080fd5b600080fd5b600080fd5b6000601f19601f8301169050919050565b7f4e487b7100000000000000000000000000000000000000000000000000000000600052604160045260246000fd5b620001d48262000189565b810181811067ffffffffffffffff82111715620001f657620001f56200019a565b5b80604052505050565b60006200020b6200016b565b9050620002198282620001c9565b919050565b600067ffffffffffffffff8211156200023c576200023b6200019a565b5b620002478262000189565b9050602081019050919050565b60005b838110156200027457808201518184015260208101905062000257565b8381111562000284576000848401525b50505050565b6000620002a16200029b846200021e565b620001ff565b905082815260208101848484011115620002c057620002bf62000184565b5b620002cd84828562000254565b509392505050565b600082601f830112620002ed57620002ec6200017f565b5b8151620002ff8482602086016200028a565b91505092915050565b60006020828403121562000321576200032062000175565b5b600082015167ffffffffffffffff8111156200034257620003416200017a565b5b6200035084828501620002d5565b91505092915050565b7f4e487b7100000000000000000000000000000000000000000000000000000000600052602260045260246000fd5b60006002820490506001821680620003a157607f821691505b60208210811415620003b857620003b762000359565b5b50919050565b6106e180620003ce6000396000f3fe608060405234801561001057600080fd5b50600436106100575760003560e01c8063104d01121461005c57806357b1ad421461007a5780638da5cb5b14610098578063a4136862146100b6578063cfae3217146100d2575b600080fd5b6100646100f0565b604051610071919061031a565b60405180910390f35b6100826100fa565b60405161008f919061031a565b60405180910390f35b6100a0610100565b6040516100ad9190610376565b60405180910390f35b6100d060048036038101906100cb91906104eb565b610124565b005b6100da6101cc565b6040516100e791906105bc565b60405180910390f35b6000600254905090565b60025481565b60008054906101000a900473ffffffffffffffffffffffffffffffffffffffff1681565b60008054906101000a900473ffffffffffffffffffffffffffffffffffffffff1673ffffffffffffffffffffffffffffffffffffffff163373ffffffffffffffffffffffffffffffffffffffff16146101b2576040517f08c379a00000000000000000000000000000000000000000000000000000000081526004016101a99061062a565b60405180910390fd5b80600190805190602001906101c892919061025e565b5050565b6060600180546101db90610679565b80601f016020809104026020016040519081016040528092919081815260200182805461020790610679565b80156102545780601f1061022957610100808354040283529160200191610254565b820191906000526020600020905b81548152906001019060200180831161023757829003601f168201915b5050505050905090565b82805461026a90610679565b90600052602060002090601f01602090048101928261028c57600085556102d3565b82601f106102a557805160ff19168380011785556102d3565b828001600101855582156102d3579182015b828111156102d25782518255916020019190600101906102b7565b5b5090506102e091906102e4565b5090565b5b808211156102fd5760008160009055506001016102e5565b5090565b6000819050919050565b61031481610301565b82525050565b600060208201905061032f600083018461030b565b92915050565b600073ffffffffffffffffffffffffffffffffffffffff82169050919050565b600061036082610335565b9050919050565b61037081610355565b82525050565b600060208201905061038b6000830184610367565b92915050565b6000604051905090565b600080fd5b600080fd5b600080fd5b600080fd5b6000601f19601f8301169050919050565b7f4e487b7100000000000000000000000000000000000000000000000000000000600052604160045260246000fd5b6103f8826103af565b810181811067ffffffffffffffff82111715610417576104166103c0565b5b80604052505050565b600061042a610391565b905061043682826103ef565b919050565b600067ffffffffffffffff821115610456576104556103c0565b5b61045f826103af565b9050602081019050919050565b82818337600083830152505050565b600061048e6104898461043b565b610420565b9050828152602081018484840111156104aa576104a96103aa565b5b6104b584828561046c565b509392505050565b600082601f8301126104d2576104d16103a5565b5b81356104e284826020860161047b565b91505092915050565b6000602082840312156105015761050061039b565b5b600082013567ffffffffffffffff81111561051f5761051e6103a0565b5b61052b848285016104bd565b91505092915050565b600081519050919050565b600082825260208201905092915050565b60005b8381101561056e578082015181840152602081019050610553565b8381111561057d576000848401525b50505050565b600061058e82610534565b610598818561053f565b93506105a8818560208601610550565b6105b1816103af565b840191505092915050565b600060208201905081810360008301526105d68184610583565b905092915050565b7f6572726f72000000000000000000000000000000000000000000000000000000600082015250565b600061061460058361053f565b915061061f826105de565b602082019050919050565b6000602082019050818103600083015261064381610607565b9050919050565b7f4e487b7100000000000000000000000000000000000000000000000000000000600052602260045260246000fd5b6000600282049050600182168061069157607f821691505b602082108114156106a5576106a461064a565b5b5091905056fea2646970667358221220c554e890142bb8972a86fd02e72770acab25d219634b4e8d1413aeec90a3bfbb64736f6c63430008090033",
  "linkReferences": {},
  "deployedLinkReferences": {}
}