{
  "_format": "hh-sol-artifact-1",
  "contractName": "MyGovernor1",
  "sourceName": "contracts/oz/mocks/wizard/MyGovernor1.sol",
  "abi": [
    {
      "inputs": [
        {
          "internalType": "contract ERC20Votes",
          "name": "_token",
          "type": "address"
        },
        {
          "internalType": "contract TimelockController",
          "name": "_timelock",
          "type": "address"
        }
      ],
      "stateMutability": "nonpayable",
      "type": "constructor"
    },
    {
      "anonymous": false,
      "inputs": [
        {
          "indexed": false,
          "internalType": "uint256",
          "name": "proposalId",
          "type": "uint256"
        }
      ],
      "name": "ProposalCanceled",
      "type": "event"
    },
    {
      "anonymous": false,
      "inputs": [
        {
          "indexed": false,
          "internalType": "uint256",
          "name": "proposalId",
          "type": "uint256"
        },
        {
          "indexed": false,
          "internalType": "address",
          "name": "proposer",
          "type": "address"
        },
        {
          "indexed": false,
          "internalType": "address[]",
          "name": "targets",
          "type": "address[]"
        },
        {
          "indexed": false,
          "internalType": "uint256[]",
          "name": "values",
          "type": "uint256[]"
        },
        {
          "indexed": false,
          "internalType": "string[]",
          "name": "signatures",
          "type": "string[]"
        },
        {
          "indexed": false,
          "internalType": "bytes[]",
          "name": "calldatas",
          "type": "bytes[]"
        },
        {
          "indexed": false,
          "internalType": "uint256",
          "name": "startBlock",
          "type": "uint256"
        },
        {
          "indexed": false,
          "internalType": "uint256",
          "name": "endBlock",
          "type": "uint256"
        },
        {
          "indexed": false,
          "internalType": "string",
          "name": "description",
          "type": "string"
        }
      ],
      "name": "ProposalCreated",
      "type": "event"
    },
    {
      "anonymous": false,
      "inputs": [
        {
          "indexed": false,
          "internalType": "uint256",
          "name": "proposalId",
          "type": "uint256"
        }
      ],
      "name": "ProposalExecuted",
      "type": "event"
    },
    {
      "anonymous": false,
      "inputs": [
        {
          "indexed": false,
          "internalType": "uint256",
          "name": "proposalId",
          "type": "uint256"
        },
        {
          "indexed": false,
          "internalType": "uint256",
          "name": "eta",
          "type": "uint256"
        }
      ],
      "name": "ProposalQueued",
      "type": "event"
    },
    {
      "anonymous": false,
      "inputs": [
        {
          "indexed": false,
          "internalType": "uint256",
          "name": "oldQuorumNumerator",
          "type": "uint256"
        },
        {
          "indexed": false,
          "internalType": "uint256",
          "name": "newQuorumNumerator",
          "type": "uint256"
        }
      ],
      "name": "QuorumNumeratorUpdated",
      "type": "event"
    },
    {
      "anonymous": false,
      "inputs": [
        {
          "indexed": false,
          "internalType": "address",
          "name": "oldTimelock",
          "type": "address"
        },
        {
          "indexed": false,
          "internalType": "address",
          "name": "newTimelock",
          "type": "address"
        }
      ],
      "name": "TimelockChange",
      "type": "event"
    },
    {
      "anonymous": false,
      "inputs": [
        {
          "indexed": true,
          "internalType": "address",
          "name": "voter",
          "type": "address"
        },
        {
          "indexed": false,
          "internalType": "uint256",
          "name": "proposalId",
          "type": "uint256"
        },
        {
          "indexed": false,
          "internalType": "uint8",
          "name": "support",
          "type": "uint8"
        },
        {
          "indexed": false,
          "internalType": "uint256",
          "name": "weight",
          "type": "uint256"
        },
        {
          "indexed": false,
          "internalType": "string",
          "name": "reason",
          "type": "string"
        }
      ],
      "name": "VoteCast",
      "type": "event"
    },
    {
      "inputs": [],
      "name": "BALLOT_TYPEHASH",
      "outputs": [
        {
          "internalType": "bytes32",
          "name": "",
          "type": "bytes32"
        }
      ],
      "stateMutability": "view",
      "type": "function"
    },
    {
      "inputs": [],
      "name": "COUNTING_MODE",
      "outputs": [
        {
          "internalType": "string",
          "name": "",
          "type": "string"
        }
      ],
      "stateMutability": "pure",
      "type": "function"
    },
    {
      "inputs": [
        {
          "internalType": "uint256",
          "name": "proposalId",
          "type": "uint256"
        },
        {
          "internalType": "uint8",
          "name": "support",
          "type": "uint8"
        }
      ],
      "name": "castVote",
      "outputs": [
        {
          "internalType": "uint256",
          "name": "",
          "type": "uint256"
        }
      ],
      "stateMutability": "nonpayable",
      "type": "function"
    },
    {
      "inputs": [
        {
          "internalType": "uint256",
          "name": "proposalId",
          "type": "uint256"
        },
        {
          "internalType": "uint8",
          "name": "support",
          "type": "uint8"
        },
        {
          "internalType": "uint8",
          "name": "v",
          "type": "uint8"
        },
        {
          "internalType": "bytes32",
          "name": "r",
          "type": "bytes32"
        },
        {
          "internalType": "bytes32",
          "name": "s",
          "type": "bytes32"
        }
      ],
      "name": "castVoteBySig",
      "outputs": [
        {
          "internalType": "uint256",
          "name": "",
          "type": "uint256"
        }
      ],
      "stateMutability": "nonpayable",
      "type": "function"
    },
    {
      "inputs": [
        {
          "internalType": "uint256",
          "name": "proposalId",
          "type": "uint256"
        },
        {
          "internalType": "uint8",
          "name": "support",
          "type": "uint8"
        },
        {
          "internalType": "string",
          "name": "reason",
          "type": "string"
        }
      ],
      "name": "castVoteWithReason",
      "outputs": [
        {
          "internalType": "uint256",
          "name": "",
          "type": "uint256"
        }
      ],
      "stateMutability": "nonpayable",
      "type": "function"
    },
    {
      "inputs": [
        {
          "internalType": "address[]",
          "name": "targets",
          "type": "address[]"
        },
        {
          "internalType": "uint256[]",
          "name": "values",
          "type": "uint256[]"
        },
        {
          "internalType": "bytes[]",
          "name": "calldatas",
          "type": "bytes[]"
        },
        {
          "internalType": "bytes32",
          "name": "descriptionHash",
          "type": "bytes32"
        }
      ],
      "name": "execute",
      "outputs": [
        {
          "internalType": "uint256",
          "name": "",
          "type": "uint256"
        }
      ],
      "stateMutability": "payable",
      "type": "function"
    },
    {
      "inputs": [
        {
          "internalType": "address",
          "name": "account",
          "type": "address"
        },
        {
          "internalType": "uint256",
          "name": "blockNumber",
          "type": "uint256"
        }
      ],
      "name": "getVotes",
      "outputs": [
        {
          "internalType": "uint256",
          "name": "",
          "type": "uint256"
        }
      ],
      "stateMutability": "view",
      "type": "function"
    },
    {
      "inputs": [
        {
          "internalType": "uint256",
          "name": "proposalId",
          "type": "uint256"
        },
        {
          "internalType": "address",
          "name": "account",
          "type": "address"
        }
      ],
      "name": "hasVoted",
      "outputs": [
        {
          "internalType": "bool",
          "name": "",
          "type": "bool"
        }
      ],
      "stateMutability": "view",
      "type": "function"
    },
    {
      "inputs": [
        {
          "internalType": "address[]",
          "name": "targets",
          "type": "address[]"
        },
        {
          "internalType": "uint256[]",
          "name": "values",
          "type": "uint256[]"
        },
        {
          "internalType": "bytes[]",
          "name": "calldatas",
          "type": "bytes[]"
        },
        {
          "internalType": "bytes32",
          "name": "descriptionHash",
          "type": "bytes32"
        }
      ],
      "name": "hashProposal",
      "outputs": [
        {
          "internalType": "uint256",
          "name": "",
          "type": "uint256"
        }
      ],
      "stateMutability": "pure",
      "type": "function"
    },
    {
      "inputs": [],
      "name": "name",
      "outputs": [
        {
          "internalType": "string",
          "name": "",
          "type": "string"
        }
      ],
      "stateMutability": "view",
      "type": "function"
    },
    {
      "inputs": [
        {
          "internalType": "uint256",
          "name": "proposalId",
          "type": "uint256"
        }
      ],
      "name": "proposalDeadline",
      "outputs": [
        {
          "internalType": "uint256",
          "name": "",
          "type": "uint256"
        }
      ],
      "stateMutability": "view",
      "type": "function"
    },
    {
      "inputs": [
        {
          "internalType": "uint256",
          "name": "proposalId",
          "type": "uint256"
        }
      ],
      "name": "proposalEta",
      "outputs": [
        {
          "internalType": "uint256",
          "name": "",
          "type": "uint256"
        }
      ],
      "stateMutability": "view",
      "type": "function"
    },
    {
      "inputs": [
        {
          "internalType": "uint256",
          "name": "proposalId",
          "type": "uint256"
        }
      ],
      "name": "proposalSnapshot",
      "outputs": [
        {
          "internalType": "uint256",
          "name": "",
          "type": "uint256"
        }
      ],
      "stateMutability": "view",
      "type": "function"
    },
    {
      "inputs": [],
      "name": "proposalThreshold",
      "outputs": [
        {
          "internalType": "uint256",
          "name": "",
          "type": "uint256"
        }
      ],
      "stateMutability": "view",
      "type": "function"
    },
    {
      "inputs": [
        {
          "internalType": "uint256",
          "name": "proposalId",
          "type": "uint256"
        }
      ],
      "name": "proposalVotes",
      "outputs": [
        {
          "internalType": "uint256",
          "name": "againstVotes",
          "type": "uint256"
        },
        {
          "internalType": "uint256",
          "name": "forVotes",
          "type": "uint256"
        },
        {
          "internalType": "uint256",
          "name": "abstainVotes",
          "type": "uint256"
        }
      ],
      "stateMutability": "view",
      "type": "function"
    },
    {
      "inputs": [
        {
          "internalType": "address[]",
          "name": "targets",
          "type": "address[]"
        },
        {
          "internalType": "uint256[]",
          "name": "values",
          "type": "uint256[]"
        },
        {
          "internalType": "bytes[]",
          "name": "calldatas",
          "type": "bytes[]"
        },
        {
          "internalType": "string",
          "name": "description",
          "type": "string"
        }
      ],
      "name": "propose",
      "outputs": [
        {
          "internalType": "uint256",
          "name": "",
          "type": "uint256"
        }
      ],
      "stateMutability": "nonpayable",
      "type": "function"
    },
    {
      "inputs": [
        {
          "internalType": "address[]",
          "name": "targets",
          "type": "address[]"
        },
        {
          "internalType": "uint256[]",
          "name": "values",
          "type": "uint256[]"
        },
        {
          "internalType": "bytes[]",
          "name": "calldatas",
          "type": "bytes[]"
        },
        {
          "internalType": "bytes32",
          "name": "descriptionHash",
          "type": "bytes32"
        }
      ],
      "name": "queue",
      "outputs": [
        {
          "internalType": "uint256",
          "name": "",
          "type": "uint256"
        }
      ],
      "stateMutability": "nonpayable",
      "type": "function"
    },
    {
      "inputs": [
        {
          "internalType": "uint256",
          "name": "blockNumber",
          "type": "uint256"
        }
      ],
      "name": "quorum",
      "outputs": [
        {
          "internalType": "uint256",
          "name": "",
          "type": "uint256"
        }
      ],
      "stateMutability": "view",
      "type": "function"
    },
    {
      "inputs": [],
      "name": "quorumDenominator",
      "outputs": [
        {
          "internalType": "uint256",
          "name": "",
          "type": "uint256"
        }
      ],
      "stateMutability": "view",
      "type": "function"
    },
    {
      "inputs": [],
      "name": "quorumNumerator",
      "outputs": [
        {
          "internalType": "uint256",
          "name": "",
          "type": "uint256"
        }
      ],
      "stateMutability": "view",
      "type": "function"
    },
    {
      "inputs": [
        {
          "internalType": "uint256",
          "name": "proposalId",
          "type": "uint256"
        }
      ],
      "name": "state",
      "outputs": [
        {
          "internalType": "enum IGovernor.ProposalState",
          "name": "",
          "type": "uint8"
        }
      ],
      "stateMutability": "view",
      "type": "function"
    },
    {
      "inputs": [
        {
          "internalType": "bytes4",
          "name": "interfaceId",
          "type": "bytes4"
        }
      ],
      "name": "supportsInterface",
      "outputs": [
        {
          "internalType": "bool",
          "name": "",
          "type": "bool"
        }
      ],
      "stateMutability": "view",
      "type": "function"
    },
    {
      "inputs": [],
      "name": "timelock",
      "outputs": [
        {
          "internalType": "address",
          "name": "",
          "type": "address"
        }
      ],
      "stateMutability": "view",
      "type": "function"
    },
    {
      "inputs": [],
      "name": "token",
      "outputs": [
        {
          "internalType": "contract ERC20Votes",
          "name": "",
          "type": "address"
        }
      ],
      "stateMutability": "view",
      "type": "function"
    },
    {
      "inputs": [
        {
          "internalType": "uint256",
          "name": "newQuorumNumerator",
          "type": "uint256"
        }
      ],
      "name": "updateQuorumNumerator",
      "outputs": [],
      "stateMutability": "nonpayable",
      "type": "function"
    },
    {
      "inputs": [
        {
          "internalType": "contract TimelockController",
          "name": "newTimelock",
          "type": "address"
        }
      ],
      "name": "updateTimelock",
      "outputs": [],
      "stateMutability": "nonpayable",
      "type": "function"
    },
    {
      "inputs": [],
      "name": "version",
      "outputs": [
        {
          "internalType": "string",
          "name": "",
          "type": "string"
        }
      ],
      "stateMutability": "view",
      "type": "function"
    },
    {
      "inputs": [],
      "name": "votingDelay",
      "outputs": [
        {
          "internalType": "uint256",
          "name": "",
          "type": "uint256"
        }
      ],
      "stateMutability": "pure",
      "type": "function"
    },
    {
      "inputs": [],
      "name": "votingPeriod",
      "outputs": [
        {
          "internalType": "uint256",
          "name": "",
          "type": "uint256"
        }
      ],
      "stateMutability": "pure",
      "type": "function"
    },
    {
      "stateMutability": "payable",
      "type": "receive"
    }
  ],
  "bytecode": "0x6101606040523480156200001257600080fd5b5060405162005063380380620050638339818101604052810190620000389190620004fd565b600482826040518060400160405280600a81526020017f4d79476f7665726e6f72000000000000000000000000000000000000000000008152508062000083620001b160201b60201c565b60008280519060200120905060008280519060200120905060007f8b73c3c69bb8fe3d512ecc4cf759cc79239f7b179b0ffacaa9a75d522b39400f90508260e081815250508161010081815250504660a08181525050620000ec818484620001ee60201b60201c565b608081815250503073ffffffffffffffffffffffffffffffffffffffff1660c08173ffffffffffffffffffffffffffffffffffffffff1681525050806101208181525050505050505080600090805190602001906200014d92919062000376565b505062000160816200022a60201b60201c565b508073ffffffffffffffffffffffffffffffffffffffff166101408173ffffffffffffffffffffffffffffffffffffffff168152505050620001a881620002cb60201b60201c565b50505062000776565b60606040518060400160405280600181526020017f3100000000000000000000000000000000000000000000000000000000000000815250905090565b600083838346306040516020016200020b9594939291906200058b565b6040516020818303038152906040528051906020012090509392505050565b7f08f74ea46ef7894f65eabfb5e6e695de773a000b47c529ab559178069b226401600260009054906101000a900473ffffffffffffffffffffffffffffffffffffffff16826040516200027f929190620005e8565b60405180910390a180600260006101000a81548173ffffffffffffffffffffffffffffffffffffffff021916908373ffffffffffffffffffffffffffffffffffffffff16021790555050565b620002db6200036d60201b60201c565b81111562000320576040517f08c379a00000000000000000000000000000000000000000000000000000000081526004016200031790620006c2565b60405180910390fd5b60006004549050816004819055507f0553476bf02ef2726e8ce5ced78d63e26e602e4a2257b1f559418e24b4633997818360405162000361929190620006e4565b60405180910390a15050565b60006064905090565b828054620003849062000740565b90600052602060002090601f016020900481019282620003a85760008555620003f4565b82601f10620003c357805160ff1916838001178555620003f4565b82800160010185558215620003f4579182015b82811115620003f3578251825591602001919060010190620003d6565b5b50905062000403919062000407565b5090565b5b808211156200042257600081600090555060010162000408565b5090565b600080fd5b600073ffffffffffffffffffffffffffffffffffffffff82169050919050565b600062000458826200042b565b9050919050565b60006200046c826200044b565b9050919050565b6200047e816200045f565b81146200048a57600080fd5b50565b6000815190506200049e8162000473565b92915050565b6000620004b1826200042b565b9050919050565b6000620004c582620004a4565b9050919050565b620004d781620004b8565b8114620004e357600080fd5b50565b600081519050620004f781620004cc565b92915050565b6000806040838503121562000517576200051662000426565b5b600062000527858286016200048d565b92505060206200053a85828601620004e6565b9150509250929050565b6000819050919050565b620005598162000544565b82525050565b6000819050919050565b62000574816200055f565b82525050565b62000585816200044b565b82525050565b600060a082019050620005a260008301886200054e565b620005b160208301876200054e565b620005c060408301866200054e565b620005cf606083018562000569565b620005de60808301846200057a565b9695505050505050565b6000604082019050620005ff60008301856200057a565b6200060e60208301846200057a565b9392505050565b600082825260208201905092915050565b7f476f7665726e6f72566f74657351756f72756d4672616374696f6e3a2071756f60008201527f72756d4e756d657261746f72206f7665722071756f72756d44656e6f6d696e6160208201527f746f720000000000000000000000000000000000000000000000000000000000604082015250565b6000620006aa60438362000615565b9150620006b78262000626565b606082019050919050565b60006020820190508181036000830152620006dd816200069b565b9050919050565b6000604082019050620006fb600083018562000569565b6200070a602083018462000569565b9392505050565b7f4e487b7100000000000000000000000000000000000000000000000000000000600052602260045260246000fd5b600060028204905060018216806200075957607f821691505b6020821081141562000770576200076f62000711565b5b50919050565b60805160a05160c05160e051610100516101205161014051614884620007df600039600081816112ce01528181611ac60152611b8b01526000611e1301526000611e5501526000611e3401526000611d6901526000611dbf01526000611de801526148846000f3fe6080604052600436106101c65760003560e01c80637b3c71d3116100f7578063c01f9e3711610095578063deaaa7cc11610064578063deaaa7cc14610731578063eb9019d41461075c578063f8ce560a14610799578063fc0c546a146107d65761020c565b8063c01f9e3714610661578063c59057e41461069e578063d33219b4146106db578063dd4e2ba5146107065761020c565b8063a7713a70116100d1578063a7713a70146105a5578063a890c910146105d0578063ab58fb8e146105f9578063b58131b0146106365761020c565b80637b3c71d3146105005780637d5e81e21461053d57806397c3d3341461057a5761020c565b80633932abb111610164578063438596321161013e578063438596321461041c578063544ffc9c1461045957806354fd4d501461049857806356781388146104c35761020c565b80633932abb1146103775780633bccf4fd146103a25780633e4f49e6146103df5761020c565b806306fdde03116101a057806306fdde03146102a2578063160cbed7146102cd5780632656227d1461030a5780632d63f6931461033a5761020c565b806301ffc9a71461021157806302a251a31461024e57806306f3f9e6146102795761020c565b3661020c573073ffffffffffffffffffffffffffffffffffffffff166101ea610801565b73ffffffffffffffffffffffffffffffffffffffff161461020a57600080fd5b005b600080fd5b34801561021d57600080fd5b50610238600480360381019061023391906127df565b610810565b6040516102459190612827565b60405180910390f35b34801561025a57600080fd5b50610263610822565b604051610270919061285b565b60405180910390f35b34801561028557600080fd5b506102a0600480360381019061029b91906128a2565b61082c565b005b3480156102ae57600080fd5b506102b76108b4565b6040516102c49190612968565b60405180910390f35b3480156102d957600080fd5b506102f460048036038101906102ef9190612dbf565b610946565b604051610301919061285b565b60405180910390f35b610324600480360381019061031f9190612dbf565b610c1e565b604051610331919061285b565b60405180910390f35b34801561034657600080fd5b50610361600480360381019061035c91906128a2565b610d51565b60405161036e919061285b565b60405180910390f35b34801561038357600080fd5b5061038c610dbf565b604051610399919061285b565b60405180910390f35b3480156103ae57600080fd5b506103c960048036038101906103c49190612eb3565b610dc8565b6040516103d6919061285b565b60405180910390f35b3480156103eb57600080fd5b50610406600480360381019061040191906128a2565b610e52565b6040516104139190612fa5565b60405180910390f35b34801561042857600080fd5b50610443600480360381019061043e9190612fc0565b610e64565b6040516104509190612827565b60405180910390f35b34801561046557600080fd5b50610480600480360381019061047b91906128a2565b610ecf565b60405161048f93929190613000565b60405180910390f35b3480156104a457600080fd5b506104ad610f07565b6040516104ba9190612968565b60405180910390f35b3480156104cf57600080fd5b506104ea60048036038101906104e59190613037565b610f44565b6040516104f7919061285b565b60405180910390f35b34801561050c57600080fd5b50610527600480360381019061052291906130d2565b610f75565b604051610534919061285b565b60405180910390f35b34801561054957600080fd5b50610564600480360381019061055f91906131e7565b610fdd565b604051610571919061285b565b60405180910390f35b34801561058657600080fd5b5061058f610ff5565b60405161059c919061285b565b60405180910390f35b3480156105b157600080fd5b506105ba610ffe565b6040516105c7919061285b565b60405180910390f35b3480156105dc57600080fd5b506105f760048036038101906105f2919061330e565b611008565b005b34801561060557600080fd5b50610620600480360381019061061b91906128a2565b611090565b60405161062d919061285b565b60405180910390f35b34801561064257600080fd5b5061064b61116c565b604051610658919061285b565b60405180910390f35b34801561066d57600080fd5b50610688600480360381019061068391906128a2565b611171565b604051610695919061285b565b60405180910390f35b3480156106aa57600080fd5b506106c560048036038101906106c09190612dbf565b6111df565b6040516106d2919061285b565b60405180910390f35b3480156106e757600080fd5b506106f061121b565b6040516106fd919061334a565b60405180910390f35b34801561071257600080fd5b5061071b611245565b6040516107289190612968565b60405180910390f35b34801561073d57600080fd5b50610746611282565b6040516107539190613374565b60405180910390f35b34801561076857600080fd5b50610783600480360381019061077e919061338f565b6112a6565b604051610790919061285b565b60405180910390f35b3480156107a557600080fd5b506107c060048036038101906107bb91906128a2565b6112ba565b6040516107cd919061285b565b60405180910390f35b3480156107e257600080fd5b506107eb6112cc565b6040516107f8919061342e565b60405180910390f35b600061080b6112f0565b905090565b600061081b8261131a565b9050919050565b600061b2fa905090565b610834610801565b73ffffffffffffffffffffffffffffffffffffffff16610852611394565b73ffffffffffffffffffffffffffffffffffffffff16146108a8576040517f08c379a000000000000000000000000000000000000000000000000000000000815260040161089f90613495565b60405180910390fd5b6108b18161139c565b50565b6060600080546108c3906134e4565b80601f01602080910402602001604051908101604052809291908181526020018280546108ef906134e4565b801561093c5780601f106109115761010080835404028352916020019161093c565b820191906000526020600020905b81548152906001019060200180831161091f57829003601f168201915b5050505050905090565b600080610955868686866111df565b90506004600781111561096b5761096a612f2e565b5b61097482610e52565b600781111561098657610985612f2e565b5b146109c6576040517f08c379a00000000000000000000000000000000000000000000000000000000081526004016109bd90613588565b60405180910390fd5b6000600260009054906101000a900473ffffffffffffffffffffffffffffffffffffffff1673ffffffffffffffffffffffffffffffffffffffff1663f27a0c926040518163ffffffff1660e01b815260040160206040518083038186803b158015610a3057600080fd5b505afa158015610a44573d6000803e3d6000fd5b505050506040513d601f19601f82011682018060405250810190610a6891906135bd565b9050600260009054906101000a900473ffffffffffffffffffffffffffffffffffffffff1673ffffffffffffffffffffffffffffffffffffffff1663b1c5f4278888886000896040518663ffffffff1660e01b8152600401610ace9594939291906138c5565b60206040518083038186803b158015610ae657600080fd5b505afa158015610afa573d6000803e3d6000fd5b505050506040513d601f19601f82011682018060405250810190610b1e9190613942565b6003600084815260200190815260200160002081905550600260009054906101000a900473ffffffffffffffffffffffffffffffffffffffff1673ffffffffffffffffffffffffffffffffffffffff16638f2a0bb0888888600089876040518763ffffffff1660e01b8152600401610b9b9695949392919061396f565b600060405180830381600087803b158015610bb557600080fd5b505af1158015610bc9573d6000803e3d6000fd5b505050507f9a2e42fd6722813d69113e7d0079d3d940171428df7373df9c7f7617cfda2892828242610bfb9190613a14565b604051610c09929190613a6a565b60405180910390a18192505050949350505050565b600080610c2d868686866111df565b90506000610c3a82610e52565b905060046007811115610c5057610c4f612f2e565b5b816007811115610c6357610c62612f2e565b5b1480610c93575060056007811115610c7e57610c7d612f2e565b5b816007811115610c9157610c90612f2e565b5b145b610cd2576040517f08c379a0000000000000000000000000000000000000000000000000000000008152600401610cc990613588565b60405180910390fd5b600180600084815260200190815260200160002060020160006101000a81548160ff0219169083151502179055507f712ae1383f79ac853f8d882153778e0260ef8f03b504e2866e0593e04d2b291f82604051610d2f919061285b565b60405180910390a1610d448288888888611431565b8192505050949350505050565b6000610dae600160008481526020019081526020016000206000016040518060200160405290816000820160009054906101000a900467ffffffffffffffff1667ffffffffffffffff1667ffffffffffffffff1681525050611445565b67ffffffffffffffff169050919050565b60006001905090565b600080610e29610e217f150214d74d59b7d1e90c73fc22ef3d991dd0a76b046543d4d80ab92d2a50328f8989604051602001610e0693929190613aa2565b60405160208183030381529060405280519060200120611453565b86868661146d565b9050610e4687828860405180602001604052806000815250611498565b91505095945050505050565b6000610e5d826115ec565b9050919050565b60006005600084815260200190815260200160002060030160008373ffffffffffffffffffffffffffffffffffffffff1673ffffffffffffffffffffffffffffffffffffffff16815260200190815260200160002060009054906101000a900460ff16905092915050565b600080600080600560008681526020019081526020016000209050806000015481600101548260020154935093509350509193909250565b60606040518060400160405280600181526020017f3100000000000000000000000000000000000000000000000000000000000000815250905090565b600080610f4f611394565b9050610f6c84828560405180602001604052806000815250611498565b91505092915050565b600080610f80611394565b9050610fd286828787878080601f016020809104026020016040519081016040528093929190818152602001838380828437600081840152601f19601f82011690508083019250505050505050611498565b915050949350505050565b6000610feb85858585611723565b9050949350505050565b60006064905090565b6000600454905090565b611010610801565b73ffffffffffffffffffffffffffffffffffffffff1661102e611394565b73ffffffffffffffffffffffffffffffffffffffff1614611084576040517f08c379a000000000000000000000000000000000000000000000000000000000815260040161107b90613495565b60405180910390fd5b61108d81611a23565b50565b600080600260009054906101000a900473ffffffffffffffffffffffffffffffffffffffff1673ffffffffffffffffffffffffffffffffffffffff1663d45c443560036000868152602001908152602001600020546040518263ffffffff1660e01b81526004016111019190613374565b60206040518083038186803b15801561111957600080fd5b505afa15801561112d573d6000803e3d6000fd5b505050506040513d601f19601f8201168201806040525081019061115191906135bd565b9050600181146111615780611164565b60005b915050919050565b600090565b60006111ce600160008481526020019081526020016000206001016040518060200160405290816000820160009054906101000a900467ffffffffffffffff1667ffffffffffffffff1667ffffffffffffffff1681525050611445565b67ffffffffffffffff169050919050565b6000848484846040516020016111f89493929190613ad9565b6040516020818303038152906040528051906020012060001c9050949350505050565b6000600260009054906101000a900473ffffffffffffffffffffffffffffffffffffffff16905090565b60606040518060400160405280602081526020017f737570706f72743d627261766f2671756f72756d3d666f722c6162737461696e815250905090565b7f150214d74d59b7d1e90c73fc22ef3d991dd0a76b046543d4d80ab92d2a50328f81565b60006112b28383611ac2565b905092915050565b60006112c582611b77565b9050919050565b7f000000000000000000000000000000000000000000000000000000000000000081565b6000600260009054906101000a900473ffffffffffffffffffffffffffffffffffffffff16905090565b60007f6e665ced000000000000000000000000000000000000000000000000000000007bffffffffffffffffffffffffffffffffffffffffffffffffffffffff1916827bffffffffffffffffffffffffffffffffffffffffffffffffffffffff1916148061138d575061138c82611c4d565b5b9050919050565b600033905090565b6113a4610ff5565b8111156113e6576040517f08c379a00000000000000000000000000000000000000000000000000000000081526004016113dd90613bcb565b60405180910390fd5b60006004549050816004819055507f0553476bf02ef2726e8ce5ced78d63e26e602e4a2257b1f559418e24b46339978183604051611425929190613a6a565b60405180910390a15050565b61143e8585858585611cc7565b5050505050565b600081600001519050919050565b6000611466611460611d65565b83611e7f565b9050919050565b600080600061147e87878787611eb2565b9150915061148b81611fbf565b8192505050949350505050565b600080600160008781526020019081526020016000209050600160078111156114c4576114c3612f2e565b5b6114cd87610e52565b60078111156114df576114de612f2e565b5b1461151f576040517f08c379a000000000000000000000000000000000000000000000000000000000815260040161151690613c5d565b60405180910390fd5b600061157d8661156e846000016040518060200160405290816000820160009054906101000a900467ffffffffffffffff1667ffffffffffffffff1667ffffffffffffffff1681525050611445565b67ffffffffffffffff166112a6565b905061158b87878784612194565b8573ffffffffffffffffffffffffffffffffffffffff167fb8e138887d0aa13bab447e82de9d5c1777041ecd21ca36ba824ff1e6c07ddda4888784886040516115d79493929190613c7d565b60405180910390a28092505050949350505050565b6000806115f88361239a565b90506004600781111561160e5761160d612f2e565b5b81600781111561162157611620612f2e565b5b1461162f578091505061171e565b6000600360008581526020019081526020016000205490506000801b81141561165c57819250505061171e565b600260009054906101000a900473ffffffffffffffffffffffffffffffffffffffff1673ffffffffffffffffffffffffffffffffffffffff16632ab0f529826040518263ffffffff1660e01b81526004016116b79190613374565b60206040518083038186803b1580156116cf57600080fd5b505afa1580156116e3573d6000803e3d6000fd5b505050506040513d601f19601f820116820180604052508101906117079190613cf5565b156117175760079250505061171e565b6005925050505b919050565b600061172d61116c565b6117433360014361173e9190613d22565b6112a6565b1015611784576040517f08c379a000000000000000000000000000000000000000000000000000000000815260040161177b90613dee565b60405180910390fd5b600061179986868686805190602001206111df565b905084518651146117df576040517f08c379a00000000000000000000000000000000000000000000000000000000081526004016117d690613e80565b60405180910390fd5b8351865114611823576040517f08c379a000000000000000000000000000000000000000000000000000000000815260040161181a90613e80565b60405180910390fd5b6000865111611867576040517f08c379a000000000000000000000000000000000000000000000000000000000815260040161185e90613eec565b60405180910390fd5b60006001600083815260200190815260200160002090506118c7816000016040518060200160405290816000820160009054906101000a900467ffffffffffffffff1667ffffffffffffffff1667ffffffffffffffff1681525050612577565b611906576040517f08c379a00000000000000000000000000000000000000000000000000000000081526004016118fd90613f7e565b60405180910390fd5b6000611918611913610dbf565b612591565b61192143612591565b61192b9190613fb2565b9050600061193f61193a610822565b612591565b8261194a9190613fb2565b905061196282846000016125e890919063ffffffff16565b61197881846001016125e890919063ffffffff16565b7f7d84a6263ae0d98d3329bd7b46bb4e8d6f98cd35a7adb45c274c8b7fd5ebd5e0846119a2611394565b8b8b8d5167ffffffffffffffff8111156119bf576119be61298f565b5b6040519080825280602002602001820160405280156119f257816020015b60608152602001906001900390816119dd5790505b508c88888e604051611a0c9998979695949392919061412d565b60405180910390a183945050505050949350505050565b7f08f74ea46ef7894f65eabfb5e6e695de773a000b47c529ab559178069b226401600260009054906101000a900473ffffffffffffffffffffffffffffffffffffffff1682604051611a769291906141dd565b60405180910390a180600260006101000a81548173ffffffffffffffffffffffffffffffffffffffff021916908373ffffffffffffffffffffffffffffffffffffffff16021790555050565b60007f000000000000000000000000000000000000000000000000000000000000000073ffffffffffffffffffffffffffffffffffffffff16633a46b1a884846040518363ffffffff1660e01b8152600401611b1f929190614206565b60206040518083038186803b158015611b3757600080fd5b505afa158015611b4b573d6000803e3d6000fd5b505050506040513d601f19601f82011682018060405250810190611b6f91906135bd565b905092915050565b6000611b81610ff5565b611b89610ffe565b7f000000000000000000000000000000000000000000000000000000000000000073ffffffffffffffffffffffffffffffffffffffff16638e539e8c856040518263ffffffff1660e01b8152600401611be2919061285b565b60206040518083038186803b158015611bfa57600080fd5b505afa158015611c0e573d6000803e3d6000fd5b505050506040513d601f19601f82011682018060405250810190611c3291906135bd565b611c3c919061422f565b611c4691906142b8565b9050919050565b60007fbf26d897000000000000000000000000000000000000000000000000000000007bffffffffffffffffffffffffffffffffffffffffffffffffffffffff1916827bffffffffffffffffffffffffffffffffffffffffffffffffffffffff19161480611cc05750611cbf82612617565b5b9050919050565b600260009054906101000a900473ffffffffffffffffffffffffffffffffffffffff1673ffffffffffffffffffffffffffffffffffffffff1663e38335e5348686866000876040518763ffffffff1660e01b8152600401611d2c9594939291906138c5565b6000604051808303818588803b158015611d4557600080fd5b505af1158015611d59573d6000803e3d6000fd5b50505050505050505050565b60007f000000000000000000000000000000000000000000000000000000000000000073ffffffffffffffffffffffffffffffffffffffff163073ffffffffffffffffffffffffffffffffffffffff16148015611de157507f000000000000000000000000000000000000000000000000000000000000000046145b15611e0e577f00000000000000000000000000000000000000000000000000000000000000009050611e7c565b611e797f00000000000000000000000000000000000000000000000000000000000000007f00000000000000000000000000000000000000000000000000000000000000007f0000000000000000000000000000000000000000000000000000000000000000612681565b90505b90565b60008282604051602001611e94929190614361565b60405160208183030381529060405280519060200120905092915050565b6000807f7fffffffffffffffffffffffffffffff5d576e7357a4501ddfe92f46681b20a08360001c1115611eed576000600391509150611fb6565b601b8560ff1614158015611f055750601c8560ff1614155b15611f17576000600491509150611fb6565b600060018787878760405160008152602001604052604051611f3c9493929190614398565b6020604051602081039080840390855afa158015611f5e573d6000803e3d6000fd5b505050602060405103519050600073ffffffffffffffffffffffffffffffffffffffff168173ffffffffffffffffffffffffffffffffffffffff161415611fad57600060019250925050611fb6565b80600092509250505b94509492505050565b60006004811115611fd357611fd2612f2e565b5b816004811115611fe657611fe5612f2e565b5b1415611ff157612191565b6001600481111561200557612004612f2e565b5b81600481111561201857612017612f2e565b5b1415612059576040517f08c379a000000000000000000000000000000000000000000000000000000000815260040161205090614429565b60405180910390fd5b6002600481111561206d5761206c612f2e565b5b8160048111156120805761207f612f2e565b5b14156120c1576040517f08c379a00000000000000000000000000000000000000000000000000000000081526004016120b890614495565b60405180910390fd5b600360048111156120d5576120d4612f2e565b5b8160048111156120e8576120e7612f2e565b5b1415612129576040517f08c379a000000000000000000000000000000000000000000000000000000000815260040161212090614527565b60405180910390fd5b60048081111561213c5761213b612f2e565b5b81600481111561214f5761214e612f2e565b5b1415612190576040517f08c379a0000000000000000000000000000000000000000000000000000000008152600401612187906145b9565b60405180910390fd5b5b50565b60006005600086815260200190815260200160002090508060030160008573ffffffffffffffffffffffffffffffffffffffff1673ffffffffffffffffffffffffffffffffffffffff16815260200190815260200160002060009054906101000a900460ff161561223a576040517f08c379a00000000000000000000000000000000000000000000000000000000081526004016122319061464b565b60405180910390fd5b60018160030160008673ffffffffffffffffffffffffffffffffffffffff1673ffffffffffffffffffffffffffffffffffffffff16815260200190815260200160002060006101000a81548160ff021916908315150217905550600060028111156122a8576122a7612f2e565b5b60ff168360ff1614156122d557818160000160008282546122c99190613a14565b92505081905550612393565b600160028111156122e9576122e8612f2e565b5b60ff168360ff161415612316578181600101600082825461230a9190613a14565b92505081905550612392565b60028081111561232957612328612f2e565b5b60ff168360ff161415612356578181600201600082825461234a9190613a14565b92505081905550612391565b6040517f08c379a0000000000000000000000000000000000000000000000000000000008152600401612388906146dd565b60405180910390fd5b5b5b5050505050565b60008060016000848152602001908152602001600020604051806080016040529081600082016040518060200160405290816000820160009054906101000a900467ffffffffffffffff1667ffffffffffffffff1667ffffffffffffffff16815250508152602001600182016040518060200160405290816000820160009054906101000a900467ffffffffffffffff1667ffffffffffffffff1667ffffffffffffffff168152505081526020016002820160009054906101000a900460ff161515151581526020016002820160019054906101000a900460ff1615151515815250509050806040015115612493576007915050612572565b8060600151156124a7576002915050612572565b436124b58260000151611445565b67ffffffffffffffff16106124ce576000915050612572565b436124dc8260200151611445565b67ffffffffffffffff16106124f5576001915050612572565b61250281602001516126bb565b1561253757612510836126e7565b801561252157506125208361272e565b5b61252c57600361252f565b60045b915050612572565b6040517f08c379a000000000000000000000000000000000000000000000000000000000815260040161256990614749565b60405180910390fd5b919050565b600080826000015167ffffffffffffffff16149050919050565b600067ffffffffffffffff80168211156125e0576040517f08c379a00000000000000000000000000000000000000000000000000000000081526004016125d7906147db565b60405180910390fd5b819050919050565b808260000160006101000a81548167ffffffffffffffff021916908367ffffffffffffffff1602179055505050565b60007f01ffc9a7000000000000000000000000000000000000000000000000000000007bffffffffffffffffffffffffffffffffffffffffffffffffffffffff1916827bffffffffffffffffffffffffffffffffffffffffffffffffffffffff1916149050919050565b6000838383463060405160200161269c9594939291906147fb565b6040516020818303038152906040528051906020012090509392505050565b60006126c682612759565b80156126e0575043826000015167ffffffffffffffff1611155b9050919050565b600080600560008481526020019081526020016000209050806002015481600101546127139190613a14565b61272461271f85610d51565b6112ba565b1115915050919050565b6000806005600084815260200190815260200160002090508060000154816001015411915050919050565b600080826000015167ffffffffffffffff16119050919050565b6000604051905090565b600080fd5b600080fd5b60007fffffffff0000000000000000000000000000000000000000000000000000000082169050919050565b6127bc81612787565b81146127c757600080fd5b50565b6000813590506127d9816127b3565b92915050565b6000602082840312156127f5576127f461277d565b5b6000612803848285016127ca565b91505092915050565b60008115159050919050565b6128218161280c565b82525050565b600060208201905061283c6000830184612818565b92915050565b6000819050919050565b61285581612842565b82525050565b6000602082019050612870600083018461284c565b92915050565b61287f81612842565b811461288a57600080fd5b50565b60008135905061289c81612876565b92915050565b6000602082840312156128b8576128b761277d565b5b60006128c68482850161288d565b91505092915050565b600081519050919050565b600082825260208201905092915050565b60005b838110156129095780820151818401526020810190506128ee565b83811115612918576000848401525b50505050565b6000601f19601f8301169050919050565b600061293a826128cf565b61294481856128da565b93506129548185602086016128eb565b61295d8161291e565b840191505092915050565b60006020820190508181036000830152612982818461292f565b905092915050565b600080fd5b7f4e487b7100000000000000000000000000000000000000000000000000000000600052604160045260246000fd5b6129c78261291e565b810181811067ffffffffffffffff821117156129e6576129e561298f565b5b80604052505050565b60006129f9612773565b9050612a0582826129be565b919050565b600067ffffffffffffffff821115612a2557612a2461298f565b5b602082029050602081019050919050565b600080fd5b600073ffffffffffffffffffffffffffffffffffffffff82169050919050565b6000612a6682612a3b565b9050919050565b612a7681612a5b565b8114612a8157600080fd5b50565b600081359050612a9381612a6d565b92915050565b6000612aac612aa784612a0a565b6129ef565b90508083825260208201905060208402830185811115612acf57612ace612a36565b5b835b81811015612af85780612ae48882612a84565b845260208401935050602081019050612ad1565b5050509392505050565b600082601f830112612b1757612b1661298a565b5b8135612b27848260208601612a99565b91505092915050565b600067ffffffffffffffff821115612b4b57612b4a61298f565b5b602082029050602081019050919050565b6000612b6f612b6a84612b30565b6129ef565b90508083825260208201905060208402830185811115612b9257612b91612a36565b5b835b81811015612bbb5780612ba7888261288d565b845260208401935050602081019050612b94565b5050509392505050565b600082601f830112612bda57612bd961298a565b5b8135612bea848260208601612b5c565b91505092915050565b600067ffffffffffffffff821115612c0e57612c0d61298f565b5b602082029050602081019050919050565b600080fd5b600067ffffffffffffffff821115612c3f57612c3e61298f565b5b612c488261291e565b9050602081019050919050565b82818337600083830152505050565b6000612c77612c7284612c24565b6129ef565b905082815260208101848484011115612c9357612c92612c1f565b5b612c9e848285612c55565b509392505050565b600082601f830112612cbb57612cba61298a565b5b8135612ccb848260208601612c64565b91505092915050565b6000612ce7612ce284612bf3565b6129ef565b90508083825260208201905060208402830185811115612d0a57612d09612a36565b5b835b81811015612d5157803567ffffffffffffffff811115612d2f57612d2e61298a565b5b808601612d3c8982612ca6565b85526020850194505050602081019050612d0c565b5050509392505050565b600082601f830112612d7057612d6f61298a565b5b8135612d80848260208601612cd4565b91505092915050565b6000819050919050565b612d9c81612d89565b8114612da757600080fd5b50565b600081359050612db981612d93565b92915050565b60008060008060808587031215612dd957612dd861277d565b5b600085013567ffffffffffffffff811115612df757612df6612782565b5b612e0387828801612b02565b945050602085013567ffffffffffffffff811115612e2457612e23612782565b5b612e3087828801612bc5565b935050604085013567ffffffffffffffff811115612e5157612e50612782565b5b612e5d87828801612d5b565b9250506060612e6e87828801612daa565b91505092959194509250565b600060ff82169050919050565b612e9081612e7a565b8114612e9b57600080fd5b50565b600081359050612ead81612e87565b92915050565b600080600080600060a08688031215612ecf57612ece61277d565b5b6000612edd8882890161288d565b9550506020612eee88828901612e9e565b9450506040612eff88828901612e9e565b9350506060612f1088828901612daa565b9250506080612f2188828901612daa565b9150509295509295909350565b7f4e487b7100000000000000000000000000000000000000000000000000000000600052602160045260246000fd5b60088110612f6e57612f6d612f2e565b5b50565b6000819050612f7f82612f5d565b919050565b6000612f8f82612f71565b9050919050565b612f9f81612f84565b82525050565b6000602082019050612fba6000830184612f96565b92915050565b60008060408385031215612fd757612fd661277d565b5b6000612fe58582860161288d565b9250506020612ff685828601612a84565b9150509250929050565b6000606082019050613015600083018661284c565b613022602083018561284c565b61302f604083018461284c565b949350505050565b6000806040838503121561304e5761304d61277d565b5b600061305c8582860161288d565b925050602061306d85828601612e9e565b9150509250929050565b600080fd5b60008083601f8401126130925761309161298a565b5b8235905067ffffffffffffffff8111156130af576130ae613077565b5b6020830191508360018202830111156130cb576130ca612a36565b5b9250929050565b600080600080606085870312156130ec576130eb61277d565b5b60006130fa8782880161288d565b945050602061310b87828801612e9e565b935050604085013567ffffffffffffffff81111561312c5761312b612782565b5b6131388782880161307c565b925092505092959194509250565b600067ffffffffffffffff8211156131615761316061298f565b5b61316a8261291e565b9050602081019050919050565b600061318a61318584613146565b6129ef565b9050828152602081018484840111156131a6576131a5612c1f565b5b6131b1848285612c55565b509392505050565b600082601f8301126131ce576131cd61298a565b5b81356131de848260208601613177565b91505092915050565b600080600080608085870312156132015761320061277d565b5b600085013567ffffffffffffffff81111561321f5761321e612782565b5b61322b87828801612b02565b945050602085013567ffffffffffffffff81111561324c5761324b612782565b5b61325887828801612bc5565b935050604085013567ffffffffffffffff81111561327957613278612782565b5b61328587828801612d5b565b925050606085013567ffffffffffffffff8111156132a6576132a5612782565b5b6132b2878288016131b9565b91505092959194509250565b60006132c982612a3b565b9050919050565b60006132db826132be565b9050919050565b6132eb816132d0565b81146132f657600080fd5b50565b600081359050613308816132e2565b92915050565b6000602082840312156133245761332361277d565b5b6000613332848285016132f9565b91505092915050565b61334481612a5b565b82525050565b600060208201905061335f600083018461333b565b92915050565b61336e81612d89565b82525050565b60006020820190506133896000830184613365565b92915050565b600080604083850312156133a6576133a561277d565b5b60006133b485828601612a84565b92505060206133c58582860161288d565b9150509250929050565b6000819050919050565b60006133f46133ef6133ea84612a3b565b6133cf565b612a3b565b9050919050565b6000613406826133d9565b9050919050565b6000613418826133fb565b9050919050565b6134288161340d565b82525050565b6000602082019050613443600083018461341f565b92915050565b7f476f7665726e6f723a206f6e6c79476f7665726e616e63650000000000000000600082015250565b600061347f6018836128da565b915061348a82613449565b602082019050919050565b600060208201905081810360008301526134ae81613472565b9050919050565b7f4e487b7100000000000000000000000000000000000000000000000000000000600052602260045260246000fd5b600060028204905060018216806134fc57607f821691505b602082108114156135105761350f6134b5565b5b50919050565b7f476f7665726e6f723a2070726f706f73616c206e6f742073756363657373667560008201527f6c00000000000000000000000000000000000000000000000000000000000000602082015250565b60006135726021836128da565b915061357d82613516565b604082019050919050565b600060208201905081810360008301526135a181613565565b9050919050565b6000815190506135b781612876565b92915050565b6000602082840312156135d3576135d261277d565b5b60006135e1848285016135a8565b91505092915050565b600081519050919050565b600082825260208201905092915050565b6000819050602082019050919050565b61361f81612a5b565b82525050565b60006136318383613616565b60208301905092915050565b6000602082019050919050565b6000613655826135ea565b61365f81856135f5565b935061366a83613606565b8060005b8381101561369b5781516136828882613625565b975061368d8361363d565b92505060018101905061366e565b5085935050505092915050565b600081519050919050565b600082825260208201905092915050565b6000819050602082019050919050565b6136dd81612842565b82525050565b60006136ef83836136d4565b60208301905092915050565b6000602082019050919050565b6000613713826136a8565b61371d81856136b3565b9350613728836136c4565b8060005b8381101561375957815161374088826136e3565b975061374b836136fb565b92505060018101905061372c565b5085935050505092915050565b600081519050919050565b600082825260208201905092915050565b6000819050602082019050919050565b600081519050919050565b600082825260208201905092915050565b60006137b982613792565b6137c3818561379d565b93506137d38185602086016128eb565b6137dc8161291e565b840191505092915050565b60006137f383836137ae565b905092915050565b6000602082019050919050565b600061381382613766565b61381d8185613771565b93508360208202850161382f85613782565b8060005b8581101561386b578484038952815161384c85826137e7565b9450613857836137fb565b925060208a01995050600181019050613833565b50829750879550505050505092915050565b6000819050919050565b60008160001b9050919050565b60006138af6138aa6138a58461387d565b613887565b612d89565b9050919050565b6138bf81613894565b82525050565b600060a08201905081810360008301526138df818861364a565b905081810360208301526138f38187613708565b905081810360408301526139078186613808565b905061391660608301856138b6565b6139236080830184613365565b9695505050505050565b60008151905061393c81612d93565b92915050565b6000602082840312156139585761395761277d565b5b60006139668482850161392d565b91505092915050565b600060c0820190508181036000830152613989818961364a565b9050818103602083015261399d8188613708565b905081810360408301526139b18187613808565b90506139c060608301866138b6565b6139cd6080830185613365565b6139da60a083018461284c565b979650505050505050565b7f4e487b7100000000000000000000000000000000000000000000000000000000600052601160045260246000fd5b6000613a1f82612842565b9150613a2a83612842565b9250827fffffffffffffffffffffffffffffffffffffffffffffffffffffffffffffffff03821115613a5f57613a5e6139e5565b5b828201905092915050565b6000604082019050613a7f600083018561284c565b613a8c602083018461284c565b9392505050565b613a9c81612e7a565b82525050565b6000606082019050613ab76000830186613365565b613ac4602083018561284c565b613ad16040830184613a93565b949350505050565b60006080820190508181036000830152613af3818761364a565b90508181036020830152613b078186613708565b90508181036040830152613b1b8185613808565b9050613b2a6060830184613365565b95945050505050565b7f476f7665726e6f72566f74657351756f72756d4672616374696f6e3a2071756f60008201527f72756d4e756d657261746f72206f7665722071756f72756d44656e6f6d696e6160208201527f746f720000000000000000000000000000000000000000000000000000000000604082015250565b6000613bb56043836128da565b9150613bc082613b33565b606082019050919050565b60006020820190508181036000830152613be481613ba8565b9050919050565b7f476f7665726e6f723a20766f7465206e6f742063757272656e746c792061637460008201527f6976650000000000000000000000000000000000000000000000000000000000602082015250565b6000613c476023836128da565b9150613c5282613beb565b604082019050919050565b60006020820190508181036000830152613c7681613c3a565b9050919050565b6000608082019050613c92600083018761284c565b613c9f6020830186613a93565b613cac604083018561284c565b8181036060830152613cbe818461292f565b905095945050505050565b613cd28161280c565b8114613cdd57600080fd5b50565b600081519050613cef81613cc9565b92915050565b600060208284031215613d0b57613d0a61277d565b5b6000613d1984828501613ce0565b91505092915050565b6000613d2d82612842565b9150613d3883612842565b925082821015613d4b57613d4a6139e5565b5b828203905092915050565b7f476f7665726e6f72436f6d7061746962696c697479427261766f3a2070726f7060008201527f6f73657220766f7465732062656c6f772070726f706f73616c2074687265736860208201527f6f6c640000000000000000000000000000000000000000000000000000000000604082015250565b6000613dd86043836128da565b9150613de382613d56565b606082019050919050565b60006020820190508181036000830152613e0781613dcb565b9050919050565b7f476f7665726e6f723a20696e76616c69642070726f706f73616c206c656e677460008201527f6800000000000000000000000000000000000000000000000000000000000000602082015250565b6000613e6a6021836128da565b9150613e7582613e0e565b604082019050919050565b60006020820190508181036000830152613e9981613e5d565b9050919050565b7f476f7665726e6f723a20656d7074792070726f706f73616c0000000000000000600082015250565b6000613ed66018836128da565b9150613ee182613ea0565b602082019050919050565b60006020820190508181036000830152613f0581613ec9565b9050919050565b7f476f7665726e6f723a2070726f706f73616c20616c726561647920657869737460008201527f7300000000000000000000000000000000000000000000000000000000000000602082015250565b6000613f686021836128da565b9150613f7382613f0c565b604082019050919050565b60006020820190508181036000830152613f9781613f5b565b9050919050565b600067ffffffffffffffff82169050919050565b6000613fbd82613f9e565b9150613fc883613f9e565b92508267ffffffffffffffff03821115613fe557613fe46139e5565b5b828201905092915050565b600081519050919050565b600082825260208201905092915050565b6000819050602082019050919050565b600082825260208201905092915050565b6000614038826128cf565b614042818561401c565b93506140528185602086016128eb565b61405b8161291e565b840191505092915050565b6000614072838361402d565b905092915050565b6000602082019050919050565b600061409282613ff0565b61409c8185613ffb565b9350836020820285016140ae8561400c565b8060005b858110156140ea57848403895281516140cb8582614066565b94506140d68361407a565b925060208a019950506001810190506140b2565b50829750879550505050505092915050565b600061411761411261410d84613f9e565b6133cf565b612842565b9050919050565b614127816140fc565b82525050565b600061012082019050614143600083018c61284c565b614150602083018b61333b565b8181036040830152614162818a61364a565b905081810360608301526141768189613708565b9050818103608083015261418a8188614087565b905081810360a083015261419e8187613808565b90506141ad60c083018661411e565b6141ba60e083018561411e565b8181036101008301526141cd818461292f565b90509a9950505050505050505050565b60006040820190506141f2600083018561333b565b6141ff602083018461333b565b9392505050565b600060408201905061421b600083018561333b565b614228602083018461284c565b9392505050565b600061423a82612842565b915061424583612842565b9250817fffffffffffffffffffffffffffffffffffffffffffffffffffffffffffffffff048311821515161561427e5761427d6139e5565b5b828202905092915050565b7f4e487b7100000000000000000000000000000000000000000000000000000000600052601260045260246000fd5b60006142c382612842565b91506142ce83612842565b9250826142de576142dd614289565b5b828204905092915050565b600081905092915050565b7f1901000000000000000000000000000000000000000000000000000000000000600082015250565b600061432a6002836142e9565b9150614335826142f4565b600282019050919050565b6000819050919050565b61435b61435682612d89565b614340565b82525050565b600061436c8261431d565b9150614378828561434a565b602082019150614388828461434a565b6020820191508190509392505050565b60006080820190506143ad6000830187613365565b6143ba6020830186613a93565b6143c76040830185613365565b6143d46060830184613365565b95945050505050565b7f45434453413a20696e76616c6964207369676e61747572650000000000000000600082015250565b60006144136018836128da565b915061441e826143dd565b602082019050919050565b6000602082019050818103600083015261444281614406565b9050919050565b7f45434453413a20696e76616c6964207369676e6174757265206c656e67746800600082015250565b600061447f601f836128da565b915061448a82614449565b602082019050919050565b600060208201905081810360008301526144ae81614472565b9050919050565b7f45434453413a20696e76616c6964207369676e6174757265202773272076616c60008201527f7565000000000000000000000000000000000000000000000000000000000000602082015250565b60006145116022836128da565b915061451c826144b5565b604082019050919050565b6000602082019050818103600083015261454081614504565b9050919050565b7f45434453413a20696e76616c6964207369676e6174757265202776272076616c60008201527f7565000000000000000000000000000000000000000000000000000000000000602082015250565b60006145a36022836128da565b91506145ae82614547565b604082019050919050565b600060208201905081810360008301526145d281614596565b9050919050565b7f476f7665726e6f72566f74696e6753696d706c653a20766f746520616c72656160008201527f6479206361737400000000000000000000000000000000000000000000000000602082015250565b60006146356027836128da565b9150614640826145d9565b604082019050919050565b6000602082019050818103600083015261466481614628565b9050919050565b7f476f7665726e6f72566f74696e6753696d706c653a20696e76616c696420766160008201527f6c756520666f7220656e756d20566f7465547970650000000000000000000000602082015250565b60006146c76035836128da565b91506146d28261466b565b604082019050919050565b600060208201905081810360008301526146f6816146ba565b9050919050565b7f476f7665726e6f723a20756e6b6e6f776e2070726f706f73616c206964000000600082015250565b6000614733601d836128da565b915061473e826146fd565b602082019050919050565b6000602082019050818103600083015261476281614726565b9050919050565b7f53616665436173743a2076616c756520646f65736e27742066697420696e203660008201527f3420626974730000000000000000000000000000000000000000000000000000602082015250565b60006147c56026836128da565b91506147d082614769565b604082019050919050565b600060208201905081810360008301526147f4816147b8565b9050919050565b600060a0820190506148106000830188613365565b61481d6020830187613365565b61482a6040830186613365565b614837606083018561284c565b614844608083018461333b565b969550505050505056fea2646970667358221220278d91eed8b7bb1b9bc45b40888fae352336c58ca6928f0cf121be0672e67b9e64736f6c63430008090033",
  "linkReferences": {},
  "deployedLinkReferences": {}
}