{
  "_format": "hh-sol-artifact-1",
  "contractName": "TokenShop",
  "sourceName": "contracts/marketplace/TokenShop.sol",
  "abi": [
    {
      "inputs": [
        {
          "internalType": "address",
          "name": "owner",
          "type": "address"
        },
        {
          "internalType": "contract Membership",
          "name": "membership_",
          "type": "address"
        },
        {
          "internalType": "contract IERC20",
          "name": "tokenUsedForPayement_",
          "type": "address"
        },
        {
          "internalType": "contract IERC20",
          "name": "tokenContract_",
          "type": "address"
        },
        {
          "internalType": "uint256",
          "name": "price_",
          "type": "uint256"
        }
      ],
      "stateMutability": "nonpayable",
      "type": "constructor"
    },
    {
      "anonymous": false,
      "inputs": [
        {
          "indexed": false,
          "internalType": "address",
          "name": "submitter",
          "type": "address"
        },
        {
          "indexed": false,
          "internalType": "uint256",
          "name": "amount",
          "type": "uint256"
        }
      ],
      "name": "CapitalWithdrawal",
      "type": "event"
    },
    {
      "anonymous": false,
      "inputs": [
        {
          "indexed": true,
          "internalType": "address",
          "name": "previousOwner",
          "type": "address"
        },
        {
          "indexed": true,
          "internalType": "address",
          "name": "newOwner",
          "type": "address"
        }
      ],
      "name": "OwnershipTransferred",
      "type": "event"
    },
    {
      "anonymous": false,
      "inputs": [
        {
          "indexed": false,
          "internalType": "address",
          "name": "submitter",
          "type": "address"
        },
        {
          "indexed": false,
          "internalType": "uint256",
          "name": "newPrice",
          "type": "uint256"
        }
      ],
      "name": "PriceChanged",
      "type": "event"
    },
    {
      "anonymous": false,
      "inputs": [
        {
          "indexed": false,
          "internalType": "address",
          "name": "shopAddress",
          "type": "address"
        },
        {
          "indexed": false,
          "internalType": "address",
          "name": "owner",
          "type": "address"
        },
        {
          "indexed": false,
          "internalType": "contract Membership",
          "name": "membership",
          "type": "address"
        },
        {
          "indexed": false,
          "internalType": "contract IERC20",
          "name": "tokenUsedForPayement",
          "type": "address"
        },
        {
          "indexed": false,
          "internalType": "contract IERC20",
          "name": "tokenContract",
          "type": "address"
        },
        {
          "indexed": false,
          "internalType": "uint256",
          "name": "price",
          "type": "uint256"
        }
      ],
      "name": "ShopCreated",
      "type": "event"
    },
    {
      "anonymous": false,
      "inputs": [
        {
          "indexed": false,
          "internalType": "address",
          "name": "buyer",
          "type": "address"
        },
        {
          "indexed": false,
          "internalType": "uint256",
          "name": "amount",
          "type": "uint256"
        }
      ],
      "name": "Sold",
      "type": "event"
    },
    {
      "anonymous": false,
      "inputs": [
        {
          "indexed": false,
          "internalType": "address",
          "name": "submitter",
          "type": "address"
        },
        {
          "indexed": false,
          "internalType": "uint256",
          "name": "amount",
          "type": "uint256"
        }
      ],
      "name": "TokenOnSaleWithdrawal",
      "type": "event"
    },
    {
      "inputs": [
        {
          "internalType": "uint256",
          "name": "amount",
          "type": "uint256"
        }
      ],
      "name": "buyTokens",
      "outputs": [
        {
          "internalType": "bool",
          "name": "",
          "type": "bool"
        },
        {
          "internalType": "uint256",
          "name": "",
          "type": "uint256"
        }
      ],
      "stateMutability": "nonpayable",
      "type": "function"
    },
    {
      "inputs": [],
      "name": "crowdSaleOpen",
      "outputs": [
        {
          "internalType": "bool",
          "name": "",
          "type": "bool"
        }
      ],
      "stateMutability": "view",
      "type": "function"
    },
    {
      "inputs": [],
      "name": "getContractBalanceOfToken",
      "outputs": [
        {
          "internalType": "uint256",
          "name": "",
          "type": "uint256"
        }
      ],
      "stateMutability": "view",
      "type": "function"
    },
    {
      "inputs": [],
      "name": "getPrice",
      "outputs": [
        {
          "internalType": "uint256",
          "name": "",
          "type": "uint256"
        }
      ],
      "stateMutability": "view",
      "type": "function"
    },
    {
      "inputs": [],
      "name": "membership",
      "outputs": [
        {
          "internalType": "contract Membership",
          "name": "",
          "type": "address"
        }
      ],
      "stateMutability": "view",
      "type": "function"
    },
    {
      "inputs": [],
      "name": "owner",
      "outputs": [
        {
          "internalType": "address",
          "name": "",
          "type": "address"
        }
      ],
      "stateMutability": "view",
      "type": "function"
    },
    {
      "inputs": [],
      "name": "price",
      "outputs": [
        {
          "internalType": "uint256",
          "name": "",
          "type": "uint256"
        }
      ],
      "stateMutability": "view",
      "type": "function"
    },
    {
      "inputs": [],
      "name": "raisedCapital",
      "outputs": [
        {
          "internalType": "uint256",
          "name": "",
          "type": "uint256"
        }
      ],
      "stateMutability": "view",
      "type": "function"
    },
    {
      "inputs": [],
      "name": "renounceOwnership",
      "outputs": [],
      "stateMutability": "nonpayable",
      "type": "function"
    },
    {
      "inputs": [],
      "name": "setCrowdSaleState",
      "outputs": [
        {
          "internalType": "bool",
          "name": "",
          "type": "bool"
        },
        {
          "internalType": "bool",
          "name": "",
          "type": "bool"
        }
      ],
      "stateMutability": "nonpayable",
      "type": "function"
    },
    {
      "inputs": [
        {
          "internalType": "uint256",
          "name": "newPrice",
          "type": "uint256"
        }
      ],
      "name": "setPrice",
      "outputs": [
        {
          "internalType": "bool",
          "name": "",
          "type": "bool"
        },
        {
          "internalType": "uint256",
          "name": "",
          "type": "uint256"
        }
      ],
      "stateMutability": "nonpayable",
      "type": "function"
    },
    {
      "inputs": [],
      "name": "tokenContract",
      "outputs": [
        {
          "internalType": "contract IERC20",
          "name": "",
          "type": "address"
        }
      ],
      "stateMutability": "view",
      "type": "function"
    },
    {
      "inputs": [],
      "name": "tokenUsedForPayement",
      "outputs": [
        {
          "internalType": "contract IERC20",
          "name": "",
          "type": "address"
        }
      ],
      "stateMutability": "view",
      "type": "function"
    },
    {
      "inputs": [
        {
          "internalType": "address",
          "name": "",
          "type": "address"
        }
      ],
      "name": "tokensBoughtByBuyer",
      "outputs": [
        {
          "internalType": "uint256",
          "name": "",
          "type": "uint256"
        }
      ],
      "stateMutability": "view",
      "type": "function"
    },
    {
      "inputs": [
        {
          "internalType": "address",
          "name": "newOwner",
          "type": "address"
        }
      ],
      "name": "transferOwnership",
      "outputs": [],
      "stateMutability": "nonpayable",
      "type": "function"
    },
    {
      "inputs": [],
      "name": "withdrawRaisedCapital",
      "outputs": [
        {
          "internalType": "bool",
          "name": "",
          "type": "bool"
        }
      ],
      "stateMutability": "nonpayable",
      "type": "function"
    },
    {
      "inputs": [
        {
          "internalType": "uint256",
          "name": "amount",
          "type": "uint256"
        }
      ],
      "name": "withdrawTokensOnSale",
      "outputs": [
        {
          "internalType": "bool",
          "name": "",
          "type": "bool"
        },
        {
          "internalType": "uint256",
          "name": "",
          "type": "uint256"
        }
      ],
      "stateMutability": "nonpayable",
      "type": "function"
    }
  ],
  "bytecode": "0x60806040523480156200001157600080fd5b5060405162001e2c38038062001e2c833981810160405281019062000037919062000522565b620000576200004b620001e860201b60201c565b620001f060201b60201c565b83600160006101000a81548173ffffffffffffffffffffffffffffffffffffffff021916908373ffffffffffffffffffffffffffffffffffffffff16021790555082600360006101000a81548173ffffffffffffffffffffffffffffffffffffffff021916908373ffffffffffffffffffffffffffffffffffffffff16021790555081600260006101000a81548173ffffffffffffffffffffffffffffffffffffffff021916908373ffffffffffffffffffffffffffffffffffffffff160217905550806004819055506200013285620002b460201b60201c565b7f855e55883701532682c21bec3b85df4b8de0bdf933156c28d177cf1fc5c04aea3086600160009054906101000a900473ffffffffffffffffffffffffffffffffffffffff16600360009054906101000a900473ffffffffffffffffffffffffffffffffffffffff16600260009054906101000a900473ffffffffffffffffffffffffffffffffffffffff16600454604051620001d5969594939291906200065c565b60405180910390a15050505050620007e4565b600033905090565b60008060009054906101000a900473ffffffffffffffffffffffffffffffffffffffff169050816000806101000a81548173ffffffffffffffffffffffffffffffffffffffff021916908373ffffffffffffffffffffffffffffffffffffffff1602179055508173ffffffffffffffffffffffffffffffffffffffff168173ffffffffffffffffffffffffffffffffffffffff167f8be0079c531659141344cd1fd0a4f28419497f9722a3daafe3b4186f6b6457e060405160405180910390a35050565b620002c4620001e860201b60201c565b73ffffffffffffffffffffffffffffffffffffffff16620002ea620003ca60201b60201c565b73ffffffffffffffffffffffffffffffffffffffff161462000343576040517f08c379a00000000000000000000000000000000000000000000000000000000081526004016200033a906200072a565b60405180910390fd5b600073ffffffffffffffffffffffffffffffffffffffff168173ffffffffffffffffffffffffffffffffffffffff161415620003b6576040517f08c379a0000000000000000000000000000000000000000000000000000000008152600401620003ad90620007c2565b60405180910390fd5b620003c781620001f060201b60201c565b50565b60008060009054906101000a900473ffffffffffffffffffffffffffffffffffffffff16905090565b600080fd5b600073ffffffffffffffffffffffffffffffffffffffff82169050919050565b60006200042582620003f8565b9050919050565b620004378162000418565b81146200044357600080fd5b50565b60008151905062000457816200042c565b92915050565b60006200046a8262000418565b9050919050565b6200047c816200045d565b81146200048857600080fd5b50565b6000815190506200049c8162000471565b92915050565b6000620004af8262000418565b9050919050565b620004c181620004a2565b8114620004cd57600080fd5b50565b600081519050620004e181620004b6565b92915050565b6000819050919050565b620004fc81620004e7565b81146200050857600080fd5b50565b6000815190506200051c81620004f1565b92915050565b600080600080600060a08688031215620005415762000540620003f3565b5b6000620005518882890162000446565b955050602062000564888289016200048b565b94505060406200057788828901620004d0565b93505060606200058a88828901620004d0565b92505060806200059d888289016200050b565b9150509295509295909350565b620005b58162000418565b82525050565b6000819050919050565b6000620005e6620005e0620005da84620003f8565b620005bb565b620003f8565b9050919050565b6000620005fa82620005c5565b9050919050565b60006200060e82620005ed565b9050919050565b620006208162000601565b82525050565b60006200063382620005ed565b9050919050565b620006458162000626565b82525050565b6200065681620004e7565b82525050565b600060c082019050620006736000830189620005aa565b620006826020830188620005aa565b62000691604083018762000615565b620006a060608301866200063a565b620006af60808301856200063a565b620006be60a08301846200064b565b979650505050505050565b600082825260208201905092915050565b7f4f776e61626c653a2063616c6c6572206973206e6f7420746865206f776e6572600082015250565b600062000712602083620006c9565b91506200071f82620006da565b602082019050919050565b60006020820190508181036000830152620007458162000703565b9050919050565b7f4f776e61626c653a206e6577206f776e657220697320746865207a65726f206160008201527f6464726573730000000000000000000000000000000000000000000000000000602082015250565b6000620007aa602683620006c9565b9150620007b7826200074c565b604082019050919050565b60006020820190508181036000830152620007dd816200079b565b9050919050565b61163880620007f46000396000f3fe608060405234801561001057600080fd5b506004361061010b5760003560e01c806391b7f5ed116100a2578063de3680aa11610071578063de3680aa1461029d578063f2fde38b146102bb578063f68c1d49146102d7578063f6b3b84a146102f5578063fa7a30b9146103255761010b565b806391b7f5ed1461021257806398d5fdca14610243578063a035b1fe14610261578063a2bf68b91461027f5761010b565b806355a373d6116100de57806355a373d6146101ae5780636009eed3146101cc578063715018a6146101ea5780638da5cb5b146101f45761010b565b8063076c8a6d146101105780633610724e1461012e578063405915191461015f5780634536f8c714610190575b600080fd5b610118610344565b6040516101259190610f4b565b60405180910390f35b61014860048036038101906101439190610f97565b61034a565b604051610156929190610fdf565b60405180910390f35b61017960048036038101906101749190610f97565b6106b5565b604051610187929190610fdf565b60405180910390f35b610198610829565b6040516101a59190610f4b565b60405180910390f35b6101b66108e0565b6040516101c39190611087565b60405180910390f35b6101d4610906565b6040516101e191906110a2565b60405180910390f35b6101f2610919565b005b6101fc61099f565b60405161020991906110de565b60405180910390f35b61022c60048036038101906102279190610f97565b6109c8565b60405161023a929190610fdf565b60405180910390f35b61024b610a93565b6040516102589190610f4b565b60405180910390f35b610269610a9d565b6040516102769190610f4b565b60405180910390f35b610287610aa3565b604051610294919061111a565b60405180910390f35b6102a5610ac9565b6040516102b29190611087565b60405180910390f35b6102d560048036038101906102d09190611161565b610aef565b005b6102df610be7565b6040516102ec91906110a2565b60405180910390f35b61030f600480360381019061030a9190611161565b610d61565b60405161031c9190610f4b565b60405180910390f35b61032d610d79565b60405161033b92919061118e565b60405180910390f35b60055481565b6000806000600160009054906101000a900473ffffffffffffffffffffffffffffffffffffffff1673ffffffffffffffffffffffffffffffffffffffff1662fdd58e3360006040518363ffffffff1660e01b81526004016103ac9291906111f2565b60206040518083038186803b1580156103c457600080fd5b505afa1580156103d8573d6000803e3d6000fd5b505050506040513d601f19601f820116820180604052508101906103fc9190611230565b141561043d576040517f08c379a0000000000000000000000000000000000000000000000000000000008152600401610434906112e0565b60405180910390fd5b600660009054906101000a900460ff1661048c576040517f08c379a00000000000000000000000000000000000000000000000000000000081526004016104839061134c565b60405180910390fd5b60006004548461049c919061139b565b905083600760003373ffffffffffffffffffffffffffffffffffffffff1673ffffffffffffffffffffffffffffffffffffffff16815260200190815260200160002060008282546104ed91906113f5565b92505081905550806005600082825461050691906113f5565b92505081905550600360009054906101000a900473ffffffffffffffffffffffffffffffffffffffff1673ffffffffffffffffffffffffffffffffffffffff166323b872dd3330846040518463ffffffff1660e01b815260040161056c9392919061144b565b602060405180830381600087803b15801561058657600080fd5b505af115801561059a573d6000803e3d6000fd5b505050506040513d601f19601f820116820180604052508101906105be91906114ae565b50600260009054906101000a900473ffffffffffffffffffffffffffffffffffffffff1673ffffffffffffffffffffffffffffffffffffffff1663a9059cbb33866040518363ffffffff1660e01b815260040161061c9291906114db565b602060405180830381600087803b15801561063657600080fd5b505af115801561064a573d6000803e3d6000fd5b505050506040513d601f19601f8201168201806040525081019061066e91906114ae565b507fae92ab4b6f8f401ead768d3273e6bb937a13e39827d19c6376e8fd4512a05d9a33856040516106a09291906114db565b60405180910390a16001849250925050915091565b6000806106c0610e64565b73ffffffffffffffffffffffffffffffffffffffff166106de61099f565b73ffffffffffffffffffffffffffffffffffffffff1614610734576040517f08c379a000000000000000000000000000000000000000000000000000000000815260040161072b90611550565b60405180910390fd5b600260009054906101000a900473ffffffffffffffffffffffffffffffffffffffff1673ffffffffffffffffffffffffffffffffffffffff1663a9059cbb33856040518363ffffffff1660e01b81526004016107919291906114db565b602060405180830381600087803b1580156107ab57600080fd5b505af11580156107bf573d6000803e3d6000fd5b505050506040513d601f19601f820116820180604052508101906107e391906114ae565b507ff21cb237576772b55d882a9252b328a259ba6c87ee19d43de24c2a553780227c33846040516108159291906114db565b60405180910390a160018391509150915091565b600080600260009054906101000a900473ffffffffffffffffffffffffffffffffffffffff1673ffffffffffffffffffffffffffffffffffffffff166370a08231306040518263ffffffff1660e01b815260040161088791906110de565b60206040518083038186803b15801561089f57600080fd5b505afa1580156108b3573d6000803e3d6000fd5b505050506040513d601f19601f820116820180604052508101906108d79190611230565b90508091505090565b600260009054906101000a900473ffffffffffffffffffffffffffffffffffffffff1681565b600660009054906101000a900460ff1681565b610921610e64565b73ffffffffffffffffffffffffffffffffffffffff1661093f61099f565b73ffffffffffffffffffffffffffffffffffffffff1614610995576040517f08c379a000000000000000000000000000000000000000000000000000000000815260040161098c90611550565b60405180910390fd5b61099d610919565b565b60008060009054906101000a900473ffffffffffffffffffffffffffffffffffffffff16905090565b6000806109d3610e64565b73ffffffffffffffffffffffffffffffffffffffff166109f161099f565b73ffffffffffffffffffffffffffffffffffffffff1614610a47576040517f08c379a0000000000000000000000000000000000000000000000000000000008152600401610a3e90611550565b60405180910390fd5b826004819055507f8f012475d3b98d9007b927bfddd4f78c3e0465e69ec5d9795a19dbc3a04e0a683384604051610a7f9291906114db565b60405180910390a160018391509150915091565b6000600454905090565b60045481565b600160009054906101000a900473ffffffffffffffffffffffffffffffffffffffff1681565b600360009054906101000a900473ffffffffffffffffffffffffffffffffffffffff1681565b610af7610e64565b73ffffffffffffffffffffffffffffffffffffffff16610b1561099f565b73ffffffffffffffffffffffffffffffffffffffff1614610b6b576040517f08c379a0000000000000000000000000000000000000000000000000000000008152600401610b6290611550565b60405180910390fd5b600073ffffffffffffffffffffffffffffffffffffffff168173ffffffffffffffffffffffffffffffffffffffff161415610bdb576040517f08c379a0000000000000000000000000000000000000000000000000000000008152600401610bd2906115e2565b60405180910390fd5b610be481610e6c565b50565b6000610bf1610e64565b73ffffffffffffffffffffffffffffffffffffffff16610c0f61099f565b73ffffffffffffffffffffffffffffffffffffffff1614610c65576040517f08c379a0000000000000000000000000000000000000000000000000000000008152600401610c5c90611550565b60405180910390fd5b610c6d610f30565b600360009054906101000a900473ffffffffffffffffffffffffffffffffffffffff1673ffffffffffffffffffffffffffffffffffffffff1663a9059cbb336005546040518363ffffffff1660e01b8152600401610ccc9291906114db565b602060405180830381600087803b158015610ce657600080fd5b505af1158015610cfa573d6000803e3d6000fd5b505050506040513d601f19601f82011682018060405250810190610d1e91906114ae565b507ffb35b373b75ffde9c4d321bd6402c04d4719e81228f60c40024bdb4aad8d365633600554604051610d529291906114db565b60405180910390a16001905090565b60076020528060005260406000206000915090505481565b600080610d84610e64565b73ffffffffffffffffffffffffffffffffffffffff16610da261099f565b73ffffffffffffffffffffffffffffffffffffffff1614610df8576040517f08c379a0000000000000000000000000000000000000000000000000000000008152600401610def90611550565b60405180910390fd5b6000610e02610829565b90506000811415610e2d576000600660006101000a81548160ff021916908315150217905550610e49565b6001600660006101000a81548160ff0219169083151502179055505b6001600660009054906101000a900460ff1692509250509091565b600033905090565b60008060009054906101000a900473ffffffffffffffffffffffffffffffffffffffff169050816000806101000a81548173ffffffffffffffffffffffffffffffffffffffff021916908373ffffffffffffffffffffffffffffffffffffffff1602179055508173ffffffffffffffffffffffffffffffffffffffff168173ffffffffffffffffffffffffffffffffffffffff167f8be0079c531659141344cd1fd0a4f28419497f9722a3daafe3b4186f6b6457e060405160405180910390a35050565b565b6000819050919050565b610f4581610f32565b82525050565b6000602082019050610f606000830184610f3c565b92915050565b600080fd5b610f7481610f32565b8114610f7f57600080fd5b50565b600081359050610f9181610f6b565b92915050565b600060208284031215610fad57610fac610f66565b5b6000610fbb84828501610f82565b91505092915050565b60008115159050919050565b610fd981610fc4565b82525050565b6000604082019050610ff46000830185610fd0565b6110016020830184610f3c565b9392505050565b600073ffffffffffffffffffffffffffffffffffffffff82169050919050565b6000819050919050565b600061104d61104861104384611008565b611028565b611008565b9050919050565b600061105f82611032565b9050919050565b600061107182611054565b9050919050565b61108181611066565b82525050565b600060208201905061109c6000830184611078565b92915050565b60006020820190506110b76000830184610fd0565b92915050565b60006110c882611008565b9050919050565b6110d8816110bd565b82525050565b60006020820190506110f360008301846110cf565b92915050565b600061110482611054565b9050919050565b611114816110f9565b82525050565b600060208201905061112f600083018461110b565b92915050565b61113e816110bd565b811461114957600080fd5b50565b60008135905061115b81611135565b92915050565b60006020828403121561117757611176610f66565b5b60006111858482850161114c565b91505092915050565b60006040820190506111a36000830185610fd0565b6111b06020830184610fd0565b9392505050565b6000819050919050565b60006111dc6111d76111d2846111b7565b611028565b610f32565b9050919050565b6111ec816111c1565b82525050565b600060408201905061120760008301856110cf565b61121460208301846111e3565b9392505050565b60008151905061122a81610f6b565b92915050565b60006020828403121561124657611245610f66565b5b60006112548482850161121b565b91505092915050565b600082825260208201905092915050565b7f75736572206973206e6f7420796574204d656d626572206f662074686973204460008201527f414f000000000000000000000000000000000000000000000000000000000000602082015250565b60006112ca60228361125d565b91506112d58261126e565b604082019050919050565b600060208201905081810360008301526112f9816112bd565b9050919050565b7f546f6b656e2073616c652069732043757272656e746c7920636c6f7365640000600082015250565b6000611336601e8361125d565b915061134182611300565b602082019050919050565b6000602082019050818103600083015261136581611329565b9050919050565b7f4e487b7100000000000000000000000000000000000000000000000000000000600052601160045260246000fd5b60006113a682610f32565b91506113b183610f32565b9250817fffffffffffffffffffffffffffffffffffffffffffffffffffffffffffffffff04831182151516156113ea576113e961136c565b5b828202905092915050565b600061140082610f32565b915061140b83610f32565b9250827fffffffffffffffffffffffffffffffffffffffffffffffffffffffffffffffff038211156114405761143f61136c565b5b828201905092915050565b600060608201905061146060008301866110cf565b61146d60208301856110cf565b61147a6040830184610f3c565b949350505050565b61148b81610fc4565b811461149657600080fd5b50565b6000815190506114a881611482565b92915050565b6000602082840312156114c4576114c3610f66565b5b60006114d284828501611499565b91505092915050565b60006040820190506114f060008301856110cf565b6114fd6020830184610f3c565b9392505050565b7f4f776e61626c653a2063616c6c6572206973206e6f7420746865206f776e6572600082015250565b600061153a60208361125d565b915061154582611504565b602082019050919050565b600060208201905081810360008301526115698161152d565b9050919050565b7f4f776e61626c653a206e6577206f776e657220697320746865207a65726f206160008201527f6464726573730000000000000000000000000000000000000000000000000000602082015250565b60006115cc60268361125d565b91506115d782611570565b604082019050919050565b600060208201905081810360008301526115fb816115bf565b905091905056fea2646970667358221220cf46eb04c7d17ac21c26b7ef7b46944209f74cceeada27560777cf4bb0ce358564736f6c63430008090033",
  "linkReferences": {},
  "deployedLinkReferences": {}
}