{
  "_format": "hh-sol-artifact-1",
  "contractName": "PaymentSplitter",
  "sourceName": "contracts/oz/finance/PaymentSplitter.sol",
  "abi": [
    {
      "inputs": [
        {
          "internalType": "address[]",
          "name": "payees",
          "type": "address[]"
        },
        {
          "internalType": "uint256[]",
          "name": "shares_",
          "type": "uint256[]"
        }
      ],
      "stateMutability": "payable",
      "type": "constructor"
    },
    {
      "anonymous": false,
      "inputs": [
        {
          "indexed": true,
          "internalType": "contract IERC20",
          "name": "token",
          "type": "address"
        },
        {
          "indexed": false,
          "internalType": "address",
          "name": "to",
          "type": "address"
        },
        {
          "indexed": false,
          "internalType": "uint256",
          "name": "amount",
          "type": "uint256"
        }
      ],
      "name": "ERC20PaymentReleased",
      "type": "event"
    },
    {
      "anonymous": false,
      "inputs": [
        {
          "indexed": false,
          "internalType": "address",
          "name": "account",
          "type": "address"
        },
        {
          "indexed": false,
          "internalType": "uint256",
          "name": "shares",
          "type": "uint256"
        }
      ],
      "name": "PayeeAdded",
      "type": "event"
    },
    {
      "anonymous": false,
      "inputs": [
        {
          "indexed": false,
          "internalType": "address",
          "name": "from",
          "type": "address"
        },
        {
          "indexed": false,
          "internalType": "uint256",
          "name": "amount",
          "type": "uint256"
        }
      ],
      "name": "PaymentReceived",
      "type": "event"
    },
    {
      "anonymous": false,
      "inputs": [
        {
          "indexed": false,
          "internalType": "address",
          "name": "to",
          "type": "address"
        },
        {
          "indexed": false,
          "internalType": "uint256",
          "name": "amount",
          "type": "uint256"
        }
      ],
      "name": "PaymentReleased",
      "type": "event"
    },
    {
      "inputs": [
        {
          "internalType": "uint256",
          "name": "index",
          "type": "uint256"
        }
      ],
      "name": "payee",
      "outputs": [
        {
          "internalType": "address",
          "name": "",
          "type": "address"
        }
      ],
      "stateMutability": "view",
      "type": "function"
    },
    {
      "inputs": [
        {
          "internalType": "address payable",
          "name": "account",
          "type": "address"
        }
      ],
      "name": "release",
      "outputs": [],
      "stateMutability": "nonpayable",
      "type": "function"
    },
    {
      "inputs": [
        {
          "internalType": "contract IERC20",
          "name": "token",
          "type": "address"
        },
        {
          "internalType": "address",
          "name": "account",
          "type": "address"
        }
      ],
      "name": "release",
      "outputs": [],
      "stateMutability": "nonpayable",
      "type": "function"
    },
    {
      "inputs": [
        {
          "internalType": "contract IERC20",
          "name": "token",
          "type": "address"
        },
        {
          "internalType": "address",
          "name": "account",
          "type": "address"
        }
      ],
      "name": "released",
      "outputs": [
        {
          "internalType": "uint256",
          "name": "",
          "type": "uint256"
        }
      ],
      "stateMutability": "view",
      "type": "function"
    },
    {
      "inputs": [
        {
          "internalType": "address",
          "name": "account",
          "type": "address"
        }
      ],
      "name": "released",
      "outputs": [
        {
          "internalType": "uint256",
          "name": "",
          "type": "uint256"
        }
      ],
      "stateMutability": "view",
      "type": "function"
    },
    {
      "inputs": [
        {
          "internalType": "address",
          "name": "account",
          "type": "address"
        }
      ],
      "name": "shares",
      "outputs": [
        {
          "internalType": "uint256",
          "name": "",
          "type": "uint256"
        }
      ],
      "stateMutability": "view",
      "type": "function"
    },
    {
      "inputs": [
        {
          "internalType": "contract IERC20",
          "name": "token",
          "type": "address"
        }
      ],
      "name": "totalReleased",
      "outputs": [
        {
          "internalType": "uint256",
          "name": "",
          "type": "uint256"
        }
      ],
      "stateMutability": "view",
      "type": "function"
    },
    {
      "inputs": [],
      "name": "totalReleased",
      "outputs": [
        {
          "internalType": "uint256",
          "name": "",
          "type": "uint256"
        }
      ],
      "stateMutability": "view",
      "type": "function"
    },
    {
      "inputs": [],
      "name": "totalShares",
      "outputs": [
        {
          "internalType": "uint256",
          "name": "",
          "type": "uint256"
        }
      ],
      "stateMutability": "view",
      "type": "function"
    },
    {
      "stateMutability": "payable",
      "type": "receive"
    }
  ],
  "bytecode": "0x6080604052604051620022e1380380620022e1833981810160405281019062000029919062000668565b805182511462000070576040517f08c379a0000000000000000000000000000000000000000000000000000000008152600401620000679062000774565b60405180910390fd5b6000825111620000b7576040517f08c379a0000000000000000000000000000000000000000000000000000000008152600401620000ae90620007e6565b60405180910390fd5b60005b8251811015620001265762000110838281518110620000de57620000dd62000808565b5b6020026020010151838381518110620000fc57620000fb62000808565b5b60200260200101516200012f60201b60201c565b80806200011d9062000866565b915050620000ba565b50505062000b02565b600073ffffffffffffffffffffffffffffffffffffffff168273ffffffffffffffffffffffffffffffffffffffff161415620001a2576040517f08c379a000000000000000000000000000000000000000000000000000000000815260040162000199906200092a565b60405180910390fd5b60008111620001e8576040517f08c379a0000000000000000000000000000000000000000000000000000000008152600401620001df906200099c565b60405180910390fd5b6000600260008473ffffffffffffffffffffffffffffffffffffffff1673ffffffffffffffffffffffffffffffffffffffff16815260200190815260200160002054146200026d576040517f08c379a0000000000000000000000000000000000000000000000000000000008152600401620002649062000a34565b60405180910390fd5b6004829080600181540180825580915050600190039060005260206000200160009091909190916101000a81548173ffffffffffffffffffffffffffffffffffffffff021916908373ffffffffffffffffffffffffffffffffffffffff16021790555080600260008473ffffffffffffffffffffffffffffffffffffffff1673ffffffffffffffffffffffffffffffffffffffff168152602001908152602001600020819055508060005462000324919062000a56565b6000819055507f40c340f65e17194d14ddddb073d3c9f888e3cb52b5aae0c6c7706b4fbc905fac82826040516200035d92919062000ad5565b60405180910390a15050565b6000604051905090565b600080fd5b600080fd5b600080fd5b6000601f19601f8301169050919050565b7f4e487b7100000000000000000000000000000000000000000000000000000000600052604160045260246000fd5b620003cd8262000382565b810181811067ffffffffffffffff82111715620003ef57620003ee62000393565b5b80604052505050565b60006200040462000369565b9050620004128282620003c2565b919050565b600067ffffffffffffffff82111562000435576200043462000393565b5b602082029050602081019050919050565b600080fd5b600073ffffffffffffffffffffffffffffffffffffffff82169050919050565b600062000478826200044b565b9050919050565b6200048a816200046b565b81146200049657600080fd5b50565b600081519050620004aa816200047f565b92915050565b6000620004c7620004c18462000417565b620003f8565b90508083825260208201905060208402830185811115620004ed57620004ec62000446565b5b835b818110156200051a578062000505888262000499565b845260208401935050602081019050620004ef565b5050509392505050565b600082601f8301126200053c576200053b6200037d565b5b81516200054e848260208601620004b0565b91505092915050565b600067ffffffffffffffff82111562000575576200057462000393565b5b602082029050602081019050919050565b6000819050919050565b6200059b8162000586565b8114620005a757600080fd5b50565b600081519050620005bb8162000590565b92915050565b6000620005d8620005d28462000557565b620003f8565b90508083825260208201905060208402830185811115620005fe57620005fd62000446565b5b835b818110156200062b5780620006168882620005aa565b84526020840193505060208101905062000600565b5050509392505050565b600082601f8301126200064d576200064c6200037d565b5b81516200065f848260208601620005c1565b91505092915050565b6000806040838503121562000682576200068162000373565b5b600083015167ffffffffffffffff811115620006a357620006a262000378565b5b620006b18582860162000524565b925050602083015167ffffffffffffffff811115620006d557620006d462000378565b5b620006e38582860162000635565b9150509250929050565b600082825260208201905092915050565b7f5061796d656e7453706c69747465723a2070617965657320616e64207368617260008201527f6573206c656e677468206d69736d617463680000000000000000000000000000602082015250565b60006200075c603283620006ed565b91506200076982620006fe565b604082019050919050565b600060208201905081810360008301526200078f816200074d565b9050919050565b7f5061796d656e7453706c69747465723a206e6f20706179656573000000000000600082015250565b6000620007ce601a83620006ed565b9150620007db8262000796565b602082019050919050565b600060208201905081810360008301526200080181620007bf565b9050919050565b7f4e487b7100000000000000000000000000000000000000000000000000000000600052603260045260246000fd5b7f4e487b7100000000000000000000000000000000000000000000000000000000600052601160045260246000fd5b6000620008738262000586565b91507fffffffffffffffffffffffffffffffffffffffffffffffffffffffffffffffff821415620008a957620008a862000837565b5b600182019050919050565b7f5061796d656e7453706c69747465723a206163636f756e74206973207468652060008201527f7a65726f20616464726573730000000000000000000000000000000000000000602082015250565b600062000912602c83620006ed565b91506200091f82620008b4565b604082019050919050565b60006020820190508181036000830152620009458162000903565b9050919050565b7f5061796d656e7453706c69747465723a20736861726573206172652030000000600082015250565b600062000984601d83620006ed565b915062000991826200094c565b602082019050919050565b60006020820190508181036000830152620009b78162000975565b9050919050565b7f5061796d656e7453706c69747465723a206163636f756e7420616c726561647960008201527f2068617320736861726573000000000000000000000000000000000000000000602082015250565b600062000a1c602b83620006ed565b915062000a2982620009be565b604082019050919050565b6000602082019050818103600083015262000a4f8162000a0d565b9050919050565b600062000a638262000586565b915062000a708362000586565b9250827fffffffffffffffffffffffffffffffffffffffffffffffffffffffffffffffff0382111562000aa85762000aa762000837565b5b828201905092915050565b62000abe816200046b565b82525050565b62000acf8162000586565b82525050565b600060408201905062000aec600083018562000ab3565b62000afb602083018462000ac4565b9392505050565b6117cf8062000b126000396000f3fe60806040526004361061008a5760003560e01c80638b83209b116100595780638b83209b146101905780639852595c146101cd578063ce7c2ac21461020a578063d79779b214610247578063e33b7de314610284576100d1565b806319165587146100d65780633a98ef39146100ff578063406072a91461012a57806348b7504414610167576100d1565b366100d1577f6ef95f06320e7a25a04a175ca677b7052bdd97131872c2192525a629f51be7706100b86102af565b346040516100c7929190610d96565b60405180910390a1005b600080fd5b3480156100e257600080fd5b506100fd60048036038101906100f89190610e02565b6102b7565b005b34801561010b57600080fd5b50610114610462565b6040516101219190610e2f565b60405180910390f35b34801561013657600080fd5b50610151600480360381019061014c9190610eb4565b61046b565b60405161015e9190610e2f565b60405180910390f35b34801561017357600080fd5b5061018e60048036038101906101899190610eb4565b6104f2565b005b34801561019c57600080fd5b506101b760048036038101906101b29190610f20565b6107ba565b6040516101c49190610f4d565b60405180910390f35b3480156101d957600080fd5b506101f460048036038101906101ef9190610f68565b610802565b6040516102019190610e2f565b60405180910390f35b34801561021657600080fd5b50610231600480360381019061022c9190610f68565b61084b565b60405161023e9190610e2f565b60405180910390f35b34801561025357600080fd5b5061026e60048036038101906102699190610f95565b610894565b60405161027b9190610e2f565b60405180910390f35b34801561029057600080fd5b506102996108dd565b6040516102a69190610e2f565b60405180910390f35b600033905090565b6000600260008373ffffffffffffffffffffffffffffffffffffffff1673ffffffffffffffffffffffffffffffffffffffff1681526020019081526020016000205411610339576040517f08c379a000000000000000000000000000000000000000000000000000000000815260040161033090611045565b60405180910390fd5b60006103436108dd565b4761034e9190611094565b90506000610365838361036086610802565b6108e7565b905060008114156103ab576040517f08c379a00000000000000000000000000000000000000000000000000000000081526004016103a29061115c565b60405180910390fd5b80600360008573ffffffffffffffffffffffffffffffffffffffff1673ffffffffffffffffffffffffffffffffffffffff16815260200190815260200160002060008282546103fa9190611094565b9250508190555080600160008282546104139190611094565b925050819055506104248382610955565b7fdf20fd1e76bc69d672e4814fafb2c449bba3a5369d8359adf9e05e6fde87b05683826040516104559291906111db565b60405180910390a1505050565b60008054905090565b6000600660008473ffffffffffffffffffffffffffffffffffffffff1673ffffffffffffffffffffffffffffffffffffffff16815260200190815260200160002060008373ffffffffffffffffffffffffffffffffffffffff1673ffffffffffffffffffffffffffffffffffffffff16815260200190815260200160002054905092915050565b6000600260008373ffffffffffffffffffffffffffffffffffffffff1673ffffffffffffffffffffffffffffffffffffffff1681526020019081526020016000205411610574576040517f08c379a000000000000000000000000000000000000000000000000000000000815260040161056b90611045565b60405180910390fd5b600061057f83610894565b8373ffffffffffffffffffffffffffffffffffffffff166370a08231306040518263ffffffff1660e01b81526004016105b89190610f4d565b60206040518083038186803b1580156105d057600080fd5b505afa1580156105e4573d6000803e3d6000fd5b505050506040513d601f19601f820116820180604052508101906106089190611219565b6106129190611094565b9050600061062a8383610625878761046b565b6108e7565b90506000811415610670576040517f08c379a00000000000000000000000000000000000000000000000000000000081526004016106679061115c565b60405180910390fd5b80600660008673ffffffffffffffffffffffffffffffffffffffff1673ffffffffffffffffffffffffffffffffffffffff16815260200190815260200160002060008573ffffffffffffffffffffffffffffffffffffffff1673ffffffffffffffffffffffffffffffffffffffff16815260200190815260200160002060008282546106fc9190611094565b9250508190555080600560008673ffffffffffffffffffffffffffffffffffffffff1673ffffffffffffffffffffffffffffffffffffffff16815260200190815260200160002060008282546107529190611094565b92505081905550610764848483610a49565b8373ffffffffffffffffffffffffffffffffffffffff167f3be5b7a71e84ed12875d241991c70855ac5817d847039e17a9d895c1ceb0f18a84836040516107ac929190610d96565b60405180910390a250505050565b6000600482815481106107d0576107cf611246565b5b9060005260206000200160009054906101000a900473ffffffffffffffffffffffffffffffffffffffff169050919050565b6000600360008373ffffffffffffffffffffffffffffffffffffffff1673ffffffffffffffffffffffffffffffffffffffff168152602001908152602001600020549050919050565b6000600260008373ffffffffffffffffffffffffffffffffffffffff1673ffffffffffffffffffffffffffffffffffffffff168152602001908152602001600020549050919050565b6000600560008373ffffffffffffffffffffffffffffffffffffffff1673ffffffffffffffffffffffffffffffffffffffff168152602001908152602001600020549050919050565b6000600154905090565b600081600054600260008773ffffffffffffffffffffffffffffffffffffffff1673ffffffffffffffffffffffffffffffffffffffff16815260200190815260200160002054856109389190611275565b61094291906112fe565b61094c919061132f565b90509392505050565b80471015610998576040517f08c379a000000000000000000000000000000000000000000000000000000000815260040161098f906113af565b60405180910390fd5b60008273ffffffffffffffffffffffffffffffffffffffff16826040516109be90611400565b60006040518083038185875af1925050503d80600081146109fb576040519150601f19603f3d011682016040523d82523d6000602084013e610a00565b606091505b5050905080610a44576040517f08c379a0000000000000000000000000000000000000000000000000000000008152600401610a3b90611487565b60405180910390fd5b505050565b610aca8363a9059cbb60e01b8484604051602401610a68929190610d96565b604051602081830303815290604052907bffffffffffffffffffffffffffffffffffffffffffffffffffffffff19166020820180517bffffffffffffffffffffffffffffffffffffffffffffffffffffffff8381831617835250505050610acf565b505050565b6000610b31826040518060400160405280602081526020017f5361666545524332303a206c6f772d6c6576656c2063616c6c206661696c65648152508573ffffffffffffffffffffffffffffffffffffffff16610b969092919063ffffffff16565b9050600081511115610b915780806020019051810190610b5191906114df565b610b90576040517f08c379a0000000000000000000000000000000000000000000000000000000008152600401610b879061157e565b60405180910390fd5b5b505050565b6060610ba58484600085610bae565b90509392505050565b606082471015610bf3576040517f08c379a0000000000000000000000000000000000000000000000000000000008152600401610bea90611610565b60405180910390fd5b610bfc85610cc2565b610c3b576040517f08c379a0000000000000000000000000000000000000000000000000000000008152600401610c329061167c565b60405180910390fd5b6000808673ffffffffffffffffffffffffffffffffffffffff168587604051610c64919061170b565b60006040518083038185875af1925050503d8060008114610ca1576040519150601f19603f3d011682016040523d82523d6000602084013e610ca6565b606091505b5091509150610cb6828286610cd5565b92505050949350505050565b600080823b905060008111915050919050565b60608315610ce557829050610d35565b600083511115610cf85782518084602001fd5b816040517f08c379a0000000000000000000000000000000000000000000000000000000008152600401610d2c9190611777565b60405180910390fd5b9392505050565b600073ffffffffffffffffffffffffffffffffffffffff82169050919050565b6000610d6782610d3c565b9050919050565b610d7781610d5c565b82525050565b6000819050919050565b610d9081610d7d565b82525050565b6000604082019050610dab6000830185610d6e565b610db86020830184610d87565b9392505050565b600080fd5b6000610dcf82610d3c565b9050919050565b610ddf81610dc4565b8114610dea57600080fd5b50565b600081359050610dfc81610dd6565b92915050565b600060208284031215610e1857610e17610dbf565b5b6000610e2684828501610ded565b91505092915050565b6000602082019050610e446000830184610d87565b92915050565b6000610e5582610d5c565b9050919050565b610e6581610e4a565b8114610e7057600080fd5b50565b600081359050610e8281610e5c565b92915050565b610e9181610d5c565b8114610e9c57600080fd5b50565b600081359050610eae81610e88565b92915050565b60008060408385031215610ecb57610eca610dbf565b5b6000610ed985828601610e73565b9250506020610eea85828601610e9f565b9150509250929050565b610efd81610d7d565b8114610f0857600080fd5b50565b600081359050610f1a81610ef4565b92915050565b600060208284031215610f3657610f35610dbf565b5b6000610f4484828501610f0b565b91505092915050565b6000602082019050610f626000830184610d6e565b92915050565b600060208284031215610f7e57610f7d610dbf565b5b6000610f8c84828501610e9f565b91505092915050565b600060208284031215610fab57610faa610dbf565b5b6000610fb984828501610e73565b91505092915050565b600082825260208201905092915050565b7f5061796d656e7453706c69747465723a206163636f756e7420686173206e6f2060008201527f7368617265730000000000000000000000000000000000000000000000000000602082015250565b600061102f602683610fc2565b915061103a82610fd3565b604082019050919050565b6000602082019050818103600083015261105e81611022565b9050919050565b7f4e487b7100000000000000000000000000000000000000000000000000000000600052601160045260246000fd5b600061109f82610d7d565b91506110aa83610d7d565b9250827fffffffffffffffffffffffffffffffffffffffffffffffffffffffffffffffff038211156110df576110de611065565b5b828201905092915050565b7f5061796d656e7453706c69747465723a206163636f756e74206973206e6f742060008201527f647565207061796d656e74000000000000000000000000000000000000000000602082015250565b6000611146602b83610fc2565b9150611151826110ea565b604082019050919050565b6000602082019050818103600083015261117581611139565b9050919050565b6000819050919050565b60006111a161119c61119784610d3c565b61117c565b610d3c565b9050919050565b60006111b382611186565b9050919050565b60006111c5826111a8565b9050919050565b6111d5816111ba565b82525050565b60006040820190506111f060008301856111cc565b6111fd6020830184610d87565b9392505050565b60008151905061121381610ef4565b92915050565b60006020828403121561122f5761122e610dbf565b5b600061123d84828501611204565b91505092915050565b7f4e487b7100000000000000000000000000000000000000000000000000000000600052603260045260246000fd5b600061128082610d7d565b915061128b83610d7d565b9250817fffffffffffffffffffffffffffffffffffffffffffffffffffffffffffffffff04831182151516156112c4576112c3611065565b5b828202905092915050565b7f4e487b7100000000000000000000000000000000000000000000000000000000600052601260045260246000fd5b600061130982610d7d565b915061131483610d7d565b925082611324576113236112cf565b5b828204905092915050565b600061133a82610d7d565b915061134583610d7d565b92508282101561135857611357611065565b5b828203905092915050565b7f416464726573733a20696e73756666696369656e742062616c616e6365000000600082015250565b6000611399601d83610fc2565b91506113a482611363565b602082019050919050565b600060208201905081810360008301526113c88161138c565b9050919050565b600081905092915050565b50565b60006113ea6000836113cf565b91506113f5826113da565b600082019050919050565b600061140b826113dd565b9150819050919050565b7f416464726573733a20756e61626c6520746f2073656e642076616c75652c207260008201527f6563697069656e74206d61792068617665207265766572746564000000000000602082015250565b6000611471603a83610fc2565b915061147c82611415565b604082019050919050565b600060208201905081810360008301526114a081611464565b9050919050565b60008115159050919050565b6114bc816114a7565b81146114c757600080fd5b50565b6000815190506114d9816114b3565b92915050565b6000602082840312156114f5576114f4610dbf565b5b6000611503848285016114ca565b91505092915050565b7f5361666545524332303a204552433230206f7065726174696f6e20646964206e60008201527f6f74207375636365656400000000000000000000000000000000000000000000602082015250565b6000611568602a83610fc2565b91506115738261150c565b604082019050919050565b600060208201905081810360008301526115978161155b565b9050919050565b7f416464726573733a20696e73756666696369656e742062616c616e636520666f60008201527f722063616c6c0000000000000000000000000000000000000000000000000000602082015250565b60006115fa602683610fc2565b91506116058261159e565b604082019050919050565b60006020820190508181036000830152611629816115ed565b9050919050565b7f416464726573733a2063616c6c20746f206e6f6e2d636f6e7472616374000000600082015250565b6000611666601d83610fc2565b915061167182611630565b602082019050919050565b6000602082019050818103600083015261169581611659565b9050919050565b600081519050919050565b60005b838110156116c55780820151818401526020810190506116aa565b838111156116d4576000848401525b50505050565b60006116e58261169c565b6116ef81856113cf565b93506116ff8185602086016116a7565b80840191505092915050565b600061171782846116da565b915081905092915050565b600081519050919050565b6000601f19601f8301169050919050565b600061174982611722565b6117538185610fc2565b93506117638185602086016116a7565b61176c8161172d565b840191505092915050565b60006020820190508181036000830152611791818461173e565b90509291505056fea264697066735822122049b568040ac9619103a2e937b46c4dc756edf1e74b09968f1769fe1340c66e3a64736f6c63430008090033",
  "linkReferences": {},
  "deployedLinkReferences": {}
}