{
  "_format": "hh-sol-artifact-1",
  "contractName": "ERC1155Snap",
  "sourceName": "contracts/token presets/ERC1155/ERC1155Snap.sol",
  "abi": [
    {
      "inputs": [],
      "stateMutability": "nonpayable",
      "type": "constructor"
    },
    {
      "anonymous": false,
      "inputs": [
        {
          "indexed": true,
          "internalType": "address",
          "name": "account",
          "type": "address"
        },
        {
          "indexed": true,
          "internalType": "address",
          "name": "operator",
          "type": "address"
        },
        {
          "indexed": false,
          "internalType": "bool",
          "name": "approved",
          "type": "bool"
        }
      ],
      "name": "ApprovalForAll",
      "type": "event"
    },
    {
      "anonymous": false,
      "inputs": [
        {
          "indexed": false,
          "internalType": "uint256",
          "name": "id",
          "type": "uint256"
        }
      ],
      "name": "Snapshot",
      "type": "event"
    },
    {
      "anonymous": false,
      "inputs": [
        {
          "indexed": true,
          "internalType": "address",
          "name": "operator",
          "type": "address"
        },
        {
          "indexed": true,
          "internalType": "address",
          "name": "from",
          "type": "address"
        },
        {
          "indexed": true,
          "internalType": "address",
          "name": "to",
          "type": "address"
        },
        {
          "indexed": false,
          "internalType": "uint256[]",
          "name": "ids",
          "type": "uint256[]"
        },
        {
          "indexed": false,
          "internalType": "uint256[]",
          "name": "values",
          "type": "uint256[]"
        }
      ],
      "name": "TransferBatch",
      "type": "event"
    },
    {
      "anonymous": false,
      "inputs": [
        {
          "indexed": true,
          "internalType": "address",
          "name": "operator",
          "type": "address"
        },
        {
          "indexed": true,
          "internalType": "address",
          "name": "from",
          "type": "address"
        },
        {
          "indexed": true,
          "internalType": "address",
          "name": "to",
          "type": "address"
        },
        {
          "indexed": false,
          "internalType": "uint256",
          "name": "id",
          "type": "uint256"
        },
        {
          "indexed": false,
          "internalType": "uint256",
          "name": "value",
          "type": "uint256"
        }
      ],
      "name": "TransferSingle",
      "type": "event"
    },
    {
      "anonymous": false,
      "inputs": [
        {
          "indexed": false,
          "internalType": "string",
          "name": "value",
          "type": "string"
        },
        {
          "indexed": true,
          "internalType": "uint256",
          "name": "id",
          "type": "uint256"
        }
      ],
      "name": "URI",
      "type": "event"
    },
    {
      "inputs": [
        {
          "internalType": "address",
          "name": "account",
          "type": "address"
        },
        {
          "internalType": "uint256",
          "name": "id",
          "type": "uint256"
        }
      ],
      "name": "balanceOf",
      "outputs": [
        {
          "internalType": "uint256",
          "name": "",
          "type": "uint256"
        }
      ],
      "stateMutability": "view",
      "type": "function"
    },
    {
      "inputs": [
        {
          "internalType": "address",
          "name": "account",
          "type": "address"
        },
        {
          "internalType": "uint256",
          "name": "id",
          "type": "uint256"
        },
        {
          "internalType": "uint256",
          "name": "snapshotId",
          "type": "uint256"
        }
      ],
      "name": "balanceOfAt",
      "outputs": [
        {
          "internalType": "uint256",
          "name": "",
          "type": "uint256"
        }
      ],
      "stateMutability": "view",
      "type": "function"
    },
    {
      "inputs": [
        {
          "internalType": "address[]",
          "name": "accounts",
          "type": "address[]"
        },
        {
          "internalType": "uint256[]",
          "name": "ids",
          "type": "uint256[]"
        }
      ],
      "name": "balanceOfBatch",
      "outputs": [
        {
          "internalType": "uint256[]",
          "name": "",
          "type": "uint256[]"
        }
      ],
      "stateMutability": "view",
      "type": "function"
    },
    {
      "inputs": [
        {
          "internalType": "address",
          "name": "account",
          "type": "address"
        },
        {
          "internalType": "address",
          "name": "operator",
          "type": "address"
        }
      ],
      "name": "isApprovedForAll",
      "outputs": [
        {
          "internalType": "bool",
          "name": "",
          "type": "bool"
        }
      ],
      "stateMutability": "view",
      "type": "function"
    },
    {
      "inputs": [
        {
          "internalType": "address",
          "name": "to",
          "type": "address"
        },
        {
          "internalType": "uint256",
          "name": "id",
          "type": "uint256"
        },
        {
          "internalType": "uint256",
          "name": "amount",
          "type": "uint256"
        },
        {
          "internalType": "bytes",
          "name": "data",
          "type": "bytes"
        }
      ],
      "name": "mint",
      "outputs": [],
      "stateMutability": "nonpayable",
      "type": "function"
    },
    {
      "inputs": [
        {
          "internalType": "address",
          "name": "from",
          "type": "address"
        },
        {
          "internalType": "address",
          "name": "to",
          "type": "address"
        },
        {
          "internalType": "uint256[]",
          "name": "ids",
          "type": "uint256[]"
        },
        {
          "internalType": "uint256[]",
          "name": "amounts",
          "type": "uint256[]"
        },
        {
          "internalType": "bytes",
          "name": "data",
          "type": "bytes"
        }
      ],
      "name": "safeBatchTransferFrom",
      "outputs": [],
      "stateMutability": "nonpayable",
      "type": "function"
    },
    {
      "inputs": [
        {
          "internalType": "address",
          "name": "from",
          "type": "address"
        },
        {
          "internalType": "address",
          "name": "to",
          "type": "address"
        },
        {
          "internalType": "uint256",
          "name": "id",
          "type": "uint256"
        },
        {
          "internalType": "uint256",
          "name": "amount",
          "type": "uint256"
        },
        {
          "internalType": "bytes",
          "name": "data",
          "type": "bytes"
        }
      ],
      "name": "safeTransferFrom",
      "outputs": [],
      "stateMutability": "nonpayable",
      "type": "function"
    },
    {
      "inputs": [
        {
          "internalType": "address",
          "name": "operator",
          "type": "address"
        },
        {
          "internalType": "bool",
          "name": "approved",
          "type": "bool"
        }
      ],
      "name": "setApprovalForAll",
      "outputs": [],
      "stateMutability": "nonpayable",
      "type": "function"
    },
    {
      "inputs": [],
      "name": "snapshot",
      "outputs": [],
      "stateMutability": "nonpayable",
      "type": "function"
    },
    {
      "inputs": [
        {
          "internalType": "bytes4",
          "name": "interfaceId",
          "type": "bytes4"
        }
      ],
      "name": "supportsInterface",
      "outputs": [
        {
          "internalType": "bool",
          "name": "",
          "type": "bool"
        }
      ],
      "stateMutability": "view",
      "type": "function"
    },
    {
      "inputs": [
        {
          "internalType": "uint256",
          "name": "id",
          "type": "uint256"
        }
      ],
      "name": "totalSupply",
      "outputs": [
        {
          "internalType": "uint256",
          "name": "",
          "type": "uint256"
        }
      ],
      "stateMutability": "view",
      "type": "function"
    },
    {
      "inputs": [
        {
          "internalType": "uint256",
          "name": "id",
          "type": "uint256"
        },
        {
          "internalType": "uint256",
          "name": "snapshotId",
          "type": "uint256"
        }
      ],
      "name": "totalSupplyAt",
      "outputs": [
        {
          "internalType": "uint256",
          "name": "",
          "type": "uint256"
        }
      ],
      "stateMutability": "view",
      "type": "function"
    },
    {
      "inputs": [
        {
          "internalType": "uint256",
          "name": "",
          "type": "uint256"
        }
      ],
      "name": "uri",
      "outputs": [
        {
          "internalType": "string",
          "name": "",
          "type": "string"
        }
      ],
      "stateMutability": "view",
      "type": "function"
    }
  ],
  "bytecode": "0x60806040523480156200001157600080fd5b506040518060400160405280600b81526020017f45524331313535536e617000000000000000000000000000000000000000000081525062000059816200006060201b60201c565b5062000191565b8060029080519060200190620000789291906200007c565b5050565b8280546200008a906200015b565b90600052602060002090601f016020900481019282620000ae5760008555620000fa565b82601f10620000c957805160ff1916838001178555620000fa565b82800160010185558215620000fa579182015b82811115620000f9578251825591602001919060010190620000dc565b5b5090506200010991906200010d565b5090565b5b80821115620001285760008160009055506001016200010e565b5090565b7f4e487b7100000000000000000000000000000000000000000000000000000000600052602260045260246000fd5b600060028204905060018216806200017457607f821691505b602082108114156200018b576200018a6200012c565b5b50919050565b61375280620001a16000396000f3fe608060405234801561001057600080fd5b50600436106100ce5760003560e01c8063731133e91161008c578063a22cb46511610066578063a22cb46514610235578063bd85b03914610251578063e985e9c514610281578063f242432a146102b1576100ce565b8063731133e9146101df5780638aa7a8b0146101fb5780639711715a1461022b576100ce565b8062fdd58e146100d357806301ffc9a7146101035780630e89341c146101335780632eb2c2d6146101635780634e1273f41461017f578063626da068146101af575b600080fd5b6100ed60048036038101906100e89190612232565b6102cd565b6040516100fa9190612281565b60405180910390f35b61011d600480360381019061011891906122f4565b610396565b60405161012a919061233c565b60405180910390f35b61014d60048036038101906101489190612357565b610478565b60405161015a919061241d565b60405180910390f35b61017d6004803603810190610178919061263c565b61050c565b005b610199600480360381019061019491906127ce565b6105ad565b6040516101a69190612904565b60405180910390f35b6101c960048036038101906101c49190612926565b6106c6565b6040516101d69190612281565b60405180910390f35b6101f960048036038101906101f49190612979565b610749565b005b610215600480360381019061021091906129fc565b610764565b6040516102229190612281565b60405180910390f35b6102336107a8565b005b61024f600480360381019061024a9190612a68565b6107b3565b005b61026b60048036038101906102669190612357565b6107c9565b6040516102789190612281565b60405180910390f35b61029b60048036038101906102969190612aa8565b6107e6565b6040516102a8919061233c565b60405180910390f35b6102cb60048036038101906102c69190612ae8565b61087a565b005b60008073ffffffffffffffffffffffffffffffffffffffff168373ffffffffffffffffffffffffffffffffffffffff16141561033e576040517f08c379a000000000000000000000000000000000000000000000000000000000815260040161033590612bf1565b60405180910390fd5b60008083815260200190815260200160002060008473ffffffffffffffffffffffffffffffffffffffff1673ffffffffffffffffffffffffffffffffffffffff16815260200190815260200160002054905092915050565b60007fd9b67a26000000000000000000000000000000000000000000000000000000007bffffffffffffffffffffffffffffffffffffffffffffffffffffffff1916827bffffffffffffffffffffffffffffffffffffffffffffffffffffffff1916148061046157507f0e89341c000000000000000000000000000000000000000000000000000000007bffffffffffffffffffffffffffffffffffffffffffffffffffffffff1916827bffffffffffffffffffffffffffffffffffffffffffffffffffffffff1916145b8061047157506104708261091b565b5b9050919050565b60606002805461048790612c40565b80601f01602080910402602001604051908101604052809291908181526020018280546104b390612c40565b80156105005780601f106104d557610100808354040283529160200191610500565b820191906000526020600020905b8154815290600101906020018083116104e357829003601f168201915b50505050509050919050565b610514610985565b73ffffffffffffffffffffffffffffffffffffffff168573ffffffffffffffffffffffffffffffffffffffff16148061055a575061055985610554610985565b6107e6565b5b610599576040517f08c379a000000000000000000000000000000000000000000000000000000000815260040161059090612ce4565b60405180910390fd5b6105a6858585858561098d565b5050505050565b606081518351146105f3576040517f08c379a00000000000000000000000000000000000000000000000000000000081526004016105ea90612d76565b60405180910390fd5b6000835167ffffffffffffffff8111156106105761060f612444565b5b60405190808252806020026020018201604052801561063e5781602001602082028036833780820191505090505b50905060005b84518110156106bb5761068b85828151811061066357610662612d96565b5b602002602001015185838151811061067e5761067d612d96565b5b60200260200101516102cd565b82828151811061069e5761069d612d96565b5b602002602001018181525050806106b490612df4565b9050610644565b508091505092915050565b600080600061072484600360008973ffffffffffffffffffffffffffffffffffffffff1673ffffffffffffffffffffffffffffffffffffffff1681526020019081526020016000206000888152602001908152602001600020610caf565b915091508161073c5761073786866102cd565b61073e565b805b925050509392505050565b610751610da5565b5061075e84848484610dfb565b50505050565b60008060006107858460046000888152602001908152602001600020610caf565b915091508161079c57610797856107c9565b61079e565b805b9250505092915050565b6107b0610da5565b50565b6107c56107be610985565b838361106f565b5050565b600060056000838152602001908152602001600020549050919050565b6000600160008473ffffffffffffffffffffffffffffffffffffffff1673ffffffffffffffffffffffffffffffffffffffff16815260200190815260200160002060008373ffffffffffffffffffffffffffffffffffffffff1673ffffffffffffffffffffffffffffffffffffffff16815260200190815260200160002060009054906101000a900460ff16905092915050565b610882610985565b73ffffffffffffffffffffffffffffffffffffffff168573ffffffffffffffffffffffffffffffffffffffff1614806108c857506108c7856108c2610985565b6107e6565b5b610907576040517f08c379a00000000000000000000000000000000000000000000000000000000081526004016108fe90612eaf565b60405180910390fd5b61091485858585856111dc565b5050505050565b60007f01ffc9a7000000000000000000000000000000000000000000000000000000007bffffffffffffffffffffffffffffffffffffffffffffffffffffffff1916827bffffffffffffffffffffffffffffffffffffffffffffffffffffffff1916149050919050565b600033905090565b81518351146109d1576040517f08c379a00000000000000000000000000000000000000000000000000000000081526004016109c890612f41565b60405180910390fd5b600073ffffffffffffffffffffffffffffffffffffffff168473ffffffffffffffffffffffffffffffffffffffff161415610a41576040517f08c379a0000000000000000000000000000000000000000000000000000000008152600401610a3890612fd3565b60405180910390fd5b6000610a4b610985565b90506000610a5d82878988888861146c565b9050610a688161154d565b60005b8551811015610c19576000868281518110610a8957610a88612d96565b5b602002602001015190506000868381518110610aa857610aa7612d96565b5b60200260200101519050600080600084815260200190815260200160002060008c73ffffffffffffffffffffffffffffffffffffffff1673ffffffffffffffffffffffffffffffffffffffff16815260200190815260200160002054905081811015610b49576040517f08c379a0000000000000000000000000000000000000000000000000000000008152600401610b4090613065565b60405180910390fd5b81810360008085815260200190815260200160002060008d73ffffffffffffffffffffffffffffffffffffffff1673ffffffffffffffffffffffffffffffffffffffff168152602001908152602001600020819055508160008085815260200190815260200160002060008c73ffffffffffffffffffffffffffffffffffffffff1673ffffffffffffffffffffffffffffffffffffffff1681526020019081526020016000206000828254610bfe9190613085565b9250508190555050505080610c1290612df4565b9050610a6b565b508573ffffffffffffffffffffffffffffffffffffffff168773ffffffffffffffffffffffffffffffffffffffff168373ffffffffffffffffffffffffffffffffffffffff167f4a39dc06d4c0dbc64b70af90fd698a233a518aa5d07e595d983b8c0526c8f7fb8888604051610c909291906130db565b60405180910390a4610ca68288888888886118eb565b50505050505050565b60008060008411610cf5576040517f08c379a0000000000000000000000000000000000000000000000000000000008152600401610cec9061315e565b60405180910390fd5b610cfd611ad2565b841115610d3f576040517f08c379a0000000000000000000000000000000000000000000000000000000008152600401610d36906131ca565b60405180910390fd5b6000610d578585600001611ae390919063ffffffff16565b90508360000180549050811415610d75576000809250925050610d9e565b6001846001018281548110610d8d57610d8c612d96565b5b906000526020600020015492509250505b9250929050565b6000610db16006611bbd565b6000610dbb611ad2565b90507f8030e83b04d87bef53480e26263266d6ca66863aa8506aca6f2559d18aa1cb6781604051610dec9190612281565b60405180910390a18091505090565b600073ffffffffffffffffffffffffffffffffffffffff168473ffffffffffffffffffffffffffffffffffffffff161415610e6b576040517f08c379a0000000000000000000000000000000000000000000000000000000008152600401610e629061325c565b60405180910390fd5b6000610e75610985565b90506000600167ffffffffffffffff811115610e9457610e93612444565b5b604051908082528060200260200182016040528015610ec25781602001602082028036833780820191505090505b5090506000600167ffffffffffffffff811115610ee257610ee1612444565b5b604051908082528060200260200182016040528015610f105781602001602082028036833780820191505090505b5090508582600081518110610f2857610f27612d96565b5b6020026020010181815250508481600081518110610f4957610f48612d96565b5b6020026020010181815250506000610f668489600086868a61146c565b9050610f718161154d565b8560008089815260200190815260200160002060008a73ffffffffffffffffffffffffffffffffffffffff1673ffffffffffffffffffffffffffffffffffffffff1681526020019081526020016000206000828254610fd09190613085565b925050819055508773ffffffffffffffffffffffffffffffffffffffff16600073ffffffffffffffffffffffffffffffffffffffff168573ffffffffffffffffffffffffffffffffffffffff167fc3d58168c5ae7397731d063d5bbf3d657854427343f4c083240f7aacaa2d0f628a8a60405161104e92919061327c565b60405180910390a46110658460008a8a8a8a611bd3565b5050505050505050565b8173ffffffffffffffffffffffffffffffffffffffff168373ffffffffffffffffffffffffffffffffffffffff1614156110de576040517f08c379a00000000000000000000000000000000000000000000000000000000081526004016110d590613317565b60405180910390fd5b80600160008573ffffffffffffffffffffffffffffffffffffffff1673ffffffffffffffffffffffffffffffffffffffff16815260200190815260200160002060008473ffffffffffffffffffffffffffffffffffffffff1673ffffffffffffffffffffffffffffffffffffffff16815260200190815260200160002060006101000a81548160ff0219169083151502179055508173ffffffffffffffffffffffffffffffffffffffff168373ffffffffffffffffffffffffffffffffffffffff167f17307eab39ab6107e8899845ad3d59bd9653f200f220920489ca2b5937696c31836040516111cf919061233c565b60405180910390a3505050565b600073ffffffffffffffffffffffffffffffffffffffff168473ffffffffffffffffffffffffffffffffffffffff16141561124c576040517f08c379a000000000000000000000000000000000000000000000000000000000815260040161124390612fd3565b60405180910390fd5b6000611256610985565b9050600061127882878961126989611dba565b61127289611dba565b8861146c565b90506112838161154d565b600080600087815260200190815260200160002060008973ffffffffffffffffffffffffffffffffffffffff1673ffffffffffffffffffffffffffffffffffffffff1681526020019081526020016000205490508481101561131a576040517f08c379a000000000000000000000000000000000000000000000000000000000815260040161131190613065565b60405180910390fd5b84810360008088815260200190815260200160002060008a73ffffffffffffffffffffffffffffffffffffffff1673ffffffffffffffffffffffffffffffffffffffff168152602001908152602001600020819055508460008088815260200190815260200160002060008973ffffffffffffffffffffffffffffffffffffffff1673ffffffffffffffffffffffffffffffffffffffff16815260200190815260200160002060008282546113cf9190613085565b925050819055508673ffffffffffffffffffffffffffffffffffffffff168873ffffffffffffffffffffffffffffffffffffffff168473ffffffffffffffffffffffffffffffffffffffff167fc3d58168c5ae7397731d063d5bbf3d657854427343f4c083240f7aacaa2d0f62898960405161144c92919061327c565b60405180910390a4611462838989898989611bd3565b5050505050505050565b611474612112565b61147c612112565b87816000019073ffffffffffffffffffffffffffffffffffffffff16908173ffffffffffffffffffffffffffffffffffffffff168152505085816020019073ffffffffffffffffffffffffffffffffffffffff16908173ffffffffffffffffffffffffffffffffffffffff168152505086816040019073ffffffffffffffffffffffffffffffffffffffff16908173ffffffffffffffffffffffffffffffffffffffff1681525050848160600181905250838160800181905250828160a00181905250809150509695505050505050565b61155681611e34565b600073ffffffffffffffffffffffffffffffffffffffff16816020015173ffffffffffffffffffffffffffffffffffffffff1614156116e857600181606001515114156116395780608001516000815181106115b5576115b4612d96565b5b60200260200101516005600083606001516000815181106115d9576115d8612d96565b5b6020026020010151815260200190815260200160002060008282546115fe9190613085565b9250508190555061161f816040015161161a8360600151611e37565b611e61565b61163461162f8260600151611e37565b611ec7565b6116e3565b60005b8160600151518110156116c257816080015181815181106116605761165f612d96565b5b6020026020010151600560008460600151848151811061168357611682612d96565b5b6020026020010151815260200190815260200160002060008282546116a89190613085565b9250508190555080806116ba90612df4565b91505061163c565b506116d581604001518260600151611eee565b6116e28160600151611f94565b5b6118e8565b600073ffffffffffffffffffffffffffffffffffffffff16816040015173ffffffffffffffffffffffffffffffffffffffff16141561187a57600181606001515114156117cb57806080015160008151811061174757611746612d96565b5b602002602001015160056000836060015160008151811061176b5761176a612d96565b5b6020026020010151815260200190815260200160002060008282546117909190613337565b925050819055506117b181604001516117ac8360600151611e37565b611e61565b6117c66117c18260600151611e37565b611ec7565b611875565b60005b81606001515181101561185457816080015181815181106117f2576117f1612d96565b5b6020026020010151600560008460600151848151811061181557611814612d96565b5b60200260200101518152602001908152602001600020600082825461183a9190613337565b92505081905550808061184c90612df4565b9150506117ce565b5061186781602001518260600151611eee565b6118748160600151611f94565b5b6118e7565b600181606001515114156118c1576118a2816020015161189d8360600151611e37565b611e61565b6118bc81604001516118b78360600151611e37565b611e61565b6118e6565b6118d381602001518260600151611eee565b6118e581604001518260600151611eee565b5b5b5b50565b61190a8473ffffffffffffffffffffffffffffffffffffffff16612003565b15611aca578373ffffffffffffffffffffffffffffffffffffffff1663bc197c8187878686866040518663ffffffff1660e01b81526004016119509594939291906133cf565b602060405180830381600087803b15801561196a57600080fd5b505af192505050801561199b57506040513d601f19601f82011682018060405250810190611998919061344c565b60015b611a41576119a7613486565b806308c379a01415611a0457506119bc6134a8565b806119c75750611a06565b806040517f08c379a00000000000000000000000000000000000000000000000000000000081526004016119fb919061241d565b60405180910390fd5b505b6040517f08c379a0000000000000000000000000000000000000000000000000000000008152600401611a38906135b0565b60405180910390fd5b63bc197c8160e01b7bffffffffffffffffffffffffffffffffffffffffffffffffffffffff1916817bffffffffffffffffffffffffffffffffffffffffffffffffffffffff191614611ac8576040517f08c379a0000000000000000000000000000000000000000000000000000000008152600401611abf90613642565b60405180910390fd5b505b505050505050565b6000611ade6006612016565b905090565b60008083805490501415611afa5760009050611bb7565b600080848054905090505b80821015611b5e576000611b198383612024565b905084868281548110611b2f57611b2e612d96565b5b90600052602060002001541115611b4857809150611b58565b600181611b559190613085565b92505b50611b05565b600082118015611b9657508385600184611b789190613337565b81548110611b8957611b88612d96565b5b9060005260206000200154145b15611bb157600182611ba89190613337565b92505050611bb7565b81925050505b92915050565b6001816000016000828254019250508190555050565b611bf28473ffffffffffffffffffffffffffffffffffffffff16612003565b15611db2578373ffffffffffffffffffffffffffffffffffffffff1663f23a6e6187878686866040518663ffffffff1660e01b8152600401611c38959493929190613662565b602060405180830381600087803b158015611c5257600080fd5b505af1925050508015611c8357506040513d601f19601f82011682018060405250810190611c80919061344c565b60015b611d2957611c8f613486565b806308c379a01415611cec5750611ca46134a8565b80611caf5750611cee565b806040517f08c379a0000000000000000000000000000000000000000000000000000000008152600401611ce3919061241d565b60405180910390fd5b505b6040517f08c379a0000000000000000000000000000000000000000000000000000000008152600401611d20906135b0565b60405180910390fd5b63f23a6e6160e01b7bffffffffffffffffffffffffffffffffffffffffffffffffffffffff1916817bffffffffffffffffffffffffffffffffffffffffffffffffffffffff191614611db0576040517f08c379a0000000000000000000000000000000000000000000000000000000008152600401611da790613642565b60405180910390fd5b505b505050505050565b60606000600167ffffffffffffffff811115611dd957611dd8612444565b5b604051908082528060200260200182016040528015611e075781602001602082028036833780820191505090505b5090508281600081518110611e1f57611e1e612d96565b5b60200260200101818152505080915050919050565b50565b60008082600081518110611e4e57611e4d612d96565b5b6020026020010151905080915050919050565b611ec3600360008473ffffffffffffffffffffffffffffffffffffffff1673ffffffffffffffffffffffffffffffffffffffff1681526020019081526020016000206000838152602001908152602001600020611ebe84846102cd565b61204a565b5050565b611eeb60046000838152602001908152602001600020611ee6836107c9565b61204a565b50565b60005b8151811015611f8f576000828281518110611f0f57611f0e612d96565b5b60200260200101519050611f7b600360008673ffffffffffffffffffffffffffffffffffffffff1673ffffffffffffffffffffffffffffffffffffffff1681526020019081526020016000206000838152602001908152602001600020611f7686846102cd565b61204a565b508080611f8790612df4565b915050611ef1565b505050565b60005b8151811015611fff576000828281518110611fb557611fb4612d96565b5b60200260200101519050611feb60046000838152602001908152602001600020611fe6611fe186611e37565b6107c9565b61204a565b508080611ff790612df4565b915050611f97565b5050565b600080823b905060008111915050919050565b600081600001549050919050565b6000600282841861203591906136eb565b8284166120429190613085565b905092915050565b6000612054611ad2565b905080612063846000016120c5565b10156120c05782600001819080600181540180825580915050600190039060005260206000200160009091909190915055826001018290806001815401808255809150506001900390600052602060002001600090919091909150555b505050565b600080828054905014156120dc576000905061210d565b81600183805490506120ee9190613337565b815481106120ff576120fe612d96565b5b906000526020600020015490505b919050565b6040518060c00160405280600073ffffffffffffffffffffffffffffffffffffffff168152602001600073ffffffffffffffffffffffffffffffffffffffff168152602001600073ffffffffffffffffffffffffffffffffffffffff1681526020016060815260200160608152602001606081525090565b6000604051905090565b600080fd5b600080fd5b600073ffffffffffffffffffffffffffffffffffffffff82169050919050565b60006121c98261219e565b9050919050565b6121d9816121be565b81146121e457600080fd5b50565b6000813590506121f6816121d0565b92915050565b6000819050919050565b61220f816121fc565b811461221a57600080fd5b50565b60008135905061222c81612206565b92915050565b6000806040838503121561224957612248612194565b5b6000612257858286016121e7565b92505060206122688582860161221d565b9150509250929050565b61227b816121fc565b82525050565b60006020820190506122966000830184612272565b92915050565b60007fffffffff0000000000000000000000000000000000000000000000000000000082169050919050565b6122d18161229c565b81146122dc57600080fd5b50565b6000813590506122ee816122c8565b92915050565b60006020828403121561230a57612309612194565b5b6000612318848285016122df565b91505092915050565b60008115159050919050565b61233681612321565b82525050565b6000602082019050612351600083018461232d565b92915050565b60006020828403121561236d5761236c612194565b5b600061237b8482850161221d565b91505092915050565b600081519050919050565b600082825260208201905092915050565b60005b838110156123be5780820151818401526020810190506123a3565b838111156123cd576000848401525b50505050565b6000601f19601f8301169050919050565b60006123ef82612384565b6123f9818561238f565b93506124098185602086016123a0565b612412816123d3565b840191505092915050565b6000602082019050818103600083015261243781846123e4565b905092915050565b600080fd5b7f4e487b7100000000000000000000000000000000000000000000000000000000600052604160045260246000fd5b61247c826123d3565b810181811067ffffffffffffffff8211171561249b5761249a612444565b5b80604052505050565b60006124ae61218a565b90506124ba8282612473565b919050565b600067ffffffffffffffff8211156124da576124d9612444565b5b602082029050602081019050919050565b600080fd5b60006125036124fe846124bf565b6124a4565b90508083825260208201905060208402830185811115612526576125256124eb565b5b835b8181101561254f578061253b888261221d565b845260208401935050602081019050612528565b5050509392505050565b600082601f83011261256e5761256d61243f565b5b813561257e8482602086016124f0565b91505092915050565b600080fd5b600067ffffffffffffffff8211156125a7576125a6612444565b5b6125b0826123d3565b9050602081019050919050565b82818337600083830152505050565b60006125df6125da8461258c565b6124a4565b9050828152602081018484840111156125fb576125fa612587565b5b6126068482856125bd565b509392505050565b600082601f8301126126235761262261243f565b5b81356126338482602086016125cc565b91505092915050565b600080600080600060a0868803121561265857612657612194565b5b6000612666888289016121e7565b9550506020612677888289016121e7565b945050604086013567ffffffffffffffff81111561269857612697612199565b5b6126a488828901612559565b935050606086013567ffffffffffffffff8111156126c5576126c4612199565b5b6126d188828901612559565b925050608086013567ffffffffffffffff8111156126f2576126f1612199565b5b6126fe8882890161260e565b9150509295509295909350565b600067ffffffffffffffff82111561272657612725612444565b5b602082029050602081019050919050565b600061274a6127458461270b565b6124a4565b9050808382526020820190506020840283018581111561276d5761276c6124eb565b5b835b81811015612796578061278288826121e7565b84526020840193505060208101905061276f565b5050509392505050565b600082601f8301126127b5576127b461243f565b5b81356127c5848260208601612737565b91505092915050565b600080604083850312156127e5576127e4612194565b5b600083013567ffffffffffffffff81111561280357612802612199565b5b61280f858286016127a0565b925050602083013567ffffffffffffffff8111156128305761282f612199565b5b61283c85828601612559565b9150509250929050565b600081519050919050565b600082825260208201905092915050565b6000819050602082019050919050565b61287b816121fc565b82525050565b600061288d8383612872565b60208301905092915050565b6000602082019050919050565b60006128b182612846565b6128bb8185612851565b93506128c683612862565b8060005b838110156128f75781516128de8882612881565b97506128e983612899565b9250506001810190506128ca565b5085935050505092915050565b6000602082019050818103600083015261291e81846128a6565b905092915050565b60008060006060848603121561293f5761293e612194565b5b600061294d868287016121e7565b935050602061295e8682870161221d565b925050604061296f8682870161221d565b9150509250925092565b6000806000806080858703121561299357612992612194565b5b60006129a1878288016121e7565b94505060206129b28782880161221d565b93505060406129c38782880161221d565b925050606085013567ffffffffffffffff8111156129e4576129e3612199565b5b6129f08782880161260e565b91505092959194509250565b60008060408385031215612a1357612a12612194565b5b6000612a218582860161221d565b9250506020612a328582860161221d565b9150509250929050565b612a4581612321565b8114612a5057600080fd5b50565b600081359050612a6281612a3c565b92915050565b60008060408385031215612a7f57612a7e612194565b5b6000612a8d858286016121e7565b9250506020612a9e85828601612a53565b9150509250929050565b60008060408385031215612abf57612abe612194565b5b6000612acd858286016121e7565b9250506020612ade858286016121e7565b9150509250929050565b600080600080600060a08688031215612b0457612b03612194565b5b6000612b12888289016121e7565b9550506020612b23888289016121e7565b9450506040612b348882890161221d565b9350506060612b458882890161221d565b925050608086013567ffffffffffffffff811115612b6657612b65612199565b5b612b728882890161260e565b9150509295509295909350565b7f455243313135353a2062616c616e636520717565727920666f7220746865207a60008201527f65726f2061646472657373000000000000000000000000000000000000000000602082015250565b6000612bdb602b8361238f565b9150612be682612b7f565b604082019050919050565b60006020820190508181036000830152612c0a81612bce565b9050919050565b7f4e487b7100000000000000000000000000000000000000000000000000000000600052602260045260246000fd5b60006002820490506001821680612c5857607f821691505b60208210811415612c6c57612c6b612c11565b5b50919050565b7f455243313135353a207472616e736665722063616c6c6572206973206e6f742060008201527f6f776e6572206e6f7220617070726f7665640000000000000000000000000000602082015250565b6000612cce60328361238f565b9150612cd982612c72565b604082019050919050565b60006020820190508181036000830152612cfd81612cc1565b9050919050565b7f455243313135353a206163636f756e747320616e6420696473206c656e67746860008201527f206d69736d617463680000000000000000000000000000000000000000000000602082015250565b6000612d6060298361238f565b9150612d6b82612d04565b604082019050919050565b60006020820190508181036000830152612d8f81612d53565b9050919050565b7f4e487b7100000000000000000000000000000000000000000000000000000000600052603260045260246000fd5b7f4e487b7100000000000000000000000000000000000000000000000000000000600052601160045260246000fd5b6000612dff826121fc565b91507fffffffffffffffffffffffffffffffffffffffffffffffffffffffffffffffff821415612e3257612e31612dc5565b5b600182019050919050565b7f455243313135353a2063616c6c6572206973206e6f74206f776e6572206e6f7260008201527f20617070726f7665640000000000000000000000000000000000000000000000602082015250565b6000612e9960298361238f565b9150612ea482612e3d565b604082019050919050565b60006020820190508181036000830152612ec881612e8c565b9050919050565b7f455243313135353a2069647320616e6420616d6f756e7473206c656e6774682060008201527f6d69736d61746368000000000000000000000000000000000000000000000000602082015250565b6000612f2b60288361238f565b9150612f3682612ecf565b604082019050919050565b60006020820190508181036000830152612f5a81612f1e565b9050919050565b7f455243313135353a207472616e7366657220746f20746865207a65726f20616460008201527f6472657373000000000000000000000000000000000000000000000000000000602082015250565b6000612fbd60258361238f565b9150612fc882612f61565b604082019050919050565b60006020820190508181036000830152612fec81612fb0565b9050919050565b7f455243313135353a20696e73756666696369656e742062616c616e636520666f60008201527f72207472616e7366657200000000000000000000000000000000000000000000602082015250565b600061304f602a8361238f565b915061305a82612ff3565b604082019050919050565b6000602082019050818103600083015261307e81613042565b9050919050565b6000613090826121fc565b915061309b836121fc565b9250827fffffffffffffffffffffffffffffffffffffffffffffffffffffffffffffffff038211156130d0576130cf612dc5565b5b828201905092915050565b600060408201905081810360008301526130f581856128a6565b9050818103602083015261310981846128a6565b90509392505050565b7f4552433230536e617073686f743a206964206973203000000000000000000000600082015250565b600061314860168361238f565b915061315382613112565b602082019050919050565b600060208201905081810360008301526131778161313b565b9050919050565b7f4552433230536e617073686f743a206e6f6e6578697374656e74206964000000600082015250565b60006131b4601d8361238f565b91506131bf8261317e565b602082019050919050565b600060208201905081810360008301526131e3816131a7565b9050919050565b7f455243313135353a206d696e7420746f20746865207a65726f2061646472657360008201527f7300000000000000000000000000000000000000000000000000000000000000602082015250565b600061324660218361238f565b9150613251826131ea565b604082019050919050565b6000602082019050818103600083015261327581613239565b9050919050565b60006040820190506132916000830185612272565b61329e6020830184612272565b9392505050565b7f455243313135353a2073657474696e6720617070726f76616c2073746174757360008201527f20666f722073656c660000000000000000000000000000000000000000000000602082015250565b600061330160298361238f565b915061330c826132a5565b604082019050919050565b60006020820190508181036000830152613330816132f4565b9050919050565b6000613342826121fc565b915061334d836121fc565b9250828210156133605761335f612dc5565b5b828203905092915050565b613374816121be565b82525050565b600081519050919050565b600082825260208201905092915050565b60006133a18261337a565b6133ab8185613385565b93506133bb8185602086016123a0565b6133c4816123d3565b840191505092915050565b600060a0820190506133e4600083018861336b565b6133f1602083018761336b565b818103604083015261340381866128a6565b9050818103606083015261341781856128a6565b9050818103608083015261342b8184613396565b90509695505050505050565b600081519050613446816122c8565b92915050565b60006020828403121561346257613461612194565b5b600061347084828501613437565b91505092915050565b60008160e01c9050919050565b600060033d11156134a55760046000803e6134a2600051613479565b90505b90565b600060443d10156134b85761353b565b6134c061218a565b60043d036004823e80513d602482011167ffffffffffffffff821117156134e857505061353b565b808201805167ffffffffffffffff811115613506575050505061353b565b80602083010160043d03850181111561352357505050505061353b565b61353282602001850186612473565b82955050505050505b90565b7f455243313135353a207472616e7366657220746f206e6f6e204552433131353560008201527f526563656976657220696d706c656d656e746572000000000000000000000000602082015250565b600061359a60348361238f565b91506135a58261353e565b604082019050919050565b600060208201905081810360008301526135c98161358d565b9050919050565b7f455243313135353a204552433131353552656365697665722072656a6563746560008201527f6420746f6b656e73000000000000000000000000000000000000000000000000602082015250565b600061362c60288361238f565b9150613637826135d0565b604082019050919050565b6000602082019050818103600083015261365b8161361f565b9050919050565b600060a082019050613677600083018861336b565b613684602083018761336b565b6136916040830186612272565b61369e6060830185612272565b81810360808301526136b08184613396565b90509695505050505050565b7f4e487b7100000000000000000000000000000000000000000000000000000000600052601260045260246000fd5b60006136f6826121fc565b9150613701836121fc565b925082613711576137106136bc565b5b82820490509291505056fea2646970667358221220153d327059d52d2a0c92255a549dbdf8782bc31705cbbf21435ae9ff1d8127fe64736f6c63430008090033",
  "linkReferences": {},
  "deployedLinkReferences": {}
}