{
  "_format": "hh-sol-artifact-1",
  "contractName": "ERC1155Mock",
  "sourceName": "contracts/oz/mocks/ERC1155Mock.sol",
  "abi": [
    {
      "inputs": [
        {
          "internalType": "string",
          "name": "uri",
          "type": "string"
        }
      ],
      "stateMutability": "nonpayable",
      "type": "constructor"
    },
    {
      "anonymous": false,
      "inputs": [
        {
          "indexed": true,
          "internalType": "address",
          "name": "account",
          "type": "address"
        },
        {
          "indexed": true,
          "internalType": "address",
          "name": "operator",
          "type": "address"
        },
        {
          "indexed": false,
          "internalType": "bool",
          "name": "approved",
          "type": "bool"
        }
      ],
      "name": "ApprovalForAll",
      "type": "event"
    },
    {
      "anonymous": false,
      "inputs": [
        {
          "indexed": true,
          "internalType": "address",
          "name": "operator",
          "type": "address"
        },
        {
          "indexed": true,
          "internalType": "address",
          "name": "from",
          "type": "address"
        },
        {
          "indexed": true,
          "internalType": "address",
          "name": "to",
          "type": "address"
        },
        {
          "indexed": false,
          "internalType": "uint256[]",
          "name": "ids",
          "type": "uint256[]"
        },
        {
          "indexed": false,
          "internalType": "uint256[]",
          "name": "values",
          "type": "uint256[]"
        }
      ],
      "name": "TransferBatch",
      "type": "event"
    },
    {
      "anonymous": false,
      "inputs": [
        {
          "indexed": true,
          "internalType": "address",
          "name": "operator",
          "type": "address"
        },
        {
          "indexed": true,
          "internalType": "address",
          "name": "from",
          "type": "address"
        },
        {
          "indexed": true,
          "internalType": "address",
          "name": "to",
          "type": "address"
        },
        {
          "indexed": false,
          "internalType": "uint256",
          "name": "id",
          "type": "uint256"
        },
        {
          "indexed": false,
          "internalType": "uint256",
          "name": "value",
          "type": "uint256"
        }
      ],
      "name": "TransferSingle",
      "type": "event"
    },
    {
      "anonymous": false,
      "inputs": [
        {
          "indexed": false,
          "internalType": "string",
          "name": "value",
          "type": "string"
        },
        {
          "indexed": true,
          "internalType": "uint256",
          "name": "id",
          "type": "uint256"
        }
      ],
      "name": "URI",
      "type": "event"
    },
    {
      "inputs": [
        {
          "internalType": "address",
          "name": "account",
          "type": "address"
        },
        {
          "internalType": "uint256",
          "name": "id",
          "type": "uint256"
        }
      ],
      "name": "balanceOf",
      "outputs": [
        {
          "internalType": "uint256",
          "name": "",
          "type": "uint256"
        }
      ],
      "stateMutability": "view",
      "type": "function"
    },
    {
      "inputs": [
        {
          "internalType": "address[]",
          "name": "accounts",
          "type": "address[]"
        },
        {
          "internalType": "uint256[]",
          "name": "ids",
          "type": "uint256[]"
        }
      ],
      "name": "balanceOfBatch",
      "outputs": [
        {
          "internalType": "uint256[]",
          "name": "",
          "type": "uint256[]"
        }
      ],
      "stateMutability": "view",
      "type": "function"
    },
    {
      "inputs": [
        {
          "internalType": "address",
          "name": "owner",
          "type": "address"
        },
        {
          "internalType": "uint256",
          "name": "id",
          "type": "uint256"
        },
        {
          "internalType": "uint256",
          "name": "value",
          "type": "uint256"
        }
      ],
      "name": "burn",
      "outputs": [],
      "stateMutability": "nonpayable",
      "type": "function"
    },
    {
      "inputs": [
        {
          "internalType": "address",
          "name": "owner",
          "type": "address"
        },
        {
          "internalType": "uint256[]",
          "name": "ids",
          "type": "uint256[]"
        },
        {
          "internalType": "uint256[]",
          "name": "values",
          "type": "uint256[]"
        }
      ],
      "name": "burnBatch",
      "outputs": [],
      "stateMutability": "nonpayable",
      "type": "function"
    },
    {
      "inputs": [
        {
          "internalType": "address",
          "name": "account",
          "type": "address"
        },
        {
          "internalType": "address",
          "name": "operator",
          "type": "address"
        }
      ],
      "name": "isApprovedForAll",
      "outputs": [
        {
          "internalType": "bool",
          "name": "",
          "type": "bool"
        }
      ],
      "stateMutability": "view",
      "type": "function"
    },
    {
      "inputs": [
        {
          "internalType": "address",
          "name": "to",
          "type": "address"
        },
        {
          "internalType": "uint256",
          "name": "id",
          "type": "uint256"
        },
        {
          "internalType": "uint256",
          "name": "value",
          "type": "uint256"
        },
        {
          "internalType": "bytes",
          "name": "data",
          "type": "bytes"
        }
      ],
      "name": "mint",
      "outputs": [],
      "stateMutability": "nonpayable",
      "type": "function"
    },
    {
      "inputs": [
        {
          "internalType": "address",
          "name": "to",
          "type": "address"
        },
        {
          "internalType": "uint256[]",
          "name": "ids",
          "type": "uint256[]"
        },
        {
          "internalType": "uint256[]",
          "name": "values",
          "type": "uint256[]"
        },
        {
          "internalType": "bytes",
          "name": "data",
          "type": "bytes"
        }
      ],
      "name": "mintBatch",
      "outputs": [],
      "stateMutability": "nonpayable",
      "type": "function"
    },
    {
      "inputs": [
        {
          "internalType": "address",
          "name": "from",
          "type": "address"
        },
        {
          "internalType": "address",
          "name": "to",
          "type": "address"
        },
        {
          "internalType": "uint256[]",
          "name": "ids",
          "type": "uint256[]"
        },
        {
          "internalType": "uint256[]",
          "name": "amounts",
          "type": "uint256[]"
        },
        {
          "internalType": "bytes",
          "name": "data",
          "type": "bytes"
        }
      ],
      "name": "safeBatchTransferFrom",
      "outputs": [],
      "stateMutability": "nonpayable",
      "type": "function"
    },
    {
      "inputs": [
        {
          "internalType": "address",
          "name": "from",
          "type": "address"
        },
        {
          "internalType": "address",
          "name": "to",
          "type": "address"
        },
        {
          "internalType": "uint256",
          "name": "id",
          "type": "uint256"
        },
        {
          "internalType": "uint256",
          "name": "amount",
          "type": "uint256"
        },
        {
          "internalType": "bytes",
          "name": "data",
          "type": "bytes"
        }
      ],
      "name": "safeTransferFrom",
      "outputs": [],
      "stateMutability": "nonpayable",
      "type": "function"
    },
    {
      "inputs": [
        {
          "internalType": "address",
          "name": "operator",
          "type": "address"
        },
        {
          "internalType": "bool",
          "name": "approved",
          "type": "bool"
        }
      ],
      "name": "setApprovalForAll",
      "outputs": [],
      "stateMutability": "nonpayable",
      "type": "function"
    },
    {
      "inputs": [
        {
          "internalType": "string",
          "name": "newuri",
          "type": "string"
        }
      ],
      "name": "setURI",
      "outputs": [],
      "stateMutability": "nonpayable",
      "type": "function"
    },
    {
      "inputs": [
        {
          "internalType": "bytes4",
          "name": "interfaceId",
          "type": "bytes4"
        }
      ],
      "name": "supportsInterface",
      "outputs": [
        {
          "internalType": "bool",
          "name": "",
          "type": "bool"
        }
      ],
      "stateMutability": "view",
      "type": "function"
    },
    {
      "inputs": [
        {
          "internalType": "uint256",
          "name": "",
          "type": "uint256"
        }
      ],
      "name": "uri",
      "outputs": [
        {
          "internalType": "string",
          "name": "",
          "type": "string"
        }
      ],
      "stateMutability": "view",
      "type": "function"
    }
  ],
  "bytecode": "0x60806040523480156200001157600080fd5b506040516200383e3803806200383e8339818101604052810190620000379190620002ba565b8062000049816200005160201b60201c565b505062000370565b8060029080519060200190620000699291906200006d565b5050565b8280546200007b906200033a565b90600052602060002090601f0160209004810192826200009f5760008555620000eb565b82601f10620000ba57805160ff1916838001178555620000eb565b82800160010185558215620000eb579182015b82811115620000ea578251825591602001919060010190620000cd565b5b509050620000fa9190620000fe565b5090565b5b8082111562000119576000816000905550600101620000ff565b5090565b6000604051905090565b600080fd5b600080fd5b600080fd5b600080fd5b6000601f19601f8301169050919050565b7f4e487b7100000000000000000000000000000000000000000000000000000000600052604160045260246000fd5b62000186826200013b565b810181811067ffffffffffffffff82111715620001a857620001a76200014c565b5b80604052505050565b6000620001bd6200011d565b9050620001cb82826200017b565b919050565b600067ffffffffffffffff821115620001ee57620001ed6200014c565b5b620001f9826200013b565b9050602081019050919050565b60005b838110156200022657808201518184015260208101905062000209565b8381111562000236576000848401525b50505050565b6000620002536200024d84620001d0565b620001b1565b90508281526020810184848401111562000272576200027162000136565b5b6200027f84828562000206565b509392505050565b600082601f8301126200029f576200029e62000131565b5b8151620002b18482602086016200023c565b91505092915050565b600060208284031215620002d357620002d262000127565b5b600082015167ffffffffffffffff811115620002f457620002f36200012c565b5b620003028482850162000287565b91505092915050565b7f4e487b7100000000000000000000000000000000000000000000000000000000600052602260045260246000fd5b600060028204905060018216806200035357607f821691505b602082108114156200036a57620003696200030b565b5b50919050565b6134be80620003806000396000f3fe608060405234801561001057600080fd5b50600436106100ce5760003560e01c80634e1273f41161008c578063a22cb46511610066578063a22cb4651461021f578063e985e9c51461023b578063f242432a1461026b578063f5298aca14610287576100ce565b80634e1273f4146101b75780636b20c454146101e7578063731133e914610203576100ce565b8062fdd58e146100d357806301ffc9a71461010357806302fe5305146101335780630e89341c1461014f5780631f7fdffa1461017f5780632eb2c2d61461019b575b600080fd5b6100ed60048036038101906100e89190611df6565b6102a3565b6040516100fa9190611e45565b60405180910390f35b61011d60048036038101906101189190611eb8565b61036c565b60405161012a9190611f00565b60405180910390f35b61014d60048036038101906101489190612061565b61044e565b005b610169600480360381019061016491906120aa565b61045a565b604051610176919061215f565b60405180910390f35b610199600480360381019061019491906122ea565b6104ee565b005b6101b560048036038101906101b091906123a5565b610500565b005b6101d160048036038101906101cc9190612537565b6105a1565b6040516101de919061266d565b60405180910390f35b61020160048036038101906101fc919061268f565b6106ba565b005b61021d6004803603810190610218919061271a565b6106ca565b005b610239600480360381019061023491906127c9565b6106dc565b005b61025560048036038101906102509190612809565b6106f2565b6040516102629190611f00565b60405180910390f35b61028560048036038101906102809190612849565b610786565b005b6102a1600480360381019061029c91906128e0565b610827565b005b60008073ffffffffffffffffffffffffffffffffffffffff168373ffffffffffffffffffffffffffffffffffffffff161415610314576040517f08c379a000000000000000000000000000000000000000000000000000000000815260040161030b906129a5565b60405180910390fd5b60008083815260200190815260200160002060008473ffffffffffffffffffffffffffffffffffffffff1673ffffffffffffffffffffffffffffffffffffffff16815260200190815260200160002054905092915050565b60007fd9b67a26000000000000000000000000000000000000000000000000000000007bffffffffffffffffffffffffffffffffffffffffffffffffffffffff1916827bffffffffffffffffffffffffffffffffffffffffffffffffffffffff1916148061043757507f0e89341c000000000000000000000000000000000000000000000000000000007bffffffffffffffffffffffffffffffffffffffffffffffffffffffff1916827bffffffffffffffffffffffffffffffffffffffffffffffffffffffff1916145b80610447575061044682610837565b5b9050919050565b610457816108a1565b50565b606060028054610469906129f4565b80601f0160208091040260200160405190810160405280929190818152602001828054610495906129f4565b80156104e25780601f106104b7576101008083540402835291602001916104e2565b820191906000526020600020905b8154815290600101906020018083116104c557829003601f168201915b50505050509050919050565b6104fa848484846108bb565b50505050565b610508610ad9565b73ffffffffffffffffffffffffffffffffffffffff168573ffffffffffffffffffffffffffffffffffffffff16148061054e575061054d85610548610ad9565b6106f2565b5b61058d576040517f08c379a000000000000000000000000000000000000000000000000000000000815260040161058490612a98565b60405180910390fd5b61059a8585858585610ae1565b5050505050565b606081518351146105e7576040517f08c379a00000000000000000000000000000000000000000000000000000000081526004016105de90612b2a565b60405180910390fd5b6000835167ffffffffffffffff81111561060457610603611f36565b5b6040519080825280602002602001820160405280156106325781602001602082028036833780820191505090505b50905060005b84518110156106af5761067f85828151811061065757610656612b4a565b5b602002602001015185838151811061067257610671612b4a565b5b60200260200101516102a3565b82828151811061069257610691612b4a565b5b602002602001018181525050806106a890612ba8565b9050610638565b508091505092915050565b6106c5838383610df5565b505050565b6106d6848484846110a6565b50505050565b6106ee6106e7610ad9565b838361123c565b5050565b6000600160008473ffffffffffffffffffffffffffffffffffffffff1673ffffffffffffffffffffffffffffffffffffffff16815260200190815260200160002060008373ffffffffffffffffffffffffffffffffffffffff1673ffffffffffffffffffffffffffffffffffffffff16815260200190815260200160002060009054906101000a900460ff16905092915050565b61078e610ad9565b73ffffffffffffffffffffffffffffffffffffffff168573ffffffffffffffffffffffffffffffffffffffff1614806107d457506107d3856107ce610ad9565b6106f2565b5b610813576040517f08c379a000000000000000000000000000000000000000000000000000000000815260040161080a90612c63565b60405180910390fd5b61082085858585856113a9565b5050505050565b61083283838361162b565b505050565b60007f01ffc9a7000000000000000000000000000000000000000000000000000000007bffffffffffffffffffffffffffffffffffffffffffffffffffffffff1916827bffffffffffffffffffffffffffffffffffffffffffffffffffffffff1916149050919050565b80600290805190602001906108b7929190611cab565b5050565b600073ffffffffffffffffffffffffffffffffffffffff168473ffffffffffffffffffffffffffffffffffffffff16141561092b576040517f08c379a000000000000000000000000000000000000000000000000000000000815260040161092290612cf5565b60405180910390fd5b815183511461096f576040517f08c379a000000000000000000000000000000000000000000000000000000000815260040161096690612d87565b60405180910390fd5b6000610979610ad9565b905061098a81600087878787611848565b60005b8451811015610a43578381815181106109a9576109a8612b4a565b5b60200260200101516000808784815181106109c7576109c6612b4a565b5b6020026020010151815260200190815260200160002060008873ffffffffffffffffffffffffffffffffffffffff1673ffffffffffffffffffffffffffffffffffffffff1681526020019081526020016000206000828254610a299190612da7565b925050819055508080610a3b90612ba8565b91505061098d565b508473ffffffffffffffffffffffffffffffffffffffff16600073ffffffffffffffffffffffffffffffffffffffff168273ffffffffffffffffffffffffffffffffffffffff167f4a39dc06d4c0dbc64b70af90fd698a233a518aa5d07e595d983b8c0526c8f7fb8787604051610abb929190612dfd565b60405180910390a4610ad281600087878787611850565b5050505050565b600033905090565b8151835114610b25576040517f08c379a0000000000000000000000000000000000000000000000000000000008152600401610b1c90612d87565b60405180910390fd5b600073ffffffffffffffffffffffffffffffffffffffff168473ffffffffffffffffffffffffffffffffffffffff161415610b95576040517f08c379a0000000000000000000000000000000000000000000000000000000008152600401610b8c90612ea6565b60405180910390fd5b6000610b9f610ad9565b9050610baf818787878787611848565b60005b8451811015610d60576000858281518110610bd057610bcf612b4a565b5b602002602001015190506000858381518110610bef57610bee612b4a565b5b60200260200101519050600080600084815260200190815260200160002060008b73ffffffffffffffffffffffffffffffffffffffff1673ffffffffffffffffffffffffffffffffffffffff16815260200190815260200160002054905081811015610c90576040517f08c379a0000000000000000000000000000000000000000000000000000000008152600401610c8790612f38565b60405180910390fd5b81810360008085815260200190815260200160002060008c73ffffffffffffffffffffffffffffffffffffffff1673ffffffffffffffffffffffffffffffffffffffff168152602001908152602001600020819055508160008085815260200190815260200160002060008b73ffffffffffffffffffffffffffffffffffffffff1673ffffffffffffffffffffffffffffffffffffffff1681526020019081526020016000206000828254610d459190612da7565b9250508190555050505080610d5990612ba8565b9050610bb2565b508473ffffffffffffffffffffffffffffffffffffffff168673ffffffffffffffffffffffffffffffffffffffff168273ffffffffffffffffffffffffffffffffffffffff167f4a39dc06d4c0dbc64b70af90fd698a233a518aa5d07e595d983b8c0526c8f7fb8787604051610dd7929190612dfd565b60405180910390a4610ded818787878787611850565b505050505050565b600073ffffffffffffffffffffffffffffffffffffffff168373ffffffffffffffffffffffffffffffffffffffff161415610e65576040517f08c379a0000000000000000000000000000000000000000000000000000000008152600401610e5c90612fca565b60405180910390fd5b8051825114610ea9576040517f08c379a0000000000000000000000000000000000000000000000000000000008152600401610ea090612d87565b60405180910390fd5b6000610eb3610ad9565b9050610ed381856000868660405180602001604052806000815250611848565b60005b8351811015611020576000848281518110610ef457610ef3612b4a565b5b602002602001015190506000848381518110610f1357610f12612b4a565b5b60200260200101519050600080600084815260200190815260200160002060008973ffffffffffffffffffffffffffffffffffffffff1673ffffffffffffffffffffffffffffffffffffffff16815260200190815260200160002054905081811015610fb4576040517f08c379a0000000000000000000000000000000000000000000000000000000008152600401610fab9061305c565b60405180910390fd5b81810360008085815260200190815260200160002060008a73ffffffffffffffffffffffffffffffffffffffff1673ffffffffffffffffffffffffffffffffffffffff16815260200190815260200160002081905550505050808061101890612ba8565b915050610ed6565b50600073ffffffffffffffffffffffffffffffffffffffff168473ffffffffffffffffffffffffffffffffffffffff168273ffffffffffffffffffffffffffffffffffffffff167f4a39dc06d4c0dbc64b70af90fd698a233a518aa5d07e595d983b8c0526c8f7fb8686604051611098929190612dfd565b60405180910390a450505050565b600073ffffffffffffffffffffffffffffffffffffffff168473ffffffffffffffffffffffffffffffffffffffff161415611116576040517f08c379a000000000000000000000000000000000000000000000000000000000815260040161110d90612cf5565b60405180910390fd5b6000611120610ad9565b90506111418160008761113288611a37565b61113b88611a37565b87611848565b8260008086815260200190815260200160002060008773ffffffffffffffffffffffffffffffffffffffff1673ffffffffffffffffffffffffffffffffffffffff16815260200190815260200160002060008282546111a09190612da7565b925050819055508473ffffffffffffffffffffffffffffffffffffffff16600073ffffffffffffffffffffffffffffffffffffffff168273ffffffffffffffffffffffffffffffffffffffff167fc3d58168c5ae7397731d063d5bbf3d657854427343f4c083240f7aacaa2d0f62878760405161121e92919061307c565b60405180910390a461123581600087878787611ab1565b5050505050565b8173ffffffffffffffffffffffffffffffffffffffff168373ffffffffffffffffffffffffffffffffffffffff1614156112ab576040517f08c379a00000000000000000000000000000000000000000000000000000000081526004016112a290613117565b60405180910390fd5b80600160008573ffffffffffffffffffffffffffffffffffffffff1673ffffffffffffffffffffffffffffffffffffffff16815260200190815260200160002060008473ffffffffffffffffffffffffffffffffffffffff1673ffffffffffffffffffffffffffffffffffffffff16815260200190815260200160002060006101000a81548160ff0219169083151502179055508173ffffffffffffffffffffffffffffffffffffffff168373ffffffffffffffffffffffffffffffffffffffff167f17307eab39ab6107e8899845ad3d59bd9653f200f220920489ca2b5937696c318360405161139c9190611f00565b60405180910390a3505050565b600073ffffffffffffffffffffffffffffffffffffffff168473ffffffffffffffffffffffffffffffffffffffff161415611419576040517f08c379a000000000000000000000000000000000000000000000000000000000815260040161141090612ea6565b60405180910390fd5b6000611423610ad9565b905061144381878761143488611a37565b61143d88611a37565b87611848565b600080600086815260200190815260200160002060008873ffffffffffffffffffffffffffffffffffffffff1673ffffffffffffffffffffffffffffffffffffffff168152602001908152602001600020549050838110156114da576040517f08c379a00000000000000000000000000000000000000000000000000000000081526004016114d190612f38565b60405180910390fd5b83810360008087815260200190815260200160002060008973ffffffffffffffffffffffffffffffffffffffff1673ffffffffffffffffffffffffffffffffffffffff168152602001908152602001600020819055508360008087815260200190815260200160002060008873ffffffffffffffffffffffffffffffffffffffff1673ffffffffffffffffffffffffffffffffffffffff168152602001908152602001600020600082825461158f9190612da7565b925050819055508573ffffffffffffffffffffffffffffffffffffffff168773ffffffffffffffffffffffffffffffffffffffff168373ffffffffffffffffffffffffffffffffffffffff167fc3d58168c5ae7397731d063d5bbf3d657854427343f4c083240f7aacaa2d0f62888860405161160c92919061307c565b60405180910390a4611622828888888888611ab1565b50505050505050565b600073ffffffffffffffffffffffffffffffffffffffff168373ffffffffffffffffffffffffffffffffffffffff16141561169b576040517f08c379a000000000000000000000000000000000000000000000000000000000815260040161169290612fca565b60405180910390fd5b60006116a5610ad9565b90506116d5818560006116b787611a37565b6116c087611a37565b60405180602001604052806000815250611848565b600080600085815260200190815260200160002060008673ffffffffffffffffffffffffffffffffffffffff1673ffffffffffffffffffffffffffffffffffffffff1681526020019081526020016000205490508281101561176c576040517f08c379a00000000000000000000000000000000000000000000000000000000081526004016117639061305c565b60405180910390fd5b82810360008086815260200190815260200160002060008773ffffffffffffffffffffffffffffffffffffffff1673ffffffffffffffffffffffffffffffffffffffff16815260200190815260200160002081905550600073ffffffffffffffffffffffffffffffffffffffff168573ffffffffffffffffffffffffffffffffffffffff168373ffffffffffffffffffffffffffffffffffffffff167fc3d58168c5ae7397731d063d5bbf3d657854427343f4c083240f7aacaa2d0f62878760405161183992919061307c565b60405180910390a45050505050565b505050505050565b61186f8473ffffffffffffffffffffffffffffffffffffffff16611c98565b15611a2f578373ffffffffffffffffffffffffffffffffffffffff1663bc197c8187878686866040518663ffffffff1660e01b81526004016118b595949392919061319b565b602060405180830381600087803b1580156118cf57600080fd5b505af192505050801561190057506040513d601f19601f820116820180604052508101906118fd9190613218565b60015b6119a65761190c613252565b806308c379a014156119695750611921613274565b8061192c575061196b565b806040517f08c379a0000000000000000000000000000000000000000000000000000000008152600401611960919061215f565b60405180910390fd5b505b6040517f08c379a000000000000000000000000000000000000000000000000000000000815260040161199d9061337c565b60405180910390fd5b63bc197c8160e01b7bffffffffffffffffffffffffffffffffffffffffffffffffffffffff1916817bffffffffffffffffffffffffffffffffffffffffffffffffffffffff191614611a2d576040517f08c379a0000000000000000000000000000000000000000000000000000000008152600401611a249061340e565b60405180910390fd5b505b505050505050565b60606000600167ffffffffffffffff811115611a5657611a55611f36565b5b604051908082528060200260200182016040528015611a845781602001602082028036833780820191505090505b5090508281600081518110611a9c57611a9b612b4a565b5b60200260200101818152505080915050919050565b611ad08473ffffffffffffffffffffffffffffffffffffffff16611c98565b15611c90578373ffffffffffffffffffffffffffffffffffffffff1663f23a6e6187878686866040518663ffffffff1660e01b8152600401611b1695949392919061342e565b602060405180830381600087803b158015611b3057600080fd5b505af1925050508015611b6157506040513d601f19601f82011682018060405250810190611b5e9190613218565b60015b611c0757611b6d613252565b806308c379a01415611bca5750611b82613274565b80611b8d5750611bcc565b806040517f08c379a0000000000000000000000000000000000000000000000000000000008152600401611bc1919061215f565b60405180910390fd5b505b6040517f08c379a0000000000000000000000000000000000000000000000000000000008152600401611bfe9061337c565b60405180910390fd5b63f23a6e6160e01b7bffffffffffffffffffffffffffffffffffffffffffffffffffffffff1916817bffffffffffffffffffffffffffffffffffffffffffffffffffffffff191614611c8e576040517f08c379a0000000000000000000000000000000000000000000000000000000008152600401611c859061340e565b60405180910390fd5b505b505050505050565b600080823b905060008111915050919050565b828054611cb7906129f4565b90600052602060002090601f016020900481019282611cd95760008555611d20565b82601f10611cf257805160ff1916838001178555611d20565b82800160010185558215611d20579182015b82811115611d1f578251825591602001919060010190611d04565b5b509050611d2d9190611d31565b5090565b5b80821115611d4a576000816000905550600101611d32565b5090565b6000604051905090565b600080fd5b600080fd5b600073ffffffffffffffffffffffffffffffffffffffff82169050919050565b6000611d8d82611d62565b9050919050565b611d9d81611d82565b8114611da857600080fd5b50565b600081359050611dba81611d94565b92915050565b6000819050919050565b611dd381611dc0565b8114611dde57600080fd5b50565b600081359050611df081611dca565b92915050565b60008060408385031215611e0d57611e0c611d58565b5b6000611e1b85828601611dab565b9250506020611e2c85828601611de1565b9150509250929050565b611e3f81611dc0565b82525050565b6000602082019050611e5a6000830184611e36565b92915050565b60007fffffffff0000000000000000000000000000000000000000000000000000000082169050919050565b611e9581611e60565b8114611ea057600080fd5b50565b600081359050611eb281611e8c565b92915050565b600060208284031215611ece57611ecd611d58565b5b6000611edc84828501611ea3565b91505092915050565b60008115159050919050565b611efa81611ee5565b82525050565b6000602082019050611f156000830184611ef1565b92915050565b600080fd5b600080fd5b6000601f19601f8301169050919050565b7f4e487b7100000000000000000000000000000000000000000000000000000000600052604160045260246000fd5b611f6e82611f25565b810181811067ffffffffffffffff82111715611f8d57611f8c611f36565b5b80604052505050565b6000611fa0611d4e565b9050611fac8282611f65565b919050565b600067ffffffffffffffff821115611fcc57611fcb611f36565b5b611fd582611f25565b9050602081019050919050565b82818337600083830152505050565b6000612004611fff84611fb1565b611f96565b9050828152602081018484840111156120205761201f611f20565b5b61202b848285611fe2565b509392505050565b600082601f83011261204857612047611f1b565b5b8135612058848260208601611ff1565b91505092915050565b60006020828403121561207757612076611d58565b5b600082013567ffffffffffffffff81111561209557612094611d5d565b5b6120a184828501612033565b91505092915050565b6000602082840312156120c0576120bf611d58565b5b60006120ce84828501611de1565b91505092915050565b600081519050919050565b600082825260208201905092915050565b60005b838110156121115780820151818401526020810190506120f6565b83811115612120576000848401525b50505050565b6000612131826120d7565b61213b81856120e2565b935061214b8185602086016120f3565b61215481611f25565b840191505092915050565b600060208201905081810360008301526121798184612126565b905092915050565b600067ffffffffffffffff82111561219c5761219b611f36565b5b602082029050602081019050919050565b600080fd5b60006121c56121c084612181565b611f96565b905080838252602082019050602084028301858111156121e8576121e76121ad565b5b835b8181101561221157806121fd8882611de1565b8452602084019350506020810190506121ea565b5050509392505050565b600082601f8301126122305761222f611f1b565b5b81356122408482602086016121b2565b91505092915050565b600067ffffffffffffffff82111561226457612263611f36565b5b61226d82611f25565b9050602081019050919050565b600061228d61228884612249565b611f96565b9050828152602081018484840111156122a9576122a8611f20565b5b6122b4848285611fe2565b509392505050565b600082601f8301126122d1576122d0611f1b565b5b81356122e184826020860161227a565b91505092915050565b6000806000806080858703121561230457612303611d58565b5b600061231287828801611dab565b945050602085013567ffffffffffffffff81111561233357612332611d5d565b5b61233f8782880161221b565b935050604085013567ffffffffffffffff8111156123605761235f611d5d565b5b61236c8782880161221b565b925050606085013567ffffffffffffffff81111561238d5761238c611d5d565b5b612399878288016122bc565b91505092959194509250565b600080600080600060a086880312156123c1576123c0611d58565b5b60006123cf88828901611dab565b95505060206123e088828901611dab565b945050604086013567ffffffffffffffff81111561240157612400611d5d565b5b61240d8882890161221b565b935050606086013567ffffffffffffffff81111561242e5761242d611d5d565b5b61243a8882890161221b565b925050608086013567ffffffffffffffff81111561245b5761245a611d5d565b5b612467888289016122bc565b9150509295509295909350565b600067ffffffffffffffff82111561248f5761248e611f36565b5b602082029050602081019050919050565b60006124b36124ae84612474565b611f96565b905080838252602082019050602084028301858111156124d6576124d56121ad565b5b835b818110156124ff57806124eb8882611dab565b8452602084019350506020810190506124d8565b5050509392505050565b600082601f83011261251e5761251d611f1b565b5b813561252e8482602086016124a0565b91505092915050565b6000806040838503121561254e5761254d611d58565b5b600083013567ffffffffffffffff81111561256c5761256b611d5d565b5b61257885828601612509565b925050602083013567ffffffffffffffff81111561259957612598611d5d565b5b6125a58582860161221b565b9150509250929050565b600081519050919050565b600082825260208201905092915050565b6000819050602082019050919050565b6125e481611dc0565b82525050565b60006125f683836125db565b60208301905092915050565b6000602082019050919050565b600061261a826125af565b61262481856125ba565b935061262f836125cb565b8060005b8381101561266057815161264788826125ea565b975061265283612602565b925050600181019050612633565b5085935050505092915050565b60006020820190508181036000830152612687818461260f565b905092915050565b6000806000606084860312156126a8576126a7611d58565b5b60006126b686828701611dab565b935050602084013567ffffffffffffffff8111156126d7576126d6611d5d565b5b6126e38682870161221b565b925050604084013567ffffffffffffffff81111561270457612703611d5d565b5b6127108682870161221b565b9150509250925092565b6000806000806080858703121561273457612733611d58565b5b600061274287828801611dab565b945050602061275387828801611de1565b935050604061276487828801611de1565b925050606085013567ffffffffffffffff81111561278557612784611d5d565b5b612791878288016122bc565b91505092959194509250565b6127a681611ee5565b81146127b157600080fd5b50565b6000813590506127c38161279d565b92915050565b600080604083850312156127e0576127df611d58565b5b60006127ee85828601611dab565b92505060206127ff858286016127b4565b9150509250929050565b600080604083850312156128205761281f611d58565b5b600061282e85828601611dab565b925050602061283f85828601611dab565b9150509250929050565b600080600080600060a0868803121561286557612864611d58565b5b600061287388828901611dab565b955050602061288488828901611dab565b945050604061289588828901611de1565b93505060606128a688828901611de1565b925050608086013567ffffffffffffffff8111156128c7576128c6611d5d565b5b6128d3888289016122bc565b9150509295509295909350565b6000806000606084860312156128f9576128f8611d58565b5b600061290786828701611dab565b935050602061291886828701611de1565b925050604061292986828701611de1565b9150509250925092565b7f455243313135353a2062616c616e636520717565727920666f7220746865207a60008201527f65726f2061646472657373000000000000000000000000000000000000000000602082015250565b600061298f602b836120e2565b915061299a82612933565b604082019050919050565b600060208201905081810360008301526129be81612982565b9050919050565b7f4e487b7100000000000000000000000000000000000000000000000000000000600052602260045260246000fd5b60006002820490506001821680612a0c57607f821691505b60208210811415612a2057612a1f6129c5565b5b50919050565b7f455243313135353a207472616e736665722063616c6c6572206973206e6f742060008201527f6f776e6572206e6f7220617070726f7665640000000000000000000000000000602082015250565b6000612a826032836120e2565b9150612a8d82612a26565b604082019050919050565b60006020820190508181036000830152612ab181612a75565b9050919050565b7f455243313135353a206163636f756e747320616e6420696473206c656e67746860008201527f206d69736d617463680000000000000000000000000000000000000000000000602082015250565b6000612b146029836120e2565b9150612b1f82612ab8565b604082019050919050565b60006020820190508181036000830152612b4381612b07565b9050919050565b7f4e487b7100000000000000000000000000000000000000000000000000000000600052603260045260246000fd5b7f4e487b7100000000000000000000000000000000000000000000000000000000600052601160045260246000fd5b6000612bb382611dc0565b91507fffffffffffffffffffffffffffffffffffffffffffffffffffffffffffffffff821415612be657612be5612b79565b5b600182019050919050565b7f455243313135353a2063616c6c6572206973206e6f74206f776e6572206e6f7260008201527f20617070726f7665640000000000000000000000000000000000000000000000602082015250565b6000612c4d6029836120e2565b9150612c5882612bf1565b604082019050919050565b60006020820190508181036000830152612c7c81612c40565b9050919050565b7f455243313135353a206d696e7420746f20746865207a65726f2061646472657360008201527f7300000000000000000000000000000000000000000000000000000000000000602082015250565b6000612cdf6021836120e2565b9150612cea82612c83565b604082019050919050565b60006020820190508181036000830152612d0e81612cd2565b9050919050565b7f455243313135353a2069647320616e6420616d6f756e7473206c656e6774682060008201527f6d69736d61746368000000000000000000000000000000000000000000000000602082015250565b6000612d716028836120e2565b9150612d7c82612d15565b604082019050919050565b60006020820190508181036000830152612da081612d64565b9050919050565b6000612db282611dc0565b9150612dbd83611dc0565b9250827fffffffffffffffffffffffffffffffffffffffffffffffffffffffffffffffff03821115612df257612df1612b79565b5b828201905092915050565b60006040820190508181036000830152612e17818561260f565b90508181036020830152612e2b818461260f565b90509392505050565b7f455243313135353a207472616e7366657220746f20746865207a65726f20616460008201527f6472657373000000000000000000000000000000000000000000000000000000602082015250565b6000612e906025836120e2565b9150612e9b82612e34565b604082019050919050565b60006020820190508181036000830152612ebf81612e83565b9050919050565b7f455243313135353a20696e73756666696369656e742062616c616e636520666f60008201527f72207472616e7366657200000000000000000000000000000000000000000000602082015250565b6000612f22602a836120e2565b9150612f2d82612ec6565b604082019050919050565b60006020820190508181036000830152612f5181612f15565b9050919050565b7f455243313135353a206275726e2066726f6d20746865207a65726f206164647260008201527f6573730000000000000000000000000000000000000000000000000000000000602082015250565b6000612fb46023836120e2565b9150612fbf82612f58565b604082019050919050565b60006020820190508181036000830152612fe381612fa7565b9050919050565b7f455243313135353a206275726e20616d6f756e7420657863656564732062616c60008201527f616e636500000000000000000000000000000000000000000000000000000000602082015250565b60006130466024836120e2565b915061305182612fea565b604082019050919050565b6000602082019050818103600083015261307581613039565b9050919050565b60006040820190506130916000830185611e36565b61309e6020830184611e36565b9392505050565b7f455243313135353a2073657474696e6720617070726f76616c2073746174757360008201527f20666f722073656c660000000000000000000000000000000000000000000000602082015250565b60006131016029836120e2565b915061310c826130a5565b604082019050919050565b60006020820190508181036000830152613130816130f4565b9050919050565b61314081611d82565b82525050565b600081519050919050565b600082825260208201905092915050565b600061316d82613146565b6131778185613151565b93506131878185602086016120f3565b61319081611f25565b840191505092915050565b600060a0820190506131b06000830188613137565b6131bd6020830187613137565b81810360408301526131cf818661260f565b905081810360608301526131e3818561260f565b905081810360808301526131f78184613162565b90509695505050505050565b60008151905061321281611e8c565b92915050565b60006020828403121561322e5761322d611d58565b5b600061323c84828501613203565b91505092915050565b60008160e01c9050919050565b600060033d11156132715760046000803e61326e600051613245565b90505b90565b600060443d101561328457613307565b61328c611d4e565b60043d036004823e80513d602482011167ffffffffffffffff821117156132b4575050613307565b808201805167ffffffffffffffff8111156132d25750505050613307565b80602083010160043d0385018111156132ef575050505050613307565b6132fe82602001850186611f65565b82955050505050505b90565b7f455243313135353a207472616e7366657220746f206e6f6e204552433131353560008201527f526563656976657220696d706c656d656e746572000000000000000000000000602082015250565b60006133666034836120e2565b91506133718261330a565b604082019050919050565b6000602082019050818103600083015261339581613359565b9050919050565b7f455243313135353a204552433131353552656365697665722072656a6563746560008201527f6420746f6b656e73000000000000000000000000000000000000000000000000602082015250565b60006133f86028836120e2565b91506134038261339c565b604082019050919050565b60006020820190508181036000830152613427816133eb565b9050919050565b600060a0820190506134436000830188613137565b6134506020830187613137565b61345d6040830186611e36565b61346a6060830185611e36565b818103608083015261347c8184613162565b9050969550505050505056fea2646970667358221220f77253f96cf1c207fbd47905ec7b23f8cad4d1e1c93c03b8f427ff5996ddf23164736f6c63430008090033",
  "linkReferences": {},
  "deployedLinkReferences": {}
}