{
  "_format": "hh-sol-artifact-1",
  "contractName": "MerkleProofWrapper",
  "sourceName": "contracts/oz/mocks/MerkleProofWrapper.sol",
  "abi": [
    {
      "inputs": [
        {
          "internalType": "bytes32[]",
          "name": "proof",
          "type": "bytes32[]"
        },
        {
          "internalType": "bytes32",
          "name": "leaf",
          "type": "bytes32"
        }
      ],
      "name": "processProof",
      "outputs": [
        {
          "internalType": "bytes32",
          "name": "",
          "type": "bytes32"
        }
      ],
      "stateMutability": "pure",
      "type": "function"
    },
    {
      "inputs": [
        {
          "internalType": "bytes32[]",
          "name": "proof",
          "type": "bytes32[]"
        },
        {
          "internalType": "bytes32",
          "name": "root",
          "type": "bytes32"
        },
        {
          "internalType": "bytes32",
          "name": "leaf",
          "type": "bytes32"
        }
      ],
      "name": "verify",
      "outputs": [
        {
          "internalType": "bool",
          "name": "",
          "type": "bool"
        }
      ],
      "stateMutability": "pure",
      "type": "function"
    }
  ],
  "bytecode": "0x608060405234801561001057600080fd5b50610591806100206000396000f3fe608060405234801561001057600080fd5b50600436106100365760003560e01c80635a9a49c71461003b57806362702a6b1461006b575b600080fd5b61005560048036038101906100509190610332565b61009b565b60405161006291906103bc565b60405180910390f35b610085600480360381019061008091906103d7565b6100b1565b6040516100929190610442565b60405180910390f35b60006100a88484846100c5565b90509392505050565b60006100bd83836100dc565b905092915050565b6000826100d285846100dc565b1490509392505050565b60008082905060005b84518110156101845760008582815181106101035761010261045d565b5b602002602001015190508083116101445782816040516020016101279291906104ad565b604051602081830303815290604052805190602001209250610170565b80836040516020016101579291906104ad565b6040516020818303038152906040528051906020012092505b50808061017c90610512565b9150506100e5565b508091505092915050565b6000604051905090565b600080fd5b600080fd5b600080fd5b6000601f19601f8301169050919050565b7f4e487b7100000000000000000000000000000000000000000000000000000000600052604160045260246000fd5b6101f1826101a8565b810181811067ffffffffffffffff821117156102105761020f6101b9565b5b80604052505050565b600061022361018f565b905061022f82826101e8565b919050565b600067ffffffffffffffff82111561024f5761024e6101b9565b5b602082029050602081019050919050565b600080fd5b6000819050919050565b61027881610265565b811461028357600080fd5b50565b6000813590506102958161026f565b92915050565b60006102ae6102a984610234565b610219565b905080838252602082019050602084028301858111156102d1576102d0610260565b5b835b818110156102fa57806102e68882610286565b8452602084019350506020810190506102d3565b5050509392505050565b600082601f830112610319576103186101a3565b5b813561032984826020860161029b565b91505092915050565b60008060006060848603121561034b5761034a610199565b5b600084013567ffffffffffffffff8111156103695761036861019e565b5b61037586828701610304565b935050602061038686828701610286565b925050604061039786828701610286565b9150509250925092565b60008115159050919050565b6103b6816103a1565b82525050565b60006020820190506103d160008301846103ad565b92915050565b600080604083850312156103ee576103ed610199565b5b600083013567ffffffffffffffff81111561040c5761040b61019e565b5b61041885828601610304565b925050602061042985828601610286565b9150509250929050565b61043c81610265565b82525050565b60006020820190506104576000830184610433565b92915050565b7f4e487b7100000000000000000000000000000000000000000000000000000000600052603260045260246000fd5b6000819050919050565b6104a76104a282610265565b61048c565b82525050565b60006104b98285610496565b6020820191506104c98284610496565b6020820191508190509392505050565b7f4e487b7100000000000000000000000000000000000000000000000000000000600052601160045260246000fd5b6000819050919050565b600061051d82610508565b91507fffffffffffffffffffffffffffffffffffffffffffffffffffffffffffffffff8214156105505761054f6104d9565b5b60018201905091905056fea2646970667358221220abb5233b10da406fcfd989a8524cf34668aa81b12fd219604534ca79fe08a30264736f6c63430008090033",
  "linkReferences": {},
  "deployedLinkReferences": {}
}