{
  "_format": "hh-sol-artifact-1",
  "contractName": "ERC721Staking",
  "sourceName": "contracts/finance/ERC721Staking.sol",
  "abi": [
    {
      "inputs": [
        {
          "internalType": "address",
          "name": "_stakingToken",
          "type": "address"
        },
        {
          "internalType": "address",
          "name": "_rewardsToken",
          "type": "address"
        },
        {
          "internalType": "uint256",
          "name": "_tokensRewardedPerSecond",
          "type": "uint256"
        }
      ],
      "stateMutability": "nonpayable",
      "type": "constructor"
    },
    {
      "inputs": [
        {
          "internalType": "address",
          "name": "account",
          "type": "address"
        }
      ],
      "name": "earned",
      "outputs": [
        {
          "internalType": "uint256",
          "name": "",
          "type": "uint256"
        }
      ],
      "stateMutability": "view",
      "type": "function"
    },
    {
      "inputs": [],
      "name": "getReward",
      "outputs": [],
      "stateMutability": "nonpayable",
      "type": "function"
    },
    {
      "inputs": [],
      "name": "lastUpdateTime",
      "outputs": [
        {
          "internalType": "uint256",
          "name": "",
          "type": "uint256"
        }
      ],
      "stateMutability": "view",
      "type": "function"
    },
    {
      "inputs": [],
      "name": "rewardPerToken",
      "outputs": [
        {
          "internalType": "uint256",
          "name": "",
          "type": "uint256"
        }
      ],
      "stateMutability": "view",
      "type": "function"
    },
    {
      "inputs": [],
      "name": "rewardPerTokenStored",
      "outputs": [
        {
          "internalType": "uint256",
          "name": "",
          "type": "uint256"
        }
      ],
      "stateMutability": "view",
      "type": "function"
    },
    {
      "inputs": [],
      "name": "rewardRate",
      "outputs": [
        {
          "internalType": "uint256",
          "name": "",
          "type": "uint256"
        }
      ],
      "stateMutability": "view",
      "type": "function"
    },
    {
      "inputs": [
        {
          "internalType": "address",
          "name": "",
          "type": "address"
        }
      ],
      "name": "rewards",
      "outputs": [
        {
          "internalType": "uint256",
          "name": "",
          "type": "uint256"
        }
      ],
      "stateMutability": "view",
      "type": "function"
    },
    {
      "inputs": [],
      "name": "rewardsToken",
      "outputs": [
        {
          "internalType": "contract IERC20",
          "name": "",
          "type": "address"
        }
      ],
      "stateMutability": "view",
      "type": "function"
    },
    {
      "inputs": [
        {
          "internalType": "uint256",
          "name": "id",
          "type": "uint256"
        }
      ],
      "name": "stake",
      "outputs": [],
      "stateMutability": "nonpayable",
      "type": "function"
    },
    {
      "inputs": [],
      "name": "stakingToken",
      "outputs": [
        {
          "internalType": "contract IERC721",
          "name": "",
          "type": "address"
        }
      ],
      "stateMutability": "view",
      "type": "function"
    },
    {
      "inputs": [
        {
          "internalType": "address",
          "name": "",
          "type": "address"
        }
      ],
      "name": "userRewardPerTokenPaid",
      "outputs": [
        {
          "internalType": "uint256",
          "name": "",
          "type": "uint256"
        }
      ],
      "stateMutability": "view",
      "type": "function"
    },
    {
      "inputs": [
        {
          "internalType": "uint256",
          "name": "id",
          "type": "uint256"
        }
      ],
      "name": "withdraw",
      "outputs": [],
      "stateMutability": "nonpayable",
      "type": "function"
    }
  ],
  "bytecode": "0x60806040523480156200001157600080fd5b50604051620010e6380380620010e683398181016040528101906200003791906200016d565b816000806101000a81548173ffffffffffffffffffffffffffffffffffffffff021916908373ffffffffffffffffffffffffffffffffffffffff16021790555082600160006101000a81548173ffffffffffffffffffffffffffffffffffffffff021916908373ffffffffffffffffffffffffffffffffffffffff16021790555080600281905550505050620001c9565b600080fd5b600073ffffffffffffffffffffffffffffffffffffffff82169050919050565b6000620000fa82620000cd565b9050919050565b6200010c81620000ed565b81146200011857600080fd5b50565b6000815190506200012c8162000101565b92915050565b6000819050919050565b620001478162000132565b81146200015357600080fd5b50565b60008151905062000167816200013c565b92915050565b600080600060608486031215620001895762000188620000c8565b5b600062000199868287016200011b565b9350506020620001ac868287016200011b565b9250506040620001bf8682870162000156565b9150509250925092565b610f0d80620001d96000396000f3fe608060405234801561001057600080fd5b50600436106100b35760003560e01c80638b876347116100715780638b8763471461017a578063a694fc3a146101aa578063c8f33c91146101c6578063cd3daf9d146101e4578063d1af0c7d14610202578063df136d6514610220576100b3565b80628cc262146100b85780630700037d146100e85780632e1a7d4d146101185780633d18b9121461013457806372f702f31461013e5780637b0a47ee1461015c575b600080fd5b6100d260048036038101906100cd9190610b20565b61023e565b6040516100df9190610b66565b60405180910390f35b61010260048036038101906100fd9190610b20565b610340565b60405161010f9190610b66565b60405180910390f35b610132600480360381019061012d9190610bad565b610358565b005b61013c6105c3565b005b6101466107c2565b6040516101539190610c39565b60405180910390f35b6101646107e8565b6040516101719190610b66565b60405180910390f35b610194600480360381019061018f9190610b20565b6107ee565b6040516101a19190610b66565b60405180910390f35b6101c460048036038101906101bf9190610bad565b610806565b005b6101ce610a22565b6040516101db9190610b66565b60405180910390f35b6101ec610a28565b6040516101f99190610b66565b60405180910390f35b61020a610a8b565b6040516102179190610c75565b60405180910390f35b610228610aaf565b6040516102359190610b66565b60405180910390f35b6000600660008373ffffffffffffffffffffffffffffffffffffffff1673ffffffffffffffffffffffffffffffffffffffff16815260200190815260200160002054670de0b6b3a7640000600560008573ffffffffffffffffffffffffffffffffffffffff1673ffffffffffffffffffffffffffffffffffffffff168152602001908152602001600020546102d1610a28565b6102db9190610cbf565b600960008673ffffffffffffffffffffffffffffffffffffffff1673ffffffffffffffffffffffffffffffffffffffff168152602001908152602001600020546103259190610cf3565b61032f9190610d7c565b6103399190610dad565b9050919050565b60066020528060005260406000206000915090505481565b610360610ab5565b610368610a28565b6004819055504260038190555061037e8161023e565b600660008373ffffffffffffffffffffffffffffffffffffffff1673ffffffffffffffffffffffffffffffffffffffff16815260200190815260200160002081905550600454600560008373ffffffffffffffffffffffffffffffffffffffff1673ffffffffffffffffffffffffffffffffffffffff1681526020019081526020016000208190555061040f610ab5565b73ffffffffffffffffffffffffffffffffffffffff166008600084815260200190815260200160002060009054906101000a900473ffffffffffffffffffffffffffffffffffffffff1673ffffffffffffffffffffffffffffffffffffffff161461047957600080fd5b60016007600082825461048c9190610cbf565b925050819055506001600960006104a1610ab5565b73ffffffffffffffffffffffffffffffffffffffff1673ffffffffffffffffffffffffffffffffffffffff16815260200190815260200160002060008282546104ea9190610cbf565b925050819055506008600083815260200190815260200160002060006101000a81549073ffffffffffffffffffffffffffffffffffffffff0219169055600160009054906101000a900473ffffffffffffffffffffffffffffffffffffffff1673ffffffffffffffffffffffffffffffffffffffff166342842e0e3061056e610ab5565b856040518463ffffffff1660e01b815260040161058d93929190610e12565b600060405180830381600087803b1580156105a757600080fd5b505af11580156105bb573d6000803e3d6000fd5b505050505050565b6105cb610ab5565b6105d3610a28565b600481905550426003819055506105e98161023e565b600660008373ffffffffffffffffffffffffffffffffffffffff1673ffffffffffffffffffffffffffffffffffffffff16815260200190815260200160002081905550600454600560008373ffffffffffffffffffffffffffffffffffffffff1673ffffffffffffffffffffffffffffffffffffffff16815260200190815260200160002081905550600060066000610680610ab5565b73ffffffffffffffffffffffffffffffffffffffff1673ffffffffffffffffffffffffffffffffffffffff1681526020019081526020016000205490506000600660006106cb610ab5565b73ffffffffffffffffffffffffffffffffffffffff1673ffffffffffffffffffffffffffffffffffffffff1681526020019081526020016000208190555060008054906101000a900473ffffffffffffffffffffffffffffffffffffffff1673ffffffffffffffffffffffffffffffffffffffff1663a9059cbb61074d610ab5565b836040518363ffffffff1660e01b815260040161076b929190610e49565b602060405180830381600087803b15801561078557600080fd5b505af1158015610799573d6000803e3d6000fd5b505050506040513d601f19601f820116820180604052508101906107bd9190610eaa565b505050565b600160009054906101000a900473ffffffffffffffffffffffffffffffffffffffff1681565b60025481565b60056020528060005260406000206000915090505481565b61080e610ab5565b610816610a28565b6004819055504260038190555061082c8161023e565b600660008373ffffffffffffffffffffffffffffffffffffffff1673ffffffffffffffffffffffffffffffffffffffff16815260200190815260200160002081905550600454600560008373ffffffffffffffffffffffffffffffffffffffff1673ffffffffffffffffffffffffffffffffffffffff16815260200190815260200160002081905550600160009054906101000a900473ffffffffffffffffffffffffffffffffffffffff1673ffffffffffffffffffffffffffffffffffffffff166342842e0e6108fb610ab5565b30856040518463ffffffff1660e01b815260040161091b93929190610e12565b600060405180830381600087803b15801561093557600080fd5b505af1158015610949573d6000803e3d6000fd5b505050506001600760008282546109609190610dad565b92505081905550600160096000610975610ab5565b73ffffffffffffffffffffffffffffffffffffffff1673ffffffffffffffffffffffffffffffffffffffff16815260200190815260200160002060008282546109be9190610dad565b925050819055506109cd610ab5565b6008600084815260200190815260200160002060006101000a81548173ffffffffffffffffffffffffffffffffffffffff021916908373ffffffffffffffffffffffffffffffffffffffff1602179055505050565b60035481565b6000806007541415610a3d5760009050610a88565b600754670de0b6b3a764000060035442610a579190610cbf565b600254610a649190610cf3565b610a6e9190610cf3565b610a789190610d7c565b600454610a859190610dad565b90505b90565b60008054906101000a900473ffffffffffffffffffffffffffffffffffffffff1681565b60045481565b600033905090565b600080fd5b600073ffffffffffffffffffffffffffffffffffffffff82169050919050565b6000610aed82610ac2565b9050919050565b610afd81610ae2565b8114610b0857600080fd5b50565b600081359050610b1a81610af4565b92915050565b600060208284031215610b3657610b35610abd565b5b6000610b4484828501610b0b565b91505092915050565b6000819050919050565b610b6081610b4d565b82525050565b6000602082019050610b7b6000830184610b57565b92915050565b610b8a81610b4d565b8114610b9557600080fd5b50565b600081359050610ba781610b81565b92915050565b600060208284031215610bc357610bc2610abd565b5b6000610bd184828501610b98565b91505092915050565b6000819050919050565b6000610bff610bfa610bf584610ac2565b610bda565b610ac2565b9050919050565b6000610c1182610be4565b9050919050565b6000610c2382610c06565b9050919050565b610c3381610c18565b82525050565b6000602082019050610c4e6000830184610c2a565b92915050565b6000610c5f82610c06565b9050919050565b610c6f81610c54565b82525050565b6000602082019050610c8a6000830184610c66565b92915050565b7f4e487b7100000000000000000000000000000000000000000000000000000000600052601160045260246000fd5b6000610cca82610b4d565b9150610cd583610b4d565b925082821015610ce857610ce7610c90565b5b828203905092915050565b6000610cfe82610b4d565b9150610d0983610b4d565b9250817fffffffffffffffffffffffffffffffffffffffffffffffffffffffffffffffff0483118215151615610d4257610d41610c90565b5b828202905092915050565b7f4e487b7100000000000000000000000000000000000000000000000000000000600052601260045260246000fd5b6000610d8782610b4d565b9150610d9283610b4d565b925082610da257610da1610d4d565b5b828204905092915050565b6000610db882610b4d565b9150610dc383610b4d565b9250827fffffffffffffffffffffffffffffffffffffffffffffffffffffffffffffffff03821115610df857610df7610c90565b5b828201905092915050565b610e0c81610ae2565b82525050565b6000606082019050610e276000830186610e03565b610e346020830185610e03565b610e416040830184610b57565b949350505050565b6000604082019050610e5e6000830185610e03565b610e6b6020830184610b57565b9392505050565b60008115159050919050565b610e8781610e72565b8114610e9257600080fd5b50565b600081519050610ea481610e7e565b92915050565b600060208284031215610ec057610ebf610abd565b5b6000610ece84828501610e95565b9150509291505056fea264697066735822122058b0612eebd9307ca1064b01b5e0c16b53b3f01d523128931c33e75934b401a964736f6c63430008090033",
  "linkReferences": {},
  "deployedLinkReferences": {}
}