{
  "_format": "hh-sol-artifact-1",
  "contractName": "AccessControlMock",
  "sourceName": "contracts/oz/mocks/AccessControlMock.sol",
  "abi": [
    {
      "inputs": [],
      "stateMutability": "nonpayable",
      "type": "constructor"
    },
    {
      "anonymous": false,
      "inputs": [
        {
          "indexed": true,
          "internalType": "bytes32",
          "name": "role",
          "type": "bytes32"
        },
        {
          "indexed": true,
          "internalType": "bytes32",
          "name": "previousAdminRole",
          "type": "bytes32"
        },
        {
          "indexed": true,
          "internalType": "bytes32",
          "name": "newAdminRole",
          "type": "bytes32"
        }
      ],
      "name": "RoleAdminChanged",
      "type": "event"
    },
    {
      "anonymous": false,
      "inputs": [
        {
          "indexed": true,
          "internalType": "bytes32",
          "name": "role",
          "type": "bytes32"
        },
        {
          "indexed": true,
          "internalType": "address",
          "name": "account",
          "type": "address"
        },
        {
          "indexed": true,
          "internalType": "address",
          "name": "sender",
          "type": "address"
        }
      ],
      "name": "RoleGranted",
      "type": "event"
    },
    {
      "anonymous": false,
      "inputs": [
        {
          "indexed": true,
          "internalType": "bytes32",
          "name": "role",
          "type": "bytes32"
        },
        {
          "indexed": true,
          "internalType": "address",
          "name": "account",
          "type": "address"
        },
        {
          "indexed": true,
          "internalType": "address",
          "name": "sender",
          "type": "address"
        }
      ],
      "name": "RoleRevoked",
      "type": "event"
    },
    {
      "inputs": [],
      "name": "DEFAULT_ADMIN_ROLE",
      "outputs": [
        {
          "internalType": "bytes32",
          "name": "",
          "type": "bytes32"
        }
      ],
      "stateMutability": "view",
      "type": "function"
    },
    {
      "inputs": [
        {
          "internalType": "bytes32",
          "name": "role",
          "type": "bytes32"
        }
      ],
      "name": "getRoleAdmin",
      "outputs": [
        {
          "internalType": "bytes32",
          "name": "",
          "type": "bytes32"
        }
      ],
      "stateMutability": "view",
      "type": "function"
    },
    {
      "inputs": [
        {
          "internalType": "bytes32",
          "name": "role",
          "type": "bytes32"
        },
        {
          "internalType": "address",
          "name": "account",
          "type": "address"
        }
      ],
      "name": "grantRole",
      "outputs": [],
      "stateMutability": "nonpayable",
      "type": "function"
    },
    {
      "inputs": [
        {
          "internalType": "bytes32",
          "name": "role",
          "type": "bytes32"
        },
        {
          "internalType": "address",
          "name": "account",
          "type": "address"
        }
      ],
      "name": "hasRole",
      "outputs": [
        {
          "internalType": "bool",
          "name": "",
          "type": "bool"
        }
      ],
      "stateMutability": "view",
      "type": "function"
    },
    {
      "inputs": [
        {
          "internalType": "bytes32",
          "name": "role",
          "type": "bytes32"
        },
        {
          "internalType": "address",
          "name": "account",
          "type": "address"
        }
      ],
      "name": "renounceRole",
      "outputs": [],
      "stateMutability": "nonpayable",
      "type": "function"
    },
    {
      "inputs": [
        {
          "internalType": "bytes32",
          "name": "role",
          "type": "bytes32"
        },
        {
          "internalType": "address",
          "name": "account",
          "type": "address"
        }
      ],
      "name": "revokeRole",
      "outputs": [],
      "stateMutability": "nonpayable",
      "type": "function"
    },
    {
      "inputs": [
        {
          "internalType": "bytes32",
          "name": "roleId",
          "type": "bytes32"
        }
      ],
      "name": "senderProtected",
      "outputs": [],
      "stateMutability": "nonpayable",
      "type": "function"
    },
    {
      "inputs": [
        {
          "internalType": "bytes32",
          "name": "roleId",
          "type": "bytes32"
        },
        {
          "internalType": "bytes32",
          "name": "adminRoleId",
          "type": "bytes32"
        }
      ],
      "name": "setRoleAdmin",
      "outputs": [],
      "stateMutability": "nonpayable",
      "type": "function"
    },
    {
      "inputs": [
        {
          "internalType": "bytes4",
          "name": "interfaceId",
          "type": "bytes4"
        }
      ],
      "name": "supportsInterface",
      "outputs": [
        {
          "internalType": "bool",
          "name": "",
          "type": "bool"
        }
      ],
      "stateMutability": "view",
      "type": "function"
    }
  ],
  "bytecode": "0x608060405234801561001057600080fd5b506100316000801b61002661003660201b60201c565b61003e60201b60201c565b6101a8565b600033905090565b61004e828261005260201b60201c565b5050565b610062828261013e60201b60201c565b61013a57600160008084815260200190815260200160002060000160008373ffffffffffffffffffffffffffffffffffffffff1673ffffffffffffffffffffffffffffffffffffffff16815260200190815260200160002060006101000a81548160ff0219169083151502179055506100df61003660201b60201c565b73ffffffffffffffffffffffffffffffffffffffff168173ffffffffffffffffffffffffffffffffffffffff16837f2f8788117e7eff1d82e926ec794901d17c78024a50270940304540a733656f0d60405160405180910390a45b5050565b600080600084815260200190815260200160002060000160008373ffffffffffffffffffffffffffffffffffffffff1673ffffffffffffffffffffffffffffffffffffffff16815260200190815260200160002060009054906101000a900460ff16905092915050565b610fd5806101b76000396000f3fe608060405234801561001057600080fd5b50600436106100935760003560e01c806336568abe1161006657806336568abe146101305780634b9304a41461014c57806391d1485414610168578063a217fddf14610198578063d547741f146101b657610093565b806301ffc9a7146100985780631e4e0091146100c8578063248a9ca3146100e45780632f2ff15d14610114575b600080fd5b6100b260048036038101906100ad9190610999565b6101d2565b6040516100bf91906109e1565b60405180910390f35b6100e260048036038101906100dd9190610a32565b61024c565b005b6100fe60048036038101906100f99190610a72565b61025a565b60405161010b9190610aae565b60405180910390f35b61012e60048036038101906101299190610b27565b610279565b005b61014a60048036038101906101459190610b27565b6102a2565b005b61016660048036038101906101619190610a72565b610325565b005b610182600480360381019061017d9190610b27565b61033b565b60405161018f91906109e1565b60405180910390f35b6101a06103a5565b6040516101ad9190610aae565b60405180910390f35b6101d060048036038101906101cb9190610b27565b6103ac565b005b60007f7965db0b000000000000000000000000000000000000000000000000000000007bffffffffffffffffffffffffffffffffffffffffffffffffffffffff1916827bffffffffffffffffffffffffffffffffffffffffffffffffffffffff191614806102455750610244826103d5565b5b9050919050565b610256828261043f565b5050565b6000806000838152602001908152602001600020600101549050919050565b6102828261025a565b6102938161028e61049a565b6104a2565b61029d838361053f565b505050565b6102aa61049a565b73ffffffffffffffffffffffffffffffffffffffff168173ffffffffffffffffffffffffffffffffffffffff1614610317576040517f08c379a000000000000000000000000000000000000000000000000000000000815260040161030e90610bea565b60405180910390fd5b610321828261061f565b5050565b806103378161033261049a565b6104a2565b5050565b600080600084815260200190815260200160002060000160008373ffffffffffffffffffffffffffffffffffffffff1673ffffffffffffffffffffffffffffffffffffffff16815260200190815260200160002060009054906101000a900460ff16905092915050565b6000801b81565b6103b58261025a565b6103c6816103c161049a565b6104a2565b6103d0838361061f565b505050565b60007f01ffc9a7000000000000000000000000000000000000000000000000000000007bffffffffffffffffffffffffffffffffffffffffffffffffffffffff1916827bffffffffffffffffffffffffffffffffffffffffffffffffffffffff1916149050919050565b600061044a8361025a565b905081600080858152602001908152602001600020600101819055508181847fbd79b86ffe0ab8e8776151514217cd7cacd52c909f66475c3af44e129f0b00ff60405160405180910390a4505050565b600033905090565b6104ac828261033b565b61053b576104d18173ffffffffffffffffffffffffffffffffffffffff166014610700565b6104df8360001c6020610700565b6040516020016104f0929190610d1c565b6040516020818303038152906040526040517f08c379a00000000000000000000000000000000000000000000000000000000081526004016105329190610da0565b60405180910390fd5b5050565b610549828261033b565b61061b57600160008084815260200190815260200160002060000160008373ffffffffffffffffffffffffffffffffffffffff1673ffffffffffffffffffffffffffffffffffffffff16815260200190815260200160002060006101000a81548160ff0219169083151502179055506105c061049a565b73ffffffffffffffffffffffffffffffffffffffff168173ffffffffffffffffffffffffffffffffffffffff16837f2f8788117e7eff1d82e926ec794901d17c78024a50270940304540a733656f0d60405160405180910390a45b5050565b610629828261033b565b156106fc57600080600084815260200190815260200160002060000160008373ffffffffffffffffffffffffffffffffffffffff1673ffffffffffffffffffffffffffffffffffffffff16815260200190815260200160002060006101000a81548160ff0219169083151502179055506106a161049a565b73ffffffffffffffffffffffffffffffffffffffff168173ffffffffffffffffffffffffffffffffffffffff16837ff6391f5c32d9c69d2a47ea670b442974b53935d1edc7fd64eb21e047a839171b60405160405180910390a45b5050565b6060600060028360026107139190610dfb565b61071d9190610e55565b67ffffffffffffffff81111561073657610735610eab565b5b6040519080825280601f01601f1916602001820160405280156107685781602001600182028036833780820191505090505b5090507f3000000000000000000000000000000000000000000000000000000000000000816000815181106107a05761079f610eda565b5b60200101907effffffffffffffffffffffffffffffffffffffffffffffffffffffffffffff1916908160001a9053507f78000000000000000000000000000000000000000000000000000000000000008160018151811061080457610803610eda565b5b60200101907effffffffffffffffffffffffffffffffffffffffffffffffffffffffffffff1916908160001a905350600060018460026108449190610dfb565b61084e9190610e55565b90505b60018111156108ee577f3031323334353637383961626364656600000000000000000000000000000000600f8616601081106108905761088f610eda565b5b1a60f81b8282815181106108a7576108a6610eda565b5b60200101907effffffffffffffffffffffffffffffffffffffffffffffffffffffffffffff1916908160001a905350600485901c9450806108e790610f09565b9050610851565b5060008414610932576040517f08c379a000000000000000000000000000000000000000000000000000000000815260040161092990610f7f565b60405180910390fd5b8091505092915050565b600080fd5b60007fffffffff0000000000000000000000000000000000000000000000000000000082169050919050565b61097681610941565b811461098157600080fd5b50565b6000813590506109938161096d565b92915050565b6000602082840312156109af576109ae61093c565b5b60006109bd84828501610984565b91505092915050565b60008115159050919050565b6109db816109c6565b82525050565b60006020820190506109f660008301846109d2565b92915050565b6000819050919050565b610a0f816109fc565b8114610a1a57600080fd5b50565b600081359050610a2c81610a06565b92915050565b60008060408385031215610a4957610a4861093c565b5b6000610a5785828601610a1d565b9250506020610a6885828601610a1d565b9150509250929050565b600060208284031215610a8857610a8761093c565b5b6000610a9684828501610a1d565b91505092915050565b610aa8816109fc565b82525050565b6000602082019050610ac36000830184610a9f565b92915050565b600073ffffffffffffffffffffffffffffffffffffffff82169050919050565b6000610af482610ac9565b9050919050565b610b0481610ae9565b8114610b0f57600080fd5b50565b600081359050610b2181610afb565b92915050565b60008060408385031215610b3e57610b3d61093c565b5b6000610b4c85828601610a1d565b9250506020610b5d85828601610b12565b9150509250929050565b600082825260208201905092915050565b7f416363657373436f6e74726f6c3a2063616e206f6e6c792072656e6f756e636560008201527f20726f6c657320666f722073656c660000000000000000000000000000000000602082015250565b6000610bd4602f83610b67565b9150610bdf82610b78565b604082019050919050565b60006020820190508181036000830152610c0381610bc7565b9050919050565b600081905092915050565b7f416363657373436f6e74726f6c3a206163636f756e7420000000000000000000600082015250565b6000610c4b601783610c0a565b9150610c5682610c15565b601782019050919050565b600081519050919050565b60005b83811015610c8a578082015181840152602081019050610c6f565b83811115610c99576000848401525b50505050565b6000610caa82610c61565b610cb48185610c0a565b9350610cc4818560208601610c6c565b80840191505092915050565b7f206973206d697373696e6720726f6c6520000000000000000000000000000000600082015250565b6000610d06601183610c0a565b9150610d1182610cd0565b601182019050919050565b6000610d2782610c3e565b9150610d338285610c9f565b9150610d3e82610cf9565b9150610d4a8284610c9f565b91508190509392505050565b6000601f19601f8301169050919050565b6000610d7282610c61565b610d7c8185610b67565b9350610d8c818560208601610c6c565b610d9581610d56565b840191505092915050565b60006020820190508181036000830152610dba8184610d67565b905092915050565b6000819050919050565b7f4e487b7100000000000000000000000000000000000000000000000000000000600052601160045260246000fd5b6000610e0682610dc2565b9150610e1183610dc2565b9250817fffffffffffffffffffffffffffffffffffffffffffffffffffffffffffffffff0483118215151615610e4a57610e49610dcc565b5b828202905092915050565b6000610e6082610dc2565b9150610e6b83610dc2565b9250827fffffffffffffffffffffffffffffffffffffffffffffffffffffffffffffffff03821115610ea057610e9f610dcc565b5b828201905092915050565b7f4e487b7100000000000000000000000000000000000000000000000000000000600052604160045260246000fd5b7f4e487b7100000000000000000000000000000000000000000000000000000000600052603260045260246000fd5b6000610f1482610dc2565b91506000821415610f2857610f27610dcc565b5b600182039050919050565b7f537472696e67733a20686578206c656e67746820696e73756666696369656e74600082015250565b6000610f69602083610b67565b9150610f7482610f33565b602082019050919050565b60006020820190508181036000830152610f9881610f5c565b905091905056fea264697066735822122007e3397e6311f75fc0f4a7d64dbc149022373a583fde38b5cbb0be791fcc3c2164736f6c63430008090033",
  "linkReferences": {},
  "deployedLinkReferences": {}
}