{
  "_format": "hh-sol-artifact-1",
  "contractName": "GovernorTimelockControlMock",
  "sourceName": "contracts/oz/mocks/GovernorTimelockControlMock.sol",
  "abi": [
    {
      "inputs": [
        {
          "internalType": "string",
          "name": "name_",
          "type": "string"
        },
        {
          "internalType": "contract ERC20Votes",
          "name": "token_",
          "type": "address"
        },
        {
          "internalType": "uint256",
          "name": "votingDelay_",
          "type": "uint256"
        },
        {
          "internalType": "uint256",
          "name": "votingPeriod_",
          "type": "uint256"
        },
        {
          "internalType": "contract TimelockController",
          "name": "timelock_",
          "type": "address"
        },
        {
          "internalType": "uint256",
          "name": "quorumNumerator_",
          "type": "uint256"
        }
      ],
      "stateMutability": "nonpayable",
      "type": "constructor"
    },
    {
      "anonymous": false,
      "inputs": [
        {
          "indexed": false,
          "internalType": "uint256",
          "name": "proposalId",
          "type": "uint256"
        }
      ],
      "name": "ProposalCanceled",
      "type": "event"
    },
    {
      "anonymous": false,
      "inputs": [
        {
          "indexed": false,
          "internalType": "uint256",
          "name": "proposalId",
          "type": "uint256"
        },
        {
          "indexed": false,
          "internalType": "address",
          "name": "proposer",
          "type": "address"
        },
        {
          "indexed": false,
          "internalType": "address[]",
          "name": "targets",
          "type": "address[]"
        },
        {
          "indexed": false,
          "internalType": "uint256[]",
          "name": "values",
          "type": "uint256[]"
        },
        {
          "indexed": false,
          "internalType": "string[]",
          "name": "signatures",
          "type": "string[]"
        },
        {
          "indexed": false,
          "internalType": "bytes[]",
          "name": "calldatas",
          "type": "bytes[]"
        },
        {
          "indexed": false,
          "internalType": "uint256",
          "name": "startBlock",
          "type": "uint256"
        },
        {
          "indexed": false,
          "internalType": "uint256",
          "name": "endBlock",
          "type": "uint256"
        },
        {
          "indexed": false,
          "internalType": "string",
          "name": "description",
          "type": "string"
        }
      ],
      "name": "ProposalCreated",
      "type": "event"
    },
    {
      "anonymous": false,
      "inputs": [
        {
          "indexed": false,
          "internalType": "uint256",
          "name": "proposalId",
          "type": "uint256"
        }
      ],
      "name": "ProposalExecuted",
      "type": "event"
    },
    {
      "anonymous": false,
      "inputs": [
        {
          "indexed": false,
          "internalType": "uint256",
          "name": "proposalId",
          "type": "uint256"
        },
        {
          "indexed": false,
          "internalType": "uint256",
          "name": "eta",
          "type": "uint256"
        }
      ],
      "name": "ProposalQueued",
      "type": "event"
    },
    {
      "anonymous": false,
      "inputs": [
        {
          "indexed": false,
          "internalType": "uint256",
          "name": "oldProposalThreshold",
          "type": "uint256"
        },
        {
          "indexed": false,
          "internalType": "uint256",
          "name": "newProposalThreshold",
          "type": "uint256"
        }
      ],
      "name": "ProposalThresholdSet",
      "type": "event"
    },
    {
      "anonymous": false,
      "inputs": [
        {
          "indexed": false,
          "internalType": "uint256",
          "name": "oldQuorumNumerator",
          "type": "uint256"
        },
        {
          "indexed": false,
          "internalType": "uint256",
          "name": "newQuorumNumerator",
          "type": "uint256"
        }
      ],
      "name": "QuorumNumeratorUpdated",
      "type": "event"
    },
    {
      "anonymous": false,
      "inputs": [
        {
          "indexed": false,
          "internalType": "address",
          "name": "oldTimelock",
          "type": "address"
        },
        {
          "indexed": false,
          "internalType": "address",
          "name": "newTimelock",
          "type": "address"
        }
      ],
      "name": "TimelockChange",
      "type": "event"
    },
    {
      "anonymous": false,
      "inputs": [
        {
          "indexed": true,
          "internalType": "address",
          "name": "voter",
          "type": "address"
        },
        {
          "indexed": false,
          "internalType": "uint256",
          "name": "proposalId",
          "type": "uint256"
        },
        {
          "indexed": false,
          "internalType": "uint8",
          "name": "support",
          "type": "uint8"
        },
        {
          "indexed": false,
          "internalType": "uint256",
          "name": "weight",
          "type": "uint256"
        },
        {
          "indexed": false,
          "internalType": "string",
          "name": "reason",
          "type": "string"
        }
      ],
      "name": "VoteCast",
      "type": "event"
    },
    {
      "anonymous": false,
      "inputs": [
        {
          "indexed": false,
          "internalType": "uint256",
          "name": "oldVotingDelay",
          "type": "uint256"
        },
        {
          "indexed": false,
          "internalType": "uint256",
          "name": "newVotingDelay",
          "type": "uint256"
        }
      ],
      "name": "VotingDelaySet",
      "type": "event"
    },
    {
      "anonymous": false,
      "inputs": [
        {
          "indexed": false,
          "internalType": "uint256",
          "name": "oldVotingPeriod",
          "type": "uint256"
        },
        {
          "indexed": false,
          "internalType": "uint256",
          "name": "newVotingPeriod",
          "type": "uint256"
        }
      ],
      "name": "VotingPeriodSet",
      "type": "event"
    },
    {
      "inputs": [],
      "name": "BALLOT_TYPEHASH",
      "outputs": [
        {
          "internalType": "bytes32",
          "name": "",
          "type": "bytes32"
        }
      ],
      "stateMutability": "view",
      "type": "function"
    },
    {
      "inputs": [],
      "name": "COUNTING_MODE",
      "outputs": [
        {
          "internalType": "string",
          "name": "",
          "type": "string"
        }
      ],
      "stateMutability": "pure",
      "type": "function"
    },
    {
      "inputs": [
        {
          "internalType": "address[]",
          "name": "targets",
          "type": "address[]"
        },
        {
          "internalType": "uint256[]",
          "name": "values",
          "type": "uint256[]"
        },
        {
          "internalType": "bytes[]",
          "name": "calldatas",
          "type": "bytes[]"
        },
        {
          "internalType": "bytes32",
          "name": "descriptionHash",
          "type": "bytes32"
        }
      ],
      "name": "cancel",
      "outputs": [
        {
          "internalType": "uint256",
          "name": "proposalId",
          "type": "uint256"
        }
      ],
      "stateMutability": "nonpayable",
      "type": "function"
    },
    {
      "inputs": [
        {
          "internalType": "uint256",
          "name": "proposalId",
          "type": "uint256"
        },
        {
          "internalType": "uint8",
          "name": "support",
          "type": "uint8"
        }
      ],
      "name": "castVote",
      "outputs": [
        {
          "internalType": "uint256",
          "name": "",
          "type": "uint256"
        }
      ],
      "stateMutability": "nonpayable",
      "type": "function"
    },
    {
      "inputs": [
        {
          "internalType": "uint256",
          "name": "proposalId",
          "type": "uint256"
        },
        {
          "internalType": "uint8",
          "name": "support",
          "type": "uint8"
        },
        {
          "internalType": "uint8",
          "name": "v",
          "type": "uint8"
        },
        {
          "internalType": "bytes32",
          "name": "r",
          "type": "bytes32"
        },
        {
          "internalType": "bytes32",
          "name": "s",
          "type": "bytes32"
        }
      ],
      "name": "castVoteBySig",
      "outputs": [
        {
          "internalType": "uint256",
          "name": "",
          "type": "uint256"
        }
      ],
      "stateMutability": "nonpayable",
      "type": "function"
    },
    {
      "inputs": [
        {
          "internalType": "uint256",
          "name": "proposalId",
          "type": "uint256"
        },
        {
          "internalType": "uint8",
          "name": "support",
          "type": "uint8"
        },
        {
          "internalType": "string",
          "name": "reason",
          "type": "string"
        }
      ],
      "name": "castVoteWithReason",
      "outputs": [
        {
          "internalType": "uint256",
          "name": "",
          "type": "uint256"
        }
      ],
      "stateMutability": "nonpayable",
      "type": "function"
    },
    {
      "inputs": [
        {
          "internalType": "address[]",
          "name": "targets",
          "type": "address[]"
        },
        {
          "internalType": "uint256[]",
          "name": "values",
          "type": "uint256[]"
        },
        {
          "internalType": "bytes[]",
          "name": "calldatas",
          "type": "bytes[]"
        },
        {
          "internalType": "bytes32",
          "name": "descriptionHash",
          "type": "bytes32"
        }
      ],
      "name": "execute",
      "outputs": [
        {
          "internalType": "uint256",
          "name": "",
          "type": "uint256"
        }
      ],
      "stateMutability": "payable",
      "type": "function"
    },
    {
      "inputs": [
        {
          "internalType": "address",
          "name": "account",
          "type": "address"
        },
        {
          "internalType": "uint256",
          "name": "blockNumber",
          "type": "uint256"
        }
      ],
      "name": "getVotes",
      "outputs": [
        {
          "internalType": "uint256",
          "name": "",
          "type": "uint256"
        }
      ],
      "stateMutability": "view",
      "type": "function"
    },
    {
      "inputs": [
        {
          "internalType": "uint256",
          "name": "proposalId",
          "type": "uint256"
        },
        {
          "internalType": "address",
          "name": "account",
          "type": "address"
        }
      ],
      "name": "hasVoted",
      "outputs": [
        {
          "internalType": "bool",
          "name": "",
          "type": "bool"
        }
      ],
      "stateMutability": "view",
      "type": "function"
    },
    {
      "inputs": [
        {
          "internalType": "address[]",
          "name": "targets",
          "type": "address[]"
        },
        {
          "internalType": "uint256[]",
          "name": "values",
          "type": "uint256[]"
        },
        {
          "internalType": "bytes[]",
          "name": "calldatas",
          "type": "bytes[]"
        },
        {
          "internalType": "bytes32",
          "name": "descriptionHash",
          "type": "bytes32"
        }
      ],
      "name": "hashProposal",
      "outputs": [
        {
          "internalType": "uint256",
          "name": "",
          "type": "uint256"
        }
      ],
      "stateMutability": "pure",
      "type": "function"
    },
    {
      "inputs": [],
      "name": "name",
      "outputs": [
        {
          "internalType": "string",
          "name": "",
          "type": "string"
        }
      ],
      "stateMutability": "view",
      "type": "function"
    },
    {
      "inputs": [
        {
          "internalType": "uint256",
          "name": "proposalId",
          "type": "uint256"
        }
      ],
      "name": "proposalDeadline",
      "outputs": [
        {
          "internalType": "uint256",
          "name": "",
          "type": "uint256"
        }
      ],
      "stateMutability": "view",
      "type": "function"
    },
    {
      "inputs": [
        {
          "internalType": "uint256",
          "name": "proposalId",
          "type": "uint256"
        }
      ],
      "name": "proposalEta",
      "outputs": [
        {
          "internalType": "uint256",
          "name": "",
          "type": "uint256"
        }
      ],
      "stateMutability": "view",
      "type": "function"
    },
    {
      "inputs": [
        {
          "internalType": "uint256",
          "name": "proposalId",
          "type": "uint256"
        }
      ],
      "name": "proposalSnapshot",
      "outputs": [
        {
          "internalType": "uint256",
          "name": "",
          "type": "uint256"
        }
      ],
      "stateMutability": "view",
      "type": "function"
    },
    {
      "inputs": [],
      "name": "proposalThreshold",
      "outputs": [
        {
          "internalType": "uint256",
          "name": "",
          "type": "uint256"
        }
      ],
      "stateMutability": "view",
      "type": "function"
    },
    {
      "inputs": [
        {
          "internalType": "uint256",
          "name": "proposalId",
          "type": "uint256"
        }
      ],
      "name": "proposalVotes",
      "outputs": [
        {
          "internalType": "uint256",
          "name": "againstVotes",
          "type": "uint256"
        },
        {
          "internalType": "uint256",
          "name": "forVotes",
          "type": "uint256"
        },
        {
          "internalType": "uint256",
          "name": "abstainVotes",
          "type": "uint256"
        }
      ],
      "stateMutability": "view",
      "type": "function"
    },
    {
      "inputs": [
        {
          "internalType": "address[]",
          "name": "targets",
          "type": "address[]"
        },
        {
          "internalType": "uint256[]",
          "name": "values",
          "type": "uint256[]"
        },
        {
          "internalType": "bytes[]",
          "name": "calldatas",
          "type": "bytes[]"
        },
        {
          "internalType": "string",
          "name": "description",
          "type": "string"
        }
      ],
      "name": "propose",
      "outputs": [
        {
          "internalType": "uint256",
          "name": "",
          "type": "uint256"
        }
      ],
      "stateMutability": "nonpayable",
      "type": "function"
    },
    {
      "inputs": [
        {
          "internalType": "address[]",
          "name": "targets",
          "type": "address[]"
        },
        {
          "internalType": "uint256[]",
          "name": "values",
          "type": "uint256[]"
        },
        {
          "internalType": "bytes[]",
          "name": "calldatas",
          "type": "bytes[]"
        },
        {
          "internalType": "bytes32",
          "name": "descriptionHash",
          "type": "bytes32"
        }
      ],
      "name": "queue",
      "outputs": [
        {
          "internalType": "uint256",
          "name": "",
          "type": "uint256"
        }
      ],
      "stateMutability": "nonpayable",
      "type": "function"
    },
    {
      "inputs": [
        {
          "internalType": "uint256",
          "name": "blockNumber",
          "type": "uint256"
        }
      ],
      "name": "quorum",
      "outputs": [
        {
          "internalType": "uint256",
          "name": "",
          "type": "uint256"
        }
      ],
      "stateMutability": "view",
      "type": "function"
    },
    {
      "inputs": [],
      "name": "quorumDenominator",
      "outputs": [
        {
          "internalType": "uint256",
          "name": "",
          "type": "uint256"
        }
      ],
      "stateMutability": "view",
      "type": "function"
    },
    {
      "inputs": [],
      "name": "quorumNumerator",
      "outputs": [
        {
          "internalType": "uint256",
          "name": "",
          "type": "uint256"
        }
      ],
      "stateMutability": "view",
      "type": "function"
    },
    {
      "inputs": [
        {
          "internalType": "uint256",
          "name": "newProposalThreshold",
          "type": "uint256"
        }
      ],
      "name": "setProposalThreshold",
      "outputs": [],
      "stateMutability": "nonpayable",
      "type": "function"
    },
    {
      "inputs": [
        {
          "internalType": "uint256",
          "name": "newVotingDelay",
          "type": "uint256"
        }
      ],
      "name": "setVotingDelay",
      "outputs": [],
      "stateMutability": "nonpayable",
      "type": "function"
    },
    {
      "inputs": [
        {
          "internalType": "uint256",
          "name": "newVotingPeriod",
          "type": "uint256"
        }
      ],
      "name": "setVotingPeriod",
      "outputs": [],
      "stateMutability": "nonpayable",
      "type": "function"
    },
    {
      "inputs": [
        {
          "internalType": "uint256",
          "name": "proposalId",
          "type": "uint256"
        }
      ],
      "name": "state",
      "outputs": [
        {
          "internalType": "enum IGovernor.ProposalState",
          "name": "",
          "type": "uint8"
        }
      ],
      "stateMutability": "view",
      "type": "function"
    },
    {
      "inputs": [
        {
          "internalType": "bytes4",
          "name": "interfaceId",
          "type": "bytes4"
        }
      ],
      "name": "supportsInterface",
      "outputs": [
        {
          "internalType": "bool",
          "name": "",
          "type": "bool"
        }
      ],
      "stateMutability": "view",
      "type": "function"
    },
    {
      "inputs": [],
      "name": "timelock",
      "outputs": [
        {
          "internalType": "address",
          "name": "",
          "type": "address"
        }
      ],
      "stateMutability": "view",
      "type": "function"
    },
    {
      "inputs": [],
      "name": "token",
      "outputs": [
        {
          "internalType": "contract ERC20Votes",
          "name": "",
          "type": "address"
        }
      ],
      "stateMutability": "view",
      "type": "function"
    },
    {
      "inputs": [
        {
          "internalType": "uint256",
          "name": "newQuorumNumerator",
          "type": "uint256"
        }
      ],
      "name": "updateQuorumNumerator",
      "outputs": [],
      "stateMutability": "nonpayable",
      "type": "function"
    },
    {
      "inputs": [
        {
          "internalType": "contract TimelockController",
          "name": "newTimelock",
          "type": "address"
        }
      ],
      "name": "updateTimelock",
      "outputs": [],
      "stateMutability": "nonpayable",
      "type": "function"
    },
    {
      "inputs": [],
      "name": "version",
      "outputs": [
        {
          "internalType": "string",
          "name": "",
          "type": "string"
        }
      ],
      "stateMutability": "view",
      "type": "function"
    },
    {
      "inputs": [],
      "name": "votingDelay",
      "outputs": [
        {
          "internalType": "uint256",
          "name": "",
          "type": "uint256"
        }
      ],
      "stateMutability": "view",
      "type": "function"
    },
    {
      "inputs": [],
      "name": "votingPeriod",
      "outputs": [
        {
          "internalType": "uint256",
          "name": "",
          "type": "uint256"
        }
      ],
      "stateMutability": "view",
      "type": "function"
    },
    {
      "stateMutability": "payable",
      "type": "receive"
    }
  ],
  "bytecode": "0x6101606040523480156200001257600080fd5b5060405162005b5f38038062005b5f8339818101604052810190620000389190620007f3565b808583868660008b8062000051620001b960201b60201c565b60008280519060200120905060008280519060200120905060007f8b73c3c69bb8fe3d512ecc4cf759cc79239f7b179b0ffacaa9a75d522b39400f90508260e081815250508161010081815250504660a08181525050620000ba818484620001f660201b60201c565b608081815250503073ffffffffffffffffffffffffffffffffffffffff1660c08173ffffffffffffffffffffffffffffffffffffffff1681525050806101208181525050505050505080600090805190602001906200011b92919062000499565b50506200012e836200023260201b60201c565b6200013f826200027960201b60201c565b62000150816200030660201b60201c565b50505062000164816200034d60201b60201c565b508073ffffffffffffffffffffffffffffffffffffffff166101408173ffffffffffffffffffffffffffffffffffffffff168152505050620001ac81620003ee60201b60201c565b5050505050505062000b6e565b60606040518060400160405280600181526020017f3100000000000000000000000000000000000000000000000000000000000000815250905090565b6000838383463060405160200162000213959493929190620008eb565b6040516020818303038152906040528051906020012090509392505050565b7fc565b045403dc03c2eea82b81a0465edad9e2e7fc4d97e11421c209da93d7a93600254826040516200026792919062000948565b60405180910390a18060028190555050565b60008111620002bf576040517f08c379a0000000000000000000000000000000000000000000000000000000008152600401620002b690620009fc565b60405180910390fd5b7f7e3f7f0708a84de9203036abaa450dccc85ad5ff52f78c170f3edb55cf5e882860035482604051620002f492919062000948565b60405180910390a18060038190555050565b7fccb45da8d5717e6c4544694297c4ba5cf151d455c9bb0ed4fc7a38411bc05461600454826040516200033b92919062000948565b60405180910390a18060048190555050565b7f08f74ea46ef7894f65eabfb5e6e695de773a000b47c529ab559178069b226401600560009054906101000a900473ffffffffffffffffffffffffffffffffffffffff1682604051620003a292919062000a1e565b60405180910390a180600560006101000a81548173ffffffffffffffffffffffffffffffffffffffff021916908373ffffffffffffffffffffffffffffffffffffffff16021790555050565b620003fe6200049060201b60201c565b81111562000443576040517f08c379a00000000000000000000000000000000000000000000000000000000081526004016200043a9062000ae7565b60405180910390fd5b60006007549050816007819055507f0553476bf02ef2726e8ce5ced78d63e26e602e4a2257b1f559418e24b463399781836040516200048492919062000948565b60405180910390a15050565b60006064905090565b828054620004a79062000b38565b90600052602060002090601f016020900481019282620004cb576000855562000517565b82601f10620004e657805160ff191683800117855562000517565b8280016001018555821562000517579182015b8281111562000516578251825591602001919060010190620004f9565b5b5090506200052691906200052a565b5090565b5b80821115620005455760008160009055506001016200052b565b5090565b6000604051905090565b600080fd5b600080fd5b600080fd5b600080fd5b6000601f19601f8301169050919050565b7f4e487b7100000000000000000000000000000000000000000000000000000000600052604160045260246000fd5b620005b28262000567565b810181811067ffffffffffffffff82111715620005d457620005d362000578565b5b80604052505050565b6000620005e962000549565b9050620005f78282620005a7565b919050565b600067ffffffffffffffff8211156200061a576200061962000578565b5b620006258262000567565b9050602081019050919050565b60005b838110156200065257808201518184015260208101905062000635565b8381111562000662576000848401525b50505050565b60006200067f6200067984620005fc565b620005dd565b9050828152602081018484840111156200069e576200069d62000562565b5b620006ab84828562000632565b509392505050565b600082601f830112620006cb57620006ca6200055d565b5b8151620006dd84826020860162000668565b91505092915050565b600073ffffffffffffffffffffffffffffffffffffffff82169050919050565b60006200071382620006e6565b9050919050565b6000620007278262000706565b9050919050565b62000739816200071a565b81146200074557600080fd5b50565b60008151905062000759816200072e565b92915050565b6000819050919050565b62000774816200075f565b81146200078057600080fd5b50565b600081519050620007948162000769565b92915050565b6000620007a782620006e6565b9050919050565b6000620007bb826200079a565b9050919050565b620007cd81620007ae565b8114620007d957600080fd5b50565b600081519050620007ed81620007c2565b92915050565b60008060008060008060c0878903121562000813576200081262000553565b5b600087015167ffffffffffffffff81111562000834576200083362000558565b5b6200084289828a01620006b3565b96505060206200085589828a0162000748565b95505060406200086889828a0162000783565b94505060606200087b89828a0162000783565b93505060806200088e89828a01620007dc565b92505060a0620008a189828a0162000783565b9150509295509295509295565b6000819050919050565b620008c381620008ae565b82525050565b620008d4816200075f565b82525050565b620008e58162000706565b82525050565b600060a082019050620009026000830188620008b8565b620009116020830187620008b8565b620009206040830186620008b8565b6200092f6060830185620008c9565b6200093e6080830184620008da565b9695505050505050565b60006040820190506200095f6000830185620008c9565b6200096e6020830184620008c9565b9392505050565b600082825260208201905092915050565b7f476f7665726e6f7253657474696e67733a20766f74696e6720706572696f642060008201527f746f6f206c6f7700000000000000000000000000000000000000000000000000602082015250565b6000620009e460278362000975565b9150620009f18262000986565b604082019050919050565b6000602082019050818103600083015262000a1781620009d5565b9050919050565b600060408201905062000a356000830185620008da565b62000a446020830184620008da565b9392505050565b7f476f7665726e6f72566f74657351756f72756d4672616374696f6e3a2071756f60008201527f72756d4e756d657261746f72206f7665722071756f72756d44656e6f6d696e6160208201527f746f720000000000000000000000000000000000000000000000000000000000604082015250565b600062000acf60438362000975565b915062000adc8262000a4b565b606082019050919050565b6000602082019050818103600083015262000b028162000ac0565b9050919050565b7f4e487b7100000000000000000000000000000000000000000000000000000000600052602260045260246000fd5b6000600282049050600182168062000b5157607f821691505b6020821081141562000b685762000b6762000b09565b5b50919050565b60805160a05160c05160e051610100516101205161014051614f8862000bd76000396000818161185501528181611edc0152611fe60152600061226e015260006122b00152600061228f015260006121c40152600061221a015260006122430152614f886000f3fe6080604052600436106101f25760003560e01c80637b3c71d31161010d578063c59057e4116100a0578063ea0217cf1161006f578063ea0217cf146107ee578063eb9019d414610817578063ece40cc114610854578063f8ce560a1461087d578063fc0c546a146108ba57610238565b8063c59057e414610730578063d33219b41461076d578063dd4e2ba514610798578063deaaa7cc146107c357610238565b8063a890c910116100dc578063a890c91014610662578063ab58fb8e1461068b578063b58131b0146106c8578063c01f9e37146106f357610238565b80637b3c71d3146105925780637d5e81e2146105cf57806397c3d3341461060c578063a7713a701461063757610238565b80633bccf4fd11610185578063544ffc9c11610154578063544ffc9c146104c257806354fd4d5014610501578063567813881461052c57806370b0f6601461056957610238565b80633bccf4fd146103ce5780633e4f49e61461040b5780634385963214610448578063452115d61461048557610238565b8063160cbed7116101c1578063160cbed7146102f95780632656227d146103365780632d63f693146103665780633932abb1146103a357610238565b806301ffc9a71461023d57806302a251a31461027a57806306f3f9e6146102a557806306fdde03146102ce57610238565b36610238573073ffffffffffffffffffffffffffffffffffffffff166102166108e5565b73ffffffffffffffffffffffffffffffffffffffff161461023657600080fd5b005b600080fd5b34801561024957600080fd5b50610264600480360381019061025f9190612de5565b6108f4565b6040516102719190612e2d565b60405180910390f35b34801561028657600080fd5b5061028f610906565b60405161029c9190612e61565b60405180910390f35b3480156102b157600080fd5b506102cc60048036038101906102c79190612ea8565b610910565b005b3480156102da57600080fd5b506102e3610998565b6040516102f09190612f6e565b60405180910390f35b34801561030557600080fd5b50610320600480360381019061031b91906133c5565b610a2a565b60405161032d9190612e61565b60405180910390f35b610350600480360381019061034b91906133c5565b610d02565b60405161035d9190612e61565b60405180910390f35b34801561037257600080fd5b5061038d60048036038101906103889190612ea8565b610e35565b60405161039a9190612e61565b60405180910390f35b3480156103af57600080fd5b506103b8610ea3565b6040516103c59190612e61565b60405180910390f35b3480156103da57600080fd5b506103f560048036038101906103f091906134b9565b610ead565b6040516104029190612e61565b60405180910390f35b34801561041757600080fd5b50610432600480360381019061042d9190612ea8565b610f37565b60405161043f91906135ab565b60405180910390f35b34801561045457600080fd5b5061046f600480360381019061046a91906135c6565b610f49565b60405161047c9190612e2d565b60405180910390f35b34801561049157600080fd5b506104ac60048036038101906104a791906133c5565b610fb4565b6040516104b99190612e61565b60405180910390f35b3480156104ce57600080fd5b506104e960048036038101906104e49190612ea8565b610fcc565b6040516104f893929190613606565b60405180910390f35b34801561050d57600080fd5b50610516611004565b6040516105239190612f6e565b60405180910390f35b34801561053857600080fd5b50610553600480360381019061054e919061363d565b611041565b6040516105609190612e61565b60405180910390f35b34801561057557600080fd5b50610590600480360381019061058b9190612ea8565b611072565b005b34801561059e57600080fd5b506105b960048036038101906105b491906136d8565b6110fa565b6040516105c69190612e61565b60405180910390f35b3480156105db57600080fd5b506105f660048036038101906105f191906137ed565b611162565b6040516106039190612e61565b60405180910390f35b34801561061857600080fd5b50610621611462565b60405161062e9190612e61565b60405180910390f35b34801561064357600080fd5b5061064c61146b565b6040516106599190612e61565b60405180910390f35b34801561066e57600080fd5b5061068960048036038101906106849190613914565b611475565b005b34801561069757600080fd5b506106b260048036038101906106ad9190612ea8565b6114fd565b6040516106bf9190612e61565b60405180910390f35b3480156106d457600080fd5b506106dd6115d9565b6040516106ea9190612e61565b60405180910390f35b3480156106ff57600080fd5b5061071a60048036038101906107159190612ea8565b6115e8565b6040516107279190612e61565b60405180910390f35b34801561073c57600080fd5b50610757600480360381019061075291906133c5565b611656565b6040516107649190612e61565b60405180910390f35b34801561077957600080fd5b50610782611692565b60405161078f9190613950565b60405180910390f35b3480156107a457600080fd5b506107ad6116bc565b6040516107ba9190612f6e565b60405180910390f35b3480156107cf57600080fd5b506107d86116f9565b6040516107e5919061397a565b60405180910390f35b3480156107fa57600080fd5b5061081560048036038101906108109190612ea8565b61171d565b005b34801561082357600080fd5b5061083e60048036038101906108399190613995565b6117a5565b60405161084b9190612e61565b60405180910390f35b34801561086057600080fd5b5061087b60048036038101906108769190612ea8565b6117b9565b005b34801561088957600080fd5b506108a4600480360381019061089f9190612ea8565b611841565b6040516108b19190612e61565b60405180910390f35b3480156108c657600080fd5b506108cf611853565b6040516108dc9190613a34565b60405180910390f35b60006108ef611877565b905090565b60006108ff826118a1565b9050919050565b6000600354905090565b6109186108e5565b73ffffffffffffffffffffffffffffffffffffffff1661093661191b565b73ffffffffffffffffffffffffffffffffffffffff161461098c576040517f08c379a000000000000000000000000000000000000000000000000000000000815260040161098390613a9b565b60405180910390fd5b61099581611923565b50565b6060600080546109a790613aea565b80601f01602080910402602001604051908101604052809291908181526020018280546109d390613aea565b8015610a205780601f106109f557610100808354040283529160200191610a20565b820191906000526020600020905b815481529060010190602001808311610a0357829003601f168201915b5050505050905090565b600080610a3986868686611656565b905060046007811115610a4f57610a4e613534565b5b610a5882610f37565b6007811115610a6a57610a69613534565b5b14610aaa576040517f08c379a0000000000000000000000000000000000000000000000000000000008152600401610aa190613b8e565b60405180910390fd5b6000600560009054906101000a900473ffffffffffffffffffffffffffffffffffffffff1673ffffffffffffffffffffffffffffffffffffffff1663f27a0c926040518163ffffffff1660e01b815260040160206040518083038186803b158015610b1457600080fd5b505afa158015610b28573d6000803e3d6000fd5b505050506040513d601f19601f82011682018060405250810190610b4c9190613bc3565b9050600560009054906101000a900473ffffffffffffffffffffffffffffffffffffffff1673ffffffffffffffffffffffffffffffffffffffff1663b1c5f4278888886000896040518663ffffffff1660e01b8152600401610bb2959493929190613ecb565b60206040518083038186803b158015610bca57600080fd5b505afa158015610bde573d6000803e3d6000fd5b505050506040513d601f19601f82011682018060405250810190610c029190613f48565b6006600084815260200190815260200160002081905550600560009054906101000a900473ffffffffffffffffffffffffffffffffffffffff1673ffffffffffffffffffffffffffffffffffffffff16638f2a0bb0888888600089876040518763ffffffff1660e01b8152600401610c7f96959493929190613f75565b600060405180830381600087803b158015610c9957600080fd5b505af1158015610cad573d6000803e3d6000fd5b505050507f9a2e42fd6722813d69113e7d0079d3d940171428df7373df9c7f7617cfda2892828242610cdf919061401a565b604051610ced929190614070565b60405180910390a18192505050949350505050565b600080610d1186868686611656565b90506000610d1e82610f37565b905060046007811115610d3457610d33613534565b5b816007811115610d4757610d46613534565b5b1480610d77575060056007811115610d6257610d61613534565b5b816007811115610d7557610d74613534565b5b145b610db6576040517f08c379a0000000000000000000000000000000000000000000000000000000008152600401610dad90613b8e565b60405180910390fd5b600180600084815260200190815260200160002060020160006101000a81548160ff0219169083151502179055507f712ae1383f79ac853f8d882153778e0260ef8f03b504e2866e0593e04d2b291f82604051610e139190612e61565b60405180910390a1610e2882888888886119b8565b8192505050949350505050565b6000610e92600160008481526020019081526020016000206000016040518060200160405290816000820160009054906101000a900467ffffffffffffffff1667ffffffffffffffff1667ffffffffffffffff16815250506119cc565b67ffffffffffffffff169050919050565b6000600254905090565b600080610f0e610f067f150214d74d59b7d1e90c73fc22ef3d991dd0a76b046543d4d80ab92d2a50328f8989604051602001610eeb939291906140a8565b604051602081830303815290604052805190602001206119da565b8686866119f4565b9050610f2b87828860405180602001604052806000815250611a1f565b91505095945050505050565b6000610f4282611b73565b9050919050565b60006008600084815260200190815260200160002060030160008373ffffffffffffffffffffffffffffffffffffffff1673ffffffffffffffffffffffffffffffffffffffff16815260200190815260200160002060009054906101000a900460ff16905092915050565b6000610fc285858585611caa565b9050949350505050565b600080600080600860008681526020019081526020016000209050806000015481600101548260020154935093509350509193909250565b60606040518060400160405280600181526020017f3100000000000000000000000000000000000000000000000000000000000000815250905090565b60008061104c61191b565b905061106984828560405180602001604052806000815250611a1f565b91505092915050565b61107a6108e5565b73ffffffffffffffffffffffffffffffffffffffff1661109861191b565b73ffffffffffffffffffffffffffffffffffffffff16146110ee576040517f08c379a00000000000000000000000000000000000000000000000000000000081526004016110e590613a9b565b60405180910390fd5b6110f781611cc2565b50565b60008061110561191b565b905061115786828787878080601f016020809104026020016040519081016040528093929190818152602001838380828437600081840152601f19601f82011690508083019250505050505050611a1f565b915050949350505050565b600061116c6115d9565b6111823360014361117d91906140df565b6117a5565b10156111c3576040517f08c379a00000000000000000000000000000000000000000000000000000000081526004016111ba906141ab565b60405180910390fd5b60006111d88686868680519060200120611656565b9050845186511461121e576040517f08c379a00000000000000000000000000000000000000000000000000000000081526004016112159061423d565b60405180910390fd5b8351865114611262576040517f08c379a00000000000000000000000000000000000000000000000000000000081526004016112599061423d565b60405180910390fd5b60008651116112a6576040517f08c379a000000000000000000000000000000000000000000000000000000000815260040161129d906142a9565b60405180910390fd5b6000600160008381526020019081526020016000209050611306816000016040518060200160405290816000820160009054906101000a900467ffffffffffffffff1667ffffffffffffffff1667ffffffffffffffff1681525050611d07565b611345576040517f08c379a000000000000000000000000000000000000000000000000000000000815260040161133c9061433b565b60405180910390fd5b6000611357611352610ea3565b611d21565b61136043611d21565b61136a919061436f565b9050600061137e611379610906565b611d21565b82611389919061436f565b90506113a18284600001611d7890919063ffffffff16565b6113b78184600101611d7890919063ffffffff16565b7f7d84a6263ae0d98d3329bd7b46bb4e8d6f98cd35a7adb45c274c8b7fd5ebd5e0846113e161191b565b8b8b8d5167ffffffffffffffff8111156113fe576113fd612f95565b5b60405190808252806020026020018201604052801561143157816020015b606081526020019060019003908161141c5790505b508c88888e60405161144b999897969594939291906144ea565b60405180910390a183945050505050949350505050565b60006064905090565b6000600754905090565b61147d6108e5565b73ffffffffffffffffffffffffffffffffffffffff1661149b61191b565b73ffffffffffffffffffffffffffffffffffffffff16146114f1576040517f08c379a00000000000000000000000000000000000000000000000000000000081526004016114e890613a9b565b60405180910390fd5b6114fa81611da7565b50565b600080600560009054906101000a900473ffffffffffffffffffffffffffffffffffffffff1673ffffffffffffffffffffffffffffffffffffffff1663d45c443560066000868152602001908152602001600020546040518263ffffffff1660e01b815260040161156e919061397a565b60206040518083038186803b15801561158657600080fd5b505afa15801561159a573d6000803e3d6000fd5b505050506040513d601f19601f820116820180604052508101906115be9190613bc3565b9050600181146115ce57806115d1565b60005b915050919050565b60006115e3611e46565b905090565b6000611645600160008481526020019081526020016000206001016040518060200160405290816000820160009054906101000a900467ffffffffffffffff1667ffffffffffffffff1667ffffffffffffffff16815250506119cc565b67ffffffffffffffff169050919050565b60008484848460405160200161166f949392919061459a565b6040516020818303038152906040528051906020012060001c9050949350505050565b6000600560009054906101000a900473ffffffffffffffffffffffffffffffffffffffff16905090565b60606040518060400160405280602081526020017f737570706f72743d627261766f2671756f72756d3d666f722c6162737461696e815250905090565b7f150214d74d59b7d1e90c73fc22ef3d991dd0a76b046543d4d80ab92d2a50328f81565b6117256108e5565b73ffffffffffffffffffffffffffffffffffffffff1661174361191b565b73ffffffffffffffffffffffffffffffffffffffff1614611799576040517f08c379a000000000000000000000000000000000000000000000000000000000815260040161179090613a9b565b60405180910390fd5b6117a281611e50565b50565b60006117b18383611ed8565b905092915050565b6117c16108e5565b73ffffffffffffffffffffffffffffffffffffffff166117df61191b565b73ffffffffffffffffffffffffffffffffffffffff1614611835576040517f08c379a000000000000000000000000000000000000000000000000000000000815260040161182c90613a9b565b60405180910390fd5b61183e81611f8d565b50565b600061184c82611fd2565b9050919050565b7f000000000000000000000000000000000000000000000000000000000000000081565b6000600560009054906101000a900473ffffffffffffffffffffffffffffffffffffffff16905090565b60007f6e665ced000000000000000000000000000000000000000000000000000000007bffffffffffffffffffffffffffffffffffffffffffffffffffffffff1916827bffffffffffffffffffffffffffffffffffffffffffffffffffffffff191614806119145750611913826120a8565b5b9050919050565b600033905090565b61192b611462565b81111561196d576040517f08c379a00000000000000000000000000000000000000000000000000000000081526004016119649061468c565b60405180910390fd5b60006007549050816007819055507f0553476bf02ef2726e8ce5ced78d63e26e602e4a2257b1f559418e24b463399781836040516119ac929190614070565b60405180910390a15050565b6119c58585858585612122565b5050505050565b600081600001519050919050565b60006119ed6119e76121c0565b836122da565b9050919050565b6000806000611a058787878761230d565b91509150611a128161241a565b8192505050949350505050565b60008060016000878152602001908152602001600020905060016007811115611a4b57611a4a613534565b5b611a5487610f37565b6007811115611a6657611a65613534565b5b14611aa6576040517f08c379a0000000000000000000000000000000000000000000000000000000008152600401611a9d9061471e565b60405180910390fd5b6000611b0486611af5846000016040518060200160405290816000820160009054906101000a900467ffffffffffffffff1667ffffffffffffffff1667ffffffffffffffff16815250506119cc565b67ffffffffffffffff166117a5565b9050611b12878787846125ef565b8573ffffffffffffffffffffffffffffffffffffffff167fb8e138887d0aa13bab447e82de9d5c1777041ecd21ca36ba824ff1e6c07ddda488878488604051611b5e949392919061473e565b60405180910390a28092505050949350505050565b600080611b7f836127f5565b905060046007811115611b9557611b94613534565b5b816007811115611ba857611ba7613534565b5b14611bb65780915050611ca5565b6000600660008581526020019081526020016000205490506000801b811415611be3578192505050611ca5565b600560009054906101000a900473ffffffffffffffffffffffffffffffffffffffff1673ffffffffffffffffffffffffffffffffffffffff16632ab0f529826040518263ffffffff1660e01b8152600401611c3e919061397a565b60206040518083038186803b158015611c5657600080fd5b505afa158015611c6a573d6000803e3d6000fd5b505050506040513d601f19601f82011682018060405250810190611c8e91906147b6565b15611c9e57600792505050611ca5565b6005925050505b919050565b6000611cb8858585856129d2565b9050949350505050565b7fc565b045403dc03c2eea82b81a0465edad9e2e7fc4d97e11421c209da93d7a9360025482604051611cf5929190614070565b60405180910390a18060028190555050565b600080826000015167ffffffffffffffff16149050919050565b600067ffffffffffffffff8016821115611d70576040517f08c379a0000000000000000000000000000000000000000000000000000000008152600401611d6790614855565b60405180910390fd5b819050919050565b808260000160006101000a81548167ffffffffffffffff021916908367ffffffffffffffff1602179055505050565b7f08f74ea46ef7894f65eabfb5e6e695de773a000b47c529ab559178069b226401600560009054906101000a900473ffffffffffffffffffffffffffffffffffffffff1682604051611dfa929190614875565b60405180910390a180600560006101000a81548173ffffffffffffffffffffffffffffffffffffffff021916908373ffffffffffffffffffffffffffffffffffffffff16021790555050565b6000600454905090565b60008111611e93576040517f08c379a0000000000000000000000000000000000000000000000000000000008152600401611e8a90614910565b60405180910390fd5b7f7e3f7f0708a84de9203036abaa450dccc85ad5ff52f78c170f3edb55cf5e882860035482604051611ec6929190614070565b60405180910390a18060038190555050565b60007f000000000000000000000000000000000000000000000000000000000000000073ffffffffffffffffffffffffffffffffffffffff16633a46b1a884846040518363ffffffff1660e01b8152600401611f35929190614930565b60206040518083038186803b158015611f4d57600080fd5b505afa158015611f61573d6000803e3d6000fd5b505050506040513d601f19601f82011682018060405250810190611f859190613bc3565b905092915050565b7fccb45da8d5717e6c4544694297c4ba5cf151d455c9bb0ed4fc7a38411bc0546160045482604051611fc0929190614070565b60405180910390a18060048190555050565b6000611fdc611462565b611fe461146b565b7f000000000000000000000000000000000000000000000000000000000000000073ffffffffffffffffffffffffffffffffffffffff16638e539e8c856040518263ffffffff1660e01b815260040161203d9190612e61565b60206040518083038186803b15801561205557600080fd5b505afa158015612069573d6000803e3d6000fd5b505050506040513d601f19601f8201168201806040525081019061208d9190613bc3565b6120979190614959565b6120a191906149e2565b9050919050565b60007fbf26d897000000000000000000000000000000000000000000000000000000007bffffffffffffffffffffffffffffffffffffffffffffffffffffffff1916827bffffffffffffffffffffffffffffffffffffffffffffffffffffffff1916148061211b575061211a82612ac4565b5b9050919050565b600560009054906101000a900473ffffffffffffffffffffffffffffffffffffffff1673ffffffffffffffffffffffffffffffffffffffff1663e38335e5348686866000876040518763ffffffff1660e01b8152600401612187959493929190613ecb565b6000604051808303818588803b1580156121a057600080fd5b505af11580156121b4573d6000803e3d6000fd5b50505050505050505050565b60007f000000000000000000000000000000000000000000000000000000000000000073ffffffffffffffffffffffffffffffffffffffff163073ffffffffffffffffffffffffffffffffffffffff1614801561223c57507f000000000000000000000000000000000000000000000000000000000000000046145b15612269577f000000000000000000000000000000000000000000000000000000000000000090506122d7565b6122d47f00000000000000000000000000000000000000000000000000000000000000007f00000000000000000000000000000000000000000000000000000000000000007f0000000000000000000000000000000000000000000000000000000000000000612b2e565b90505b90565b600082826040516020016122ef929190614a8b565b60405160208183030381529060405280519060200120905092915050565b6000807f7fffffffffffffffffffffffffffffff5d576e7357a4501ddfe92f46681b20a08360001c1115612348576000600391509150612411565b601b8560ff16141580156123605750601c8560ff1614155b15612372576000600491509150612411565b6000600187878787604051600081526020016040526040516123979493929190614ac2565b6020604051602081039080840390855afa1580156123b9573d6000803e3d6000fd5b505050602060405103519050600073ffffffffffffffffffffffffffffffffffffffff168173ffffffffffffffffffffffffffffffffffffffff16141561240857600060019250925050612411565b80600092509250505b94509492505050565b6000600481111561242e5761242d613534565b5b81600481111561244157612440613534565b5b141561244c576125ec565b600160048111156124605761245f613534565b5b81600481111561247357612472613534565b5b14156124b4576040517f08c379a00000000000000000000000000000000000000000000000000000000081526004016124ab90614b53565b60405180910390fd5b600260048111156124c8576124c7613534565b5b8160048111156124db576124da613534565b5b141561251c576040517f08c379a000000000000000000000000000000000000000000000000000000000815260040161251390614bbf565b60405180910390fd5b600360048111156125305761252f613534565b5b81600481111561254357612542613534565b5b1415612584576040517f08c379a000000000000000000000000000000000000000000000000000000000815260040161257b90614c51565b60405180910390fd5b60048081111561259757612596613534565b5b8160048111156125aa576125a9613534565b5b14156125eb576040517f08c379a00000000000000000000000000000000000000000000000000000000081526004016125e290614ce3565b60405180910390fd5b5b50565b60006008600086815260200190815260200160002090508060030160008573ffffffffffffffffffffffffffffffffffffffff1673ffffffffffffffffffffffffffffffffffffffff16815260200190815260200160002060009054906101000a900460ff1615612695576040517f08c379a000000000000000000000000000000000000000000000000000000000815260040161268c90614d75565b60405180910390fd5b60018160030160008673ffffffffffffffffffffffffffffffffffffffff1673ffffffffffffffffffffffffffffffffffffffff16815260200190815260200160002060006101000a81548160ff0219169083151502179055506000600281111561270357612702613534565b5b60ff168360ff1614156127305781816000016000828254612724919061401a565b925050819055506127ee565b6001600281111561274457612743613534565b5b60ff168360ff1614156127715781816001016000828254612765919061401a565b925050819055506127ed565b60028081111561278457612783613534565b5b60ff168360ff1614156127b157818160020160008282546127a5919061401a565b925050819055506127ec565b6040517f08c379a00000000000000000000000000000000000000000000000000000000081526004016127e390614e07565b60405180910390fd5b5b5b5050505050565b60008060016000848152602001908152602001600020604051806080016040529081600082016040518060200160405290816000820160009054906101000a900467ffffffffffffffff1667ffffffffffffffff1667ffffffffffffffff16815250508152602001600182016040518060200160405290816000820160009054906101000a900467ffffffffffffffff1667ffffffffffffffff1667ffffffffffffffff168152505081526020016002820160009054906101000a900460ff161515151581526020016002820160019054906101000a900460ff16151515158152505090508060400151156128ee5760079150506129cd565b8060600151156129025760029150506129cd565b4361291082600001516119cc565b67ffffffffffffffff16106129295760009150506129cd565b4361293782602001516119cc565b67ffffffffffffffff16106129505760019150506129cd565b61295d8160200151612b68565b156129925761296b83612b94565b801561297c575061297b83612bdb565b5b61298757600361298a565b60045b9150506129cd565b6040517f08c379a00000000000000000000000000000000000000000000000000000000081526004016129c490614e73565b60405180910390fd5b919050565b6000806129e186868686612c06565b90506000801b600660008381526020019081526020016000205414612ab857600560009054906101000a900473ffffffffffffffffffffffffffffffffffffffff1673ffffffffffffffffffffffffffffffffffffffff1663c4d252f560066000848152602001908152602001600020546040518263ffffffff1660e01b8152600401612a6e919061397a565b600060405180830381600087803b158015612a8857600080fd5b505af1158015612a9c573d6000803e3d6000fd5b5050505060066000828152602001908152602001600020600090555b80915050949350505050565b60007f01ffc9a7000000000000000000000000000000000000000000000000000000007bffffffffffffffffffffffffffffffffffffffffffffffffffffffff1916827bffffffffffffffffffffffffffffffffffffffffffffffffffffffff1916149050919050565b60008383834630604051602001612b49959493929190614e93565b6040516020818303038152906040528051906020012090509392505050565b6000612b7382612d5f565b8015612b8d575043826000015167ffffffffffffffff1611155b9050919050565b60008060086000848152602001908152602001600020905080600201548160010154612bc0919061401a565b612bd1612bcc85610e35565b611841565b1115915050919050565b6000806008600084815260200190815260200160002090508060000154816001015411915050919050565b600080612c1586868686611656565b90506000612c2282610f37565b905060026007811115612c3857612c37613534565b5b816007811115612c4b57612c4a613534565b5b14158015612c7e575060066007811115612c6857612c67613534565b5b816007811115612c7b57612c7a613534565b5b14155b8015612cae5750600780811115612c9857612c97613534565b5b816007811115612cab57612caa613534565b5b14155b612ced576040517f08c379a0000000000000000000000000000000000000000000000000000000008152600401612ce490614f32565b60405180910390fd5b600180600084815260200190815260200160002060020160016101000a81548160ff0219169083151502179055507f789cf55be980739dad1d0699b93b58e806b51c9d96619bfa8fe0a28abaa7b30c82604051612d4a9190612e61565b60405180910390a18192505050949350505050565b600080826000015167ffffffffffffffff16119050919050565b6000604051905090565b600080fd5b600080fd5b60007fffffffff0000000000000000000000000000000000000000000000000000000082169050919050565b612dc281612d8d565b8114612dcd57600080fd5b50565b600081359050612ddf81612db9565b92915050565b600060208284031215612dfb57612dfa612d83565b5b6000612e0984828501612dd0565b91505092915050565b60008115159050919050565b612e2781612e12565b82525050565b6000602082019050612e426000830184612e1e565b92915050565b6000819050919050565b612e5b81612e48565b82525050565b6000602082019050612e766000830184612e52565b92915050565b612e8581612e48565b8114612e9057600080fd5b50565b600081359050612ea281612e7c565b92915050565b600060208284031215612ebe57612ebd612d83565b5b6000612ecc84828501612e93565b91505092915050565b600081519050919050565b600082825260208201905092915050565b60005b83811015612f0f578082015181840152602081019050612ef4565b83811115612f1e576000848401525b50505050565b6000601f19601f8301169050919050565b6000612f4082612ed5565b612f4a8185612ee0565b9350612f5a818560208601612ef1565b612f6381612f24565b840191505092915050565b60006020820190508181036000830152612f888184612f35565b905092915050565b600080fd5b7f4e487b7100000000000000000000000000000000000000000000000000000000600052604160045260246000fd5b612fcd82612f24565b810181811067ffffffffffffffff82111715612fec57612feb612f95565b5b80604052505050565b6000612fff612d79565b905061300b8282612fc4565b919050565b600067ffffffffffffffff82111561302b5761302a612f95565b5b602082029050602081019050919050565b600080fd5b600073ffffffffffffffffffffffffffffffffffffffff82169050919050565b600061306c82613041565b9050919050565b61307c81613061565b811461308757600080fd5b50565b60008135905061309981613073565b92915050565b60006130b26130ad84613010565b612ff5565b905080838252602082019050602084028301858111156130d5576130d461303c565b5b835b818110156130fe57806130ea888261308a565b8452602084019350506020810190506130d7565b5050509392505050565b600082601f83011261311d5761311c612f90565b5b813561312d84826020860161309f565b91505092915050565b600067ffffffffffffffff82111561315157613150612f95565b5b602082029050602081019050919050565b600061317561317084613136565b612ff5565b905080838252602082019050602084028301858111156131985761319761303c565b5b835b818110156131c157806131ad8882612e93565b84526020840193505060208101905061319a565b5050509392505050565b600082601f8301126131e0576131df612f90565b5b81356131f0848260208601613162565b91505092915050565b600067ffffffffffffffff82111561321457613213612f95565b5b602082029050602081019050919050565b600080fd5b600067ffffffffffffffff82111561324557613244612f95565b5b61324e82612f24565b9050602081019050919050565b82818337600083830152505050565b600061327d6132788461322a565b612ff5565b90508281526020810184848401111561329957613298613225565b5b6132a484828561325b565b509392505050565b600082601f8301126132c1576132c0612f90565b5b81356132d184826020860161326a565b91505092915050565b60006132ed6132e8846131f9565b612ff5565b905080838252602082019050602084028301858111156133105761330f61303c565b5b835b8181101561335757803567ffffffffffffffff81111561333557613334612f90565b5b80860161334289826132ac565b85526020850194505050602081019050613312565b5050509392505050565b600082601f83011261337657613375612f90565b5b81356133868482602086016132da565b91505092915050565b6000819050919050565b6133a28161338f565b81146133ad57600080fd5b50565b6000813590506133bf81613399565b92915050565b600080600080608085870312156133df576133de612d83565b5b600085013567ffffffffffffffff8111156133fd576133fc612d88565b5b61340987828801613108565b945050602085013567ffffffffffffffff81111561342a57613429612d88565b5b613436878288016131cb565b935050604085013567ffffffffffffffff81111561345757613456612d88565b5b61346387828801613361565b9250506060613474878288016133b0565b91505092959194509250565b600060ff82169050919050565b61349681613480565b81146134a157600080fd5b50565b6000813590506134b38161348d565b92915050565b600080600080600060a086880312156134d5576134d4612d83565b5b60006134e388828901612e93565b95505060206134f4888289016134a4565b9450506040613505888289016134a4565b9350506060613516888289016133b0565b9250506080613527888289016133b0565b9150509295509295909350565b7f4e487b7100000000000000000000000000000000000000000000000000000000600052602160045260246000fd5b6008811061357457613573613534565b5b50565b600081905061358582613563565b919050565b600061359582613577565b9050919050565b6135a58161358a565b82525050565b60006020820190506135c0600083018461359c565b92915050565b600080604083850312156135dd576135dc612d83565b5b60006135eb85828601612e93565b92505060206135fc8582860161308a565b9150509250929050565b600060608201905061361b6000830186612e52565b6136286020830185612e52565b6136356040830184612e52565b949350505050565b6000806040838503121561365457613653612d83565b5b600061366285828601612e93565b9250506020613673858286016134a4565b9150509250929050565b600080fd5b60008083601f84011261369857613697612f90565b5b8235905067ffffffffffffffff8111156136b5576136b461367d565b5b6020830191508360018202830111156136d1576136d061303c565b5b9250929050565b600080600080606085870312156136f2576136f1612d83565b5b600061370087828801612e93565b9450506020613711878288016134a4565b935050604085013567ffffffffffffffff81111561373257613731612d88565b5b61373e87828801613682565b925092505092959194509250565b600067ffffffffffffffff82111561376757613766612f95565b5b61377082612f24565b9050602081019050919050565b600061379061378b8461374c565b612ff5565b9050828152602081018484840111156137ac576137ab613225565b5b6137b784828561325b565b509392505050565b600082601f8301126137d4576137d3612f90565b5b81356137e484826020860161377d565b91505092915050565b6000806000806080858703121561380757613806612d83565b5b600085013567ffffffffffffffff81111561382557613824612d88565b5b61383187828801613108565b945050602085013567ffffffffffffffff81111561385257613851612d88565b5b61385e878288016131cb565b935050604085013567ffffffffffffffff81111561387f5761387e612d88565b5b61388b87828801613361565b925050606085013567ffffffffffffffff8111156138ac576138ab612d88565b5b6138b8878288016137bf565b91505092959194509250565b60006138cf82613041565b9050919050565b60006138e1826138c4565b9050919050565b6138f1816138d6565b81146138fc57600080fd5b50565b60008135905061390e816138e8565b92915050565b60006020828403121561392a57613929612d83565b5b6000613938848285016138ff565b91505092915050565b61394a81613061565b82525050565b60006020820190506139656000830184613941565b92915050565b6139748161338f565b82525050565b600060208201905061398f600083018461396b565b92915050565b600080604083850312156139ac576139ab612d83565b5b60006139ba8582860161308a565b92505060206139cb85828601612e93565b9150509250929050565b6000819050919050565b60006139fa6139f56139f084613041565b6139d5565b613041565b9050919050565b6000613a0c826139df565b9050919050565b6000613a1e82613a01565b9050919050565b613a2e81613a13565b82525050565b6000602082019050613a496000830184613a25565b92915050565b7f476f7665726e6f723a206f6e6c79476f7665726e616e63650000000000000000600082015250565b6000613a85601883612ee0565b9150613a9082613a4f565b602082019050919050565b60006020820190508181036000830152613ab481613a78565b9050919050565b7f4e487b7100000000000000000000000000000000000000000000000000000000600052602260045260246000fd5b60006002820490506001821680613b0257607f821691505b60208210811415613b1657613b15613abb565b5b50919050565b7f476f7665726e6f723a2070726f706f73616c206e6f742073756363657373667560008201527f6c00000000000000000000000000000000000000000000000000000000000000602082015250565b6000613b78602183612ee0565b9150613b8382613b1c565b604082019050919050565b60006020820190508181036000830152613ba781613b6b565b9050919050565b600081519050613bbd81612e7c565b92915050565b600060208284031215613bd957613bd8612d83565b5b6000613be784828501613bae565b91505092915050565b600081519050919050565b600082825260208201905092915050565b6000819050602082019050919050565b613c2581613061565b82525050565b6000613c378383613c1c565b60208301905092915050565b6000602082019050919050565b6000613c5b82613bf0565b613c658185613bfb565b9350613c7083613c0c565b8060005b83811015613ca1578151613c888882613c2b565b9750613c9383613c43565b925050600181019050613c74565b5085935050505092915050565b600081519050919050565b600082825260208201905092915050565b6000819050602082019050919050565b613ce381612e48565b82525050565b6000613cf58383613cda565b60208301905092915050565b6000602082019050919050565b6000613d1982613cae565b613d238185613cb9565b9350613d2e83613cca565b8060005b83811015613d5f578151613d468882613ce9565b9750613d5183613d01565b925050600181019050613d32565b5085935050505092915050565b600081519050919050565b600082825260208201905092915050565b6000819050602082019050919050565b600081519050919050565b600082825260208201905092915050565b6000613dbf82613d98565b613dc98185613da3565b9350613dd9818560208601612ef1565b613de281612f24565b840191505092915050565b6000613df98383613db4565b905092915050565b6000602082019050919050565b6000613e1982613d6c565b613e238185613d77565b935083602082028501613e3585613d88565b8060005b85811015613e715784840389528151613e528582613ded565b9450613e5d83613e01565b925060208a01995050600181019050613e39565b50829750879550505050505092915050565b6000819050919050565b60008160001b9050919050565b6000613eb5613eb0613eab84613e83565b613e8d565b61338f565b9050919050565b613ec581613e9a565b82525050565b600060a0820190508181036000830152613ee58188613c50565b90508181036020830152613ef98187613d0e565b90508181036040830152613f0d8186613e0e565b9050613f1c6060830185613ebc565b613f29608083018461396b565b9695505050505050565b600081519050613f4281613399565b92915050565b600060208284031215613f5e57613f5d612d83565b5b6000613f6c84828501613f33565b91505092915050565b600060c0820190508181036000830152613f8f8189613c50565b90508181036020830152613fa38188613d0e565b90508181036040830152613fb78187613e0e565b9050613fc66060830186613ebc565b613fd3608083018561396b565b613fe060a0830184612e52565b979650505050505050565b7f4e487b7100000000000000000000000000000000000000000000000000000000600052601160045260246000fd5b600061402582612e48565b915061403083612e48565b9250827fffffffffffffffffffffffffffffffffffffffffffffffffffffffffffffffff0382111561406557614064613feb565b5b828201905092915050565b60006040820190506140856000830185612e52565b6140926020830184612e52565b9392505050565b6140a281613480565b82525050565b60006060820190506140bd600083018661396b565b6140ca6020830185612e52565b6140d76040830184614099565b949350505050565b60006140ea82612e48565b91506140f583612e48565b92508282101561410857614107613feb565b5b828203905092915050565b7f476f7665726e6f72436f6d7061746962696c697479427261766f3a2070726f7060008201527f6f73657220766f7465732062656c6f772070726f706f73616c2074687265736860208201527f6f6c640000000000000000000000000000000000000000000000000000000000604082015250565b6000614195604383612ee0565b91506141a082614113565b606082019050919050565b600060208201905081810360008301526141c481614188565b9050919050565b7f476f7665726e6f723a20696e76616c69642070726f706f73616c206c656e677460008201527f6800000000000000000000000000000000000000000000000000000000000000602082015250565b6000614227602183612ee0565b9150614232826141cb565b604082019050919050565b600060208201905081810360008301526142568161421a565b9050919050565b7f476f7665726e6f723a20656d7074792070726f706f73616c0000000000000000600082015250565b6000614293601883612ee0565b915061429e8261425d565b602082019050919050565b600060208201905081810360008301526142c281614286565b9050919050565b7f476f7665726e6f723a2070726f706f73616c20616c726561647920657869737460008201527f7300000000000000000000000000000000000000000000000000000000000000602082015250565b6000614325602183612ee0565b9150614330826142c9565b604082019050919050565b6000602082019050818103600083015261435481614318565b9050919050565b600067ffffffffffffffff82169050919050565b600061437a8261435b565b91506143858361435b565b92508267ffffffffffffffff038211156143a2576143a1613feb565b5b828201905092915050565b600081519050919050565b600082825260208201905092915050565b6000819050602082019050919050565b600082825260208201905092915050565b60006143f582612ed5565b6143ff81856143d9565b935061440f818560208601612ef1565b61441881612f24565b840191505092915050565b600061442f83836143ea565b905092915050565b6000602082019050919050565b600061444f826143ad565b61445981856143b8565b93508360208202850161446b856143c9565b8060005b858110156144a757848403895281516144888582614423565b945061449383614437565b925060208a0199505060018101905061446f565b50829750879550505050505092915050565b60006144d46144cf6144ca8461435b565b6139d5565b612e48565b9050919050565b6144e4816144b9565b82525050565b600061012082019050614500600083018c612e52565b61450d602083018b613941565b818103604083015261451f818a613c50565b905081810360608301526145338189613d0e565b905081810360808301526145478188614444565b905081810360a083015261455b8187613e0e565b905061456a60c08301866144db565b61457760e08301856144db565b81810361010083015261458a8184612f35565b90509a9950505050505050505050565b600060808201905081810360008301526145b48187613c50565b905081810360208301526145c88186613d0e565b905081810360408301526145dc8185613e0e565b90506145eb606083018461396b565b95945050505050565b7f476f7665726e6f72566f74657351756f72756d4672616374696f6e3a2071756f60008201527f72756d4e756d657261746f72206f7665722071756f72756d44656e6f6d696e6160208201527f746f720000000000000000000000000000000000000000000000000000000000604082015250565b6000614676604383612ee0565b9150614681826145f4565b606082019050919050565b600060208201905081810360008301526146a581614669565b9050919050565b7f476f7665726e6f723a20766f7465206e6f742063757272656e746c792061637460008201527f6976650000000000000000000000000000000000000000000000000000000000602082015250565b6000614708602383612ee0565b9150614713826146ac565b604082019050919050565b60006020820190508181036000830152614737816146fb565b9050919050565b60006080820190506147536000830187612e52565b6147606020830186614099565b61476d6040830185612e52565b818103606083015261477f8184612f35565b905095945050505050565b61479381612e12565b811461479e57600080fd5b50565b6000815190506147b08161478a565b92915050565b6000602082840312156147cc576147cb612d83565b5b60006147da848285016147a1565b91505092915050565b7f53616665436173743a2076616c756520646f65736e27742066697420696e203660008201527f3420626974730000000000000000000000000000000000000000000000000000602082015250565b600061483f602683612ee0565b915061484a826147e3565b604082019050919050565b6000602082019050818103600083015261486e81614832565b9050919050565b600060408201905061488a6000830185613941565b6148976020830184613941565b9392505050565b7f476f7665726e6f7253657474696e67733a20766f74696e6720706572696f642060008201527f746f6f206c6f7700000000000000000000000000000000000000000000000000602082015250565b60006148fa602783612ee0565b91506149058261489e565b604082019050919050565b60006020820190508181036000830152614929816148ed565b9050919050565b60006040820190506149456000830185613941565b6149526020830184612e52565b9392505050565b600061496482612e48565b915061496f83612e48565b9250817fffffffffffffffffffffffffffffffffffffffffffffffffffffffffffffffff04831182151516156149a8576149a7613feb565b5b828202905092915050565b7f4e487b7100000000000000000000000000000000000000000000000000000000600052601260045260246000fd5b60006149ed82612e48565b91506149f883612e48565b925082614a0857614a076149b3565b5b828204905092915050565b600081905092915050565b7f1901000000000000000000000000000000000000000000000000000000000000600082015250565b6000614a54600283614a13565b9150614a5f82614a1e565b600282019050919050565b6000819050919050565b614a85614a808261338f565b614a6a565b82525050565b6000614a9682614a47565b9150614aa28285614a74565b602082019150614ab28284614a74565b6020820191508190509392505050565b6000608082019050614ad7600083018761396b565b614ae46020830186614099565b614af1604083018561396b565b614afe606083018461396b565b95945050505050565b7f45434453413a20696e76616c6964207369676e61747572650000000000000000600082015250565b6000614b3d601883612ee0565b9150614b4882614b07565b602082019050919050565b60006020820190508181036000830152614b6c81614b30565b9050919050565b7f45434453413a20696e76616c6964207369676e6174757265206c656e67746800600082015250565b6000614ba9601f83612ee0565b9150614bb482614b73565b602082019050919050565b60006020820190508181036000830152614bd881614b9c565b9050919050565b7f45434453413a20696e76616c6964207369676e6174757265202773272076616c60008201527f7565000000000000000000000000000000000000000000000000000000000000602082015250565b6000614c3b602283612ee0565b9150614c4682614bdf565b604082019050919050565b60006020820190508181036000830152614c6a81614c2e565b9050919050565b7f45434453413a20696e76616c6964207369676e6174757265202776272076616c60008201527f7565000000000000000000000000000000000000000000000000000000000000602082015250565b6000614ccd602283612ee0565b9150614cd882614c71565b604082019050919050565b60006020820190508181036000830152614cfc81614cc0565b9050919050565b7f476f7665726e6f72566f74696e6753696d706c653a20766f746520616c72656160008201527f6479206361737400000000000000000000000000000000000000000000000000602082015250565b6000614d5f602783612ee0565b9150614d6a82614d03565b604082019050919050565b60006020820190508181036000830152614d8e81614d52565b9050919050565b7f476f7665726e6f72566f74696e6753696d706c653a20696e76616c696420766160008201527f6c756520666f7220656e756d20566f7465547970650000000000000000000000602082015250565b6000614df1603583612ee0565b9150614dfc82614d95565b604082019050919050565b60006020820190508181036000830152614e2081614de4565b9050919050565b7f476f7665726e6f723a20756e6b6e6f776e2070726f706f73616c206964000000600082015250565b6000614e5d601d83612ee0565b9150614e6882614e27565b602082019050919050565b60006020820190508181036000830152614e8c81614e50565b9050919050565b600060a082019050614ea8600083018861396b565b614eb5602083018761396b565b614ec2604083018661396b565b614ecf6060830185612e52565b614edc6080830184613941565b9695505050505050565b7f476f7665726e6f723a2070726f706f73616c206e6f7420616374697665000000600082015250565b6000614f1c601d83612ee0565b9150614f2782614ee6565b602082019050919050565b60006020820190508181036000830152614f4b81614f0f565b905091905056fea2646970667358221220bd548b7151b4edba53dd7f25174867b55dda5e6edee6159d9d24024dfb84a32664736f6c63430008090033",
  "linkReferences": {},
  "deployedLinkReferences": {}
}