{
  "_format": "hh-sol-artifact-1",
  "contractName": "Zion",
  "sourceName": "contracts/token presets/ERC20/Zion.sol",
  "abi": [
    {
      "inputs": [],
      "stateMutability": "nonpayable",
      "type": "constructor"
    },
    {
      "anonymous": false,
      "inputs": [
        {
          "indexed": true,
          "internalType": "address",
          "name": "owner",
          "type": "address"
        },
        {
          "indexed": true,
          "internalType": "address",
          "name": "spender",
          "type": "address"
        },
        {
          "indexed": false,
          "internalType": "uint256",
          "name": "value",
          "type": "uint256"
        }
      ],
      "name": "Approval",
      "type": "event"
    },
    {
      "anonymous": false,
      "inputs": [
        {
          "indexed": true,
          "internalType": "address",
          "name": "previousOwner",
          "type": "address"
        },
        {
          "indexed": true,
          "internalType": "address",
          "name": "newOwner",
          "type": "address"
        }
      ],
      "name": "OwnershipTransferred",
      "type": "event"
    },
    {
      "anonymous": false,
      "inputs": [
        {
          "indexed": false,
          "internalType": "address",
          "name": "account",
          "type": "address"
        }
      ],
      "name": "Paused",
      "type": "event"
    },
    {
      "anonymous": false,
      "inputs": [
        {
          "indexed": false,
          "internalType": "uint256",
          "name": "id",
          "type": "uint256"
        }
      ],
      "name": "Snapshot",
      "type": "event"
    },
    {
      "anonymous": false,
      "inputs": [
        {
          "indexed": true,
          "internalType": "address",
          "name": "from",
          "type": "address"
        },
        {
          "indexed": true,
          "internalType": "address",
          "name": "to",
          "type": "address"
        },
        {
          "indexed": false,
          "internalType": "uint256",
          "name": "value",
          "type": "uint256"
        }
      ],
      "name": "Transfer",
      "type": "event"
    },
    {
      "anonymous": false,
      "inputs": [
        {
          "indexed": false,
          "internalType": "address",
          "name": "account",
          "type": "address"
        }
      ],
      "name": "Unpaused",
      "type": "event"
    },
    {
      "stateMutability": "nonpayable",
      "type": "fallback"
    },
    {
      "inputs": [
        {
          "internalType": "address",
          "name": "owner",
          "type": "address"
        },
        {
          "internalType": "address",
          "name": "spender",
          "type": "address"
        }
      ],
      "name": "allowance",
      "outputs": [
        {
          "internalType": "uint256",
          "name": "",
          "type": "uint256"
        }
      ],
      "stateMutability": "view",
      "type": "function"
    },
    {
      "inputs": [
        {
          "internalType": "address",
          "name": "spender",
          "type": "address"
        },
        {
          "internalType": "uint256",
          "name": "amount",
          "type": "uint256"
        }
      ],
      "name": "approve",
      "outputs": [
        {
          "internalType": "bool",
          "name": "",
          "type": "bool"
        }
      ],
      "stateMutability": "nonpayable",
      "type": "function"
    },
    {
      "inputs": [
        {
          "internalType": "address",
          "name": "account",
          "type": "address"
        }
      ],
      "name": "balanceOf",
      "outputs": [
        {
          "internalType": "uint256",
          "name": "",
          "type": "uint256"
        }
      ],
      "stateMutability": "view",
      "type": "function"
    },
    {
      "inputs": [
        {
          "internalType": "address",
          "name": "account",
          "type": "address"
        },
        {
          "internalType": "uint256",
          "name": "snapshotId",
          "type": "uint256"
        }
      ],
      "name": "balanceOfAt",
      "outputs": [
        {
          "internalType": "uint256",
          "name": "",
          "type": "uint256"
        }
      ],
      "stateMutability": "view",
      "type": "function"
    },
    {
      "inputs": [],
      "name": "decimals",
      "outputs": [
        {
          "internalType": "uint8",
          "name": "",
          "type": "uint8"
        }
      ],
      "stateMutability": "view",
      "type": "function"
    },
    {
      "inputs": [
        {
          "internalType": "address",
          "name": "spender",
          "type": "address"
        },
        {
          "internalType": "uint256",
          "name": "subtractedValue",
          "type": "uint256"
        }
      ],
      "name": "decreaseAllowance",
      "outputs": [
        {
          "internalType": "bool",
          "name": "",
          "type": "bool"
        }
      ],
      "stateMutability": "nonpayable",
      "type": "function"
    },
    {
      "inputs": [],
      "name": "getCurrentSnapshotId",
      "outputs": [
        {
          "internalType": "uint256",
          "name": "",
          "type": "uint256"
        }
      ],
      "stateMutability": "view",
      "type": "function"
    },
    {
      "inputs": [
        {
          "internalType": "address",
          "name": "spender",
          "type": "address"
        },
        {
          "internalType": "uint256",
          "name": "addedValue",
          "type": "uint256"
        }
      ],
      "name": "increaseAllowance",
      "outputs": [
        {
          "internalType": "bool",
          "name": "",
          "type": "bool"
        }
      ],
      "stateMutability": "nonpayable",
      "type": "function"
    },
    {
      "inputs": [
        {
          "internalType": "address",
          "name": "to",
          "type": "address"
        },
        {
          "internalType": "uint256",
          "name": "amount",
          "type": "uint256"
        }
      ],
      "name": "mint",
      "outputs": [],
      "stateMutability": "nonpayable",
      "type": "function"
    },
    {
      "inputs": [],
      "name": "name",
      "outputs": [
        {
          "internalType": "string",
          "name": "",
          "type": "string"
        }
      ],
      "stateMutability": "view",
      "type": "function"
    },
    {
      "inputs": [],
      "name": "owner",
      "outputs": [
        {
          "internalType": "address",
          "name": "",
          "type": "address"
        }
      ],
      "stateMutability": "view",
      "type": "function"
    },
    {
      "inputs": [],
      "name": "pause",
      "outputs": [],
      "stateMutability": "nonpayable",
      "type": "function"
    },
    {
      "inputs": [],
      "name": "paused",
      "outputs": [
        {
          "internalType": "bool",
          "name": "",
          "type": "bool"
        }
      ],
      "stateMutability": "view",
      "type": "function"
    },
    {
      "inputs": [],
      "name": "renounceOwnership",
      "outputs": [],
      "stateMutability": "nonpayable",
      "type": "function"
    },
    {
      "inputs": [],
      "name": "snapshot",
      "outputs": [],
      "stateMutability": "nonpayable",
      "type": "function"
    },
    {
      "inputs": [],
      "name": "symbol",
      "outputs": [
        {
          "internalType": "string",
          "name": "",
          "type": "string"
        }
      ],
      "stateMutability": "view",
      "type": "function"
    },
    {
      "inputs": [],
      "name": "totalSupply",
      "outputs": [
        {
          "internalType": "uint256",
          "name": "",
          "type": "uint256"
        }
      ],
      "stateMutability": "view",
      "type": "function"
    },
    {
      "inputs": [
        {
          "internalType": "uint256",
          "name": "snapshotId",
          "type": "uint256"
        }
      ],
      "name": "totalSupplyAt",
      "outputs": [
        {
          "internalType": "uint256",
          "name": "",
          "type": "uint256"
        }
      ],
      "stateMutability": "view",
      "type": "function"
    },
    {
      "inputs": [
        {
          "internalType": "address",
          "name": "recipient",
          "type": "address"
        },
        {
          "internalType": "uint256",
          "name": "amount",
          "type": "uint256"
        }
      ],
      "name": "transfer",
      "outputs": [
        {
          "internalType": "bool",
          "name": "",
          "type": "bool"
        }
      ],
      "stateMutability": "nonpayable",
      "type": "function"
    },
    {
      "inputs": [
        {
          "internalType": "address",
          "name": "sender",
          "type": "address"
        },
        {
          "internalType": "address",
          "name": "recipient",
          "type": "address"
        },
        {
          "internalType": "uint256",
          "name": "amount",
          "type": "uint256"
        }
      ],
      "name": "transferFrom",
      "outputs": [
        {
          "internalType": "bool",
          "name": "",
          "type": "bool"
        }
      ],
      "stateMutability": "nonpayable",
      "type": "function"
    },
    {
      "inputs": [
        {
          "internalType": "address",
          "name": "newOwner",
          "type": "address"
        }
      ],
      "name": "transferOwnership",
      "outputs": [],
      "stateMutability": "nonpayable",
      "type": "function"
    },
    {
      "inputs": [],
      "name": "unpause",
      "outputs": [],
      "stateMutability": "nonpayable",
      "type": "function"
    }
  ],
  "bytecode": "0x60806040523480156200001157600080fd5b506040518060400160405280601881526020017f5a494f4e202d20506f77657220746f2043726561746f727300000000000000008152506040518060400160405280600481526020017f5a494f4e00000000000000000000000000000000000000000000000000000000815250816003908051906020019062000096929190620001c1565b508060049080519060200190620000af929190620001c1565b505050620000d2620000c6620000f360201b60201c565b620000fb60201b60201c565b6000600560146101000a81548160ff021916908315150217905550620002d6565b600033905090565b6000600560009054906101000a900473ffffffffffffffffffffffffffffffffffffffff16905081600560006101000a81548173ffffffffffffffffffffffffffffffffffffffff021916908373ffffffffffffffffffffffffffffffffffffffff1602179055508173ffffffffffffffffffffffffffffffffffffffff168173ffffffffffffffffffffffffffffffffffffffff167f8be0079c531659141344cd1fd0a4f28419497f9722a3daafe3b4186f6b6457e060405160405180910390a35050565b828054620001cf90620002a0565b90600052602060002090601f016020900481019282620001f357600085556200023f565b82601f106200020e57805160ff19168380011785556200023f565b828001600101855582156200023f579182015b828111156200023e57825182559160200191906001019062000221565b5b5090506200024e919062000252565b5090565b5b808211156200026d57600081600090555060010162000253565b5090565b7f4e487b7100000000000000000000000000000000000000000000000000000000600052602260045260246000fd5b60006002820490506001821680620002b957607f821691505b60208210811415620002d057620002cf62000271565b5b50919050565b61271e80620002e66000396000f3fe608060405234801561001057600080fd5b50600436106101465760003560e01c806370a08231116100b85780639711715a1161007c5780639711715a1461037e578063981b24d014610388578063a457c2d7146103b8578063a9059cbb146103e8578063dd62ed3e14610418578063f2fde38b1461044857610147565b806370a08231146102fe578063715018a61461032e5780638456cb59146103385780638da5cb5b1461034257806395d89b411461036057610147565b8063395093511161010a578063395093511461023c5780633f4ba83a1461026c57806340c10f19146102765780634ee2cd7e146102925780635439ad86146102c25780635c975abb146102e057610147565b806306fdde0314610182578063095ea7b3146101a057806318160ddd146101d057806323b872dd146101ee578063313ce5671461021e57610147565b5b6040517f08c379a000000000000000000000000000000000000000000000000000000000815260040161017990611ad6565b60405180910390fd5b61018a610464565b6040516101979190611b7e565b60405180910390f35b6101ba60048036038101906101b59190611c39565b6104f6565b6040516101c79190611c94565b60405180910390f35b6101d8610514565b6040516101e59190611cbe565b60405180910390f35b61020860048036038101906102039190611cd9565b61051e565b6040516102159190611c94565b60405180910390f35b610226610616565b6040516102339190611d48565b60405180910390f35b61025660048036038101906102519190611c39565b61061f565b6040516102639190611c94565b60405180910390f35b6102746106cb565b005b610290600480360381019061028b9190611c39565b610751565b005b6102ac60048036038101906102a79190611c39565b6107db565b6040516102b99190611cbe565b60405180910390f35b6102ca61084b565b6040516102d79190611cbe565b60405180910390f35b6102e861085f565b6040516102f59190611c94565b60405180910390f35b61031860048036038101906103139190611d63565b610876565b6040516103259190611cbe565b60405180910390f35b6103366108be565b005b610340610946565b005b61034a6109cc565b6040516103579190611d9f565b60405180910390f35b6103686109f6565b6040516103759190611b7e565b60405180910390f35b610386610a88565b005b6103a2600480360381019061039d9190611dba565b610b0f565b6040516103af9190611cbe565b60405180910390f35b6103d260048036038101906103cd9190611c39565b610b40565b6040516103df9190611c94565b60405180910390f35b61040260048036038101906103fd9190611c39565b610c2b565b60405161040f9190611c94565b60405180910390f35b610432600480360381019061042d9190611de7565b610c49565b60405161043f9190611cbe565b60405180910390f35b610462600480360381019061045d9190611d63565b610cd0565b005b60606003805461047390611e56565b80601f016020809104026020016040519081016040528092919081815260200182805461049f90611e56565b80156104ec5780601f106104c1576101008083540402835291602001916104ec565b820191906000526020600020905b8154815290600101906020018083116104cf57829003601f168201915b5050505050905090565b600061050a610503610dc8565b8484610dd0565b6001905092915050565b6000600254905090565b600061052b848484610f9b565b6000600160008673ffffffffffffffffffffffffffffffffffffffff1673ffffffffffffffffffffffffffffffffffffffff1681526020019081526020016000206000610576610dc8565b73ffffffffffffffffffffffffffffffffffffffff1673ffffffffffffffffffffffffffffffffffffffff168152602001908152602001600020549050828110156105f6576040517f08c379a00000000000000000000000000000000000000000000000000000000081526004016105ed90611efa565b60405180910390fd5b61060a85610602610dc8565b858403610dd0565b60019150509392505050565b60006012905090565b60006106c161062c610dc8565b84846001600061063a610dc8565b73ffffffffffffffffffffffffffffffffffffffff1673ffffffffffffffffffffffffffffffffffffffff16815260200190815260200160002060008873ffffffffffffffffffffffffffffffffffffffff1673ffffffffffffffffffffffffffffffffffffffff168152602001908152602001600020546106bc9190611f49565b610dd0565b6001905092915050565b6106d3610dc8565b73ffffffffffffffffffffffffffffffffffffffff166106f16109cc565b73ffffffffffffffffffffffffffffffffffffffff1614610747576040517f08c379a000000000000000000000000000000000000000000000000000000000815260040161073e90611feb565b60405180910390fd5b61074f61121c565b565b610759610dc8565b73ffffffffffffffffffffffffffffffffffffffff166107776109cc565b73ffffffffffffffffffffffffffffffffffffffff16146107cd576040517f08c379a00000000000000000000000000000000000000000000000000000000081526004016107c490611feb565b60405180910390fd5b6107d782826112be565b5050565b600080600061082884600660008873ffffffffffffffffffffffffffffffffffffffff1673ffffffffffffffffffffffffffffffffffffffff16815260200190815260200160002061141e565b915091508161083f5761083a85610876565b610841565b805b9250505092915050565b600080610856611514565b90508091505090565b6000600560149054906101000a900460ff16905090565b60008060008373ffffffffffffffffffffffffffffffffffffffff1673ffffffffffffffffffffffffffffffffffffffff168152602001908152602001600020549050919050565b6108c6610dc8565b73ffffffffffffffffffffffffffffffffffffffff166108e46109cc565b73ffffffffffffffffffffffffffffffffffffffff161461093a576040517f08c379a000000000000000000000000000000000000000000000000000000000815260040161093190611feb565b60405180910390fd5b6109446000611525565b565b61094e610dc8565b73ffffffffffffffffffffffffffffffffffffffff1661096c6109cc565b73ffffffffffffffffffffffffffffffffffffffff16146109c2576040517f08c379a00000000000000000000000000000000000000000000000000000000081526004016109b990611feb565b60405180910390fd5b6109ca6115eb565b565b6000600560009054906101000a900473ffffffffffffffffffffffffffffffffffffffff16905090565b606060048054610a0590611e56565b80601f0160208091040260200160405190810160405280929190818152602001828054610a3190611e56565b8015610a7e5780601f10610a5357610100808354040283529160200191610a7e565b820191906000526020600020905b815481529060010190602001808311610a6157829003601f168201915b5050505050905090565b610a90610dc8565b73ffffffffffffffffffffffffffffffffffffffff16610aae6109cc565b73ffffffffffffffffffffffffffffffffffffffff1614610b04576040517f08c379a0000000000000000000000000000000000000000000000000000000008152600401610afb90611feb565b60405180910390fd5b610b0c61168e565b50565b6000806000610b1f84600761141e565b9150915081610b3557610b30610514565b610b37565b805b92505050919050565b60008060016000610b4f610dc8565b73ffffffffffffffffffffffffffffffffffffffff1673ffffffffffffffffffffffffffffffffffffffff16815260200190815260200160002060008573ffffffffffffffffffffffffffffffffffffffff1673ffffffffffffffffffffffffffffffffffffffff16815260200190815260200160002054905082811015610c0c576040517f08c379a0000000000000000000000000000000000000000000000000000000008152600401610c039061207d565b60405180910390fd5b610c20610c17610dc8565b85858403610dd0565b600191505092915050565b6000610c3f610c38610dc8565b8484610f9b565b6001905092915050565b6000600160008473ffffffffffffffffffffffffffffffffffffffff1673ffffffffffffffffffffffffffffffffffffffff16815260200190815260200160002060008373ffffffffffffffffffffffffffffffffffffffff1673ffffffffffffffffffffffffffffffffffffffff16815260200190815260200160002054905092915050565b610cd8610dc8565b73ffffffffffffffffffffffffffffffffffffffff16610cf66109cc565b73ffffffffffffffffffffffffffffffffffffffff1614610d4c576040517f08c379a0000000000000000000000000000000000000000000000000000000008152600401610d4390611feb565b60405180910390fd5b600073ffffffffffffffffffffffffffffffffffffffff168173ffffffffffffffffffffffffffffffffffffffff161415610dbc576040517f08c379a0000000000000000000000000000000000000000000000000000000008152600401610db39061210f565b60405180910390fd5b610dc581611525565b50565b600033905090565b600073ffffffffffffffffffffffffffffffffffffffff168373ffffffffffffffffffffffffffffffffffffffff161415610e40576040517f08c379a0000000000000000000000000000000000000000000000000000000008152600401610e37906121a1565b60405180910390fd5b600073ffffffffffffffffffffffffffffffffffffffff168273ffffffffffffffffffffffffffffffffffffffff161415610eb0576040517f08c379a0000000000000000000000000000000000000000000000000000000008152600401610ea790612233565b60405180910390fd5b80600160008573ffffffffffffffffffffffffffffffffffffffff1673ffffffffffffffffffffffffffffffffffffffff16815260200190815260200160002060008473ffffffffffffffffffffffffffffffffffffffff1673ffffffffffffffffffffffffffffffffffffffff168152602001908152602001600020819055508173ffffffffffffffffffffffffffffffffffffffff168373ffffffffffffffffffffffffffffffffffffffff167f8c5be1e5ebec7d5bd14f71427d1e84f3dd0314c0f7b2291e5b200ac8c7c3b92583604051610f8e9190611cbe565b60405180910390a3505050565b600073ffffffffffffffffffffffffffffffffffffffff168373ffffffffffffffffffffffffffffffffffffffff16141561100b576040517f08c379a0000000000000000000000000000000000000000000000000000000008152600401611002906122c5565b60405180910390fd5b600073ffffffffffffffffffffffffffffffffffffffff168273ffffffffffffffffffffffffffffffffffffffff16141561107b576040517f08c379a000000000000000000000000000000000000000000000000000000000815260040161107290612357565b60405180910390fd5b6110868383836116e4565b60008060008573ffffffffffffffffffffffffffffffffffffffff1673ffffffffffffffffffffffffffffffffffffffff1681526020019081526020016000205490508181101561110c576040517f08c379a0000000000000000000000000000000000000000000000000000000008152600401611103906123e9565b60405180910390fd5b8181036000808673ffffffffffffffffffffffffffffffffffffffff1673ffffffffffffffffffffffffffffffffffffffff16815260200190815260200160002081905550816000808573ffffffffffffffffffffffffffffffffffffffff1673ffffffffffffffffffffffffffffffffffffffff168152602001908152602001600020600082825461119f9190611f49565b925050819055508273ffffffffffffffffffffffffffffffffffffffff168473ffffffffffffffffffffffffffffffffffffffff167fddf252ad1be2c89b69c2b068fc378daa952ba7f163c4a11628f55a4df523b3ef846040516112039190611cbe565b60405180910390a361121684848461173c565b50505050565b61122461085f565b611263576040517f08c379a000000000000000000000000000000000000000000000000000000000815260040161125a90612455565b60405180910390fd5b6000600560146101000a81548160ff0219169083151502179055507f5db9ee0a495bf2e6ff9c91a7834c1ba4fdd244a5e8aa4e537bd38aeae4b073aa6112a7610dc8565b6040516112b49190611d9f565b60405180910390a1565b600073ffffffffffffffffffffffffffffffffffffffff168273ffffffffffffffffffffffffffffffffffffffff16141561132e576040517f08c379a0000000000000000000000000000000000000000000000000000000008152600401611325906124c1565b60405180910390fd5b61133a600083836116e4565b806002600082825461134c9190611f49565b92505081905550806000808473ffffffffffffffffffffffffffffffffffffffff1673ffffffffffffffffffffffffffffffffffffffff16815260200190815260200160002060008282546113a19190611f49565b925050819055508173ffffffffffffffffffffffffffffffffffffffff16600073ffffffffffffffffffffffffffffffffffffffff167fddf252ad1be2c89b69c2b068fc378daa952ba7f163c4a11628f55a4df523b3ef836040516114069190611cbe565b60405180910390a361141a6000838361173c565b5050565b60008060008411611464576040517f08c379a000000000000000000000000000000000000000000000000000000000815260040161145b9061252d565b60405180910390fd5b61146c611514565b8411156114ae576040517f08c379a00000000000000000000000000000000000000000000000000000000081526004016114a590612599565b60405180910390fd5b60006114c6858560000161174190919063ffffffff16565b905083600001805490508114156114e457600080925092505061150d565b60018460010182815481106114fc576114fb6125b9565b5b906000526020600020015492509250505b9250929050565b6000611520600961181b565b905090565b6000600560009054906101000a900473ffffffffffffffffffffffffffffffffffffffff16905081600560006101000a81548173ffffffffffffffffffffffffffffffffffffffff021916908373ffffffffffffffffffffffffffffffffffffffff1602179055508173ffffffffffffffffffffffffffffffffffffffff168173ffffffffffffffffffffffffffffffffffffffff167f8be0079c531659141344cd1fd0a4f28419497f9722a3daafe3b4186f6b6457e060405160405180910390a35050565b6115f361085f565b15611633576040517f08c379a000000000000000000000000000000000000000000000000000000000815260040161162a90612634565b60405180910390fd5b6001600560146101000a81548160ff0219169083151502179055507f62e78cea01bee320cd4e420270b5ea74000d11b0c9f74754ebdbfc544b05a258611677610dc8565b6040516116849190611d9f565b60405180910390a1565b600061169a6009611829565b60006116a4611514565b90507f8030e83b04d87bef53480e26263266d6ca66863aa8506aca6f2559d18aa1cb67816040516116d59190611cbe565b60405180910390a18091505090565b6116ec61085f565b1561172c576040517f08c379a000000000000000000000000000000000000000000000000000000000815260040161172390612634565b60405180910390fd5b61173783838361183f565b505050565b505050565b600080838054905014156117585760009050611815565b600080848054905090505b808210156117bc57600061177783836118f9565b90508486828154811061178d5761178c6125b9565b5b906000526020600020015411156117a6578091506117b6565b6001816117b39190611f49565b92505b50611763565b6000821180156117f4575083856001846117d69190612654565b815481106117e7576117e66125b9565b5b9060005260206000200154145b1561180f576001826118069190612654565b92505050611815565b81925050505b92915050565b600081600001549050919050565b6001816000016000828254019250508190555050565b61184a83838361191f565b600073ffffffffffffffffffffffffffffffffffffffff168373ffffffffffffffffffffffffffffffffffffffff1614156118955761188882611924565b611890611977565b6118f4565b600073ffffffffffffffffffffffffffffffffffffffff168273ffffffffffffffffffffffffffffffffffffffff1614156118e0576118d383611924565b6118db611977565b6118f3565b6118e983611924565b6118f282611924565b5b5b505050565b6000600282841861190a91906126b7565b8284166119179190611f49565b905092915050565b505050565b611974600660008373ffffffffffffffffffffffffffffffffffffffff1673ffffffffffffffffffffffffffffffffffffffff16815260200190815260200160002061196f83610876565b61198b565b50565b6119896007611984610514565b61198b565b565b6000611995611514565b9050806119a484600001611a06565b1015611a015782600001819080600181540180825580915050600190039060005260206000200160009091909190915055826001018290806001815401808255809150506001900390600052602060002001600090919091909150555b505050565b60008082805490501415611a1d5760009050611a4e565b8160018380549050611a2f9190612654565b81548110611a4057611a3f6125b9565b5b906000526020600020015490505b919050565b600082825260208201905092915050565b7f5468697320636f6e747261637420646f65736e2774206861766520746865206660008201527f756e6374696f6e20796f752061726520747279696e6720746f2063616c6c0000602082015250565b6000611ac0603e83611a53565b9150611acb82611a64565b604082019050919050565b60006020820190508181036000830152611aef81611ab3565b9050919050565b600081519050919050565b60005b83811015611b1f578082015181840152602081019050611b04565b83811115611b2e576000848401525b50505050565b6000601f19601f8301169050919050565b6000611b5082611af6565b611b5a8185611a53565b9350611b6a818560208601611b01565b611b7381611b34565b840191505092915050565b60006020820190508181036000830152611b988184611b45565b905092915050565b600080fd5b600073ffffffffffffffffffffffffffffffffffffffff82169050919050565b6000611bd082611ba5565b9050919050565b611be081611bc5565b8114611beb57600080fd5b50565b600081359050611bfd81611bd7565b92915050565b6000819050919050565b611c1681611c03565b8114611c2157600080fd5b50565b600081359050611c3381611c0d565b92915050565b60008060408385031215611c5057611c4f611ba0565b5b6000611c5e85828601611bee565b9250506020611c6f85828601611c24565b9150509250929050565b60008115159050919050565b611c8e81611c79565b82525050565b6000602082019050611ca96000830184611c85565b92915050565b611cb881611c03565b82525050565b6000602082019050611cd36000830184611caf565b92915050565b600080600060608486031215611cf257611cf1611ba0565b5b6000611d0086828701611bee565b9350506020611d1186828701611bee565b9250506040611d2286828701611c24565b9150509250925092565b600060ff82169050919050565b611d4281611d2c565b82525050565b6000602082019050611d5d6000830184611d39565b92915050565b600060208284031215611d7957611d78611ba0565b5b6000611d8784828501611bee565b91505092915050565b611d9981611bc5565b82525050565b6000602082019050611db46000830184611d90565b92915050565b600060208284031215611dd057611dcf611ba0565b5b6000611dde84828501611c24565b91505092915050565b60008060408385031215611dfe57611dfd611ba0565b5b6000611e0c85828601611bee565b9250506020611e1d85828601611bee565b9150509250929050565b7f4e487b7100000000000000000000000000000000000000000000000000000000600052602260045260246000fd5b60006002820490506001821680611e6e57607f821691505b60208210811415611e8257611e81611e27565b5b50919050565b7f45524332303a207472616e7366657220616d6f756e742065786365656473206160008201527f6c6c6f77616e6365000000000000000000000000000000000000000000000000602082015250565b6000611ee4602883611a53565b9150611eef82611e88565b604082019050919050565b60006020820190508181036000830152611f1381611ed7565b9050919050565b7f4e487b7100000000000000000000000000000000000000000000000000000000600052601160045260246000fd5b6000611f5482611c03565b9150611f5f83611c03565b9250827fffffffffffffffffffffffffffffffffffffffffffffffffffffffffffffffff03821115611f9457611f93611f1a565b5b828201905092915050565b7f4f776e61626c653a2063616c6c6572206973206e6f7420746865206f776e6572600082015250565b6000611fd5602083611a53565b9150611fe082611f9f565b602082019050919050565b6000602082019050818103600083015261200481611fc8565b9050919050565b7f45524332303a2064656372656173656420616c6c6f77616e63652062656c6f7760008201527f207a65726f000000000000000000000000000000000000000000000000000000602082015250565b6000612067602583611a53565b91506120728261200b565b604082019050919050565b600060208201905081810360008301526120968161205a565b9050919050565b7f4f776e61626c653a206e6577206f776e657220697320746865207a65726f206160008201527f6464726573730000000000000000000000000000000000000000000000000000602082015250565b60006120f9602683611a53565b91506121048261209d565b604082019050919050565b60006020820190508181036000830152612128816120ec565b9050919050565b7f45524332303a20617070726f76652066726f6d20746865207a65726f2061646460008201527f7265737300000000000000000000000000000000000000000000000000000000602082015250565b600061218b602483611a53565b91506121968261212f565b604082019050919050565b600060208201905081810360008301526121ba8161217e565b9050919050565b7f45524332303a20617070726f766520746f20746865207a65726f20616464726560008201527f7373000000000000000000000000000000000000000000000000000000000000602082015250565b600061221d602283611a53565b9150612228826121c1565b604082019050919050565b6000602082019050818103600083015261224c81612210565b9050919050565b7f45524332303a207472616e736665722066726f6d20746865207a65726f20616460008201527f6472657373000000000000000000000000000000000000000000000000000000602082015250565b60006122af602583611a53565b91506122ba82612253565b604082019050919050565b600060208201905081810360008301526122de816122a2565b9050919050565b7f45524332303a207472616e7366657220746f20746865207a65726f206164647260008201527f6573730000000000000000000000000000000000000000000000000000000000602082015250565b6000612341602383611a53565b915061234c826122e5565b604082019050919050565b6000602082019050818103600083015261237081612334565b9050919050565b7f45524332303a207472616e7366657220616d6f756e742065786365656473206260008201527f616c616e63650000000000000000000000000000000000000000000000000000602082015250565b60006123d3602683611a53565b91506123de82612377565b604082019050919050565b60006020820190508181036000830152612402816123c6565b9050919050565b7f5061757361626c653a206e6f7420706175736564000000000000000000000000600082015250565b600061243f601483611a53565b915061244a82612409565b602082019050919050565b6000602082019050818103600083015261246e81612432565b9050919050565b7f45524332303a206d696e7420746f20746865207a65726f206164647265737300600082015250565b60006124ab601f83611a53565b91506124b682612475565b602082019050919050565b600060208201905081810360008301526124da8161249e565b9050919050565b7f4552433230536e617073686f743a206964206973203000000000000000000000600082015250565b6000612517601683611a53565b9150612522826124e1565b602082019050919050565b600060208201905081810360008301526125468161250a565b9050919050565b7f4552433230536e617073686f743a206e6f6e6578697374656e74206964000000600082015250565b6000612583601d83611a53565b915061258e8261254d565b602082019050919050565b600060208201905081810360008301526125b281612576565b9050919050565b7f4e487b7100000000000000000000000000000000000000000000000000000000600052603260045260246000fd5b7f5061757361626c653a2070617573656400000000000000000000000000000000600082015250565b600061261e601083611a53565b9150612629826125e8565b602082019050919050565b6000602082019050818103600083015261264d81612611565b9050919050565b600061265f82611c03565b915061266a83611c03565b92508282101561267d5761267c611f1a565b5b828203905092915050565b7f4e487b7100000000000000000000000000000000000000000000000000000000600052601260045260246000fd5b60006126c282611c03565b91506126cd83611c03565b9250826126dd576126dc612688565b5b82820490509291505056fea2646970667358221220dec95fa05d540be8e61245b83de4fec999ac6d3251eaeae62e405e538342ce6f64736f6c63430008090033",
  "linkReferences": {},
  "deployedLinkReferences": {}
}