{
  "_format": "hh-sol-artifact-1",
  "contractName": "SignatureCheckerMock",
  "sourceName": "contracts/oz/mocks/SignatureCheckerMock.sol",
  "abi": [
    {
      "inputs": [
        {
          "internalType": "address",
          "name": "signer",
          "type": "address"
        },
        {
          "internalType": "bytes32",
          "name": "hash",
          "type": "bytes32"
        },
        {
          "internalType": "bytes",
          "name": "signature",
          "type": "bytes"
        }
      ],
      "name": "isValidSignatureNow",
      "outputs": [
        {
          "internalType": "bool",
          "name": "",
          "type": "bool"
        }
      ],
      "stateMutability": "view",
      "type": "function"
    }
  ],
  "bytecode": "0x608060405234801561001057600080fd5b50610951806100206000396000f3fe608060405234801561001057600080fd5b506004361061002b5760003560e01c80636ccea65214610030575b600080fd5b61004a60048036038101906100459190610647565b610060565b60405161005791906106d1565b60405180910390f35b600061008d83838673ffffffffffffffffffffffffffffffffffffffff166100969092919063ffffffff16565b90509392505050565b60008060006100a5858561027b565b91509150600060048111156100bd576100bc6106ec565b5b8160048111156100d0576100cf6106ec565b5b14801561010857508573ffffffffffffffffffffffffffffffffffffffff168273ffffffffffffffffffffffffffffffffffffffff16145b1561011857600192505050610274565b6000808773ffffffffffffffffffffffffffffffffffffffff16631626ba7e60e01b888860405160240161014d9291906107b2565b604051602081830303815290604052907bffffffffffffffffffffffffffffffffffffffffffffffffffffffff19166020820180517bffffffffffffffffffffffffffffffffffffffffffffffffffffffff83818316178352505050506040516101b7919061081e565b600060405180830381855afa9150503d80600081146101f2576040519150601f19603f3d011682016040523d82523d6000602084013e6101f7565b606091505b509150915081801561020a575060208151145b801561026d5750631626ba7e60e01b7bffffffffffffffffffffffffffffffffffffffffffffffffffffffff19168180602001905181019061024c919061088d565b7bffffffffffffffffffffffffffffffffffffffffffffffffffffffff1916145b9450505050505b9392505050565b6000806041835114156102bd5760008060006020860151925060408601519150606086015160001a90506102b1878285856102fe565b945094505050506102f7565b6040835114156102ee5760008060208501519150604085015190506102e386838361040b565b9350935050506102f7565b60006002915091505b9250929050565b6000807f7fffffffffffffffffffffffffffffff5d576e7357a4501ddfe92f46681b20a08360001c1115610339576000600391509150610402565b601b8560ff16141580156103515750601c8560ff1614155b15610363576000600491509150610402565b60006001878787876040516000815260200160405260405161038894939291906108d6565b6020604051602081039080840390855afa1580156103aa573d6000803e3d6000fd5b505050602060405103519050600073ffffffffffffffffffffffffffffffffffffffff168173ffffffffffffffffffffffffffffffffffffffff1614156103f957600060019250925050610402565b80600092509250505b94509492505050565b6000806000807f7fffffffffffffffffffffffffffffffffffffffffffffffffffffffffffffff85169150601b8560ff1c01905061044b878288856102fe565b935093505050935093915050565b6000604051905090565b600080fd5b600080fd5b600073ffffffffffffffffffffffffffffffffffffffff82169050919050565b60006104988261046d565b9050919050565b6104a88161048d565b81146104b357600080fd5b50565b6000813590506104c58161049f565b92915050565b6000819050919050565b6104de816104cb565b81146104e957600080fd5b50565b6000813590506104fb816104d5565b92915050565b600080fd5b600080fd5b6000601f19601f8301169050919050565b7f4e487b7100000000000000000000000000000000000000000000000000000000600052604160045260246000fd5b6105548261050b565b810181811067ffffffffffffffff821117156105735761057261051c565b5b80604052505050565b6000610586610459565b9050610592828261054b565b919050565b600067ffffffffffffffff8211156105b2576105b161051c565b5b6105bb8261050b565b9050602081019050919050565b82818337600083830152505050565b60006105ea6105e584610597565b61057c565b90508281526020810184848401111561060657610605610506565b5b6106118482856105c8565b509392505050565b600082601f83011261062e5761062d610501565b5b813561063e8482602086016105d7565b91505092915050565b6000806000606084860312156106605761065f610463565b5b600061066e868287016104b6565b935050602061067f868287016104ec565b925050604084013567ffffffffffffffff8111156106a05761069f610468565b5b6106ac86828701610619565b9150509250925092565b60008115159050919050565b6106cb816106b6565b82525050565b60006020820190506106e660008301846106c2565b92915050565b7f4e487b7100000000000000000000000000000000000000000000000000000000600052602160045260246000fd5b610724816104cb565b82525050565b600081519050919050565b600082825260208201905092915050565b60005b83811015610764578082015181840152602081019050610749565b83811115610773576000848401525b50505050565b60006107848261072a565b61078e8185610735565b935061079e818560208601610746565b6107a78161050b565b840191505092915050565b60006040820190506107c7600083018561071b565b81810360208301526107d98184610779565b90509392505050565b600081905092915050565b60006107f88261072a565b61080281856107e2565b9350610812818560208601610746565b80840191505092915050565b600061082a82846107ed565b915081905092915050565b60007fffffffff0000000000000000000000000000000000000000000000000000000082169050919050565b61086a81610835565b811461087557600080fd5b50565b60008151905061088781610861565b92915050565b6000602082840312156108a3576108a2610463565b5b60006108b184828501610878565b91505092915050565b600060ff82169050919050565b6108d0816108ba565b82525050565b60006080820190506108eb600083018761071b565b6108f860208301866108c7565b610905604083018561071b565b610912606083018461071b565b9594505050505056fea2646970667358221220f405038a157d8b853ce3be847e10670a6111c20c64656aaa3919ddb9f74d185064736f6c63430008090033",
  "linkReferences": {},
  "deployedLinkReferences": {}
}