{
  "_format": "hh-sol-artifact-1",
  "contractName": "MulticallTokenMock",
  "sourceName": "contracts/oz/mocks/MulticallTokenMock.sol",
  "abi": [
    {
      "inputs": [
        {
          "internalType": "uint256",
          "name": "initialBalance",
          "type": "uint256"
        }
      ],
      "stateMutability": "nonpayable",
      "type": "constructor"
    },
    {
      "anonymous": false,
      "inputs": [
        {
          "indexed": true,
          "internalType": "address",
          "name": "owner",
          "type": "address"
        },
        {
          "indexed": true,
          "internalType": "address",
          "name": "spender",
          "type": "address"
        },
        {
          "indexed": false,
          "internalType": "uint256",
          "name": "value",
          "type": "uint256"
        }
      ],
      "name": "Approval",
      "type": "event"
    },
    {
      "anonymous": false,
      "inputs": [
        {
          "indexed": true,
          "internalType": "address",
          "name": "from",
          "type": "address"
        },
        {
          "indexed": true,
          "internalType": "address",
          "name": "to",
          "type": "address"
        },
        {
          "indexed": false,
          "internalType": "uint256",
          "name": "value",
          "type": "uint256"
        }
      ],
      "name": "Transfer",
      "type": "event"
    },
    {
      "inputs": [
        {
          "internalType": "address",
          "name": "owner",
          "type": "address"
        },
        {
          "internalType": "address",
          "name": "spender",
          "type": "address"
        }
      ],
      "name": "allowance",
      "outputs": [
        {
          "internalType": "uint256",
          "name": "",
          "type": "uint256"
        }
      ],
      "stateMutability": "view",
      "type": "function"
    },
    {
      "inputs": [
        {
          "internalType": "address",
          "name": "spender",
          "type": "address"
        },
        {
          "internalType": "uint256",
          "name": "amount",
          "type": "uint256"
        }
      ],
      "name": "approve",
      "outputs": [
        {
          "internalType": "bool",
          "name": "",
          "type": "bool"
        }
      ],
      "stateMutability": "nonpayable",
      "type": "function"
    },
    {
      "inputs": [
        {
          "internalType": "address",
          "name": "owner",
          "type": "address"
        },
        {
          "internalType": "address",
          "name": "spender",
          "type": "address"
        },
        {
          "internalType": "uint256",
          "name": "value",
          "type": "uint256"
        }
      ],
      "name": "approveInternal",
      "outputs": [],
      "stateMutability": "nonpayable",
      "type": "function"
    },
    {
      "inputs": [
        {
          "internalType": "address",
          "name": "account",
          "type": "address"
        }
      ],
      "name": "balanceOf",
      "outputs": [
        {
          "internalType": "uint256",
          "name": "",
          "type": "uint256"
        }
      ],
      "stateMutability": "view",
      "type": "function"
    },
    {
      "inputs": [
        {
          "internalType": "address",
          "name": "account",
          "type": "address"
        },
        {
          "internalType": "uint256",
          "name": "amount",
          "type": "uint256"
        }
      ],
      "name": "burn",
      "outputs": [],
      "stateMutability": "nonpayable",
      "type": "function"
    },
    {
      "inputs": [],
      "name": "decimals",
      "outputs": [
        {
          "internalType": "uint8",
          "name": "",
          "type": "uint8"
        }
      ],
      "stateMutability": "view",
      "type": "function"
    },
    {
      "inputs": [
        {
          "internalType": "address",
          "name": "spender",
          "type": "address"
        },
        {
          "internalType": "uint256",
          "name": "subtractedValue",
          "type": "uint256"
        }
      ],
      "name": "decreaseAllowance",
      "outputs": [
        {
          "internalType": "bool",
          "name": "",
          "type": "bool"
        }
      ],
      "stateMutability": "nonpayable",
      "type": "function"
    },
    {
      "inputs": [
        {
          "internalType": "address",
          "name": "spender",
          "type": "address"
        },
        {
          "internalType": "uint256",
          "name": "addedValue",
          "type": "uint256"
        }
      ],
      "name": "increaseAllowance",
      "outputs": [
        {
          "internalType": "bool",
          "name": "",
          "type": "bool"
        }
      ],
      "stateMutability": "nonpayable",
      "type": "function"
    },
    {
      "inputs": [
        {
          "internalType": "address",
          "name": "account",
          "type": "address"
        },
        {
          "internalType": "uint256",
          "name": "amount",
          "type": "uint256"
        }
      ],
      "name": "mint",
      "outputs": [],
      "stateMutability": "nonpayable",
      "type": "function"
    },
    {
      "inputs": [
        {
          "internalType": "bytes[]",
          "name": "data",
          "type": "bytes[]"
        }
      ],
      "name": "multicall",
      "outputs": [
        {
          "internalType": "bytes[]",
          "name": "results",
          "type": "bytes[]"
        }
      ],
      "stateMutability": "nonpayable",
      "type": "function"
    },
    {
      "inputs": [],
      "name": "name",
      "outputs": [
        {
          "internalType": "string",
          "name": "",
          "type": "string"
        }
      ],
      "stateMutability": "view",
      "type": "function"
    },
    {
      "inputs": [],
      "name": "symbol",
      "outputs": [
        {
          "internalType": "string",
          "name": "",
          "type": "string"
        }
      ],
      "stateMutability": "view",
      "type": "function"
    },
    {
      "inputs": [],
      "name": "totalSupply",
      "outputs": [
        {
          "internalType": "uint256",
          "name": "",
          "type": "uint256"
        }
      ],
      "stateMutability": "view",
      "type": "function"
    },
    {
      "inputs": [
        {
          "internalType": "address",
          "name": "recipient",
          "type": "address"
        },
        {
          "internalType": "uint256",
          "name": "amount",
          "type": "uint256"
        }
      ],
      "name": "transfer",
      "outputs": [
        {
          "internalType": "bool",
          "name": "",
          "type": "bool"
        }
      ],
      "stateMutability": "nonpayable",
      "type": "function"
    },
    {
      "inputs": [
        {
          "internalType": "address",
          "name": "sender",
          "type": "address"
        },
        {
          "internalType": "address",
          "name": "recipient",
          "type": "address"
        },
        {
          "internalType": "uint256",
          "name": "amount",
          "type": "uint256"
        }
      ],
      "name": "transferFrom",
      "outputs": [
        {
          "internalType": "bool",
          "name": "",
          "type": "bool"
        }
      ],
      "stateMutability": "nonpayable",
      "type": "function"
    },
    {
      "inputs": [
        {
          "internalType": "address",
          "name": "from",
          "type": "address"
        },
        {
          "internalType": "address",
          "name": "to",
          "type": "address"
        },
        {
          "internalType": "uint256",
          "name": "value",
          "type": "uint256"
        }
      ],
      "name": "transferInternal",
      "outputs": [],
      "stateMutability": "nonpayable",
      "type": "function"
    }
  ],
  "bytecode": "0x60806040523480156200001157600080fd5b50604051620025bc380380620025bc83398181016040528101906200003791906200036b565b6040518060400160405280600e81526020017f4d756c746963616c6c546f6b656e0000000000000000000000000000000000008152506040518060400160405280600381526020017f4243540000000000000000000000000000000000000000000000000000000000815250338383838160039080519060200190620000bf9291906200027b565b508060049080519060200190620000d89291906200027b565b505050620000ed8282620000f860201b60201c565b50505050506200053f565b600073ffffffffffffffffffffffffffffffffffffffff168273ffffffffffffffffffffffffffffffffffffffff1614156200016b576040517f08c379a00000000000000000000000000000000000000000000000000000000081526004016200016290620003fe565b60405180910390fd5b6200017f600083836200027160201b60201c565b80600260008282546200019391906200044f565b92505081905550806000808473ffffffffffffffffffffffffffffffffffffffff1673ffffffffffffffffffffffffffffffffffffffff1681526020019081526020016000206000828254620001ea91906200044f565b925050819055508173ffffffffffffffffffffffffffffffffffffffff16600073ffffffffffffffffffffffffffffffffffffffff167fddf252ad1be2c89b69c2b068fc378daa952ba7f163c4a11628f55a4df523b3ef83604051620002519190620004bd565b60405180910390a36200026d600083836200027660201b60201c565b5050565b505050565b505050565b828054620002899062000509565b90600052602060002090601f016020900481019282620002ad5760008555620002f9565b82601f10620002c857805160ff1916838001178555620002f9565b82800160010185558215620002f9579182015b82811115620002f8578251825591602001919060010190620002db565b5b5090506200030891906200030c565b5090565b5b80821115620003275760008160009055506001016200030d565b5090565b600080fd5b6000819050919050565b620003458162000330565b81146200035157600080fd5b50565b60008151905062000365816200033a565b92915050565b6000602082840312156200038457620003836200032b565b5b6000620003948482850162000354565b91505092915050565b600082825260208201905092915050565b7f45524332303a206d696e7420746f20746865207a65726f206164647265737300600082015250565b6000620003e6601f836200039d565b9150620003f382620003ae565b602082019050919050565b600060208201905081810360008301526200041981620003d7565b9050919050565b7f4e487b7100000000000000000000000000000000000000000000000000000000600052601160045260246000fd5b60006200045c8262000330565b9150620004698362000330565b9250827fffffffffffffffffffffffffffffffffffffffffffffffffffffffffffffffff03821115620004a157620004a062000420565b5b828201905092915050565b620004b78162000330565b82525050565b6000602082019050620004d46000830184620004ac565b92915050565b7f4e487b7100000000000000000000000000000000000000000000000000000000600052602260045260246000fd5b600060028204905060018216806200052257607f821691505b60208210811415620005395762000538620004da565b5b50919050565b61206d806200054f6000396000f3fe608060405234801561001057600080fd5b50600436106101005760003560e01c806356189cb411610097578063a457c2d711610066578063a457c2d7146102ad578063a9059cbb146102dd578063ac9650d81461030d578063dd62ed3e1461033d57610100565b806356189cb41461022757806370a082311461024357806395d89b41146102735780639dc29fac1461029157610100565b806323b872dd116100d357806323b872dd1461018d578063313ce567146101bd57806339509351146101db57806340c10f191461020b57610100565b806306fdde0314610105578063095ea7b31461012357806318160ddd14610153578063222f5be014610171575b600080fd5b61010d61036d565b60405161011a9190611328565b60405180910390f35b61013d600480360381019061013891906113e8565b6103ff565b60405161014a9190611443565b60405180910390f35b61015b61041d565b604051610168919061146d565b60405180910390f35b61018b60048036038101906101869190611488565b610427565b005b6101a760048036038101906101a29190611488565b610437565b6040516101b49190611443565b60405180910390f35b6101c561052f565b6040516101d291906114f7565b60405180910390f35b6101f560048036038101906101f091906113e8565b610538565b6040516102029190611443565b60405180910390f35b610225600480360381019061022091906113e8565b6105e4565b005b610241600480360381019061023c9190611488565b6105f2565b005b61025d60048036038101906102589190611512565b610602565b60405161026a919061146d565b60405180910390f35b61027b61064a565b6040516102889190611328565b60405180910390f35b6102ab60048036038101906102a691906113e8565b6106dc565b005b6102c760048036038101906102c291906113e8565b6106ea565b6040516102d49190611443565b60405180910390f35b6102f760048036038101906102f291906113e8565b6107d5565b6040516103049190611443565b60405180910390f35b610327600480360381019061032291906115a4565b6107f3565b6040516103349190611708565b60405180910390f35b6103576004803603810190610352919061172a565b6108ff565b604051610364919061146d565b60405180910390f35b60606003805461037c90611799565b80601f01602080910402602001604051908101604052809291908181526020018280546103a890611799565b80156103f55780601f106103ca576101008083540402835291602001916103f5565b820191906000526020600020905b8154815290600101906020018083116103d857829003601f168201915b5050505050905090565b600061041361040c610986565b848461098e565b6001905092915050565b6000600254905090565b610432838383610b59565b505050565b6000610444848484610b59565b6000600160008673ffffffffffffffffffffffffffffffffffffffff1673ffffffffffffffffffffffffffffffffffffffff168152602001908152602001600020600061048f610986565b73ffffffffffffffffffffffffffffffffffffffff1673ffffffffffffffffffffffffffffffffffffffff1681526020019081526020016000205490508281101561050f576040517f08c379a00000000000000000000000000000000000000000000000000000000081526004016105069061183d565b60405180910390fd5b6105238561051b610986565b85840361098e565b60019150509392505050565b60006012905090565b60006105da610545610986565b848460016000610553610986565b73ffffffffffffffffffffffffffffffffffffffff1673ffffffffffffffffffffffffffffffffffffffff16815260200190815260200160002060008873ffffffffffffffffffffffffffffffffffffffff1673ffffffffffffffffffffffffffffffffffffffff168152602001908152602001600020546105d5919061188c565b61098e565b6001905092915050565b6105ee8282610dda565b5050565b6105fd83838361098e565b505050565b60008060008373ffffffffffffffffffffffffffffffffffffffff1673ffffffffffffffffffffffffffffffffffffffff168152602001908152602001600020549050919050565b60606004805461065990611799565b80601f016020809104026020016040519081016040528092919081815260200182805461068590611799565b80156106d25780601f106106a7576101008083540402835291602001916106d2565b820191906000526020600020905b8154815290600101906020018083116106b557829003601f168201915b5050505050905090565b6106e68282610f3a565b5050565b600080600160006106f9610986565b73ffffffffffffffffffffffffffffffffffffffff1673ffffffffffffffffffffffffffffffffffffffff16815260200190815260200160002060008573ffffffffffffffffffffffffffffffffffffffff1673ffffffffffffffffffffffffffffffffffffffff168152602001908152602001600020549050828110156107b6576040517f08c379a00000000000000000000000000000000000000000000000000000000081526004016107ad90611954565b60405180910390fd5b6107ca6107c1610986565b8585840361098e565b600191505092915050565b60006107e96107e2610986565b8484610b59565b6001905092915050565b60608282905067ffffffffffffffff81111561081257610811611974565b5b60405190808252806020026020018201604052801561084557816020015b60608152602001906001900390816108305790505b50905060005b838390508110156108f8576108c73085858481811061086d5761086c6119a3565b5b905060200281019061087f91906119e1565b8080601f016020809104026020016040519081016040528093929190818152602001838380828437600081840152601f19601f82011690508083019250505050505050611111565b8282815181106108da576108d96119a3565b5b602002602001018190525080806108f090611a44565b91505061084b565b5092915050565b6000600160008473ffffffffffffffffffffffffffffffffffffffff1673ffffffffffffffffffffffffffffffffffffffff16815260200190815260200160002060008373ffffffffffffffffffffffffffffffffffffffff1673ffffffffffffffffffffffffffffffffffffffff16815260200190815260200160002054905092915050565b600033905090565b600073ffffffffffffffffffffffffffffffffffffffff168373ffffffffffffffffffffffffffffffffffffffff1614156109fe576040517f08c379a00000000000000000000000000000000000000000000000000000000081526004016109f590611aff565b60405180910390fd5b600073ffffffffffffffffffffffffffffffffffffffff168273ffffffffffffffffffffffffffffffffffffffff161415610a6e576040517f08c379a0000000000000000000000000000000000000000000000000000000008152600401610a6590611b91565b60405180910390fd5b80600160008573ffffffffffffffffffffffffffffffffffffffff1673ffffffffffffffffffffffffffffffffffffffff16815260200190815260200160002060008473ffffffffffffffffffffffffffffffffffffffff1673ffffffffffffffffffffffffffffffffffffffff168152602001908152602001600020819055508173ffffffffffffffffffffffffffffffffffffffff168373ffffffffffffffffffffffffffffffffffffffff167f8c5be1e5ebec7d5bd14f71427d1e84f3dd0314c0f7b2291e5b200ac8c7c3b92583604051610b4c919061146d565b60405180910390a3505050565b600073ffffffffffffffffffffffffffffffffffffffff168373ffffffffffffffffffffffffffffffffffffffff161415610bc9576040517f08c379a0000000000000000000000000000000000000000000000000000000008152600401610bc090611c23565b60405180910390fd5b600073ffffffffffffffffffffffffffffffffffffffff168273ffffffffffffffffffffffffffffffffffffffff161415610c39576040517f08c379a0000000000000000000000000000000000000000000000000000000008152600401610c3090611cb5565b60405180910390fd5b610c4483838361113e565b60008060008573ffffffffffffffffffffffffffffffffffffffff1673ffffffffffffffffffffffffffffffffffffffff16815260200190815260200160002054905081811015610cca576040517f08c379a0000000000000000000000000000000000000000000000000000000008152600401610cc190611d47565b60405180910390fd5b8181036000808673ffffffffffffffffffffffffffffffffffffffff1673ffffffffffffffffffffffffffffffffffffffff16815260200190815260200160002081905550816000808573ffffffffffffffffffffffffffffffffffffffff1673ffffffffffffffffffffffffffffffffffffffff1681526020019081526020016000206000828254610d5d919061188c565b925050819055508273ffffffffffffffffffffffffffffffffffffffff168473ffffffffffffffffffffffffffffffffffffffff167fddf252ad1be2c89b69c2b068fc378daa952ba7f163c4a11628f55a4df523b3ef84604051610dc1919061146d565b60405180910390a3610dd4848484611143565b50505050565b600073ffffffffffffffffffffffffffffffffffffffff168273ffffffffffffffffffffffffffffffffffffffff161415610e4a576040517f08c379a0000000000000000000000000000000000000000000000000000000008152600401610e4190611db3565b60405180910390fd5b610e566000838361113e565b8060026000828254610e68919061188c565b92505081905550806000808473ffffffffffffffffffffffffffffffffffffffff1673ffffffffffffffffffffffffffffffffffffffff1681526020019081526020016000206000828254610ebd919061188c565b925050819055508173ffffffffffffffffffffffffffffffffffffffff16600073ffffffffffffffffffffffffffffffffffffffff167fddf252ad1be2c89b69c2b068fc378daa952ba7f163c4a11628f55a4df523b3ef83604051610f22919061146d565b60405180910390a3610f3660008383611143565b5050565b600073ffffffffffffffffffffffffffffffffffffffff168273ffffffffffffffffffffffffffffffffffffffff161415610faa576040517f08c379a0000000000000000000000000000000000000000000000000000000008152600401610fa190611e45565b60405180910390fd5b610fb68260008361113e565b60008060008473ffffffffffffffffffffffffffffffffffffffff1673ffffffffffffffffffffffffffffffffffffffff1681526020019081526020016000205490508181101561103c576040517f08c379a000000000000000000000000000000000000000000000000000000000815260040161103390611ed7565b60405180910390fd5b8181036000808573ffffffffffffffffffffffffffffffffffffffff1673ffffffffffffffffffffffffffffffffffffffff1681526020019081526020016000208190555081600260008282546110939190611ef7565b92505081905550600073ffffffffffffffffffffffffffffffffffffffff168373ffffffffffffffffffffffffffffffffffffffff167fddf252ad1be2c89b69c2b068fc378daa952ba7f163c4a11628f55a4df523b3ef846040516110f8919061146d565b60405180910390a361110c83600084611143565b505050565b6060611136838360405180606001604052806027815260200161201160279139611148565b905092915050565b505050565b505050565b606061115384611215565b611192576040517f08c379a000000000000000000000000000000000000000000000000000000000815260040161118990611f9d565b60405180910390fd5b6000808573ffffffffffffffffffffffffffffffffffffffff16856040516111ba9190611ff9565b600060405180830381855af49150503d80600081146111f5576040519150601f19603f3d011682016040523d82523d6000602084013e6111fa565b606091505b509150915061120a828286611228565b925050509392505050565b600080823b905060008111915050919050565b6060831561123857829050611288565b60008351111561124b5782518084602001fd5b816040517f08c379a000000000000000000000000000000000000000000000000000000000815260040161127f9190611328565b60405180910390fd5b9392505050565b600081519050919050565b600082825260208201905092915050565b60005b838110156112c95780820151818401526020810190506112ae565b838111156112d8576000848401525b50505050565b6000601f19601f8301169050919050565b60006112fa8261128f565b611304818561129a565b93506113148185602086016112ab565b61131d816112de565b840191505092915050565b6000602082019050818103600083015261134281846112ef565b905092915050565b600080fd5b600080fd5b600073ffffffffffffffffffffffffffffffffffffffff82169050919050565b600061137f82611354565b9050919050565b61138f81611374565b811461139a57600080fd5b50565b6000813590506113ac81611386565b92915050565b6000819050919050565b6113c5816113b2565b81146113d057600080fd5b50565b6000813590506113e2816113bc565b92915050565b600080604083850312156113ff576113fe61134a565b5b600061140d8582860161139d565b925050602061141e858286016113d3565b9150509250929050565b60008115159050919050565b61143d81611428565b82525050565b60006020820190506114586000830184611434565b92915050565b611467816113b2565b82525050565b6000602082019050611482600083018461145e565b92915050565b6000806000606084860312156114a1576114a061134a565b5b60006114af8682870161139d565b93505060206114c08682870161139d565b92505060406114d1868287016113d3565b9150509250925092565b600060ff82169050919050565b6114f1816114db565b82525050565b600060208201905061150c60008301846114e8565b92915050565b6000602082840312156115285761152761134a565b5b60006115368482850161139d565b91505092915050565b600080fd5b600080fd5b600080fd5b60008083601f8401126115645761156361153f565b5b8235905067ffffffffffffffff81111561158157611580611544565b5b60208301915083602082028301111561159d5761159c611549565b5b9250929050565b600080602083850312156115bb576115ba61134a565b5b600083013567ffffffffffffffff8111156115d9576115d861134f565b5b6115e58582860161154e565b92509250509250929050565b600081519050919050565b600082825260208201905092915050565b6000819050602082019050919050565b600081519050919050565b600082825260208201905092915050565b60006116448261161d565b61164e8185611628565b935061165e8185602086016112ab565b611667816112de565b840191505092915050565b600061167e8383611639565b905092915050565b6000602082019050919050565b600061169e826115f1565b6116a881856115fc565b9350836020820285016116ba8561160d565b8060005b858110156116f657848403895281516116d78582611672565b94506116e283611686565b925060208a019950506001810190506116be565b50829750879550505050505092915050565b600060208201905081810360008301526117228184611693565b905092915050565b600080604083850312156117415761174061134a565b5b600061174f8582860161139d565b92505060206117608582860161139d565b9150509250929050565b7f4e487b7100000000000000000000000000000000000000000000000000000000600052602260045260246000fd5b600060028204905060018216806117b157607f821691505b602082108114156117c5576117c461176a565b5b50919050565b7f45524332303a207472616e7366657220616d6f756e742065786365656473206160008201527f6c6c6f77616e6365000000000000000000000000000000000000000000000000602082015250565b600061182760288361129a565b9150611832826117cb565b604082019050919050565b600060208201905081810360008301526118568161181a565b9050919050565b7f4e487b7100000000000000000000000000000000000000000000000000000000600052601160045260246000fd5b6000611897826113b2565b91506118a2836113b2565b9250827fffffffffffffffffffffffffffffffffffffffffffffffffffffffffffffffff038211156118d7576118d661185d565b5b828201905092915050565b7f45524332303a2064656372656173656420616c6c6f77616e63652062656c6f7760008201527f207a65726f000000000000000000000000000000000000000000000000000000602082015250565b600061193e60258361129a565b9150611949826118e2565b604082019050919050565b6000602082019050818103600083015261196d81611931565b9050919050565b7f4e487b7100000000000000000000000000000000000000000000000000000000600052604160045260246000fd5b7f4e487b7100000000000000000000000000000000000000000000000000000000600052603260045260246000fd5b600080fd5b600080fd5b600080fd5b600080833560016020038436030381126119fe576119fd6119d2565b5b80840192508235915067ffffffffffffffff821115611a2057611a1f6119d7565b5b602083019250600182023603831315611a3c57611a3b6119dc565b5b509250929050565b6000611a4f826113b2565b91507fffffffffffffffffffffffffffffffffffffffffffffffffffffffffffffffff821415611a8257611a8161185d565b5b600182019050919050565b7f45524332303a20617070726f76652066726f6d20746865207a65726f2061646460008201527f7265737300000000000000000000000000000000000000000000000000000000602082015250565b6000611ae960248361129a565b9150611af482611a8d565b604082019050919050565b60006020820190508181036000830152611b1881611adc565b9050919050565b7f45524332303a20617070726f766520746f20746865207a65726f20616464726560008201527f7373000000000000000000000000000000000000000000000000000000000000602082015250565b6000611b7b60228361129a565b9150611b8682611b1f565b604082019050919050565b60006020820190508181036000830152611baa81611b6e565b9050919050565b7f45524332303a207472616e736665722066726f6d20746865207a65726f20616460008201527f6472657373000000000000000000000000000000000000000000000000000000602082015250565b6000611c0d60258361129a565b9150611c1882611bb1565b604082019050919050565b60006020820190508181036000830152611c3c81611c00565b9050919050565b7f45524332303a207472616e7366657220746f20746865207a65726f206164647260008201527f6573730000000000000000000000000000000000000000000000000000000000602082015250565b6000611c9f60238361129a565b9150611caa82611c43565b604082019050919050565b60006020820190508181036000830152611cce81611c92565b9050919050565b7f45524332303a207472616e7366657220616d6f756e742065786365656473206260008201527f616c616e63650000000000000000000000000000000000000000000000000000602082015250565b6000611d3160268361129a565b9150611d3c82611cd5565b604082019050919050565b60006020820190508181036000830152611d6081611d24565b9050919050565b7f45524332303a206d696e7420746f20746865207a65726f206164647265737300600082015250565b6000611d9d601f8361129a565b9150611da882611d67565b602082019050919050565b60006020820190508181036000830152611dcc81611d90565b9050919050565b7f45524332303a206275726e2066726f6d20746865207a65726f2061646472657360008201527f7300000000000000000000000000000000000000000000000000000000000000602082015250565b6000611e2f60218361129a565b9150611e3a82611dd3565b604082019050919050565b60006020820190508181036000830152611e5e81611e22565b9050919050565b7f45524332303a206275726e20616d6f756e7420657863656564732062616c616e60008201527f6365000000000000000000000000000000000000000000000000000000000000602082015250565b6000611ec160228361129a565b9150611ecc82611e65565b604082019050919050565b60006020820190508181036000830152611ef081611eb4565b9050919050565b6000611f02826113b2565b9150611f0d836113b2565b925082821015611f2057611f1f61185d565b5b828203905092915050565b7f416464726573733a2064656c65676174652063616c6c20746f206e6f6e2d636f60008201527f6e74726163740000000000000000000000000000000000000000000000000000602082015250565b6000611f8760268361129a565b9150611f9282611f2b565b604082019050919050565b60006020820190508181036000830152611fb681611f7a565b9050919050565b600081905092915050565b6000611fd38261161d565b611fdd8185611fbd565b9350611fed8185602086016112ab565b80840191505092915050565b60006120058284611fc8565b91508190509291505056fe416464726573733a206c6f772d6c6576656c2064656c65676174652063616c6c206661696c6564a2646970667358221220ca404356e1cffdbde04693125163911f506675c32b65ff0fde1fcf30b91fef8764736f6c63430008090033",
  "linkReferences": {},
  "deployedLinkReferences": {}
}