{
  "_format": "hh-sol-artifact-1",
  "contractName": "ERC1155VestingWallet",
  "sourceName": "contracts/finance/ERC1155VestingWallet.sol",
  "abi": [
    {
      "inputs": [
        {
          "internalType": "address",
          "name": "erc1155Contract",
          "type": "address"
        },
        {
          "internalType": "address",
          "name": "beneficiaryAddress",
          "type": "address"
        },
        {
          "internalType": "uint64",
          "name": "startTimestamp",
          "type": "uint64"
        },
        {
          "internalType": "uint64",
          "name": "durationSeconds",
          "type": "uint64"
        }
      ],
      "stateMutability": "nonpayable",
      "type": "constructor"
    },
    {
      "anonymous": false,
      "inputs": [
        {
          "indexed": false,
          "internalType": "uint256",
          "name": "id",
          "type": "uint256"
        },
        {
          "indexed": false,
          "internalType": "uint256",
          "name": "amount",
          "type": "uint256"
        }
      ],
      "name": "ERC1155Released",
      "type": "event"
    },
    {
      "inputs": [],
      "name": "beneficiary",
      "outputs": [
        {
          "internalType": "address",
          "name": "",
          "type": "address"
        }
      ],
      "stateMutability": "view",
      "type": "function"
    },
    {
      "inputs": [],
      "name": "duration",
      "outputs": [
        {
          "internalType": "uint256",
          "name": "duration_",
          "type": "uint256"
        }
      ],
      "stateMutability": "view",
      "type": "function"
    },
    {
      "inputs": [
        {
          "internalType": "uint256",
          "name": "id",
          "type": "uint256"
        }
      ],
      "name": "release",
      "outputs": [],
      "stateMutability": "nonpayable",
      "type": "function"
    },
    {
      "inputs": [
        {
          "internalType": "uint256",
          "name": "id",
          "type": "uint256"
        }
      ],
      "name": "released",
      "outputs": [
        {
          "internalType": "uint256",
          "name": "idReleased",
          "type": "uint256"
        }
      ],
      "stateMutability": "view",
      "type": "function"
    },
    {
      "inputs": [],
      "name": "start",
      "outputs": [
        {
          "internalType": "uint256",
          "name": "start_",
          "type": "uint256"
        }
      ],
      "stateMutability": "view",
      "type": "function"
    },
    {
      "inputs": [
        {
          "internalType": "uint256",
          "name": "id",
          "type": "uint256"
        },
        {
          "internalType": "uint64",
          "name": "timestamp",
          "type": "uint64"
        }
      ],
      "name": "vestedAmount",
      "outputs": [
        {
          "internalType": "uint256",
          "name": "",
          "type": "uint256"
        }
      ],
      "stateMutability": "view",
      "type": "function"
    }
  ],
  "bytecode": "0x6101006040523480156200001257600080fd5b5060405162000be238038062000be28339818101604052810190620000389190620001f0565b600073ffffffffffffffffffffffffffffffffffffffff168373ffffffffffffffffffffffffffffffffffffffff161415620000ab576040517f08c379a0000000000000000000000000000000000000000000000000000000008152600401620000a290620002e9565b60405180910390fd5b8373ffffffffffffffffffffffffffffffffffffffff1660808173ffffffffffffffffffffffffffffffffffffffff16815250508273ffffffffffffffffffffffffffffffffffffffff1660a08173ffffffffffffffffffffffffffffffffffffffff16815250508167ffffffffffffffff1660c081815250508067ffffffffffffffff1660e08181525050505050506200030b565b600080fd5b600073ffffffffffffffffffffffffffffffffffffffff82169050919050565b6000620001738262000146565b9050919050565b620001858162000166565b81146200019157600080fd5b50565b600081519050620001a5816200017a565b92915050565b600067ffffffffffffffff82169050919050565b620001ca81620001ab565b8114620001d657600080fd5b50565b600081519050620001ea81620001bf565b92915050565b600080600080608085870312156200020d576200020c62000141565b5b60006200021d8782880162000194565b9450506020620002308782880162000194565b93505060406200024387828801620001d9565b92505060606200025687828801620001d9565b91505092959194509250565b600082825260208201905092915050565b7f494552433131353556657374696e6757616c6c65743a2062656e65666963696160008201527f7279206973207a65726f20616464726573730000000000000000000000000000602082015250565b6000620002d160328362000262565b9150620002de8262000273565b604082019050919050565b600060208201905081810360008301526200030481620002c2565b9050919050565b60805160a05160c05160e0516108966200034c60003960006101410152600061039e015260006102890152600081816101eb01526102bd01526108966000f3fe608060405234801561001057600080fd5b50600436106100625760003560e01c80630fb5a6b41461006757806337bdc99b1461008557806338af3eed146100a157806345c54011146100bf578063a94d373b146100ef578063be9a65551461011f575b600080fd5b61006f61013d565b60405161007c9190610475565b60405180910390f35b61009f600480360381019061009a91906104c1565b610165565b005b6100a9610285565b6040516100b6919061052f565b60405180910390f35b6100d960048036038101906100d4919061058a565b6102ad565b6040516100e69190610475565b60405180910390f35b610109600480360381019061010491906104c1565b61037d565b6040516101169190610475565b60405180910390f35b61012761039a565b6040516101349190610475565b60405180910390f35b60007f0000000000000000000000000000000000000000000000000000000000000000905090565b60006101708261037d565b61017a83426102ad565b61018491906105f9565b9050806001600084815260200190815260200160002060008282546101a9919061062d565b925050819055507f6c11e62c1187904f56edf595bef199479e30c2192aebd214e0a64414508e98c682826040516101e1929190610683565b60405180910390a17f000000000000000000000000000000000000000000000000000000000000000073ffffffffffffffffffffffffffffffffffffffff1663f242432a3061022e610285565b85856040518563ffffffff1660e01b815260040161024f94939291906106e3565b600060405180830381600087803b15801561026957600080fd5b505af115801561027d573d6000803e3d6000fd5b505050505050565b60007f0000000000000000000000000000000000000000000000000000000000000000905090565b60006103756102bb8461037d565b7f000000000000000000000000000000000000000000000000000000000000000073ffffffffffffffffffffffffffffffffffffffff1662fdd58e30876040518363ffffffff1660e01b815260040161031592919061073b565b60206040518083038186803b15801561032d57600080fd5b505afa158015610341573d6000803e3d6000fd5b505050506040513d601f19601f820116820180604052508101906103659190610779565b61036f919061062d565b836103c2565b905092915050565b600060016000838152602001908152602001600020549050919050565b60007f0000000000000000000000000000000000000000000000000000000000000000905090565b60006103cc61039a565b8267ffffffffffffffff1610156103e65760009050610456565b6103ee61013d565b6103f661039a565b610400919061062d565b8267ffffffffffffffff16111561041957829050610456565b61042161013d565b61042961039a565b8367ffffffffffffffff1661043e91906105f9565b8461044991906107a6565b610453919061082f565b90505b92915050565b6000819050919050565b61046f8161045c565b82525050565b600060208201905061048a6000830184610466565b92915050565b600080fd5b61049e8161045c565b81146104a957600080fd5b50565b6000813590506104bb81610495565b92915050565b6000602082840312156104d7576104d6610490565b5b60006104e5848285016104ac565b91505092915050565b600073ffffffffffffffffffffffffffffffffffffffff82169050919050565b6000610519826104ee565b9050919050565b6105298161050e565b82525050565b60006020820190506105446000830184610520565b92915050565b600067ffffffffffffffff82169050919050565b6105678161054a565b811461057257600080fd5b50565b6000813590506105848161055e565b92915050565b600080604083850312156105a1576105a0610490565b5b60006105af858286016104ac565b92505060206105c085828601610575565b9150509250929050565b7f4e487b7100000000000000000000000000000000000000000000000000000000600052601160045260246000fd5b60006106048261045c565b915061060f8361045c565b925082821015610622576106216105ca565b5b828203905092915050565b60006106388261045c565b91506106438361045c565b9250827fffffffffffffffffffffffffffffffffffffffffffffffffffffffffffffffff03821115610678576106776105ca565b5b828201905092915050565b60006040820190506106986000830185610466565b6106a56020830184610466565b9392505050565b600082825260208201905092915050565b50565b60006106cd6000836106ac565b91506106d8826106bd565b600082019050919050565b600060a0820190506106f86000830187610520565b6107056020830186610520565b6107126040830185610466565b61071f6060830184610466565b8181036080830152610730816106c0565b905095945050505050565b60006040820190506107506000830185610520565b61075d6020830184610466565b9392505050565b60008151905061077381610495565b92915050565b60006020828403121561078f5761078e610490565b5b600061079d84828501610764565b91505092915050565b60006107b18261045c565b91506107bc8361045c565b9250817fffffffffffffffffffffffffffffffffffffffffffffffffffffffffffffffff04831182151516156107f5576107f46105ca565b5b828202905092915050565b7f4e487b7100000000000000000000000000000000000000000000000000000000600052601260045260246000fd5b600061083a8261045c565b91506108458361045c565b92508261085557610854610800565b5b82820490509291505056fea2646970667358221220bdc1b5f1fc7932ced48ecc81cc5702173c3eaae037f651aaee2df8d2aea68a0464736f6c63430008090033",
  "linkReferences": {},
  "deployedLinkReferences": {}
}