{
  "_format": "hh-sol-artifact-1",
  "contractName": "GovernorCompatibilityBravoMock",
  "sourceName": "contracts/oz/mocks/GovernorCompatibilityBravoMock.sol",
  "abi": [
    {
      "inputs": [
        {
          "internalType": "string",
          "name": "name_",
          "type": "string"
        },
        {
          "internalType": "contract ERC20VotesComp",
          "name": "token_",
          "type": "address"
        },
        {
          "internalType": "uint256",
          "name": "votingDelay_",
          "type": "uint256"
        },
        {
          "internalType": "uint256",
          "name": "votingPeriod_",
          "type": "uint256"
        },
        {
          "internalType": "uint256",
          "name": "proposalThreshold_",
          "type": "uint256"
        },
        {
          "internalType": "contract ICompoundTimelock",
          "name": "timelock_",
          "type": "address"
        }
      ],
      "stateMutability": "nonpayable",
      "type": "constructor"
    },
    {
      "anonymous": false,
      "inputs": [
        {
          "indexed": false,
          "internalType": "uint256",
          "name": "proposalId",
          "type": "uint256"
        }
      ],
      "name": "ProposalCanceled",
      "type": "event"
    },
    {
      "anonymous": false,
      "inputs": [
        {
          "indexed": false,
          "internalType": "uint256",
          "name": "proposalId",
          "type": "uint256"
        },
        {
          "indexed": false,
          "internalType": "address",
          "name": "proposer",
          "type": "address"
        },
        {
          "indexed": false,
          "internalType": "address[]",
          "name": "targets",
          "type": "address[]"
        },
        {
          "indexed": false,
          "internalType": "uint256[]",
          "name": "values",
          "type": "uint256[]"
        },
        {
          "indexed": false,
          "internalType": "string[]",
          "name": "signatures",
          "type": "string[]"
        },
        {
          "indexed": false,
          "internalType": "bytes[]",
          "name": "calldatas",
          "type": "bytes[]"
        },
        {
          "indexed": false,
          "internalType": "uint256",
          "name": "startBlock",
          "type": "uint256"
        },
        {
          "indexed": false,
          "internalType": "uint256",
          "name": "endBlock",
          "type": "uint256"
        },
        {
          "indexed": false,
          "internalType": "string",
          "name": "description",
          "type": "string"
        }
      ],
      "name": "ProposalCreated",
      "type": "event"
    },
    {
      "anonymous": false,
      "inputs": [
        {
          "indexed": false,
          "internalType": "uint256",
          "name": "proposalId",
          "type": "uint256"
        }
      ],
      "name": "ProposalExecuted",
      "type": "event"
    },
    {
      "anonymous": false,
      "inputs": [
        {
          "indexed": false,
          "internalType": "uint256",
          "name": "proposalId",
          "type": "uint256"
        },
        {
          "indexed": false,
          "internalType": "uint256",
          "name": "eta",
          "type": "uint256"
        }
      ],
      "name": "ProposalQueued",
      "type": "event"
    },
    {
      "anonymous": false,
      "inputs": [
        {
          "indexed": false,
          "internalType": "uint256",
          "name": "oldProposalThreshold",
          "type": "uint256"
        },
        {
          "indexed": false,
          "internalType": "uint256",
          "name": "newProposalThreshold",
          "type": "uint256"
        }
      ],
      "name": "ProposalThresholdSet",
      "type": "event"
    },
    {
      "anonymous": false,
      "inputs": [
        {
          "indexed": false,
          "internalType": "address",
          "name": "oldTimelock",
          "type": "address"
        },
        {
          "indexed": false,
          "internalType": "address",
          "name": "newTimelock",
          "type": "address"
        }
      ],
      "name": "TimelockChange",
      "type": "event"
    },
    {
      "anonymous": false,
      "inputs": [
        {
          "indexed": true,
          "internalType": "address",
          "name": "voter",
          "type": "address"
        },
        {
          "indexed": false,
          "internalType": "uint256",
          "name": "proposalId",
          "type": "uint256"
        },
        {
          "indexed": false,
          "internalType": "uint8",
          "name": "support",
          "type": "uint8"
        },
        {
          "indexed": false,
          "internalType": "uint256",
          "name": "weight",
          "type": "uint256"
        },
        {
          "indexed": false,
          "internalType": "string",
          "name": "reason",
          "type": "string"
        }
      ],
      "name": "VoteCast",
      "type": "event"
    },
    {
      "anonymous": false,
      "inputs": [
        {
          "indexed": false,
          "internalType": "uint256",
          "name": "oldVotingDelay",
          "type": "uint256"
        },
        {
          "indexed": false,
          "internalType": "uint256",
          "name": "newVotingDelay",
          "type": "uint256"
        }
      ],
      "name": "VotingDelaySet",
      "type": "event"
    },
    {
      "anonymous": false,
      "inputs": [
        {
          "indexed": false,
          "internalType": "uint256",
          "name": "oldVotingPeriod",
          "type": "uint256"
        },
        {
          "indexed": false,
          "internalType": "uint256",
          "name": "newVotingPeriod",
          "type": "uint256"
        }
      ],
      "name": "VotingPeriodSet",
      "type": "event"
    },
    {
      "inputs": [],
      "name": "BALLOT_TYPEHASH",
      "outputs": [
        {
          "internalType": "bytes32",
          "name": "",
          "type": "bytes32"
        }
      ],
      "stateMutability": "view",
      "type": "function"
    },
    {
      "inputs": [],
      "name": "COUNTING_MODE",
      "outputs": [
        {
          "internalType": "string",
          "name": "",
          "type": "string"
        }
      ],
      "stateMutability": "pure",
      "type": "function"
    },
    {
      "inputs": [],
      "name": "__acceptAdmin",
      "outputs": [],
      "stateMutability": "nonpayable",
      "type": "function"
    },
    {
      "inputs": [
        {
          "internalType": "uint256",
          "name": "proposalId",
          "type": "uint256"
        }
      ],
      "name": "cancel",
      "outputs": [],
      "stateMutability": "nonpayable",
      "type": "function"
    },
    {
      "inputs": [
        {
          "internalType": "address[]",
          "name": "targets",
          "type": "address[]"
        },
        {
          "internalType": "uint256[]",
          "name": "values",
          "type": "uint256[]"
        },
        {
          "internalType": "bytes[]",
          "name": "calldatas",
          "type": "bytes[]"
        },
        {
          "internalType": "bytes32",
          "name": "salt",
          "type": "bytes32"
        }
      ],
      "name": "cancel",
      "outputs": [
        {
          "internalType": "uint256",
          "name": "proposalId",
          "type": "uint256"
        }
      ],
      "stateMutability": "nonpayable",
      "type": "function"
    },
    {
      "inputs": [
        {
          "internalType": "uint256",
          "name": "proposalId",
          "type": "uint256"
        },
        {
          "internalType": "uint8",
          "name": "support",
          "type": "uint8"
        }
      ],
      "name": "castVote",
      "outputs": [
        {
          "internalType": "uint256",
          "name": "",
          "type": "uint256"
        }
      ],
      "stateMutability": "nonpayable",
      "type": "function"
    },
    {
      "inputs": [
        {
          "internalType": "uint256",
          "name": "proposalId",
          "type": "uint256"
        },
        {
          "internalType": "uint8",
          "name": "support",
          "type": "uint8"
        },
        {
          "internalType": "uint8",
          "name": "v",
          "type": "uint8"
        },
        {
          "internalType": "bytes32",
          "name": "r",
          "type": "bytes32"
        },
        {
          "internalType": "bytes32",
          "name": "s",
          "type": "bytes32"
        }
      ],
      "name": "castVoteBySig",
      "outputs": [
        {
          "internalType": "uint256",
          "name": "",
          "type": "uint256"
        }
      ],
      "stateMutability": "nonpayable",
      "type": "function"
    },
    {
      "inputs": [
        {
          "internalType": "uint256",
          "name": "proposalId",
          "type": "uint256"
        },
        {
          "internalType": "uint8",
          "name": "support",
          "type": "uint8"
        },
        {
          "internalType": "string",
          "name": "reason",
          "type": "string"
        }
      ],
      "name": "castVoteWithReason",
      "outputs": [
        {
          "internalType": "uint256",
          "name": "",
          "type": "uint256"
        }
      ],
      "stateMutability": "nonpayable",
      "type": "function"
    },
    {
      "inputs": [
        {
          "internalType": "address[]",
          "name": "targets",
          "type": "address[]"
        },
        {
          "internalType": "uint256[]",
          "name": "values",
          "type": "uint256[]"
        },
        {
          "internalType": "bytes[]",
          "name": "calldatas",
          "type": "bytes[]"
        },
        {
          "internalType": "bytes32",
          "name": "salt",
          "type": "bytes32"
        }
      ],
      "name": "execute",
      "outputs": [
        {
          "internalType": "uint256",
          "name": "",
          "type": "uint256"
        }
      ],
      "stateMutability": "payable",
      "type": "function"
    },
    {
      "inputs": [
        {
          "internalType": "uint256",
          "name": "proposalId",
          "type": "uint256"
        }
      ],
      "name": "execute",
      "outputs": [],
      "stateMutability": "payable",
      "type": "function"
    },
    {
      "inputs": [
        {
          "internalType": "uint256",
          "name": "proposalId",
          "type": "uint256"
        }
      ],
      "name": "getActions",
      "outputs": [
        {
          "internalType": "address[]",
          "name": "targets",
          "type": "address[]"
        },
        {
          "internalType": "uint256[]",
          "name": "values",
          "type": "uint256[]"
        },
        {
          "internalType": "string[]",
          "name": "signatures",
          "type": "string[]"
        },
        {
          "internalType": "bytes[]",
          "name": "calldatas",
          "type": "bytes[]"
        }
      ],
      "stateMutability": "view",
      "type": "function"
    },
    {
      "inputs": [
        {
          "internalType": "uint256",
          "name": "proposalId",
          "type": "uint256"
        },
        {
          "internalType": "address",
          "name": "voter",
          "type": "address"
        }
      ],
      "name": "getReceipt",
      "outputs": [
        {
          "components": [
            {
              "internalType": "bool",
              "name": "hasVoted",
              "type": "bool"
            },
            {
              "internalType": "uint8",
              "name": "support",
              "type": "uint8"
            },
            {
              "internalType": "uint96",
              "name": "votes",
              "type": "uint96"
            }
          ],
          "internalType": "struct IGovernorCompatibilityBravo.Receipt",
          "name": "",
          "type": "tuple"
        }
      ],
      "stateMutability": "view",
      "type": "function"
    },
    {
      "inputs": [
        {
          "internalType": "address",
          "name": "account",
          "type": "address"
        },
        {
          "internalType": "uint256",
          "name": "blockNumber",
          "type": "uint256"
        }
      ],
      "name": "getVotes",
      "outputs": [
        {
          "internalType": "uint256",
          "name": "",
          "type": "uint256"
        }
      ],
      "stateMutability": "view",
      "type": "function"
    },
    {
      "inputs": [
        {
          "internalType": "uint256",
          "name": "proposalId",
          "type": "uint256"
        },
        {
          "internalType": "address",
          "name": "account",
          "type": "address"
        }
      ],
      "name": "hasVoted",
      "outputs": [
        {
          "internalType": "bool",
          "name": "",
          "type": "bool"
        }
      ],
      "stateMutability": "view",
      "type": "function"
    },
    {
      "inputs": [
        {
          "internalType": "address[]",
          "name": "targets",
          "type": "address[]"
        },
        {
          "internalType": "uint256[]",
          "name": "values",
          "type": "uint256[]"
        },
        {
          "internalType": "bytes[]",
          "name": "calldatas",
          "type": "bytes[]"
        },
        {
          "internalType": "bytes32",
          "name": "descriptionHash",
          "type": "bytes32"
        }
      ],
      "name": "hashProposal",
      "outputs": [
        {
          "internalType": "uint256",
          "name": "",
          "type": "uint256"
        }
      ],
      "stateMutability": "pure",
      "type": "function"
    },
    {
      "inputs": [],
      "name": "name",
      "outputs": [
        {
          "internalType": "string",
          "name": "",
          "type": "string"
        }
      ],
      "stateMutability": "view",
      "type": "function"
    },
    {
      "inputs": [
        {
          "internalType": "uint256",
          "name": "proposalId",
          "type": "uint256"
        }
      ],
      "name": "proposalDeadline",
      "outputs": [
        {
          "internalType": "uint256",
          "name": "",
          "type": "uint256"
        }
      ],
      "stateMutability": "view",
      "type": "function"
    },
    {
      "inputs": [
        {
          "internalType": "uint256",
          "name": "proposalId",
          "type": "uint256"
        }
      ],
      "name": "proposalEta",
      "outputs": [
        {
          "internalType": "uint256",
          "name": "",
          "type": "uint256"
        }
      ],
      "stateMutability": "view",
      "type": "function"
    },
    {
      "inputs": [
        {
          "internalType": "uint256",
          "name": "proposalId",
          "type": "uint256"
        }
      ],
      "name": "proposalSnapshot",
      "outputs": [
        {
          "internalType": "uint256",
          "name": "",
          "type": "uint256"
        }
      ],
      "stateMutability": "view",
      "type": "function"
    },
    {
      "inputs": [],
      "name": "proposalThreshold",
      "outputs": [
        {
          "internalType": "uint256",
          "name": "",
          "type": "uint256"
        }
      ],
      "stateMutability": "view",
      "type": "function"
    },
    {
      "inputs": [
        {
          "internalType": "uint256",
          "name": "proposalId",
          "type": "uint256"
        }
      ],
      "name": "proposals",
      "outputs": [
        {
          "internalType": "uint256",
          "name": "id",
          "type": "uint256"
        },
        {
          "internalType": "address",
          "name": "proposer",
          "type": "address"
        },
        {
          "internalType": "uint256",
          "name": "eta",
          "type": "uint256"
        },
        {
          "internalType": "uint256",
          "name": "startBlock",
          "type": "uint256"
        },
        {
          "internalType": "uint256",
          "name": "endBlock",
          "type": "uint256"
        },
        {
          "internalType": "uint256",
          "name": "forVotes",
          "type": "uint256"
        },
        {
          "internalType": "uint256",
          "name": "againstVotes",
          "type": "uint256"
        },
        {
          "internalType": "uint256",
          "name": "abstainVotes",
          "type": "uint256"
        },
        {
          "internalType": "bool",
          "name": "canceled",
          "type": "bool"
        },
        {
          "internalType": "bool",
          "name": "executed",
          "type": "bool"
        }
      ],
      "stateMutability": "view",
      "type": "function"
    },
    {
      "inputs": [
        {
          "internalType": "address[]",
          "name": "targets",
          "type": "address[]"
        },
        {
          "internalType": "uint256[]",
          "name": "values",
          "type": "uint256[]"
        },
        {
          "internalType": "bytes[]",
          "name": "calldatas",
          "type": "bytes[]"
        },
        {
          "internalType": "string",
          "name": "description",
          "type": "string"
        }
      ],
      "name": "propose",
      "outputs": [
        {
          "internalType": "uint256",
          "name": "",
          "type": "uint256"
        }
      ],
      "stateMutability": "nonpayable",
      "type": "function"
    },
    {
      "inputs": [
        {
          "internalType": "address[]",
          "name": "targets",
          "type": "address[]"
        },
        {
          "internalType": "uint256[]",
          "name": "values",
          "type": "uint256[]"
        },
        {
          "internalType": "string[]",
          "name": "signatures",
          "type": "string[]"
        },
        {
          "internalType": "bytes[]",
          "name": "calldatas",
          "type": "bytes[]"
        },
        {
          "internalType": "string",
          "name": "description",
          "type": "string"
        }
      ],
      "name": "propose",
      "outputs": [
        {
          "internalType": "uint256",
          "name": "",
          "type": "uint256"
        }
      ],
      "stateMutability": "nonpayable",
      "type": "function"
    },
    {
      "inputs": [
        {
          "internalType": "address[]",
          "name": "targets",
          "type": "address[]"
        },
        {
          "internalType": "uint256[]",
          "name": "values",
          "type": "uint256[]"
        },
        {
          "internalType": "bytes[]",
          "name": "calldatas",
          "type": "bytes[]"
        },
        {
          "internalType": "bytes32",
          "name": "salt",
          "type": "bytes32"
        }
      ],
      "name": "queue",
      "outputs": [
        {
          "internalType": "uint256",
          "name": "",
          "type": "uint256"
        }
      ],
      "stateMutability": "nonpayable",
      "type": "function"
    },
    {
      "inputs": [
        {
          "internalType": "uint256",
          "name": "proposalId",
          "type": "uint256"
        }
      ],
      "name": "queue",
      "outputs": [],
      "stateMutability": "nonpayable",
      "type": "function"
    },
    {
      "inputs": [
        {
          "internalType": "uint256",
          "name": "",
          "type": "uint256"
        }
      ],
      "name": "quorum",
      "outputs": [
        {
          "internalType": "uint256",
          "name": "",
          "type": "uint256"
        }
      ],
      "stateMutability": "pure",
      "type": "function"
    },
    {
      "inputs": [],
      "name": "quorumVotes",
      "outputs": [
        {
          "internalType": "uint256",
          "name": "",
          "type": "uint256"
        }
      ],
      "stateMutability": "view",
      "type": "function"
    },
    {
      "inputs": [
        {
          "internalType": "uint256",
          "name": "newProposalThreshold",
          "type": "uint256"
        }
      ],
      "name": "setProposalThreshold",
      "outputs": [],
      "stateMutability": "nonpayable",
      "type": "function"
    },
    {
      "inputs": [
        {
          "internalType": "uint256",
          "name": "newVotingDelay",
          "type": "uint256"
        }
      ],
      "name": "setVotingDelay",
      "outputs": [],
      "stateMutability": "nonpayable",
      "type": "function"
    },
    {
      "inputs": [
        {
          "internalType": "uint256",
          "name": "newVotingPeriod",
          "type": "uint256"
        }
      ],
      "name": "setVotingPeriod",
      "outputs": [],
      "stateMutability": "nonpayable",
      "type": "function"
    },
    {
      "inputs": [
        {
          "internalType": "uint256",
          "name": "proposalId",
          "type": "uint256"
        }
      ],
      "name": "state",
      "outputs": [
        {
          "internalType": "enum IGovernor.ProposalState",
          "name": "",
          "type": "uint8"
        }
      ],
      "stateMutability": "view",
      "type": "function"
    },
    {
      "inputs": [
        {
          "internalType": "bytes4",
          "name": "interfaceId",
          "type": "bytes4"
        }
      ],
      "name": "supportsInterface",
      "outputs": [
        {
          "internalType": "bool",
          "name": "",
          "type": "bool"
        }
      ],
      "stateMutability": "view",
      "type": "function"
    },
    {
      "inputs": [],
      "name": "timelock",
      "outputs": [
        {
          "internalType": "address",
          "name": "",
          "type": "address"
        }
      ],
      "stateMutability": "view",
      "type": "function"
    },
    {
      "inputs": [],
      "name": "token",
      "outputs": [
        {
          "internalType": "contract ERC20VotesComp",
          "name": "",
          "type": "address"
        }
      ],
      "stateMutability": "view",
      "type": "function"
    },
    {
      "inputs": [
        {
          "internalType": "contract ICompoundTimelock",
          "name": "newTimelock",
          "type": "address"
        }
      ],
      "name": "updateTimelock",
      "outputs": [],
      "stateMutability": "nonpayable",
      "type": "function"
    },
    {
      "inputs": [],
      "name": "version",
      "outputs": [
        {
          "internalType": "string",
          "name": "",
          "type": "string"
        }
      ],
      "stateMutability": "view",
      "type": "function"
    },
    {
      "inputs": [],
      "name": "votingDelay",
      "outputs": [
        {
          "internalType": "uint256",
          "name": "",
          "type": "uint256"
        }
      ],
      "stateMutability": "view",
      "type": "function"
    },
    {
      "inputs": [],
      "name": "votingPeriod",
      "outputs": [
        {
          "internalType": "uint256",
          "name": "",
          "type": "uint256"
        }
      ],
      "stateMutability": "view",
      "type": "function"
    },
    {
      "stateMutability": "payable",
      "type": "receive"
    }
  ],
  "bytecode": "0x6101606040523480156200001257600080fd5b50604051620079a7380380620079a7833981810160405281019062000038919062000734565b84818585858a806200004f620001a560201b60201c565b60008280519060200120905060008280519060200120905060007f8b73c3c69bb8fe3d512ecc4cf759cc79239f7b179b0ffacaa9a75d522b39400f90508260e081815250508161010081815250504660a08181525050620000b8818484620001e260201b60201c565b608081815250503073ffffffffffffffffffffffffffffffffffffffff1660c08173ffffffffffffffffffffffffffffffffffffffff16815250508061012081815250505050505050806000908051906020019062000119929190620003da565b50506200012c836200021e60201b60201c565b6200013d826200026560201b60201c565b6200014e81620002f260201b60201c565b50505062000162816200033960201b60201c565b508073ffffffffffffffffffffffffffffffffffffffff166101408173ffffffffffffffffffffffffffffffffffffffff168152505050505050505050620009f1565b60606040518060400160405280600181526020017f3100000000000000000000000000000000000000000000000000000000000000815250905090565b60008383834630604051602001620001ff9594939291906200082c565b6040516020818303038152906040528051906020012090509392505050565b7fc565b045403dc03c2eea82b81a0465edad9e2e7fc4d97e11421c209da93d7a93600354826040516200025392919062000889565b60405180910390a18060038190555050565b60008111620002ab576040517f08c379a0000000000000000000000000000000000000000000000000000000008152600401620002a2906200093d565b60405180910390fd5b7f7e3f7f0708a84de9203036abaa450dccc85ad5ff52f78c170f3edb55cf5e882860045482604051620002e092919062000889565b60405180910390a18060048190555050565b7fccb45da8d5717e6c4544694297c4ba5cf151d455c9bb0ed4fc7a38411bc05461600554826040516200032792919062000889565b60405180910390a18060058190555050565b7f08f74ea46ef7894f65eabfb5e6e695de773a000b47c529ab559178069b226401600660009054906101000a900473ffffffffffffffffffffffffffffffffffffffff16826040516200038e9291906200095f565b60405180910390a180600660006101000a81548173ffffffffffffffffffffffffffffffffffffffff021916908373ffffffffffffffffffffffffffffffffffffffff16021790555050565b828054620003e890620009bb565b90600052602060002090601f0160209004810192826200040c576000855562000458565b82601f106200042757805160ff191683800117855562000458565b8280016001018555821562000458579182015b82811115620004575782518255916020019190600101906200043a565b5b5090506200046791906200046b565b5090565b5b80821115620004865760008160009055506001016200046c565b5090565b6000604051905090565b600080fd5b600080fd5b600080fd5b600080fd5b6000601f19601f8301169050919050565b7f4e487b7100000000000000000000000000000000000000000000000000000000600052604160045260246000fd5b620004f382620004a8565b810181811067ffffffffffffffff82111715620005155762000514620004b9565b5b80604052505050565b60006200052a6200048a565b9050620005388282620004e8565b919050565b600067ffffffffffffffff8211156200055b576200055a620004b9565b5b6200056682620004a8565b9050602081019050919050565b60005b838110156200059357808201518184015260208101905062000576565b83811115620005a3576000848401525b50505050565b6000620005c0620005ba846200053d565b6200051e565b905082815260208101848484011115620005df57620005de620004a3565b5b620005ec84828562000573565b509392505050565b600082601f8301126200060c576200060b6200049e565b5b81516200061e848260208601620005a9565b91505092915050565b600073ffffffffffffffffffffffffffffffffffffffff82169050919050565b6000620006548262000627565b9050919050565b6000620006688262000647565b9050919050565b6200067a816200065b565b81146200068657600080fd5b50565b6000815190506200069a816200066f565b92915050565b6000819050919050565b620006b581620006a0565b8114620006c157600080fd5b50565b600081519050620006d581620006aa565b92915050565b6000620006e88262000627565b9050919050565b6000620006fc82620006db565b9050919050565b6200070e81620006ef565b81146200071a57600080fd5b50565b6000815190506200072e8162000703565b92915050565b60008060008060008060c0878903121562000754576200075362000494565b5b600087015167ffffffffffffffff81111562000775576200077462000499565b5b6200078389828a01620005f4565b96505060206200079689828a0162000689565b9550506040620007a989828a01620006c4565b9450506060620007bc89828a01620006c4565b9350506080620007cf89828a01620006c4565b92505060a0620007e289828a016200071d565b9150509295509295509295565b6000819050919050565b6200080481620007ef565b82525050565b6200081581620006a0565b82525050565b620008268162000647565b82525050565b600060a082019050620008436000830188620007f9565b620008526020830187620007f9565b620008616040830186620007f9565b6200087060608301856200080a565b6200087f60808301846200081b565b9695505050505050565b6000604082019050620008a060008301856200080a565b620008af60208301846200080a565b9392505050565b600082825260208201905092915050565b7f476f7665726e6f7253657474696e67733a20766f74696e6720706572696f642060008201527f746f6f206c6f7700000000000000000000000000000000000000000000000000602082015250565b600062000925602783620008b6565b91506200093282620008c7565b604082019050919050565b60006020820190508181036000830152620009588162000916565b9050919050565b60006040820190506200097660008301856200081b565b6200098560208301846200081b565b9392505050565b7f4e487b7100000000000000000000000000000000000000000000000000000000600052602260045260246000fd5b60006002820490506001821680620009d457607f821691505b60208210811415620009eb57620009ea6200098c565b5b50919050565b60805160a05160c05160e051610100516101205161014051616f5462000a5360003960008181611cd00152612d9b01526000613061015260006130a30152600061308201526000612fb70152600061300d015260006130360152616f546000f3fe6080604052600436106102295760003560e01c80637d5e81e211610123578063dd4e2ba5116100ab578063eb9019d41161006f578063eb9019d414610924578063ece40cc114610961578063f8ce560a1461098a578063fc0c546a146109c7578063fe0d94c1146109f25761026f565b8063dd4e2ba51461083f578063ddf0b0091461086a578063deaaa7cc14610893578063e23a9a52146108be578063ea0217cf146108fb5761026f565b8063b9a61961116100f2578063b9a6196114610746578063c01f9e371461075d578063c59057e41461079a578063d33219b4146107d7578063da95691a146108025761026f565b80637d5e81e214610678578063a890c910146106b5578063ab58fb8e146106de578063b58131b01461071b5761026f565b80633932abb1116101b1578063452115d611610175578063452115d61461056d57806354fd4d50146105aa57806356781388146105d557806370b0f660146106125780637b3c71d31461063b5761026f565b80633932abb1146104625780633bccf4fd1461048d5780633e4f49e6146104ca57806340e58ee51461050757806343859632146105305761026f565b8063160cbed7116101f8578063160cbed71461034d57806324bc1a641461038a5780632656227d146103b55780632d63f693146103e5578063328dd982146104225761026f565b8063013cf08b1461027457806301ffc9a7146102ba57806302a251a3146102f757806306fdde03146103225761026f565b3661026f573073ffffffffffffffffffffffffffffffffffffffff1661024d610a0e565b73ffffffffffffffffffffffffffffffffffffffff161461026d57600080fd5b005b600080fd5b34801561028057600080fd5b5061029b60048036038101906102969190614665565b610a1d565b6040516102b19a999897969594939291906146fd565b60405180910390f35b3480156102c657600080fd5b506102e160048036038101906102dc91906147f1565b610b12565b6040516102ee919061481e565b60405180910390f35b34801561030357600080fd5b5061030c610b24565b6040516103199190614839565b60405180910390f35b34801561032e57600080fd5b50610337610b2e565b60405161034491906148ed565b60405180910390f35b34801561035957600080fd5b50610374600480360381019061036f9190614d12565b610bc0565b6040516103819190614839565b60405180910390f35b34801561039657600080fd5b5061039f610bd8565b6040516103ac9190614839565b60405180910390f35b6103cf60048036038101906103ca9190614d12565b610bf4565b6040516103dc9190614839565b60405180910390f35b3480156103f157600080fd5b5061040c60048036038101906104079190614665565b610c0c565b6040516104199190614839565b60405180910390f35b34801561042e57600080fd5b5061044960048036038101906104449190614665565b610c7a565b604051610459949392919061516c565b60405180910390f35b34801561046e57600080fd5b50610477610f37565b6040516104849190614839565b60405180910390f35b34801561049957600080fd5b506104b460048036038101906104af9190615206565b610f41565b6040516104c19190614839565b60405180910390f35b3480156104d657600080fd5b506104f160048036038101906104ec9190614665565b610fcb565b6040516104fe91906152f8565b60405180910390f35b34801561051357600080fd5b5061052e60048036038101906105299190614665565b610fdd565b005b34801561053c57600080fd5b5061055760048036038101906105529190615313565b611375565b604051610564919061481e565b60405180910390f35b34801561057957600080fd5b50610594600480360381019061058f9190614d12565b6113e3565b6040516105a19190614839565b60405180910390f35b3480156105b657600080fd5b506105bf6113fb565b6040516105cc91906148ed565b60405180910390f35b3480156105e157600080fd5b506105fc60048036038101906105f79190615353565b611438565b6040516106099190614839565b60405180910390f35b34801561061e57600080fd5b5061063960048036038101906106349190614665565b611469565b005b34801561064757600080fd5b50610662600480360381019061065d91906153ee565b6114f1565b60405161066f9190614839565b60405180910390f35b34801561068457600080fd5b5061069f600480360381019061069a9190615503565b611559565b6040516106ac9190614839565b60405180910390f35b3480156106c157600080fd5b506106dc60048036038101906106d7919061562a565b611571565b005b3480156106ea57600080fd5b5061070560048036038101906107009190614665565b6115f9565b6040516107129190614839565b60405180910390f35b34801561072757600080fd5b5061073061160b565b60405161073d9190614839565b60405180910390f35b34801561075257600080fd5b5061075b61161a565b005b34801561076957600080fd5b50610784600480360381019061077f9190614665565b61169e565b6040516107919190614839565b60405180910390f35b3480156107a657600080fd5b506107c160048036038101906107bc9190614d12565b61170c565b6040516107ce9190614839565b60405180910390f35b3480156107e357600080fd5b506107ec611748565b6040516107f99190615657565b60405180910390f35b34801561080e57600080fd5b5061082960048036038101906108249190615753565b611772565b6040516108369190614839565b60405180910390f35b34801561084b57600080fd5b506108546117a9565b60405161086191906148ed565b60405180910390f35b34801561087657600080fd5b50610891600480360381019061088c9190614665565b6117e6565b005b34801561089f57600080fd5b506108a8611a9b565b6040516108b59190615869565b60405180910390f35b3480156108ca57600080fd5b506108e560048036038101906108e09190615313565b611abf565b6040516108f2919061590b565b60405180910390f35b34801561090757600080fd5b50610922600480360381019061091d9190614665565b611ba3565b005b34801561093057600080fd5b5061094b60048036038101906109469190615926565b611c2b565b6040516109589190614839565b60405180910390f35b34801561096d57600080fd5b5061098860048036038101906109839190614665565b611c3f565b005b34801561099657600080fd5b506109b160048036038101906109ac9190614665565b611cc7565b6040516109be9190614839565b60405180910390f35b3480156109d357600080fd5b506109dc611cce565b6040516109e991906159c5565b60405180910390f35b610a0c6004803603810190610a079190614665565b611cf2565b005b6000610a18611fa7565b905090565b6000806000806000806000806000808a9950610a388b6115f9565b9750610a438b610c0c565b9650610a4e8b61169e565b95506000600260008d815260200190815260200160002090508060000160009054906101000a900473ffffffffffffffffffffffffffffffffffffffff1699508060050154955080600601549450806007015493506000610aae8d610fcb565b905060026007811115610ac457610ac3615281565b5b816007811115610ad757610ad6615281565b5b149350600780811115610aed57610aec615281565b5b816007811115610b0057610aff615281565b5b14925050509193959799509193959799565b6000610b1d82611fd1565b9050919050565b6000600454905090565b606060008054610b3d90615a0f565b80601f0160208091040260200160405190810160405280929190818152602001828054610b6990615a0f565b8015610bb65780601f10610b8b57610100808354040283529160200191610bb6565b820191906000526020600020905b815481529060010190602001808311610b9957829003601f168201915b5050505050905090565b6000610bce8585858561204b565b9050949350505050565b6000610bef600143610bea9190615a70565b611cc7565b905090565b6000610c0285858585612475565b9050949350505050565b6000610c69600160008481526020019081526020016000206000016040518060200160405290816000820160009054906101000a900467ffffffffffffffff1667ffffffffffffffff1667ffffffffffffffff16815250506125a8565b67ffffffffffffffff169050919050565b60608060608060006002600087815260200190815260200160002090508060010181600201826003018360040183805480602002602001604051908101604052809291908181526020018280548015610d2857602002820191906000526020600020905b8160009054906101000a900473ffffffffffffffffffffffffffffffffffffffff1673ffffffffffffffffffffffffffffffffffffffff1681526020019060010190808311610cde575b5050505050935082805480602002602001604051908101604052809291908181526020018280548015610d7a57602002820191906000526020600020905b815481526020019060010190808311610d66575b5050505050925081805480602002602001604051908101604052809291908181526020016000905b82821015610e4e578382906000526020600020018054610dc190615a0f565b80601f0160208091040260200160405190810160405280929190818152602001828054610ded90615a0f565b8015610e3a5780601f10610e0f57610100808354040283529160200191610e3a565b820191906000526020600020905b815481529060010190602001808311610e1d57829003601f168201915b505050505081526020019060010190610da2565b50505050915080805480602002602001604051908101604052809291908181526020016000905b82821015610f21578382906000526020600020018054610e9490615a0f565b80601f0160208091040260200160405190810160405280929190818152602001828054610ec090615a0f565b8015610f0d5780601f10610ee257610100808354040283529160200191610f0d565b820191906000526020600020905b815481529060010190602001808311610ef057829003601f168201915b505050505081526020019060010190610e75565b5050505090509450945094509450509193509193565b6000600354905090565b600080610fa2610f9a7f150214d74d59b7d1e90c73fc22ef3d991dd0a76b046543d4d80ab92d2a50328f8989604051602001610f7f93929190615ab3565b604051602081830303815290604052805190602001206125b6565b8686866125d0565b9050610fbf878288604051806020016040528060008152506125fb565b91505095945050505050565b6000610fd68261274f565b9050919050565b60006002600083815260200190815260200160002090508060000160009054906101000a900473ffffffffffffffffffffffffffffffffffffffff1673ffffffffffffffffffffffffffffffffffffffff1661103761287a565b73ffffffffffffffffffffffffffffffffffffffff161480611098575061105c61160b565b6110968260000160009054906101000a900473ffffffffffffffffffffffffffffffffffffffff166001436110919190615a70565b611c2b565b105b6110d7576040517f08c379a00000000000000000000000000000000000000000000000000000000081526004016110ce90615b5c565b60405180910390fd5b6113708160010180548060200260200160405190810160405280929190818152602001828054801561115e57602002820191906000526020600020905b8160009054906101000a900473ffffffffffffffffffffffffffffffffffffffff1673ffffffffffffffffffffffffffffffffffffffff1681526020019060010190808311611114575b5050505050826002018054806020026020016040519081016040528092919081815260200182805480156111b157602002820191906000526020600020905b81548152602001906001019080831161119d575b505050505061136684600301805480602002602001604051908101604052809291908181526020016000905b828210156112895783829060005260206000200180546111fc90615a0f565b80601f016020809104026020016040519081016040528092919081815260200182805461122890615a0f565b80156112755780601f1061124a57610100808354040283529160200191611275565b820191906000526020600020905b81548152906001019060200180831161125857829003601f168201915b5050505050815260200190600101906111dd565b5050505085600401805480602002602001604051908101604052809291908181526020016000905b8282101561135d5783829060005260206000200180546112d090615a0f565b80601f01602080910402602001604051908101604052809291908181526020018280546112fc90615a0f565b80156113495780601f1061131e57610100808354040283529160200191611349565b820191906000526020600020905b81548152906001019060200180831161132c57829003601f168201915b5050505050815260200190600101906112b1565b50505050612882565b8460090154612a19565b505050565b60006002600084815260200190815260200160002060080160008373ffffffffffffffffffffffffffffffffffffffff1673ffffffffffffffffffffffffffffffffffffffff16815260200190815260200160002060000160009054906101000a900460ff16905092915050565b60006113f185858585612a19565b9050949350505050565b60606040518060400160405280600181526020017f3100000000000000000000000000000000000000000000000000000000000000815250905090565b60008061144361287a565b9050611460848285604051806020016040528060008152506125fb565b91505092915050565b611471610a0e565b73ffffffffffffffffffffffffffffffffffffffff1661148f61287a565b73ffffffffffffffffffffffffffffffffffffffff16146114e5576040517f08c379a00000000000000000000000000000000000000000000000000000000081526004016114dc90615bc8565b60405180910390fd5b6114ee81612a31565b50565b6000806114fc61287a565b905061154e86828787878080601f016020809104026020016040519081016040528093929190818152602001838380828437600081840152601f19601f820116905080830192505050505050506125fb565b915050949350505050565b600061156785858585612a76565b9050949350505050565b611579610a0e565b73ffffffffffffffffffffffffffffffffffffffff1661159761287a565b73ffffffffffffffffffffffffffffffffffffffff16146115ed576040517f08c379a00000000000000000000000000000000000000000000000000000000081526004016115e490615bc8565b60405180910390fd5b6115f681612af1565b50565b600061160482612b90565b9050919050565b6000611615612bfe565b905090565b600660009054906101000a900473ffffffffffffffffffffffffffffffffffffffff1673ffffffffffffffffffffffffffffffffffffffff16630e18b6816040518163ffffffff1660e01b8152600401600060405180830381600087803b15801561168457600080fd5b505af1158015611698573d6000803e3d6000fd5b50505050565b60006116fb600160008481526020019081526020016000206001016040518060200160405290816000820160009054906101000a900467ffffffffffffffff1667ffffffffffffffff1667ffffffffffffffff16815250506125a8565b67ffffffffffffffff169050919050565b6000848484846040516020016117259493929190615be8565b6040516020818303038152906040528051906020012060001c9050949350505050565b6000600660009054906101000a900473ffffffffffffffffffffffffffffffffffffffff16905090565b600061178961177f61287a565b8787878787612c08565b61179e86866117988787612882565b85611559565b905095945050505050565b60606040518060400160405280601a81526020017f737570706f72743d627261766f2671756f72756d3d627261766f000000000000815250905090565b6000600260008381526020019081526020016000209050611a968160010180548060200260200160405190810160405280929190818152602001828054801561188457602002820191906000526020600020905b8160009054906101000a900473ffffffffffffffffffffffffffffffffffffffff1673ffffffffffffffffffffffffffffffffffffffff168152602001906001019080831161183a575b5050505050826002018054806020026020016040519081016040528092919081815260200182805480156118d757602002820191906000526020600020905b8154815260200190600101908083116118c3575b5050505050611a8c84600301805480602002602001604051908101604052809291908181526020016000905b828210156119af57838290600052602060002001805461192290615a0f565b80601f016020809104026020016040519081016040528092919081815260200182805461194e90615a0f565b801561199b5780601f106119705761010080835404028352916020019161199b565b820191906000526020600020905b81548152906001019060200180831161197e57829003601f168201915b505050505081526020019060010190611903565b5050505085600401805480602002602001604051908101604052809291908181526020016000905b82821015611a835783829060005260206000200180546119f690615a0f565b80601f0160208091040260200160405190810160405280929190818152602001828054611a2290615a0f565b8015611a6f5780601f10611a4457610100808354040283529160200191611a6f565b820191906000526020600020905b815481529060010190602001808311611a5257829003601f168201915b5050505050815260200190600101906119d7565b50505050612882565b8460090154610bc0565b505050565b7f150214d74d59b7d1e90c73fc22ef3d991dd0a76b046543d4d80ab92d2a50328f81565b611ac761425f565b6002600084815260200190815260200160002060080160008373ffffffffffffffffffffffffffffffffffffffff1673ffffffffffffffffffffffffffffffffffffffff1681526020019081526020016000206040518060600160405290816000820160009054906101000a900460ff161515151581526020016000820160019054906101000a900460ff1660ff1660ff1681526020016000820160029054906101000a90046bffffffffffffffffffffffff166bffffffffffffffffffffffff166bffffffffffffffffffffffff1681525050905092915050565b611bab610a0e565b73ffffffffffffffffffffffffffffffffffffffff16611bc961287a565b73ffffffffffffffffffffffffffffffffffffffff1614611c1f576040517f08c379a0000000000000000000000000000000000000000000000000000000008152600401611c1690615bc8565b60405180910390fd5b611c2881612d0f565b50565b6000611c378383612d97565b905092915050565b611c47610a0e565b73ffffffffffffffffffffffffffffffffffffffff16611c6561287a565b73ffffffffffffffffffffffffffffffffffffffff1614611cbb576040517f08c379a0000000000000000000000000000000000000000000000000000000008152600401611cb290615bc8565b60405180910390fd5b611cc481612e5a565b50565b6000919050565b7f000000000000000000000000000000000000000000000000000000000000000081565b6000600260008381526020019081526020016000209050611fa281600101805480602002602001604051908101604052809291908181526020018280548015611d9057602002820191906000526020600020905b8160009054906101000a900473ffffffffffffffffffffffffffffffffffffffff1673ffffffffffffffffffffffffffffffffffffffff1681526020019060010190808311611d46575b505050505082600201805480602002602001604051908101604052809291908181526020018280548015611de357602002820191906000526020600020905b815481526020019060010190808311611dcf575b5050505050611f9884600301805480602002602001604051908101604052809291908181526020016000905b82821015611ebb578382906000526020600020018054611e2e90615a0f565b80601f0160208091040260200160405190810160405280929190818152602001828054611e5a90615a0f565b8015611ea75780601f10611e7c57610100808354040283529160200191611ea7565b820191906000526020600020905b815481529060010190602001808311611e8a57829003601f168201915b505050505081526020019060010190611e0f565b5050505085600401805480602002602001604051908101604052809291908181526020016000905b82821015611f8f578382906000526020600020018054611f0290615a0f565b80601f0160208091040260200160405190810160405280929190818152602001828054611f2e90615a0f565b8015611f7b5780601f10611f5057610100808354040283529160200191611f7b565b820191906000526020600020905b815481529060010190602001808311611f5e57829003601f168201915b505050505081526020019060010190611ee3565b50505050612882565b8460090154610bf4565b505050565b6000600660009054906101000a900473ffffffffffffffffffffffffffffffffffffffff16905090565b60007f6e665ced000000000000000000000000000000000000000000000000000000007bffffffffffffffffffffffffffffffffffffffffffffffffffffffff1916827bffffffffffffffffffffffffffffffffffffffffffffffffffffffff19161480612044575061204382612e9f565b5b9050919050565b60008061205a8686868661170c565b9050600460078111156120705761206f615281565b5b61207982610fcb565b600781111561208b5761208a615281565b5b146120cb576040517f08c379a00000000000000000000000000000000000000000000000000000000081526004016120c290615cb4565b60405180910390fd5b6000600660009054906101000a900473ffffffffffffffffffffffffffffffffffffffff1673ffffffffffffffffffffffffffffffffffffffff16636a42b8f86040518163ffffffff1660e01b815260040160206040518083038186803b15801561213557600080fd5b505afa158015612149573d6000803e3d6000fd5b505050506040513d601f19601f8201168201806040525081019061216d9190615ce9565b426121789190615d16565b90506121aa61218682612f19565b60076000858152602001908152602001600020600001612f7090919063ffffffff16565b60005b875181101561242e57600660009054906101000a900473ffffffffffffffffffffffffffffffffffffffff1673ffffffffffffffffffffffffffffffffffffffff1663f2b0653789838151811061220757612206615d6c565b5b602002602001015189848151811061222257612221615d6c565b5b602002602001015189858151811061223d5761223c615d6c565b5b6020026020010151866040516020016122599493929190615e0b565b604051602081830303815290604052805190602001206040518263ffffffff1660e01b815260040161228b9190615869565b60206040518083038186803b1580156122a357600080fd5b505afa1580156122b7573d6000803e3d6000fd5b505050506040513d601f19601f820116820180604052508101906122db9190615e96565b1561231b576040517f08c379a000000000000000000000000000000000000000000000000000000000815260040161231290615f5b565b60405180910390fd5b600660009054906101000a900473ffffffffffffffffffffffffffffffffffffffff1673ffffffffffffffffffffffffffffffffffffffff16633a66f90189838151811061236c5761236b615d6c565b5b602002602001015189848151811061238757612386615d6c565b5b60200260200101518985815181106123a2576123a1615d6c565b5b6020026020010151866040518563ffffffff1660e01b81526004016123ca9493929190615e0b565b602060405180830381600087803b1580156123e457600080fd5b505af11580156123f8573d6000803e3d6000fd5b505050506040513d601f19601f8201168201806040525081019061241c9190615f90565b508061242790615fbd565b90506121ad565b507f9a2e42fd6722813d69113e7d0079d3d940171428df7373df9c7f7617cfda28928282604051612460929190616006565b60405180910390a18192505050949350505050565b6000806124848686868661170c565b9050600061249182610fcb565b9050600460078111156124a7576124a6615281565b5b8160078111156124ba576124b9615281565b5b14806124ea5750600560078111156124d5576124d4615281565b5b8160078111156124e8576124e7615281565b5b145b612529576040517f08c379a000000000000000000000000000000000000000000000000000000000815260040161252090615cb4565b60405180910390fd5b600180600084815260200190815260200160002060020160006101000a81548160ff0219169083151502179055507f712ae1383f79ac853f8d882153778e0260ef8f03b504e2866e0593e04d2b291f826040516125869190614839565b60405180910390a161259b8288888888612f9f565b8192505050949350505050565b600081600001519050919050565b60006125c96125c3612fb3565b836130cd565b9050919050565b60008060006125e187878787613100565b915091506125ee8161320d565b8192505050949350505050565b6000806001600087815260200190815260200160002090506001600781111561262757612626615281565b5b61263087610fcb565b600781111561264257612641615281565b5b14612682576040517f08c379a0000000000000000000000000000000000000000000000000000000008152600401612679906160a1565b60405180910390fd5b60006126e0866126d1846000016040518060200160405290816000820160009054906101000a900467ffffffffffffffff1667ffffffffffffffff1667ffffffffffffffff16815250506125a8565b67ffffffffffffffff16611c2b565b90506126ee878787846133e2565b8573ffffffffffffffffffffffffffffffffffffffff167fb8e138887d0aa13bab447e82de9d5c1777041ecd21ca36ba824ff1e6c07ddda48887848860405161273a94939291906160c1565b60405180910390a28092505050949350505050565b60008061275b8361360c565b90506004600781111561277157612770615281565b5b81600781111561278457612783615281565b5b146127925780915050612875565b600061279d846115f9565b905060008114156127b2578192505050612875565b600660009054906101000a900473ffffffffffffffffffffffffffffffffffffffff1673ffffffffffffffffffffffffffffffffffffffff1663c1a287e26040518163ffffffff1660e01b815260040160206040518083038186803b15801561281a57600080fd5b505afa15801561282e573d6000803e3d6000fd5b505050506040513d601f19601f820116820180604052508101906128529190615ce9565b8161285d9190615d16565b421061286e57600692505050612875565b6005925050505b919050565b600033905090565b60606000825167ffffffffffffffff8111156128a1576128a0614914565b5b6040519080825280602002602001820160405280156128d457816020015b60608152602001906001900390816128bf5790505b50905060005b8451811015612a0e5760008582815181106128f8576128f7615d6c565b5b602002602001015151146129c35784818151811061291957612918615d6c565b5b602002602001015184828151811061293457612933615d6c565b5b602002602001015160405160240161294c919061610d565b60405160208183030381529060405290604051612969919061616b565b60405180910390207bffffffffffffffffffffffffffffffffffffffffffffffffffffffff19166020820180517bffffffffffffffffffffffffffffffffffffffffffffffffffffffff83818316178352505050506129df565b8381815181106129d6576129d5615d6c565b5b60200260200101515b8282815181106129f2576129f1615d6c565b5b602002602001018190525080612a0790615fbd565b90506128da565b508091505092915050565b6000612a27858585856137e9565b9050949350505050565b7fc565b045403dc03c2eea82b81a0465edad9e2e7fc4d97e11421c209da93d7a9360035482604051612a64929190616006565b60405180910390a18060038190555050565b6000612adb612a8361287a565b8686865167ffffffffffffffff811115612aa057612a9f614914565b5b604051908082528060200260200182016040528015612ad357816020015b6060815260200190600190039081612abe5790505b508787612c08565b612ae78585858561393b565b9050949350505050565b7f08f74ea46ef7894f65eabfb5e6e695de773a000b47c529ab559178069b226401600660009054906101000a900473ffffffffffffffffffffffffffffffffffffffff1682604051612b44929190616182565b60405180910390a180600660006101000a81548173ffffffffffffffffffffffffffffffffffffffff021916908373ffffffffffffffffffffffffffffffffffffffff16021790555050565b6000612bed600760008481526020019081526020016000206000016040518060200160405290816000820160009054906101000a900467ffffffffffffffff1667ffffffffffffffff1667ffffffffffffffff1681525050613c3b565b67ffffffffffffffff169050919050565b6000600554905090565b6000818051906020012090506000612c2b8787612c258888612882565b8561170c565b905060006002600083815260200190815260200160002090506000801b81600901541415612d0457888160000160006101000a81548173ffffffffffffffffffffffffffffffffffffffff021916908373ffffffffffffffffffffffffffffffffffffffff16021790555087816001019080519060200190612cae929190614293565b5086816002019080519060200190612cc792919061431d565b5085816003019080519060200190612ce092919061436a565b5084816004019080519060200190612cf99291906143ca565b508281600901819055505b505050505050505050565b60008111612d52576040517f08c379a0000000000000000000000000000000000000000000000000000000008152600401612d499061621d565b60405180910390fd5b7f7e3f7f0708a84de9203036abaa450dccc85ad5ff52f78c170f3edb55cf5e882860045482604051612d85929190616006565b60405180910390a18060048190555050565b60007f000000000000000000000000000000000000000000000000000000000000000073ffffffffffffffffffffffffffffffffffffffff1663782d6fe184846040518363ffffffff1660e01b8152600401612df492919061623d565b60206040518083038186803b158015612e0c57600080fd5b505afa158015612e20573d6000803e3d6000fd5b505050506040513d601f19601f82011682018060405250810190612e449190616292565b6bffffffffffffffffffffffff16905092915050565b7fccb45da8d5717e6c4544694297c4ba5cf151d455c9bb0ed4fc7a38411bc0546160055482604051612e8d929190616006565b60405180910390a18060058190555050565b60007fbf26d897000000000000000000000000000000000000000000000000000000007bffffffffffffffffffffffffffffffffffffffffffffffffffffffff1916827bffffffffffffffffffffffffffffffffffffffffffffffffffffffff19161480612f125750612f1182613c49565b5b9050919050565b600067ffffffffffffffff8016821115612f68576040517f08c379a0000000000000000000000000000000000000000000000000000000008152600401612f5f90616331565b60405180910390fd5b819050919050565b808260000160006101000a81548167ffffffffffffffff021916908367ffffffffffffffff1602179055505050565b612fac8585858585613cb3565b5050505050565b60007f000000000000000000000000000000000000000000000000000000000000000073ffffffffffffffffffffffffffffffffffffffff163073ffffffffffffffffffffffffffffffffffffffff1614801561302f57507f000000000000000000000000000000000000000000000000000000000000000046145b1561305c577f000000000000000000000000000000000000000000000000000000000000000090506130ca565b6130c77f00000000000000000000000000000000000000000000000000000000000000007f00000000000000000000000000000000000000000000000000000000000000007f0000000000000000000000000000000000000000000000000000000000000000613e5c565b90505b90565b600082826040516020016130e29291906163be565b60405160208183030381529060405280519060200120905092915050565b6000807f7fffffffffffffffffffffffffffffff5d576e7357a4501ddfe92f46681b20a08360001c111561313b576000600391509150613204565b601b8560ff16141580156131535750601c8560ff1614155b15613165576000600491509150613204565b60006001878787876040516000815260200160405260405161318a94939291906163f5565b6020604051602081039080840390855afa1580156131ac573d6000803e3d6000fd5b505050602060405103519050600073ffffffffffffffffffffffffffffffffffffffff168173ffffffffffffffffffffffffffffffffffffffff1614156131fb57600060019250925050613204565b80600092509250505b94509492505050565b6000600481111561322157613220615281565b5b81600481111561323457613233615281565b5b141561323f576133df565b6001600481111561325357613252615281565b5b81600481111561326657613265615281565b5b14156132a7576040517f08c379a000000000000000000000000000000000000000000000000000000000815260040161329e90616486565b60405180910390fd5b600260048111156132bb576132ba615281565b5b8160048111156132ce576132cd615281565b5b141561330f576040517f08c379a0000000000000000000000000000000000000000000000000000000008152600401613306906164f2565b60405180910390fd5b6003600481111561332357613322615281565b5b81600481111561333657613335615281565b5b1415613377576040517f08c379a000000000000000000000000000000000000000000000000000000000815260040161336e90616584565b60405180910390fd5b60048081111561338a57613389615281565b5b81600481111561339d5761339c615281565b5b14156133de576040517f08c379a00000000000000000000000000000000000000000000000000000000081526004016133d590616616565b60405180910390fd5b5b50565b600060026000868152602001908152602001600020905060008160080160008673ffffffffffffffffffffffffffffffffffffffff1673ffffffffffffffffffffffffffffffffffffffff16815260200190815260200160002090508060000160009054906101000a900460ff1615613490576040517f08c379a0000000000000000000000000000000000000000000000000000000008152600401613487906166a8565b60405180910390fd5b60018160000160006101000a81548160ff021916908315150217905550838160000160016101000a81548160ff021916908360ff1602179055506134d383613e96565b8160000160026101000a8154816bffffffffffffffffffffffff02191690836bffffffffffffffffffffffff1602179055506000600281111561351957613518615281565b5b60ff168460ff161415613546578282600601600082825461353a9190615d16565b92505081905550613604565b6001600281111561355a57613559615281565b5b60ff168460ff161415613587578282600501600082825461357b9190615d16565b92505081905550613603565b60028081111561359a57613599615281565b5b60ff168460ff1614156135c757828260070160008282546135bb9190615d16565b92505081905550613602565b6040517f08c379a00000000000000000000000000000000000000000000000000000000081526004016135f99061673a565b60405180910390fd5b5b5b505050505050565b60008060016000848152602001908152602001600020604051806080016040529081600082016040518060200160405290816000820160009054906101000a900467ffffffffffffffff1667ffffffffffffffff1667ffffffffffffffff16815250508152602001600182016040518060200160405290816000820160009054906101000a900467ffffffffffffffff1667ffffffffffffffff1667ffffffffffffffff168152505081526020016002820160009054906101000a900460ff161515151581526020016002820160019054906101000a900460ff16151515158152505090508060400151156137055760079150506137e4565b8060600151156137195760029150506137e4565b4361372782600001516125a8565b67ffffffffffffffff16106137405760009150506137e4565b4361374e82602001516125a8565b67ffffffffffffffff16106137675760019150506137e4565b6137748160200151613ef1565b156137a95761378283613f1d565b8015613793575061379283613f55565b5b61379e5760036137a1565b60045b9150506137e4565b6040517f08c379a00000000000000000000000000000000000000000000000000000000081526004016137db906167a6565b60405180910390fd5b919050565b6000806137f886868686613f80565b90506000613805826115f9565b9050600081111561392e5760005b875181101561390e57600660009054906101000a900473ffffffffffffffffffffffffffffffffffffffff1673ffffffffffffffffffffffffffffffffffffffff1663591fcdfe89838151811061386d5761386c615d6c565b5b602002602001015189848151811061388857613887615d6c565b5b60200260200101518985815181106138a3576138a2615d6c565b5b6020026020010151866040518563ffffffff1660e01b81526004016138cb9493929190615e0b565b600060405180830381600087803b1580156138e557600080fd5b505af11580156138f9573d6000803e3d6000fd5b505050508061390790615fbd565b9050613813565b5061392d600760008481526020019081526020016000206000016140d9565b5b8192505050949350505050565b600061394561160b565b61395b336001436139569190615a70565b611c2b565b101561399c576040517f08c379a00000000000000000000000000000000000000000000000000000000081526004016139939061685e565b60405180910390fd5b60006139b1868686868051906020012061170c565b905084518651146139f7576040517f08c379a00000000000000000000000000000000000000000000000000000000081526004016139ee906168f0565b60405180910390fd5b8351865114613a3b576040517f08c379a0000000000000000000000000000000000000000000000000000000008152600401613a32906168f0565b60405180910390fd5b6000865111613a7f576040517f08c379a0000000000000000000000000000000000000000000000000000000008152600401613a769061695c565b60405180910390fd5b6000600160008381526020019081526020016000209050613adf816000016040518060200160405290816000820160009054906101000a900467ffffffffffffffff1667ffffffffffffffff1667ffffffffffffffff1681525050614108565b613b1e576040517f08c379a0000000000000000000000000000000000000000000000000000000008152600401613b15906169ee565b60405180910390fd5b6000613b30613b2b610f37565b612f19565b613b3943612f19565b613b439190616a22565b90506000613b57613b52610b24565b612f19565b82613b629190616a22565b9050613b7a828460000161412290919063ffffffff16565b613b90818460010161412290919063ffffffff16565b7f7d84a6263ae0d98d3329bd7b46bb4e8d6f98cd35a7adb45c274c8b7fd5ebd5e084613bba61287a565b8b8b8d5167ffffffffffffffff811115613bd757613bd6614914565b5b604051908082528060200260200182016040528015613c0a57816020015b6060815260200190600190039081613bf55790505b508c88888e604051613c2499989796959493929190616a91565b60405180910390a183945050505050949350505050565b600081600001519050919050565b60007f01ffc9a7000000000000000000000000000000000000000000000000000000007bffffffffffffffffffffffffffffffffffffffffffffffffffffffff1916827bffffffffffffffffffffffffffffffffffffffffffffffffffffffff1916149050919050565b6000613cbe866115f9565b905060008111613d03576040517f08c379a0000000000000000000000000000000000000000000000000000000008152600401613cfa90616bb3565b60405180910390fd5b613d2f600660009054906101000a900473ffffffffffffffffffffffffffffffffffffffff1634614151565b60005b8551811015613e5357600660009054906101000a900473ffffffffffffffffffffffffffffffffffffffff1673ffffffffffffffffffffffffffffffffffffffff16630825f38f878381518110613d8c57613d8b615d6c565b5b6020026020010151878481518110613da757613da6615d6c565b5b6020026020010151878581518110613dc257613dc1615d6c565b5b6020026020010151866040518563ffffffff1660e01b8152600401613dea9493929190615e0b565b600060405180830381600087803b158015613e0457600080fd5b505af1158015613e18573d6000803e3d6000fd5b505050506040513d6000823e3d601f19601f82011682018060405250810190613e419190616c43565b5080613e4c90615fbd565b9050613d32565b50505050505050565b60008383834630604051602001613e77959493929190616c8c565b6040516020818303038152906040528051906020012090509392505050565b60006bffffffffffffffffffffffff8016821115613ee9576040517f08c379a0000000000000000000000000000000000000000000000000000000008152600401613ee090616d51565b60405180910390fd5b819050919050565b6000613efc82614245565b8015613f16575043826000015167ffffffffffffffff1611155b9050919050565b6000806002600084815260200190815260200160002090508060050154613f4b613f4685610c0c565b611cc7565b1115915050919050565b6000806002600084815260200190815260200160002090508060060154816005015411915050919050565b600080613f8f8686868661170c565b90506000613f9c82610fcb565b905060026007811115613fb257613fb1615281565b5b816007811115613fc557613fc4615281565b5b14158015613ff8575060066007811115613fe257613fe1615281565b5b816007811115613ff557613ff4615281565b5b14155b8015614028575060078081111561401257614011615281565b5b81600781111561402557614024615281565b5b14155b614067576040517f08c379a000000000000000000000000000000000000000000000000000000000815260040161405e90616dbd565b60405180910390fd5b600180600084815260200190815260200160002060020160016101000a81548160ff0219169083151502179055507f789cf55be980739dad1d0699b93b58e806b51c9d96619bfa8fe0a28abaa7b30c826040516140c49190614839565b60405180910390a18192505050949350505050565b60008160000160006101000a81548167ffffffffffffffff021916908367ffffffffffffffff16021790555050565b600080826000015167ffffffffffffffff16149050919050565b808260000160006101000a81548167ffffffffffffffff021916908367ffffffffffffffff1602179055505050565b80471015614194576040517f08c379a000000000000000000000000000000000000000000000000000000000815260040161418b90616e29565b60405180910390fd5b60008273ffffffffffffffffffffffffffffffffffffffff16826040516141ba90616e77565b60006040518083038185875af1925050503d80600081146141f7576040519150601f19603f3d011682016040523d82523d6000602084013e6141fc565b606091505b5050905080614240576040517f08c379a000000000000000000000000000000000000000000000000000000000815260040161423790616efe565b60405180910390fd5b505050565b600080826000015167ffffffffffffffff16119050919050565b6040518060600160405280600015158152602001600060ff16815260200160006bffffffffffffffffffffffff1681525090565b82805482825590600052602060002090810192821561430c579160200282015b8281111561430b5782518260006101000a81548173ffffffffffffffffffffffffffffffffffffffff021916908373ffffffffffffffffffffffffffffffffffffffff160217905550916020019190600101906142b3565b5b509050614319919061442a565b5090565b828054828255906000526020600020908101928215614359579160200282015b8281111561435857825182559160200191906001019061433d565b5b509050614366919061442a565b5090565b8280548282559060005260206000209081019282156143b9579160200282015b828111156143b85782518290805190602001906143a8929190614447565b509160200191906001019061438a565b5b5090506143c691906144cd565b5090565b828054828255906000526020600020908101928215614419579160200282015b828111156144185782518290805190602001906144089291906144f1565b50916020019190600101906143ea565b5b5090506144269190614577565b5090565b5b8082111561444357600081600090555060010161442b565b5090565b82805461445390615a0f565b90600052602060002090601f01602090048101928261447557600085556144bc565b82601f1061448e57805160ff19168380011785556144bc565b828001600101855582156144bc579182015b828111156144bb5782518255916020019190600101906144a0565b5b5090506144c9919061442a565b5090565b5b808211156144ed57600081816144e4919061459b565b506001016144ce565b5090565b8280546144fd90615a0f565b90600052602060002090601f01602090048101928261451f5760008555614566565b82601f1061453857805160ff1916838001178555614566565b82800160010185558215614566579182015b8281111561456557825182559160200191906001019061454a565b5b509050614573919061442a565b5090565b5b80821115614597576000818161458e91906145db565b50600101614578565b5090565b5080546145a790615a0f565b6000825580601f106145b957506145d8565b601f0160209004906000526020600020908101906145d7919061442a565b5b50565b5080546145e790615a0f565b6000825580601f106145f95750614618565b601f016020900490600052602060002090810190614617919061442a565b5b50565b6000604051905090565b600080fd5b600080fd5b6000819050919050565b6146428161462f565b811461464d57600080fd5b50565b60008135905061465f81614639565b92915050565b60006020828403121561467b5761467a614625565b5b600061468984828501614650565b91505092915050565b61469b8161462f565b82525050565b600073ffffffffffffffffffffffffffffffffffffffff82169050919050565b60006146cc826146a1565b9050919050565b6146dc816146c1565b82525050565b60008115159050919050565b6146f7816146e2565b82525050565b600061014082019050614713600083018d614692565b614720602083018c6146d3565b61472d604083018b614692565b61473a606083018a614692565b6147476080830189614692565b61475460a0830188614692565b61476160c0830187614692565b61476e60e0830186614692565b61477c6101008301856146ee565b61478a6101208301846146ee565b9b9a5050505050505050505050565b60007fffffffff0000000000000000000000000000000000000000000000000000000082169050919050565b6147ce81614799565b81146147d957600080fd5b50565b6000813590506147eb816147c5565b92915050565b60006020828403121561480757614806614625565b5b6000614815848285016147dc565b91505092915050565b600060208201905061483360008301846146ee565b92915050565b600060208201905061484e6000830184614692565b92915050565b600081519050919050565b600082825260208201905092915050565b60005b8381101561488e578082015181840152602081019050614873565b8381111561489d576000848401525b50505050565b6000601f19601f8301169050919050565b60006148bf82614854565b6148c9818561485f565b93506148d9818560208601614870565b6148e2816148a3565b840191505092915050565b6000602082019050818103600083015261490781846148b4565b905092915050565b600080fd5b7f4e487b7100000000000000000000000000000000000000000000000000000000600052604160045260246000fd5b61494c826148a3565b810181811067ffffffffffffffff8211171561496b5761496a614914565b5b80604052505050565b600061497e61461b565b905061498a8282614943565b919050565b600067ffffffffffffffff8211156149aa576149a9614914565b5b602082029050602081019050919050565b600080fd5b6149c9816146c1565b81146149d457600080fd5b50565b6000813590506149e6816149c0565b92915050565b60006149ff6149fa8461498f565b614974565b90508083825260208201905060208402830185811115614a2257614a216149bb565b5b835b81811015614a4b5780614a3788826149d7565b845260208401935050602081019050614a24565b5050509392505050565b600082601f830112614a6a57614a6961490f565b5b8135614a7a8482602086016149ec565b91505092915050565b600067ffffffffffffffff821115614a9e57614a9d614914565b5b602082029050602081019050919050565b6000614ac2614abd84614a83565b614974565b90508083825260208201905060208402830185811115614ae557614ae46149bb565b5b835b81811015614b0e5780614afa8882614650565b845260208401935050602081019050614ae7565b5050509392505050565b600082601f830112614b2d57614b2c61490f565b5b8135614b3d848260208601614aaf565b91505092915050565b600067ffffffffffffffff821115614b6157614b60614914565b5b602082029050602081019050919050565b600080fd5b600067ffffffffffffffff821115614b9257614b91614914565b5b614b9b826148a3565b9050602081019050919050565b82818337600083830152505050565b6000614bca614bc584614b77565b614974565b905082815260208101848484011115614be657614be5614b72565b5b614bf1848285614ba8565b509392505050565b600082601f830112614c0e57614c0d61490f565b5b8135614c1e848260208601614bb7565b91505092915050565b6000614c3a614c3584614b46565b614974565b90508083825260208201905060208402830185811115614c5d57614c5c6149bb565b5b835b81811015614ca457803567ffffffffffffffff811115614c8257614c8161490f565b5b808601614c8f8982614bf9565b85526020850194505050602081019050614c5f565b5050509392505050565b600082601f830112614cc357614cc261490f565b5b8135614cd3848260208601614c27565b91505092915050565b6000819050919050565b614cef81614cdc565b8114614cfa57600080fd5b50565b600081359050614d0c81614ce6565b92915050565b60008060008060808587031215614d2c57614d2b614625565b5b600085013567ffffffffffffffff811115614d4a57614d4961462a565b5b614d5687828801614a55565b945050602085013567ffffffffffffffff811115614d7757614d7661462a565b5b614d8387828801614b18565b935050604085013567ffffffffffffffff811115614da457614da361462a565b5b614db087828801614cae565b9250506060614dc187828801614cfd565b91505092959194509250565b600081519050919050565b600082825260208201905092915050565b6000819050602082019050919050565b614e02816146c1565b82525050565b6000614e148383614df9565b60208301905092915050565b6000602082019050919050565b6000614e3882614dcd565b614e428185614dd8565b9350614e4d83614de9565b8060005b83811015614e7e578151614e658882614e08565b9750614e7083614e20565b925050600181019050614e51565b5085935050505092915050565b600081519050919050565b600082825260208201905092915050565b6000819050602082019050919050565b614ec08161462f565b82525050565b6000614ed28383614eb7565b60208301905092915050565b6000602082019050919050565b6000614ef682614e8b565b614f008185614e96565b9350614f0b83614ea7565b8060005b83811015614f3c578151614f238882614ec6565b9750614f2e83614ede565b925050600181019050614f0f565b5085935050505092915050565b600081519050919050565b600082825260208201905092915050565b6000819050602082019050919050565b600082825260208201905092915050565b6000614f9182614854565b614f9b8185614f75565b9350614fab818560208601614870565b614fb4816148a3565b840191505092915050565b6000614fcb8383614f86565b905092915050565b6000602082019050919050565b6000614feb82614f49565b614ff58185614f54565b93508360208202850161500785614f65565b8060005b8581101561504357848403895281516150248582614fbf565b945061502f83614fd3565b925060208a0199505060018101905061500b565b50829750879550505050505092915050565b600081519050919050565b600082825260208201905092915050565b6000819050602082019050919050565b600081519050919050565b600082825260208201905092915050565b60006150a882615081565b6150b2818561508c565b93506150c2818560208601614870565b6150cb816148a3565b840191505092915050565b60006150e2838361509d565b905092915050565b6000602082019050919050565b600061510282615055565b61510c8185615060565b93508360208202850161511e85615071565b8060005b8581101561515a578484038952815161513b85826150d6565b9450615146836150ea565b925060208a01995050600181019050615122565b50829750879550505050505092915050565b600060808201905081810360008301526151868187614e2d565b9050818103602083015261519a8186614eeb565b905081810360408301526151ae8185614fe0565b905081810360608301526151c281846150f7565b905095945050505050565b600060ff82169050919050565b6151e3816151cd565b81146151ee57600080fd5b50565b600081359050615200816151da565b92915050565b600080600080600060a0868803121561522257615221614625565b5b600061523088828901614650565b9550506020615241888289016151f1565b9450506040615252888289016151f1565b935050606061526388828901614cfd565b925050608061527488828901614cfd565b9150509295509295909350565b7f4e487b7100000000000000000000000000000000000000000000000000000000600052602160045260246000fd5b600881106152c1576152c0615281565b5b50565b60008190506152d2826152b0565b919050565b60006152e2826152c4565b9050919050565b6152f2816152d7565b82525050565b600060208201905061530d60008301846152e9565b92915050565b6000806040838503121561532a57615329614625565b5b600061533885828601614650565b9250506020615349858286016149d7565b9150509250929050565b6000806040838503121561536a57615369614625565b5b600061537885828601614650565b9250506020615389858286016151f1565b9150509250929050565b600080fd5b60008083601f8401126153ae576153ad61490f565b5b8235905067ffffffffffffffff8111156153cb576153ca615393565b5b6020830191508360018202830111156153e7576153e66149bb565b5b9250929050565b6000806000806060858703121561540857615407614625565b5b600061541687828801614650565b9450506020615427878288016151f1565b935050604085013567ffffffffffffffff8111156154485761544761462a565b5b61545487828801615398565b925092505092959194509250565b600067ffffffffffffffff82111561547d5761547c614914565b5b615486826148a3565b9050602081019050919050565b60006154a66154a184615462565b614974565b9050828152602081018484840111156154c2576154c1614b72565b5b6154cd848285614ba8565b509392505050565b600082601f8301126154ea576154e961490f565b5b81356154fa848260208601615493565b91505092915050565b6000806000806080858703121561551d5761551c614625565b5b600085013567ffffffffffffffff81111561553b5761553a61462a565b5b61554787828801614a55565b945050602085013567ffffffffffffffff8111156155685761556761462a565b5b61557487828801614b18565b935050604085013567ffffffffffffffff8111156155955761559461462a565b5b6155a187828801614cae565b925050606085013567ffffffffffffffff8111156155c2576155c161462a565b5b6155ce878288016154d5565b91505092959194509250565b60006155e5826146a1565b9050919050565b60006155f7826155da565b9050919050565b615607816155ec565b811461561257600080fd5b50565b600081359050615624816155fe565b92915050565b6000602082840312156156405761563f614625565b5b600061564e84828501615615565b91505092915050565b600060208201905061566c60008301846146d3565b92915050565b600067ffffffffffffffff82111561568d5761568c614914565b5b602082029050602081019050919050565b60006156b16156ac84615672565b614974565b905080838252602082019050602084028301858111156156d4576156d36149bb565b5b835b8181101561571b57803567ffffffffffffffff8111156156f9576156f861490f565b5b80860161570689826154d5565b855260208501945050506020810190506156d6565b5050509392505050565b600082601f83011261573a5761573961490f565b5b813561574a84826020860161569e565b91505092915050565b600080600080600060a0868803121561576f5761576e614625565b5b600086013567ffffffffffffffff81111561578d5761578c61462a565b5b61579988828901614a55565b955050602086013567ffffffffffffffff8111156157ba576157b961462a565b5b6157c688828901614b18565b945050604086013567ffffffffffffffff8111156157e7576157e661462a565b5b6157f388828901615725565b935050606086013567ffffffffffffffff8111156158145761581361462a565b5b61582088828901614cae565b925050608086013567ffffffffffffffff8111156158415761584061462a565b5b61584d888289016154d5565b9150509295509295909350565b61586381614cdc565b82525050565b600060208201905061587e600083018461585a565b92915050565b61588d816146e2565b82525050565b61589c816151cd565b82525050565b60006bffffffffffffffffffffffff82169050919050565b6158c3816158a2565b82525050565b6060820160008201516158df6000850182615884565b5060208201516158f26020850182615893565b50604082015161590560408501826158ba565b50505050565b600060608201905061592060008301846158c9565b92915050565b6000806040838503121561593d5761593c614625565b5b600061594b858286016149d7565b925050602061595c85828601614650565b9150509250929050565b6000819050919050565b600061598b615986615981846146a1565b615966565b6146a1565b9050919050565b600061599d82615970565b9050919050565b60006159af82615992565b9050919050565b6159bf816159a4565b82525050565b60006020820190506159da60008301846159b6565b92915050565b7f4e487b7100000000000000000000000000000000000000000000000000000000600052602260045260246000fd5b60006002820490506001821680615a2757607f821691505b60208210811415615a3b57615a3a6159e0565b5b50919050565b7f4e487b7100000000000000000000000000000000000000000000000000000000600052601160045260246000fd5b6000615a7b8261462f565b9150615a868361462f565b925082821015615a9957615a98615a41565b5b828203905092915050565b615aad816151cd565b82525050565b6000606082019050615ac8600083018661585a565b615ad56020830185614692565b615ae26040830184615aa4565b949350505050565b7f476f7665726e6f72427261766f3a2070726f706f7365722061626f766520746860008201527f726573686f6c6400000000000000000000000000000000000000000000000000602082015250565b6000615b4660278361485f565b9150615b5182615aea565b604082019050919050565b60006020820190508181036000830152615b7581615b39565b9050919050565b7f476f7665726e6f723a206f6e6c79476f7665726e616e63650000000000000000600082015250565b6000615bb260188361485f565b9150615bbd82615b7c565b602082019050919050565b60006020820190508181036000830152615be181615ba5565b9050919050565b60006080820190508181036000830152615c028187614e2d565b90508181036020830152615c168186614eeb565b90508181036040830152615c2a81856150f7565b9050615c39606083018461585a565b95945050505050565b7f476f7665726e6f723a2070726f706f73616c206e6f742073756363657373667560008201527f6c00000000000000000000000000000000000000000000000000000000000000602082015250565b6000615c9e60218361485f565b9150615ca982615c42565b604082019050919050565b60006020820190508181036000830152615ccd81615c91565b9050919050565b600081519050615ce381614639565b92915050565b600060208284031215615cff57615cfe614625565b5b6000615d0d84828501615cd4565b91505092915050565b6000615d218261462f565b9150615d2c8361462f565b9250827fffffffffffffffffffffffffffffffffffffffffffffffffffffffffffffffff03821115615d6157615d60615a41565b5b828201905092915050565b7f4e487b7100000000000000000000000000000000000000000000000000000000600052603260045260246000fd5b50565b6000615dab60008361485f565b9150615db682615d9b565b600082019050919050565b600082825260208201905092915050565b6000615ddd82615081565b615de78185615dc1565b9350615df7818560208601614870565b615e00816148a3565b840191505092915050565b600060a082019050615e2060008301876146d3565b615e2d6020830186614692565b8181036040830152615e3e81615d9e565b90508181036060830152615e528185615dd2565b9050615e616080830184614692565b95945050505050565b615e73816146e2565b8114615e7e57600080fd5b50565b600081519050615e9081615e6a565b92915050565b600060208284031215615eac57615eab614625565b5b6000615eba84828501615e81565b91505092915050565b7f476f7665726e6f7254696d656c6f636b436f6d706f756e643a206964656e746960008201527f63616c2070726f706f73616c20616374696f6e20616c7265616479207175657560208201527f6564000000000000000000000000000000000000000000000000000000000000604082015250565b6000615f4560428361485f565b9150615f5082615ec3565b606082019050919050565b60006020820190508181036000830152615f7481615f38565b9050919050565b600081519050615f8a81614ce6565b92915050565b600060208284031215615fa657615fa5614625565b5b6000615fb484828501615f7b565b91505092915050565b6000615fc88261462f565b91507fffffffffffffffffffffffffffffffffffffffffffffffffffffffffffffffff821415615ffb57615ffa615a41565b5b600182019050919050565b600060408201905061601b6000830185614692565b6160286020830184614692565b9392505050565b7f476f7665726e6f723a20766f7465206e6f742063757272656e746c792061637460008201527f6976650000000000000000000000000000000000000000000000000000000000602082015250565b600061608b60238361485f565b91506160968261602f565b604082019050919050565b600060208201905081810360008301526160ba8161607e565b9050919050565b60006080820190506160d66000830187614692565b6160e36020830186615aa4565b6160f06040830185614692565b818103606083015261610281846148b4565b905095945050505050565b600060208201905081810360008301526161278184615dd2565b905092915050565b600081905092915050565b600061614582614854565b61614f818561612f565b935061615f818560208601614870565b80840191505092915050565b6000616177828461613a565b915081905092915050565b600060408201905061619760008301856146d3565b6161a460208301846146d3565b9392505050565b7f476f7665726e6f7253657474696e67733a20766f74696e6720706572696f642060008201527f746f6f206c6f7700000000000000000000000000000000000000000000000000602082015250565b600061620760278361485f565b9150616212826161ab565b604082019050919050565b60006020820190508181036000830152616236816161fa565b9050919050565b600060408201905061625260008301856146d3565b61625f6020830184614692565b9392505050565b61626f816158a2565b811461627a57600080fd5b50565b60008151905061628c81616266565b92915050565b6000602082840312156162a8576162a7614625565b5b60006162b68482850161627d565b91505092915050565b7f53616665436173743a2076616c756520646f65736e27742066697420696e203660008201527f3420626974730000000000000000000000000000000000000000000000000000602082015250565b600061631b60268361485f565b9150616326826162bf565b604082019050919050565b6000602082019050818103600083015261634a8161630e565b9050919050565b7f1901000000000000000000000000000000000000000000000000000000000000600082015250565b600061638760028361612f565b915061639282616351565b600282019050919050565b6000819050919050565b6163b86163b382614cdc565b61639d565b82525050565b60006163c98261637a565b91506163d582856163a7565b6020820191506163e582846163a7565b6020820191508190509392505050565b600060808201905061640a600083018761585a565b6164176020830186615aa4565b616424604083018561585a565b616431606083018461585a565b95945050505050565b7f45434453413a20696e76616c6964207369676e61747572650000000000000000600082015250565b600061647060188361485f565b915061647b8261643a565b602082019050919050565b6000602082019050818103600083015261649f81616463565b9050919050565b7f45434453413a20696e76616c6964207369676e6174757265206c656e67746800600082015250565b60006164dc601f8361485f565b91506164e7826164a6565b602082019050919050565b6000602082019050818103600083015261650b816164cf565b9050919050565b7f45434453413a20696e76616c6964207369676e6174757265202773272076616c60008201527f7565000000000000000000000000000000000000000000000000000000000000602082015250565b600061656e60228361485f565b915061657982616512565b604082019050919050565b6000602082019050818103600083015261659d81616561565b9050919050565b7f45434453413a20696e76616c6964207369676e6174757265202776272076616c60008201527f7565000000000000000000000000000000000000000000000000000000000000602082015250565b600061660060228361485f565b915061660b826165a4565b604082019050919050565b6000602082019050818103600083015261662f816165f3565b9050919050565b7f476f7665726e6f72436f6d7061746962696c697479427261766f3a20766f746560008201527f20616c7265616479206361737400000000000000000000000000000000000000602082015250565b6000616692602d8361485f565b915061669d82616636565b604082019050919050565b600060208201905081810360008301526166c181616685565b9050919050565b7f476f7665726e6f72436f6d7061746962696c697479427261766f3a20696e766160008201527f6c696420766f7465207479706500000000000000000000000000000000000000602082015250565b6000616724602d8361485f565b915061672f826166c8565b604082019050919050565b6000602082019050818103600083015261675381616717565b9050919050565b7f476f7665726e6f723a20756e6b6e6f776e2070726f706f73616c206964000000600082015250565b6000616790601d8361485f565b915061679b8261675a565b602082019050919050565b600060208201905081810360008301526167bf81616783565b9050919050565b7f476f7665726e6f72436f6d7061746962696c697479427261766f3a2070726f7060008201527f6f73657220766f7465732062656c6f772070726f706f73616c2074687265736860208201527f6f6c640000000000000000000000000000000000000000000000000000000000604082015250565b600061684860438361485f565b9150616853826167c6565b606082019050919050565b600060208201905081810360008301526168778161683b565b9050919050565b7f476f7665726e6f723a20696e76616c69642070726f706f73616c206c656e677460008201527f6800000000000000000000000000000000000000000000000000000000000000602082015250565b60006168da60218361485f565b91506168e58261687e565b604082019050919050565b60006020820190508181036000830152616909816168cd565b9050919050565b7f476f7665726e6f723a20656d7074792070726f706f73616c0000000000000000600082015250565b600061694660188361485f565b915061695182616910565b602082019050919050565b6000602082019050818103600083015261697581616939565b9050919050565b7f476f7665726e6f723a2070726f706f73616c20616c726561647920657869737460008201527f7300000000000000000000000000000000000000000000000000000000000000602082015250565b60006169d860218361485f565b91506169e38261697c565b604082019050919050565b60006020820190508181036000830152616a07816169cb565b9050919050565b600067ffffffffffffffff82169050919050565b6000616a2d82616a0e565b9150616a3883616a0e565b92508267ffffffffffffffff03821115616a5557616a54615a41565b5b828201905092915050565b6000616a7b616a76616a7184616a0e565b615966565b61462f565b9050919050565b616a8b81616a60565b82525050565b600061012082019050616aa7600083018c614692565b616ab4602083018b6146d3565b8181036040830152616ac6818a614e2d565b90508181036060830152616ada8189614eeb565b90508181036080830152616aee8188614fe0565b905081810360a0830152616b0281876150f7565b9050616b1160c0830186616a82565b616b1e60e0830185616a82565b818103610100830152616b3181846148b4565b90509a9950505050505050505050565b7f476f7665726e6f7254696d656c6f636b436f6d706f756e643a2070726f706f7360008201527f616c206e6f742079657420717565756564000000000000000000000000000000602082015250565b6000616b9d60318361485f565b9150616ba882616b41565b604082019050919050565b60006020820190508181036000830152616bcc81616b90565b9050919050565b6000616be6616be184614b77565b614974565b905082815260208101848484011115616c0257616c01614b72565b5b616c0d848285614870565b509392505050565b600082601f830112616c2a57616c2961490f565b5b8151616c3a848260208601616bd3565b91505092915050565b600060208284031215616c5957616c58614625565b5b600082015167ffffffffffffffff811115616c7757616c7661462a565b5b616c8384828501616c15565b91505092915050565b600060a082019050616ca1600083018861585a565b616cae602083018761585a565b616cbb604083018661585a565b616cc86060830185614692565b616cd560808301846146d3565b9695505050505050565b7f53616665436173743a2076616c756520646f65736e27742066697420696e203960008201527f3620626974730000000000000000000000000000000000000000000000000000602082015250565b6000616d3b60268361485f565b9150616d4682616cdf565b604082019050919050565b60006020820190508181036000830152616d6a81616d2e565b9050919050565b7f476f7665726e6f723a2070726f706f73616c206e6f7420616374697665000000600082015250565b6000616da7601d8361485f565b9150616db282616d71565b602082019050919050565b60006020820190508181036000830152616dd681616d9a565b9050919050565b7f416464726573733a20696e73756666696369656e742062616c616e6365000000600082015250565b6000616e13601d8361485f565b9150616e1e82616ddd565b602082019050919050565b60006020820190508181036000830152616e4281616e06565b9050919050565b600081905092915050565b6000616e61600083616e49565b9150616e6c82615d9b565b600082019050919050565b6000616e8282616e54565b9150819050919050565b7f416464726573733a20756e61626c6520746f2073656e642076616c75652c207260008201527f6563697069656e74206d61792068617665207265766572746564000000000000602082015250565b6000616ee8603a8361485f565b9150616ef382616e8c565b604082019050919050565b60006020820190508181036000830152616f1781616edb565b905091905056fea26469706673582212201adab6c5bf08c8aaf7bc86159e8d2751dfe24512a45b392992b7ac399170193864736f6c63430008090033",
  "linkReferences": {},
  "deployedLinkReferences": {}
}