{
  "_format": "hh-sol-artifact-1",
  "contractName": "EIP712External",
  "sourceName": "contracts/oz/mocks/EIP712External.sol",
  "abi": [
    {
      "inputs": [
        {
          "internalType": "string",
          "name": "name",
          "type": "string"
        },
        {
          "internalType": "string",
          "name": "version",
          "type": "string"
        }
      ],
      "stateMutability": "nonpayable",
      "type": "constructor"
    },
    {
      "inputs": [],
      "name": "domainSeparator",
      "outputs": [
        {
          "internalType": "bytes32",
          "name": "",
          "type": "bytes32"
        }
      ],
      "stateMutability": "view",
      "type": "function"
    },
    {
      "inputs": [],
      "name": "getChainId",
      "outputs": [
        {
          "internalType": "uint256",
          "name": "",
          "type": "uint256"
        }
      ],
      "stateMutability": "view",
      "type": "function"
    },
    {
      "inputs": [
        {
          "internalType": "bytes",
          "name": "signature",
          "type": "bytes"
        },
        {
          "internalType": "address",
          "name": "signer",
          "type": "address"
        },
        {
          "internalType": "address",
          "name": "mailTo",
          "type": "address"
        },
        {
          "internalType": "string",
          "name": "mailContents",
          "type": "string"
        }
      ],
      "name": "verify",
      "outputs": [],
      "stateMutability": "view",
      "type": "function"
    }
  ],
  "bytecode": "0x6101406040523480156200001257600080fd5b50604051620012d1380380620012d18339818101604052810190620000389190620002cd565b818160008280519060200120905060008280519060200120905060007f8b73c3c69bb8fe3d512ecc4cf759cc79239f7b179b0ffacaa9a75d522b39400f90508260e081815250508161010081815250504660a08181525050620000a3818484620000f460201b60201c565b608081815250503073ffffffffffffffffffffffffffffffffffffffff1660c08173ffffffffffffffffffffffffffffffffffffffff1681525050806101208181525050505050505050506200042a565b6000838383463060405160200162000111959493929190620003cd565b6040516020818303038152906040528051906020012090509392505050565b6000604051905090565b600080fd5b600080fd5b600080fd5b600080fd5b6000601f19601f8301169050919050565b7f4e487b7100000000000000000000000000000000000000000000000000000000600052604160045260246000fd5b62000199826200014e565b810181811067ffffffffffffffff82111715620001bb57620001ba6200015f565b5b80604052505050565b6000620001d062000130565b9050620001de82826200018e565b919050565b600067ffffffffffffffff8211156200020157620002006200015f565b5b6200020c826200014e565b9050602081019050919050565b60005b83811015620002395780820151818401526020810190506200021c565b8381111562000249576000848401525b50505050565b6000620002666200026084620001e3565b620001c4565b90508281526020810184848401111562000285576200028462000149565b5b6200029284828562000219565b509392505050565b600082601f830112620002b257620002b162000144565b5b8151620002c48482602086016200024f565b91505092915050565b60008060408385031215620002e757620002e66200013a565b5b600083015167ffffffffffffffff8111156200030857620003076200013f565b5b62000316858286016200029a565b925050602083015167ffffffffffffffff8111156200033a57620003396200013f565b5b62000348858286016200029a565b9150509250929050565b6000819050919050565b620003678162000352565b82525050565b6000819050919050565b62000382816200036d565b82525050565b600073ffffffffffffffffffffffffffffffffffffffff82169050919050565b6000620003b58262000388565b9050919050565b620003c781620003a8565b82525050565b600060a082019050620003e460008301886200035c565b620003f360208301876200035c565b6200040260408301866200035c565b62000411606083018562000377565b620004206080830184620003bc565b9695505050505050565b60805160a05160c05160e0516101005161012051610e576200047a60003960006102500152600061029201526000610271015260006101a6015260006101fc015260006102250152610e576000f3fe608060405234801561001057600080fd5b50600436106100415760003560e01c806308c6e079146100465780633408e47014610062578063f698da2514610080575b600080fd5b610060600480360381019061005b9190610935565b61009e565b005b61006a61014a565b60405161007791906109ed565b60405180910390f35b610088610152565b6040516100959190610a21565b60405180910390f35b60006100fa7f847fc9da8ec3c72cae85ca691245eaeb0a4a1e74f77c3a919c43afda231d39ba8484805190602001206040516020016100df93929190610a4b565b60405160208183030381529060405280519060200120610161565b90506000610108828761017b565b90508473ffffffffffffffffffffffffffffffffffffffff168173ffffffffffffffffffffffffffffffffffffffff161461014257600080fd5b505050505050565b600046905090565b600061015c6101a2565b905090565b600061017461016e6101a2565b836102bc565b9050919050565b600080600061018a85856102ef565b9150915061019781610372565b819250505092915050565b60007f000000000000000000000000000000000000000000000000000000000000000073ffffffffffffffffffffffffffffffffffffffff163073ffffffffffffffffffffffffffffffffffffffff1614801561021e57507f000000000000000000000000000000000000000000000000000000000000000046145b1561024b577f000000000000000000000000000000000000000000000000000000000000000090506102b9565b6102b67f00000000000000000000000000000000000000000000000000000000000000007f00000000000000000000000000000000000000000000000000000000000000007f0000000000000000000000000000000000000000000000000000000000000000610547565b90505b90565b600082826040516020016102d1929190610afa565b60405160208183030381529060405280519060200120905092915050565b6000806041835114156103315760008060006020860151925060408601519150606086015160001a905061032587828585610581565b9450945050505061036b565b60408351141561036257600080602085015191506040850151905061035786838361068e565b93509350505061036b565b60006002915091505b9250929050565b6000600481111561038657610385610b31565b5b81600481111561039957610398610b31565b5b14156103a457610544565b600160048111156103b8576103b7610b31565b5b8160048111156103cb576103ca610b31565b5b141561040c576040517f08c379a000000000000000000000000000000000000000000000000000000000815260040161040390610bbd565b60405180910390fd5b600260048111156104205761041f610b31565b5b81600481111561043357610432610b31565b5b1415610474576040517f08c379a000000000000000000000000000000000000000000000000000000000815260040161046b90610c29565b60405180910390fd5b6003600481111561048857610487610b31565b5b81600481111561049b5761049a610b31565b5b14156104dc576040517f08c379a00000000000000000000000000000000000000000000000000000000081526004016104d390610cbb565b60405180910390fd5b6004808111156104ef576104ee610b31565b5b81600481111561050257610501610b31565b5b1415610543576040517f08c379a000000000000000000000000000000000000000000000000000000000815260040161053a90610d4d565b60405180910390fd5b5b50565b60008383834630604051602001610562959493929190610d6d565b6040516020818303038152906040528051906020012090509392505050565b6000807f7fffffffffffffffffffffffffffffff5d576e7357a4501ddfe92f46681b20a08360001c11156105bc576000600391509150610685565b601b8560ff16141580156105d45750601c8560ff1614155b156105e6576000600491509150610685565b60006001878787876040516000815260200160405260405161060b9493929190610ddc565b6020604051602081039080840390855afa15801561062d573d6000803e3d6000fd5b505050602060405103519050600073ffffffffffffffffffffffffffffffffffffffff168173ffffffffffffffffffffffffffffffffffffffff16141561067c57600060019250925050610685565b80600092509250505b94509492505050565b6000806000807f7fffffffffffffffffffffffffffffffffffffffffffffffffffffffffffffff85169150601b8560ff1c0190506106ce87828885610581565b935093505050935093915050565b6000604051905090565b600080fd5b600080fd5b600080fd5b600080fd5b6000601f19601f8301169050919050565b7f4e487b7100000000000000000000000000000000000000000000000000000000600052604160045260246000fd5b610743826106fa565b810181811067ffffffffffffffff821117156107625761076161070b565b5b80604052505050565b60006107756106dc565b9050610781828261073a565b919050565b600067ffffffffffffffff8211156107a1576107a061070b565b5b6107aa826106fa565b9050602081019050919050565b82818337600083830152505050565b60006107d96107d484610786565b61076b565b9050828152602081018484840111156107f5576107f46106f5565b5b6108008482856107b7565b509392505050565b600082601f83011261081d5761081c6106f0565b5b813561082d8482602086016107c6565b91505092915050565b600073ffffffffffffffffffffffffffffffffffffffff82169050919050565b600061086182610836565b9050919050565b61087181610856565b811461087c57600080fd5b50565b60008135905061088e81610868565b92915050565b600067ffffffffffffffff8211156108af576108ae61070b565b5b6108b8826106fa565b9050602081019050919050565b60006108d86108d384610894565b61076b565b9050828152602081018484840111156108f4576108f36106f5565b5b6108ff8482856107b7565b509392505050565b600082601f83011261091c5761091b6106f0565b5b813561092c8482602086016108c5565b91505092915050565b6000806000806080858703121561094f5761094e6106e6565b5b600085013567ffffffffffffffff81111561096d5761096c6106eb565b5b61097987828801610808565b945050602061098a8782880161087f565b935050604061099b8782880161087f565b925050606085013567ffffffffffffffff8111156109bc576109bb6106eb565b5b6109c887828801610907565b91505092959194509250565b6000819050919050565b6109e7816109d4565b82525050565b6000602082019050610a0260008301846109de565b92915050565b6000819050919050565b610a1b81610a08565b82525050565b6000602082019050610a366000830184610a12565b92915050565b610a4581610856565b82525050565b6000606082019050610a606000830186610a12565b610a6d6020830185610a3c565b610a7a6040830184610a12565b949350505050565b600081905092915050565b7f1901000000000000000000000000000000000000000000000000000000000000600082015250565b6000610ac3600283610a82565b9150610ace82610a8d565b600282019050919050565b6000819050919050565b610af4610aef82610a08565b610ad9565b82525050565b6000610b0582610ab6565b9150610b118285610ae3565b602082019150610b218284610ae3565b6020820191508190509392505050565b7f4e487b7100000000000000000000000000000000000000000000000000000000600052602160045260246000fd5b600082825260208201905092915050565b7f45434453413a20696e76616c6964207369676e61747572650000000000000000600082015250565b6000610ba7601883610b60565b9150610bb282610b71565b602082019050919050565b60006020820190508181036000830152610bd681610b9a565b9050919050565b7f45434453413a20696e76616c6964207369676e6174757265206c656e67746800600082015250565b6000610c13601f83610b60565b9150610c1e82610bdd565b602082019050919050565b60006020820190508181036000830152610c4281610c06565b9050919050565b7f45434453413a20696e76616c6964207369676e6174757265202773272076616c60008201527f7565000000000000000000000000000000000000000000000000000000000000602082015250565b6000610ca5602283610b60565b9150610cb082610c49565b604082019050919050565b60006020820190508181036000830152610cd481610c98565b9050919050565b7f45434453413a20696e76616c6964207369676e6174757265202776272076616c60008201527f7565000000000000000000000000000000000000000000000000000000000000602082015250565b6000610d37602283610b60565b9150610d4282610cdb565b604082019050919050565b60006020820190508181036000830152610d6681610d2a565b9050919050565b600060a082019050610d826000830188610a12565b610d8f6020830187610a12565b610d9c6040830186610a12565b610da960608301856109de565b610db66080830184610a3c565b9695505050505050565b600060ff82169050919050565b610dd681610dc0565b82525050565b6000608082019050610df16000830187610a12565b610dfe6020830186610dcd565b610e0b6040830185610a12565b610e186060830184610a12565b9594505050505056fea2646970667358221220165c2c6e743899fbd14a379e6a22c5416769c5b2dbdece78059743f0d779283764736f6c63430008090033",
  "linkReferences": {},
  "deployedLinkReferences": {}
}