{
  "_format": "hh-sol-artifact-1",
  "contractName": "ERC721PausableMock",
  "sourceName": "contracts/oz/mocks/ERC721PausableMock.sol",
  "abi": [
    {
      "inputs": [
        {
          "internalType": "string",
          "name": "name",
          "type": "string"
        },
        {
          "internalType": "string",
          "name": "symbol",
          "type": "string"
        }
      ],
      "stateMutability": "nonpayable",
      "type": "constructor"
    },
    {
      "anonymous": false,
      "inputs": [
        {
          "indexed": true,
          "internalType": "address",
          "name": "owner",
          "type": "address"
        },
        {
          "indexed": true,
          "internalType": "address",
          "name": "approved",
          "type": "address"
        },
        {
          "indexed": true,
          "internalType": "uint256",
          "name": "tokenId",
          "type": "uint256"
        }
      ],
      "name": "Approval",
      "type": "event"
    },
    {
      "anonymous": false,
      "inputs": [
        {
          "indexed": true,
          "internalType": "address",
          "name": "owner",
          "type": "address"
        },
        {
          "indexed": true,
          "internalType": "address",
          "name": "operator",
          "type": "address"
        },
        {
          "indexed": false,
          "internalType": "bool",
          "name": "approved",
          "type": "bool"
        }
      ],
      "name": "ApprovalForAll",
      "type": "event"
    },
    {
      "anonymous": false,
      "inputs": [
        {
          "indexed": false,
          "internalType": "address",
          "name": "account",
          "type": "address"
        }
      ],
      "name": "Paused",
      "type": "event"
    },
    {
      "anonymous": false,
      "inputs": [
        {
          "indexed": true,
          "internalType": "address",
          "name": "from",
          "type": "address"
        },
        {
          "indexed": true,
          "internalType": "address",
          "name": "to",
          "type": "address"
        },
        {
          "indexed": true,
          "internalType": "uint256",
          "name": "tokenId",
          "type": "uint256"
        }
      ],
      "name": "Transfer",
      "type": "event"
    },
    {
      "anonymous": false,
      "inputs": [
        {
          "indexed": false,
          "internalType": "address",
          "name": "account",
          "type": "address"
        }
      ],
      "name": "Unpaused",
      "type": "event"
    },
    {
      "inputs": [
        {
          "internalType": "address",
          "name": "to",
          "type": "address"
        },
        {
          "internalType": "uint256",
          "name": "tokenId",
          "type": "uint256"
        }
      ],
      "name": "approve",
      "outputs": [],
      "stateMutability": "nonpayable",
      "type": "function"
    },
    {
      "inputs": [
        {
          "internalType": "address",
          "name": "owner",
          "type": "address"
        }
      ],
      "name": "balanceOf",
      "outputs": [
        {
          "internalType": "uint256",
          "name": "",
          "type": "uint256"
        }
      ],
      "stateMutability": "view",
      "type": "function"
    },
    {
      "inputs": [
        {
          "internalType": "uint256",
          "name": "tokenId",
          "type": "uint256"
        }
      ],
      "name": "burn",
      "outputs": [],
      "stateMutability": "nonpayable",
      "type": "function"
    },
    {
      "inputs": [
        {
          "internalType": "uint256",
          "name": "tokenId",
          "type": "uint256"
        }
      ],
      "name": "exists",
      "outputs": [
        {
          "internalType": "bool",
          "name": "",
          "type": "bool"
        }
      ],
      "stateMutability": "view",
      "type": "function"
    },
    {
      "inputs": [
        {
          "internalType": "uint256",
          "name": "tokenId",
          "type": "uint256"
        }
      ],
      "name": "getApproved",
      "outputs": [
        {
          "internalType": "address",
          "name": "",
          "type": "address"
        }
      ],
      "stateMutability": "view",
      "type": "function"
    },
    {
      "inputs": [
        {
          "internalType": "address",
          "name": "owner",
          "type": "address"
        },
        {
          "internalType": "address",
          "name": "operator",
          "type": "address"
        }
      ],
      "name": "isApprovedForAll",
      "outputs": [
        {
          "internalType": "bool",
          "name": "",
          "type": "bool"
        }
      ],
      "stateMutability": "view",
      "type": "function"
    },
    {
      "inputs": [
        {
          "internalType": "address",
          "name": "to",
          "type": "address"
        },
        {
          "internalType": "uint256",
          "name": "tokenId",
          "type": "uint256"
        }
      ],
      "name": "mint",
      "outputs": [],
      "stateMutability": "nonpayable",
      "type": "function"
    },
    {
      "inputs": [],
      "name": "name",
      "outputs": [
        {
          "internalType": "string",
          "name": "",
          "type": "string"
        }
      ],
      "stateMutability": "view",
      "type": "function"
    },
    {
      "inputs": [
        {
          "internalType": "uint256",
          "name": "tokenId",
          "type": "uint256"
        }
      ],
      "name": "ownerOf",
      "outputs": [
        {
          "internalType": "address",
          "name": "",
          "type": "address"
        }
      ],
      "stateMutability": "view",
      "type": "function"
    },
    {
      "inputs": [],
      "name": "pause",
      "outputs": [],
      "stateMutability": "nonpayable",
      "type": "function"
    },
    {
      "inputs": [],
      "name": "paused",
      "outputs": [
        {
          "internalType": "bool",
          "name": "",
          "type": "bool"
        }
      ],
      "stateMutability": "view",
      "type": "function"
    },
    {
      "inputs": [
        {
          "internalType": "address",
          "name": "to",
          "type": "address"
        },
        {
          "internalType": "uint256",
          "name": "tokenId",
          "type": "uint256"
        },
        {
          "internalType": "bytes",
          "name": "_data",
          "type": "bytes"
        }
      ],
      "name": "safeMint",
      "outputs": [],
      "stateMutability": "nonpayable",
      "type": "function"
    },
    {
      "inputs": [
        {
          "internalType": "address",
          "name": "to",
          "type": "address"
        },
        {
          "internalType": "uint256",
          "name": "tokenId",
          "type": "uint256"
        }
      ],
      "name": "safeMint",
      "outputs": [],
      "stateMutability": "nonpayable",
      "type": "function"
    },
    {
      "inputs": [
        {
          "internalType": "address",
          "name": "from",
          "type": "address"
        },
        {
          "internalType": "address",
          "name": "to",
          "type": "address"
        },
        {
          "internalType": "uint256",
          "name": "tokenId",
          "type": "uint256"
        }
      ],
      "name": "safeTransferFrom",
      "outputs": [],
      "stateMutability": "nonpayable",
      "type": "function"
    },
    {
      "inputs": [
        {
          "internalType": "address",
          "name": "from",
          "type": "address"
        },
        {
          "internalType": "address",
          "name": "to",
          "type": "address"
        },
        {
          "internalType": "uint256",
          "name": "tokenId",
          "type": "uint256"
        },
        {
          "internalType": "bytes",
          "name": "_data",
          "type": "bytes"
        }
      ],
      "name": "safeTransferFrom",
      "outputs": [],
      "stateMutability": "nonpayable",
      "type": "function"
    },
    {
      "inputs": [
        {
          "internalType": "address",
          "name": "operator",
          "type": "address"
        },
        {
          "internalType": "bool",
          "name": "approved",
          "type": "bool"
        }
      ],
      "name": "setApprovalForAll",
      "outputs": [],
      "stateMutability": "nonpayable",
      "type": "function"
    },
    {
      "inputs": [
        {
          "internalType": "bytes4",
          "name": "interfaceId",
          "type": "bytes4"
        }
      ],
      "name": "supportsInterface",
      "outputs": [
        {
          "internalType": "bool",
          "name": "",
          "type": "bool"
        }
      ],
      "stateMutability": "view",
      "type": "function"
    },
    {
      "inputs": [],
      "name": "symbol",
      "outputs": [
        {
          "internalType": "string",
          "name": "",
          "type": "string"
        }
      ],
      "stateMutability": "view",
      "type": "function"
    },
    {
      "inputs": [
        {
          "internalType": "uint256",
          "name": "tokenId",
          "type": "uint256"
        }
      ],
      "name": "tokenURI",
      "outputs": [
        {
          "internalType": "string",
          "name": "",
          "type": "string"
        }
      ],
      "stateMutability": "view",
      "type": "function"
    },
    {
      "inputs": [
        {
          "internalType": "address",
          "name": "from",
          "type": "address"
        },
        {
          "internalType": "address",
          "name": "to",
          "type": "address"
        },
        {
          "internalType": "uint256",
          "name": "tokenId",
          "type": "uint256"
        }
      ],
      "name": "transferFrom",
      "outputs": [],
      "stateMutability": "nonpayable",
      "type": "function"
    },
    {
      "inputs": [],
      "name": "unpause",
      "outputs": [],
      "stateMutability": "nonpayable",
      "type": "function"
    }
  ],
  "bytecode": "0x60806040523480156200001157600080fd5b50604051620030fa380380620030fa8339818101604052810190620000379190620002dd565b818181600090805190602001906200005192919062000090565b5080600190805190602001906200006a92919062000090565b5050506000600660006101000a81548160ff0219169083151502179055505050620003c7565b8280546200009e9062000391565b90600052602060002090601f016020900481019282620000c257600085556200010e565b82601f10620000dd57805160ff19168380011785556200010e565b828001600101855582156200010e579182015b828111156200010d578251825591602001919060010190620000f0565b5b5090506200011d919062000121565b5090565b5b808211156200013c57600081600090555060010162000122565b5090565b6000604051905090565b600080fd5b600080fd5b600080fd5b600080fd5b6000601f19601f8301169050919050565b7f4e487b7100000000000000000000000000000000000000000000000000000000600052604160045260246000fd5b620001a9826200015e565b810181811067ffffffffffffffff82111715620001cb57620001ca6200016f565b5b80604052505050565b6000620001e062000140565b9050620001ee82826200019e565b919050565b600067ffffffffffffffff8211156200021157620002106200016f565b5b6200021c826200015e565b9050602081019050919050565b60005b83811015620002495780820151818401526020810190506200022c565b8381111562000259576000848401525b50505050565b6000620002766200027084620001f3565b620001d4565b90508281526020810184848401111562000295576200029462000159565b5b620002a284828562000229565b509392505050565b600082601f830112620002c257620002c162000154565b5b8151620002d48482602086016200025f565b91505092915050565b60008060408385031215620002f757620002f66200014a565b5b600083015167ffffffffffffffff8111156200031857620003176200014f565b5b6200032685828601620002aa565b925050602083015167ffffffffffffffff8111156200034a57620003496200014f565b5b6200035885828601620002aa565b9150509250929050565b7f4e487b7100000000000000000000000000000000000000000000000000000000600052602260045260246000fd5b60006002820490506001821680620003aa57607f821691505b60208210811415620003c157620003c062000362565b5b50919050565b612d2380620003d76000396000f3fe608060405234801561001057600080fd5b50600436106101375760003560e01c80635c975abb116100b857806395d89b411161007c57806395d89b4114610324578063a144819414610342578063a22cb4651461035e578063b88d4fde1461037a578063c87b56dd14610396578063e985e9c5146103c657610137565b80635c975abb146102805780636352211e1461029e57806370a08231146102ce5780638456cb59146102fe5780638832e6e31461030857610137565b80633f4ba83a116100ff5780633f4ba83a146101f257806340c10f19146101fc57806342842e0e1461021857806342966c68146102345780634f558e791461025057610137565b806301ffc9a71461013c57806306fdde031461016c578063081812fc1461018a578063095ea7b3146101ba57806323b872dd146101d6575b600080fd5b61015660048036038101906101519190611acd565b6103f6565b6040516101639190611b15565b60405180910390f35b6101746104d8565b6040516101819190611bc9565b60405180910390f35b6101a4600480360381019061019f9190611c21565b61056a565b6040516101b19190611c8f565b60405180910390f35b6101d460048036038101906101cf9190611cd6565b6105ef565b005b6101f060048036038101906101eb9190611d16565b610707565b005b6101fa610767565b005b61021660048036038101906102119190611cd6565b610771565b005b610232600480360381019061022d9190611d16565b61077f565b005b61024e60048036038101906102499190611c21565b61079f565b005b61026a60048036038101906102659190611c21565b6107ab565b6040516102779190611b15565b60405180910390f35b6102886107bd565b6040516102959190611b15565b60405180910390f35b6102b860048036038101906102b39190611c21565b6107d4565b6040516102c59190611c8f565b60405180910390f35b6102e860048036038101906102e39190611d69565b610886565b6040516102f59190611da5565b60405180910390f35b61030661093e565b005b610322600480360381019061031d9190611ef5565b610948565b005b61032c610958565b6040516103399190611bc9565b60405180910390f35b61035c60048036038101906103579190611cd6565b6109ea565b005b61037860048036038101906103739190611f90565b6109f8565b005b610394600480360381019061038f9190611fd0565b610a0e565b005b6103b060048036038101906103ab9190611c21565b610a70565b6040516103bd9190611bc9565b60405180910390f35b6103e060048036038101906103db9190612053565b610b17565b6040516103ed9190611b15565b60405180910390f35b60007f80ac58cd000000000000000000000000000000000000000000000000000000007bffffffffffffffffffffffffffffffffffffffffffffffffffffffff1916827bffffffffffffffffffffffffffffffffffffffffffffffffffffffff191614806104c157507f5b5e139f000000000000000000000000000000000000000000000000000000007bffffffffffffffffffffffffffffffffffffffffffffffffffffffff1916827bffffffffffffffffffffffffffffffffffffffffffffffffffffffff1916145b806104d157506104d082610bab565b5b9050919050565b6060600080546104e7906120c2565b80601f0160208091040260200160405190810160405280929190818152602001828054610513906120c2565b80156105605780601f1061053557610100808354040283529160200191610560565b820191906000526020600020905b81548152906001019060200180831161054357829003601f168201915b5050505050905090565b600061057582610c15565b6105b4576040517f08c379a00000000000000000000000000000000000000000000000000000000081526004016105ab90612166565b60405180910390fd5b6004600083815260200190815260200160002060009054906101000a900473ffffffffffffffffffffffffffffffffffffffff169050919050565b60006105fa826107d4565b90508073ffffffffffffffffffffffffffffffffffffffff168373ffffffffffffffffffffffffffffffffffffffff16141561066b576040517f08c379a0000000000000000000000000000000000000000000000000000000008152600401610662906121f8565b60405180910390fd5b8073ffffffffffffffffffffffffffffffffffffffff1661068a610c81565b73ffffffffffffffffffffffffffffffffffffffff1614806106b957506106b8816106b3610c81565b610b17565b5b6106f8576040517f08c379a00000000000000000000000000000000000000000000000000000000081526004016106ef9061228a565b60405180910390fd5b6107028383610c89565b505050565b610718610712610c81565b82610d42565b610757576040517f08c379a000000000000000000000000000000000000000000000000000000000815260040161074e9061231c565b60405180910390fd5b610762838383610e20565b505050565b61076f61107c565b565b61077b828261111e565b5050565b61079a83838360405180602001604052806000815250610a0e565b505050565b6107a8816112ec565b50565b60006107b682610c15565b9050919050565b6000600660009054906101000a900460ff16905090565b6000806002600084815260200190815260200160002060009054906101000a900473ffffffffffffffffffffffffffffffffffffffff169050600073ffffffffffffffffffffffffffffffffffffffff168173ffffffffffffffffffffffffffffffffffffffff16141561087d576040517f08c379a0000000000000000000000000000000000000000000000000000000008152600401610874906123ae565b60405180910390fd5b80915050919050565b60008073ffffffffffffffffffffffffffffffffffffffff168273ffffffffffffffffffffffffffffffffffffffff1614156108f7576040517f08c379a00000000000000000000000000000000000000000000000000000000081526004016108ee90612440565b60405180910390fd5b600360008373ffffffffffffffffffffffffffffffffffffffff1673ffffffffffffffffffffffffffffffffffffffff168152602001908152602001600020549050919050565b6109466113fd565b565b6109538383836114a0565b505050565b606060018054610967906120c2565b80601f0160208091040260200160405190810160405280929190818152602001828054610993906120c2565b80156109e05780601f106109b5576101008083540402835291602001916109e0565b820191906000526020600020905b8154815290600101906020018083116109c357829003601f168201915b5050505050905090565b6109f482826114fb565b5050565b610a0a610a03610c81565b8383611519565b5050565b610a1f610a19610c81565b83610d42565b610a5e576040517f08c379a0000000000000000000000000000000000000000000000000000000008152600401610a559061231c565b60405180910390fd5b610a6a84848484611686565b50505050565b6060610a7b82610c15565b610aba576040517f08c379a0000000000000000000000000000000000000000000000000000000008152600401610ab1906124d2565b60405180910390fd5b6000610ac46116e2565b90506000815111610ae45760405180602001604052806000815250610b0f565b80610aee846116f9565b604051602001610aff92919061252e565b6040516020818303038152906040525b915050919050565b6000600560008473ffffffffffffffffffffffffffffffffffffffff1673ffffffffffffffffffffffffffffffffffffffff16815260200190815260200160002060008373ffffffffffffffffffffffffffffffffffffffff1673ffffffffffffffffffffffffffffffffffffffff16815260200190815260200160002060009054906101000a900460ff16905092915050565b60007f01ffc9a7000000000000000000000000000000000000000000000000000000007bffffffffffffffffffffffffffffffffffffffffffffffffffffffff1916827bffffffffffffffffffffffffffffffffffffffffffffffffffffffff1916149050919050565b60008073ffffffffffffffffffffffffffffffffffffffff166002600084815260200190815260200160002060009054906101000a900473ffffffffffffffffffffffffffffffffffffffff1673ffffffffffffffffffffffffffffffffffffffff1614159050919050565b600033905090565b816004600083815260200190815260200160002060006101000a81548173ffffffffffffffffffffffffffffffffffffffff021916908373ffffffffffffffffffffffffffffffffffffffff160217905550808273ffffffffffffffffffffffffffffffffffffffff16610cfc836107d4565b73ffffffffffffffffffffffffffffffffffffffff167f8c5be1e5ebec7d5bd14f71427d1e84f3dd0314c0f7b2291e5b200ac8c7c3b92560405160405180910390a45050565b6000610d4d82610c15565b610d8c576040517f08c379a0000000000000000000000000000000000000000000000000000000008152600401610d83906125c4565b60405180910390fd5b6000610d97836107d4565b90508073ffffffffffffffffffffffffffffffffffffffff168473ffffffffffffffffffffffffffffffffffffffff161480610e0657508373ffffffffffffffffffffffffffffffffffffffff16610dee8461056a565b73ffffffffffffffffffffffffffffffffffffffff16145b80610e175750610e168185610b17565b5b91505092915050565b8273ffffffffffffffffffffffffffffffffffffffff16610e40826107d4565b73ffffffffffffffffffffffffffffffffffffffff1614610e96576040517f08c379a0000000000000000000000000000000000000000000000000000000008152600401610e8d90612656565b60405180910390fd5b600073ffffffffffffffffffffffffffffffffffffffff168273ffffffffffffffffffffffffffffffffffffffff161415610f06576040517f08c379a0000000000000000000000000000000000000000000000000000000008152600401610efd906126e8565b60405180910390fd5b610f1183838361185a565b610f1c600082610c89565b6001600360008573ffffffffffffffffffffffffffffffffffffffff1673ffffffffffffffffffffffffffffffffffffffff1681526020019081526020016000206000828254610f6c9190612737565b925050819055506001600360008473ffffffffffffffffffffffffffffffffffffffff1673ffffffffffffffffffffffffffffffffffffffff1681526020019081526020016000206000828254610fc3919061276b565b92505081905550816002600083815260200190815260200160002060006101000a81548173ffffffffffffffffffffffffffffffffffffffff021916908373ffffffffffffffffffffffffffffffffffffffff160217905550808273ffffffffffffffffffffffffffffffffffffffff168473ffffffffffffffffffffffffffffffffffffffff167fddf252ad1be2c89b69c2b068fc378daa952ba7f163c4a11628f55a4df523b3ef60405160405180910390a4505050565b6110846107bd565b6110c3576040517f08c379a00000000000000000000000000000000000000000000000000000000081526004016110ba9061280d565b60405180910390fd5b6000600660006101000a81548160ff0219169083151502179055507f5db9ee0a495bf2e6ff9c91a7834c1ba4fdd244a5e8aa4e537bd38aeae4b073aa611107610c81565b6040516111149190611c8f565b60405180910390a1565b600073ffffffffffffffffffffffffffffffffffffffff168273ffffffffffffffffffffffffffffffffffffffff16141561118e576040517f08c379a000000000000000000000000000000000000000000000000000000000815260040161118590612879565b60405180910390fd5b61119781610c15565b156111d7576040517f08c379a00000000000000000000000000000000000000000000000000000000081526004016111ce906128e5565b60405180910390fd5b6111e36000838361185a565b6001600360008473ffffffffffffffffffffffffffffffffffffffff1673ffffffffffffffffffffffffffffffffffffffff1681526020019081526020016000206000828254611233919061276b565b92505081905550816002600083815260200190815260200160002060006101000a81548173ffffffffffffffffffffffffffffffffffffffff021916908373ffffffffffffffffffffffffffffffffffffffff160217905550808273ffffffffffffffffffffffffffffffffffffffff16600073ffffffffffffffffffffffffffffffffffffffff167fddf252ad1be2c89b69c2b068fc378daa952ba7f163c4a11628f55a4df523b3ef60405160405180910390a45050565b60006112f7826107d4565b90506113058160008461185a565b611310600083610c89565b6001600360008373ffffffffffffffffffffffffffffffffffffffff1673ffffffffffffffffffffffffffffffffffffffff16815260200190815260200160002060008282546113609190612737565b925050819055506002600083815260200190815260200160002060006101000a81549073ffffffffffffffffffffffffffffffffffffffff021916905581600073ffffffffffffffffffffffffffffffffffffffff168273ffffffffffffffffffffffffffffffffffffffff167fddf252ad1be2c89b69c2b068fc378daa952ba7f163c4a11628f55a4df523b3ef60405160405180910390a45050565b6114056107bd565b15611445576040517f08c379a000000000000000000000000000000000000000000000000000000000815260040161143c90612951565b60405180910390fd5b6001600660006101000a81548160ff0219169083151502179055507f62e78cea01bee320cd4e420270b5ea74000d11b0c9f74754ebdbfc544b05a258611489610c81565b6040516114969190611c8f565b60405180910390a1565b6114aa838361111e565b6114b760008484846118b2565b6114f6576040517f08c379a00000000000000000000000000000000000000000000000000000000081526004016114ed906129e3565b60405180910390fd5b505050565b6115158282604051806020016040528060008152506114a0565b5050565b8173ffffffffffffffffffffffffffffffffffffffff168373ffffffffffffffffffffffffffffffffffffffff161415611588576040517f08c379a000000000000000000000000000000000000000000000000000000000815260040161157f90612a4f565b60405180910390fd5b80600560008573ffffffffffffffffffffffffffffffffffffffff1673ffffffffffffffffffffffffffffffffffffffff16815260200190815260200160002060008473ffffffffffffffffffffffffffffffffffffffff1673ffffffffffffffffffffffffffffffffffffffff16815260200190815260200160002060006101000a81548160ff0219169083151502179055508173ffffffffffffffffffffffffffffffffffffffff168373ffffffffffffffffffffffffffffffffffffffff167f17307eab39ab6107e8899845ad3d59bd9653f200f220920489ca2b5937696c31836040516116799190611b15565b60405180910390a3505050565b611691848484610e20565b61169d848484846118b2565b6116dc576040517f08c379a00000000000000000000000000000000000000000000000000000000081526004016116d3906129e3565b60405180910390fd5b50505050565b606060405180602001604052806000815250905090565b60606000821415611741576040518060400160405280600181526020017f30000000000000000000000000000000000000000000000000000000000000008152509050611855565b600082905060005b6000821461177357808061175c90612a6f565b915050600a8261176c9190612ae7565b9150611749565b60008167ffffffffffffffff81111561178f5761178e611dca565b5b6040519080825280601f01601f1916602001820160405280156117c15781602001600182028036833780820191505090505b5090505b6000851461184e576001826117da9190612737565b9150600a856117e99190612b18565b60306117f5919061276b565b60f81b81838151811061180b5761180a612b49565b5b60200101907effffffffffffffffffffffffffffffffffffffffffffffffffffffffffffff1916908160001a905350600a856118479190612ae7565b94506117c5565b8093505050505b919050565b611865838383611a49565b61186d6107bd565b156118ad576040517f08c379a00000000000000000000000000000000000000000000000000000000081526004016118a490612bea565b60405180910390fd5b505050565b60006118d38473ffffffffffffffffffffffffffffffffffffffff16611a4e565b15611a3c578373ffffffffffffffffffffffffffffffffffffffff1663150b7a026118fc610c81565b8786866040518563ffffffff1660e01b815260040161191e9493929190612c5f565b602060405180830381600087803b15801561193857600080fd5b505af192505050801561196957506040513d601f19601f820116820180604052508101906119669190612cc0565b60015b6119ec573d8060008114611999576040519150601f19603f3d011682016040523d82523d6000602084013e61199e565b606091505b506000815114156119e4576040517f08c379a00000000000000000000000000000000000000000000000000000000081526004016119db906129e3565b60405180910390fd5b805181602001fd5b63150b7a0260e01b7bffffffffffffffffffffffffffffffffffffffffffffffffffffffff1916817bffffffffffffffffffffffffffffffffffffffffffffffffffffffff191614915050611a41565b600190505b949350505050565b505050565b600080823b905060008111915050919050565b6000604051905090565b600080fd5b600080fd5b60007fffffffff0000000000000000000000000000000000000000000000000000000082169050919050565b611aaa81611a75565b8114611ab557600080fd5b50565b600081359050611ac781611aa1565b92915050565b600060208284031215611ae357611ae2611a6b565b5b6000611af184828501611ab8565b91505092915050565b60008115159050919050565b611b0f81611afa565b82525050565b6000602082019050611b2a6000830184611b06565b92915050565b600081519050919050565b600082825260208201905092915050565b60005b83811015611b6a578082015181840152602081019050611b4f565b83811115611b79576000848401525b50505050565b6000601f19601f8301169050919050565b6000611b9b82611b30565b611ba58185611b3b565b9350611bb5818560208601611b4c565b611bbe81611b7f565b840191505092915050565b60006020820190508181036000830152611be38184611b90565b905092915050565b6000819050919050565b611bfe81611beb565b8114611c0957600080fd5b50565b600081359050611c1b81611bf5565b92915050565b600060208284031215611c3757611c36611a6b565b5b6000611c4584828501611c0c565b91505092915050565b600073ffffffffffffffffffffffffffffffffffffffff82169050919050565b6000611c7982611c4e565b9050919050565b611c8981611c6e565b82525050565b6000602082019050611ca46000830184611c80565b92915050565b611cb381611c6e565b8114611cbe57600080fd5b50565b600081359050611cd081611caa565b92915050565b60008060408385031215611ced57611cec611a6b565b5b6000611cfb85828601611cc1565b9250506020611d0c85828601611c0c565b9150509250929050565b600080600060608486031215611d2f57611d2e611a6b565b5b6000611d3d86828701611cc1565b9350506020611d4e86828701611cc1565b9250506040611d5f86828701611c0c565b9150509250925092565b600060208284031215611d7f57611d7e611a6b565b5b6000611d8d84828501611cc1565b91505092915050565b611d9f81611beb565b82525050565b6000602082019050611dba6000830184611d96565b92915050565b600080fd5b600080fd5b7f4e487b7100000000000000000000000000000000000000000000000000000000600052604160045260246000fd5b611e0282611b7f565b810181811067ffffffffffffffff82111715611e2157611e20611dca565b5b80604052505050565b6000611e34611a61565b9050611e408282611df9565b919050565b600067ffffffffffffffff821115611e6057611e5f611dca565b5b611e6982611b7f565b9050602081019050919050565b82818337600083830152505050565b6000611e98611e9384611e45565b611e2a565b905082815260208101848484011115611eb457611eb3611dc5565b5b611ebf848285611e76565b509392505050565b600082601f830112611edc57611edb611dc0565b5b8135611eec848260208601611e85565b91505092915050565b600080600060608486031215611f0e57611f0d611a6b565b5b6000611f1c86828701611cc1565b9350506020611f2d86828701611c0c565b925050604084013567ffffffffffffffff811115611f4e57611f4d611a70565b5b611f5a86828701611ec7565b9150509250925092565b611f6d81611afa565b8114611f7857600080fd5b50565b600081359050611f8a81611f64565b92915050565b60008060408385031215611fa757611fa6611a6b565b5b6000611fb585828601611cc1565b9250506020611fc685828601611f7b565b9150509250929050565b60008060008060808587031215611fea57611fe9611a6b565b5b6000611ff887828801611cc1565b945050602061200987828801611cc1565b935050604061201a87828801611c0c565b925050606085013567ffffffffffffffff81111561203b5761203a611a70565b5b61204787828801611ec7565b91505092959194509250565b6000806040838503121561206a57612069611a6b565b5b600061207885828601611cc1565b925050602061208985828601611cc1565b9150509250929050565b7f4e487b7100000000000000000000000000000000000000000000000000000000600052602260045260246000fd5b600060028204905060018216806120da57607f821691505b602082108114156120ee576120ed612093565b5b50919050565b7f4552433732313a20617070726f76656420717565727920666f72206e6f6e657860008201527f697374656e7420746f6b656e0000000000000000000000000000000000000000602082015250565b6000612150602c83611b3b565b915061215b826120f4565b604082019050919050565b6000602082019050818103600083015261217f81612143565b9050919050565b7f4552433732313a20617070726f76616c20746f2063757272656e74206f776e6560008201527f7200000000000000000000000000000000000000000000000000000000000000602082015250565b60006121e2602183611b3b565b91506121ed82612186565b604082019050919050565b60006020820190508181036000830152612211816121d5565b9050919050565b7f4552433732313a20617070726f76652063616c6c6572206973206e6f74206f7760008201527f6e6572206e6f7220617070726f76656420666f7220616c6c0000000000000000602082015250565b6000612274603883611b3b565b915061227f82612218565b604082019050919050565b600060208201905081810360008301526122a381612267565b9050919050565b7f4552433732313a207472616e736665722063616c6c6572206973206e6f74206f60008201527f776e6572206e6f7220617070726f766564000000000000000000000000000000602082015250565b6000612306603183611b3b565b9150612311826122aa565b604082019050919050565b60006020820190508181036000830152612335816122f9565b9050919050565b7f4552433732313a206f776e657220717565727920666f72206e6f6e657869737460008201527f656e7420746f6b656e0000000000000000000000000000000000000000000000602082015250565b6000612398602983611b3b565b91506123a38261233c565b604082019050919050565b600060208201905081810360008301526123c78161238b565b9050919050565b7f4552433732313a2062616c616e636520717565727920666f7220746865207a6560008201527f726f206164647265737300000000000000000000000000000000000000000000602082015250565b600061242a602a83611b3b565b9150612435826123ce565b604082019050919050565b600060208201905081810360008301526124598161241d565b9050919050565b7f4552433732314d657461646174613a2055524920717565727920666f72206e6f60008201527f6e6578697374656e7420746f6b656e0000000000000000000000000000000000602082015250565b60006124bc602f83611b3b565b91506124c782612460565b604082019050919050565b600060208201905081810360008301526124eb816124af565b9050919050565b600081905092915050565b600061250882611b30565b61251281856124f2565b9350612522818560208601611b4c565b80840191505092915050565b600061253a82856124fd565b915061254682846124fd565b91508190509392505050565b7f4552433732313a206f70657261746f7220717565727920666f72206e6f6e657860008201527f697374656e7420746f6b656e0000000000000000000000000000000000000000602082015250565b60006125ae602c83611b3b565b91506125b982612552565b604082019050919050565b600060208201905081810360008301526125dd816125a1565b9050919050565b7f4552433732313a207472616e73666572206f6620746f6b656e2074686174206960008201527f73206e6f74206f776e0000000000000000000000000000000000000000000000602082015250565b6000612640602983611b3b565b915061264b826125e4565b604082019050919050565b6000602082019050818103600083015261266f81612633565b9050919050565b7f4552433732313a207472616e7366657220746f20746865207a65726f2061646460008201527f7265737300000000000000000000000000000000000000000000000000000000602082015250565b60006126d2602483611b3b565b91506126dd82612676565b604082019050919050565b60006020820190508181036000830152612701816126c5565b9050919050565b7f4e487b7100000000000000000000000000000000000000000000000000000000600052601160045260246000fd5b600061274282611beb565b915061274d83611beb565b9250828210156127605761275f612708565b5b828203905092915050565b600061277682611beb565b915061278183611beb565b9250827fffffffffffffffffffffffffffffffffffffffffffffffffffffffffffffffff038211156127b6576127b5612708565b5b828201905092915050565b7f5061757361626c653a206e6f7420706175736564000000000000000000000000600082015250565b60006127f7601483611b3b565b9150612802826127c1565b602082019050919050565b60006020820190508181036000830152612826816127ea565b9050919050565b7f4552433732313a206d696e7420746f20746865207a65726f2061646472657373600082015250565b6000612863602083611b3b565b915061286e8261282d565b602082019050919050565b6000602082019050818103600083015261289281612856565b9050919050565b7f4552433732313a20746f6b656e20616c7265616479206d696e74656400000000600082015250565b60006128cf601c83611b3b565b91506128da82612899565b602082019050919050565b600060208201905081810360008301526128fe816128c2565b9050919050565b7f5061757361626c653a2070617573656400000000000000000000000000000000600082015250565b600061293b601083611b3b565b915061294682612905565b602082019050919050565b6000602082019050818103600083015261296a8161292e565b9050919050565b7f4552433732313a207472616e7366657220746f206e6f6e20455243373231526560008201527f63656976657220696d706c656d656e7465720000000000000000000000000000602082015250565b60006129cd603283611b3b565b91506129d882612971565b604082019050919050565b600060208201905081810360008301526129fc816129c0565b9050919050565b7f4552433732313a20617070726f766520746f2063616c6c657200000000000000600082015250565b6000612a39601983611b3b565b9150612a4482612a03565b602082019050919050565b60006020820190508181036000830152612a6881612a2c565b9050919050565b6000612a7a82611beb565b91507fffffffffffffffffffffffffffffffffffffffffffffffffffffffffffffffff821415612aad57612aac612708565b5b600182019050919050565b7f4e487b7100000000000000000000000000000000000000000000000000000000600052601260045260246000fd5b6000612af282611beb565b9150612afd83611beb565b925082612b0d57612b0c612ab8565b5b828204905092915050565b6000612b2382611beb565b9150612b2e83611beb565b925082612b3e57612b3d612ab8565b5b828206905092915050565b7f4e487b7100000000000000000000000000000000000000000000000000000000600052603260045260246000fd5b7f4552433732315061757361626c653a20746f6b656e207472616e73666572207760008201527f68696c6520706175736564000000000000000000000000000000000000000000602082015250565b6000612bd4602b83611b3b565b9150612bdf82612b78565b604082019050919050565b60006020820190508181036000830152612c0381612bc7565b9050919050565b600081519050919050565b600082825260208201905092915050565b6000612c3182612c0a565b612c3b8185612c15565b9350612c4b818560208601611b4c565b612c5481611b7f565b840191505092915050565b6000608082019050612c746000830187611c80565b612c816020830186611c80565b612c8e6040830185611d96565b8181036060830152612ca08184612c26565b905095945050505050565b600081519050612cba81611aa1565b92915050565b600060208284031215612cd657612cd5611a6b565b5b6000612ce484828501612cab565b9150509291505056fea2646970667358221220895ea37f2cb1279ab6ff1f81a715ab35f62db0ec21811ba41b6503d817d7f07664736f6c63430008090033",
  "linkReferences": {},
  "deployedLinkReferences": {}
}