{
  "_format": "hh-sol-artifact-1",
  "contractName": "ERC1155PresetMinterPauser",
  "sourceName": "contracts/oz/token/ERC1155/presets/ERC1155PresetMinterPauser.sol",
  "abi": [
    {
      "inputs": [
        {
          "internalType": "string",
          "name": "uri",
          "type": "string"
        }
      ],
      "stateMutability": "nonpayable",
      "type": "constructor"
    },
    {
      "anonymous": false,
      "inputs": [
        {
          "indexed": true,
          "internalType": "address",
          "name": "account",
          "type": "address"
        },
        {
          "indexed": true,
          "internalType": "address",
          "name": "operator",
          "type": "address"
        },
        {
          "indexed": false,
          "internalType": "bool",
          "name": "approved",
          "type": "bool"
        }
      ],
      "name": "ApprovalForAll",
      "type": "event"
    },
    {
      "anonymous": false,
      "inputs": [
        {
          "indexed": false,
          "internalType": "address",
          "name": "account",
          "type": "address"
        }
      ],
      "name": "Paused",
      "type": "event"
    },
    {
      "anonymous": false,
      "inputs": [
        {
          "indexed": true,
          "internalType": "bytes32",
          "name": "role",
          "type": "bytes32"
        },
        {
          "indexed": true,
          "internalType": "bytes32",
          "name": "previousAdminRole",
          "type": "bytes32"
        },
        {
          "indexed": true,
          "internalType": "bytes32",
          "name": "newAdminRole",
          "type": "bytes32"
        }
      ],
      "name": "RoleAdminChanged",
      "type": "event"
    },
    {
      "anonymous": false,
      "inputs": [
        {
          "indexed": true,
          "internalType": "bytes32",
          "name": "role",
          "type": "bytes32"
        },
        {
          "indexed": true,
          "internalType": "address",
          "name": "account",
          "type": "address"
        },
        {
          "indexed": true,
          "internalType": "address",
          "name": "sender",
          "type": "address"
        }
      ],
      "name": "RoleGranted",
      "type": "event"
    },
    {
      "anonymous": false,
      "inputs": [
        {
          "indexed": true,
          "internalType": "bytes32",
          "name": "role",
          "type": "bytes32"
        },
        {
          "indexed": true,
          "internalType": "address",
          "name": "account",
          "type": "address"
        },
        {
          "indexed": true,
          "internalType": "address",
          "name": "sender",
          "type": "address"
        }
      ],
      "name": "RoleRevoked",
      "type": "event"
    },
    {
      "anonymous": false,
      "inputs": [
        {
          "indexed": true,
          "internalType": "address",
          "name": "operator",
          "type": "address"
        },
        {
          "indexed": true,
          "internalType": "address",
          "name": "from",
          "type": "address"
        },
        {
          "indexed": true,
          "internalType": "address",
          "name": "to",
          "type": "address"
        },
        {
          "indexed": false,
          "internalType": "uint256[]",
          "name": "ids",
          "type": "uint256[]"
        },
        {
          "indexed": false,
          "internalType": "uint256[]",
          "name": "values",
          "type": "uint256[]"
        }
      ],
      "name": "TransferBatch",
      "type": "event"
    },
    {
      "anonymous": false,
      "inputs": [
        {
          "indexed": true,
          "internalType": "address",
          "name": "operator",
          "type": "address"
        },
        {
          "indexed": true,
          "internalType": "address",
          "name": "from",
          "type": "address"
        },
        {
          "indexed": true,
          "internalType": "address",
          "name": "to",
          "type": "address"
        },
        {
          "indexed": false,
          "internalType": "uint256",
          "name": "id",
          "type": "uint256"
        },
        {
          "indexed": false,
          "internalType": "uint256",
          "name": "value",
          "type": "uint256"
        }
      ],
      "name": "TransferSingle",
      "type": "event"
    },
    {
      "anonymous": false,
      "inputs": [
        {
          "indexed": false,
          "internalType": "string",
          "name": "value",
          "type": "string"
        },
        {
          "indexed": true,
          "internalType": "uint256",
          "name": "id",
          "type": "uint256"
        }
      ],
      "name": "URI",
      "type": "event"
    },
    {
      "anonymous": false,
      "inputs": [
        {
          "indexed": false,
          "internalType": "address",
          "name": "account",
          "type": "address"
        }
      ],
      "name": "Unpaused",
      "type": "event"
    },
    {
      "inputs": [],
      "name": "DEFAULT_ADMIN_ROLE",
      "outputs": [
        {
          "internalType": "bytes32",
          "name": "",
          "type": "bytes32"
        }
      ],
      "stateMutability": "view",
      "type": "function"
    },
    {
      "inputs": [],
      "name": "MINTER_ROLE",
      "outputs": [
        {
          "internalType": "bytes32",
          "name": "",
          "type": "bytes32"
        }
      ],
      "stateMutability": "view",
      "type": "function"
    },
    {
      "inputs": [],
      "name": "PAUSER_ROLE",
      "outputs": [
        {
          "internalType": "bytes32",
          "name": "",
          "type": "bytes32"
        }
      ],
      "stateMutability": "view",
      "type": "function"
    },
    {
      "inputs": [
        {
          "internalType": "address",
          "name": "account",
          "type": "address"
        },
        {
          "internalType": "uint256",
          "name": "id",
          "type": "uint256"
        }
      ],
      "name": "balanceOf",
      "outputs": [
        {
          "internalType": "uint256",
          "name": "",
          "type": "uint256"
        }
      ],
      "stateMutability": "view",
      "type": "function"
    },
    {
      "inputs": [
        {
          "internalType": "address[]",
          "name": "accounts",
          "type": "address[]"
        },
        {
          "internalType": "uint256[]",
          "name": "ids",
          "type": "uint256[]"
        }
      ],
      "name": "balanceOfBatch",
      "outputs": [
        {
          "internalType": "uint256[]",
          "name": "",
          "type": "uint256[]"
        }
      ],
      "stateMutability": "view",
      "type": "function"
    },
    {
      "inputs": [
        {
          "internalType": "address",
          "name": "account",
          "type": "address"
        },
        {
          "internalType": "uint256",
          "name": "id",
          "type": "uint256"
        },
        {
          "internalType": "uint256",
          "name": "value",
          "type": "uint256"
        }
      ],
      "name": "burn",
      "outputs": [],
      "stateMutability": "nonpayable",
      "type": "function"
    },
    {
      "inputs": [
        {
          "internalType": "address",
          "name": "account",
          "type": "address"
        },
        {
          "internalType": "uint256[]",
          "name": "ids",
          "type": "uint256[]"
        },
        {
          "internalType": "uint256[]",
          "name": "values",
          "type": "uint256[]"
        }
      ],
      "name": "burnBatch",
      "outputs": [],
      "stateMutability": "nonpayable",
      "type": "function"
    },
    {
      "inputs": [
        {
          "internalType": "bytes32",
          "name": "role",
          "type": "bytes32"
        }
      ],
      "name": "getRoleAdmin",
      "outputs": [
        {
          "internalType": "bytes32",
          "name": "",
          "type": "bytes32"
        }
      ],
      "stateMutability": "view",
      "type": "function"
    },
    {
      "inputs": [
        {
          "internalType": "bytes32",
          "name": "role",
          "type": "bytes32"
        },
        {
          "internalType": "uint256",
          "name": "index",
          "type": "uint256"
        }
      ],
      "name": "getRoleMember",
      "outputs": [
        {
          "internalType": "address",
          "name": "",
          "type": "address"
        }
      ],
      "stateMutability": "view",
      "type": "function"
    },
    {
      "inputs": [
        {
          "internalType": "bytes32",
          "name": "role",
          "type": "bytes32"
        }
      ],
      "name": "getRoleMemberCount",
      "outputs": [
        {
          "internalType": "uint256",
          "name": "",
          "type": "uint256"
        }
      ],
      "stateMutability": "view",
      "type": "function"
    },
    {
      "inputs": [
        {
          "internalType": "bytes32",
          "name": "role",
          "type": "bytes32"
        },
        {
          "internalType": "address",
          "name": "account",
          "type": "address"
        }
      ],
      "name": "grantRole",
      "outputs": [],
      "stateMutability": "nonpayable",
      "type": "function"
    },
    {
      "inputs": [
        {
          "internalType": "bytes32",
          "name": "role",
          "type": "bytes32"
        },
        {
          "internalType": "address",
          "name": "account",
          "type": "address"
        }
      ],
      "name": "hasRole",
      "outputs": [
        {
          "internalType": "bool",
          "name": "",
          "type": "bool"
        }
      ],
      "stateMutability": "view",
      "type": "function"
    },
    {
      "inputs": [
        {
          "internalType": "address",
          "name": "account",
          "type": "address"
        },
        {
          "internalType": "address",
          "name": "operator",
          "type": "address"
        }
      ],
      "name": "isApprovedForAll",
      "outputs": [
        {
          "internalType": "bool",
          "name": "",
          "type": "bool"
        }
      ],
      "stateMutability": "view",
      "type": "function"
    },
    {
      "inputs": [
        {
          "internalType": "address",
          "name": "to",
          "type": "address"
        },
        {
          "internalType": "uint256",
          "name": "id",
          "type": "uint256"
        },
        {
          "internalType": "uint256",
          "name": "amount",
          "type": "uint256"
        },
        {
          "internalType": "bytes",
          "name": "data",
          "type": "bytes"
        }
      ],
      "name": "mint",
      "outputs": [],
      "stateMutability": "nonpayable",
      "type": "function"
    },
    {
      "inputs": [
        {
          "internalType": "address",
          "name": "to",
          "type": "address"
        },
        {
          "internalType": "uint256[]",
          "name": "ids",
          "type": "uint256[]"
        },
        {
          "internalType": "uint256[]",
          "name": "amounts",
          "type": "uint256[]"
        },
        {
          "internalType": "bytes",
          "name": "data",
          "type": "bytes"
        }
      ],
      "name": "mintBatch",
      "outputs": [],
      "stateMutability": "nonpayable",
      "type": "function"
    },
    {
      "inputs": [],
      "name": "pause",
      "outputs": [],
      "stateMutability": "nonpayable",
      "type": "function"
    },
    {
      "inputs": [],
      "name": "paused",
      "outputs": [
        {
          "internalType": "bool",
          "name": "",
          "type": "bool"
        }
      ],
      "stateMutability": "view",
      "type": "function"
    },
    {
      "inputs": [
        {
          "internalType": "bytes32",
          "name": "role",
          "type": "bytes32"
        },
        {
          "internalType": "address",
          "name": "account",
          "type": "address"
        }
      ],
      "name": "renounceRole",
      "outputs": [],
      "stateMutability": "nonpayable",
      "type": "function"
    },
    {
      "inputs": [
        {
          "internalType": "bytes32",
          "name": "role",
          "type": "bytes32"
        },
        {
          "internalType": "address",
          "name": "account",
          "type": "address"
        }
      ],
      "name": "revokeRole",
      "outputs": [],
      "stateMutability": "nonpayable",
      "type": "function"
    },
    {
      "inputs": [
        {
          "internalType": "address",
          "name": "from",
          "type": "address"
        },
        {
          "internalType": "address",
          "name": "to",
          "type": "address"
        },
        {
          "internalType": "uint256[]",
          "name": "ids",
          "type": "uint256[]"
        },
        {
          "internalType": "uint256[]",
          "name": "amounts",
          "type": "uint256[]"
        },
        {
          "internalType": "bytes",
          "name": "data",
          "type": "bytes"
        }
      ],
      "name": "safeBatchTransferFrom",
      "outputs": [],
      "stateMutability": "nonpayable",
      "type": "function"
    },
    {
      "inputs": [
        {
          "internalType": "address",
          "name": "from",
          "type": "address"
        },
        {
          "internalType": "address",
          "name": "to",
          "type": "address"
        },
        {
          "internalType": "uint256",
          "name": "id",
          "type": "uint256"
        },
        {
          "internalType": "uint256",
          "name": "amount",
          "type": "uint256"
        },
        {
          "internalType": "bytes",
          "name": "data",
          "type": "bytes"
        }
      ],
      "name": "safeTransferFrom",
      "outputs": [],
      "stateMutability": "nonpayable",
      "type": "function"
    },
    {
      "inputs": [
        {
          "internalType": "address",
          "name": "operator",
          "type": "address"
        },
        {
          "internalType": "bool",
          "name": "approved",
          "type": "bool"
        }
      ],
      "name": "setApprovalForAll",
      "outputs": [],
      "stateMutability": "nonpayable",
      "type": "function"
    },
    {
      "inputs": [
        {
          "internalType": "bytes4",
          "name": "interfaceId",
          "type": "bytes4"
        }
      ],
      "name": "supportsInterface",
      "outputs": [
        {
          "internalType": "bool",
          "name": "",
          "type": "bool"
        }
      ],
      "stateMutability": "view",
      "type": "function"
    },
    {
      "inputs": [],
      "name": "unpause",
      "outputs": [],
      "stateMutability": "nonpayable",
      "type": "function"
    },
    {
      "inputs": [
        {
          "internalType": "uint256",
          "name": "",
          "type": "uint256"
        }
      ],
      "name": "uri",
      "outputs": [
        {
          "internalType": "string",
          "name": "",
          "type": "string"
        }
      ],
      "stateMutability": "view",
      "type": "function"
    }
  ],
  "bytecode": "0x60806040523480156200001157600080fd5b506040516200528a3803806200528a833981810160405281019062000037919062000611565b8062000049816200011260201b60201c565b506000600560006101000a81548160ff021916908315150217905550620000896000801b6200007d6200012e60201b60201c565b6200013660201b60201c565b620000ca7f9f2df0fed2c77648de5860a4cc508cd0818c85b8b8a1ab4ceeef8d981c8956a6620000be6200012e60201b60201c565b6200013660201b60201c565b6200010b7f65d7a28e3265b37a6474929f336521b332c1681b933f6cb9f3376673440d862a620000ff6200012e60201b60201c565b6200013660201b60201c565b50620006c7565b80600490805190602001906200012a929190620003c4565b5050565b600033905090565b6200014882826200014c60201b60201c565b5050565b6200016382826200019460201b62000e891760201c565b6200018f81600160008581526020019081526020016000206200028560201b62000f691790919060201c565b505050565b620001a68282620002bd60201b60201c565b6200028157600160008084815260200190815260200160002060000160008373ffffffffffffffffffffffffffffffffffffffff1673ffffffffffffffffffffffffffffffffffffffff16815260200190815260200160002060006101000a81548160ff021916908315150217905550620002266200012e60201b60201c565b73ffffffffffffffffffffffffffffffffffffffff168173ffffffffffffffffffffffffffffffffffffffff16837f2f8788117e7eff1d82e926ec794901d17c78024a50270940304540a733656f0d60405160405180910390a45b5050565b6000620002b5836000018373ffffffffffffffffffffffffffffffffffffffff1660001b6200032760201b60201c565b905092915050565b600080600084815260200190815260200160002060000160008373ffffffffffffffffffffffffffffffffffffffff1673ffffffffffffffffffffffffffffffffffffffff16815260200190815260200160002060009054906101000a900460ff16905092915050565b60006200033b8383620003a160201b60201c565b620003965782600001829080600181540180825580915050600190039060005260206000200160009091909190915055826000018054905083600101600084815260200190815260200160002081905550600190506200039b565b600090505b92915050565b600080836001016000848152602001908152602001600020541415905092915050565b828054620003d29062000691565b90600052602060002090601f016020900481019282620003f6576000855562000442565b82601f106200041157805160ff191683800117855562000442565b8280016001018555821562000442579182015b828111156200044157825182559160200191906001019062000424565b5b50905062000451919062000455565b5090565b5b808211156200047057600081600090555060010162000456565b5090565b6000604051905090565b600080fd5b600080fd5b600080fd5b600080fd5b6000601f19601f8301169050919050565b7f4e487b7100000000000000000000000000000000000000000000000000000000600052604160045260246000fd5b620004dd8262000492565b810181811067ffffffffffffffff82111715620004ff57620004fe620004a3565b5b80604052505050565b60006200051462000474565b9050620005228282620004d2565b919050565b600067ffffffffffffffff821115620005455762000544620004a3565b5b620005508262000492565b9050602081019050919050565b60005b838110156200057d57808201518184015260208101905062000560565b838111156200058d576000848401525b50505050565b6000620005aa620005a48462000527565b62000508565b905082815260208101848484011115620005c957620005c86200048d565b5b620005d68482856200055d565b509392505050565b600082601f830112620005f657620005f562000488565b5b81516200060884826020860162000593565b91505092915050565b6000602082840312156200062a57620006296200047e565b5b600082015167ffffffffffffffff8111156200064b576200064a62000483565b5b6200065984828501620005de565b91505092915050565b7f4e487b7100000000000000000000000000000000000000000000000000000000600052602260045260246000fd5b60006002820490506001821680620006aa57607f821691505b60208210811415620006c157620006c062000662565b5b50919050565b614bb380620006d76000396000f3fe608060405234801561001057600080fd5b50600436106101725760003560e01c8063731133e9116100de578063ca15c87311610097578063e63ab1e911610071578063e63ab1e914610445578063e985e9c514610463578063f242432a14610493578063f5298aca146104af57610172565b8063ca15c873146103db578063d53913931461040b578063d547741f1461042957610172565b8063731133e91461031b5780638456cb59146103375780639010d07c1461034157806391d1485414610371578063a217fddf146103a1578063a22cb465146103bf57610172565b80632f2ff15d116101305780632f2ff15d1461026f57806336568abe1461028b5780633f4ba83a146102a75780634e1273f4146102b15780635c975abb146102e15780636b20c454146102ff57610172565b8062fdd58e1461017757806301ffc9a7146101a75780630e89341c146101d75780631f7fdffa14610207578063248a9ca3146102235780632eb2c2d614610253575b600080fd5b610191600480360381019061018c9190612e9a565b6104cb565b60405161019e9190612ee9565b60405180910390f35b6101c160048036038101906101bc9190612f5c565b610595565b6040516101ce9190612fa4565b60405180910390f35b6101f160048036038101906101ec9190612fbf565b6105a7565b6040516101fe9190613085565b60405180910390f35b610221600480360381019061021c91906132a4565b61063b565b005b61023d60048036038101906102389190613395565b6106bd565b60405161024a91906133d1565b60405180910390f35b61026d600480360381019061026891906133ec565b6106dc565b005b610289600480360381019061028491906134bb565b61077d565b005b6102a560048036038101906102a091906134bb565b6107a6565b005b6102af610829565b005b6102cb60048036038101906102c691906135be565b6108a3565b6040516102d891906136f4565b60405180910390f35b6102e96109bc565b6040516102f69190612fa4565b60405180910390f35b61031960048036038101906103149190613716565b6109d3565b005b610335600480360381019061033091906137a1565b610a70565b005b61033f610af2565b005b61035b60048036038101906103569190613824565b610b6c565b6040516103689190613873565b60405180910390f35b61038b600480360381019061038691906134bb565b610b9b565b6040516103989190612fa4565b60405180910390f35b6103a9610c05565b6040516103b691906133d1565b60405180910390f35b6103d960048036038101906103d491906138ba565b610c0c565b005b6103f560048036038101906103f09190613395565b610c22565b6040516104029190612ee9565b60405180910390f35b610413610c46565b60405161042091906133d1565b60405180910390f35b610443600480360381019061043e91906134bb565b610c6a565b005b61044d610c93565b60405161045a91906133d1565b60405180910390f35b61047d600480360381019061047891906138fa565b610cb7565b60405161048a9190612fa4565b60405180910390f35b6104ad60048036038101906104a8919061393a565b610d4b565b005b6104c960048036038101906104c491906139d1565b610dec565b005b60008073ffffffffffffffffffffffffffffffffffffffff168373ffffffffffffffffffffffffffffffffffffffff16141561053c576040517f08c379a000000000000000000000000000000000000000000000000000000000815260040161053390613a96565b60405180910390fd5b6002600083815260200190815260200160002060008473ffffffffffffffffffffffffffffffffffffffff1673ffffffffffffffffffffffffffffffffffffffff16815260200190815260200160002054905092915050565b60006105a082610f99565b9050919050565b6060600480546105b690613ae5565b80601f01602080910402602001604051908101604052809291908181526020018280546105e290613ae5565b801561062f5780601f106106045761010080835404028352916020019161062f565b820191906000526020600020905b81548152906001019060200180831161061257829003601f168201915b50505050509050919050565b61066c7f9f2df0fed2c77648de5860a4cc508cd0818c85b8b8a1ab4ceeef8d981c8956a661066761107b565b610b9b565b6106ab576040517f08c379a00000000000000000000000000000000000000000000000000000000081526004016106a290613b89565b60405180910390fd5b6106b784848484611083565b50505050565b6000806000838152602001908152602001600020600101549050919050565b6106e461107b565b73ffffffffffffffffffffffffffffffffffffffff168573ffffffffffffffffffffffffffffffffffffffff16148061072a57506107298561072461107b565b610cb7565b5b610769576040517f08c379a000000000000000000000000000000000000000000000000000000000815260040161076090613c1b565b60405180910390fd5b61077685858585856112a2565b5050505050565b610786826106bd565b6107978161079261107b565b6115b9565b6107a18383611656565b505050565b6107ae61107b565b73ffffffffffffffffffffffffffffffffffffffff168173ffffffffffffffffffffffffffffffffffffffff161461081b576040517f08c379a000000000000000000000000000000000000000000000000000000000815260040161081290613cad565b60405180910390fd5b610825828261168a565b5050565b61085a7f65d7a28e3265b37a6474929f336521b332c1681b933f6cb9f3376673440d862a61085561107b565b610b9b565b610899576040517f08c379a000000000000000000000000000000000000000000000000000000000815260040161089090613d3f565b60405180910390fd5b6108a16116be565b565b606081518351146108e9576040517f08c379a00000000000000000000000000000000000000000000000000000000081526004016108e090613dd1565b60405180910390fd5b6000835167ffffffffffffffff811115610906576109056130ac565b5b6040519080825280602002602001820160405280156109345781602001602082028036833780820191505090505b50905060005b84518110156109b15761098185828151811061095957610958613df1565b5b602002602001015185838151811061097457610973613df1565b5b60200260200101516104cb565b82828151811061099457610993613df1565b5b602002602001018181525050806109aa90613e4f565b905061093a565b508091505092915050565b6000600560009054906101000a900460ff16905090565b6109db61107b565b73ffffffffffffffffffffffffffffffffffffffff168373ffffffffffffffffffffffffffffffffffffffff161480610a215750610a2083610a1b61107b565b610cb7565b5b610a60576040517f08c379a0000000000000000000000000000000000000000000000000000000008152600401610a5790613f0a565b60405180910390fd5b610a6b838383611760565b505050565b610aa17f9f2df0fed2c77648de5860a4cc508cd0818c85b8b8a1ab4ceeef8d981c8956a6610a9c61107b565b610b9b565b610ae0576040517f08c379a0000000000000000000000000000000000000000000000000000000008152600401610ad790613b89565b60405180910390fd5b610aec84848484611a13565b50505050565b610b237f65d7a28e3265b37a6474929f336521b332c1681b933f6cb9f3376673440d862a610b1e61107b565b610b9b565b610b62576040517f08c379a0000000000000000000000000000000000000000000000000000000008152600401610b5990613f9c565b60405180910390fd5b610b6a611baa565b565b6000610b938260016000868152602001908152602001600020611c4d90919063ffffffff16565b905092915050565b600080600084815260200190815260200160002060000160008373ffffffffffffffffffffffffffffffffffffffff1673ffffffffffffffffffffffffffffffffffffffff16815260200190815260200160002060009054906101000a900460ff16905092915050565b6000801b81565b610c1e610c1761107b565b8383611c67565b5050565b6000610c3f60016000848152602001908152602001600020611dd4565b9050919050565b7f9f2df0fed2c77648de5860a4cc508cd0818c85b8b8a1ab4ceeef8d981c8956a681565b610c73826106bd565b610c8481610c7f61107b565b6115b9565b610c8e838361168a565b505050565b7f65d7a28e3265b37a6474929f336521b332c1681b933f6cb9f3376673440d862a81565b6000600360008473ffffffffffffffffffffffffffffffffffffffff1673ffffffffffffffffffffffffffffffffffffffff16815260200190815260200160002060008373ffffffffffffffffffffffffffffffffffffffff1673ffffffffffffffffffffffffffffffffffffffff16815260200190815260200160002060009054906101000a900460ff16905092915050565b610d5361107b565b73ffffffffffffffffffffffffffffffffffffffff168573ffffffffffffffffffffffffffffffffffffffff161480610d995750610d9885610d9361107b565b610cb7565b5b610dd8576040517f08c379a0000000000000000000000000000000000000000000000000000000008152600401610dcf90613f0a565b60405180910390fd5b610de58585858585611de9565b5050505050565b610df461107b565b73ffffffffffffffffffffffffffffffffffffffff168373ffffffffffffffffffffffffffffffffffffffff161480610e3a5750610e3983610e3461107b565b610cb7565b5b610e79576040517f08c379a0000000000000000000000000000000000000000000000000000000008152600401610e7090613f0a565b60405180910390fd5b610e8483838361206e565b505050565b610e938282610b9b565b610f6557600160008084815260200190815260200160002060000160008373ffffffffffffffffffffffffffffffffffffffff1673ffffffffffffffffffffffffffffffffffffffff16815260200190815260200160002060006101000a81548160ff021916908315150217905550610f0a61107b565b73ffffffffffffffffffffffffffffffffffffffff168173ffffffffffffffffffffffffffffffffffffffff16837f2f8788117e7eff1d82e926ec794901d17c78024a50270940304540a733656f0d60405160405180910390a45b5050565b6000610f91836000018373ffffffffffffffffffffffffffffffffffffffff1660001b61228d565b905092915050565b60007fd9b67a26000000000000000000000000000000000000000000000000000000007bffffffffffffffffffffffffffffffffffffffffffffffffffffffff1916827bffffffffffffffffffffffffffffffffffffffffffffffffffffffff1916148061106457507f0e89341c000000000000000000000000000000000000000000000000000000007bffffffffffffffffffffffffffffffffffffffffffffffffffffffff1916827bffffffffffffffffffffffffffffffffffffffffffffffffffffffff1916145b806110745750611073826122fd565b5b9050919050565b600033905090565b600073ffffffffffffffffffffffffffffffffffffffff168473ffffffffffffffffffffffffffffffffffffffff1614156110f3576040517f08c379a00000000000000000000000000000000000000000000000000000000081526004016110ea9061402e565b60405180910390fd5b8151835114611137576040517f08c379a000000000000000000000000000000000000000000000000000000000815260040161112e906140c0565b60405180910390fd5b600061114161107b565b905061115281600087878787612377565b60005b845181101561120c5783818151811061117157611170613df1565b5b6020026020010151600260008784815181106111905761118f613df1565b5b6020026020010151815260200190815260200160002060008873ffffffffffffffffffffffffffffffffffffffff1673ffffffffffffffffffffffffffffffffffffffff16815260200190815260200160002060008282546111f291906140e0565b92505081905550808061120490613e4f565b915050611155565b508473ffffffffffffffffffffffffffffffffffffffff16600073ffffffffffffffffffffffffffffffffffffffff168273ffffffffffffffffffffffffffffffffffffffff167f4a39dc06d4c0dbc64b70af90fd698a233a518aa5d07e595d983b8c0526c8f7fb8787604051611284929190614136565b60405180910390a461129b8160008787878761238d565b5050505050565b81518351146112e6576040517f08c379a00000000000000000000000000000000000000000000000000000000081526004016112dd906140c0565b60405180910390fd5b600073ffffffffffffffffffffffffffffffffffffffff168473ffffffffffffffffffffffffffffffffffffffff161415611356576040517f08c379a000000000000000000000000000000000000000000000000000000000815260040161134d906141df565b60405180910390fd5b600061136061107b565b9050611370818787878787612377565b60005b845181101561152457600085828151811061139157611390613df1565b5b6020026020010151905060008583815181106113b0576113af613df1565b5b6020026020010151905060006002600084815260200190815260200160002060008b73ffffffffffffffffffffffffffffffffffffffff1673ffffffffffffffffffffffffffffffffffffffff16815260200190815260200160002054905081811015611452576040517f08c379a000000000000000000000000000000000000000000000000000000000815260040161144990614271565b60405180910390fd5b8181036002600085815260200190815260200160002060008c73ffffffffffffffffffffffffffffffffffffffff1673ffffffffffffffffffffffffffffffffffffffff16815260200190815260200160002081905550816002600085815260200190815260200160002060008b73ffffffffffffffffffffffffffffffffffffffff1673ffffffffffffffffffffffffffffffffffffffff168152602001908152602001600020600082825461150991906140e0565b925050819055505050508061151d90613e4f565b9050611373565b508473ffffffffffffffffffffffffffffffffffffffff168673ffffffffffffffffffffffffffffffffffffffff168273ffffffffffffffffffffffffffffffffffffffff167f4a39dc06d4c0dbc64b70af90fd698a233a518aa5d07e595d983b8c0526c8f7fb878760405161159b929190614136565b60405180910390a46115b181878787878761238d565b505050505050565b6115c38282610b9b565b611652576115e88173ffffffffffffffffffffffffffffffffffffffff166014612574565b6115f68360001c6020612574565b604051602001611607929190614365565b6040516020818303038152906040526040517f08c379a00000000000000000000000000000000000000000000000000000000081526004016116499190613085565b60405180910390fd5b5050565b6116608282610e89565b6116858160016000858152602001908152602001600020610f6990919063ffffffff16565b505050565b61169482826127b0565b6116b9816001600085815260200190815260200160002061289190919063ffffffff16565b505050565b6116c66109bc565b611705576040517f08c379a00000000000000000000000000000000000000000000000000000000081526004016116fc906143eb565b60405180910390fd5b6000600560006101000a81548160ff0219169083151502179055507f5db9ee0a495bf2e6ff9c91a7834c1ba4fdd244a5e8aa4e537bd38aeae4b073aa61174961107b565b6040516117569190613873565b60405180910390a1565b600073ffffffffffffffffffffffffffffffffffffffff168373ffffffffffffffffffffffffffffffffffffffff1614156117d0576040517f08c379a00000000000000000000000000000000000000000000000000000000081526004016117c79061447d565b60405180910390fd5b8051825114611814576040517f08c379a000000000000000000000000000000000000000000000000000000000815260040161180b906140c0565b60405180910390fd5b600061181e61107b565b905061183e81856000868660405180602001604052806000815250612377565b60005b835181101561198d57600084828151811061185f5761185e613df1565b5b60200260200101519050600084838151811061187e5761187d613df1565b5b6020026020010151905060006002600084815260200190815260200160002060008973ffffffffffffffffffffffffffffffffffffffff1673ffffffffffffffffffffffffffffffffffffffff16815260200190815260200160002054905081811015611920576040517f08c379a00000000000000000000000000000000000000000000000000000000081526004016119179061450f565b60405180910390fd5b8181036002600085815260200190815260200160002060008a73ffffffffffffffffffffffffffffffffffffffff1673ffffffffffffffffffffffffffffffffffffffff16815260200190815260200160002081905550505050808061198590613e4f565b915050611841565b50600073ffffffffffffffffffffffffffffffffffffffff168473ffffffffffffffffffffffffffffffffffffffff168273ffffffffffffffffffffffffffffffffffffffff167f4a39dc06d4c0dbc64b70af90fd698a233a518aa5d07e595d983b8c0526c8f7fb8686604051611a05929190614136565b60405180910390a450505050565b600073ffffffffffffffffffffffffffffffffffffffff168473ffffffffffffffffffffffffffffffffffffffff161415611a83576040517f08c379a0000000000000000000000000000000000000000000000000000000008152600401611a7a9061402e565b60405180910390fd5b6000611a8d61107b565b9050611aae81600087611a9f886128c1565b611aa8886128c1565b87612377565b826002600086815260200190815260200160002060008773ffffffffffffffffffffffffffffffffffffffff1673ffffffffffffffffffffffffffffffffffffffff1681526020019081526020016000206000828254611b0e91906140e0565b925050819055508473ffffffffffffffffffffffffffffffffffffffff16600073ffffffffffffffffffffffffffffffffffffffff168273ffffffffffffffffffffffffffffffffffffffff167fc3d58168c5ae7397731d063d5bbf3d657854427343f4c083240f7aacaa2d0f628787604051611b8c92919061452f565b60405180910390a4611ba38160008787878761293b565b5050505050565b611bb26109bc565b15611bf2576040517f08c379a0000000000000000000000000000000000000000000000000000000008152600401611be9906145a4565b60405180910390fd5b6001600560006101000a81548160ff0219169083151502179055507f62e78cea01bee320cd4e420270b5ea74000d11b0c9f74754ebdbfc544b05a258611c3661107b565b604051611c439190613873565b60405180910390a1565b6000611c5c8360000183612b22565b60001c905092915050565b8173ffffffffffffffffffffffffffffffffffffffff168373ffffffffffffffffffffffffffffffffffffffff161415611cd6576040517f08c379a0000000000000000000000000000000000000000000000000000000008152600401611ccd90614636565b60405180910390fd5b80600360008573ffffffffffffffffffffffffffffffffffffffff1673ffffffffffffffffffffffffffffffffffffffff16815260200190815260200160002060008473ffffffffffffffffffffffffffffffffffffffff1673ffffffffffffffffffffffffffffffffffffffff16815260200190815260200160002060006101000a81548160ff0219169083151502179055508173ffffffffffffffffffffffffffffffffffffffff168373ffffffffffffffffffffffffffffffffffffffff167f17307eab39ab6107e8899845ad3d59bd9653f200f220920489ca2b5937696c3183604051611dc79190612fa4565b60405180910390a3505050565b6000611de282600001612b4d565b9050919050565b600073ffffffffffffffffffffffffffffffffffffffff168473ffffffffffffffffffffffffffffffffffffffff161415611e59576040517f08c379a0000000000000000000000000000000000000000000000000000000008152600401611e50906141df565b60405180910390fd5b6000611e6361107b565b9050611e83818787611e74886128c1565b611e7d886128c1565b87612377565b60006002600086815260200190815260200160002060008873ffffffffffffffffffffffffffffffffffffffff1673ffffffffffffffffffffffffffffffffffffffff16815260200190815260200160002054905083811015611f1b576040517f08c379a0000000000000000000000000000000000000000000000000000000008152600401611f1290614271565b60405180910390fd5b8381036002600087815260200190815260200160002060008973ffffffffffffffffffffffffffffffffffffffff1673ffffffffffffffffffffffffffffffffffffffff16815260200190815260200160002081905550836002600087815260200190815260200160002060008873ffffffffffffffffffffffffffffffffffffffff1673ffffffffffffffffffffffffffffffffffffffff1681526020019081526020016000206000828254611fd291906140e0565b925050819055508573ffffffffffffffffffffffffffffffffffffffff168773ffffffffffffffffffffffffffffffffffffffff168373ffffffffffffffffffffffffffffffffffffffff167fc3d58168c5ae7397731d063d5bbf3d657854427343f4c083240f7aacaa2d0f62888860405161204f92919061452f565b60405180910390a461206582888888888861293b565b50505050505050565b600073ffffffffffffffffffffffffffffffffffffffff168373ffffffffffffffffffffffffffffffffffffffff1614156120de576040517f08c379a00000000000000000000000000000000000000000000000000000000081526004016120d59061447d565b60405180910390fd5b60006120e861107b565b9050612118818560006120fa876128c1565b612103876128c1565b60405180602001604052806000815250612377565b60006002600085815260200190815260200160002060008673ffffffffffffffffffffffffffffffffffffffff1673ffffffffffffffffffffffffffffffffffffffff168152602001908152602001600020549050828110156121b0576040517f08c379a00000000000000000000000000000000000000000000000000000000081526004016121a79061450f565b60405180910390fd5b8281036002600086815260200190815260200160002060008773ffffffffffffffffffffffffffffffffffffffff1673ffffffffffffffffffffffffffffffffffffffff16815260200190815260200160002081905550600073ffffffffffffffffffffffffffffffffffffffff168573ffffffffffffffffffffffffffffffffffffffff168373ffffffffffffffffffffffffffffffffffffffff167fc3d58168c5ae7397731d063d5bbf3d657854427343f4c083240f7aacaa2d0f62878760405161227e92919061452f565b60405180910390a45050505050565b60006122998383612b5e565b6122f25782600001829080600181540180825580915050600190039060005260206000200160009091909190915055826000018054905083600101600084815260200190815260200160002081905550600190506122f7565b600090505b92915050565b60007f5a05180f000000000000000000000000000000000000000000000000000000007bffffffffffffffffffffffffffffffffffffffffffffffffffffffff1916827bffffffffffffffffffffffffffffffffffffffffffffffffffffffff19161480612370575061236f82612b81565b5b9050919050565b612385868686868686612bfb565b505050505050565b6123ac8473ffffffffffffffffffffffffffffffffffffffff16612c59565b1561256c578373ffffffffffffffffffffffffffffffffffffffff1663bc197c8187878686866040518663ffffffff1660e01b81526004016123f29594939291906146ab565b602060405180830381600087803b15801561240c57600080fd5b505af192505050801561243d57506040513d601f19601f8201168201806040525081019061243a9190614728565b60015b6124e357612449614762565b806308c379a014156124a6575061245e614784565b8061246957506124a8565b806040517f08c379a000000000000000000000000000000000000000000000000000000000815260040161249d9190613085565b60405180910390fd5b505b6040517f08c379a00000000000000000000000000000000000000000000000000000000081526004016124da9061488c565b60405180910390fd5b63bc197c8160e01b7bffffffffffffffffffffffffffffffffffffffffffffffffffffffff1916817bffffffffffffffffffffffffffffffffffffffffffffffffffffffff19161461256a576040517f08c379a00000000000000000000000000000000000000000000000000000000081526004016125619061491e565b60405180910390fd5b505b505050505050565b606060006002836002612587919061493e565b61259191906140e0565b67ffffffffffffffff8111156125aa576125a96130ac565b5b6040519080825280601f01601f1916602001820160405280156125dc5781602001600182028036833780820191505090505b5090507f30000000000000000000000000000000000000000000000000000000000000008160008151811061261457612613613df1565b5b60200101907effffffffffffffffffffffffffffffffffffffffffffffffffffffffffffff1916908160001a9053507f78000000000000000000000000000000000000000000000000000000000000008160018151811061267857612677613df1565b5b60200101907effffffffffffffffffffffffffffffffffffffffffffffffffffffffffffff1916908160001a905350600060018460026126b8919061493e565b6126c291906140e0565b90505b6001811115612762577f3031323334353637383961626364656600000000000000000000000000000000600f86166010811061270457612703613df1565b5b1a60f81b82828151811061271b5761271a613df1565b5b60200101907effffffffffffffffffffffffffffffffffffffffffffffffffffffffffffff1916908160001a905350600485901c94508061275b90614998565b90506126c5565b50600084146127a6576040517f08c379a000000000000000000000000000000000000000000000000000000000815260040161279d90614a0e565b60405180910390fd5b8091505092915050565b6127ba8282610b9b565b1561288d57600080600084815260200190815260200160002060000160008373ffffffffffffffffffffffffffffffffffffffff1673ffffffffffffffffffffffffffffffffffffffff16815260200190815260200160002060006101000a81548160ff02191690831515021790555061283261107b565b73ffffffffffffffffffffffffffffffffffffffff168173ffffffffffffffffffffffffffffffffffffffff16837ff6391f5c32d9c69d2a47ea670b442974b53935d1edc7fd64eb21e047a839171b60405160405180910390a45b5050565b60006128b9836000018373ffffffffffffffffffffffffffffffffffffffff1660001b612c6c565b905092915050565b60606000600167ffffffffffffffff8111156128e0576128df6130ac565b5b60405190808252806020026020018201604052801561290e5781602001602082028036833780820191505090505b509050828160008151811061292657612925613df1565b5b60200260200101818152505080915050919050565b61295a8473ffffffffffffffffffffffffffffffffffffffff16612c59565b15612b1a578373ffffffffffffffffffffffffffffffffffffffff1663f23a6e6187878686866040518663ffffffff1660e01b81526004016129a0959493929190614a2e565b602060405180830381600087803b1580156129ba57600080fd5b505af19250505080156129eb57506040513d601f19601f820116820180604052508101906129e89190614728565b60015b612a91576129f7614762565b806308c379a01415612a545750612a0c614784565b80612a175750612a56565b806040517f08c379a0000000000000000000000000000000000000000000000000000000008152600401612a4b9190613085565b60405180910390fd5b505b6040517f08c379a0000000000000000000000000000000000000000000000000000000008152600401612a889061488c565b60405180910390fd5b63f23a6e6160e01b7bffffffffffffffffffffffffffffffffffffffffffffffffffffffff1916817bffffffffffffffffffffffffffffffffffffffffffffffffffffffff191614612b18576040517f08c379a0000000000000000000000000000000000000000000000000000000008152600401612b0f9061491e565b60405180910390fd5b505b505050505050565b6000826000018281548110612b3a57612b39613df1565b5b9060005260206000200154905092915050565b600081600001805490509050919050565b600080836001016000848152602001908152602001600020541415905092915050565b60007f7965db0b000000000000000000000000000000000000000000000000000000007bffffffffffffffffffffffffffffffffffffffffffffffffffffffff1916827bffffffffffffffffffffffffffffffffffffffffffffffffffffffff19161480612bf45750612bf382612d80565b5b9050919050565b612c09868686868686612dea565b612c116109bc565b15612c51576040517f08c379a0000000000000000000000000000000000000000000000000000000008152600401612c4890614afa565b60405180910390fd5b505050505050565b600080823b905060008111915050919050565b60008083600101600084815260200190815260200160002054905060008114612d74576000600182612c9e9190614b1a565b9050600060018660000180549050612cb69190614b1a565b9050818114612d25576000866000018281548110612cd757612cd6613df1565b5b9060005260206000200154905080876000018481548110612cfb57612cfa613df1565b5b90600052602060002001819055508387600101600083815260200190815260200160002081905550505b85600001805480612d3957612d38614b4e565b5b600190038181906000526020600020016000905590558560010160008681526020019081526020016000206000905560019350505050612d7a565b60009150505b92915050565b60007f01ffc9a7000000000000000000000000000000000000000000000000000000007bffffffffffffffffffffffffffffffffffffffffffffffffffffffff1916827bffffffffffffffffffffffffffffffffffffffffffffffffffffffff1916149050919050565b505050505050565b6000604051905090565b600080fd5b600080fd5b600073ffffffffffffffffffffffffffffffffffffffff82169050919050565b6000612e3182612e06565b9050919050565b612e4181612e26565b8114612e4c57600080fd5b50565b600081359050612e5e81612e38565b92915050565b6000819050919050565b612e7781612e64565b8114612e8257600080fd5b50565b600081359050612e9481612e6e565b92915050565b60008060408385031215612eb157612eb0612dfc565b5b6000612ebf85828601612e4f565b9250506020612ed085828601612e85565b9150509250929050565b612ee381612e64565b82525050565b6000602082019050612efe6000830184612eda565b92915050565b60007fffffffff0000000000000000000000000000000000000000000000000000000082169050919050565b612f3981612f04565b8114612f4457600080fd5b50565b600081359050612f5681612f30565b92915050565b600060208284031215612f7257612f71612dfc565b5b6000612f8084828501612f47565b91505092915050565b60008115159050919050565b612f9e81612f89565b82525050565b6000602082019050612fb96000830184612f95565b92915050565b600060208284031215612fd557612fd4612dfc565b5b6000612fe384828501612e85565b91505092915050565b600081519050919050565b600082825260208201905092915050565b60005b8381101561302657808201518184015260208101905061300b565b83811115613035576000848401525b50505050565b6000601f19601f8301169050919050565b600061305782612fec565b6130618185612ff7565b9350613071818560208601613008565b61307a8161303b565b840191505092915050565b6000602082019050818103600083015261309f818461304c565b905092915050565b600080fd5b7f4e487b7100000000000000000000000000000000000000000000000000000000600052604160045260246000fd5b6130e48261303b565b810181811067ffffffffffffffff82111715613103576131026130ac565b5b80604052505050565b6000613116612df2565b905061312282826130db565b919050565b600067ffffffffffffffff821115613142576131416130ac565b5b602082029050602081019050919050565b600080fd5b600061316b61316684613127565b61310c565b9050808382526020820190506020840283018581111561318e5761318d613153565b5b835b818110156131b757806131a38882612e85565b845260208401935050602081019050613190565b5050509392505050565b600082601f8301126131d6576131d56130a7565b5b81356131e6848260208601613158565b91505092915050565b600080fd5b600067ffffffffffffffff82111561320f5761320e6130ac565b5b6132188261303b565b9050602081019050919050565b82818337600083830152505050565b6000613247613242846131f4565b61310c565b905082815260208101848484011115613263576132626131ef565b5b61326e848285613225565b509392505050565b600082601f83011261328b5761328a6130a7565b5b813561329b848260208601613234565b91505092915050565b600080600080608085870312156132be576132bd612dfc565b5b60006132cc87828801612e4f565b945050602085013567ffffffffffffffff8111156132ed576132ec612e01565b5b6132f9878288016131c1565b935050604085013567ffffffffffffffff81111561331a57613319612e01565b5b613326878288016131c1565b925050606085013567ffffffffffffffff81111561334757613346612e01565b5b61335387828801613276565b91505092959194509250565b6000819050919050565b6133728161335f565b811461337d57600080fd5b50565b60008135905061338f81613369565b92915050565b6000602082840312156133ab576133aa612dfc565b5b60006133b984828501613380565b91505092915050565b6133cb8161335f565b82525050565b60006020820190506133e660008301846133c2565b92915050565b600080600080600060a0868803121561340857613407612dfc565b5b600061341688828901612e4f565b955050602061342788828901612e4f565b945050604086013567ffffffffffffffff81111561344857613447612e01565b5b613454888289016131c1565b935050606086013567ffffffffffffffff81111561347557613474612e01565b5b613481888289016131c1565b925050608086013567ffffffffffffffff8111156134a2576134a1612e01565b5b6134ae88828901613276565b9150509295509295909350565b600080604083850312156134d2576134d1612dfc565b5b60006134e085828601613380565b92505060206134f185828601612e4f565b9150509250929050565b600067ffffffffffffffff821115613516576135156130ac565b5b602082029050602081019050919050565b600061353a613535846134fb565b61310c565b9050808382526020820190506020840283018581111561355d5761355c613153565b5b835b8181101561358657806135728882612e4f565b84526020840193505060208101905061355f565b5050509392505050565b600082601f8301126135a5576135a46130a7565b5b81356135b5848260208601613527565b91505092915050565b600080604083850312156135d5576135d4612dfc565b5b600083013567ffffffffffffffff8111156135f3576135f2612e01565b5b6135ff85828601613590565b925050602083013567ffffffffffffffff8111156136205761361f612e01565b5b61362c858286016131c1565b9150509250929050565b600081519050919050565b600082825260208201905092915050565b6000819050602082019050919050565b61366b81612e64565b82525050565b600061367d8383613662565b60208301905092915050565b6000602082019050919050565b60006136a182613636565b6136ab8185613641565b93506136b683613652565b8060005b838110156136e75781516136ce8882613671565b97506136d983613689565b9250506001810190506136ba565b5085935050505092915050565b6000602082019050818103600083015261370e8184613696565b905092915050565b60008060006060848603121561372f5761372e612dfc565b5b600061373d86828701612e4f565b935050602084013567ffffffffffffffff81111561375e5761375d612e01565b5b61376a868287016131c1565b925050604084013567ffffffffffffffff81111561378b5761378a612e01565b5b613797868287016131c1565b9150509250925092565b600080600080608085870312156137bb576137ba612dfc565b5b60006137c987828801612e4f565b94505060206137da87828801612e85565b93505060406137eb87828801612e85565b925050606085013567ffffffffffffffff81111561380c5761380b612e01565b5b61381887828801613276565b91505092959194509250565b6000806040838503121561383b5761383a612dfc565b5b600061384985828601613380565b925050602061385a85828601612e85565b9150509250929050565b61386d81612e26565b82525050565b60006020820190506138886000830184613864565b92915050565b61389781612f89565b81146138a257600080fd5b50565b6000813590506138b48161388e565b92915050565b600080604083850312156138d1576138d0612dfc565b5b60006138df85828601612e4f565b92505060206138f0858286016138a5565b9150509250929050565b6000806040838503121561391157613910612dfc565b5b600061391f85828601612e4f565b925050602061393085828601612e4f565b9150509250929050565b600080600080600060a0868803121561395657613955612dfc565b5b600061396488828901612e4f565b955050602061397588828901612e4f565b945050604061398688828901612e85565b935050606061399788828901612e85565b925050608086013567ffffffffffffffff8111156139b8576139b7612e01565b5b6139c488828901613276565b9150509295509295909350565b6000806000606084860312156139ea576139e9612dfc565b5b60006139f886828701612e4f565b9350506020613a0986828701612e85565b9250506040613a1a86828701612e85565b9150509250925092565b7f455243313135353a2062616c616e636520717565727920666f7220746865207a60008201527f65726f2061646472657373000000000000000000000000000000000000000000602082015250565b6000613a80602b83612ff7565b9150613a8b82613a24565b604082019050919050565b60006020820190508181036000830152613aaf81613a73565b9050919050565b7f4e487b7100000000000000000000000000000000000000000000000000000000600052602260045260246000fd5b60006002820490506001821680613afd57607f821691505b60208210811415613b1157613b10613ab6565b5b50919050565b7f455243313135355072657365744d696e7465725061757365723a206d7573742060008201527f68617665206d696e74657220726f6c6520746f206d696e740000000000000000602082015250565b6000613b73603883612ff7565b9150613b7e82613b17565b604082019050919050565b60006020820190508181036000830152613ba281613b66565b9050919050565b7f455243313135353a207472616e736665722063616c6c6572206973206e6f742060008201527f6f776e6572206e6f7220617070726f7665640000000000000000000000000000602082015250565b6000613c05603283612ff7565b9150613c1082613ba9565b604082019050919050565b60006020820190508181036000830152613c3481613bf8565b9050919050565b7f416363657373436f6e74726f6c3a2063616e206f6e6c792072656e6f756e636560008201527f20726f6c657320666f722073656c660000000000000000000000000000000000602082015250565b6000613c97602f83612ff7565b9150613ca282613c3b565b604082019050919050565b60006020820190508181036000830152613cc681613c8a565b9050919050565b7f455243313135355072657365744d696e7465725061757365723a206d7573742060008201527f686176652070617573657220726f6c6520746f20756e70617573650000000000602082015250565b6000613d29603b83612ff7565b9150613d3482613ccd565b604082019050919050565b60006020820190508181036000830152613d5881613d1c565b9050919050565b7f455243313135353a206163636f756e747320616e6420696473206c656e67746860008201527f206d69736d617463680000000000000000000000000000000000000000000000602082015250565b6000613dbb602983612ff7565b9150613dc682613d5f565b604082019050919050565b60006020820190508181036000830152613dea81613dae565b9050919050565b7f4e487b7100000000000000000000000000000000000000000000000000000000600052603260045260246000fd5b7f4e487b7100000000000000000000000000000000000000000000000000000000600052601160045260246000fd5b6000613e5a82612e64565b91507fffffffffffffffffffffffffffffffffffffffffffffffffffffffffffffffff821415613e8d57613e8c613e20565b5b600182019050919050565b7f455243313135353a2063616c6c6572206973206e6f74206f776e6572206e6f7260008201527f20617070726f7665640000000000000000000000000000000000000000000000602082015250565b6000613ef4602983612ff7565b9150613eff82613e98565b604082019050919050565b60006020820190508181036000830152613f2381613ee7565b9050919050565b7f455243313135355072657365744d696e7465725061757365723a206d7573742060008201527f686176652070617573657220726f6c6520746f20706175736500000000000000602082015250565b6000613f86603983612ff7565b9150613f9182613f2a565b604082019050919050565b60006020820190508181036000830152613fb581613f79565b9050919050565b7f455243313135353a206d696e7420746f20746865207a65726f2061646472657360008201527f7300000000000000000000000000000000000000000000000000000000000000602082015250565b6000614018602183612ff7565b915061402382613fbc565b604082019050919050565b600060208201905081810360008301526140478161400b565b9050919050565b7f455243313135353a2069647320616e6420616d6f756e7473206c656e6774682060008201527f6d69736d61746368000000000000000000000000000000000000000000000000602082015250565b60006140aa602883612ff7565b91506140b58261404e565b604082019050919050565b600060208201905081810360008301526140d98161409d565b9050919050565b60006140eb82612e64565b91506140f683612e64565b9250827fffffffffffffffffffffffffffffffffffffffffffffffffffffffffffffffff0382111561412b5761412a613e20565b5b828201905092915050565b600060408201905081810360008301526141508185613696565b905081810360208301526141648184613696565b90509392505050565b7f455243313135353a207472616e7366657220746f20746865207a65726f20616460008201527f6472657373000000000000000000000000000000000000000000000000000000602082015250565b60006141c9602583612ff7565b91506141d48261416d565b604082019050919050565b600060208201905081810360008301526141f8816141bc565b9050919050565b7f455243313135353a20696e73756666696369656e742062616c616e636520666f60008201527f72207472616e7366657200000000000000000000000000000000000000000000602082015250565b600061425b602a83612ff7565b9150614266826141ff565b604082019050919050565b6000602082019050818103600083015261428a8161424e565b9050919050565b600081905092915050565b7f416363657373436f6e74726f6c3a206163636f756e7420000000000000000000600082015250565b60006142d2601783614291565b91506142dd8261429c565b601782019050919050565b60006142f382612fec565b6142fd8185614291565b935061430d818560208601613008565b80840191505092915050565b7f206973206d697373696e6720726f6c6520000000000000000000000000000000600082015250565b600061434f601183614291565b915061435a82614319565b601182019050919050565b6000614370826142c5565b915061437c82856142e8565b915061438782614342565b915061439382846142e8565b91508190509392505050565b7f5061757361626c653a206e6f7420706175736564000000000000000000000000600082015250565b60006143d5601483612ff7565b91506143e08261439f565b602082019050919050565b60006020820190508181036000830152614404816143c8565b9050919050565b7f455243313135353a206275726e2066726f6d20746865207a65726f206164647260008201527f6573730000000000000000000000000000000000000000000000000000000000602082015250565b6000614467602383612ff7565b91506144728261440b565b604082019050919050565b600060208201905081810360008301526144968161445a565b9050919050565b7f455243313135353a206275726e20616d6f756e7420657863656564732062616c60008201527f616e636500000000000000000000000000000000000000000000000000000000602082015250565b60006144f9602483612ff7565b91506145048261449d565b604082019050919050565b60006020820190508181036000830152614528816144ec565b9050919050565b60006040820190506145446000830185612eda565b6145516020830184612eda565b9392505050565b7f5061757361626c653a2070617573656400000000000000000000000000000000600082015250565b600061458e601083612ff7565b915061459982614558565b602082019050919050565b600060208201905081810360008301526145bd81614581565b9050919050565b7f455243313135353a2073657474696e6720617070726f76616c2073746174757360008201527f20666f722073656c660000000000000000000000000000000000000000000000602082015250565b6000614620602983612ff7565b915061462b826145c4565b604082019050919050565b6000602082019050818103600083015261464f81614613565b9050919050565b600081519050919050565b600082825260208201905092915050565b600061467d82614656565b6146878185614661565b9350614697818560208601613008565b6146a08161303b565b840191505092915050565b600060a0820190506146c06000830188613864565b6146cd6020830187613864565b81810360408301526146df8186613696565b905081810360608301526146f38185613696565b905081810360808301526147078184614672565b90509695505050505050565b60008151905061472281612f30565b92915050565b60006020828403121561473e5761473d612dfc565b5b600061474c84828501614713565b91505092915050565b60008160e01c9050919050565b600060033d11156147815760046000803e61477e600051614755565b90505b90565b600060443d101561479457614817565b61479c612df2565b60043d036004823e80513d602482011167ffffffffffffffff821117156147c4575050614817565b808201805167ffffffffffffffff8111156147e25750505050614817565b80602083010160043d0385018111156147ff575050505050614817565b61480e826020018501866130db565b82955050505050505b90565b7f455243313135353a207472616e7366657220746f206e6f6e204552433131353560008201527f526563656976657220696d706c656d656e746572000000000000000000000000602082015250565b6000614876603483612ff7565b91506148818261481a565b604082019050919050565b600060208201905081810360008301526148a581614869565b9050919050565b7f455243313135353a204552433131353552656365697665722072656a6563746560008201527f6420746f6b656e73000000000000000000000000000000000000000000000000602082015250565b6000614908602883612ff7565b9150614913826148ac565b604082019050919050565b60006020820190508181036000830152614937816148fb565b9050919050565b600061494982612e64565b915061495483612e64565b9250817fffffffffffffffffffffffffffffffffffffffffffffffffffffffffffffffff048311821515161561498d5761498c613e20565b5b828202905092915050565b60006149a382612e64565b915060008214156149b7576149b6613e20565b5b600182039050919050565b7f537472696e67733a20686578206c656e67746820696e73756666696369656e74600082015250565b60006149f8602083612ff7565b9150614a03826149c2565b602082019050919050565b60006020820190508181036000830152614a27816149eb565b9050919050565b600060a082019050614a436000830188613864565b614a506020830187613864565b614a5d6040830186612eda565b614a6a6060830185612eda565b8181036080830152614a7c8184614672565b90509695505050505050565b7f455243313135355061757361626c653a20746f6b656e207472616e736665722060008201527f7768696c65207061757365640000000000000000000000000000000000000000602082015250565b6000614ae4602c83612ff7565b9150614aef82614a88565b604082019050919050565b60006020820190508181036000830152614b1381614ad7565b9050919050565b6000614b2582612e64565b9150614b3083612e64565b925082821015614b4357614b42613e20565b5b828203905092915050565b7f4e487b7100000000000000000000000000000000000000000000000000000000600052603160045260246000fdfea2646970667358221220bcfaa6dd0655b80c0a4d657cf6132399e0d28216ec972bb72c9b25b8fe8acb6f64736f6c63430008090033",
  "linkReferences": {},
  "deployedLinkReferences": {}
}