{
  "_format": "hh-sol-artifact-1",
  "contractName": "UUPSUpgradeableMock",
  "sourceName": "contracts/oz/mocks/UUPS/TestInProd.sol",
  "abi": [
    {
      "anonymous": false,
      "inputs": [
        {
          "indexed": false,
          "internalType": "address",
          "name": "previousAdmin",
          "type": "address"
        },
        {
          "indexed": false,
          "internalType": "address",
          "name": "newAdmin",
          "type": "address"
        }
      ],
      "name": "AdminChanged",
      "type": "event"
    },
    {
      "anonymous": false,
      "inputs": [
        {
          "indexed": true,
          "internalType": "address",
          "name": "beacon",
          "type": "address"
        }
      ],
      "name": "BeaconUpgraded",
      "type": "event"
    },
    {
      "anonymous": false,
      "inputs": [
        {
          "indexed": true,
          "internalType": "address",
          "name": "implementation",
          "type": "address"
        }
      ],
      "name": "Upgraded",
      "type": "event"
    },
    {
      "inputs": [],
      "name": "current",
      "outputs": [
        {
          "internalType": "uint256",
          "name": "",
          "type": "uint256"
        }
      ],
      "stateMutability": "view",
      "type": "function"
    },
    {
      "inputs": [],
      "name": "decrement",
      "outputs": [],
      "stateMutability": "nonpayable",
      "type": "function"
    },
    {
      "inputs": [],
      "name": "increment",
      "outputs": [],
      "stateMutability": "nonpayable",
      "type": "function"
    },
    {
      "inputs": [],
      "name": "reset",
      "outputs": [],
      "stateMutability": "nonpayable",
      "type": "function"
    },
    {
      "inputs": [
        {
          "internalType": "address",
          "name": "newImplementation",
          "type": "address"
        }
      ],
      "name": "upgradeTo",
      "outputs": [],
      "stateMutability": "nonpayable",
      "type": "function"
    },
    {
      "inputs": [
        {
          "internalType": "address",
          "name": "newImplementation",
          "type": "address"
        },
        {
          "internalType": "bytes",
          "name": "data",
          "type": "bytes"
        }
      ],
      "name": "upgradeToAndCall",
      "outputs": [],
      "stateMutability": "payable",
      "type": "function"
    }
  ],
  "bytecode": "0x60a06040523073ffffffffffffffffffffffffffffffffffffffff1660809073ffffffffffffffffffffffffffffffffffffffff1681525034801561004357600080fd5b5060805161109c6100746000396000818161011d015281816101ac015281816102a60152610335015261109c6000f3fe6080604052600436106100555760003560e01c80632baeceb71461005a5780633659cfe6146100715780634f1ef2861461009a5780639fa6a6e3146100b6578063d09de08a146100e1578063d826f88f146100f8575b600080fd5b34801561006657600080fd5b5061006f61010f565b005b34801561007d57600080fd5b50610098600480360381019061009391906109c4565b61011b565b005b6100b460048036038101906100af9190610b37565b6102a4565b005b3480156100c257600080fd5b506100cb6103e1565b6040516100d89190610bac565b60405180910390f35b3480156100ed57600080fd5b506100f66103f2565b005b34801561010457600080fd5b5061010d6103fe565b005b610119600061040a565b565b7f000000000000000000000000000000000000000000000000000000000000000073ffffffffffffffffffffffffffffffffffffffff163073ffffffffffffffffffffffffffffffffffffffff1614156101aa576040517f08c379a00000000000000000000000000000000000000000000000000000000081526004016101a190610c4a565b60405180910390fd5b7f000000000000000000000000000000000000000000000000000000000000000073ffffffffffffffffffffffffffffffffffffffff166101e9610466565b73ffffffffffffffffffffffffffffffffffffffff161461023f576040517f08c379a000000000000000000000000000000000000000000000000000000000815260040161023690610cdc565b60405180910390fd5b610248816104bd565b6102a181600067ffffffffffffffff81111561026757610266610a0c565b5b6040519080825280601f01601f1916602001820160405280156102995781602001600182028036833780820191505090505b5060006104c0565b50565b7f000000000000000000000000000000000000000000000000000000000000000073ffffffffffffffffffffffffffffffffffffffff163073ffffffffffffffffffffffffffffffffffffffff161415610333576040517f08c379a000000000000000000000000000000000000000000000000000000000815260040161032a90610c4a565b60405180910390fd5b7f000000000000000000000000000000000000000000000000000000000000000073ffffffffffffffffffffffffffffffffffffffff16610372610466565b73ffffffffffffffffffffffffffffffffffffffff16146103c8576040517f08c379a00000000000000000000000000000000000000000000000000000000081526004016103bf90610cdc565b60405180910390fd5b6103d1826104bd565b6103dd828260016104c0565b5050565b60006103ed6000610691565b905090565b6103fc600061069f565b565b61040860006106b5565b565b60008160000154905060008111610456576040517f08c379a000000000000000000000000000000000000000000000000000000000815260040161044d90610d48565b60405180910390fd5b6001810382600001819055505050565b60006104947f360894a13ba1a3210667c828492db98dca3e2076cc3735a920a3ca505d382bbc60001b6106c2565b60000160009054906101000a900473ffffffffffffffffffffffffffffffffffffffff16905090565b50565b60006104ca610466565b90506104d5846106cc565b6000835111806104e25750815b156104f3576104f18484610785565b505b60006105217f4910fdfa16fed3260ed0e7147f7cc6da11a60208b5b9406d12a635614ffd914360001b6107b2565b90508060000160009054906101000a900460ff1661068a5760018160000160006101000a81548160ff0219169083151502179055506105ed858360405160240161056b9190610d77565b6040516020818303038152906040527f3659cfe6000000000000000000000000000000000000000000000000000000007bffffffffffffffffffffffffffffffffffffffffffffffffffffffff19166020820180517bffffffffffffffffffffffffffffffffffffffffffffffffffffffff8381831617835250505050610785565b5060008160000160006101000a81548160ff021916908315150217905550610613610466565b73ffffffffffffffffffffffffffffffffffffffff168273ffffffffffffffffffffffffffffffffffffffff1614610680576040517f08c379a000000000000000000000000000000000000000000000000000000000815260040161067790610e04565b60405180910390fd5b610689856107bc565b5b5050505050565b600081600001549050919050565b6001816000016000828254019250508190555050565b6000816000018190555050565b6000819050919050565b6106d58161080b565b610714576040517f08c379a000000000000000000000000000000000000000000000000000000000815260040161070b90610e96565b60405180910390fd5b806107417f360894a13ba1a3210667c828492db98dca3e2076cc3735a920a3ca505d382bbc60001b6106c2565b60000160006101000a81548173ffffffffffffffffffffffffffffffffffffffff021916908373ffffffffffffffffffffffffffffffffffffffff16021790555050565b60606107aa83836040518060600160405280602781526020016110406027913961081e565b905092915050565b6000819050919050565b6107c5816106cc565b8073ffffffffffffffffffffffffffffffffffffffff167fbc7cd75a20ee27fd9adebab32041f755214dbc6bffa90cc0225b39da2e5c2d3b60405160405180910390a250565b600080823b905060008111915050919050565b60606108298461080b565b610868576040517f08c379a000000000000000000000000000000000000000000000000000000000815260040161085f90610f28565b60405180910390fd5b6000808573ffffffffffffffffffffffffffffffffffffffff16856040516108909190610fc2565b600060405180830381855af49150503d80600081146108cb576040519150601f19603f3d011682016040523d82523d6000602084013e6108d0565b606091505b50915091506108e08282866108eb565b925050509392505050565b606083156108fb5782905061094b565b60008351111561090e5782518084602001fd5b816040517f08c379a0000000000000000000000000000000000000000000000000000000008152600401610942919061101d565b60405180910390fd5b9392505050565b6000604051905090565b600080fd5b600080fd5b600073ffffffffffffffffffffffffffffffffffffffff82169050919050565b600061099182610966565b9050919050565b6109a181610986565b81146109ac57600080fd5b50565b6000813590506109be81610998565b92915050565b6000602082840312156109da576109d961095c565b5b60006109e8848285016109af565b91505092915050565b600080fd5b600080fd5b6000601f19601f8301169050919050565b7f4e487b7100000000000000000000000000000000000000000000000000000000600052604160045260246000fd5b610a44826109fb565b810181811067ffffffffffffffff82111715610a6357610a62610a0c565b5b80604052505050565b6000610a76610952565b9050610a828282610a3b565b919050565b600067ffffffffffffffff821115610aa257610aa1610a0c565b5b610aab826109fb565b9050602081019050919050565b82818337600083830152505050565b6000610ada610ad584610a87565b610a6c565b905082815260208101848484011115610af657610af56109f6565b5b610b01848285610ab8565b509392505050565b600082601f830112610b1e57610b1d6109f1565b5b8135610b2e848260208601610ac7565b91505092915050565b60008060408385031215610b4e57610b4d61095c565b5b6000610b5c858286016109af565b925050602083013567ffffffffffffffff811115610b7d57610b7c610961565b5b610b8985828601610b09565b9150509250929050565b6000819050919050565b610ba681610b93565b82525050565b6000602082019050610bc16000830184610b9d565b92915050565b600082825260208201905092915050565b7f46756e6374696f6e206d7573742062652063616c6c6564207468726f7567682060008201527f64656c656761746563616c6c0000000000000000000000000000000000000000602082015250565b6000610c34602c83610bc7565b9150610c3f82610bd8565b604082019050919050565b60006020820190508181036000830152610c6381610c27565b9050919050565b7f46756e6374696f6e206d7573742062652063616c6c6564207468726f7567682060008201527f6163746976652070726f78790000000000000000000000000000000000000000602082015250565b6000610cc6602c83610bc7565b9150610cd182610c6a565b604082019050919050565b60006020820190508181036000830152610cf581610cb9565b9050919050565b7f436f756e7465723a2064656372656d656e74206f766572666c6f770000000000600082015250565b6000610d32601b83610bc7565b9150610d3d82610cfc565b602082019050919050565b60006020820190508181036000830152610d6181610d25565b9050919050565b610d7181610986565b82525050565b6000602082019050610d8c6000830184610d68565b92915050565b7f45524331393637557067726164653a207570677261646520627265616b73206660008201527f7572746865722075706772616465730000000000000000000000000000000000602082015250565b6000610dee602f83610bc7565b9150610df982610d92565b604082019050919050565b60006020820190508181036000830152610e1d81610de1565b9050919050565b7f455243313936373a206e657720696d706c656d656e746174696f6e206973206e60008201527f6f74206120636f6e747261637400000000000000000000000000000000000000602082015250565b6000610e80602d83610bc7565b9150610e8b82610e24565b604082019050919050565b60006020820190508181036000830152610eaf81610e73565b9050919050565b7f416464726573733a2064656c65676174652063616c6c20746f206e6f6e2d636f60008201527f6e74726163740000000000000000000000000000000000000000000000000000602082015250565b6000610f12602683610bc7565b9150610f1d82610eb6565b604082019050919050565b60006020820190508181036000830152610f4181610f05565b9050919050565b600081519050919050565b600081905092915050565b60005b83811015610f7c578082015181840152602081019050610f61565b83811115610f8b576000848401525b50505050565b6000610f9c82610f48565b610fa68185610f53565b9350610fb6818560208601610f5e565b80840191505092915050565b6000610fce8284610f91565b915081905092915050565b600081519050919050565b6000610fef82610fd9565b610ff98185610bc7565b9350611009818560208601610f5e565b611012816109fb565b840191505092915050565b600060208201905081810360008301526110378184610fe4565b90509291505056fe416464726573733a206c6f772d6c6576656c2064656c65676174652063616c6c206661696c6564a2646970667358221220367c75c7a98d771839ad6a5dd77f347b400bbff257cc346b42b9014c1be1e47364736f6c63430008090033",
  "linkReferences": {},
  "deployedLinkReferences": {}
}