{
  "_format": "hh-sol-artifact-1",
  "contractName": "ERC1155PausableMock",
  "sourceName": "contracts/oz/mocks/ERC1155PausableMock.sol",
  "abi": [
    {
      "inputs": [
        {
          "internalType": "string",
          "name": "uri",
          "type": "string"
        }
      ],
      "stateMutability": "nonpayable",
      "type": "constructor"
    },
    {
      "anonymous": false,
      "inputs": [
        {
          "indexed": true,
          "internalType": "address",
          "name": "account",
          "type": "address"
        },
        {
          "indexed": true,
          "internalType": "address",
          "name": "operator",
          "type": "address"
        },
        {
          "indexed": false,
          "internalType": "bool",
          "name": "approved",
          "type": "bool"
        }
      ],
      "name": "ApprovalForAll",
      "type": "event"
    },
    {
      "anonymous": false,
      "inputs": [
        {
          "indexed": false,
          "internalType": "address",
          "name": "account",
          "type": "address"
        }
      ],
      "name": "Paused",
      "type": "event"
    },
    {
      "anonymous": false,
      "inputs": [
        {
          "indexed": true,
          "internalType": "address",
          "name": "operator",
          "type": "address"
        },
        {
          "indexed": true,
          "internalType": "address",
          "name": "from",
          "type": "address"
        },
        {
          "indexed": true,
          "internalType": "address",
          "name": "to",
          "type": "address"
        },
        {
          "indexed": false,
          "internalType": "uint256[]",
          "name": "ids",
          "type": "uint256[]"
        },
        {
          "indexed": false,
          "internalType": "uint256[]",
          "name": "values",
          "type": "uint256[]"
        }
      ],
      "name": "TransferBatch",
      "type": "event"
    },
    {
      "anonymous": false,
      "inputs": [
        {
          "indexed": true,
          "internalType": "address",
          "name": "operator",
          "type": "address"
        },
        {
          "indexed": true,
          "internalType": "address",
          "name": "from",
          "type": "address"
        },
        {
          "indexed": true,
          "internalType": "address",
          "name": "to",
          "type": "address"
        },
        {
          "indexed": false,
          "internalType": "uint256",
          "name": "id",
          "type": "uint256"
        },
        {
          "indexed": false,
          "internalType": "uint256",
          "name": "value",
          "type": "uint256"
        }
      ],
      "name": "TransferSingle",
      "type": "event"
    },
    {
      "anonymous": false,
      "inputs": [
        {
          "indexed": false,
          "internalType": "string",
          "name": "value",
          "type": "string"
        },
        {
          "indexed": true,
          "internalType": "uint256",
          "name": "id",
          "type": "uint256"
        }
      ],
      "name": "URI",
      "type": "event"
    },
    {
      "anonymous": false,
      "inputs": [
        {
          "indexed": false,
          "internalType": "address",
          "name": "account",
          "type": "address"
        }
      ],
      "name": "Unpaused",
      "type": "event"
    },
    {
      "inputs": [
        {
          "internalType": "address",
          "name": "account",
          "type": "address"
        },
        {
          "internalType": "uint256",
          "name": "id",
          "type": "uint256"
        }
      ],
      "name": "balanceOf",
      "outputs": [
        {
          "internalType": "uint256",
          "name": "",
          "type": "uint256"
        }
      ],
      "stateMutability": "view",
      "type": "function"
    },
    {
      "inputs": [
        {
          "internalType": "address[]",
          "name": "accounts",
          "type": "address[]"
        },
        {
          "internalType": "uint256[]",
          "name": "ids",
          "type": "uint256[]"
        }
      ],
      "name": "balanceOfBatch",
      "outputs": [
        {
          "internalType": "uint256[]",
          "name": "",
          "type": "uint256[]"
        }
      ],
      "stateMutability": "view",
      "type": "function"
    },
    {
      "inputs": [
        {
          "internalType": "address",
          "name": "owner",
          "type": "address"
        },
        {
          "internalType": "uint256",
          "name": "id",
          "type": "uint256"
        },
        {
          "internalType": "uint256",
          "name": "value",
          "type": "uint256"
        }
      ],
      "name": "burn",
      "outputs": [],
      "stateMutability": "nonpayable",
      "type": "function"
    },
    {
      "inputs": [
        {
          "internalType": "address",
          "name": "owner",
          "type": "address"
        },
        {
          "internalType": "uint256[]",
          "name": "ids",
          "type": "uint256[]"
        },
        {
          "internalType": "uint256[]",
          "name": "values",
          "type": "uint256[]"
        }
      ],
      "name": "burnBatch",
      "outputs": [],
      "stateMutability": "nonpayable",
      "type": "function"
    },
    {
      "inputs": [
        {
          "internalType": "address",
          "name": "account",
          "type": "address"
        },
        {
          "internalType": "address",
          "name": "operator",
          "type": "address"
        }
      ],
      "name": "isApprovedForAll",
      "outputs": [
        {
          "internalType": "bool",
          "name": "",
          "type": "bool"
        }
      ],
      "stateMutability": "view",
      "type": "function"
    },
    {
      "inputs": [
        {
          "internalType": "address",
          "name": "to",
          "type": "address"
        },
        {
          "internalType": "uint256",
          "name": "id",
          "type": "uint256"
        },
        {
          "internalType": "uint256",
          "name": "value",
          "type": "uint256"
        },
        {
          "internalType": "bytes",
          "name": "data",
          "type": "bytes"
        }
      ],
      "name": "mint",
      "outputs": [],
      "stateMutability": "nonpayable",
      "type": "function"
    },
    {
      "inputs": [
        {
          "internalType": "address",
          "name": "to",
          "type": "address"
        },
        {
          "internalType": "uint256[]",
          "name": "ids",
          "type": "uint256[]"
        },
        {
          "internalType": "uint256[]",
          "name": "values",
          "type": "uint256[]"
        },
        {
          "internalType": "bytes",
          "name": "data",
          "type": "bytes"
        }
      ],
      "name": "mintBatch",
      "outputs": [],
      "stateMutability": "nonpayable",
      "type": "function"
    },
    {
      "inputs": [],
      "name": "pause",
      "outputs": [],
      "stateMutability": "nonpayable",
      "type": "function"
    },
    {
      "inputs": [],
      "name": "paused",
      "outputs": [
        {
          "internalType": "bool",
          "name": "",
          "type": "bool"
        }
      ],
      "stateMutability": "view",
      "type": "function"
    },
    {
      "inputs": [
        {
          "internalType": "address",
          "name": "from",
          "type": "address"
        },
        {
          "internalType": "address",
          "name": "to",
          "type": "address"
        },
        {
          "internalType": "uint256[]",
          "name": "ids",
          "type": "uint256[]"
        },
        {
          "internalType": "uint256[]",
          "name": "amounts",
          "type": "uint256[]"
        },
        {
          "internalType": "bytes",
          "name": "data",
          "type": "bytes"
        }
      ],
      "name": "safeBatchTransferFrom",
      "outputs": [],
      "stateMutability": "nonpayable",
      "type": "function"
    },
    {
      "inputs": [
        {
          "internalType": "address",
          "name": "from",
          "type": "address"
        },
        {
          "internalType": "address",
          "name": "to",
          "type": "address"
        },
        {
          "internalType": "uint256",
          "name": "id",
          "type": "uint256"
        },
        {
          "internalType": "uint256",
          "name": "amount",
          "type": "uint256"
        },
        {
          "internalType": "bytes",
          "name": "data",
          "type": "bytes"
        }
      ],
      "name": "safeTransferFrom",
      "outputs": [],
      "stateMutability": "nonpayable",
      "type": "function"
    },
    {
      "inputs": [
        {
          "internalType": "address",
          "name": "operator",
          "type": "address"
        },
        {
          "internalType": "bool",
          "name": "approved",
          "type": "bool"
        }
      ],
      "name": "setApprovalForAll",
      "outputs": [],
      "stateMutability": "nonpayable",
      "type": "function"
    },
    {
      "inputs": [
        {
          "internalType": "string",
          "name": "newuri",
          "type": "string"
        }
      ],
      "name": "setURI",
      "outputs": [],
      "stateMutability": "nonpayable",
      "type": "function"
    },
    {
      "inputs": [
        {
          "internalType": "bytes4",
          "name": "interfaceId",
          "type": "bytes4"
        }
      ],
      "name": "supportsInterface",
      "outputs": [
        {
          "internalType": "bool",
          "name": "",
          "type": "bool"
        }
      ],
      "stateMutability": "view",
      "type": "function"
    },
    {
      "inputs": [],
      "name": "unpause",
      "outputs": [],
      "stateMutability": "nonpayable",
      "type": "function"
    },
    {
      "inputs": [
        {
          "internalType": "uint256",
          "name": "",
          "type": "uint256"
        }
      ],
      "name": "uri",
      "outputs": [
        {
          "internalType": "string",
          "name": "",
          "type": "string"
        }
      ],
      "stateMutability": "view",
      "type": "function"
    }
  ],
  "bytecode": "0x60806040523480156200001157600080fd5b5060405162003c2738038062003c278339818101604052810190620000379190620002d7565b80806200004a816200006e60201b60201c565b50506000600360006101000a81548160ff021916908315150217905550506200038d565b8060029080519060200190620000869291906200008a565b5050565b828054620000989062000357565b90600052602060002090601f016020900481019282620000bc576000855562000108565b82601f10620000d757805160ff191683800117855562000108565b8280016001018555821562000108579182015b8281111562000107578251825591602001919060010190620000ea565b5b5090506200011791906200011b565b5090565b5b80821115620001365760008160009055506001016200011c565b5090565b6000604051905090565b600080fd5b600080fd5b600080fd5b600080fd5b6000601f19601f8301169050919050565b7f4e487b7100000000000000000000000000000000000000000000000000000000600052604160045260246000fd5b620001a38262000158565b810181811067ffffffffffffffff82111715620001c557620001c462000169565b5b80604052505050565b6000620001da6200013a565b9050620001e8828262000198565b919050565b600067ffffffffffffffff8211156200020b576200020a62000169565b5b620002168262000158565b9050602081019050919050565b60005b838110156200024357808201518184015260208101905062000226565b8381111562000253576000848401525b50505050565b6000620002706200026a84620001ed565b620001ce565b9050828152602081018484840111156200028f576200028e62000153565b5b6200029c84828562000223565b509392505050565b600082601f830112620002bc57620002bb6200014e565b5b8151620002ce84826020860162000259565b91505092915050565b600060208284031215620002f057620002ef62000144565b5b600082015167ffffffffffffffff81111562000311576200031062000149565b5b6200031f84828501620002a4565b91505092915050565b7f4e487b7100000000000000000000000000000000000000000000000000000000600052602260045260246000fd5b600060028204905060018216806200037057607f821691505b6020821081141562000387576200038662000328565b5b50919050565b61388a806200039d6000396000f3fe608060405234801561001057600080fd5b50600436106100ff5760003560e01c80635c975abb11610097578063a22cb46511610066578063a22cb46514610282578063e985e9c51461029e578063f242432a146102ce578063f5298aca146102ea576100ff565b80635c975abb146102225780636b20c45414610240578063731133e91461025c5780638456cb5914610278576100ff565b80631f7fdffa116100d35780631f7fdffa146101b05780632eb2c2d6146101cc5780633f4ba83a146101e85780634e1273f4146101f2576100ff565b8062fdd58e1461010457806301ffc9a71461013457806302fe5305146101645780630e89341c14610180575b600080fd5b61011e6004803603810190610119919061203d565b610306565b60405161012b919061208c565b60405180910390f35b61014e600480360381019061014991906120ff565b6103cf565b60405161015b9190612147565b60405180910390f35b61017e600480360381019061017991906122a8565b6104b1565b005b61019a600480360381019061019591906122f1565b6104bd565b6040516101a791906123a6565b60405180910390f35b6101ca60048036038101906101c59190612531565b610551565b005b6101e660048036038101906101e191906125ec565b610563565b005b6101f0610604565b005b61020c6004803603810190610207919061277e565b61060e565b60405161021991906128b4565b60405180910390f35b61022a610727565b6040516102379190612147565b60405180910390f35b61025a600480360381019061025591906128d6565b61073e565b005b61027660048036038101906102719190612961565b61074e565b005b610280610760565b005b61029c60048036038101906102979190612a10565b61076a565b005b6102b860048036038101906102b39190612a50565b610780565b6040516102c59190612147565b60405180910390f35b6102e860048036038101906102e39190612a90565b610814565b005b61030460048036038101906102ff9190612b27565b6108b5565b005b60008073ffffffffffffffffffffffffffffffffffffffff168373ffffffffffffffffffffffffffffffffffffffff161415610377576040517f08c379a000000000000000000000000000000000000000000000000000000000815260040161036e90612bec565b60405180910390fd5b60008083815260200190815260200160002060008473ffffffffffffffffffffffffffffffffffffffff1673ffffffffffffffffffffffffffffffffffffffff16815260200190815260200160002054905092915050565b60007fd9b67a26000000000000000000000000000000000000000000000000000000007bffffffffffffffffffffffffffffffffffffffffffffffffffffffff1916827bffffffffffffffffffffffffffffffffffffffffffffffffffffffff1916148061049a57507f0e89341c000000000000000000000000000000000000000000000000000000007bffffffffffffffffffffffffffffffffffffffffffffffffffffffff1916827bffffffffffffffffffffffffffffffffffffffffffffffffffffffff1916145b806104aa57506104a9826108c5565b5b9050919050565b6104ba8161092f565b50565b6060600280546104cc90612c3b565b80601f01602080910402602001604051908101604052809291908181526020018280546104f890612c3b565b80156105455780601f1061051a57610100808354040283529160200191610545565b820191906000526020600020905b81548152906001019060200180831161052857829003601f168201915b50505050509050919050565b61055d84848484610949565b50505050565b61056b610b67565b73ffffffffffffffffffffffffffffffffffffffff168573ffffffffffffffffffffffffffffffffffffffff1614806105b157506105b0856105ab610b67565b610780565b5b6105f0576040517f08c379a00000000000000000000000000000000000000000000000000000000081526004016105e790612cdf565b60405180910390fd5b6105fd8585858585610b6f565b5050505050565b61060c610e83565b565b60608151835114610654576040517f08c379a000000000000000000000000000000000000000000000000000000000815260040161064b90612d71565b60405180910390fd5b6000835167ffffffffffffffff8111156106715761067061217d565b5b60405190808252806020026020018201604052801561069f5781602001602082028036833780820191505090505b50905060005b845181101561071c576106ec8582815181106106c4576106c3612d91565b5b60200260200101518583815181106106df576106de612d91565b5b6020026020010151610306565b8282815181106106ff576106fe612d91565b5b6020026020010181815250508061071590612def565b90506106a5565b508091505092915050565b6000600360009054906101000a900460ff16905090565b610749838383610f25565b505050565b61075a848484846111d6565b50505050565b61076861136c565b565b61077c610775610b67565b838361140f565b5050565b6000600160008473ffffffffffffffffffffffffffffffffffffffff1673ffffffffffffffffffffffffffffffffffffffff16815260200190815260200160002060008373ffffffffffffffffffffffffffffffffffffffff1673ffffffffffffffffffffffffffffffffffffffff16815260200190815260200160002060009054906101000a900460ff16905092915050565b61081c610b67565b73ffffffffffffffffffffffffffffffffffffffff168573ffffffffffffffffffffffffffffffffffffffff16148061086257506108618561085c610b67565b610780565b5b6108a1576040517f08c379a000000000000000000000000000000000000000000000000000000000815260040161089890612eaa565b60405180910390fd5b6108ae858585858561157c565b5050505050565b6108c08383836117fe565b505050565b60007f01ffc9a7000000000000000000000000000000000000000000000000000000007bffffffffffffffffffffffffffffffffffffffffffffffffffffffff1916827bffffffffffffffffffffffffffffffffffffffffffffffffffffffff1916149050919050565b8060029080519060200190610945929190611ef2565b5050565b600073ffffffffffffffffffffffffffffffffffffffff168473ffffffffffffffffffffffffffffffffffffffff1614156109b9576040517f08c379a00000000000000000000000000000000000000000000000000000000081526004016109b090612f3c565b60405180910390fd5b81518351146109fd576040517f08c379a00000000000000000000000000000000000000000000000000000000081526004016109f490612fce565b60405180910390fd5b6000610a07610b67565b9050610a1881600087878787611a1b565b60005b8451811015610ad157838181518110610a3757610a36612d91565b5b6020026020010151600080878481518110610a5557610a54612d91565b5b6020026020010151815260200190815260200160002060008873ffffffffffffffffffffffffffffffffffffffff1673ffffffffffffffffffffffffffffffffffffffff1681526020019081526020016000206000828254610ab79190612fee565b925050819055508080610ac990612def565b915050610a1b565b508473ffffffffffffffffffffffffffffffffffffffff16600073ffffffffffffffffffffffffffffffffffffffff168273ffffffffffffffffffffffffffffffffffffffff167f4a39dc06d4c0dbc64b70af90fd698a233a518aa5d07e595d983b8c0526c8f7fb8787604051610b49929190613044565b60405180910390a4610b6081600087878787611a31565b5050505050565b600033905090565b8151835114610bb3576040517f08c379a0000000000000000000000000000000000000000000000000000000008152600401610baa90612fce565b60405180910390fd5b600073ffffffffffffffffffffffffffffffffffffffff168473ffffffffffffffffffffffffffffffffffffffff161415610c23576040517f08c379a0000000000000000000000000000000000000000000000000000000008152600401610c1a906130ed565b60405180910390fd5b6000610c2d610b67565b9050610c3d818787878787611a1b565b60005b8451811015610dee576000858281518110610c5e57610c5d612d91565b5b602002602001015190506000858381518110610c7d57610c7c612d91565b5b60200260200101519050600080600084815260200190815260200160002060008b73ffffffffffffffffffffffffffffffffffffffff1673ffffffffffffffffffffffffffffffffffffffff16815260200190815260200160002054905081811015610d1e576040517f08c379a0000000000000000000000000000000000000000000000000000000008152600401610d159061317f565b60405180910390fd5b81810360008085815260200190815260200160002060008c73ffffffffffffffffffffffffffffffffffffffff1673ffffffffffffffffffffffffffffffffffffffff168152602001908152602001600020819055508160008085815260200190815260200160002060008b73ffffffffffffffffffffffffffffffffffffffff1673ffffffffffffffffffffffffffffffffffffffff1681526020019081526020016000206000828254610dd39190612fee565b9250508190555050505080610de790612def565b9050610c40565b508473ffffffffffffffffffffffffffffffffffffffff168673ffffffffffffffffffffffffffffffffffffffff168273ffffffffffffffffffffffffffffffffffffffff167f4a39dc06d4c0dbc64b70af90fd698a233a518aa5d07e595d983b8c0526c8f7fb8787604051610e65929190613044565b60405180910390a4610e7b818787878787611a31565b505050505050565b610e8b610727565b610eca576040517f08c379a0000000000000000000000000000000000000000000000000000000008152600401610ec1906131eb565b60405180910390fd5b6000600360006101000a81548160ff0219169083151502179055507f5db9ee0a495bf2e6ff9c91a7834c1ba4fdd244a5e8aa4e537bd38aeae4b073aa610f0e610b67565b604051610f1b919061321a565b60405180910390a1565b600073ffffffffffffffffffffffffffffffffffffffff168373ffffffffffffffffffffffffffffffffffffffff161415610f95576040517f08c379a0000000000000000000000000000000000000000000000000000000008152600401610f8c906132a7565b60405180910390fd5b8051825114610fd9576040517f08c379a0000000000000000000000000000000000000000000000000000000008152600401610fd090612fce565b60405180910390fd5b6000610fe3610b67565b905061100381856000868660405180602001604052806000815250611a1b565b60005b835181101561115057600084828151811061102457611023612d91565b5b60200260200101519050600084838151811061104357611042612d91565b5b60200260200101519050600080600084815260200190815260200160002060008973ffffffffffffffffffffffffffffffffffffffff1673ffffffffffffffffffffffffffffffffffffffff168152602001908152602001600020549050818110156110e4576040517f08c379a00000000000000000000000000000000000000000000000000000000081526004016110db90613339565b60405180910390fd5b81810360008085815260200190815260200160002060008a73ffffffffffffffffffffffffffffffffffffffff1673ffffffffffffffffffffffffffffffffffffffff16815260200190815260200160002081905550505050808061114890612def565b915050611006565b50600073ffffffffffffffffffffffffffffffffffffffff168473ffffffffffffffffffffffffffffffffffffffff168273ffffffffffffffffffffffffffffffffffffffff167f4a39dc06d4c0dbc64b70af90fd698a233a518aa5d07e595d983b8c0526c8f7fb86866040516111c8929190613044565b60405180910390a450505050565b600073ffffffffffffffffffffffffffffffffffffffff168473ffffffffffffffffffffffffffffffffffffffff161415611246576040517f08c379a000000000000000000000000000000000000000000000000000000000815260040161123d90612f3c565b60405180910390fd5b6000611250610b67565b90506112718160008761126288611c18565b61126b88611c18565b87611a1b565b8260008086815260200190815260200160002060008773ffffffffffffffffffffffffffffffffffffffff1673ffffffffffffffffffffffffffffffffffffffff16815260200190815260200160002060008282546112d09190612fee565b925050819055508473ffffffffffffffffffffffffffffffffffffffff16600073ffffffffffffffffffffffffffffffffffffffff168273ffffffffffffffffffffffffffffffffffffffff167fc3d58168c5ae7397731d063d5bbf3d657854427343f4c083240f7aacaa2d0f62878760405161134e929190613359565b60405180910390a461136581600087878787611c92565b5050505050565b611374610727565b156113b4576040517f08c379a00000000000000000000000000000000000000000000000000000000081526004016113ab906133ce565b60405180910390fd5b6001600360006101000a81548160ff0219169083151502179055507f62e78cea01bee320cd4e420270b5ea74000d11b0c9f74754ebdbfc544b05a2586113f8610b67565b604051611405919061321a565b60405180910390a1565b8173ffffffffffffffffffffffffffffffffffffffff168373ffffffffffffffffffffffffffffffffffffffff16141561147e576040517f08c379a000000000000000000000000000000000000000000000000000000000815260040161147590613460565b60405180910390fd5b80600160008573ffffffffffffffffffffffffffffffffffffffff1673ffffffffffffffffffffffffffffffffffffffff16815260200190815260200160002060008473ffffffffffffffffffffffffffffffffffffffff1673ffffffffffffffffffffffffffffffffffffffff16815260200190815260200160002060006101000a81548160ff0219169083151502179055508173ffffffffffffffffffffffffffffffffffffffff168373ffffffffffffffffffffffffffffffffffffffff167f17307eab39ab6107e8899845ad3d59bd9653f200f220920489ca2b5937696c318360405161156f9190612147565b60405180910390a3505050565b600073ffffffffffffffffffffffffffffffffffffffff168473ffffffffffffffffffffffffffffffffffffffff1614156115ec576040517f08c379a00000000000000000000000000000000000000000000000000000000081526004016115e3906130ed565b60405180910390fd5b60006115f6610b67565b905061161681878761160788611c18565b61161088611c18565b87611a1b565b600080600086815260200190815260200160002060008873ffffffffffffffffffffffffffffffffffffffff1673ffffffffffffffffffffffffffffffffffffffff168152602001908152602001600020549050838110156116ad576040517f08c379a00000000000000000000000000000000000000000000000000000000081526004016116a49061317f565b60405180910390fd5b83810360008087815260200190815260200160002060008973ffffffffffffffffffffffffffffffffffffffff1673ffffffffffffffffffffffffffffffffffffffff168152602001908152602001600020819055508360008087815260200190815260200160002060008873ffffffffffffffffffffffffffffffffffffffff1673ffffffffffffffffffffffffffffffffffffffff16815260200190815260200160002060008282546117629190612fee565b925050819055508573ffffffffffffffffffffffffffffffffffffffff168773ffffffffffffffffffffffffffffffffffffffff168373ffffffffffffffffffffffffffffffffffffffff167fc3d58168c5ae7397731d063d5bbf3d657854427343f4c083240f7aacaa2d0f6288886040516117df929190613359565b60405180910390a46117f5828888888888611c92565b50505050505050565b600073ffffffffffffffffffffffffffffffffffffffff168373ffffffffffffffffffffffffffffffffffffffff16141561186e576040517f08c379a0000000000000000000000000000000000000000000000000000000008152600401611865906132a7565b60405180910390fd5b6000611878610b67565b90506118a88185600061188a87611c18565b61189387611c18565b60405180602001604052806000815250611a1b565b600080600085815260200190815260200160002060008673ffffffffffffffffffffffffffffffffffffffff1673ffffffffffffffffffffffffffffffffffffffff1681526020019081526020016000205490508281101561193f576040517f08c379a000000000000000000000000000000000000000000000000000000000815260040161193690613339565b60405180910390fd5b82810360008086815260200190815260200160002060008773ffffffffffffffffffffffffffffffffffffffff1673ffffffffffffffffffffffffffffffffffffffff16815260200190815260200160002081905550600073ffffffffffffffffffffffffffffffffffffffff168573ffffffffffffffffffffffffffffffffffffffff168373ffffffffffffffffffffffffffffffffffffffff167fc3d58168c5ae7397731d063d5bbf3d657854427343f4c083240f7aacaa2d0f628787604051611a0c929190613359565b60405180910390a45050505050565b611a29868686868686611e79565b505050505050565b611a508473ffffffffffffffffffffffffffffffffffffffff16611ed7565b15611c10578373ffffffffffffffffffffffffffffffffffffffff1663bc197c8187878686866040518663ffffffff1660e01b8152600401611a969594939291906134d5565b602060405180830381600087803b158015611ab057600080fd5b505af1925050508015611ae157506040513d601f19601f82011682018060405250810190611ade9190613552565b60015b611b8757611aed61358c565b806308c379a01415611b4a5750611b026135ae565b80611b0d5750611b4c565b806040517f08c379a0000000000000000000000000000000000000000000000000000000008152600401611b4191906123a6565b60405180910390fd5b505b6040517f08c379a0000000000000000000000000000000000000000000000000000000008152600401611b7e906136b6565b60405180910390fd5b63bc197c8160e01b7bffffffffffffffffffffffffffffffffffffffffffffffffffffffff1916817bffffffffffffffffffffffffffffffffffffffffffffffffffffffff191614611c0e576040517f08c379a0000000000000000000000000000000000000000000000000000000008152600401611c0590613748565b60405180910390fd5b505b505050505050565b60606000600167ffffffffffffffff811115611c3757611c3661217d565b5b604051908082528060200260200182016040528015611c655781602001602082028036833780820191505090505b5090508281600081518110611c7d57611c7c612d91565b5b60200260200101818152505080915050919050565b611cb18473ffffffffffffffffffffffffffffffffffffffff16611ed7565b15611e71578373ffffffffffffffffffffffffffffffffffffffff1663f23a6e6187878686866040518663ffffffff1660e01b8152600401611cf7959493929190613768565b602060405180830381600087803b158015611d1157600080fd5b505af1925050508015611d4257506040513d601f19601f82011682018060405250810190611d3f9190613552565b60015b611de857611d4e61358c565b806308c379a01415611dab5750611d636135ae565b80611d6e5750611dad565b806040517f08c379a0000000000000000000000000000000000000000000000000000000008152600401611da291906123a6565b60405180910390fd5b505b6040517f08c379a0000000000000000000000000000000000000000000000000000000008152600401611ddf906136b6565b60405180910390fd5b63f23a6e6160e01b7bffffffffffffffffffffffffffffffffffffffffffffffffffffffff1916817bffffffffffffffffffffffffffffffffffffffffffffffffffffffff191614611e6f576040517f08c379a0000000000000000000000000000000000000000000000000000000008152600401611e6690613748565b60405180910390fd5b505b505050505050565b611e87868686868686611eea565b611e8f610727565b15611ecf576040517f08c379a0000000000000000000000000000000000000000000000000000000008152600401611ec690613834565b60405180910390fd5b505050505050565b600080823b905060008111915050919050565b505050505050565b828054611efe90612c3b565b90600052602060002090601f016020900481019282611f205760008555611f67565b82601f10611f3957805160ff1916838001178555611f67565b82800160010185558215611f67579182015b82811115611f66578251825591602001919060010190611f4b565b5b509050611f749190611f78565b5090565b5b80821115611f91576000816000905550600101611f79565b5090565b6000604051905090565b600080fd5b600080fd5b600073ffffffffffffffffffffffffffffffffffffffff82169050919050565b6000611fd482611fa9565b9050919050565b611fe481611fc9565b8114611fef57600080fd5b50565b60008135905061200181611fdb565b92915050565b6000819050919050565b61201a81612007565b811461202557600080fd5b50565b60008135905061203781612011565b92915050565b6000806040838503121561205457612053611f9f565b5b600061206285828601611ff2565b925050602061207385828601612028565b9150509250929050565b61208681612007565b82525050565b60006020820190506120a1600083018461207d565b92915050565b60007fffffffff0000000000000000000000000000000000000000000000000000000082169050919050565b6120dc816120a7565b81146120e757600080fd5b50565b6000813590506120f9816120d3565b92915050565b60006020828403121561211557612114611f9f565b5b6000612123848285016120ea565b91505092915050565b60008115159050919050565b6121418161212c565b82525050565b600060208201905061215c6000830184612138565b92915050565b600080fd5b600080fd5b6000601f19601f8301169050919050565b7f4e487b7100000000000000000000000000000000000000000000000000000000600052604160045260246000fd5b6121b58261216c565b810181811067ffffffffffffffff821117156121d4576121d361217d565b5b80604052505050565b60006121e7611f95565b90506121f382826121ac565b919050565b600067ffffffffffffffff8211156122135761221261217d565b5b61221c8261216c565b9050602081019050919050565b82818337600083830152505050565b600061224b612246846121f8565b6121dd565b90508281526020810184848401111561226757612266612167565b5b612272848285612229565b509392505050565b600082601f83011261228f5761228e612162565b5b813561229f848260208601612238565b91505092915050565b6000602082840312156122be576122bd611f9f565b5b600082013567ffffffffffffffff8111156122dc576122db611fa4565b5b6122e88482850161227a565b91505092915050565b60006020828403121561230757612306611f9f565b5b600061231584828501612028565b91505092915050565b600081519050919050565b600082825260208201905092915050565b60005b8381101561235857808201518184015260208101905061233d565b83811115612367576000848401525b50505050565b60006123788261231e565b6123828185612329565b935061239281856020860161233a565b61239b8161216c565b840191505092915050565b600060208201905081810360008301526123c0818461236d565b905092915050565b600067ffffffffffffffff8211156123e3576123e261217d565b5b602082029050602081019050919050565b600080fd5b600061240c612407846123c8565b6121dd565b9050808382526020820190506020840283018581111561242f5761242e6123f4565b5b835b8181101561245857806124448882612028565b845260208401935050602081019050612431565b5050509392505050565b600082601f83011261247757612476612162565b5b81356124878482602086016123f9565b91505092915050565b600067ffffffffffffffff8211156124ab576124aa61217d565b5b6124b48261216c565b9050602081019050919050565b60006124d46124cf84612490565b6121dd565b9050828152602081018484840111156124f0576124ef612167565b5b6124fb848285612229565b509392505050565b600082601f83011261251857612517612162565b5b81356125288482602086016124c1565b91505092915050565b6000806000806080858703121561254b5761254a611f9f565b5b600061255987828801611ff2565b945050602085013567ffffffffffffffff81111561257a57612579611fa4565b5b61258687828801612462565b935050604085013567ffffffffffffffff8111156125a7576125a6611fa4565b5b6125b387828801612462565b925050606085013567ffffffffffffffff8111156125d4576125d3611fa4565b5b6125e087828801612503565b91505092959194509250565b600080600080600060a0868803121561260857612607611f9f565b5b600061261688828901611ff2565b955050602061262788828901611ff2565b945050604086013567ffffffffffffffff81111561264857612647611fa4565b5b61265488828901612462565b935050606086013567ffffffffffffffff81111561267557612674611fa4565b5b61268188828901612462565b925050608086013567ffffffffffffffff8111156126a2576126a1611fa4565b5b6126ae88828901612503565b9150509295509295909350565b600067ffffffffffffffff8211156126d6576126d561217d565b5b602082029050602081019050919050565b60006126fa6126f5846126bb565b6121dd565b9050808382526020820190506020840283018581111561271d5761271c6123f4565b5b835b8181101561274657806127328882611ff2565b84526020840193505060208101905061271f565b5050509392505050565b600082601f83011261276557612764612162565b5b81356127758482602086016126e7565b91505092915050565b6000806040838503121561279557612794611f9f565b5b600083013567ffffffffffffffff8111156127b3576127b2611fa4565b5b6127bf85828601612750565b925050602083013567ffffffffffffffff8111156127e0576127df611fa4565b5b6127ec85828601612462565b9150509250929050565b600081519050919050565b600082825260208201905092915050565b6000819050602082019050919050565b61282b81612007565b82525050565b600061283d8383612822565b60208301905092915050565b6000602082019050919050565b6000612861826127f6565b61286b8185612801565b935061287683612812565b8060005b838110156128a757815161288e8882612831565b975061289983612849565b92505060018101905061287a565b5085935050505092915050565b600060208201905081810360008301526128ce8184612856565b905092915050565b6000806000606084860312156128ef576128ee611f9f565b5b60006128fd86828701611ff2565b935050602084013567ffffffffffffffff81111561291e5761291d611fa4565b5b61292a86828701612462565b925050604084013567ffffffffffffffff81111561294b5761294a611fa4565b5b61295786828701612462565b9150509250925092565b6000806000806080858703121561297b5761297a611f9f565b5b600061298987828801611ff2565b945050602061299a87828801612028565b93505060406129ab87828801612028565b925050606085013567ffffffffffffffff8111156129cc576129cb611fa4565b5b6129d887828801612503565b91505092959194509250565b6129ed8161212c565b81146129f857600080fd5b50565b600081359050612a0a816129e4565b92915050565b60008060408385031215612a2757612a26611f9f565b5b6000612a3585828601611ff2565b9250506020612a46858286016129fb565b9150509250929050565b60008060408385031215612a6757612a66611f9f565b5b6000612a7585828601611ff2565b9250506020612a8685828601611ff2565b9150509250929050565b600080600080600060a08688031215612aac57612aab611f9f565b5b6000612aba88828901611ff2565b9550506020612acb88828901611ff2565b9450506040612adc88828901612028565b9350506060612aed88828901612028565b925050608086013567ffffffffffffffff811115612b0e57612b0d611fa4565b5b612b1a88828901612503565b9150509295509295909350565b600080600060608486031215612b4057612b3f611f9f565b5b6000612b4e86828701611ff2565b9350506020612b5f86828701612028565b9250506040612b7086828701612028565b9150509250925092565b7f455243313135353a2062616c616e636520717565727920666f7220746865207a60008201527f65726f2061646472657373000000000000000000000000000000000000000000602082015250565b6000612bd6602b83612329565b9150612be182612b7a565b604082019050919050565b60006020820190508181036000830152612c0581612bc9565b9050919050565b7f4e487b7100000000000000000000000000000000000000000000000000000000600052602260045260246000fd5b60006002820490506001821680612c5357607f821691505b60208210811415612c6757612c66612c0c565b5b50919050565b7f455243313135353a207472616e736665722063616c6c6572206973206e6f742060008201527f6f776e6572206e6f7220617070726f7665640000000000000000000000000000602082015250565b6000612cc9603283612329565b9150612cd482612c6d565b604082019050919050565b60006020820190508181036000830152612cf881612cbc565b9050919050565b7f455243313135353a206163636f756e747320616e6420696473206c656e67746860008201527f206d69736d617463680000000000000000000000000000000000000000000000602082015250565b6000612d5b602983612329565b9150612d6682612cff565b604082019050919050565b60006020820190508181036000830152612d8a81612d4e565b9050919050565b7f4e487b7100000000000000000000000000000000000000000000000000000000600052603260045260246000fd5b7f4e487b7100000000000000000000000000000000000000000000000000000000600052601160045260246000fd5b6000612dfa82612007565b91507fffffffffffffffffffffffffffffffffffffffffffffffffffffffffffffffff821415612e2d57612e2c612dc0565b5b600182019050919050565b7f455243313135353a2063616c6c6572206973206e6f74206f776e6572206e6f7260008201527f20617070726f7665640000000000000000000000000000000000000000000000602082015250565b6000612e94602983612329565b9150612e9f82612e38565b604082019050919050565b60006020820190508181036000830152612ec381612e87565b9050919050565b7f455243313135353a206d696e7420746f20746865207a65726f2061646472657360008201527f7300000000000000000000000000000000000000000000000000000000000000602082015250565b6000612f26602183612329565b9150612f3182612eca565b604082019050919050565b60006020820190508181036000830152612f5581612f19565b9050919050565b7f455243313135353a2069647320616e6420616d6f756e7473206c656e6774682060008201527f6d69736d61746368000000000000000000000000000000000000000000000000602082015250565b6000612fb8602883612329565b9150612fc382612f5c565b604082019050919050565b60006020820190508181036000830152612fe781612fab565b9050919050565b6000612ff982612007565b915061300483612007565b9250827fffffffffffffffffffffffffffffffffffffffffffffffffffffffffffffffff0382111561303957613038612dc0565b5b828201905092915050565b6000604082019050818103600083015261305e8185612856565b905081810360208301526130728184612856565b90509392505050565b7f455243313135353a207472616e7366657220746f20746865207a65726f20616460008201527f6472657373000000000000000000000000000000000000000000000000000000602082015250565b60006130d7602583612329565b91506130e28261307b565b604082019050919050565b60006020820190508181036000830152613106816130ca565b9050919050565b7f455243313135353a20696e73756666696369656e742062616c616e636520666f60008201527f72207472616e7366657200000000000000000000000000000000000000000000602082015250565b6000613169602a83612329565b91506131748261310d565b604082019050919050565b600060208201905081810360008301526131988161315c565b9050919050565b7f5061757361626c653a206e6f7420706175736564000000000000000000000000600082015250565b60006131d5601483612329565b91506131e08261319f565b602082019050919050565b60006020820190508181036000830152613204816131c8565b9050919050565b61321481611fc9565b82525050565b600060208201905061322f600083018461320b565b92915050565b7f455243313135353a206275726e2066726f6d20746865207a65726f206164647260008201527f6573730000000000000000000000000000000000000000000000000000000000602082015250565b6000613291602383612329565b915061329c82613235565b604082019050919050565b600060208201905081810360008301526132c081613284565b9050919050565b7f455243313135353a206275726e20616d6f756e7420657863656564732062616c60008201527f616e636500000000000000000000000000000000000000000000000000000000602082015250565b6000613323602483612329565b915061332e826132c7565b604082019050919050565b6000602082019050818103600083015261335281613316565b9050919050565b600060408201905061336e600083018561207d565b61337b602083018461207d565b9392505050565b7f5061757361626c653a2070617573656400000000000000000000000000000000600082015250565b60006133b8601083612329565b91506133c382613382565b602082019050919050565b600060208201905081810360008301526133e7816133ab565b9050919050565b7f455243313135353a2073657474696e6720617070726f76616c2073746174757360008201527f20666f722073656c660000000000000000000000000000000000000000000000602082015250565b600061344a602983612329565b9150613455826133ee565b604082019050919050565b600060208201905081810360008301526134798161343d565b9050919050565b600081519050919050565b600082825260208201905092915050565b60006134a782613480565b6134b1818561348b565b93506134c181856020860161233a565b6134ca8161216c565b840191505092915050565b600060a0820190506134ea600083018861320b565b6134f7602083018761320b565b81810360408301526135098186612856565b9050818103606083015261351d8185612856565b90508181036080830152613531818461349c565b90509695505050505050565b60008151905061354c816120d3565b92915050565b60006020828403121561356857613567611f9f565b5b60006135768482850161353d565b91505092915050565b60008160e01c9050919050565b600060033d11156135ab5760046000803e6135a860005161357f565b90505b90565b600060443d10156135be57613641565b6135c6611f95565b60043d036004823e80513d602482011167ffffffffffffffff821117156135ee575050613641565b808201805167ffffffffffffffff81111561360c5750505050613641565b80602083010160043d038501811115613629575050505050613641565b613638826020018501866121ac565b82955050505050505b90565b7f455243313135353a207472616e7366657220746f206e6f6e204552433131353560008201527f526563656976657220696d706c656d656e746572000000000000000000000000602082015250565b60006136a0603483612329565b91506136ab82613644565b604082019050919050565b600060208201905081810360008301526136cf81613693565b9050919050565b7f455243313135353a204552433131353552656365697665722072656a6563746560008201527f6420746f6b656e73000000000000000000000000000000000000000000000000602082015250565b6000613732602883612329565b915061373d826136d6565b604082019050919050565b6000602082019050818103600083015261376181613725565b9050919050565b600060a08201905061377d600083018861320b565b61378a602083018761320b565b613797604083018661207d565b6137a4606083018561207d565b81810360808301526137b6818461349c565b90509695505050505050565b7f455243313135355061757361626c653a20746f6b656e207472616e736665722060008201527f7768696c65207061757365640000000000000000000000000000000000000000602082015250565b600061381e602c83612329565b9150613829826137c2565b604082019050919050565b6000602082019050818103600083015261384d81613811565b905091905056fea2646970667358221220e818147e37685f8ed2699804716aeee78517d28918173d6cb7aa0d3c6957d78764736f6c63430008090033",
  "linkReferences": {},
  "deployedLinkReferences": {}
}