{
  "_format": "hh-sol-artifact-1",
  "contractName": "ZionVestingWallet",
  "sourceName": "contracts/finance/ZionVestingWallet.sol",
  "abi": [
    {
      "inputs": [
        {
          "internalType": "address",
          "name": "beneficiaryAddress",
          "type": "address"
        },
        {
          "internalType": "uint64",
          "name": "startTimestamp",
          "type": "uint64"
        },
        {
          "internalType": "uint64",
          "name": "durationSeconds",
          "type": "uint64"
        }
      ],
      "stateMutability": "nonpayable",
      "type": "constructor"
    },
    {
      "anonymous": false,
      "inputs": [
        {
          "indexed": false,
          "internalType": "address",
          "name": "token",
          "type": "address"
        },
        {
          "indexed": false,
          "internalType": "uint256",
          "name": "amont",
          "type": "uint256"
        }
      ],
      "name": "ERC20Released",
      "type": "event"
    },
    {
      "inputs": [],
      "name": "beneficiary",
      "outputs": [
        {
          "internalType": "address",
          "name": "",
          "type": "address"
        }
      ],
      "stateMutability": "view",
      "type": "function"
    },
    {
      "inputs": [],
      "name": "duration",
      "outputs": [
        {
          "internalType": "uint256",
          "name": "",
          "type": "uint256"
        }
      ],
      "stateMutability": "view",
      "type": "function"
    },
    {
      "inputs": [
        {
          "internalType": "address",
          "name": "token",
          "type": "address"
        }
      ],
      "name": "release",
      "outputs": [],
      "stateMutability": "nonpayable",
      "type": "function"
    },
    {
      "inputs": [
        {
          "internalType": "address",
          "name": "token",
          "type": "address"
        }
      ],
      "name": "released",
      "outputs": [
        {
          "internalType": "uint256",
          "name": "",
          "type": "uint256"
        }
      ],
      "stateMutability": "view",
      "type": "function"
    },
    {
      "inputs": [],
      "name": "start",
      "outputs": [
        {
          "internalType": "uint256",
          "name": "",
          "type": "uint256"
        }
      ],
      "stateMutability": "view",
      "type": "function"
    },
    {
      "inputs": [
        {
          "internalType": "bytes4",
          "name": "interfaceId",
          "type": "bytes4"
        }
      ],
      "name": "supportsInterface",
      "outputs": [
        {
          "internalType": "bool",
          "name": "",
          "type": "bool"
        }
      ],
      "stateMutability": "view",
      "type": "function"
    },
    {
      "inputs": [
        {
          "internalType": "address",
          "name": "token",
          "type": "address"
        },
        {
          "internalType": "uint64",
          "name": "timestamp",
          "type": "uint64"
        }
      ],
      "name": "vestedAmount",
      "outputs": [
        {
          "internalType": "uint256",
          "name": "",
          "type": "uint256"
        }
      ],
      "stateMutability": "view",
      "type": "function"
    }
  ],
  "bytecode": "0x60e06040523480156200001157600080fd5b506040516200129c3803806200129c8339818101604052810190620000379190620001ce565b600073ffffffffffffffffffffffffffffffffffffffff168373ffffffffffffffffffffffffffffffffffffffff161415620000aa576040517f08c379a0000000000000000000000000000000000000000000000000000000008152600401620000a190620002b1565b60405180910390fd5b8273ffffffffffffffffffffffffffffffffffffffff1660808173ffffffffffffffffffffffffffffffffffffffff16815250508167ffffffffffffffff1660a08167ffffffffffffffff16815250508067ffffffffffffffff1660c08167ffffffffffffffff1681525050505050620002d3565b600080fd5b600073ffffffffffffffffffffffffffffffffffffffff82169050919050565b6000620001518262000124565b9050919050565b620001638162000144565b81146200016f57600080fd5b50565b600081519050620001838162000158565b92915050565b600067ffffffffffffffff82169050919050565b620001a88162000189565b8114620001b457600080fd5b50565b600081519050620001c8816200019d565b92915050565b600080600060608486031215620001ea57620001e96200011f565b5b6000620001fa8682870162000172565b93505060206200020d86828701620001b7565b92505060406200022086828701620001b7565b9150509250925092565b600082825260208201905092915050565b7f56657374696e6757616c6c65743a2062656e6566696369617279206973207a6560008201527f726f206164647265737300000000000000000000000000000000000000000000602082015250565b600062000299602a836200022a565b9150620002a6826200023b565b604082019050919050565b60006020820190508181036000830152620002cc816200028a565b9050919050565b60805160a05160c051610f996200030360003960006102060152600061041e015260006102fe0152610f996000f3fe608060405234801561001057600080fd5b506004361061007d5760003560e01c806338af3eed1161005b57806338af3eed146100ec578063810ec23b1461010a5780639852595c1461013a578063be9a65551461016a5761007d565b806301ffc9a7146100825780630fb5a6b4146100b257806319165587146100d0575b600080fd5b61009c600480360381019061009791906108a0565b610188565b6040516100a991906108e8565b60405180910390f35b6100ba610202565b6040516100c7919061091c565b60405180910390f35b6100ea60048036038101906100e59190610995565b610234565b005b6100f46102fa565b60405161010191906109d1565b60405180910390f35b610124600480360381019061011f9190610a2c565b610322565b604051610131919061091c565b60405180910390f35b610154600480360381019061014f9190610995565b6103d1565b604051610161919061091c565b60405180910390f35b61017261041a565b60405161017f919061091c565b60405180910390f35b60007f89ca33ec000000000000000000000000000000000000000000000000000000007bffffffffffffffffffffffffffffffffffffffffffffffffffffffff1916827bffffffffffffffffffffffffffffffffffffffffffffffffffffffff191614806101fb57506101fa8261044c565b5b9050919050565b60007f000000000000000000000000000000000000000000000000000000000000000067ffffffffffffffff16905090565b600061023f826103d1565b6102498342610322565b6102539190610a9b565b905080600160008473ffffffffffffffffffffffffffffffffffffffff1673ffffffffffffffffffffffffffffffffffffffff16815260200190815260200160002060008282546102a49190610acf565b925050819055507fc0e523490dd523c33b1878c9eb14ff46991e3f5b2cd33710918618f2a39cba1b82826040516102dc929190610b25565b60405180910390a16102f6826102f06102fa565b836104b6565b5050565b60007f0000000000000000000000000000000000000000000000000000000000000000905090565b60006103c9610330846103d1565b8473ffffffffffffffffffffffffffffffffffffffff166370a08231306040518263ffffffff1660e01b815260040161036991906109d1565b60206040518083038186803b15801561038157600080fd5b505afa158015610395573d6000803e3d6000fd5b505050506040513d601f19601f820116820180604052508101906103b99190610b7a565b6103c39190610acf565b8361053c565b905092915050565b6000600160008373ffffffffffffffffffffffffffffffffffffffff1673ffffffffffffffffffffffffffffffffffffffff168152602001908152602001600020549050919050565b60007f000000000000000000000000000000000000000000000000000000000000000067ffffffffffffffff16905090565b60007f01ffc9a7000000000000000000000000000000000000000000000000000000007bffffffffffffffffffffffffffffffffffffffffffffffffffffffff1916827bffffffffffffffffffffffffffffffffffffffffffffffffffffffff1916149050919050565b6105378363a9059cbb60e01b84846040516024016104d5929190610b25565b604051602081830303815290604052907bffffffffffffffffffffffffffffffffffffffffffffffffffffffff19166020820180517bffffffffffffffffffffffffffffffffffffffffffffffffffffffff83818316178352505050506105d6565b505050565b600061054661041a565b8267ffffffffffffffff16101561056057600090506105d0565b610568610202565b61057061041a565b61057a9190610acf565b8267ffffffffffffffff161115610593578290506105d0565b61059b610202565b6105a361041a565b8367ffffffffffffffff166105b89190610a9b565b846105c39190610ba7565b6105cd9190610c30565b90505b92915050565b6000610638826040518060400160405280602081526020017f5361666545524332303a206c6f772d6c6576656c2063616c6c206661696c65648152508573ffffffffffffffffffffffffffffffffffffffff1661069d9092919063ffffffff16565b905060008151111561069857808060200190518101906106589190610c8d565b610697576040517f08c379a000000000000000000000000000000000000000000000000000000000815260040161068e90610d3d565b60405180910390fd5b5b505050565b60606106ac84846000856106b5565b90509392505050565b6060824710156106fa576040517f08c379a00000000000000000000000000000000000000000000000000000000081526004016106f190610dcf565b60405180910390fd5b610703856107c9565b610742576040517f08c379a000000000000000000000000000000000000000000000000000000000815260040161073990610e3b565b60405180910390fd5b6000808673ffffffffffffffffffffffffffffffffffffffff16858760405161076b9190610ed5565b60006040518083038185875af1925050503d80600081146107a8576040519150601f19603f3d011682016040523d82523d6000602084013e6107ad565b606091505b50915091506107bd8282866107dc565b92505050949350505050565b600080823b905060008111915050919050565b606083156107ec5782905061083c565b6000835111156107ff5782518084602001fd5b816040517f08c379a00000000000000000000000000000000000000000000000000000000081526004016108339190610f41565b60405180910390fd5b9392505050565b600080fd5b60007fffffffff0000000000000000000000000000000000000000000000000000000082169050919050565b61087d81610848565b811461088857600080fd5b50565b60008135905061089a81610874565b92915050565b6000602082840312156108b6576108b5610843565b5b60006108c48482850161088b565b91505092915050565b60008115159050919050565b6108e2816108cd565b82525050565b60006020820190506108fd60008301846108d9565b92915050565b6000819050919050565b61091681610903565b82525050565b6000602082019050610931600083018461090d565b92915050565b600073ffffffffffffffffffffffffffffffffffffffff82169050919050565b600061096282610937565b9050919050565b61097281610957565b811461097d57600080fd5b50565b60008135905061098f81610969565b92915050565b6000602082840312156109ab576109aa610843565b5b60006109b984828501610980565b91505092915050565b6109cb81610957565b82525050565b60006020820190506109e660008301846109c2565b92915050565b600067ffffffffffffffff82169050919050565b610a09816109ec565b8114610a1457600080fd5b50565b600081359050610a2681610a00565b92915050565b60008060408385031215610a4357610a42610843565b5b6000610a5185828601610980565b9250506020610a6285828601610a17565b9150509250929050565b7f4e487b7100000000000000000000000000000000000000000000000000000000600052601160045260246000fd5b6000610aa682610903565b9150610ab183610903565b925082821015610ac457610ac3610a6c565b5b828203905092915050565b6000610ada82610903565b9150610ae583610903565b9250827fffffffffffffffffffffffffffffffffffffffffffffffffffffffffffffffff03821115610b1a57610b19610a6c565b5b828201905092915050565b6000604082019050610b3a60008301856109c2565b610b47602083018461090d565b9392505050565b610b5781610903565b8114610b6257600080fd5b50565b600081519050610b7481610b4e565b92915050565b600060208284031215610b9057610b8f610843565b5b6000610b9e84828501610b65565b91505092915050565b6000610bb282610903565b9150610bbd83610903565b9250817fffffffffffffffffffffffffffffffffffffffffffffffffffffffffffffffff0483118215151615610bf657610bf5610a6c565b5b828202905092915050565b7f4e487b7100000000000000000000000000000000000000000000000000000000600052601260045260246000fd5b6000610c3b82610903565b9150610c4683610903565b925082610c5657610c55610c01565b5b828204905092915050565b610c6a816108cd565b8114610c7557600080fd5b50565b600081519050610c8781610c61565b92915050565b600060208284031215610ca357610ca2610843565b5b6000610cb184828501610c78565b91505092915050565b600082825260208201905092915050565b7f5361666545524332303a204552433230206f7065726174696f6e20646964206e60008201527f6f74207375636365656400000000000000000000000000000000000000000000602082015250565b6000610d27602a83610cba565b9150610d3282610ccb565b604082019050919050565b60006020820190508181036000830152610d5681610d1a565b9050919050565b7f416464726573733a20696e73756666696369656e742062616c616e636520666f60008201527f722063616c6c0000000000000000000000000000000000000000000000000000602082015250565b6000610db9602683610cba565b9150610dc482610d5d565b604082019050919050565b60006020820190508181036000830152610de881610dac565b9050919050565b7f416464726573733a2063616c6c20746f206e6f6e2d636f6e7472616374000000600082015250565b6000610e25601d83610cba565b9150610e3082610def565b602082019050919050565b60006020820190508181036000830152610e5481610e18565b9050919050565b600081519050919050565b600081905092915050565b60005b83811015610e8f578082015181840152602081019050610e74565b83811115610e9e576000848401525b50505050565b6000610eaf82610e5b565b610eb98185610e66565b9350610ec9818560208601610e71565b80840191505092915050565b6000610ee18284610ea4565b915081905092915050565b600081519050919050565b6000601f19601f8301169050919050565b6000610f1382610eec565b610f1d8185610cba565b9350610f2d818560208601610e71565b610f3681610ef7565b840191505092915050565b60006020820190508181036000830152610f5b8184610f08565b90509291505056fea264697066735822122064a326eef6eb414624b2648b473d384a0d02f768e0eee04a3143139b4553f8b864736f6c63430008090033",
  "linkReferences": {},
  "deployedLinkReferences": {}
}