{
  "_format": "hh-sol-artifact-1",
  "contractName": "ERC721BurnableMock",
  "sourceName": "contracts/oz/mocks/ERC721BurnableMock.sol",
  "abi": [
    {
      "inputs": [
        {
          "internalType": "string",
          "name": "name",
          "type": "string"
        },
        {
          "internalType": "string",
          "name": "symbol",
          "type": "string"
        }
      ],
      "stateMutability": "nonpayable",
      "type": "constructor"
    },
    {
      "anonymous": false,
      "inputs": [
        {
          "indexed": true,
          "internalType": "address",
          "name": "owner",
          "type": "address"
        },
        {
          "indexed": true,
          "internalType": "address",
          "name": "approved",
          "type": "address"
        },
        {
          "indexed": true,
          "internalType": "uint256",
          "name": "tokenId",
          "type": "uint256"
        }
      ],
      "name": "Approval",
      "type": "event"
    },
    {
      "anonymous": false,
      "inputs": [
        {
          "indexed": true,
          "internalType": "address",
          "name": "owner",
          "type": "address"
        },
        {
          "indexed": true,
          "internalType": "address",
          "name": "operator",
          "type": "address"
        },
        {
          "indexed": false,
          "internalType": "bool",
          "name": "approved",
          "type": "bool"
        }
      ],
      "name": "ApprovalForAll",
      "type": "event"
    },
    {
      "anonymous": false,
      "inputs": [
        {
          "indexed": true,
          "internalType": "address",
          "name": "from",
          "type": "address"
        },
        {
          "indexed": true,
          "internalType": "address",
          "name": "to",
          "type": "address"
        },
        {
          "indexed": true,
          "internalType": "uint256",
          "name": "tokenId",
          "type": "uint256"
        }
      ],
      "name": "Transfer",
      "type": "event"
    },
    {
      "inputs": [
        {
          "internalType": "address",
          "name": "to",
          "type": "address"
        },
        {
          "internalType": "uint256",
          "name": "tokenId",
          "type": "uint256"
        }
      ],
      "name": "approve",
      "outputs": [],
      "stateMutability": "nonpayable",
      "type": "function"
    },
    {
      "inputs": [
        {
          "internalType": "address",
          "name": "owner",
          "type": "address"
        }
      ],
      "name": "balanceOf",
      "outputs": [
        {
          "internalType": "uint256",
          "name": "",
          "type": "uint256"
        }
      ],
      "stateMutability": "view",
      "type": "function"
    },
    {
      "inputs": [
        {
          "internalType": "uint256",
          "name": "tokenId",
          "type": "uint256"
        }
      ],
      "name": "burn",
      "outputs": [],
      "stateMutability": "nonpayable",
      "type": "function"
    },
    {
      "inputs": [
        {
          "internalType": "uint256",
          "name": "tokenId",
          "type": "uint256"
        }
      ],
      "name": "exists",
      "outputs": [
        {
          "internalType": "bool",
          "name": "",
          "type": "bool"
        }
      ],
      "stateMutability": "view",
      "type": "function"
    },
    {
      "inputs": [
        {
          "internalType": "uint256",
          "name": "tokenId",
          "type": "uint256"
        }
      ],
      "name": "getApproved",
      "outputs": [
        {
          "internalType": "address",
          "name": "",
          "type": "address"
        }
      ],
      "stateMutability": "view",
      "type": "function"
    },
    {
      "inputs": [
        {
          "internalType": "address",
          "name": "owner",
          "type": "address"
        },
        {
          "internalType": "address",
          "name": "operator",
          "type": "address"
        }
      ],
      "name": "isApprovedForAll",
      "outputs": [
        {
          "internalType": "bool",
          "name": "",
          "type": "bool"
        }
      ],
      "stateMutability": "view",
      "type": "function"
    },
    {
      "inputs": [
        {
          "internalType": "address",
          "name": "to",
          "type": "address"
        },
        {
          "internalType": "uint256",
          "name": "tokenId",
          "type": "uint256"
        }
      ],
      "name": "mint",
      "outputs": [],
      "stateMutability": "nonpayable",
      "type": "function"
    },
    {
      "inputs": [],
      "name": "name",
      "outputs": [
        {
          "internalType": "string",
          "name": "",
          "type": "string"
        }
      ],
      "stateMutability": "view",
      "type": "function"
    },
    {
      "inputs": [
        {
          "internalType": "uint256",
          "name": "tokenId",
          "type": "uint256"
        }
      ],
      "name": "ownerOf",
      "outputs": [
        {
          "internalType": "address",
          "name": "",
          "type": "address"
        }
      ],
      "stateMutability": "view",
      "type": "function"
    },
    {
      "inputs": [
        {
          "internalType": "address",
          "name": "to",
          "type": "address"
        },
        {
          "internalType": "uint256",
          "name": "tokenId",
          "type": "uint256"
        },
        {
          "internalType": "bytes",
          "name": "_data",
          "type": "bytes"
        }
      ],
      "name": "safeMint",
      "outputs": [],
      "stateMutability": "nonpayable",
      "type": "function"
    },
    {
      "inputs": [
        {
          "internalType": "address",
          "name": "to",
          "type": "address"
        },
        {
          "internalType": "uint256",
          "name": "tokenId",
          "type": "uint256"
        }
      ],
      "name": "safeMint",
      "outputs": [],
      "stateMutability": "nonpayable",
      "type": "function"
    },
    {
      "inputs": [
        {
          "internalType": "address",
          "name": "from",
          "type": "address"
        },
        {
          "internalType": "address",
          "name": "to",
          "type": "address"
        },
        {
          "internalType": "uint256",
          "name": "tokenId",
          "type": "uint256"
        }
      ],
      "name": "safeTransferFrom",
      "outputs": [],
      "stateMutability": "nonpayable",
      "type": "function"
    },
    {
      "inputs": [
        {
          "internalType": "address",
          "name": "from",
          "type": "address"
        },
        {
          "internalType": "address",
          "name": "to",
          "type": "address"
        },
        {
          "internalType": "uint256",
          "name": "tokenId",
          "type": "uint256"
        },
        {
          "internalType": "bytes",
          "name": "_data",
          "type": "bytes"
        }
      ],
      "name": "safeTransferFrom",
      "outputs": [],
      "stateMutability": "nonpayable",
      "type": "function"
    },
    {
      "inputs": [
        {
          "internalType": "address",
          "name": "operator",
          "type": "address"
        },
        {
          "internalType": "bool",
          "name": "approved",
          "type": "bool"
        }
      ],
      "name": "setApprovalForAll",
      "outputs": [],
      "stateMutability": "nonpayable",
      "type": "function"
    },
    {
      "inputs": [
        {
          "internalType": "bytes4",
          "name": "interfaceId",
          "type": "bytes4"
        }
      ],
      "name": "supportsInterface",
      "outputs": [
        {
          "internalType": "bool",
          "name": "",
          "type": "bool"
        }
      ],
      "stateMutability": "view",
      "type": "function"
    },
    {
      "inputs": [],
      "name": "symbol",
      "outputs": [
        {
          "internalType": "string",
          "name": "",
          "type": "string"
        }
      ],
      "stateMutability": "view",
      "type": "function"
    },
    {
      "inputs": [
        {
          "internalType": "uint256",
          "name": "tokenId",
          "type": "uint256"
        }
      ],
      "name": "tokenURI",
      "outputs": [
        {
          "internalType": "string",
          "name": "",
          "type": "string"
        }
      ],
      "stateMutability": "view",
      "type": "function"
    },
    {
      "inputs": [
        {
          "internalType": "address",
          "name": "from",
          "type": "address"
        },
        {
          "internalType": "address",
          "name": "to",
          "type": "address"
        },
        {
          "internalType": "uint256",
          "name": "tokenId",
          "type": "uint256"
        }
      ],
      "name": "transferFrom",
      "outputs": [],
      "stateMutability": "nonpayable",
      "type": "function"
    }
  ],
  "bytecode": "0x60806040523480156200001157600080fd5b5060405162002e3c38038062002e3c8339818101604052810190620000379190620002c2565b818181600090805190602001906200005192919062000075565b5080600190805190602001906200006a92919062000075565b5050505050620003ac565b828054620000839062000376565b90600052602060002090601f016020900481019282620000a75760008555620000f3565b82601f10620000c257805160ff1916838001178555620000f3565b82800160010185558215620000f3579182015b82811115620000f2578251825591602001919060010190620000d5565b5b50905062000102919062000106565b5090565b5b808211156200012157600081600090555060010162000107565b5090565b6000604051905090565b600080fd5b600080fd5b600080fd5b600080fd5b6000601f19601f8301169050919050565b7f4e487b7100000000000000000000000000000000000000000000000000000000600052604160045260246000fd5b6200018e8262000143565b810181811067ffffffffffffffff82111715620001b057620001af62000154565b5b80604052505050565b6000620001c562000125565b9050620001d3828262000183565b919050565b600067ffffffffffffffff821115620001f657620001f562000154565b5b620002018262000143565b9050602081019050919050565b60005b838110156200022e57808201518184015260208101905062000211565b838111156200023e576000848401525b50505050565b60006200025b6200025584620001d8565b620001b9565b9050828152602081018484840111156200027a57620002796200013e565b5b620002878482856200020e565b509392505050565b600082601f830112620002a757620002a662000139565b5b8151620002b984826020860162000244565b91505092915050565b60008060408385031215620002dc57620002db6200012f565b5b600083015167ffffffffffffffff811115620002fd57620002fc62000134565b5b6200030b858286016200028f565b925050602083015167ffffffffffffffff8111156200032f576200032e62000134565b5b6200033d858286016200028f565b9150509250929050565b7f4e487b7100000000000000000000000000000000000000000000000000000000600052602260045260246000fd5b600060028204905060018216806200038f57607f821691505b60208210811415620003a657620003a562000347565b5b50919050565b612a8080620003bc6000396000f3fe608060405234801561001057600080fd5b50600436106101165760003560e01c80636352211e116100a2578063a144819411610071578063a1448194146102ef578063a22cb4651461030b578063b88d4fde14610327578063c87b56dd14610343578063e985e9c51461037357610116565b80636352211e1461025557806370a08231146102855780638832e6e3146102b557806395d89b41146102d157610116565b806323b872dd116100e957806323b872dd146101b557806340c10f19146101d157806342842e0e146101ed57806342966c68146102095780634f558e791461022557610116565b806301ffc9a71461011b57806306fdde031461014b578063081812fc14610169578063095ea7b314610199575b600080fd5b61013560048036038101906101309190611902565b6103a3565b604051610142919061194a565b60405180910390f35b610153610485565b60405161016091906119fe565b60405180910390f35b610183600480360381019061017e9190611a56565b610517565b6040516101909190611ac4565b60405180910390f35b6101b360048036038101906101ae9190611b0b565b61059c565b005b6101cf60048036038101906101ca9190611b4b565b6106b4565b005b6101eb60048036038101906101e69190611b0b565b610714565b005b61020760048036038101906102029190611b4b565b610722565b005b610223600480360381019061021e9190611a56565b610742565b005b61023f600480360381019061023a9190611a56565b61079e565b60405161024c919061194a565b60405180910390f35b61026f600480360381019061026a9190611a56565b6107b0565b60405161027c9190611ac4565b60405180910390f35b61029f600480360381019061029a9190611b9e565b610862565b6040516102ac9190611bda565b60405180910390f35b6102cf60048036038101906102ca9190611d2a565b61091a565b005b6102d961092a565b6040516102e691906119fe565b60405180910390f35b61030960048036038101906103049190611b0b565b6109bc565b005b61032560048036038101906103209190611dc5565b6109ca565b005b610341600480360381019061033c9190611e05565b6109e0565b005b61035d60048036038101906103589190611a56565b610a42565b60405161036a91906119fe565b60405180910390f35b61038d60048036038101906103889190611e88565b610ae9565b60405161039a919061194a565b60405180910390f35b60007f80ac58cd000000000000000000000000000000000000000000000000000000007bffffffffffffffffffffffffffffffffffffffffffffffffffffffff1916827bffffffffffffffffffffffffffffffffffffffffffffffffffffffff1916148061046e57507f5b5e139f000000000000000000000000000000000000000000000000000000007bffffffffffffffffffffffffffffffffffffffffffffffffffffffff1916827bffffffffffffffffffffffffffffffffffffffffffffffffffffffff1916145b8061047e575061047d82610b7d565b5b9050919050565b60606000805461049490611ef7565b80601f01602080910402602001604051908101604052809291908181526020018280546104c090611ef7565b801561050d5780601f106104e25761010080835404028352916020019161050d565b820191906000526020600020905b8154815290600101906020018083116104f057829003601f168201915b5050505050905090565b600061052282610be7565b610561576040517f08c379a000000000000000000000000000000000000000000000000000000000815260040161055890611f9b565b60405180910390fd5b6004600083815260200190815260200160002060009054906101000a900473ffffffffffffffffffffffffffffffffffffffff169050919050565b60006105a7826107b0565b90508073ffffffffffffffffffffffffffffffffffffffff168373ffffffffffffffffffffffffffffffffffffffff161415610618576040517f08c379a000000000000000000000000000000000000000000000000000000000815260040161060f9061202d565b60405180910390fd5b8073ffffffffffffffffffffffffffffffffffffffff16610637610c53565b73ffffffffffffffffffffffffffffffffffffffff161480610666575061066581610660610c53565b610ae9565b5b6106a5576040517f08c379a000000000000000000000000000000000000000000000000000000000815260040161069c906120bf565b60405180910390fd5b6106af8383610c5b565b505050565b6106c56106bf610c53565b82610d14565b610704576040517f08c379a00000000000000000000000000000000000000000000000000000000081526004016106fb90612151565b60405180910390fd5b61070f838383610df2565b505050565b61071e828261104e565b5050565b61073d838383604051806020016040528060008152506109e0565b505050565b61075361074d610c53565b82610d14565b610792576040517f08c379a0000000000000000000000000000000000000000000000000000000008152600401610789906121e3565b60405180910390fd5b61079b8161121c565b50565b60006107a982610be7565b9050919050565b6000806002600084815260200190815260200160002060009054906101000a900473ffffffffffffffffffffffffffffffffffffffff169050600073ffffffffffffffffffffffffffffffffffffffff168173ffffffffffffffffffffffffffffffffffffffff161415610859576040517f08c379a000000000000000000000000000000000000000000000000000000000815260040161085090612275565b60405180910390fd5b80915050919050565b60008073ffffffffffffffffffffffffffffffffffffffff168273ffffffffffffffffffffffffffffffffffffffff1614156108d3576040517f08c379a00000000000000000000000000000000000000000000000000000000081526004016108ca90612307565b60405180910390fd5b600360008373ffffffffffffffffffffffffffffffffffffffff1673ffffffffffffffffffffffffffffffffffffffff168152602001908152602001600020549050919050565b61092583838361132d565b505050565b60606001805461093990611ef7565b80601f016020809104026020016040519081016040528092919081815260200182805461096590611ef7565b80156109b25780601f10610987576101008083540402835291602001916109b2565b820191906000526020600020905b81548152906001019060200180831161099557829003601f168201915b5050505050905090565b6109c68282611388565b5050565b6109dc6109d5610c53565b83836113a6565b5050565b6109f16109eb610c53565b83610d14565b610a30576040517f08c379a0000000000000000000000000000000000000000000000000000000008152600401610a2790612151565b60405180910390fd5b610a3c84848484611513565b50505050565b6060610a4d82610be7565b610a8c576040517f08c379a0000000000000000000000000000000000000000000000000000000008152600401610a8390612399565b60405180910390fd5b6000610a9661156f565b90506000815111610ab65760405180602001604052806000815250610ae1565b80610ac084611586565b604051602001610ad19291906123f5565b6040516020818303038152906040525b915050919050565b6000600560008473ffffffffffffffffffffffffffffffffffffffff1673ffffffffffffffffffffffffffffffffffffffff16815260200190815260200160002060008373ffffffffffffffffffffffffffffffffffffffff1673ffffffffffffffffffffffffffffffffffffffff16815260200190815260200160002060009054906101000a900460ff16905092915050565b60007f01ffc9a7000000000000000000000000000000000000000000000000000000007bffffffffffffffffffffffffffffffffffffffffffffffffffffffff1916827bffffffffffffffffffffffffffffffffffffffffffffffffffffffff1916149050919050565b60008073ffffffffffffffffffffffffffffffffffffffff166002600084815260200190815260200160002060009054906101000a900473ffffffffffffffffffffffffffffffffffffffff1673ffffffffffffffffffffffffffffffffffffffff1614159050919050565b600033905090565b816004600083815260200190815260200160002060006101000a81548173ffffffffffffffffffffffffffffffffffffffff021916908373ffffffffffffffffffffffffffffffffffffffff160217905550808273ffffffffffffffffffffffffffffffffffffffff16610cce836107b0565b73ffffffffffffffffffffffffffffffffffffffff167f8c5be1e5ebec7d5bd14f71427d1e84f3dd0314c0f7b2291e5b200ac8c7c3b92560405160405180910390a45050565b6000610d1f82610be7565b610d5e576040517f08c379a0000000000000000000000000000000000000000000000000000000008152600401610d559061248b565b60405180910390fd5b6000610d69836107b0565b90508073ffffffffffffffffffffffffffffffffffffffff168473ffffffffffffffffffffffffffffffffffffffff161480610dd857508373ffffffffffffffffffffffffffffffffffffffff16610dc084610517565b73ffffffffffffffffffffffffffffffffffffffff16145b80610de95750610de88185610ae9565b5b91505092915050565b8273ffffffffffffffffffffffffffffffffffffffff16610e12826107b0565b73ffffffffffffffffffffffffffffffffffffffff1614610e68576040517f08c379a0000000000000000000000000000000000000000000000000000000008152600401610e5f9061251d565b60405180910390fd5b600073ffffffffffffffffffffffffffffffffffffffff168273ffffffffffffffffffffffffffffffffffffffff161415610ed8576040517f08c379a0000000000000000000000000000000000000000000000000000000008152600401610ecf906125af565b60405180910390fd5b610ee38383836116e7565b610eee600082610c5b565b6001600360008573ffffffffffffffffffffffffffffffffffffffff1673ffffffffffffffffffffffffffffffffffffffff1681526020019081526020016000206000828254610f3e91906125fe565b925050819055506001600360008473ffffffffffffffffffffffffffffffffffffffff1673ffffffffffffffffffffffffffffffffffffffff1681526020019081526020016000206000828254610f959190612632565b92505081905550816002600083815260200190815260200160002060006101000a81548173ffffffffffffffffffffffffffffffffffffffff021916908373ffffffffffffffffffffffffffffffffffffffff160217905550808273ffffffffffffffffffffffffffffffffffffffff168473ffffffffffffffffffffffffffffffffffffffff167fddf252ad1be2c89b69c2b068fc378daa952ba7f163c4a11628f55a4df523b3ef60405160405180910390a4505050565b600073ffffffffffffffffffffffffffffffffffffffff168273ffffffffffffffffffffffffffffffffffffffff1614156110be576040517f08c379a00000000000000000000000000000000000000000000000000000000081526004016110b5906126d4565b60405180910390fd5b6110c781610be7565b15611107576040517f08c379a00000000000000000000000000000000000000000000000000000000081526004016110fe90612740565b60405180910390fd5b611113600083836116e7565b6001600360008473ffffffffffffffffffffffffffffffffffffffff1673ffffffffffffffffffffffffffffffffffffffff16815260200190815260200160002060008282546111639190612632565b92505081905550816002600083815260200190815260200160002060006101000a81548173ffffffffffffffffffffffffffffffffffffffff021916908373ffffffffffffffffffffffffffffffffffffffff160217905550808273ffffffffffffffffffffffffffffffffffffffff16600073ffffffffffffffffffffffffffffffffffffffff167fddf252ad1be2c89b69c2b068fc378daa952ba7f163c4a11628f55a4df523b3ef60405160405180910390a45050565b6000611227826107b0565b9050611235816000846116e7565b611240600083610c5b565b6001600360008373ffffffffffffffffffffffffffffffffffffffff1673ffffffffffffffffffffffffffffffffffffffff168152602001908152602001600020600082825461129091906125fe565b925050819055506002600083815260200190815260200160002060006101000a81549073ffffffffffffffffffffffffffffffffffffffff021916905581600073ffffffffffffffffffffffffffffffffffffffff168273ffffffffffffffffffffffffffffffffffffffff167fddf252ad1be2c89b69c2b068fc378daa952ba7f163c4a11628f55a4df523b3ef60405160405180910390a45050565b611337838361104e565b61134460008484846116ec565b611383576040517f08c379a000000000000000000000000000000000000000000000000000000000815260040161137a906127d2565b60405180910390fd5b505050565b6113a282826040518060200160405280600081525061132d565b5050565b8173ffffffffffffffffffffffffffffffffffffffff168373ffffffffffffffffffffffffffffffffffffffff161415611415576040517f08c379a000000000000000000000000000000000000000000000000000000000815260040161140c9061283e565b60405180910390fd5b80600560008573ffffffffffffffffffffffffffffffffffffffff1673ffffffffffffffffffffffffffffffffffffffff16815260200190815260200160002060008473ffffffffffffffffffffffffffffffffffffffff1673ffffffffffffffffffffffffffffffffffffffff16815260200190815260200160002060006101000a81548160ff0219169083151502179055508173ffffffffffffffffffffffffffffffffffffffff168373ffffffffffffffffffffffffffffffffffffffff167f17307eab39ab6107e8899845ad3d59bd9653f200f220920489ca2b5937696c3183604051611506919061194a565b60405180910390a3505050565b61151e848484610df2565b61152a848484846116ec565b611569576040517f08c379a0000000000000000000000000000000000000000000000000000000008152600401611560906127d2565b60405180910390fd5b50505050565b606060405180602001604052806000815250905090565b606060008214156115ce576040518060400160405280600181526020017f300000000000000000000000000000000000000000000000000000000000000081525090506116e2565b600082905060005b600082146116005780806115e99061285e565b915050600a826115f991906128d6565b91506115d6565b60008167ffffffffffffffff81111561161c5761161b611bff565b5b6040519080825280601f01601f19166020018201604052801561164e5781602001600182028036833780820191505090505b5090505b600085146116db5760018261166791906125fe565b9150600a856116769190612907565b60306116829190612632565b60f81b81838151811061169857611697612938565b5b60200101907effffffffffffffffffffffffffffffffffffffffffffffffffffffffffffff1916908160001a905350600a856116d491906128d6565b9450611652565b8093505050505b919050565b505050565b600061170d8473ffffffffffffffffffffffffffffffffffffffff16611883565b15611876578373ffffffffffffffffffffffffffffffffffffffff1663150b7a02611736610c53565b8786866040518563ffffffff1660e01b815260040161175894939291906129bc565b602060405180830381600087803b15801561177257600080fd5b505af19250505080156117a357506040513d601f19601f820116820180604052508101906117a09190612a1d565b60015b611826573d80600081146117d3576040519150601f19603f3d011682016040523d82523d6000602084013e6117d8565b606091505b5060008151141561181e576040517f08c379a0000000000000000000000000000000000000000000000000000000008152600401611815906127d2565b60405180910390fd5b805181602001fd5b63150b7a0260e01b7bffffffffffffffffffffffffffffffffffffffffffffffffffffffff1916817bffffffffffffffffffffffffffffffffffffffffffffffffffffffff19161491505061187b565b600190505b949350505050565b600080823b905060008111915050919050565b6000604051905090565b600080fd5b600080fd5b60007fffffffff0000000000000000000000000000000000000000000000000000000082169050919050565b6118df816118aa565b81146118ea57600080fd5b50565b6000813590506118fc816118d6565b92915050565b600060208284031215611918576119176118a0565b5b6000611926848285016118ed565b91505092915050565b60008115159050919050565b6119448161192f565b82525050565b600060208201905061195f600083018461193b565b92915050565b600081519050919050565b600082825260208201905092915050565b60005b8381101561199f578082015181840152602081019050611984565b838111156119ae576000848401525b50505050565b6000601f19601f8301169050919050565b60006119d082611965565b6119da8185611970565b93506119ea818560208601611981565b6119f3816119b4565b840191505092915050565b60006020820190508181036000830152611a1881846119c5565b905092915050565b6000819050919050565b611a3381611a20565b8114611a3e57600080fd5b50565b600081359050611a5081611a2a565b92915050565b600060208284031215611a6c57611a6b6118a0565b5b6000611a7a84828501611a41565b91505092915050565b600073ffffffffffffffffffffffffffffffffffffffff82169050919050565b6000611aae82611a83565b9050919050565b611abe81611aa3565b82525050565b6000602082019050611ad96000830184611ab5565b92915050565b611ae881611aa3565b8114611af357600080fd5b50565b600081359050611b0581611adf565b92915050565b60008060408385031215611b2257611b216118a0565b5b6000611b3085828601611af6565b9250506020611b4185828601611a41565b9150509250929050565b600080600060608486031215611b6457611b636118a0565b5b6000611b7286828701611af6565b9350506020611b8386828701611af6565b9250506040611b9486828701611a41565b9150509250925092565b600060208284031215611bb457611bb36118a0565b5b6000611bc284828501611af6565b91505092915050565b611bd481611a20565b82525050565b6000602082019050611bef6000830184611bcb565b92915050565b600080fd5b600080fd5b7f4e487b7100000000000000000000000000000000000000000000000000000000600052604160045260246000fd5b611c37826119b4565b810181811067ffffffffffffffff82111715611c5657611c55611bff565b5b80604052505050565b6000611c69611896565b9050611c758282611c2e565b919050565b600067ffffffffffffffff821115611c9557611c94611bff565b5b611c9e826119b4565b9050602081019050919050565b82818337600083830152505050565b6000611ccd611cc884611c7a565b611c5f565b905082815260208101848484011115611ce957611ce8611bfa565b5b611cf4848285611cab565b509392505050565b600082601f830112611d1157611d10611bf5565b5b8135611d21848260208601611cba565b91505092915050565b600080600060608486031215611d4357611d426118a0565b5b6000611d5186828701611af6565b9350506020611d6286828701611a41565b925050604084013567ffffffffffffffff811115611d8357611d826118a5565b5b611d8f86828701611cfc565b9150509250925092565b611da28161192f565b8114611dad57600080fd5b50565b600081359050611dbf81611d99565b92915050565b60008060408385031215611ddc57611ddb6118a0565b5b6000611dea85828601611af6565b9250506020611dfb85828601611db0565b9150509250929050565b60008060008060808587031215611e1f57611e1e6118a0565b5b6000611e2d87828801611af6565b9450506020611e3e87828801611af6565b9350506040611e4f87828801611a41565b925050606085013567ffffffffffffffff811115611e7057611e6f6118a5565b5b611e7c87828801611cfc565b91505092959194509250565b60008060408385031215611e9f57611e9e6118a0565b5b6000611ead85828601611af6565b9250506020611ebe85828601611af6565b9150509250929050565b7f4e487b7100000000000000000000000000000000000000000000000000000000600052602260045260246000fd5b60006002820490506001821680611f0f57607f821691505b60208210811415611f2357611f22611ec8565b5b50919050565b7f4552433732313a20617070726f76656420717565727920666f72206e6f6e657860008201527f697374656e7420746f6b656e0000000000000000000000000000000000000000602082015250565b6000611f85602c83611970565b9150611f9082611f29565b604082019050919050565b60006020820190508181036000830152611fb481611f78565b9050919050565b7f4552433732313a20617070726f76616c20746f2063757272656e74206f776e6560008201527f7200000000000000000000000000000000000000000000000000000000000000602082015250565b6000612017602183611970565b915061202282611fbb565b604082019050919050565b600060208201905081810360008301526120468161200a565b9050919050565b7f4552433732313a20617070726f76652063616c6c6572206973206e6f74206f7760008201527f6e6572206e6f7220617070726f76656420666f7220616c6c0000000000000000602082015250565b60006120a9603883611970565b91506120b48261204d565b604082019050919050565b600060208201905081810360008301526120d88161209c565b9050919050565b7f4552433732313a207472616e736665722063616c6c6572206973206e6f74206f60008201527f776e6572206e6f7220617070726f766564000000000000000000000000000000602082015250565b600061213b603183611970565b9150612146826120df565b604082019050919050565b6000602082019050818103600083015261216a8161212e565b9050919050565b7f4552433732314275726e61626c653a2063616c6c6572206973206e6f74206f7760008201527f6e6572206e6f7220617070726f76656400000000000000000000000000000000602082015250565b60006121cd603083611970565b91506121d882612171565b604082019050919050565b600060208201905081810360008301526121fc816121c0565b9050919050565b7f4552433732313a206f776e657220717565727920666f72206e6f6e657869737460008201527f656e7420746f6b656e0000000000000000000000000000000000000000000000602082015250565b600061225f602983611970565b915061226a82612203565b604082019050919050565b6000602082019050818103600083015261228e81612252565b9050919050565b7f4552433732313a2062616c616e636520717565727920666f7220746865207a6560008201527f726f206164647265737300000000000000000000000000000000000000000000602082015250565b60006122f1602a83611970565b91506122fc82612295565b604082019050919050565b60006020820190508181036000830152612320816122e4565b9050919050565b7f4552433732314d657461646174613a2055524920717565727920666f72206e6f60008201527f6e6578697374656e7420746f6b656e0000000000000000000000000000000000602082015250565b6000612383602f83611970565b915061238e82612327565b604082019050919050565b600060208201905081810360008301526123b281612376565b9050919050565b600081905092915050565b60006123cf82611965565b6123d981856123b9565b93506123e9818560208601611981565b80840191505092915050565b600061240182856123c4565b915061240d82846123c4565b91508190509392505050565b7f4552433732313a206f70657261746f7220717565727920666f72206e6f6e657860008201527f697374656e7420746f6b656e0000000000000000000000000000000000000000602082015250565b6000612475602c83611970565b915061248082612419565b604082019050919050565b600060208201905081810360008301526124a481612468565b9050919050565b7f4552433732313a207472616e73666572206f6620746f6b656e2074686174206960008201527f73206e6f74206f776e0000000000000000000000000000000000000000000000602082015250565b6000612507602983611970565b9150612512826124ab565b604082019050919050565b60006020820190508181036000830152612536816124fa565b9050919050565b7f4552433732313a207472616e7366657220746f20746865207a65726f2061646460008201527f7265737300000000000000000000000000000000000000000000000000000000602082015250565b6000612599602483611970565b91506125a48261253d565b604082019050919050565b600060208201905081810360008301526125c88161258c565b9050919050565b7f4e487b7100000000000000000000000000000000000000000000000000000000600052601160045260246000fd5b600061260982611a20565b915061261483611a20565b925082821015612627576126266125cf565b5b828203905092915050565b600061263d82611a20565b915061264883611a20565b9250827fffffffffffffffffffffffffffffffffffffffffffffffffffffffffffffffff0382111561267d5761267c6125cf565b5b828201905092915050565b7f4552433732313a206d696e7420746f20746865207a65726f2061646472657373600082015250565b60006126be602083611970565b91506126c982612688565b602082019050919050565b600060208201905081810360008301526126ed816126b1565b9050919050565b7f4552433732313a20746f6b656e20616c7265616479206d696e74656400000000600082015250565b600061272a601c83611970565b9150612735826126f4565b602082019050919050565b600060208201905081810360008301526127598161271d565b9050919050565b7f4552433732313a207472616e7366657220746f206e6f6e20455243373231526560008201527f63656976657220696d706c656d656e7465720000000000000000000000000000602082015250565b60006127bc603283611970565b91506127c782612760565b604082019050919050565b600060208201905081810360008301526127eb816127af565b9050919050565b7f4552433732313a20617070726f766520746f2063616c6c657200000000000000600082015250565b6000612828601983611970565b9150612833826127f2565b602082019050919050565b600060208201905081810360008301526128578161281b565b9050919050565b600061286982611a20565b91507fffffffffffffffffffffffffffffffffffffffffffffffffffffffffffffffff82141561289c5761289b6125cf565b5b600182019050919050565b7f4e487b7100000000000000000000000000000000000000000000000000000000600052601260045260246000fd5b60006128e182611a20565b91506128ec83611a20565b9250826128fc576128fb6128a7565b5b828204905092915050565b600061291282611a20565b915061291d83611a20565b92508261292d5761292c6128a7565b5b828206905092915050565b7f4e487b7100000000000000000000000000000000000000000000000000000000600052603260045260246000fd5b600081519050919050565b600082825260208201905092915050565b600061298e82612967565b6129988185612972565b93506129a8818560208601611981565b6129b1816119b4565b840191505092915050565b60006080820190506129d16000830187611ab5565b6129de6020830186611ab5565b6129eb6040830185611bcb565b81810360608301526129fd8184612983565b905095945050505050565b600081519050612a17816118d6565b92915050565b600060208284031215612a3357612a326118a0565b5b6000612a4184828501612a08565b9150509291505056fea2646970667358221220f50dad34f465c3fc055c1c731f470086b5b5ab9b160e331b6447d68b72bb4e0b64736f6c63430008090033",
  "linkReferences": {},
  "deployedLinkReferences": {}
}