{
  "_format": "hh-sol-artifact-1",
  "contractName": "GovernorTimelockCompoundMock",
  "sourceName": "contracts/oz/mocks/GovernorTimelockCompoundMock.sol",
  "abi": [
    {
      "inputs": [
        {
          "internalType": "string",
          "name": "name_",
          "type": "string"
        },
        {
          "internalType": "contract ERC20Votes",
          "name": "token_",
          "type": "address"
        },
        {
          "internalType": "uint256",
          "name": "votingDelay_",
          "type": "uint256"
        },
        {
          "internalType": "uint256",
          "name": "votingPeriod_",
          "type": "uint256"
        },
        {
          "internalType": "contract ICompoundTimelock",
          "name": "timelock_",
          "type": "address"
        },
        {
          "internalType": "uint256",
          "name": "quorumNumerator_",
          "type": "uint256"
        }
      ],
      "stateMutability": "nonpayable",
      "type": "constructor"
    },
    {
      "anonymous": false,
      "inputs": [
        {
          "indexed": false,
          "internalType": "uint256",
          "name": "proposalId",
          "type": "uint256"
        }
      ],
      "name": "ProposalCanceled",
      "type": "event"
    },
    {
      "anonymous": false,
      "inputs": [
        {
          "indexed": false,
          "internalType": "uint256",
          "name": "proposalId",
          "type": "uint256"
        },
        {
          "indexed": false,
          "internalType": "address",
          "name": "proposer",
          "type": "address"
        },
        {
          "indexed": false,
          "internalType": "address[]",
          "name": "targets",
          "type": "address[]"
        },
        {
          "indexed": false,
          "internalType": "uint256[]",
          "name": "values",
          "type": "uint256[]"
        },
        {
          "indexed": false,
          "internalType": "string[]",
          "name": "signatures",
          "type": "string[]"
        },
        {
          "indexed": false,
          "internalType": "bytes[]",
          "name": "calldatas",
          "type": "bytes[]"
        },
        {
          "indexed": false,
          "internalType": "uint256",
          "name": "startBlock",
          "type": "uint256"
        },
        {
          "indexed": false,
          "internalType": "uint256",
          "name": "endBlock",
          "type": "uint256"
        },
        {
          "indexed": false,
          "internalType": "string",
          "name": "description",
          "type": "string"
        }
      ],
      "name": "ProposalCreated",
      "type": "event"
    },
    {
      "anonymous": false,
      "inputs": [
        {
          "indexed": false,
          "internalType": "uint256",
          "name": "proposalId",
          "type": "uint256"
        }
      ],
      "name": "ProposalExecuted",
      "type": "event"
    },
    {
      "anonymous": false,
      "inputs": [
        {
          "indexed": false,
          "internalType": "uint256",
          "name": "proposalId",
          "type": "uint256"
        },
        {
          "indexed": false,
          "internalType": "uint256",
          "name": "eta",
          "type": "uint256"
        }
      ],
      "name": "ProposalQueued",
      "type": "event"
    },
    {
      "anonymous": false,
      "inputs": [
        {
          "indexed": false,
          "internalType": "uint256",
          "name": "oldProposalThreshold",
          "type": "uint256"
        },
        {
          "indexed": false,
          "internalType": "uint256",
          "name": "newProposalThreshold",
          "type": "uint256"
        }
      ],
      "name": "ProposalThresholdSet",
      "type": "event"
    },
    {
      "anonymous": false,
      "inputs": [
        {
          "indexed": false,
          "internalType": "uint256",
          "name": "oldQuorumNumerator",
          "type": "uint256"
        },
        {
          "indexed": false,
          "internalType": "uint256",
          "name": "newQuorumNumerator",
          "type": "uint256"
        }
      ],
      "name": "QuorumNumeratorUpdated",
      "type": "event"
    },
    {
      "anonymous": false,
      "inputs": [
        {
          "indexed": false,
          "internalType": "address",
          "name": "oldTimelock",
          "type": "address"
        },
        {
          "indexed": false,
          "internalType": "address",
          "name": "newTimelock",
          "type": "address"
        }
      ],
      "name": "TimelockChange",
      "type": "event"
    },
    {
      "anonymous": false,
      "inputs": [
        {
          "indexed": true,
          "internalType": "address",
          "name": "voter",
          "type": "address"
        },
        {
          "indexed": false,
          "internalType": "uint256",
          "name": "proposalId",
          "type": "uint256"
        },
        {
          "indexed": false,
          "internalType": "uint8",
          "name": "support",
          "type": "uint8"
        },
        {
          "indexed": false,
          "internalType": "uint256",
          "name": "weight",
          "type": "uint256"
        },
        {
          "indexed": false,
          "internalType": "string",
          "name": "reason",
          "type": "string"
        }
      ],
      "name": "VoteCast",
      "type": "event"
    },
    {
      "anonymous": false,
      "inputs": [
        {
          "indexed": false,
          "internalType": "uint256",
          "name": "oldVotingDelay",
          "type": "uint256"
        },
        {
          "indexed": false,
          "internalType": "uint256",
          "name": "newVotingDelay",
          "type": "uint256"
        }
      ],
      "name": "VotingDelaySet",
      "type": "event"
    },
    {
      "anonymous": false,
      "inputs": [
        {
          "indexed": false,
          "internalType": "uint256",
          "name": "oldVotingPeriod",
          "type": "uint256"
        },
        {
          "indexed": false,
          "internalType": "uint256",
          "name": "newVotingPeriod",
          "type": "uint256"
        }
      ],
      "name": "VotingPeriodSet",
      "type": "event"
    },
    {
      "inputs": [],
      "name": "BALLOT_TYPEHASH",
      "outputs": [
        {
          "internalType": "bytes32",
          "name": "",
          "type": "bytes32"
        }
      ],
      "stateMutability": "view",
      "type": "function"
    },
    {
      "inputs": [],
      "name": "COUNTING_MODE",
      "outputs": [
        {
          "internalType": "string",
          "name": "",
          "type": "string"
        }
      ],
      "stateMutability": "pure",
      "type": "function"
    },
    {
      "inputs": [],
      "name": "__acceptAdmin",
      "outputs": [],
      "stateMutability": "nonpayable",
      "type": "function"
    },
    {
      "inputs": [
        {
          "internalType": "address[]",
          "name": "targets",
          "type": "address[]"
        },
        {
          "internalType": "uint256[]",
          "name": "values",
          "type": "uint256[]"
        },
        {
          "internalType": "bytes[]",
          "name": "calldatas",
          "type": "bytes[]"
        },
        {
          "internalType": "bytes32",
          "name": "salt",
          "type": "bytes32"
        }
      ],
      "name": "cancel",
      "outputs": [
        {
          "internalType": "uint256",
          "name": "proposalId",
          "type": "uint256"
        }
      ],
      "stateMutability": "nonpayable",
      "type": "function"
    },
    {
      "inputs": [
        {
          "internalType": "uint256",
          "name": "proposalId",
          "type": "uint256"
        },
        {
          "internalType": "uint8",
          "name": "support",
          "type": "uint8"
        }
      ],
      "name": "castVote",
      "outputs": [
        {
          "internalType": "uint256",
          "name": "",
          "type": "uint256"
        }
      ],
      "stateMutability": "nonpayable",
      "type": "function"
    },
    {
      "inputs": [
        {
          "internalType": "uint256",
          "name": "proposalId",
          "type": "uint256"
        },
        {
          "internalType": "uint8",
          "name": "support",
          "type": "uint8"
        },
        {
          "internalType": "uint8",
          "name": "v",
          "type": "uint8"
        },
        {
          "internalType": "bytes32",
          "name": "r",
          "type": "bytes32"
        },
        {
          "internalType": "bytes32",
          "name": "s",
          "type": "bytes32"
        }
      ],
      "name": "castVoteBySig",
      "outputs": [
        {
          "internalType": "uint256",
          "name": "",
          "type": "uint256"
        }
      ],
      "stateMutability": "nonpayable",
      "type": "function"
    },
    {
      "inputs": [
        {
          "internalType": "uint256",
          "name": "proposalId",
          "type": "uint256"
        },
        {
          "internalType": "uint8",
          "name": "support",
          "type": "uint8"
        },
        {
          "internalType": "string",
          "name": "reason",
          "type": "string"
        }
      ],
      "name": "castVoteWithReason",
      "outputs": [
        {
          "internalType": "uint256",
          "name": "",
          "type": "uint256"
        }
      ],
      "stateMutability": "nonpayable",
      "type": "function"
    },
    {
      "inputs": [
        {
          "internalType": "address[]",
          "name": "targets",
          "type": "address[]"
        },
        {
          "internalType": "uint256[]",
          "name": "values",
          "type": "uint256[]"
        },
        {
          "internalType": "bytes[]",
          "name": "calldatas",
          "type": "bytes[]"
        },
        {
          "internalType": "bytes32",
          "name": "descriptionHash",
          "type": "bytes32"
        }
      ],
      "name": "execute",
      "outputs": [
        {
          "internalType": "uint256",
          "name": "",
          "type": "uint256"
        }
      ],
      "stateMutability": "payable",
      "type": "function"
    },
    {
      "inputs": [
        {
          "internalType": "address",
          "name": "account",
          "type": "address"
        },
        {
          "internalType": "uint256",
          "name": "blockNumber",
          "type": "uint256"
        }
      ],
      "name": "getVotes",
      "outputs": [
        {
          "internalType": "uint256",
          "name": "",
          "type": "uint256"
        }
      ],
      "stateMutability": "view",
      "type": "function"
    },
    {
      "inputs": [
        {
          "internalType": "uint256",
          "name": "proposalId",
          "type": "uint256"
        },
        {
          "internalType": "address",
          "name": "account",
          "type": "address"
        }
      ],
      "name": "hasVoted",
      "outputs": [
        {
          "internalType": "bool",
          "name": "",
          "type": "bool"
        }
      ],
      "stateMutability": "view",
      "type": "function"
    },
    {
      "inputs": [
        {
          "internalType": "address[]",
          "name": "targets",
          "type": "address[]"
        },
        {
          "internalType": "uint256[]",
          "name": "values",
          "type": "uint256[]"
        },
        {
          "internalType": "bytes[]",
          "name": "calldatas",
          "type": "bytes[]"
        },
        {
          "internalType": "bytes32",
          "name": "descriptionHash",
          "type": "bytes32"
        }
      ],
      "name": "hashProposal",
      "outputs": [
        {
          "internalType": "uint256",
          "name": "",
          "type": "uint256"
        }
      ],
      "stateMutability": "pure",
      "type": "function"
    },
    {
      "inputs": [],
      "name": "name",
      "outputs": [
        {
          "internalType": "string",
          "name": "",
          "type": "string"
        }
      ],
      "stateMutability": "view",
      "type": "function"
    },
    {
      "inputs": [
        {
          "internalType": "uint256",
          "name": "proposalId",
          "type": "uint256"
        }
      ],
      "name": "proposalDeadline",
      "outputs": [
        {
          "internalType": "uint256",
          "name": "",
          "type": "uint256"
        }
      ],
      "stateMutability": "view",
      "type": "function"
    },
    {
      "inputs": [
        {
          "internalType": "uint256",
          "name": "proposalId",
          "type": "uint256"
        }
      ],
      "name": "proposalEta",
      "outputs": [
        {
          "internalType": "uint256",
          "name": "",
          "type": "uint256"
        }
      ],
      "stateMutability": "view",
      "type": "function"
    },
    {
      "inputs": [
        {
          "internalType": "uint256",
          "name": "proposalId",
          "type": "uint256"
        }
      ],
      "name": "proposalSnapshot",
      "outputs": [
        {
          "internalType": "uint256",
          "name": "",
          "type": "uint256"
        }
      ],
      "stateMutability": "view",
      "type": "function"
    },
    {
      "inputs": [],
      "name": "proposalThreshold",
      "outputs": [
        {
          "internalType": "uint256",
          "name": "",
          "type": "uint256"
        }
      ],
      "stateMutability": "view",
      "type": "function"
    },
    {
      "inputs": [
        {
          "internalType": "uint256",
          "name": "proposalId",
          "type": "uint256"
        }
      ],
      "name": "proposalVotes",
      "outputs": [
        {
          "internalType": "uint256",
          "name": "againstVotes",
          "type": "uint256"
        },
        {
          "internalType": "uint256",
          "name": "forVotes",
          "type": "uint256"
        },
        {
          "internalType": "uint256",
          "name": "abstainVotes",
          "type": "uint256"
        }
      ],
      "stateMutability": "view",
      "type": "function"
    },
    {
      "inputs": [
        {
          "internalType": "address[]",
          "name": "targets",
          "type": "address[]"
        },
        {
          "internalType": "uint256[]",
          "name": "values",
          "type": "uint256[]"
        },
        {
          "internalType": "bytes[]",
          "name": "calldatas",
          "type": "bytes[]"
        },
        {
          "internalType": "string",
          "name": "description",
          "type": "string"
        }
      ],
      "name": "propose",
      "outputs": [
        {
          "internalType": "uint256",
          "name": "",
          "type": "uint256"
        }
      ],
      "stateMutability": "nonpayable",
      "type": "function"
    },
    {
      "inputs": [
        {
          "internalType": "address[]",
          "name": "targets",
          "type": "address[]"
        },
        {
          "internalType": "uint256[]",
          "name": "values",
          "type": "uint256[]"
        },
        {
          "internalType": "bytes[]",
          "name": "calldatas",
          "type": "bytes[]"
        },
        {
          "internalType": "bytes32",
          "name": "descriptionHash",
          "type": "bytes32"
        }
      ],
      "name": "queue",
      "outputs": [
        {
          "internalType": "uint256",
          "name": "",
          "type": "uint256"
        }
      ],
      "stateMutability": "nonpayable",
      "type": "function"
    },
    {
      "inputs": [
        {
          "internalType": "uint256",
          "name": "blockNumber",
          "type": "uint256"
        }
      ],
      "name": "quorum",
      "outputs": [
        {
          "internalType": "uint256",
          "name": "",
          "type": "uint256"
        }
      ],
      "stateMutability": "view",
      "type": "function"
    },
    {
      "inputs": [],
      "name": "quorumDenominator",
      "outputs": [
        {
          "internalType": "uint256",
          "name": "",
          "type": "uint256"
        }
      ],
      "stateMutability": "view",
      "type": "function"
    },
    {
      "inputs": [],
      "name": "quorumNumerator",
      "outputs": [
        {
          "internalType": "uint256",
          "name": "",
          "type": "uint256"
        }
      ],
      "stateMutability": "view",
      "type": "function"
    },
    {
      "inputs": [
        {
          "internalType": "uint256",
          "name": "newProposalThreshold",
          "type": "uint256"
        }
      ],
      "name": "setProposalThreshold",
      "outputs": [],
      "stateMutability": "nonpayable",
      "type": "function"
    },
    {
      "inputs": [
        {
          "internalType": "uint256",
          "name": "newVotingDelay",
          "type": "uint256"
        }
      ],
      "name": "setVotingDelay",
      "outputs": [],
      "stateMutability": "nonpayable",
      "type": "function"
    },
    {
      "inputs": [
        {
          "internalType": "uint256",
          "name": "newVotingPeriod",
          "type": "uint256"
        }
      ],
      "name": "setVotingPeriod",
      "outputs": [],
      "stateMutability": "nonpayable",
      "type": "function"
    },
    {
      "inputs": [
        {
          "internalType": "uint256",
          "name": "proposalId",
          "type": "uint256"
        }
      ],
      "name": "state",
      "outputs": [
        {
          "internalType": "enum IGovernor.ProposalState",
          "name": "",
          "type": "uint8"
        }
      ],
      "stateMutability": "view",
      "type": "function"
    },
    {
      "inputs": [
        {
          "internalType": "bytes4",
          "name": "interfaceId",
          "type": "bytes4"
        }
      ],
      "name": "supportsInterface",
      "outputs": [
        {
          "internalType": "bool",
          "name": "",
          "type": "bool"
        }
      ],
      "stateMutability": "view",
      "type": "function"
    },
    {
      "inputs": [],
      "name": "timelock",
      "outputs": [
        {
          "internalType": "address",
          "name": "",
          "type": "address"
        }
      ],
      "stateMutability": "view",
      "type": "function"
    },
    {
      "inputs": [],
      "name": "token",
      "outputs": [
        {
          "internalType": "contract ERC20Votes",
          "name": "",
          "type": "address"
        }
      ],
      "stateMutability": "view",
      "type": "function"
    },
    {
      "inputs": [
        {
          "internalType": "uint256",
          "name": "newQuorumNumerator",
          "type": "uint256"
        }
      ],
      "name": "updateQuorumNumerator",
      "outputs": [],
      "stateMutability": "nonpayable",
      "type": "function"
    },
    {
      "inputs": [
        {
          "internalType": "contract ICompoundTimelock",
          "name": "newTimelock",
          "type": "address"
        }
      ],
      "name": "updateTimelock",
      "outputs": [],
      "stateMutability": "nonpayable",
      "type": "function"
    },
    {
      "inputs": [],
      "name": "version",
      "outputs": [
        {
          "internalType": "string",
          "name": "",
          "type": "string"
        }
      ],
      "stateMutability": "view",
      "type": "function"
    },
    {
      "inputs": [],
      "name": "votingDelay",
      "outputs": [
        {
          "internalType": "uint256",
          "name": "",
          "type": "uint256"
        }
      ],
      "stateMutability": "view",
      "type": "function"
    },
    {
      "inputs": [],
      "name": "votingPeriod",
      "outputs": [
        {
          "internalType": "uint256",
          "name": "",
          "type": "uint256"
        }
      ],
      "stateMutability": "view",
      "type": "function"
    },
    {
      "stateMutability": "payable",
      "type": "receive"
    }
  ],
  "bytecode": "0x6101606040523480156200001257600080fd5b506040516200630d3803806200630d8339818101604052810190620000389190620007f3565b808583868660008b8062000051620001b960201b60201c565b60008280519060200120905060008280519060200120905060007f8b73c3c69bb8fe3d512ecc4cf759cc79239f7b179b0ffacaa9a75d522b39400f90508260e081815250508161010081815250504660a08181525050620000ba818484620001f660201b60201c565b608081815250503073ffffffffffffffffffffffffffffffffffffffff1660c08173ffffffffffffffffffffffffffffffffffffffff1681525050806101208181525050505050505080600090805190602001906200011b92919062000499565b50506200012e836200023260201b60201c565b6200013f826200027960201b60201c565b62000150816200030660201b60201c565b50505062000164816200034d60201b60201c565b508073ffffffffffffffffffffffffffffffffffffffff166101408173ffffffffffffffffffffffffffffffffffffffff168152505050620001ac81620003ee60201b60201c565b5050505050505062000b6e565b60606040518060400160405280600181526020017f3100000000000000000000000000000000000000000000000000000000000000815250905090565b6000838383463060405160200162000213959493929190620008eb565b6040516020818303038152906040528051906020012090509392505050565b7fc565b045403dc03c2eea82b81a0465edad9e2e7fc4d97e11421c209da93d7a93600254826040516200026792919062000948565b60405180910390a18060028190555050565b60008111620002bf576040517f08c379a0000000000000000000000000000000000000000000000000000000008152600401620002b690620009fc565b60405180910390fd5b7f7e3f7f0708a84de9203036abaa450dccc85ad5ff52f78c170f3edb55cf5e882860035482604051620002f492919062000948565b60405180910390a18060038190555050565b7fccb45da8d5717e6c4544694297c4ba5cf151d455c9bb0ed4fc7a38411bc05461600454826040516200033b92919062000948565b60405180910390a18060048190555050565b7f08f74ea46ef7894f65eabfb5e6e695de773a000b47c529ab559178069b226401600560009054906101000a900473ffffffffffffffffffffffffffffffffffffffff1682604051620003a292919062000a1e565b60405180910390a180600560006101000a81548173ffffffffffffffffffffffffffffffffffffffff021916908373ffffffffffffffffffffffffffffffffffffffff16021790555050565b620003fe6200049060201b60201c565b81111562000443576040517f08c379a00000000000000000000000000000000000000000000000000000000081526004016200043a9062000ae7565b60405180910390fd5b60006007549050816007819055507f0553476bf02ef2726e8ce5ced78d63e26e602e4a2257b1f559418e24b463399781836040516200048492919062000948565b60405180910390a15050565b60006064905090565b828054620004a79062000b38565b90600052602060002090601f016020900481019282620004cb576000855562000517565b82601f10620004e657805160ff191683800117855562000517565b8280016001018555821562000517579182015b8281111562000516578251825591602001919060010190620004f9565b5b5090506200052691906200052a565b5090565b5b80821115620005455760008160009055506001016200052b565b5090565b6000604051905090565b600080fd5b600080fd5b600080fd5b600080fd5b6000601f19601f8301169050919050565b7f4e487b7100000000000000000000000000000000000000000000000000000000600052604160045260246000fd5b620005b28262000567565b810181811067ffffffffffffffff82111715620005d457620005d362000578565b5b80604052505050565b6000620005e962000549565b9050620005f78282620005a7565b919050565b600067ffffffffffffffff8211156200061a576200061962000578565b5b620006258262000567565b9050602081019050919050565b60005b838110156200065257808201518184015260208101905062000635565b8381111562000662576000848401525b50505050565b60006200067f6200067984620005fc565b620005dd565b9050828152602081018484840111156200069e576200069d62000562565b5b620006ab84828562000632565b509392505050565b600082601f830112620006cb57620006ca6200055d565b5b8151620006dd84826020860162000668565b91505092915050565b600073ffffffffffffffffffffffffffffffffffffffff82169050919050565b60006200071382620006e6565b9050919050565b6000620007278262000706565b9050919050565b62000739816200071a565b81146200074557600080fd5b50565b60008151905062000759816200072e565b92915050565b6000819050919050565b62000774816200075f565b81146200078057600080fd5b50565b600081519050620007948162000769565b92915050565b6000620007a782620006e6565b9050919050565b6000620007bb826200079a565b9050919050565b620007cd81620007ae565b8114620007d957600080fd5b50565b600081519050620007ed81620007c2565b92915050565b60008060008060008060c0878903121562000813576200081262000553565b5b600087015167ffffffffffffffff81111562000834576200083362000558565b5b6200084289828a01620006b3565b96505060206200085589828a0162000748565b95505060406200086889828a0162000783565b94505060606200087b89828a0162000783565b93505060806200088e89828a01620007dc565b92505060a0620008a189828a0162000783565b9150509295509295509295565b6000819050919050565b620008c381620008ae565b82525050565b620008d4816200075f565b82525050565b620008e58162000706565b82525050565b600060a082019050620009026000830188620008b8565b620009116020830187620008b8565b620009206040830186620008b8565b6200092f6060830185620008c9565b6200093e6080830184620008da565b9695505050505050565b60006040820190506200095f6000830185620008c9565b6200096e6020830184620008c9565b9392505050565b600082825260208201905092915050565b7f476f7665726e6f7253657474696e67733a20766f74696e6720706572696f642060008201527f746f6f206c6f7700000000000000000000000000000000000000000000000000602082015250565b6000620009e460278362000975565b9150620009f18262000986565b604082019050919050565b6000602082019050818103600083015262000a1781620009d5565b9050919050565b600060408201905062000a356000830185620008da565b62000a446020830184620008da565b9392505050565b7f476f7665726e6f72566f74657351756f72756d4672616374696f6e3a2071756f60008201527f72756d4e756d657261746f72206f7665722071756f72756d44656e6f6d696e6160208201527f746f720000000000000000000000000000000000000000000000000000000000604082015250565b600062000acf60438362000975565b915062000adc8262000a4b565b606082019050919050565b6000602082019050818103600083015262000b028162000ac0565b9050919050565b7f4e487b7100000000000000000000000000000000000000000000000000000000600052602260045260246000fd5b6000600282049050600182168062000b5157607f821691505b6020821081141562000b685762000b6762000b09565b5b50919050565b60805160a05160c05160e05161010051610120516101405161573662000bd7600039600081816119df0152818161209701526121a10152600061253401526000612576015260006125550152600061248a015260006124e00152600061250901526157366000f3fe6080604052600436106101fd5760003560e01c80637d5e81e21161010d578063c59057e4116100a0578063ea0217cf1161006f578063ea0217cf14610810578063eb9019d414610839578063ece40cc114610876578063f8ce560a1461089f578063fc0c546a146108dc57610243565b8063c59057e414610752578063d33219b41461078f578063dd4e2ba5146107ba578063deaaa7cc146107e557610243565b8063ab58fb8e116100dc578063ab58fb8e14610696578063b58131b0146106d3578063b9a61961146106fe578063c01f9e371461071557610243565b80637d5e81e2146105da57806397c3d33414610617578063a7713a7014610642578063a890c9101461066d57610243565b80633bccf4fd11610190578063544ffc9c1161015f578063544ffc9c146104cd57806354fd4d501461050c578063567813881461053757806370b0f660146105745780637b3c71d31461059d57610243565b80633bccf4fd146103d95780633e4f49e6146104165780634385963214610453578063452115d61461049057610243565b8063160cbed7116101cc578063160cbed7146103045780632656227d146103415780632d63f693146103715780633932abb1146103ae57610243565b806301ffc9a71461024857806302a251a31461028557806306f3f9e6146102b057806306fdde03146102d957610243565b36610243573073ffffffffffffffffffffffffffffffffffffffff16610221610907565b73ffffffffffffffffffffffffffffffffffffffff161461024157600080fd5b005b600080fd5b34801561025457600080fd5b5061026f600480360381019061026a919061322e565b610916565b60405161027c9190613276565b60405180910390f35b34801561029157600080fd5b5061029a610928565b6040516102a791906132aa565b60405180910390f35b3480156102bc57600080fd5b506102d760048036038101906102d291906132f1565b610932565b005b3480156102e557600080fd5b506102ee6109ba565b6040516102fb91906133b7565b60405180910390f35b34801561031057600080fd5b5061032b6004803603810190610326919061380e565b610a4c565b60405161033891906132aa565b60405180910390f35b61035b6004803603810190610356919061380e565b610e76565b60405161036891906132aa565b60405180910390f35b34801561037d57600080fd5b50610398600480360381019061039391906132f1565b610fa9565b6040516103a591906132aa565b60405180910390f35b3480156103ba57600080fd5b506103c3611017565b6040516103d091906132aa565b60405180910390f35b3480156103e557600080fd5b5061040060048036038101906103fb9190613902565b611021565b60405161040d91906132aa565b60405180910390f35b34801561042257600080fd5b5061043d600480360381019061043891906132f1565b6110ab565b60405161044a91906139f4565b60405180910390f35b34801561045f57600080fd5b5061047a60048036038101906104759190613a0f565b6110bd565b6040516104879190613276565b60405180910390f35b34801561049c57600080fd5b506104b760048036038101906104b2919061380e565b611128565b6040516104c491906132aa565b60405180910390f35b3480156104d957600080fd5b506104f460048036038101906104ef91906132f1565b611140565b60405161050393929190613a4f565b60405180910390f35b34801561051857600080fd5b50610521611178565b60405161052e91906133b7565b60405180910390f35b34801561054357600080fd5b5061055e60048036038101906105599190613a86565b6111b5565b60405161056b91906132aa565b60405180910390f35b34801561058057600080fd5b5061059b600480360381019061059691906132f1565b6111e6565b005b3480156105a957600080fd5b506105c460048036038101906105bf9190613b21565b61126e565b6040516105d191906132aa565b60405180910390f35b3480156105e657600080fd5b5061060160048036038101906105fc9190613c36565b6112d6565b60405161060e91906132aa565b60405180910390f35b34801561062357600080fd5b5061062c6115d6565b60405161063991906132aa565b60405180910390f35b34801561064e57600080fd5b506106576115df565b60405161066491906132aa565b60405180910390f35b34801561067957600080fd5b50610694600480360381019061068f9190613d5d565b6115e9565b005b3480156106a257600080fd5b506106bd60048036038101906106b891906132f1565b611671565b6040516106ca91906132aa565b60405180910390f35b3480156106df57600080fd5b506106e86116df565b6040516106f591906132aa565b60405180910390f35b34801561070a57600080fd5b506107136116ee565b005b34801561072157600080fd5b5061073c600480360381019061073791906132f1565b611772565b60405161074991906132aa565b60405180910390f35b34801561075e57600080fd5b506107796004803603810190610774919061380e565b6117e0565b60405161078691906132aa565b60405180910390f35b34801561079b57600080fd5b506107a461181c565b6040516107b19190613d99565b60405180910390f35b3480156107c657600080fd5b506107cf611846565b6040516107dc91906133b7565b60405180910390f35b3480156107f157600080fd5b506107fa611883565b6040516108079190613dc3565b60405180910390f35b34801561081c57600080fd5b50610837600480360381019061083291906132f1565b6118a7565b005b34801561084557600080fd5b50610860600480360381019061085b9190613dde565b61192f565b60405161086d91906132aa565b60405180910390f35b34801561088257600080fd5b5061089d600480360381019061089891906132f1565b611943565b005b3480156108ab57600080fd5b506108c660048036038101906108c191906132f1565b6119cb565b6040516108d391906132aa565b60405180910390f35b3480156108e857600080fd5b506108f16119dd565b6040516108fe9190613e7d565b60405180910390f35b6000610911611a01565b905090565b600061092182611a2b565b9050919050565b6000600354905090565b61093a610907565b73ffffffffffffffffffffffffffffffffffffffff16610958611aa5565b73ffffffffffffffffffffffffffffffffffffffff16146109ae576040517f08c379a00000000000000000000000000000000000000000000000000000000081526004016109a590613ee4565b60405180910390fd5b6109b781611aad565b50565b6060600080546109c990613f33565b80601f01602080910402602001604051908101604052809291908181526020018280546109f590613f33565b8015610a425780601f10610a1757610100808354040283529160200191610a42565b820191906000526020600020905b815481529060010190602001808311610a2557829003601f168201915b5050505050905090565b600080610a5b868686866117e0565b905060046007811115610a7157610a7061397d565b5b610a7a826110ab565b6007811115610a8c57610a8b61397d565b5b14610acc576040517f08c379a0000000000000000000000000000000000000000000000000000000008152600401610ac390613fd7565b60405180910390fd5b6000600560009054906101000a900473ffffffffffffffffffffffffffffffffffffffff1673ffffffffffffffffffffffffffffffffffffffff16636a42b8f86040518163ffffffff1660e01b815260040160206040518083038186803b158015610b3657600080fd5b505afa158015610b4a573d6000803e3d6000fd5b505050506040513d601f19601f82011682018060405250810190610b6e919061400c565b42610b799190614068565b9050610bab610b8782611b42565b60066000858152602001908152602001600020600001611b9990919063ffffffff16565b60005b8751811015610e2f57600560009054906101000a900473ffffffffffffffffffffffffffffffffffffffff1673ffffffffffffffffffffffffffffffffffffffff1663f2b06537898381518110610c0857610c076140be565b5b6020026020010151898481518110610c2357610c226140be565b5b6020026020010151898581518110610c3e57610c3d6140be565b5b602002602001015186604051602001610c5a9493929190614168565b604051602081830303815290604052805190602001206040518263ffffffff1660e01b8152600401610c8c9190613dc3565b60206040518083038186803b158015610ca457600080fd5b505afa158015610cb8573d6000803e3d6000fd5b505050506040513d601f19601f82011682018060405250810190610cdc91906141f3565b15610d1c576040517f08c379a0000000000000000000000000000000000000000000000000000000008152600401610d13906142b8565b60405180910390fd5b600560009054906101000a900473ffffffffffffffffffffffffffffffffffffffff1673ffffffffffffffffffffffffffffffffffffffff16633a66f901898381518110610d6d57610d6c6140be565b5b6020026020010151898481518110610d8857610d876140be565b5b6020026020010151898581518110610da357610da26140be565b5b6020026020010151866040518563ffffffff1660e01b8152600401610dcb9493929190614168565b602060405180830381600087803b158015610de557600080fd5b505af1158015610df9573d6000803e3d6000fd5b505050506040513d601f19601f82011682018060405250810190610e1d91906142ed565b5080610e289061431a565b9050610bae565b507f9a2e42fd6722813d69113e7d0079d3d940171428df7373df9c7f7617cfda28928282604051610e61929190614363565b60405180910390a18192505050949350505050565b600080610e85868686866117e0565b90506000610e92826110ab565b905060046007811115610ea857610ea761397d565b5b816007811115610ebb57610eba61397d565b5b1480610eeb575060056007811115610ed657610ed561397d565b5b816007811115610ee957610ee861397d565b5b145b610f2a576040517f08c379a0000000000000000000000000000000000000000000000000000000008152600401610f2190613fd7565b60405180910390fd5b600180600084815260200190815260200160002060020160006101000a81548160ff0219169083151502179055507f712ae1383f79ac853f8d882153778e0260ef8f03b504e2866e0593e04d2b291f82604051610f8791906132aa565b60405180910390a1610f9c8288888888611bc8565b8192505050949350505050565b6000611006600160008481526020019081526020016000206000016040518060200160405290816000820160009054906101000a900467ffffffffffffffff1667ffffffffffffffff1667ffffffffffffffff1681525050611bdc565b67ffffffffffffffff169050919050565b6000600254905090565b60008061108261107a7f150214d74d59b7d1e90c73fc22ef3d991dd0a76b046543d4d80ab92d2a50328f898960405160200161105f9392919061439b565b60405160208183030381529060405280519060200120611bea565b868686611c04565b905061109f87828860405180602001604052806000815250611c2f565b91505095945050505050565b60006110b682611d83565b9050919050565b60006008600084815260200190815260200160002060030160008373ffffffffffffffffffffffffffffffffffffffff1673ffffffffffffffffffffffffffffffffffffffff16815260200190815260200160002060009054906101000a900460ff16905092915050565b600061113685858585611eae565b9050949350505050565b600080600080600860008681526020019081526020016000209050806000015481600101548260020154935093509350509193909250565b60606040518060400160405280600181526020017f3100000000000000000000000000000000000000000000000000000000000000815250905090565b6000806111c0611aa5565b90506111dd84828560405180602001604052806000815250611c2f565b91505092915050565b6111ee610907565b73ffffffffffffffffffffffffffffffffffffffff1661120c611aa5565b73ffffffffffffffffffffffffffffffffffffffff1614611262576040517f08c379a000000000000000000000000000000000000000000000000000000000815260040161125990613ee4565b60405180910390fd5b61126b81611ec6565b50565b600080611279611aa5565b90506112cb86828787878080601f016020809104026020016040519081016040528093929190818152602001838380828437600081840152601f19601f82011690508083019250505050505050611c2f565b915050949350505050565b60006112e06116df565b6112f6336001436112f191906143d2565b61192f565b1015611337576040517f08c379a000000000000000000000000000000000000000000000000000000000815260040161132e9061449e565b60405180910390fd5b600061134c86868686805190602001206117e0565b90508451865114611392576040517f08c379a000000000000000000000000000000000000000000000000000000000815260040161138990614530565b60405180910390fd5b83518651146113d6576040517f08c379a00000000000000000000000000000000000000000000000000000000081526004016113cd90614530565b60405180910390fd5b600086511161141a576040517f08c379a00000000000000000000000000000000000000000000000000000000081526004016114119061459c565b60405180910390fd5b600060016000838152602001908152602001600020905061147a816000016040518060200160405290816000820160009054906101000a900467ffffffffffffffff1667ffffffffffffffff1667ffffffffffffffff1681525050611f0b565b6114b9576040517f08c379a00000000000000000000000000000000000000000000000000000000081526004016114b09061462e565b60405180910390fd5b60006114cb6114c6611017565b611b42565b6114d443611b42565b6114de9190614662565b905060006114f26114ed610928565b611b42565b826114fd9190614662565b90506115158284600001611f2590919063ffffffff16565b61152b8184600101611f2590919063ffffffff16565b7f7d84a6263ae0d98d3329bd7b46bb4e8d6f98cd35a7adb45c274c8b7fd5ebd5e084611555611aa5565b8b8b8d5167ffffffffffffffff811115611572576115716133de565b5b6040519080825280602002602001820160405280156115a557816020015b60608152602001906001900390816115905790505b508c88888e6040516115bf99989796959493929190614a65565b60405180910390a183945050505050949350505050565b60006064905090565b6000600754905090565b6115f1610907565b73ffffffffffffffffffffffffffffffffffffffff1661160f611aa5565b73ffffffffffffffffffffffffffffffffffffffff1614611665576040517f08c379a000000000000000000000000000000000000000000000000000000000815260040161165c90613ee4565b60405180910390fd5b61166e81611f54565b50565b60006116ce600660008481526020019081526020016000206000016040518060200160405290816000820160009054906101000a900467ffffffffffffffff1667ffffffffffffffff1667ffffffffffffffff1681525050611ff3565b67ffffffffffffffff169050919050565b60006116e9612001565b905090565b600560009054906101000a900473ffffffffffffffffffffffffffffffffffffffff1673ffffffffffffffffffffffffffffffffffffffff16630e18b6816040518163ffffffff1660e01b8152600401600060405180830381600087803b15801561175857600080fd5b505af115801561176c573d6000803e3d6000fd5b50505050565b60006117cf600160008481526020019081526020016000206001016040518060200160405290816000820160009054906101000a900467ffffffffffffffff1667ffffffffffffffff1667ffffffffffffffff1681525050611bdc565b67ffffffffffffffff169050919050565b6000848484846040516020016117f99493929190614b15565b6040516020818303038152906040528051906020012060001c9050949350505050565b6000600560009054906101000a900473ffffffffffffffffffffffffffffffffffffffff16905090565b60606040518060400160405280602081526020017f737570706f72743d627261766f2671756f72756d3d666f722c6162737461696e815250905090565b7f150214d74d59b7d1e90c73fc22ef3d991dd0a76b046543d4d80ab92d2a50328f81565b6118af610907565b73ffffffffffffffffffffffffffffffffffffffff166118cd611aa5565b73ffffffffffffffffffffffffffffffffffffffff1614611923576040517f08c379a000000000000000000000000000000000000000000000000000000000815260040161191a90613ee4565b60405180910390fd5b61192c8161200b565b50565b600061193b8383612093565b905092915050565b61194b610907565b73ffffffffffffffffffffffffffffffffffffffff16611969611aa5565b73ffffffffffffffffffffffffffffffffffffffff16146119bf576040517f08c379a00000000000000000000000000000000000000000000000000000000081526004016119b690613ee4565b60405180910390fd5b6119c881612148565b50565b60006119d68261218d565b9050919050565b7f000000000000000000000000000000000000000000000000000000000000000081565b6000600560009054906101000a900473ffffffffffffffffffffffffffffffffffffffff16905090565b60007f6e665ced000000000000000000000000000000000000000000000000000000007bffffffffffffffffffffffffffffffffffffffffffffffffffffffff1916827bffffffffffffffffffffffffffffffffffffffffffffffffffffffff19161480611a9e5750611a9d82612263565b5b9050919050565b600033905090565b611ab56115d6565b811115611af7576040517f08c379a0000000000000000000000000000000000000000000000000000000008152600401611aee90614c07565b60405180910390fd5b60006007549050816007819055507f0553476bf02ef2726e8ce5ced78d63e26e602e4a2257b1f559418e24b46339978183604051611b36929190614363565b60405180910390a15050565b600067ffffffffffffffff8016821115611b91576040517f08c379a0000000000000000000000000000000000000000000000000000000008152600401611b8890614c99565b60405180910390fd5b819050919050565b808260000160006101000a81548167ffffffffffffffff021916908367ffffffffffffffff1602179055505050565b611bd585858585856122dd565b5050505050565b600081600001519050919050565b6000611bfd611bf7612486565b836125a0565b9050919050565b6000806000611c15878787876125d3565b91509150611c22816126e0565b8192505050949350505050565b60008060016000878152602001908152602001600020905060016007811115611c5b57611c5a61397d565b5b611c64876110ab565b6007811115611c7657611c7561397d565b5b14611cb6576040517f08c379a0000000000000000000000000000000000000000000000000000000008152600401611cad90614d2b565b60405180910390fd5b6000611d1486611d05846000016040518060200160405290816000820160009054906101000a900467ffffffffffffffff1667ffffffffffffffff1667ffffffffffffffff1681525050611bdc565b67ffffffffffffffff1661192f565b9050611d22878787846128b5565b8573ffffffffffffffffffffffffffffffffffffffff167fb8e138887d0aa13bab447e82de9d5c1777041ecd21ca36ba824ff1e6c07ddda488878488604051611d6e9493929190614d4b565b60405180910390a28092505050949350505050565b600080611d8f83612abb565b905060046007811115611da557611da461397d565b5b816007811115611db857611db761397d565b5b14611dc65780915050611ea9565b6000611dd184611671565b90506000811415611de6578192505050611ea9565b600560009054906101000a900473ffffffffffffffffffffffffffffffffffffffff1673ffffffffffffffffffffffffffffffffffffffff1663c1a287e26040518163ffffffff1660e01b815260040160206040518083038186803b158015611e4e57600080fd5b505afa158015611e62573d6000803e3d6000fd5b505050506040513d601f19601f82011682018060405250810190611e86919061400c565b81611e919190614068565b4210611ea257600692505050611ea9565b6005925050505b919050565b6000611ebc85858585612c98565b9050949350505050565b7fc565b045403dc03c2eea82b81a0465edad9e2e7fc4d97e11421c209da93d7a9360025482604051611ef9929190614363565b60405180910390a18060028190555050565b600080826000015167ffffffffffffffff16149050919050565b808260000160006101000a81548167ffffffffffffffff021916908367ffffffffffffffff1602179055505050565b7f08f74ea46ef7894f65eabfb5e6e695de773a000b47c529ab559178069b226401600560009054906101000a900473ffffffffffffffffffffffffffffffffffffffff1682604051611fa7929190614d97565b60405180910390a180600560006101000a81548173ffffffffffffffffffffffffffffffffffffffff021916908373ffffffffffffffffffffffffffffffffffffffff16021790555050565b600081600001519050919050565b6000600454905090565b6000811161204e576040517f08c379a000000000000000000000000000000000000000000000000000000000815260040161204590614e32565b60405180910390fd5b7f7e3f7f0708a84de9203036abaa450dccc85ad5ff52f78c170f3edb55cf5e882860035482604051612081929190614363565b60405180910390a18060038190555050565b60007f000000000000000000000000000000000000000000000000000000000000000073ffffffffffffffffffffffffffffffffffffffff16633a46b1a884846040518363ffffffff1660e01b81526004016120f0929190614e52565b60206040518083038186803b15801561210857600080fd5b505afa15801561211c573d6000803e3d6000fd5b505050506040513d601f19601f82011682018060405250810190612140919061400c565b905092915050565b7fccb45da8d5717e6c4544694297c4ba5cf151d455c9bb0ed4fc7a38411bc054616004548260405161217b929190614363565b60405180910390a18060048190555050565b60006121976115d6565b61219f6115df565b7f000000000000000000000000000000000000000000000000000000000000000073ffffffffffffffffffffffffffffffffffffffff16638e539e8c856040518263ffffffff1660e01b81526004016121f891906132aa565b60206040518083038186803b15801561221057600080fd5b505afa158015612224573d6000803e3d6000fd5b505050506040513d601f19601f82011682018060405250810190612248919061400c565b6122529190614e7b565b61225c9190614f04565b9050919050565b60007fbf26d897000000000000000000000000000000000000000000000000000000007bffffffffffffffffffffffffffffffffffffffffffffffffffffffff1916827bffffffffffffffffffffffffffffffffffffffffffffffffffffffff191614806122d657506122d582612dea565b5b9050919050565b60006122e886611671565b90506000811161232d576040517f08c379a000000000000000000000000000000000000000000000000000000000815260040161232490614fa7565b60405180910390fd5b612359600560009054906101000a900473ffffffffffffffffffffffffffffffffffffffff1634612e54565b60005b855181101561247d57600560009054906101000a900473ffffffffffffffffffffffffffffffffffffffff1673ffffffffffffffffffffffffffffffffffffffff16630825f38f8783815181106123b6576123b56140be565b5b60200260200101518784815181106123d1576123d06140be565b5b60200260200101518785815181106123ec576123eb6140be565b5b6020026020010151866040518563ffffffff1660e01b81526004016124149493929190614168565b600060405180830381600087803b15801561242e57600080fd5b505af1158015612442573d6000803e3d6000fd5b505050506040513d6000823e3d601f19601f8201168201806040525081019061246b9190615037565b50806124769061431a565b905061235c565b50505050505050565b60007f000000000000000000000000000000000000000000000000000000000000000073ffffffffffffffffffffffffffffffffffffffff163073ffffffffffffffffffffffffffffffffffffffff1614801561250257507f000000000000000000000000000000000000000000000000000000000000000046145b1561252f577f0000000000000000000000000000000000000000000000000000000000000000905061259d565b61259a7f00000000000000000000000000000000000000000000000000000000000000007f00000000000000000000000000000000000000000000000000000000000000007f0000000000000000000000000000000000000000000000000000000000000000612f48565b90505b90565b600082826040516020016125b59291906150f8565b60405160208183030381529060405280519060200120905092915050565b6000807f7fffffffffffffffffffffffffffffff5d576e7357a4501ddfe92f46681b20a08360001c111561260e5760006003915091506126d7565b601b8560ff16141580156126265750601c8560ff1614155b156126385760006004915091506126d7565b60006001878787876040516000815260200160405260405161265d949392919061512f565b6020604051602081039080840390855afa15801561267f573d6000803e3d6000fd5b505050602060405103519050600073ffffffffffffffffffffffffffffffffffffffff168173ffffffffffffffffffffffffffffffffffffffff1614156126ce576000600192509250506126d7565b80600092509250505b94509492505050565b600060048111156126f4576126f361397d565b5b8160048111156127075761270661397d565b5b1415612712576128b2565b600160048111156127265761272561397d565b5b8160048111156127395761273861397d565b5b141561277a576040517f08c379a0000000000000000000000000000000000000000000000000000000008152600401612771906151c0565b60405180910390fd5b6002600481111561278e5761278d61397d565b5b8160048111156127a1576127a061397d565b5b14156127e2576040517f08c379a00000000000000000000000000000000000000000000000000000000081526004016127d99061522c565b60405180910390fd5b600360048111156127f6576127f561397d565b5b8160048111156128095761280861397d565b5b141561284a576040517f08c379a0000000000000000000000000000000000000000000000000000000008152600401612841906152be565b60405180910390fd5b60048081111561285d5761285c61397d565b5b8160048111156128705761286f61397d565b5b14156128b1576040517f08c379a00000000000000000000000000000000000000000000000000000000081526004016128a890615350565b60405180910390fd5b5b50565b60006008600086815260200190815260200160002090508060030160008573ffffffffffffffffffffffffffffffffffffffff1673ffffffffffffffffffffffffffffffffffffffff16815260200190815260200160002060009054906101000a900460ff161561295b576040517f08c379a0000000000000000000000000000000000000000000000000000000008152600401612952906153e2565b60405180910390fd5b60018160030160008673ffffffffffffffffffffffffffffffffffffffff1673ffffffffffffffffffffffffffffffffffffffff16815260200190815260200160002060006101000a81548160ff021916908315150217905550600060028111156129c9576129c861397d565b5b60ff168360ff1614156129f657818160000160008282546129ea9190614068565b92505081905550612ab4565b60016002811115612a0a57612a0961397d565b5b60ff168360ff161415612a375781816001016000828254612a2b9190614068565b92505081905550612ab3565b600280811115612a4a57612a4961397d565b5b60ff168360ff161415612a775781816002016000828254612a6b9190614068565b92505081905550612ab2565b6040517f08c379a0000000000000000000000000000000000000000000000000000000008152600401612aa990615474565b60405180910390fd5b5b5b5050505050565b60008060016000848152602001908152602001600020604051806080016040529081600082016040518060200160405290816000820160009054906101000a900467ffffffffffffffff1667ffffffffffffffff1667ffffffffffffffff16815250508152602001600182016040518060200160405290816000820160009054906101000a900467ffffffffffffffff1667ffffffffffffffff1667ffffffffffffffff168152505081526020016002820160009054906101000a900460ff161515151581526020016002820160019054906101000a900460ff1615151515815250509050806040015115612bb4576007915050612c93565b806060015115612bc8576002915050612c93565b43612bd68260000151611bdc565b67ffffffffffffffff1610612bef576000915050612c93565b43612bfd8260200151611bdc565b67ffffffffffffffff1610612c16576001915050612c93565b612c238160200151612f82565b15612c5857612c3183612fae565b8015612c425750612c4183612ff5565b5b612c4d576003612c50565b60045b915050612c93565b6040517f08c379a0000000000000000000000000000000000000000000000000000000008152600401612c8a906154e0565b60405180910390fd5b919050565b600080612ca786868686613020565b90506000612cb482611671565b90506000811115612ddd5760005b8751811015612dbd57600560009054906101000a900473ffffffffffffffffffffffffffffffffffffffff1673ffffffffffffffffffffffffffffffffffffffff1663591fcdfe898381518110612d1c57612d1b6140be565b5b6020026020010151898481518110612d3757612d366140be565b5b6020026020010151898581518110612d5257612d516140be565b5b6020026020010151866040518563ffffffff1660e01b8152600401612d7a9493929190614168565b600060405180830381600087803b158015612d9457600080fd5b505af1158015612da8573d6000803e3d6000fd5b5050505080612db69061431a565b9050612cc2565b50612ddc60066000848152602001908152602001600020600001613179565b5b8192505050949350505050565b60007f01ffc9a7000000000000000000000000000000000000000000000000000000007bffffffffffffffffffffffffffffffffffffffffffffffffffffffff1916827bffffffffffffffffffffffffffffffffffffffffffffffffffffffff1916149050919050565b80471015612e97576040517f08c379a0000000000000000000000000000000000000000000000000000000008152600401612e8e9061554c565b60405180910390fd5b60008273ffffffffffffffffffffffffffffffffffffffff1682604051612ebd9061559a565b60006040518083038185875af1925050503d8060008114612efa576040519150601f19603f3d011682016040523d82523d6000602084013e612eff565b606091505b5050905080612f43576040517f08c379a0000000000000000000000000000000000000000000000000000000008152600401612f3a90615621565b60405180910390fd5b505050565b60008383834630604051602001612f63959493929190615641565b6040516020818303038152906040528051906020012090509392505050565b6000612f8d826131a8565b8015612fa7575043826000015167ffffffffffffffff1611155b9050919050565b60008060086000848152602001908152602001600020905080600201548160010154612fda9190614068565b612feb612fe685610fa9565b6119cb565b1115915050919050565b6000806008600084815260200190815260200160002090508060000154816001015411915050919050565b60008061302f868686866117e0565b9050600061303c826110ab565b9050600260078111156130525761305161397d565b5b8160078111156130655761306461397d565b5b141580156130985750600660078111156130825761308161397d565b5b8160078111156130955761309461397d565b5b14155b80156130c857506007808111156130b2576130b161397d565b5b8160078111156130c5576130c461397d565b5b14155b613107576040517f08c379a00000000000000000000000000000000000000000000000000000000081526004016130fe906156e0565b60405180910390fd5b600180600084815260200190815260200160002060020160016101000a81548160ff0219169083151502179055507f789cf55be980739dad1d0699b93b58e806b51c9d96619bfa8fe0a28abaa7b30c8260405161316491906132aa565b60405180910390a18192505050949350505050565b60008160000160006101000a81548167ffffffffffffffff021916908367ffffffffffffffff16021790555050565b600080826000015167ffffffffffffffff16119050919050565b6000604051905090565b600080fd5b600080fd5b60007fffffffff0000000000000000000000000000000000000000000000000000000082169050919050565b61320b816131d6565b811461321657600080fd5b50565b60008135905061322881613202565b92915050565b600060208284031215613244576132436131cc565b5b600061325284828501613219565b91505092915050565b60008115159050919050565b6132708161325b565b82525050565b600060208201905061328b6000830184613267565b92915050565b6000819050919050565b6132a481613291565b82525050565b60006020820190506132bf600083018461329b565b92915050565b6132ce81613291565b81146132d957600080fd5b50565b6000813590506132eb816132c5565b92915050565b600060208284031215613307576133066131cc565b5b6000613315848285016132dc565b91505092915050565b600081519050919050565b600082825260208201905092915050565b60005b8381101561335857808201518184015260208101905061333d565b83811115613367576000848401525b50505050565b6000601f19601f8301169050919050565b60006133898261331e565b6133938185613329565b93506133a381856020860161333a565b6133ac8161336d565b840191505092915050565b600060208201905081810360008301526133d1818461337e565b905092915050565b600080fd5b7f4e487b7100000000000000000000000000000000000000000000000000000000600052604160045260246000fd5b6134168261336d565b810181811067ffffffffffffffff82111715613435576134346133de565b5b80604052505050565b60006134486131c2565b9050613454828261340d565b919050565b600067ffffffffffffffff821115613474576134736133de565b5b602082029050602081019050919050565b600080fd5b600073ffffffffffffffffffffffffffffffffffffffff82169050919050565b60006134b58261348a565b9050919050565b6134c5816134aa565b81146134d057600080fd5b50565b6000813590506134e2816134bc565b92915050565b60006134fb6134f684613459565b61343e565b9050808382526020820190506020840283018581111561351e5761351d613485565b5b835b81811015613547578061353388826134d3565b845260208401935050602081019050613520565b5050509392505050565b600082601f830112613566576135656133d9565b5b81356135768482602086016134e8565b91505092915050565b600067ffffffffffffffff82111561359a576135996133de565b5b602082029050602081019050919050565b60006135be6135b98461357f565b61343e565b905080838252602082019050602084028301858111156135e1576135e0613485565b5b835b8181101561360a57806135f688826132dc565b8452602084019350506020810190506135e3565b5050509392505050565b600082601f830112613629576136286133d9565b5b81356136398482602086016135ab565b91505092915050565b600067ffffffffffffffff82111561365d5761365c6133de565b5b602082029050602081019050919050565b600080fd5b600067ffffffffffffffff82111561368e5761368d6133de565b5b6136978261336d565b9050602081019050919050565b82818337600083830152505050565b60006136c66136c184613673565b61343e565b9050828152602081018484840111156136e2576136e161366e565b5b6136ed8482856136a4565b509392505050565b600082601f83011261370a576137096133d9565b5b813561371a8482602086016136b3565b91505092915050565b600061373661373184613642565b61343e565b9050808382526020820190506020840283018581111561375957613758613485565b5b835b818110156137a057803567ffffffffffffffff81111561377e5761377d6133d9565b5b80860161378b89826136f5565b8552602085019450505060208101905061375b565b5050509392505050565b600082601f8301126137bf576137be6133d9565b5b81356137cf848260208601613723565b91505092915050565b6000819050919050565b6137eb816137d8565b81146137f657600080fd5b50565b600081359050613808816137e2565b92915050565b60008060008060808587031215613828576138276131cc565b5b600085013567ffffffffffffffff811115613846576138456131d1565b5b61385287828801613551565b945050602085013567ffffffffffffffff811115613873576138726131d1565b5b61387f87828801613614565b935050604085013567ffffffffffffffff8111156138a05761389f6131d1565b5b6138ac878288016137aa565b92505060606138bd878288016137f9565b91505092959194509250565b600060ff82169050919050565b6138df816138c9565b81146138ea57600080fd5b50565b6000813590506138fc816138d6565b92915050565b600080600080600060a0868803121561391e5761391d6131cc565b5b600061392c888289016132dc565b955050602061393d888289016138ed565b945050604061394e888289016138ed565b935050606061395f888289016137f9565b9250506080613970888289016137f9565b9150509295509295909350565b7f4e487b7100000000000000000000000000000000000000000000000000000000600052602160045260246000fd5b600881106139bd576139bc61397d565b5b50565b60008190506139ce826139ac565b919050565b60006139de826139c0565b9050919050565b6139ee816139d3565b82525050565b6000602082019050613a0960008301846139e5565b92915050565b60008060408385031215613a2657613a256131cc565b5b6000613a34858286016132dc565b9250506020613a45858286016134d3565b9150509250929050565b6000606082019050613a64600083018661329b565b613a71602083018561329b565b613a7e604083018461329b565b949350505050565b60008060408385031215613a9d57613a9c6131cc565b5b6000613aab858286016132dc565b9250506020613abc858286016138ed565b9150509250929050565b600080fd5b60008083601f840112613ae157613ae06133d9565b5b8235905067ffffffffffffffff811115613afe57613afd613ac6565b5b602083019150836001820283011115613b1a57613b19613485565b5b9250929050565b60008060008060608587031215613b3b57613b3a6131cc565b5b6000613b49878288016132dc565b9450506020613b5a878288016138ed565b935050604085013567ffffffffffffffff811115613b7b57613b7a6131d1565b5b613b8787828801613acb565b925092505092959194509250565b600067ffffffffffffffff821115613bb057613baf6133de565b5b613bb98261336d565b9050602081019050919050565b6000613bd9613bd484613b95565b61343e565b905082815260208101848484011115613bf557613bf461366e565b5b613c008482856136a4565b509392505050565b600082601f830112613c1d57613c1c6133d9565b5b8135613c2d848260208601613bc6565b91505092915050565b60008060008060808587031215613c5057613c4f6131cc565b5b600085013567ffffffffffffffff811115613c6e57613c6d6131d1565b5b613c7a87828801613551565b945050602085013567ffffffffffffffff811115613c9b57613c9a6131d1565b5b613ca787828801613614565b935050604085013567ffffffffffffffff811115613cc857613cc76131d1565b5b613cd4878288016137aa565b925050606085013567ffffffffffffffff811115613cf557613cf46131d1565b5b613d0187828801613c08565b91505092959194509250565b6000613d188261348a565b9050919050565b6000613d2a82613d0d565b9050919050565b613d3a81613d1f565b8114613d4557600080fd5b50565b600081359050613d5781613d31565b92915050565b600060208284031215613d7357613d726131cc565b5b6000613d8184828501613d48565b91505092915050565b613d93816134aa565b82525050565b6000602082019050613dae6000830184613d8a565b92915050565b613dbd816137d8565b82525050565b6000602082019050613dd86000830184613db4565b92915050565b60008060408385031215613df557613df46131cc565b5b6000613e03858286016134d3565b9250506020613e14858286016132dc565b9150509250929050565b6000819050919050565b6000613e43613e3e613e398461348a565b613e1e565b61348a565b9050919050565b6000613e5582613e28565b9050919050565b6000613e6782613e4a565b9050919050565b613e7781613e5c565b82525050565b6000602082019050613e926000830184613e6e565b92915050565b7f476f7665726e6f723a206f6e6c79476f7665726e616e63650000000000000000600082015250565b6000613ece601883613329565b9150613ed982613e98565b602082019050919050565b60006020820190508181036000830152613efd81613ec1565b9050919050565b7f4e487b7100000000000000000000000000000000000000000000000000000000600052602260045260246000fd5b60006002820490506001821680613f4b57607f821691505b60208210811415613f5f57613f5e613f04565b5b50919050565b7f476f7665726e6f723a2070726f706f73616c206e6f742073756363657373667560008201527f6c00000000000000000000000000000000000000000000000000000000000000602082015250565b6000613fc1602183613329565b9150613fcc82613f65565b604082019050919050565b60006020820190508181036000830152613ff081613fb4565b9050919050565b600081519050614006816132c5565b92915050565b600060208284031215614022576140216131cc565b5b600061403084828501613ff7565b91505092915050565b7f4e487b7100000000000000000000000000000000000000000000000000000000600052601160045260246000fd5b600061407382613291565b915061407e83613291565b9250827fffffffffffffffffffffffffffffffffffffffffffffffffffffffffffffffff038211156140b3576140b2614039565b5b828201905092915050565b7f4e487b7100000000000000000000000000000000000000000000000000000000600052603260045260246000fd5b50565b60006140fd600083613329565b9150614108826140ed565b600082019050919050565b600081519050919050565b600082825260208201905092915050565b600061413a82614113565b614144818561411e565b935061415481856020860161333a565b61415d8161336d565b840191505092915050565b600060a08201905061417d6000830187613d8a565b61418a602083018661329b565b818103604083015261419b816140f0565b905081810360608301526141af818561412f565b90506141be608083018461329b565b95945050505050565b6141d08161325b565b81146141db57600080fd5b50565b6000815190506141ed816141c7565b92915050565b600060208284031215614209576142086131cc565b5b6000614217848285016141de565b91505092915050565b7f476f7665726e6f7254696d656c6f636b436f6d706f756e643a206964656e746960008201527f63616c2070726f706f73616c20616374696f6e20616c7265616479207175657560208201527f6564000000000000000000000000000000000000000000000000000000000000604082015250565b60006142a2604283613329565b91506142ad82614220565b606082019050919050565b600060208201905081810360008301526142d181614295565b9050919050565b6000815190506142e7816137e2565b92915050565b600060208284031215614303576143026131cc565b5b6000614311848285016142d8565b91505092915050565b600061432582613291565b91507fffffffffffffffffffffffffffffffffffffffffffffffffffffffffffffffff82141561435857614357614039565b5b600182019050919050565b6000604082019050614378600083018561329b565b614385602083018461329b565b9392505050565b614395816138c9565b82525050565b60006060820190506143b06000830186613db4565b6143bd602083018561329b565b6143ca604083018461438c565b949350505050565b60006143dd82613291565b91506143e883613291565b9250828210156143fb576143fa614039565b5b828203905092915050565b7f476f7665726e6f72436f6d7061746962696c697479427261766f3a2070726f7060008201527f6f73657220766f7465732062656c6f772070726f706f73616c2074687265736860208201527f6f6c640000000000000000000000000000000000000000000000000000000000604082015250565b6000614488604383613329565b915061449382614406565b606082019050919050565b600060208201905081810360008301526144b78161447b565b9050919050565b7f476f7665726e6f723a20696e76616c69642070726f706f73616c206c656e677460008201527f6800000000000000000000000000000000000000000000000000000000000000602082015250565b600061451a602183613329565b9150614525826144be565b604082019050919050565b600060208201905081810360008301526145498161450d565b9050919050565b7f476f7665726e6f723a20656d7074792070726f706f73616c0000000000000000600082015250565b6000614586601883613329565b915061459182614550565b602082019050919050565b600060208201905081810360008301526145b581614579565b9050919050565b7f476f7665726e6f723a2070726f706f73616c20616c726561647920657869737460008201527f7300000000000000000000000000000000000000000000000000000000000000602082015250565b6000614618602183613329565b9150614623826145bc565b604082019050919050565b600060208201905081810360008301526146478161460b565b9050919050565b600067ffffffffffffffff82169050919050565b600061466d8261464e565b91506146788361464e565b92508267ffffffffffffffff0382111561469557614694614039565b5b828201905092915050565b600081519050919050565b600082825260208201905092915050565b6000819050602082019050919050565b6146d5816134aa565b82525050565b60006146e783836146cc565b60208301905092915050565b6000602082019050919050565b600061470b826146a0565b61471581856146ab565b9350614720836146bc565b8060005b8381101561475157815161473888826146db565b9750614743836146f3565b925050600181019050614724565b5085935050505092915050565b600081519050919050565b600082825260208201905092915050565b6000819050602082019050919050565b61479381613291565b82525050565b60006147a5838361478a565b60208301905092915050565b6000602082019050919050565b60006147c98261475e565b6147d38185614769565b93506147de8361477a565b8060005b8381101561480f5781516147f68882614799565b9750614801836147b1565b9250506001810190506147e2565b5085935050505092915050565b600081519050919050565b600082825260208201905092915050565b6000819050602082019050919050565b600082825260208201905092915050565b60006148648261331e565b61486e8185614848565b935061487e81856020860161333a565b6148878161336d565b840191505092915050565b600061489e8383614859565b905092915050565b6000602082019050919050565b60006148be8261481c565b6148c88185614827565b9350836020820285016148da85614838565b8060005b8581101561491657848403895281516148f78582614892565b9450614902836148a6565b925060208a019950506001810190506148de565b50829750879550505050505092915050565b600081519050919050565b600082825260208201905092915050565b6000819050602082019050919050565b600082825260208201905092915050565b600061497082614113565b61497a8185614954565b935061498a81856020860161333a565b6149938161336d565b840191505092915050565b60006149aa8383614965565b905092915050565b6000602082019050919050565b60006149ca82614928565b6149d48185614933565b9350836020820285016149e685614944565b8060005b85811015614a225784840389528151614a03858261499e565b9450614a0e836149b2565b925060208a019950506001810190506149ea565b50829750879550505050505092915050565b6000614a4f614a4a614a458461464e565b613e1e565b613291565b9050919050565b614a5f81614a34565b82525050565b600061012082019050614a7b600083018c61329b565b614a88602083018b613d8a565b8181036040830152614a9a818a614700565b90508181036060830152614aae81896147be565b90508181036080830152614ac281886148b3565b905081810360a0830152614ad681876149bf565b9050614ae560c0830186614a56565b614af260e0830185614a56565b818103610100830152614b05818461337e565b90509a9950505050505050505050565b60006080820190508181036000830152614b2f8187614700565b90508181036020830152614b4381866147be565b90508181036040830152614b5781856149bf565b9050614b666060830184613db4565b95945050505050565b7f476f7665726e6f72566f74657351756f72756d4672616374696f6e3a2071756f60008201527f72756d4e756d657261746f72206f7665722071756f72756d44656e6f6d696e6160208201527f746f720000000000000000000000000000000000000000000000000000000000604082015250565b6000614bf1604383613329565b9150614bfc82614b6f565b606082019050919050565b60006020820190508181036000830152614c2081614be4565b9050919050565b7f53616665436173743a2076616c756520646f65736e27742066697420696e203660008201527f3420626974730000000000000000000000000000000000000000000000000000602082015250565b6000614c83602683613329565b9150614c8e82614c27565b604082019050919050565b60006020820190508181036000830152614cb281614c76565b9050919050565b7f476f7665726e6f723a20766f7465206e6f742063757272656e746c792061637460008201527f6976650000000000000000000000000000000000000000000000000000000000602082015250565b6000614d15602383613329565b9150614d2082614cb9565b604082019050919050565b60006020820190508181036000830152614d4481614d08565b9050919050565b6000608082019050614d60600083018761329b565b614d6d602083018661438c565b614d7a604083018561329b565b8181036060830152614d8c818461337e565b905095945050505050565b6000604082019050614dac6000830185613d8a565b614db96020830184613d8a565b9392505050565b7f476f7665726e6f7253657474696e67733a20766f74696e6720706572696f642060008201527f746f6f206c6f7700000000000000000000000000000000000000000000000000602082015250565b6000614e1c602783613329565b9150614e2782614dc0565b604082019050919050565b60006020820190508181036000830152614e4b81614e0f565b9050919050565b6000604082019050614e676000830185613d8a565b614e74602083018461329b565b9392505050565b6000614e8682613291565b9150614e9183613291565b9250817fffffffffffffffffffffffffffffffffffffffffffffffffffffffffffffffff0483118215151615614eca57614ec9614039565b5b828202905092915050565b7f4e487b7100000000000000000000000000000000000000000000000000000000600052601260045260246000fd5b6000614f0f82613291565b9150614f1a83613291565b925082614f2a57614f29614ed5565b5b828204905092915050565b7f476f7665726e6f7254696d656c6f636b436f6d706f756e643a2070726f706f7360008201527f616c206e6f742079657420717565756564000000000000000000000000000000602082015250565b6000614f91603183613329565b9150614f9c82614f35565b604082019050919050565b60006020820190508181036000830152614fc081614f84565b9050919050565b6000614fda614fd584613673565b61343e565b905082815260208101848484011115614ff657614ff561366e565b5b61500184828561333a565b509392505050565b600082601f83011261501e5761501d6133d9565b5b815161502e848260208601614fc7565b91505092915050565b60006020828403121561504d5761504c6131cc565b5b600082015167ffffffffffffffff81111561506b5761506a6131d1565b5b61507784828501615009565b91505092915050565b600081905092915050565b7f1901000000000000000000000000000000000000000000000000000000000000600082015250565b60006150c1600283615080565b91506150cc8261508b565b600282019050919050565b6000819050919050565b6150f26150ed826137d8565b6150d7565b82525050565b6000615103826150b4565b915061510f82856150e1565b60208201915061511f82846150e1565b6020820191508190509392505050565b60006080820190506151446000830187613db4565b615151602083018661438c565b61515e6040830185613db4565b61516b6060830184613db4565b95945050505050565b7f45434453413a20696e76616c6964207369676e61747572650000000000000000600082015250565b60006151aa601883613329565b91506151b582615174565b602082019050919050565b600060208201905081810360008301526151d98161519d565b9050919050565b7f45434453413a20696e76616c6964207369676e6174757265206c656e67746800600082015250565b6000615216601f83613329565b9150615221826151e0565b602082019050919050565b6000602082019050818103600083015261524581615209565b9050919050565b7f45434453413a20696e76616c6964207369676e6174757265202773272076616c60008201527f7565000000000000000000000000000000000000000000000000000000000000602082015250565b60006152a8602283613329565b91506152b38261524c565b604082019050919050565b600060208201905081810360008301526152d78161529b565b9050919050565b7f45434453413a20696e76616c6964207369676e6174757265202776272076616c60008201527f7565000000000000000000000000000000000000000000000000000000000000602082015250565b600061533a602283613329565b9150615345826152de565b604082019050919050565b600060208201905081810360008301526153698161532d565b9050919050565b7f476f7665726e6f72566f74696e6753696d706c653a20766f746520616c72656160008201527f6479206361737400000000000000000000000000000000000000000000000000602082015250565b60006153cc602783613329565b91506153d782615370565b604082019050919050565b600060208201905081810360008301526153fb816153bf565b9050919050565b7f476f7665726e6f72566f74696e6753696d706c653a20696e76616c696420766160008201527f6c756520666f7220656e756d20566f7465547970650000000000000000000000602082015250565b600061545e603583613329565b915061546982615402565b604082019050919050565b6000602082019050818103600083015261548d81615451565b9050919050565b7f476f7665726e6f723a20756e6b6e6f776e2070726f706f73616c206964000000600082015250565b60006154ca601d83613329565b91506154d582615494565b602082019050919050565b600060208201905081810360008301526154f9816154bd565b9050919050565b7f416464726573733a20696e73756666696369656e742062616c616e6365000000600082015250565b6000615536601d83613329565b915061554182615500565b602082019050919050565b6000602082019050818103600083015261556581615529565b9050919050565b600081905092915050565b600061558460008361556c565b915061558f826140ed565b600082019050919050565b60006155a582615577565b9150819050919050565b7f416464726573733a20756e61626c6520746f2073656e642076616c75652c207260008201527f6563697069656e74206d61792068617665207265766572746564000000000000602082015250565b600061560b603a83613329565b9150615616826155af565b604082019050919050565b6000602082019050818103600083015261563a816155fe565b9050919050565b600060a0820190506156566000830188613db4565b6156636020830187613db4565b6156706040830186613db4565b61567d606083018561329b565b61568a6080830184613d8a565b9695505050505050565b7f476f7665726e6f723a2070726f706f73616c206e6f7420616374697665000000600082015250565b60006156ca601d83613329565b91506156d582615694565b602082019050919050565b600060208201905081810360008301526156f9816156bd565b905091905056fea26469706673582212207e9a19b20add70cbecc6fc3f079fba7c943b2f1c7e9970e0f12085b548fdb1e964736f6c63430008090033",
  "linkReferences": {},
  "deployedLinkReferences": {}
}