{
  "_format": "hh-sol-artifact-1",
  "contractName": "ERC1155SupplyMock",
  "sourceName": "contracts/oz/mocks/ERC1155SupplyMock.sol",
  "abi": [
    {
      "inputs": [
        {
          "internalType": "string",
          "name": "uri",
          "type": "string"
        }
      ],
      "stateMutability": "nonpayable",
      "type": "constructor"
    },
    {
      "anonymous": false,
      "inputs": [
        {
          "indexed": true,
          "internalType": "address",
          "name": "account",
          "type": "address"
        },
        {
          "indexed": true,
          "internalType": "address",
          "name": "operator",
          "type": "address"
        },
        {
          "indexed": false,
          "internalType": "bool",
          "name": "approved",
          "type": "bool"
        }
      ],
      "name": "ApprovalForAll",
      "type": "event"
    },
    {
      "anonymous": false,
      "inputs": [
        {
          "indexed": true,
          "internalType": "address",
          "name": "operator",
          "type": "address"
        },
        {
          "indexed": true,
          "internalType": "address",
          "name": "from",
          "type": "address"
        },
        {
          "indexed": true,
          "internalType": "address",
          "name": "to",
          "type": "address"
        },
        {
          "indexed": false,
          "internalType": "uint256[]",
          "name": "ids",
          "type": "uint256[]"
        },
        {
          "indexed": false,
          "internalType": "uint256[]",
          "name": "values",
          "type": "uint256[]"
        }
      ],
      "name": "TransferBatch",
      "type": "event"
    },
    {
      "anonymous": false,
      "inputs": [
        {
          "indexed": true,
          "internalType": "address",
          "name": "operator",
          "type": "address"
        },
        {
          "indexed": true,
          "internalType": "address",
          "name": "from",
          "type": "address"
        },
        {
          "indexed": true,
          "internalType": "address",
          "name": "to",
          "type": "address"
        },
        {
          "indexed": false,
          "internalType": "uint256",
          "name": "id",
          "type": "uint256"
        },
        {
          "indexed": false,
          "internalType": "uint256",
          "name": "value",
          "type": "uint256"
        }
      ],
      "name": "TransferSingle",
      "type": "event"
    },
    {
      "anonymous": false,
      "inputs": [
        {
          "indexed": false,
          "internalType": "string",
          "name": "value",
          "type": "string"
        },
        {
          "indexed": true,
          "internalType": "uint256",
          "name": "id",
          "type": "uint256"
        }
      ],
      "name": "URI",
      "type": "event"
    },
    {
      "inputs": [
        {
          "internalType": "address",
          "name": "account",
          "type": "address"
        },
        {
          "internalType": "uint256",
          "name": "id",
          "type": "uint256"
        }
      ],
      "name": "balanceOf",
      "outputs": [
        {
          "internalType": "uint256",
          "name": "",
          "type": "uint256"
        }
      ],
      "stateMutability": "view",
      "type": "function"
    },
    {
      "inputs": [
        {
          "internalType": "address[]",
          "name": "accounts",
          "type": "address[]"
        },
        {
          "internalType": "uint256[]",
          "name": "ids",
          "type": "uint256[]"
        }
      ],
      "name": "balanceOfBatch",
      "outputs": [
        {
          "internalType": "uint256[]",
          "name": "",
          "type": "uint256[]"
        }
      ],
      "stateMutability": "view",
      "type": "function"
    },
    {
      "inputs": [
        {
          "internalType": "address",
          "name": "owner",
          "type": "address"
        },
        {
          "internalType": "uint256",
          "name": "id",
          "type": "uint256"
        },
        {
          "internalType": "uint256",
          "name": "value",
          "type": "uint256"
        }
      ],
      "name": "burn",
      "outputs": [],
      "stateMutability": "nonpayable",
      "type": "function"
    },
    {
      "inputs": [
        {
          "internalType": "address",
          "name": "owner",
          "type": "address"
        },
        {
          "internalType": "uint256[]",
          "name": "ids",
          "type": "uint256[]"
        },
        {
          "internalType": "uint256[]",
          "name": "values",
          "type": "uint256[]"
        }
      ],
      "name": "burnBatch",
      "outputs": [],
      "stateMutability": "nonpayable",
      "type": "function"
    },
    {
      "inputs": [
        {
          "internalType": "uint256",
          "name": "id",
          "type": "uint256"
        }
      ],
      "name": "exists",
      "outputs": [
        {
          "internalType": "bool",
          "name": "",
          "type": "bool"
        }
      ],
      "stateMutability": "view",
      "type": "function"
    },
    {
      "inputs": [
        {
          "internalType": "address",
          "name": "account",
          "type": "address"
        },
        {
          "internalType": "address",
          "name": "operator",
          "type": "address"
        }
      ],
      "name": "isApprovedForAll",
      "outputs": [
        {
          "internalType": "bool",
          "name": "",
          "type": "bool"
        }
      ],
      "stateMutability": "view",
      "type": "function"
    },
    {
      "inputs": [
        {
          "internalType": "address",
          "name": "to",
          "type": "address"
        },
        {
          "internalType": "uint256",
          "name": "id",
          "type": "uint256"
        },
        {
          "internalType": "uint256",
          "name": "value",
          "type": "uint256"
        },
        {
          "internalType": "bytes",
          "name": "data",
          "type": "bytes"
        }
      ],
      "name": "mint",
      "outputs": [],
      "stateMutability": "nonpayable",
      "type": "function"
    },
    {
      "inputs": [
        {
          "internalType": "address",
          "name": "to",
          "type": "address"
        },
        {
          "internalType": "uint256[]",
          "name": "ids",
          "type": "uint256[]"
        },
        {
          "internalType": "uint256[]",
          "name": "values",
          "type": "uint256[]"
        },
        {
          "internalType": "bytes",
          "name": "data",
          "type": "bytes"
        }
      ],
      "name": "mintBatch",
      "outputs": [],
      "stateMutability": "nonpayable",
      "type": "function"
    },
    {
      "inputs": [
        {
          "internalType": "address",
          "name": "from",
          "type": "address"
        },
        {
          "internalType": "address",
          "name": "to",
          "type": "address"
        },
        {
          "internalType": "uint256[]",
          "name": "ids",
          "type": "uint256[]"
        },
        {
          "internalType": "uint256[]",
          "name": "amounts",
          "type": "uint256[]"
        },
        {
          "internalType": "bytes",
          "name": "data",
          "type": "bytes"
        }
      ],
      "name": "safeBatchTransferFrom",
      "outputs": [],
      "stateMutability": "nonpayable",
      "type": "function"
    },
    {
      "inputs": [
        {
          "internalType": "address",
          "name": "from",
          "type": "address"
        },
        {
          "internalType": "address",
          "name": "to",
          "type": "address"
        },
        {
          "internalType": "uint256",
          "name": "id",
          "type": "uint256"
        },
        {
          "internalType": "uint256",
          "name": "amount",
          "type": "uint256"
        },
        {
          "internalType": "bytes",
          "name": "data",
          "type": "bytes"
        }
      ],
      "name": "safeTransferFrom",
      "outputs": [],
      "stateMutability": "nonpayable",
      "type": "function"
    },
    {
      "inputs": [
        {
          "internalType": "address",
          "name": "operator",
          "type": "address"
        },
        {
          "internalType": "bool",
          "name": "approved",
          "type": "bool"
        }
      ],
      "name": "setApprovalForAll",
      "outputs": [],
      "stateMutability": "nonpayable",
      "type": "function"
    },
    {
      "inputs": [
        {
          "internalType": "string",
          "name": "newuri",
          "type": "string"
        }
      ],
      "name": "setURI",
      "outputs": [],
      "stateMutability": "nonpayable",
      "type": "function"
    },
    {
      "inputs": [
        {
          "internalType": "bytes4",
          "name": "interfaceId",
          "type": "bytes4"
        }
      ],
      "name": "supportsInterface",
      "outputs": [
        {
          "internalType": "bool",
          "name": "",
          "type": "bool"
        }
      ],
      "stateMutability": "view",
      "type": "function"
    },
    {
      "inputs": [
        {
          "internalType": "uint256",
          "name": "id",
          "type": "uint256"
        }
      ],
      "name": "totalSupply",
      "outputs": [
        {
          "internalType": "uint256",
          "name": "",
          "type": "uint256"
        }
      ],
      "stateMutability": "view",
      "type": "function"
    },
    {
      "inputs": [
        {
          "internalType": "uint256",
          "name": "",
          "type": "uint256"
        }
      ],
      "name": "uri",
      "outputs": [
        {
          "internalType": "string",
          "name": "",
          "type": "string"
        }
      ],
      "stateMutability": "view",
      "type": "function"
    }
  ],
  "bytecode": "0x60806040523480156200001157600080fd5b5060405162003abb38038062003abb8339818101604052810190620000379190620002bc565b80806200004a816200005360201b60201c565b50505062000372565b80600290805190602001906200006b9291906200006f565b5050565b8280546200007d906200033c565b90600052602060002090601f016020900481019282620000a15760008555620000ed565b82601f10620000bc57805160ff1916838001178555620000ed565b82800160010185558215620000ed579182015b82811115620000ec578251825591602001919060010190620000cf565b5b509050620000fc919062000100565b5090565b5b808211156200011b57600081600090555060010162000101565b5090565b6000604051905090565b600080fd5b600080fd5b600080fd5b600080fd5b6000601f19601f8301169050919050565b7f4e487b7100000000000000000000000000000000000000000000000000000000600052604160045260246000fd5b62000188826200013d565b810181811067ffffffffffffffff82111715620001aa57620001a96200014e565b5b80604052505050565b6000620001bf6200011f565b9050620001cd82826200017d565b919050565b600067ffffffffffffffff821115620001f057620001ef6200014e565b5b620001fb826200013d565b9050602081019050919050565b60005b83811015620002285780820151818401526020810190506200020b565b8381111562000238576000848401525b50505050565b6000620002556200024f84620001d2565b620001b3565b90508281526020810184848401111562000274576200027362000138565b5b6200028184828562000208565b509392505050565b600082601f830112620002a157620002a062000133565b5b8151620002b38482602086016200023e565b91505092915050565b600060208284031215620002d557620002d462000129565b5b600082015167ffffffffffffffff811115620002f657620002f56200012e565b5b620003048482850162000289565b91505092915050565b7f4e487b7100000000000000000000000000000000000000000000000000000000600052602260045260246000fd5b600060028204905060018216806200035557607f821691505b602082108114156200036c576200036b6200030d565b5b50919050565b61373980620003826000396000f3fe608060405234801561001057600080fd5b50600436106100f45760003560e01c80634f558e7911610097578063bd85b03911610066578063bd85b03914610291578063e985e9c5146102c1578063f242432a146102f1578063f5298aca1461030d576100f4565b80634f558e791461020d5780636b20c4541461023d578063731133e914610259578063a22cb46514610275576100f4565b80630e89341c116100d35780630e89341c146101755780631f7fdffa146101a55780632eb2c2d6146101c15780634e1273f4146101dd576100f4565b8062fdd58e146100f957806301ffc9a71461012957806302fe530514610159575b600080fd5b610113600480360381019061010e919061203d565b610329565b604051610120919061208c565b60405180910390f35b610143600480360381019061013e91906120ff565b6103f2565b6040516101509190612147565b60405180910390f35b610173600480360381019061016e91906122a8565b6104d4565b005b61018f600480360381019061018a91906122f1565b6104e0565b60405161019c91906123a6565b60405180910390f35b6101bf60048036038101906101ba9190612531565b610574565b005b6101db60048036038101906101d691906125ec565b610586565b005b6101f760048036038101906101f2919061277e565b610627565b60405161020491906128b4565b60405180910390f35b610227600480360381019061022291906122f1565b610740565b6040516102349190612147565b60405180910390f35b610257600480360381019061025291906128d6565b610754565b005b610273600480360381019061026e9190612961565b610764565b005b61028f600480360381019061028a9190612a10565b610776565b005b6102ab60048036038101906102a691906122f1565b61078c565b6040516102b8919061208c565b60405180910390f35b6102db60048036038101906102d69190612a50565b6107a9565b6040516102e89190612147565b60405180910390f35b61030b60048036038101906103069190612a90565b61083d565b005b61032760048036038101906103229190612b27565b6108de565b005b60008073ffffffffffffffffffffffffffffffffffffffff168373ffffffffffffffffffffffffffffffffffffffff16141561039a576040517f08c379a000000000000000000000000000000000000000000000000000000000815260040161039190612bec565b60405180910390fd5b60008083815260200190815260200160002060008473ffffffffffffffffffffffffffffffffffffffff1673ffffffffffffffffffffffffffffffffffffffff16815260200190815260200160002054905092915050565b60007fd9b67a26000000000000000000000000000000000000000000000000000000007bffffffffffffffffffffffffffffffffffffffffffffffffffffffff1916827bffffffffffffffffffffffffffffffffffffffffffffffffffffffff191614806104bd57507f0e89341c000000000000000000000000000000000000000000000000000000007bffffffffffffffffffffffffffffffffffffffffffffffffffffffff1916827bffffffffffffffffffffffffffffffffffffffffffffffffffffffff1916145b806104cd57506104cc826108ee565b5b9050919050565b6104dd81610958565b50565b6060600280546104ef90612c3b565b80601f016020809104026020016040519081016040528092919081815260200182805461051b90612c3b565b80156105685780601f1061053d57610100808354040283529160200191610568565b820191906000526020600020905b81548152906001019060200180831161054b57829003601f168201915b50505050509050919050565b61058084848484610972565b50505050565b61058e610b90565b73ffffffffffffffffffffffffffffffffffffffff168573ffffffffffffffffffffffffffffffffffffffff1614806105d457506105d3856105ce610b90565b6107a9565b5b610613576040517f08c379a000000000000000000000000000000000000000000000000000000000815260040161060a90612cdf565b60405180910390fd5b6106208585858585610b98565b5050505050565b6060815183511461066d576040517f08c379a000000000000000000000000000000000000000000000000000000000815260040161066490612d71565b60405180910390fd5b6000835167ffffffffffffffff81111561068a5761068961217d565b5b6040519080825280602002602001820160405280156106b85781602001602082028036833780820191505090505b50905060005b8451811015610735576107058582815181106106dd576106dc612d91565b5b60200260200101518583815181106106f8576106f7612d91565b5b6020026020010151610329565b82828151811061071857610717612d91565b5b6020026020010181815250508061072e90612def565b90506106be565b508091505092915050565b60008061074c8361078c565b119050919050565b61075f838383610eac565b505050565b6107708484848461115d565b50505050565b610788610781610b90565b83836112f3565b5050565b600060036000838152602001908152602001600020549050919050565b6000600160008473ffffffffffffffffffffffffffffffffffffffff1673ffffffffffffffffffffffffffffffffffffffff16815260200190815260200160002060008373ffffffffffffffffffffffffffffffffffffffff1673ffffffffffffffffffffffffffffffffffffffff16815260200190815260200160002060009054906101000a900460ff16905092915050565b610845610b90565b73ffffffffffffffffffffffffffffffffffffffff168573ffffffffffffffffffffffffffffffffffffffff16148061088b575061088a85610885610b90565b6107a9565b5b6108ca576040517f08c379a00000000000000000000000000000000000000000000000000000000081526004016108c190612eaa565b60405180910390fd5b6108d78585858585611460565b5050505050565b6108e98383836116e2565b505050565b60007f01ffc9a7000000000000000000000000000000000000000000000000000000007bffffffffffffffffffffffffffffffffffffffffffffffffffffffff1916827bffffffffffffffffffffffffffffffffffffffffffffffffffffffff1916149050919050565b806002908051906020019061096e929190611ef2565b5050565b600073ffffffffffffffffffffffffffffffffffffffff168473ffffffffffffffffffffffffffffffffffffffff1614156109e2576040517f08c379a00000000000000000000000000000000000000000000000000000000081526004016109d990612f3c565b60405180910390fd5b8151835114610a26576040517f08c379a0000000000000000000000000000000000000000000000000000000008152600401610a1d90612fce565b60405180910390fd5b6000610a30610b90565b9050610a41816000878787876118ff565b60005b8451811015610afa57838181518110610a6057610a5f612d91565b5b6020026020010151600080878481518110610a7e57610a7d612d91565b5b6020026020010151815260200190815260200160002060008873ffffffffffffffffffffffffffffffffffffffff1673ffffffffffffffffffffffffffffffffffffffff1681526020019081526020016000206000828254610ae09190612fee565b925050819055508080610af290612def565b915050610a44565b508473ffffffffffffffffffffffffffffffffffffffff16600073ffffffffffffffffffffffffffffffffffffffff168273ffffffffffffffffffffffffffffffffffffffff167f4a39dc06d4c0dbc64b70af90fd698a233a518aa5d07e595d983b8c0526c8f7fb8787604051610b72929190613044565b60405180910390a4610b8981600087878787611915565b5050505050565b600033905090565b8151835114610bdc576040517f08c379a0000000000000000000000000000000000000000000000000000000008152600401610bd390612fce565b60405180910390fd5b600073ffffffffffffffffffffffffffffffffffffffff168473ffffffffffffffffffffffffffffffffffffffff161415610c4c576040517f08c379a0000000000000000000000000000000000000000000000000000000008152600401610c43906130ed565b60405180910390fd5b6000610c56610b90565b9050610c668187878787876118ff565b60005b8451811015610e17576000858281518110610c8757610c86612d91565b5b602002602001015190506000858381518110610ca657610ca5612d91565b5b60200260200101519050600080600084815260200190815260200160002060008b73ffffffffffffffffffffffffffffffffffffffff1673ffffffffffffffffffffffffffffffffffffffff16815260200190815260200160002054905081811015610d47576040517f08c379a0000000000000000000000000000000000000000000000000000000008152600401610d3e9061317f565b60405180910390fd5b81810360008085815260200190815260200160002060008c73ffffffffffffffffffffffffffffffffffffffff1673ffffffffffffffffffffffffffffffffffffffff168152602001908152602001600020819055508160008085815260200190815260200160002060008b73ffffffffffffffffffffffffffffffffffffffff1673ffffffffffffffffffffffffffffffffffffffff1681526020019081526020016000206000828254610dfc9190612fee565b9250508190555050505080610e1090612def565b9050610c69565b508473ffffffffffffffffffffffffffffffffffffffff168673ffffffffffffffffffffffffffffffffffffffff168273ffffffffffffffffffffffffffffffffffffffff167f4a39dc06d4c0dbc64b70af90fd698a233a518aa5d07e595d983b8c0526c8f7fb8787604051610e8e929190613044565b60405180910390a4610ea4818787878787611915565b505050505050565b600073ffffffffffffffffffffffffffffffffffffffff168373ffffffffffffffffffffffffffffffffffffffff161415610f1c576040517f08c379a0000000000000000000000000000000000000000000000000000000008152600401610f1390613211565b60405180910390fd5b8051825114610f60576040517f08c379a0000000000000000000000000000000000000000000000000000000008152600401610f5790612fce565b60405180910390fd5b6000610f6a610b90565b9050610f8a818560008686604051806020016040528060008152506118ff565b60005b83518110156110d7576000848281518110610fab57610faa612d91565b5b602002602001015190506000848381518110610fca57610fc9612d91565b5b60200260200101519050600080600084815260200190815260200160002060008973ffffffffffffffffffffffffffffffffffffffff1673ffffffffffffffffffffffffffffffffffffffff1681526020019081526020016000205490508181101561106b576040517f08c379a0000000000000000000000000000000000000000000000000000000008152600401611062906132a3565b60405180910390fd5b81810360008085815260200190815260200160002060008a73ffffffffffffffffffffffffffffffffffffffff1673ffffffffffffffffffffffffffffffffffffffff1681526020019081526020016000208190555050505080806110cf90612def565b915050610f8d565b50600073ffffffffffffffffffffffffffffffffffffffff168473ffffffffffffffffffffffffffffffffffffffff168273ffffffffffffffffffffffffffffffffffffffff167f4a39dc06d4c0dbc64b70af90fd698a233a518aa5d07e595d983b8c0526c8f7fb868660405161114f929190613044565b60405180910390a450505050565b600073ffffffffffffffffffffffffffffffffffffffff168473ffffffffffffffffffffffffffffffffffffffff1614156111cd576040517f08c379a00000000000000000000000000000000000000000000000000000000081526004016111c490612f3c565b60405180910390fd5b60006111d7610b90565b90506111f8816000876111e988611afc565b6111f288611afc565b876118ff565b8260008086815260200190815260200160002060008773ffffffffffffffffffffffffffffffffffffffff1673ffffffffffffffffffffffffffffffffffffffff16815260200190815260200160002060008282546112579190612fee565b925050819055508473ffffffffffffffffffffffffffffffffffffffff16600073ffffffffffffffffffffffffffffffffffffffff168273ffffffffffffffffffffffffffffffffffffffff167fc3d58168c5ae7397731d063d5bbf3d657854427343f4c083240f7aacaa2d0f6287876040516112d59291906132c3565b60405180910390a46112ec81600087878787611b76565b5050505050565b8173ffffffffffffffffffffffffffffffffffffffff168373ffffffffffffffffffffffffffffffffffffffff161415611362576040517f08c379a00000000000000000000000000000000000000000000000000000000081526004016113599061335e565b60405180910390fd5b80600160008573ffffffffffffffffffffffffffffffffffffffff1673ffffffffffffffffffffffffffffffffffffffff16815260200190815260200160002060008473ffffffffffffffffffffffffffffffffffffffff1673ffffffffffffffffffffffffffffffffffffffff16815260200190815260200160002060006101000a81548160ff0219169083151502179055508173ffffffffffffffffffffffffffffffffffffffff168373ffffffffffffffffffffffffffffffffffffffff167f17307eab39ab6107e8899845ad3d59bd9653f200f220920489ca2b5937696c31836040516114539190612147565b60405180910390a3505050565b600073ffffffffffffffffffffffffffffffffffffffff168473ffffffffffffffffffffffffffffffffffffffff1614156114d0576040517f08c379a00000000000000000000000000000000000000000000000000000000081526004016114c7906130ed565b60405180910390fd5b60006114da610b90565b90506114fa8187876114eb88611afc565b6114f488611afc565b876118ff565b600080600086815260200190815260200160002060008873ffffffffffffffffffffffffffffffffffffffff1673ffffffffffffffffffffffffffffffffffffffff16815260200190815260200160002054905083811015611591576040517f08c379a00000000000000000000000000000000000000000000000000000000081526004016115889061317f565b60405180910390fd5b83810360008087815260200190815260200160002060008973ffffffffffffffffffffffffffffffffffffffff1673ffffffffffffffffffffffffffffffffffffffff168152602001908152602001600020819055508360008087815260200190815260200160002060008873ffffffffffffffffffffffffffffffffffffffff1673ffffffffffffffffffffffffffffffffffffffff16815260200190815260200160002060008282546116469190612fee565b925050819055508573ffffffffffffffffffffffffffffffffffffffff168773ffffffffffffffffffffffffffffffffffffffff168373ffffffffffffffffffffffffffffffffffffffff167fc3d58168c5ae7397731d063d5bbf3d657854427343f4c083240f7aacaa2d0f6288886040516116c39291906132c3565b60405180910390a46116d9828888888888611b76565b50505050505050565b600073ffffffffffffffffffffffffffffffffffffffff168373ffffffffffffffffffffffffffffffffffffffff161415611752576040517f08c379a000000000000000000000000000000000000000000000000000000000815260040161174990613211565b60405180910390fd5b600061175c610b90565b905061178c8185600061176e87611afc565b61177787611afc565b604051806020016040528060008152506118ff565b600080600085815260200190815260200160002060008673ffffffffffffffffffffffffffffffffffffffff1673ffffffffffffffffffffffffffffffffffffffff16815260200190815260200160002054905082811015611823576040517f08c379a000000000000000000000000000000000000000000000000000000000815260040161181a906132a3565b60405180910390fd5b82810360008086815260200190815260200160002060008773ffffffffffffffffffffffffffffffffffffffff1673ffffffffffffffffffffffffffffffffffffffff16815260200190815260200160002081905550600073ffffffffffffffffffffffffffffffffffffffff168573ffffffffffffffffffffffffffffffffffffffff168373ffffffffffffffffffffffffffffffffffffffff167fc3d58168c5ae7397731d063d5bbf3d657854427343f4c083240f7aacaa2d0f6287876040516118f09291906132c3565b60405180910390a45050505050565b61190d868686868686611d5d565b505050505050565b6119348473ffffffffffffffffffffffffffffffffffffffff16611ed7565b15611af4578373ffffffffffffffffffffffffffffffffffffffff1663bc197c8187878686866040518663ffffffff1660e01b815260040161197a9594939291906133e2565b602060405180830381600087803b15801561199457600080fd5b505af19250505080156119c557506040513d601f19601f820116820180604052508101906119c2919061345f565b60015b611a6b576119d1613499565b806308c379a01415611a2e57506119e66134bb565b806119f15750611a30565b806040517f08c379a0000000000000000000000000000000000000000000000000000000008152600401611a2591906123a6565b60405180910390fd5b505b6040517f08c379a0000000000000000000000000000000000000000000000000000000008152600401611a62906135c3565b60405180910390fd5b63bc197c8160e01b7bffffffffffffffffffffffffffffffffffffffffffffffffffffffff1916817bffffffffffffffffffffffffffffffffffffffffffffffffffffffff191614611af2576040517f08c379a0000000000000000000000000000000000000000000000000000000008152600401611ae990613655565b60405180910390fd5b505b505050505050565b60606000600167ffffffffffffffff811115611b1b57611b1a61217d565b5b604051908082528060200260200182016040528015611b495781602001602082028036833780820191505090505b5090508281600081518110611b6157611b60612d91565b5b60200260200101818152505080915050919050565b611b958473ffffffffffffffffffffffffffffffffffffffff16611ed7565b15611d55578373ffffffffffffffffffffffffffffffffffffffff1663f23a6e6187878686866040518663ffffffff1660e01b8152600401611bdb959493929190613675565b602060405180830381600087803b158015611bf557600080fd5b505af1925050508015611c2657506040513d601f19601f82011682018060405250810190611c23919061345f565b60015b611ccc57611c32613499565b806308c379a01415611c8f5750611c476134bb565b80611c525750611c91565b806040517f08c379a0000000000000000000000000000000000000000000000000000000008152600401611c8691906123a6565b60405180910390fd5b505b6040517f08c379a0000000000000000000000000000000000000000000000000000000008152600401611cc3906135c3565b60405180910390fd5b63f23a6e6160e01b7bffffffffffffffffffffffffffffffffffffffffffffffffffffffff1916817bffffffffffffffffffffffffffffffffffffffffffffffffffffffff191614611d53576040517f08c379a0000000000000000000000000000000000000000000000000000000008152600401611d4a90613655565b60405180910390fd5b505b505050505050565b611d6b868686868686611eea565b600073ffffffffffffffffffffffffffffffffffffffff168573ffffffffffffffffffffffffffffffffffffffff161415611e1d5760005b8351811015611e1b57828181518110611dbf57611dbe612d91565b5b602002602001015160036000868481518110611dde57611ddd612d91565b5b602002602001015181526020019081526020016000206000828254611e039190612fee565b9250508190555080611e1490612def565b9050611da3565b505b600073ffffffffffffffffffffffffffffffffffffffff168473ffffffffffffffffffffffffffffffffffffffff161415611ecf5760005b8351811015611ecd57828181518110611e7157611e70612d91565b5b602002602001015160036000868481518110611e9057611e8f612d91565b5b602002602001015181526020019081526020016000206000828254611eb591906136cf565b9250508190555080611ec690612def565b9050611e55565b505b505050505050565b600080823b905060008111915050919050565b505050505050565b828054611efe90612c3b565b90600052602060002090601f016020900481019282611f205760008555611f67565b82601f10611f3957805160ff1916838001178555611f67565b82800160010185558215611f67579182015b82811115611f66578251825591602001919060010190611f4b565b5b509050611f749190611f78565b5090565b5b80821115611f91576000816000905550600101611f79565b5090565b6000604051905090565b600080fd5b600080fd5b600073ffffffffffffffffffffffffffffffffffffffff82169050919050565b6000611fd482611fa9565b9050919050565b611fe481611fc9565b8114611fef57600080fd5b50565b60008135905061200181611fdb565b92915050565b6000819050919050565b61201a81612007565b811461202557600080fd5b50565b60008135905061203781612011565b92915050565b6000806040838503121561205457612053611f9f565b5b600061206285828601611ff2565b925050602061207385828601612028565b9150509250929050565b61208681612007565b82525050565b60006020820190506120a1600083018461207d565b92915050565b60007fffffffff0000000000000000000000000000000000000000000000000000000082169050919050565b6120dc816120a7565b81146120e757600080fd5b50565b6000813590506120f9816120d3565b92915050565b60006020828403121561211557612114611f9f565b5b6000612123848285016120ea565b91505092915050565b60008115159050919050565b6121418161212c565b82525050565b600060208201905061215c6000830184612138565b92915050565b600080fd5b600080fd5b6000601f19601f8301169050919050565b7f4e487b7100000000000000000000000000000000000000000000000000000000600052604160045260246000fd5b6121b58261216c565b810181811067ffffffffffffffff821117156121d4576121d361217d565b5b80604052505050565b60006121e7611f95565b90506121f382826121ac565b919050565b600067ffffffffffffffff8211156122135761221261217d565b5b61221c8261216c565b9050602081019050919050565b82818337600083830152505050565b600061224b612246846121f8565b6121dd565b90508281526020810184848401111561226757612266612167565b5b612272848285612229565b509392505050565b600082601f83011261228f5761228e612162565b5b813561229f848260208601612238565b91505092915050565b6000602082840312156122be576122bd611f9f565b5b600082013567ffffffffffffffff8111156122dc576122db611fa4565b5b6122e88482850161227a565b91505092915050565b60006020828403121561230757612306611f9f565b5b600061231584828501612028565b91505092915050565b600081519050919050565b600082825260208201905092915050565b60005b8381101561235857808201518184015260208101905061233d565b83811115612367576000848401525b50505050565b60006123788261231e565b6123828185612329565b935061239281856020860161233a565b61239b8161216c565b840191505092915050565b600060208201905081810360008301526123c0818461236d565b905092915050565b600067ffffffffffffffff8211156123e3576123e261217d565b5b602082029050602081019050919050565b600080fd5b600061240c612407846123c8565b6121dd565b9050808382526020820190506020840283018581111561242f5761242e6123f4565b5b835b8181101561245857806124448882612028565b845260208401935050602081019050612431565b5050509392505050565b600082601f83011261247757612476612162565b5b81356124878482602086016123f9565b91505092915050565b600067ffffffffffffffff8211156124ab576124aa61217d565b5b6124b48261216c565b9050602081019050919050565b60006124d46124cf84612490565b6121dd565b9050828152602081018484840111156124f0576124ef612167565b5b6124fb848285612229565b509392505050565b600082601f83011261251857612517612162565b5b81356125288482602086016124c1565b91505092915050565b6000806000806080858703121561254b5761254a611f9f565b5b600061255987828801611ff2565b945050602085013567ffffffffffffffff81111561257a57612579611fa4565b5b61258687828801612462565b935050604085013567ffffffffffffffff8111156125a7576125a6611fa4565b5b6125b387828801612462565b925050606085013567ffffffffffffffff8111156125d4576125d3611fa4565b5b6125e087828801612503565b91505092959194509250565b600080600080600060a0868803121561260857612607611f9f565b5b600061261688828901611ff2565b955050602061262788828901611ff2565b945050604086013567ffffffffffffffff81111561264857612647611fa4565b5b61265488828901612462565b935050606086013567ffffffffffffffff81111561267557612674611fa4565b5b61268188828901612462565b925050608086013567ffffffffffffffff8111156126a2576126a1611fa4565b5b6126ae88828901612503565b9150509295509295909350565b600067ffffffffffffffff8211156126d6576126d561217d565b5b602082029050602081019050919050565b60006126fa6126f5846126bb565b6121dd565b9050808382526020820190506020840283018581111561271d5761271c6123f4565b5b835b8181101561274657806127328882611ff2565b84526020840193505060208101905061271f565b5050509392505050565b600082601f83011261276557612764612162565b5b81356127758482602086016126e7565b91505092915050565b6000806040838503121561279557612794611f9f565b5b600083013567ffffffffffffffff8111156127b3576127b2611fa4565b5b6127bf85828601612750565b925050602083013567ffffffffffffffff8111156127e0576127df611fa4565b5b6127ec85828601612462565b9150509250929050565b600081519050919050565b600082825260208201905092915050565b6000819050602082019050919050565b61282b81612007565b82525050565b600061283d8383612822565b60208301905092915050565b6000602082019050919050565b6000612861826127f6565b61286b8185612801565b935061287683612812565b8060005b838110156128a757815161288e8882612831565b975061289983612849565b92505060018101905061287a565b5085935050505092915050565b600060208201905081810360008301526128ce8184612856565b905092915050565b6000806000606084860312156128ef576128ee611f9f565b5b60006128fd86828701611ff2565b935050602084013567ffffffffffffffff81111561291e5761291d611fa4565b5b61292a86828701612462565b925050604084013567ffffffffffffffff81111561294b5761294a611fa4565b5b61295786828701612462565b9150509250925092565b6000806000806080858703121561297b5761297a611f9f565b5b600061298987828801611ff2565b945050602061299a87828801612028565b93505060406129ab87828801612028565b925050606085013567ffffffffffffffff8111156129cc576129cb611fa4565b5b6129d887828801612503565b91505092959194509250565b6129ed8161212c565b81146129f857600080fd5b50565b600081359050612a0a816129e4565b92915050565b60008060408385031215612a2757612a26611f9f565b5b6000612a3585828601611ff2565b9250506020612a46858286016129fb565b9150509250929050565b60008060408385031215612a6757612a66611f9f565b5b6000612a7585828601611ff2565b9250506020612a8685828601611ff2565b9150509250929050565b600080600080600060a08688031215612aac57612aab611f9f565b5b6000612aba88828901611ff2565b9550506020612acb88828901611ff2565b9450506040612adc88828901612028565b9350506060612aed88828901612028565b925050608086013567ffffffffffffffff811115612b0e57612b0d611fa4565b5b612b1a88828901612503565b9150509295509295909350565b600080600060608486031215612b4057612b3f611f9f565b5b6000612b4e86828701611ff2565b9350506020612b5f86828701612028565b9250506040612b7086828701612028565b9150509250925092565b7f455243313135353a2062616c616e636520717565727920666f7220746865207a60008201527f65726f2061646472657373000000000000000000000000000000000000000000602082015250565b6000612bd6602b83612329565b9150612be182612b7a565b604082019050919050565b60006020820190508181036000830152612c0581612bc9565b9050919050565b7f4e487b7100000000000000000000000000000000000000000000000000000000600052602260045260246000fd5b60006002820490506001821680612c5357607f821691505b60208210811415612c6757612c66612c0c565b5b50919050565b7f455243313135353a207472616e736665722063616c6c6572206973206e6f742060008201527f6f776e6572206e6f7220617070726f7665640000000000000000000000000000602082015250565b6000612cc9603283612329565b9150612cd482612c6d565b604082019050919050565b60006020820190508181036000830152612cf881612cbc565b9050919050565b7f455243313135353a206163636f756e747320616e6420696473206c656e67746860008201527f206d69736d617463680000000000000000000000000000000000000000000000602082015250565b6000612d5b602983612329565b9150612d6682612cff565b604082019050919050565b60006020820190508181036000830152612d8a81612d4e565b9050919050565b7f4e487b7100000000000000000000000000000000000000000000000000000000600052603260045260246000fd5b7f4e487b7100000000000000000000000000000000000000000000000000000000600052601160045260246000fd5b6000612dfa82612007565b91507fffffffffffffffffffffffffffffffffffffffffffffffffffffffffffffffff821415612e2d57612e2c612dc0565b5b600182019050919050565b7f455243313135353a2063616c6c6572206973206e6f74206f776e6572206e6f7260008201527f20617070726f7665640000000000000000000000000000000000000000000000602082015250565b6000612e94602983612329565b9150612e9f82612e38565b604082019050919050565b60006020820190508181036000830152612ec381612e87565b9050919050565b7f455243313135353a206d696e7420746f20746865207a65726f2061646472657360008201527f7300000000000000000000000000000000000000000000000000000000000000602082015250565b6000612f26602183612329565b9150612f3182612eca565b604082019050919050565b60006020820190508181036000830152612f5581612f19565b9050919050565b7f455243313135353a2069647320616e6420616d6f756e7473206c656e6774682060008201527f6d69736d61746368000000000000000000000000000000000000000000000000602082015250565b6000612fb8602883612329565b9150612fc382612f5c565b604082019050919050565b60006020820190508181036000830152612fe781612fab565b9050919050565b6000612ff982612007565b915061300483612007565b9250827fffffffffffffffffffffffffffffffffffffffffffffffffffffffffffffffff0382111561303957613038612dc0565b5b828201905092915050565b6000604082019050818103600083015261305e8185612856565b905081810360208301526130728184612856565b90509392505050565b7f455243313135353a207472616e7366657220746f20746865207a65726f20616460008201527f6472657373000000000000000000000000000000000000000000000000000000602082015250565b60006130d7602583612329565b91506130e28261307b565b604082019050919050565b60006020820190508181036000830152613106816130ca565b9050919050565b7f455243313135353a20696e73756666696369656e742062616c616e636520666f60008201527f72207472616e7366657200000000000000000000000000000000000000000000602082015250565b6000613169602a83612329565b91506131748261310d565b604082019050919050565b600060208201905081810360008301526131988161315c565b9050919050565b7f455243313135353a206275726e2066726f6d20746865207a65726f206164647260008201527f6573730000000000000000000000000000000000000000000000000000000000602082015250565b60006131fb602383612329565b91506132068261319f565b604082019050919050565b6000602082019050818103600083015261322a816131ee565b9050919050565b7f455243313135353a206275726e20616d6f756e7420657863656564732062616c60008201527f616e636500000000000000000000000000000000000000000000000000000000602082015250565b600061328d602483612329565b915061329882613231565b604082019050919050565b600060208201905081810360008301526132bc81613280565b9050919050565b60006040820190506132d8600083018561207d565b6132e5602083018461207d565b9392505050565b7f455243313135353a2073657474696e6720617070726f76616c2073746174757360008201527f20666f722073656c660000000000000000000000000000000000000000000000602082015250565b6000613348602983612329565b9150613353826132ec565b604082019050919050565b600060208201905081810360008301526133778161333b565b9050919050565b61338781611fc9565b82525050565b600081519050919050565b600082825260208201905092915050565b60006133b48261338d565b6133be8185613398565b93506133ce81856020860161233a565b6133d78161216c565b840191505092915050565b600060a0820190506133f7600083018861337e565b613404602083018761337e565b81810360408301526134168186612856565b9050818103606083015261342a8185612856565b9050818103608083015261343e81846133a9565b90509695505050505050565b600081519050613459816120d3565b92915050565b60006020828403121561347557613474611f9f565b5b60006134838482850161344a565b91505092915050565b60008160e01c9050919050565b600060033d11156134b85760046000803e6134b560005161348c565b90505b90565b600060443d10156134cb5761354e565b6134d3611f95565b60043d036004823e80513d602482011167ffffffffffffffff821117156134fb57505061354e565b808201805167ffffffffffffffff811115613519575050505061354e565b80602083010160043d03850181111561353657505050505061354e565b613545826020018501866121ac565b82955050505050505b90565b7f455243313135353a207472616e7366657220746f206e6f6e204552433131353560008201527f526563656976657220696d706c656d656e746572000000000000000000000000602082015250565b60006135ad603483612329565b91506135b882613551565b604082019050919050565b600060208201905081810360008301526135dc816135a0565b9050919050565b7f455243313135353a204552433131353552656365697665722072656a6563746560008201527f6420746f6b656e73000000000000000000000000000000000000000000000000602082015250565b600061363f602883612329565b915061364a826135e3565b604082019050919050565b6000602082019050818103600083015261366e81613632565b9050919050565b600060a08201905061368a600083018861337e565b613697602083018761337e565b6136a4604083018661207d565b6136b1606083018561207d565b81810360808301526136c381846133a9565b90509695505050505050565b60006136da82612007565b91506136e583612007565b9250828210156136f8576136f7612dc0565b5b82820390509291505056fea2646970667358221220b3f61fc001a2de7c330233d0befe765f1976ea361d9ee524b4ce0d6f76f05ca364736f6c63430008090033",
  "linkReferences": {},
  "deployedLinkReferences": {}
}