{
  "_format": "hh-sol-artifact-1",
  "contractName": "ERC777Mock",
  "sourceName": "contracts/oz/mocks/ERC777Mock.sol",
  "abi": [
    {
      "inputs": [
        {
          "internalType": "address",
          "name": "initialHolder",
          "type": "address"
        },
        {
          "internalType": "uint256",
          "name": "initialBalance",
          "type": "uint256"
        },
        {
          "internalType": "string",
          "name": "name",
          "type": "string"
        },
        {
          "internalType": "string",
          "name": "symbol",
          "type": "string"
        },
        {
          "internalType": "address[]",
          "name": "defaultOperators",
          "type": "address[]"
        }
      ],
      "stateMutability": "nonpayable",
      "type": "constructor"
    },
    {
      "anonymous": false,
      "inputs": [
        {
          "indexed": true,
          "internalType": "address",
          "name": "owner",
          "type": "address"
        },
        {
          "indexed": true,
          "internalType": "address",
          "name": "spender",
          "type": "address"
        },
        {
          "indexed": false,
          "internalType": "uint256",
          "name": "value",
          "type": "uint256"
        }
      ],
      "name": "Approval",
      "type": "event"
    },
    {
      "anonymous": false,
      "inputs": [
        {
          "indexed": true,
          "internalType": "address",
          "name": "operator",
          "type": "address"
        },
        {
          "indexed": true,
          "internalType": "address",
          "name": "tokenHolder",
          "type": "address"
        }
      ],
      "name": "AuthorizedOperator",
      "type": "event"
    },
    {
      "anonymous": false,
      "inputs": [],
      "name": "BeforeTokenTransfer",
      "type": "event"
    },
    {
      "anonymous": false,
      "inputs": [
        {
          "indexed": true,
          "internalType": "address",
          "name": "operator",
          "type": "address"
        },
        {
          "indexed": true,
          "internalType": "address",
          "name": "from",
          "type": "address"
        },
        {
          "indexed": false,
          "internalType": "uint256",
          "name": "amount",
          "type": "uint256"
        },
        {
          "indexed": false,
          "internalType": "bytes",
          "name": "data",
          "type": "bytes"
        },
        {
          "indexed": false,
          "internalType": "bytes",
          "name": "operatorData",
          "type": "bytes"
        }
      ],
      "name": "Burned",
      "type": "event"
    },
    {
      "anonymous": false,
      "inputs": [
        {
          "indexed": true,
          "internalType": "address",
          "name": "operator",
          "type": "address"
        },
        {
          "indexed": true,
          "internalType": "address",
          "name": "to",
          "type": "address"
        },
        {
          "indexed": false,
          "internalType": "uint256",
          "name": "amount",
          "type": "uint256"
        },
        {
          "indexed": false,
          "internalType": "bytes",
          "name": "data",
          "type": "bytes"
        },
        {
          "indexed": false,
          "internalType": "bytes",
          "name": "operatorData",
          "type": "bytes"
        }
      ],
      "name": "Minted",
      "type": "event"
    },
    {
      "anonymous": false,
      "inputs": [
        {
          "indexed": true,
          "internalType": "address",
          "name": "operator",
          "type": "address"
        },
        {
          "indexed": true,
          "internalType": "address",
          "name": "tokenHolder",
          "type": "address"
        }
      ],
      "name": "RevokedOperator",
      "type": "event"
    },
    {
      "anonymous": false,
      "inputs": [
        {
          "indexed": true,
          "internalType": "address",
          "name": "operator",
          "type": "address"
        },
        {
          "indexed": true,
          "internalType": "address",
          "name": "from",
          "type": "address"
        },
        {
          "indexed": true,
          "internalType": "address",
          "name": "to",
          "type": "address"
        },
        {
          "indexed": false,
          "internalType": "uint256",
          "name": "amount",
          "type": "uint256"
        },
        {
          "indexed": false,
          "internalType": "bytes",
          "name": "data",
          "type": "bytes"
        },
        {
          "indexed": false,
          "internalType": "bytes",
          "name": "operatorData",
          "type": "bytes"
        }
      ],
      "name": "Sent",
      "type": "event"
    },
    {
      "anonymous": false,
      "inputs": [
        {
          "indexed": true,
          "internalType": "address",
          "name": "from",
          "type": "address"
        },
        {
          "indexed": true,
          "internalType": "address",
          "name": "to",
          "type": "address"
        },
        {
          "indexed": false,
          "internalType": "uint256",
          "name": "value",
          "type": "uint256"
        }
      ],
      "name": "Transfer",
      "type": "event"
    },
    {
      "inputs": [
        {
          "internalType": "address",
          "name": "holder",
          "type": "address"
        },
        {
          "internalType": "address",
          "name": "spender",
          "type": "address"
        }
      ],
      "name": "allowance",
      "outputs": [
        {
          "internalType": "uint256",
          "name": "",
          "type": "uint256"
        }
      ],
      "stateMutability": "view",
      "type": "function"
    },
    {
      "inputs": [
        {
          "internalType": "address",
          "name": "spender",
          "type": "address"
        },
        {
          "internalType": "uint256",
          "name": "value",
          "type": "uint256"
        }
      ],
      "name": "approve",
      "outputs": [
        {
          "internalType": "bool",
          "name": "",
          "type": "bool"
        }
      ],
      "stateMutability": "nonpayable",
      "type": "function"
    },
    {
      "inputs": [
        {
          "internalType": "address",
          "name": "holder",
          "type": "address"
        },
        {
          "internalType": "address",
          "name": "spender",
          "type": "address"
        },
        {
          "internalType": "uint256",
          "name": "value",
          "type": "uint256"
        }
      ],
      "name": "approveInternal",
      "outputs": [],
      "stateMutability": "nonpayable",
      "type": "function"
    },
    {
      "inputs": [
        {
          "internalType": "address",
          "name": "operator",
          "type": "address"
        }
      ],
      "name": "authorizeOperator",
      "outputs": [],
      "stateMutability": "nonpayable",
      "type": "function"
    },
    {
      "inputs": [
        {
          "internalType": "address",
          "name": "tokenHolder",
          "type": "address"
        }
      ],
      "name": "balanceOf",
      "outputs": [
        {
          "internalType": "uint256",
          "name": "",
          "type": "uint256"
        }
      ],
      "stateMutability": "view",
      "type": "function"
    },
    {
      "inputs": [
        {
          "internalType": "uint256",
          "name": "amount",
          "type": "uint256"
        },
        {
          "internalType": "bytes",
          "name": "data",
          "type": "bytes"
        }
      ],
      "name": "burn",
      "outputs": [],
      "stateMutability": "nonpayable",
      "type": "function"
    },
    {
      "inputs": [],
      "name": "decimals",
      "outputs": [
        {
          "internalType": "uint8",
          "name": "",
          "type": "uint8"
        }
      ],
      "stateMutability": "pure",
      "type": "function"
    },
    {
      "inputs": [],
      "name": "defaultOperators",
      "outputs": [
        {
          "internalType": "address[]",
          "name": "",
          "type": "address[]"
        }
      ],
      "stateMutability": "view",
      "type": "function"
    },
    {
      "inputs": [],
      "name": "granularity",
      "outputs": [
        {
          "internalType": "uint256",
          "name": "",
          "type": "uint256"
        }
      ],
      "stateMutability": "view",
      "type": "function"
    },
    {
      "inputs": [
        {
          "internalType": "address",
          "name": "operator",
          "type": "address"
        },
        {
          "internalType": "address",
          "name": "tokenHolder",
          "type": "address"
        }
      ],
      "name": "isOperatorFor",
      "outputs": [
        {
          "internalType": "bool",
          "name": "",
          "type": "bool"
        }
      ],
      "stateMutability": "view",
      "type": "function"
    },
    {
      "inputs": [
        {
          "internalType": "address",
          "name": "to",
          "type": "address"
        },
        {
          "internalType": "uint256",
          "name": "amount",
          "type": "uint256"
        },
        {
          "internalType": "bytes",
          "name": "userData",
          "type": "bytes"
        },
        {
          "internalType": "bytes",
          "name": "operatorData",
          "type": "bytes"
        }
      ],
      "name": "mintInternal",
      "outputs": [],
      "stateMutability": "nonpayable",
      "type": "function"
    },
    {
      "inputs": [
        {
          "internalType": "address",
          "name": "to",
          "type": "address"
        },
        {
          "internalType": "uint256",
          "name": "amount",
          "type": "uint256"
        },
        {
          "internalType": "bytes",
          "name": "userData",
          "type": "bytes"
        },
        {
          "internalType": "bytes",
          "name": "operatorData",
          "type": "bytes"
        },
        {
          "internalType": "bool",
          "name": "requireReceptionAck",
          "type": "bool"
        }
      ],
      "name": "mintInternalExtended",
      "outputs": [],
      "stateMutability": "nonpayable",
      "type": "function"
    },
    {
      "inputs": [],
      "name": "name",
      "outputs": [
        {
          "internalType": "string",
          "name": "",
          "type": "string"
        }
      ],
      "stateMutability": "view",
      "type": "function"
    },
    {
      "inputs": [
        {
          "internalType": "address",
          "name": "account",
          "type": "address"
        },
        {
          "internalType": "uint256",
          "name": "amount",
          "type": "uint256"
        },
        {
          "internalType": "bytes",
          "name": "data",
          "type": "bytes"
        },
        {
          "internalType": "bytes",
          "name": "operatorData",
          "type": "bytes"
        }
      ],
      "name": "operatorBurn",
      "outputs": [],
      "stateMutability": "nonpayable",
      "type": "function"
    },
    {
      "inputs": [
        {
          "internalType": "address",
          "name": "sender",
          "type": "address"
        },
        {
          "internalType": "address",
          "name": "recipient",
          "type": "address"
        },
        {
          "internalType": "uint256",
          "name": "amount",
          "type": "uint256"
        },
        {
          "internalType": "bytes",
          "name": "data",
          "type": "bytes"
        },
        {
          "internalType": "bytes",
          "name": "operatorData",
          "type": "bytes"
        }
      ],
      "name": "operatorSend",
      "outputs": [],
      "stateMutability": "nonpayable",
      "type": "function"
    },
    {
      "inputs": [
        {
          "internalType": "address",
          "name": "operator",
          "type": "address"
        }
      ],
      "name": "revokeOperator",
      "outputs": [],
      "stateMutability": "nonpayable",
      "type": "function"
    },
    {
      "inputs": [
        {
          "internalType": "address",
          "name": "recipient",
          "type": "address"
        },
        {
          "internalType": "uint256",
          "name": "amount",
          "type": "uint256"
        },
        {
          "internalType": "bytes",
          "name": "data",
          "type": "bytes"
        }
      ],
      "name": "send",
      "outputs": [],
      "stateMutability": "nonpayable",
      "type": "function"
    },
    {
      "inputs": [],
      "name": "symbol",
      "outputs": [
        {
          "internalType": "string",
          "name": "",
          "type": "string"
        }
      ],
      "stateMutability": "view",
      "type": "function"
    },
    {
      "inputs": [],
      "name": "totalSupply",
      "outputs": [
        {
          "internalType": "uint256",
          "name": "",
          "type": "uint256"
        }
      ],
      "stateMutability": "view",
      "type": "function"
    },
    {
      "inputs": [
        {
          "internalType": "address",
          "name": "recipient",
          "type": "address"
        },
        {
          "internalType": "uint256",
          "name": "amount",
          "type": "uint256"
        }
      ],
      "name": "transfer",
      "outputs": [
        {
          "internalType": "bool",
          "name": "",
          "type": "bool"
        }
      ],
      "stateMutability": "nonpayable",
      "type": "function"
    },
    {
      "inputs": [
        {
          "internalType": "address",
          "name": "holder",
          "type": "address"
        },
        {
          "internalType": "address",
          "name": "recipient",
          "type": "address"
        },
        {
          "internalType": "uint256",
          "name": "amount",
          "type": "uint256"
        }
      ],
      "name": "transferFrom",
      "outputs": [
        {
          "internalType": "bool",
          "name": "",
          "type": "bool"
        }
      ],
      "stateMutability": "nonpayable",
      "type": "function"
    }
  ],
  "bytecode": "0x60806040523480156200001157600080fd5b506040516200436a3803806200436a833981810160405281019062000037919062000b6b565b82828282600290805190602001906200005292919062000714565b5081600390805190602001906200006b92919062000714565b50806004908051906020019062000084929190620007a5565b5060005b81518110156200011d57600160056000848481518110620000ae57620000ad62000c50565b5b602002602001015173ffffffffffffffffffffffffffffffffffffffff1673ffffffffffffffffffffffffffffffffffffffff16815260200190815260200160002060006101000a81548160ff0219169083151502179055508080620001149062000cae565b91505062000088565b50731820a4b7618bde71dce8cdc73aab6c95905fad2473ffffffffffffffffffffffffffffffffffffffff166329965a1d307fac7fbab5f54a3ca8194167523c6753bfeb96a445279294b6125b68cce2177054306040518463ffffffff1660e01b8152600401620001919392919062000d28565b600060405180830381600087803b158015620001ac57600080fd5b505af1158015620001c1573d6000803e3d6000fd5b50505050731820a4b7618bde71dce8cdc73aab6c95905fad2473ffffffffffffffffffffffffffffffffffffffff166329965a1d307faea199e31a596269b42cdafd93407f14436db6e4cad65417994c2eb37381e05a306040518463ffffffff1660e01b8152600401620002389392919062000d28565b600060405180830381600087803b1580156200025357600080fd5b505af115801562000268573d6000803e3d6000fd5b50505050505050620002a185856040518060200160405280600081525060405180602001604052806000815250620002ac60201b60201c565b505050505062001118565b620002c2848484846001620002c860201b60201c565b50505050565b600073ffffffffffffffffffffffffffffffffffffffff168573ffffffffffffffffffffffffffffffffffffffff1614156200033b576040517f08c379a0000000000000000000000000000000000000000000000000000000008152600401620003329062000dc6565b60405180910390fd5b60006200034d620004c960201b60201c565b9050620003648160008888620004d160201b60201c565b846001600082825462000378919062000de8565b92505081905550846000808873ffffffffffffffffffffffffffffffffffffffff1673ffffffffffffffffffffffffffffffffffffffff1681526020019081526020016000206000828254620003cf919062000de8565b92505081905550620003ee81600088888888886200050360201b60201c565b8573ffffffffffffffffffffffffffffffffffffffff168173ffffffffffffffffffffffffffffffffffffffff167f2fe5be0146f74c5bce36c0b80911af6c7d86ff27e89d5cfa61fc681327954e5d878787604051620004519392919062000eb3565b60405180910390a38573ffffffffffffffffffffffffffffffffffffffff16600073ffffffffffffffffffffffffffffffffffffffff167fddf252ad1be2c89b69c2b068fc378daa952ba7f163c4a11628f55a4df523b3ef87604051620004b9919062000efe565b60405180910390a3505050505050565b600033905090565b7f52316ab8e8b0687ce803e403dfe429541bccd4f6c4683ec65d254d382f15a26560405160405180910390a150505050565b6000731820a4b7618bde71dce8cdc73aab6c95905fad2473ffffffffffffffffffffffffffffffffffffffff1663aabbb8ca877fb281fc8c12954d22544db45de3159a39272895b169a852b314f9cc762e44c53b6040518363ffffffff1660e01b81526004016200057692919062000f1b565b60206040518083038186803b1580156200058f57600080fd5b505afa158015620005a4573d6000803e3d6000fd5b505050506040513d601f19601f82011682018060405250810190620005ca919062000f48565b9050600073ffffffffffffffffffffffffffffffffffffffff168173ffffffffffffffffffffffffffffffffffffffff16146200067f578073ffffffffffffffffffffffffffffffffffffffff166223de298989898989896040518763ffffffff1660e01b8152600401620006459695949392919062000f7a565b600060405180830381600087803b1580156200066057600080fd5b505af115801562000675573d6000803e3d6000fd5b50505050620006f7565b8115620006f657620006b28673ffffffffffffffffffffffffffffffffffffffff166200070160201b620011f51760201c565b15620006f5576040517f08c379a0000000000000000000000000000000000000000000000000000000008152600401620006ec9062001091565b60405180910390fd5b5b5b5050505050505050565b600080823b905060008111915050919050565b8280546200072290620010e2565b90600052602060002090601f01602090048101928262000746576000855562000792565b82601f106200076157805160ff191683800117855562000792565b8280016001018555821562000792579182015b828111156200079157825182559160200191906001019062000774565b5b509050620007a1919062000834565b5090565b82805482825590600052602060002090810192821562000821579160200282015b82811115620008205782518260006101000a81548173ffffffffffffffffffffffffffffffffffffffff021916908373ffffffffffffffffffffffffffffffffffffffff16021790555091602001919060010190620007c6565b5b50905062000830919062000834565b5090565b5b808211156200084f57600081600090555060010162000835565b5090565b6000604051905090565b600080fd5b600080fd5b600073ffffffffffffffffffffffffffffffffffffffff82169050919050565b6000620008948262000867565b9050919050565b620008a68162000887565b8114620008b257600080fd5b50565b600081519050620008c6816200089b565b92915050565b6000819050919050565b620008e181620008cc565b8114620008ed57600080fd5b50565b6000815190506200090181620008d6565b92915050565b600080fd5b600080fd5b6000601f19601f8301169050919050565b7f4e487b7100000000000000000000000000000000000000000000000000000000600052604160045260246000fd5b6200095c8262000911565b810181811067ffffffffffffffff821117156200097e576200097d62000922565b5b80604052505050565b60006200099362000853565b9050620009a1828262000951565b919050565b600067ffffffffffffffff821115620009c457620009c362000922565b5b620009cf8262000911565b9050602081019050919050565b60005b83811015620009fc578082015181840152602081019050620009df565b8381111562000a0c576000848401525b50505050565b600062000a2962000a2384620009a6565b62000987565b90508281526020810184848401111562000a485762000a476200090c565b5b62000a55848285620009dc565b509392505050565b600082601f83011262000a755762000a7462000907565b5b815162000a8784826020860162000a12565b91505092915050565b600067ffffffffffffffff82111562000aae5762000aad62000922565b5b602082029050602081019050919050565b600080fd5b600062000adb62000ad58462000a90565b62000987565b9050808382526020820190506020840283018581111562000b015762000b0062000abf565b5b835b8181101562000b2e578062000b198882620008b5565b84526020840193505060208101905062000b03565b5050509392505050565b600082601f83011262000b505762000b4f62000907565b5b815162000b6284826020860162000ac4565b91505092915050565b600080600080600060a0868803121562000b8a5762000b896200085d565b5b600062000b9a88828901620008b5565b955050602062000bad88828901620008f0565b945050604086015167ffffffffffffffff81111562000bd15762000bd062000862565b5b62000bdf8882890162000a5d565b935050606086015167ffffffffffffffff81111562000c035762000c0262000862565b5b62000c118882890162000a5d565b925050608086015167ffffffffffffffff81111562000c355762000c3462000862565b5b62000c438882890162000b38565b9150509295509295909350565b7f4e487b7100000000000000000000000000000000000000000000000000000000600052603260045260246000fd5b7f4e487b7100000000000000000000000000000000000000000000000000000000600052601160045260246000fd5b600062000cbb82620008cc565b91507fffffffffffffffffffffffffffffffffffffffffffffffffffffffffffffffff82141562000cf15762000cf062000c7f565b5b600182019050919050565b62000d078162000887565b82525050565b6000819050919050565b62000d228162000d0d565b82525050565b600060608201905062000d3f600083018662000cfc565b62000d4e602083018562000d17565b62000d5d604083018462000cfc565b949350505050565b600082825260208201905092915050565b7f4552433737373a206d696e7420746f20746865207a65726f2061646472657373600082015250565b600062000dae60208362000d65565b915062000dbb8262000d76565b602082019050919050565b6000602082019050818103600083015262000de18162000d9f565b9050919050565b600062000df582620008cc565b915062000e0283620008cc565b9250827fffffffffffffffffffffffffffffffffffffffffffffffffffffffffffffffff0382111562000e3a5762000e3962000c7f565b5b828201905092915050565b62000e5081620008cc565b82525050565b600081519050919050565b600082825260208201905092915050565b600062000e7f8262000e56565b62000e8b818562000e61565b935062000e9d818560208601620009dc565b62000ea88162000911565b840191505092915050565b600060608201905062000eca600083018662000e45565b818103602083015262000ede818562000e72565b9050818103604083015262000ef4818462000e72565b9050949350505050565b600060208201905062000f15600083018462000e45565b92915050565b600060408201905062000f32600083018562000cfc565b62000f41602083018462000d17565b9392505050565b60006020828403121562000f615762000f606200085d565b5b600062000f7184828501620008b5565b91505092915050565b600060c08201905062000f91600083018962000cfc565b62000fa0602083018862000cfc565b62000faf604083018762000cfc565b62000fbe606083018662000e45565b818103608083015262000fd2818562000e72565b905081810360a083015262000fe8818462000e72565b9050979650505050505050565b7f4552433737373a20746f6b656e20726563697069656e7420636f6e747261637460008201527f20686173206e6f20696d706c656d656e74657220666f7220455243373737546f60208201527f6b656e73526563697069656e7400000000000000000000000000000000000000604082015250565b600062001079604d8362000d65565b9150620010868262000ff5565b606082019050919050565b60006020820190508181036000830152620010ac816200106a565b9050919050565b7f4e487b7100000000000000000000000000000000000000000000000000000000600052602260045260246000fd5b60006002820490506001821680620010fb57607f821691505b60208210811415620011125762001111620010b3565b5b50919050565b61324280620011286000396000f3fe608060405234801561001057600080fd5b50600436106101375760003560e01c8063959b8c3f116100b8578063cfbfab0b1161007c578063cfbfab0b1461033c578063d95b637114610358578063dd62ed3e14610388578063fad8b32a146103b8578063fc673c4f146103d4578063fe9d9303146103f057610137565b8063959b8c3f1461029a57806395d89b41146102b65780639bd9bbc6146102d4578063a9059cbb146102f0578063b1f0b5be1461032057610137565b8063313ce567116100ff578063313ce567146101f6578063556f0dc71461021457806356189cb41461023257806362ad1b831461024e57806370a082311461026a57610137565b806306e485381461013c57806306fdde031461015a578063095ea7b31461017857806318160ddd146101a857806323b872dd146101c6575b600080fd5b61014461040c565b6040516101519190611fd3565b60405180910390f35b61016261049a565b60405161016f919061208e565b60405180910390f35b610192600480360381019061018d9190612126565b61052c565b60405161019f9190612181565b60405180910390f35b6101b061054f565b6040516101bd91906121ab565b60405180910390f35b6101e060048036038101906101db91906121c6565b610559565b6040516101ed9190612181565b60405180910390f35b6101fe6107b3565b60405161020b9190612235565b60405180910390f35b61021c6107bc565b60405161022991906121ab565b60405180910390f35b61024c600480360381019061024791906121c6565b6107c5565b005b61026860048036038101906102639190612385565b6107d5565b005b610284600480360381019061027f9190612438565b61083b565b60405161029191906121ab565b60405180910390f35b6102b460048036038101906102af9190612438565b610883565b005b6102be610ae4565b6040516102cb919061208e565b60405180910390f35b6102ee60048036038101906102e99190612465565b610b76565b005b61030a60048036038101906103059190612126565b610ba0565b6040516103179190612181565b60405180910390f35b61033a600480360381019061033591906124d4565b610cae565b005b6103566004803603810190610351919061259f565b610cc0565b005b610372600480360381019061036d9190612652565b610cd4565b60405161037f9190612181565b60405180910390f35b6103a2600480360381019061039d9190612652565b610e85565b6040516103af91906121ab565b60405180910390f35b6103d260048036038101906103cd9190612438565b610f0c565b005b6103ee60048036038101906103e991906124d4565b61116d565b005b61040a60048036038101906104059190612692565b6111cf565b005b6060600480548060200260200160405190810160405280929190818152602001828054801561049057602002820191906000526020600020905b8160009054906101000a900473ffffffffffffffffffffffffffffffffffffffff1673ffffffffffffffffffffffffffffffffffffffff1681526020019060010190808311610446575b5050505050905090565b6060600280546104a99061271d565b80601f01602080910402602001604051908101604052809291908181526020018280546104d59061271d565b80156105225780601f106104f757610100808354040283529160200191610522565b820191906000526020600020905b81548152906001019060200180831161050557829003601f168201915b5050505050905090565b600080610537611208565b9050610544818585611210565b600191505092915050565b6000600154905090565b60008073ffffffffffffffffffffffffffffffffffffffff168373ffffffffffffffffffffffffffffffffffffffff1614156105ca576040517f08c379a00000000000000000000000000000000000000000000000000000000081526004016105c1906127c1565b60405180910390fd5b600073ffffffffffffffffffffffffffffffffffffffff168473ffffffffffffffffffffffffffffffffffffffff16141561063a576040517f08c379a000000000000000000000000000000000000000000000000000000000815260040161063190612853565b60405180910390fd5b6000610644611208565b90506106728186868660405180602001604052806000815250604051806020016040528060008152506113db565b61069e818686866040518060200160405280600081525060405180602001604052806000815250611551565b6000600860008773ffffffffffffffffffffffffffffffffffffffff1673ffffffffffffffffffffffffffffffffffffffff16815260200190815260200160002060008373ffffffffffffffffffffffffffffffffffffffff1673ffffffffffffffffffffffffffffffffffffffff16815260200190815260200160002054905083811015610762576040517f08c379a0000000000000000000000000000000000000000000000000000000008152600401610759906128e5565b60405180910390fd5b610778868386846107739190612934565b611210565b6107a6828787876040518060200160405280600081525060405180602001604052806000815250600061176b565b6001925050509392505050565b60006012905090565b60006001905090565b6107d0838383611210565b505050565b6107e66107e0611208565b86610cd4565b610825576040517f08c379a000000000000000000000000000000000000000000000000000000000815260040161081c906129da565b60405180910390fd5b6108348585858585600161194c565b5050505050565b60008060008373ffffffffffffffffffffffffffffffffffffffff1673ffffffffffffffffffffffffffffffffffffffff168152602001908152602001600020549050919050565b8073ffffffffffffffffffffffffffffffffffffffff166108a2611208565b73ffffffffffffffffffffffffffffffffffffffff1614156108f9576040517f08c379a00000000000000000000000000000000000000000000000000000000081526004016108f090612a6c565b60405180910390fd5b600560008273ffffffffffffffffffffffffffffffffffffffff1673ffffffffffffffffffffffffffffffffffffffff16815260200190815260200160002060009054906101000a900460ff16156109e35760076000610957611208565b73ffffffffffffffffffffffffffffffffffffffff1673ffffffffffffffffffffffffffffffffffffffff16815260200190815260200160002060008273ffffffffffffffffffffffffffffffffffffffff1673ffffffffffffffffffffffffffffffffffffffff16815260200190815260200160002060006101000a81549060ff0219169055610a80565b6001600660006109f1611208565b73ffffffffffffffffffffffffffffffffffffffff1673ffffffffffffffffffffffffffffffffffffffff16815260200190815260200160002060008373ffffffffffffffffffffffffffffffffffffffff1673ffffffffffffffffffffffffffffffffffffffff16815260200190815260200160002060006101000a81548160ff0219169083151502179055505b610a88611208565b73ffffffffffffffffffffffffffffffffffffffff168173ffffffffffffffffffffffffffffffffffffffff167ff4caeb2d6ca8932a215a353d0703c326ec2d81fc68170f320eb2ab49e9df61f960405160405180910390a350565b606060038054610af39061271d565b80601f0160208091040260200160405190810160405280929190818152602001828054610b1f9061271d565b8015610b6c5780601f10610b4157610100808354040283529160200191610b6c565b820191906000526020600020905b815481529060010190602001808311610b4f57829003601f168201915b5050505050905090565b610b9b610b81611208565b84848460405180602001604052806000815250600161194c565b505050565b60008073ffffffffffffffffffffffffffffffffffffffff168373ffffffffffffffffffffffffffffffffffffffff161415610c11576040517f08c379a0000000000000000000000000000000000000000000000000000000008152600401610c08906127c1565b60405180910390fd5b6000610c1b611208565b9050610c498182868660405180602001604052806000815250604051806020016040528060008152506113db565b610c75818286866040518060200160405280600081525060405180602001604052806000815250611551565b610ca3818286866040518060200160405280600081525060405180602001604052806000815250600061176b565b600191505092915050565b610cba84848484611a6c565b50505050565b610ccd8585858585611a80565b5050505050565b60008173ffffffffffffffffffffffffffffffffffffffff168373ffffffffffffffffffffffffffffffffffffffff161480610dec5750600560008473ffffffffffffffffffffffffffffffffffffffff1673ffffffffffffffffffffffffffffffffffffffff16815260200190815260200160002060009054906101000a900460ff168015610deb5750600760008373ffffffffffffffffffffffffffffffffffffffff1673ffffffffffffffffffffffffffffffffffffffff16815260200190815260200160002060008473ffffffffffffffffffffffffffffffffffffffff1673ffffffffffffffffffffffffffffffffffffffff16815260200190815260200160002060009054906101000a900460ff16155b5b80610e7d5750600660008373ffffffffffffffffffffffffffffffffffffffff1673ffffffffffffffffffffffffffffffffffffffff16815260200190815260200160002060008473ffffffffffffffffffffffffffffffffffffffff1673ffffffffffffffffffffffffffffffffffffffff16815260200190815260200160002060009054906101000a900460ff165b905092915050565b6000600860008473ffffffffffffffffffffffffffffffffffffffff1673ffffffffffffffffffffffffffffffffffffffff16815260200190815260200160002060008373ffffffffffffffffffffffffffffffffffffffff1673ffffffffffffffffffffffffffffffffffffffff16815260200190815260200160002054905092915050565b610f14611208565b73ffffffffffffffffffffffffffffffffffffffff168173ffffffffffffffffffffffffffffffffffffffff161415610f82576040517f08c379a0000000000000000000000000000000000000000000000000000000008152600401610f7990612afe565b60405180910390fd5b600560008273ffffffffffffffffffffffffffffffffffffffff1673ffffffffffffffffffffffffffffffffffffffff16815260200190815260200160002060009054906101000a900460ff161561107557600160076000610fe2611208565b73ffffffffffffffffffffffffffffffffffffffff1673ffffffffffffffffffffffffffffffffffffffff16815260200190815260200160002060008373ffffffffffffffffffffffffffffffffffffffff1673ffffffffffffffffffffffffffffffffffffffff16815260200190815260200160002060006101000a81548160ff021916908315150217905550611109565b60066000611081611208565b73ffffffffffffffffffffffffffffffffffffffff1673ffffffffffffffffffffffffffffffffffffffff16815260200190815260200160002060008273ffffffffffffffffffffffffffffffffffffffff1673ffffffffffffffffffffffffffffffffffffffff16815260200190815260200160002060006101000a81549060ff02191690555b611111611208565b73ffffffffffffffffffffffffffffffffffffffff168173ffffffffffffffffffffffffffffffffffffffff167f50546e66e5f44d728365dc3908c63bc5cfeeab470722c1677e3073a6ac294aa160405160405180910390a350565b61117e611178611208565b85610cd4565b6111bd576040517f08c379a00000000000000000000000000000000000000000000000000000000081526004016111b4906129da565b60405180910390fd5b6111c984848484611c5e565b50505050565b6111f16111da611208565b838360405180602001604052806000815250611c5e565b5050565b600080823b905060008111915050919050565b600033905090565b600073ffffffffffffffffffffffffffffffffffffffff168373ffffffffffffffffffffffffffffffffffffffff161415611280576040517f08c379a000000000000000000000000000000000000000000000000000000000815260040161127790612b90565b60405180910390fd5b600073ffffffffffffffffffffffffffffffffffffffff168273ffffffffffffffffffffffffffffffffffffffff1614156112f0576040517f08c379a00000000000000000000000000000000000000000000000000000000081526004016112e790612c22565b60405180910390fd5b80600860008573ffffffffffffffffffffffffffffffffffffffff1673ffffffffffffffffffffffffffffffffffffffff16815260200190815260200160002060008473ffffffffffffffffffffffffffffffffffffffff1673ffffffffffffffffffffffffffffffffffffffff168152602001908152602001600020819055508173ffffffffffffffffffffffffffffffffffffffff168373ffffffffffffffffffffffffffffffffffffffff167f8c5be1e5ebec7d5bd14f71427d1e84f3dd0314c0f7b2291e5b200ac8c7c3b925836040516113ce91906121ab565b60405180910390a3505050565b6000731820a4b7618bde71dce8cdc73aab6c95905fad2473ffffffffffffffffffffffffffffffffffffffff1663aabbb8ca877f29ddb589b1fb5fc7cf394961c1adf5f8c6454761adf795e67fe149f658abe8956040518363ffffffff1660e01b815260040161144c929190612c6a565b60206040518083038186803b15801561146457600080fd5b505afa158015611478573d6000803e3d6000fd5b505050506040513d601f19601f8201168201806040525081019061149c9190612ca8565b9050600073ffffffffffffffffffffffffffffffffffffffff168173ffffffffffffffffffffffffffffffffffffffff1614611548578073ffffffffffffffffffffffffffffffffffffffff166375ab97828888888888886040518763ffffffff1660e01b815260040161151596959493929190612d2a565b600060405180830381600087803b15801561152f57600080fd5b505af1158015611543573d6000803e3d6000fd5b505050505b50505050505050565b61155d86868686611eb1565b60008060008773ffffffffffffffffffffffffffffffffffffffff1673ffffffffffffffffffffffffffffffffffffffff168152602001908152602001600020549050838110156115e3576040517f08c379a00000000000000000000000000000000000000000000000000000000081526004016115da90612e0b565b60405180910390fd5b8381036000808873ffffffffffffffffffffffffffffffffffffffff1673ffffffffffffffffffffffffffffffffffffffff16815260200190815260200160002081905550836000808773ffffffffffffffffffffffffffffffffffffffff1673ffffffffffffffffffffffffffffffffffffffff16815260200190815260200160002060008282546116769190612e2b565b925050819055508473ffffffffffffffffffffffffffffffffffffffff168673ffffffffffffffffffffffffffffffffffffffff168873ffffffffffffffffffffffffffffffffffffffff167f06b541ddaa720db2b10a4d0cdac39b8d360425fc073085fac19bc826146779878787876040516116f593929190612e81565b60405180910390a48473ffffffffffffffffffffffffffffffffffffffff168673ffffffffffffffffffffffffffffffffffffffff167fddf252ad1be2c89b69c2b068fc378daa952ba7f163c4a11628f55a4df523b3ef8660405161175a91906121ab565b60405180910390a350505050505050565b6000731820a4b7618bde71dce8cdc73aab6c95905fad2473ffffffffffffffffffffffffffffffffffffffff1663aabbb8ca877fb281fc8c12954d22544db45de3159a39272895b169a852b314f9cc762e44c53b6040518363ffffffff1660e01b81526004016117dc929190612c6a565b60206040518083038186803b1580156117f457600080fd5b505afa158015611808573d6000803e3d6000fd5b505050506040513d601f19601f8201168201806040525081019061182c9190612ca8565b9050600073ffffffffffffffffffffffffffffffffffffffff168173ffffffffffffffffffffffffffffffffffffffff16146118db578073ffffffffffffffffffffffffffffffffffffffff166223de298989898989896040518763ffffffff1660e01b81526004016118a496959493929190612d2a565b600060405180830381600087803b1580156118be57600080fd5b505af11580156118d2573d6000803e3d6000fd5b50505050611942565b8115611941576119008673ffffffffffffffffffffffffffffffffffffffff166111f5565b15611940576040517f08c379a000000000000000000000000000000000000000000000000000000000815260040161193790612f5e565b60405180910390fd5b5b5b5050505050505050565b600073ffffffffffffffffffffffffffffffffffffffff168673ffffffffffffffffffffffffffffffffffffffff1614156119bc576040517f08c379a00000000000000000000000000000000000000000000000000000000081526004016119b390612ff0565b60405180910390fd5b600073ffffffffffffffffffffffffffffffffffffffff168573ffffffffffffffffffffffffffffffffffffffff161415611a2c576040517f08c379a0000000000000000000000000000000000000000000000000000000008152600401611a239061305c565b60405180910390fd5b6000611a36611208565b9050611a468188888888886113db565b611a54818888888888611551565b611a638188888888888861176b565b50505050505050565b611a7a848484846001611a80565b50505050565b600073ffffffffffffffffffffffffffffffffffffffff168573ffffffffffffffffffffffffffffffffffffffff161415611af0576040517f08c379a0000000000000000000000000000000000000000000000000000000008152600401611ae7906130c8565b60405180910390fd5b6000611afa611208565b9050611b098160008888611eb1565b8460016000828254611b1b9190612e2b565b92505081905550846000808873ffffffffffffffffffffffffffffffffffffffff1673ffffffffffffffffffffffffffffffffffffffff1681526020019081526020016000206000828254611b709190612e2b565b92505081905550611b87816000888888888861176b565b8573ffffffffffffffffffffffffffffffffffffffff168173ffffffffffffffffffffffffffffffffffffffff167f2fe5be0146f74c5bce36c0b80911af6c7d86ff27e89d5cfa61fc681327954e5d878787604051611be893929190612e81565b60405180910390a38573ffffffffffffffffffffffffffffffffffffffff16600073ffffffffffffffffffffffffffffffffffffffff167fddf252ad1be2c89b69c2b068fc378daa952ba7f163c4a11628f55a4df523b3ef87604051611c4e91906121ab565b60405180910390a3505050505050565b600073ffffffffffffffffffffffffffffffffffffffff168473ffffffffffffffffffffffffffffffffffffffff161415611cce576040517f08c379a0000000000000000000000000000000000000000000000000000000008152600401611cc59061315a565b60405180910390fd5b6000611cd8611208565b9050611ce9818660008787876113db565b611cf68186600087611eb1565b60008060008773ffffffffffffffffffffffffffffffffffffffff1673ffffffffffffffffffffffffffffffffffffffff16815260200190815260200160002054905084811015611d7c576040517f08c379a0000000000000000000000000000000000000000000000000000000008152600401611d73906131ec565b60405180910390fd5b8481036000808873ffffffffffffffffffffffffffffffffffffffff1673ffffffffffffffffffffffffffffffffffffffff168152602001908152602001600020819055508460016000828254611dd39190612934565b925050819055508573ffffffffffffffffffffffffffffffffffffffff168273ffffffffffffffffffffffffffffffffffffffff167fa78a9be3a7b862d26933ad85fb11d80ef66b8f972d7cbba06621d583943a4098878787604051611e3b93929190612e81565b60405180910390a3600073ffffffffffffffffffffffffffffffffffffffff168673ffffffffffffffffffffffffffffffffffffffff167fddf252ad1be2c89b69c2b068fc378daa952ba7f163c4a11628f55a4df523b3ef87604051611ea191906121ab565b60405180910390a3505050505050565b7f52316ab8e8b0687ce803e403dfe429541bccd4f6c4683ec65d254d382f15a26560405160405180910390a150505050565b600081519050919050565b600082825260208201905092915050565b6000819050602082019050919050565b600073ffffffffffffffffffffffffffffffffffffffff82169050919050565b6000611f3a82611f0f565b9050919050565b611f4a81611f2f565b82525050565b6000611f5c8383611f41565b60208301905092915050565b6000602082019050919050565b6000611f8082611ee3565b611f8a8185611eee565b9350611f9583611eff565b8060005b83811015611fc6578151611fad8882611f50565b9750611fb883611f68565b925050600181019050611f99565b5085935050505092915050565b60006020820190508181036000830152611fed8184611f75565b905092915050565b600081519050919050565b600082825260208201905092915050565b60005b8381101561202f578082015181840152602081019050612014565b8381111561203e576000848401525b50505050565b6000601f19601f8301169050919050565b600061206082611ff5565b61206a8185612000565b935061207a818560208601612011565b61208381612044565b840191505092915050565b600060208201905081810360008301526120a88184612055565b905092915050565b6000604051905090565b600080fd5b600080fd5b6120cd81611f2f565b81146120d857600080fd5b50565b6000813590506120ea816120c4565b92915050565b6000819050919050565b612103816120f0565b811461210e57600080fd5b50565b600081359050612120816120fa565b92915050565b6000806040838503121561213d5761213c6120ba565b5b600061214b858286016120db565b925050602061215c85828601612111565b9150509250929050565b60008115159050919050565b61217b81612166565b82525050565b60006020820190506121966000830184612172565b92915050565b6121a5816120f0565b82525050565b60006020820190506121c0600083018461219c565b92915050565b6000806000606084860312156121df576121de6120ba565b5b60006121ed868287016120db565b93505060206121fe868287016120db565b925050604061220f86828701612111565b9150509250925092565b600060ff82169050919050565b61222f81612219565b82525050565b600060208201905061224a6000830184612226565b92915050565b600080fd5b600080fd5b7f4e487b7100000000000000000000000000000000000000000000000000000000600052604160045260246000fd5b61229282612044565b810181811067ffffffffffffffff821117156122b1576122b061225a565b5b80604052505050565b60006122c46120b0565b90506122d08282612289565b919050565b600067ffffffffffffffff8211156122f0576122ef61225a565b5b6122f982612044565b9050602081019050919050565b82818337600083830152505050565b6000612328612323846122d5565b6122ba565b90508281526020810184848401111561234457612343612255565b5b61234f848285612306565b509392505050565b600082601f83011261236c5761236b612250565b5b813561237c848260208601612315565b91505092915050565b600080600080600060a086880312156123a1576123a06120ba565b5b60006123af888289016120db565b95505060206123c0888289016120db565b94505060406123d188828901612111565b935050606086013567ffffffffffffffff8111156123f2576123f16120bf565b5b6123fe88828901612357565b925050608086013567ffffffffffffffff81111561241f5761241e6120bf565b5b61242b88828901612357565b9150509295509295909350565b60006020828403121561244e5761244d6120ba565b5b600061245c848285016120db565b91505092915050565b60008060006060848603121561247e5761247d6120ba565b5b600061248c868287016120db565b935050602061249d86828701612111565b925050604084013567ffffffffffffffff8111156124be576124bd6120bf565b5b6124ca86828701612357565b9150509250925092565b600080600080608085870312156124ee576124ed6120ba565b5b60006124fc878288016120db565b945050602061250d87828801612111565b935050604085013567ffffffffffffffff81111561252e5761252d6120bf565b5b61253a87828801612357565b925050606085013567ffffffffffffffff81111561255b5761255a6120bf565b5b61256787828801612357565b91505092959194509250565b61257c81612166565b811461258757600080fd5b50565b60008135905061259981612573565b92915050565b600080600080600060a086880312156125bb576125ba6120ba565b5b60006125c9888289016120db565b95505060206125da88828901612111565b945050604086013567ffffffffffffffff8111156125fb576125fa6120bf565b5b61260788828901612357565b935050606086013567ffffffffffffffff811115612628576126276120bf565b5b61263488828901612357565b92505060806126458882890161258a565b9150509295509295909350565b60008060408385031215612669576126686120ba565b5b6000612677858286016120db565b9250506020612688858286016120db565b9150509250929050565b600080604083850312156126a9576126a86120ba565b5b60006126b785828601612111565b925050602083013567ffffffffffffffff8111156126d8576126d76120bf565b5b6126e485828601612357565b9150509250929050565b7f4e487b7100000000000000000000000000000000000000000000000000000000600052602260045260246000fd5b6000600282049050600182168061273557607f821691505b60208210811415612749576127486126ee565b5b50919050565b7f4552433737373a207472616e7366657220746f20746865207a65726f2061646460008201527f7265737300000000000000000000000000000000000000000000000000000000602082015250565b60006127ab602483612000565b91506127b68261274f565b604082019050919050565b600060208201905081810360008301526127da8161279e565b9050919050565b7f4552433737373a207472616e736665722066726f6d20746865207a65726f206160008201527f6464726573730000000000000000000000000000000000000000000000000000602082015250565b600061283d602683612000565b9150612848826127e1565b604082019050919050565b6000602082019050818103600083015261286c81612830565b9050919050565b7f4552433737373a207472616e7366657220616d6f756e7420657863656564732060008201527f616c6c6f77616e63650000000000000000000000000000000000000000000000602082015250565b60006128cf602983612000565b91506128da82612873565b604082019050919050565b600060208201905081810360008301526128fe816128c2565b9050919050565b7f4e487b7100000000000000000000000000000000000000000000000000000000600052601160045260246000fd5b600061293f826120f0565b915061294a836120f0565b92508282101561295d5761295c612905565b5b828203905092915050565b7f4552433737373a2063616c6c6572206973206e6f7420616e206f70657261746f60008201527f7220666f7220686f6c6465720000000000000000000000000000000000000000602082015250565b60006129c4602c83612000565b91506129cf82612968565b604082019050919050565b600060208201905081810360008301526129f3816129b7565b9050919050565b7f4552433737373a20617574686f72697a696e672073656c66206173206f70657260008201527f61746f7200000000000000000000000000000000000000000000000000000000602082015250565b6000612a56602483612000565b9150612a61826129fa565b604082019050919050565b60006020820190508181036000830152612a8581612a49565b9050919050565b7f4552433737373a207265766f6b696e672073656c66206173206f70657261746f60008201527f7200000000000000000000000000000000000000000000000000000000000000602082015250565b6000612ae8602183612000565b9150612af382612a8c565b604082019050919050565b60006020820190508181036000830152612b1781612adb565b9050919050565b7f4552433737373a20617070726f76652066726f6d20746865207a65726f20616460008201527f6472657373000000000000000000000000000000000000000000000000000000602082015250565b6000612b7a602583612000565b9150612b8582612b1e565b604082019050919050565b60006020820190508181036000830152612ba981612b6d565b9050919050565b7f4552433737373a20617070726f766520746f20746865207a65726f206164647260008201527f6573730000000000000000000000000000000000000000000000000000000000602082015250565b6000612c0c602383612000565b9150612c1782612bb0565b604082019050919050565b60006020820190508181036000830152612c3b81612bff565b9050919050565b612c4b81611f2f565b82525050565b6000819050919050565b612c6481612c51565b82525050565b6000604082019050612c7f6000830185612c42565b612c8c6020830184612c5b565b9392505050565b600081519050612ca2816120c4565b92915050565b600060208284031215612cbe57612cbd6120ba565b5b6000612ccc84828501612c93565b91505092915050565b600081519050919050565b600082825260208201905092915050565b6000612cfc82612cd5565b612d068185612ce0565b9350612d16818560208601612011565b612d1f81612044565b840191505092915050565b600060c082019050612d3f6000830189612c42565b612d4c6020830188612c42565b612d596040830187612c42565b612d66606083018661219c565b8181036080830152612d788185612cf1565b905081810360a0830152612d8c8184612cf1565b9050979650505050505050565b7f4552433737373a207472616e7366657220616d6f756e7420657863656564732060008201527f62616c616e636500000000000000000000000000000000000000000000000000602082015250565b6000612df5602783612000565b9150612e0082612d99565b604082019050919050565b60006020820190508181036000830152612e2481612de8565b9050919050565b6000612e36826120f0565b9150612e41836120f0565b9250827fffffffffffffffffffffffffffffffffffffffffffffffffffffffffffffffff03821115612e7657612e75612905565b5b828201905092915050565b6000606082019050612e96600083018661219c565b8181036020830152612ea88185612cf1565b90508181036040830152612ebc8184612cf1565b9050949350505050565b7f4552433737373a20746f6b656e20726563697069656e7420636f6e747261637460008201527f20686173206e6f20696d706c656d656e74657220666f7220455243373737546f60208201527f6b656e73526563697069656e7400000000000000000000000000000000000000604082015250565b6000612f48604d83612000565b9150612f5382612ec6565b606082019050919050565b60006020820190508181036000830152612f7781612f3b565b9050919050565b7f4552433737373a2073656e642066726f6d20746865207a65726f20616464726560008201527f7373000000000000000000000000000000000000000000000000000000000000602082015250565b6000612fda602283612000565b9150612fe582612f7e565b604082019050919050565b6000602082019050818103600083015261300981612fcd565b9050919050565b7f4552433737373a2073656e6420746f20746865207a65726f2061646472657373600082015250565b6000613046602083612000565b915061305182613010565b602082019050919050565b6000602082019050818103600083015261307581613039565b9050919050565b7f4552433737373a206d696e7420746f20746865207a65726f2061646472657373600082015250565b60006130b2602083612000565b91506130bd8261307c565b602082019050919050565b600060208201905081810360008301526130e1816130a5565b9050919050565b7f4552433737373a206275726e2066726f6d20746865207a65726f20616464726560008201527f7373000000000000000000000000000000000000000000000000000000000000602082015250565b6000613144602283612000565b915061314f826130e8565b604082019050919050565b6000602082019050818103600083015261317381613137565b9050919050565b7f4552433737373a206275726e20616d6f756e7420657863656564732062616c6160008201527f6e63650000000000000000000000000000000000000000000000000000000000602082015250565b60006131d6602383612000565b91506131e18261317a565b604082019050919050565b60006020820190508181036000830152613205816131c9565b905091905056fea26469706673582212204e9c278a1206525499b1104183438eaf23d37a925e7d472425f066118c92104264736f6c63430008090033",
  "linkReferences": {},
  "deployedLinkReferences": {}
}